{
  "contractName": "Chaingear",
  "abi": [
    {
      "constant": true,
      "inputs": [],
      "name": "name",
      "outputs": [
        {
          "name": "",
          "type": "string"
        }
      ],
      "payable": false,
      "stateMutability": "view",
      "type": "function"
    },
    {
      "constant": true,
      "inputs": [],
      "name": "registrationFee",
      "outputs": [
        {
          "name": "",
          "type": "uint256"
        }
      ],
      "payable": false,
      "stateMutability": "view",
      "type": "function"
    },
    {
      "constant": true,
      "inputs": [],
      "name": "totalShares",
      "outputs": [
        {
          "name": "",
          "type": "uint256"
        }
      ],
      "payable": false,
      "stateMutability": "view",
      "type": "function"
    },
    {
      "constant": false,
      "inputs": [],
      "name": "unpause",
      "outputs": [],
      "payable": false,
      "stateMutability": "nonpayable",
      "type": "function"
    },
    {
      "constant": false,
      "inputs": [],
      "name": "claim",
      "outputs": [],
      "payable": false,
      "stateMutability": "nonpayable",
      "type": "function"
    },
    {
      "constant": true,
      "inputs": [],
      "name": "paused",
      "outputs": [
        {
          "name": "",
          "type": "bool"
        }
      ],
      "payable": false,
      "stateMutability": "view",
      "type": "function"
    },
    {
      "constant": true,
      "inputs": [
        {
          "name": "",
          "type": "uint256"
        }
      ],
      "name": "payees",
      "outputs": [
        {
          "name": "",
          "type": "address"
        }
      ],
      "payable": false,
      "stateMutability": "view",
      "type": "function"
    },
    {
      "constant": true,
      "inputs": [
        {
          "name": "",
          "type": "uint256"
        }
      ],
      "name": "registries",
      "outputs": [
        {
          "name": "name",
          "type": "string"
        },
        {
          "name": "contractAddress",
          "type": "address"
        },
        {
          "name": "creator",
          "type": "address"
        },
        {
          "name": "registrationTimestamp",
          "type": "uint256"
        },
        {
          "name": "linkABI",
          "type": "string"
        }
      ],
      "payable": false,
      "stateMutability": "view",
      "type": "function"
    },
    {
      "constant": true,
      "inputs": [],
      "name": "description",
      "outputs": [
        {
          "name": "",
          "type": "string"
        }
      ],
      "payable": false,
      "stateMutability": "view",
      "type": "function"
    },
    {
      "constant": false,
      "inputs": [
        {
          "name": "_payeeIndex",
          "type": "uint256"
        },
        {
          "name": "_newAddress",
          "type": "address"
        }
      ],
      "name": "changePayeeAddress",
      "outputs": [],
      "payable": false,
      "stateMutability": "nonpayable",
      "type": "function"
    },
    {
      "constant": false,
      "inputs": [],
      "name": "destroy",
      "outputs": [],
      "payable": false,
      "stateMutability": "nonpayable",
      "type": "function"
    },
    {
      "constant": false,
      "inputs": [],
      "name": "pause",
      "outputs": [],
      "payable": false,
      "stateMutability": "nonpayable",
      "type": "function"
    },
    {
      "constant": false,
      "inputs": [
        {
          "name": "_linkMeta",
          "type": "string"
        }
      ],
      "name": "updateMetaLink",
      "outputs": [],
      "payable": false,
      "stateMutability": "nonpayable",
      "type": "function"
    },
    {
      "constant": true,
      "inputs": [],
      "name": "owner",
      "outputs": [
        {
          "name": "",
          "type": "address"
        }
      ],
      "payable": false,
      "stateMutability": "view",
      "type": "function"
    },
    {
      "constant": true,
      "inputs": [
        {
          "name": "",
          "type": "address"
        }
      ],
      "name": "released",
      "outputs": [
        {
          "name": "",
          "type": "uint256"
        }
      ],
      "payable": false,
      "stateMutability": "view",
      "type": "function"
    },
    {
      "constant": true,
      "inputs": [
        {
          "name": "",
          "type": "address"
        }
      ],
      "name": "shares",
      "outputs": [
        {
          "name": "",
          "type": "uint256"
        }
      ],
      "payable": false,
      "stateMutability": "view",
      "type": "function"
    },
    {
      "constant": true,
      "inputs": [],
      "name": "totalReleased",
      "outputs": [
        {
          "name": "",
          "type": "uint256"
        }
      ],
      "payable": false,
      "stateMutability": "view",
      "type": "function"
    },
    {
      "constant": false,
      "inputs": [
        {
          "name": "newOwner",
          "type": "address"
        }
      ],
      "name": "transferOwnership",
      "outputs": [],
      "payable": false,
      "stateMutability": "nonpayable",
      "type": "function"
    },
    {
      "constant": false,
      "inputs": [
        {
          "name": "_recipient",
          "type": "address"
        }
      ],
      "name": "destroyAndSend",
      "outputs": [],
      "payable": false,
      "stateMutability": "nonpayable",
      "type": "function"
    },
    {
      "inputs": [
        {
          "name": "_benefitiaries",
          "type": "address[]"
        },
        {
          "name": "_shares",
          "type": "uint256[]"
        },
        {
          "name": "_name",
          "type": "string"
        },
        {
          "name": "_description",
          "type": "string"
        },
        {
          "name": "_linkABI",
          "type": "string"
        },
        {
          "name": "_linkMeta",
          "type": "string"
        },
        {
          "name": "_registrationFee",
          "type": "uint256"
        }
      ],
      "payable": false,
      "stateMutability": "nonpayable",
      "type": "constructor"
    },
    {
      "anonymous": false,
      "inputs": [
        {
          "indexed": false,
          "name": "name",
          "type": "string"
        },
        {
          "indexed": false,
          "name": "creator",
          "type": "address"
        },
        {
          "indexed": false,
          "name": "entryId",
          "type": "uint256"
        }
      ],
      "name": "RegistryAdded",
      "type": "event"
    },
    {
      "anonymous": false,
      "inputs": [
        {
          "indexed": false,
          "name": "payeeIndex",
          "type": "uint256"
        },
        {
          "indexed": false,
          "name": "oldAddress",
          "type": "address"
        },
        {
          "indexed": false,
          "name": "newAddress",
          "type": "address"
        }
      ],
      "name": "PayeeAddressChanged",
      "type": "event"
    },
    {
      "anonymous": false,
      "inputs": [],
      "name": "Pause",
      "type": "event"
    },
    {
      "anonymous": false,
      "inputs": [],
      "name": "Unpause",
      "type": "event"
    },
    {
      "anonymous": false,
      "inputs": [
        {
          "indexed": false,
          "name": "linkMeta",
          "type": "string"
        }
      ],
      "name": "MetaLinkUpdated",
      "type": "event"
    },
    {
      "anonymous": false,
      "inputs": [
        {
          "indexed": true,
          "name": "previousOwner",
          "type": "address"
        },
        {
          "indexed": true,
          "name": "newOwner",
          "type": "address"
        }
      ],
      "name": "OwnershipTransferred",
      "type": "event"
    },
    {
      "constant": false,
      "inputs": [
        {
          "name": "_name",
          "type": "string"
        },
        {
          "name": "_address",
          "type": "address"
        },
        {
          "name": "_linkABI",
          "type": "string"
        }
      ],
      "name": "register",
      "outputs": [],
      "payable": true,
      "stateMutability": "payable",
      "type": "function"
    },
    {
      "constant": true,
      "inputs": [],
      "name": "registriesAmount",
      "outputs": [
        {
          "name": "",
          "type": "uint256"
        }
      ],
      "payable": false,
      "stateMutability": "view",
      "type": "function"
    },
    {
      "constant": false,
      "inputs": [
        {
          "name": "_fee",
          "type": "uint256"
        }
      ],
      "name": "updateRegistrationFee",
      "outputs": [],
      "payable": false,
      "stateMutability": "nonpayable",
      "type": "function"
    },
    {
      "constant": false,
      "inputs": [
        {
          "name": "_name",
          "type": "string"
        }
      ],
      "name": "updateName",
      "outputs": [],
      "payable": false,
      "stateMutability": "nonpayable",
      "type": "function"
    },
    {
      "constant": false,
      "inputs": [
        {
          "name": "_description",
          "type": "string"
        }
      ],
      "name": "updateDescription",
      "outputs": [],
      "payable": false,
      "stateMutability": "nonpayable",
      "type": "function"
    }
  ],
  "bytecode": "0x60606040526000805560006001556000600860006101000a81548160ff02191690831515021790555034156200003457600080fd5b604051620022083803806200220883398101604052808051820191906020018051820191906020018051820191906020018051820191906020018051820191906020018051820191906020018051906020019091905050868684848383600081518351141515620000a457600080fd5b600090505b82518110156200011157620001038382815181101515620000c657fe5b906020019060200201518383815181101515620000df57fe5b906020019060200201516200022e6401000000000262001ba2176401000000009004565b8080600101915050620000a9565b50505033600560006101000a81548173ffffffffffffffffffffffffffffffffffffffff021916908373ffffffffffffffffffffffffffffffffffffffff160217905550600560009054906101000a900473ffffffffffffffffffffffffffffffffffffffff1673ffffffffffffffffffffffffffffffffffffffff163373ffffffffffffffffffffffffffffffffffffffff16141515620001b257600080fd5b8160069080519060200190620001ca929190620003c1565b508060079080519060200190620001e3929190620003c1565b505050505080600b81905550846009908051906020019062000207929190620003c1565b5083600a908051906020019062000220929190620003c1565b50505050505050506200049f565b600073ffffffffffffffffffffffffffffffffffffffff168273ffffffffffffffffffffffffffffffffffffffff16141515156200026b57600080fd5b6000811115156200027b57600080fd5b6000600260008473ffffffffffffffffffffffffffffffffffffffff1673ffffffffffffffffffffffffffffffffffffffff16815260200190815260200160002054141515620002ca57600080fd5b60048054806001018281620002e0919062000448565b9160005260206000209001600084909190916101000a81548173ffffffffffffffffffffffffffffffffffffffff021916908373ffffffffffffffffffffffffffffffffffffffff1602179055505080600260008473ffffffffffffffffffffffffffffffffffffffff1673ffffffffffffffffffffffffffffffffffffffff168152602001908152602001600020819055506200039881600054620003a264010000000002620018e1179091906401000000009004565b6000819055505050565b6000808284019050838110151515620003b757fe5b8091505092915050565b828054600181600116156101000203166002900490600052602060002090601f016020900481019282601f106200040457805160ff191683800117855562000435565b8280016001018555821562000435579182015b828111156200043457825182559160200191906001019062000417565b5b50905062000444919062000477565b5090565b815481835581811511620004725781836000526020600020918201910162000471919062000477565b5b505050565b6200049c91905b80821115620004985760008160009055506001016200047e565b5090565b90565b611d5980620004af6000396000f30060606040526004361061013e576000357c0100000000000000000000000000000000000000000000000000000000900463ffffffff1680630578dd1c1461014357806306fdde031461019957806314c44e09146102275780633a98ef39146102505780633f4ba83a146102795780634e71d92d1461028e578063557902ad146102a35780635c975abb146102cc57806363037b0c146102f95780636347c9001461035c5780637284e4161461050b5780637b4937681461059957806383197ef0146105db5780638456cb59146105f057806384da92a7146106055780638aed4b63146106335780638da5cb5b146106615780639852595c146106b6578063af582c6b14610703578063ce7c2ac214610726578063e33b7de314610773578063e735b48a1461079c578063f2fde38b146107ca578063f5074f4114610803575b600080fd5b6101976004808035906020019082018035906020019190919290803573ffffffffffffffffffffffffffffffffffffffff16906020019091908035906020019082018035906020019190919290505061083c565b005b34156101a457600080fd5b6101ac610a9e565b6040518080602001828103825283818151815260200191508051906020019080838360005b838110156101ec5780820151818401526020810190506101d1565b50505050905090810190601f1680156102195780820380516001836020036101000a031916815260200191505b509250505060405180910390f35b341561023257600080fd5b61023a610b3c565b6040518082815260200191505060405180910390f35b341561025b57600080fd5b610263610b42565b6040518082815260200191505060405180910390f35b341561028457600080fd5b61028c610b48565b005b341561029957600080fd5b6102a1610c08565b005b34156102ae57600080fd5b6102b6610e70565b6040518082815260200191505060405180910390f35b34156102d757600080fd5b6102df610e7d565b604051808215151515815260200191505060405180910390f35b341561030457600080fd5b61031a6004808035906020019091905050610e90565b604051808273ffffffffffffffffffffffffffffffffffffffff1673ffffffffffffffffffffffffffffffffffffffff16815260200191505060405180910390f35b341561036757600080fd5b61037d6004808035906020019091905050610ecf565b60405180806020018673ffffffffffffffffffffffffffffffffffffffff1673ffffffffffffffffffffffffffffffffffffffff1681526020018573ffffffffffffffffffffffffffffffffffffffff1673ffffffffffffffffffffffffffffffffffffffff168152602001848152602001806020018381038352888181546001816001161561010002031660029004815260200191508054600181600116156101000203166002900480156104745780601f1061044957610100808354040283529160200191610474565b820191906000526020600020905b81548152906001019060200180831161045757829003601f168201915b50508381038252848181546001816001161561010002031660029004815260200191508054600181600116156101000203166002900480156104f75780601f106104cc576101008083540402835291602001916104f7565b820191906000526020600020905b8154815290600101906020018083116104da57829003601f168201915b505097505050505050505060405180910390f35b341561051657600080fd5b61051e610f52565b6040518080602001828103825283818151815260200191508051906020019080838360005b8381101561055e578082015181840152602081019050610543565b50505050905090810190601f16801561058b5780820380516001836020036101000a031916815260200191505b509250505060405180910390f35b34156105a457600080fd5b6105d9600480803590602001909190803573ffffffffffffffffffffffffffffffffffffffff16906020019091905050610ff0565b005b34156105e657600080fd5b6105ee611314565b005b34156105fb57600080fd5b6106036113ab565b005b341561061057600080fd5b6106316004808035906020019082018035906020019190919290505061146c565b005b341561063e57600080fd5b61065f60048080359060200190820180359060200191909192905050611503565b005b341561066c57600080fd5b6106746115c6565b604051808273ffffffffffffffffffffffffffffffffffffffff1673ffffffffffffffffffffffffffffffffffffffff16815260200191505060405180910390f35b34156106c157600080fd5b6106ed600480803573ffffffffffffffffffffffffffffffffffffffff169060200190919050506115ec565b6040518082815260200191505060405180910390f35b341561070e57600080fd5b6107246004808035906020019091905050611604565b005b341561073157600080fd5b61075d600480803573ffffffffffffffffffffffffffffffffffffffff1690602001909190505061166a565b6040518082815260200191505060405180910390f35b341561077e57600080fd5b610786611682565b6040518082815260200191505060405180910390f35b34156107a757600080fd5b6107c860048080359060200190820180359060200191909192905050611688565b005b34156107d557600080fd5b610801600480803573ffffffffffffffffffffffffffffffffffffffff16906020019091905050611714565b005b341561080e57600080fd5b61083a600480803573ffffffffffffffffffffffffffffffffffffffff1690602001909190505061186c565b005b600b543414151561084c57600080fd5b600c8054806001018281610860919061196e565b9160005260206000209060050201600060a06040519081016040528089898080601f01602080910402602001604051908101604052809392919081815260200183838082843782019150505050505081526020018773ffffffffffffffffffffffffffffffffffffffff1681526020013373ffffffffffffffffffffffffffffffffffffffff16815260200142815260200186868080601f016020809104026020016040519081016040528093929190818152602001838380828437820191505050505050815250909190915060008201518160000190805190602001906109499291906119a0565b5060208201518160010160006101000a81548173ffffffffffffffffffffffffffffffffffffffff021916908373ffffffffffffffffffffffffffffffffffffffff16021790555060408201518160020160006101000a81548173ffffffffffffffffffffffffffffffffffffffff021916908373ffffffffffffffffffffffffffffffffffffffff1602179055506060820151816003015560808201518160040190805190602001906109fe9291906119a0565b505050507ff1c7148bd8789b32d03db8530b65543f54c66678f0da238b27c1500a9c1db2228585336001600c805490500360405180806020018473ffffffffffffffffffffffffffffffffffffffff1673ffffffffffffffffffffffffffffffffffffffff168152602001838152602001828103825286868281815260200192508082843782019150509550505050505060405180910390a15050505050565b60098054600181600116156101000203166002900480601f016020809104026020016040519081016040528092919081815260200182805460018160011615610100020316600290048015610b345780601f10610b0957610100808354040283529160200191610b34565b820191906000526020600020905b815481529060010190602001808311610b1757829003601f168201915b505050505081565b600b5481565b60005481565b600560009054906101000a900473ffffffffffffffffffffffffffffffffffffffff1673ffffffffffffffffffffffffffffffffffffffff163373ffffffffffffffffffffffffffffffffffffffff16141515610ba457600080fd5b600860009054906101000a900460ff161515610bbf57600080fd5b6000600860006101000a81548160ff0219169083151502179055507f7805862f689e2f13df9f062ff482ad3ad112aca9e0847911ed832e158c525b3360405160405180910390a1565b60008060003392506000600260008573ffffffffffffffffffffffffffffffffffffffff1673ffffffffffffffffffffffffffffffffffffffff16815260200190815260200160002054111515610c5e57600080fd5b610c8a6001543073ffffffffffffffffffffffffffffffffffffffff16316118e190919063ffffffff16565b9150610d43600360008573ffffffffffffffffffffffffffffffffffffffff1673ffffffffffffffffffffffffffffffffffffffff16815260200190815260200160002054610d35600054610d27600260008973ffffffffffffffffffffffffffffffffffffffff1673ffffffffffffffffffffffffffffffffffffffff16815260200190815260200160002054876118ff90919063ffffffff16565b61193a90919063ffffffff16565b61195590919063ffffffff16565b905060008114151515610d5557600080fd5b803073ffffffffffffffffffffffffffffffffffffffff163110151515610d7b57600080fd5b610dcd81600360008673ffffffffffffffffffffffffffffffffffffffff1673ffffffffffffffffffffffffffffffffffffffff168152602001908152602001600020546118e190919063ffffffff16565b600360008573ffffffffffffffffffffffffffffffffffffffff1673ffffffffffffffffffffffffffffffffffffffff16815260200190815260200160002081905550610e25816001546118e190919063ffffffff16565b6001819055508273ffffffffffffffffffffffffffffffffffffffff166108fc829081150290604051600060405180830381858888f193505050501515610e6b57600080fd5b505050565b6000600c80549050905090565b600860009054906101000a900460ff1681565b600481815481101515610e9f57fe5b90600052602060002090016000915054906101000a900473ffffffffffffffffffffffffffffffffffffffff1681565b600c81815481101515610ede57fe5b906000526020600020906005020160009150905080600001908060010160009054906101000a900473ffffffffffffffffffffffffffffffffffffffff16908060020160009054906101000a900473ffffffffffffffffffffffffffffffffffffffff169080600301549080600401905085565b600a8054600181600116156101000203166002900480601f016020809104026020016040519081016040528092919081815260200182805460018160011615610100020316600290048015610fe85780601f10610fbd57610100808354040283529160200191610fe8565b820191906000526020600020905b815481529060010190602001808311610fcb57829003601f168201915b505050505081565b6000600560009054906101000a900473ffffffffffffffffffffffffffffffffffffffff1673ffffffffffffffffffffffffffffffffffffffff163373ffffffffffffffffffffffffffffffffffffffff1614151561104e57600080fd5b60048381548110151561105d57fe5b906000526020600020900160009054906101000a900473ffffffffffffffffffffffffffffffffffffffff169050600260008273ffffffffffffffffffffffffffffffffffffffff1673ffffffffffffffffffffffffffffffffffffffff16815260200190815260200160002054600260008473ffffffffffffffffffffffffffffffffffffffff1673ffffffffffffffffffffffffffffffffffffffff16815260200190815260200160002081905550600360008273ffffffffffffffffffffffffffffffffffffffff1673ffffffffffffffffffffffffffffffffffffffff16815260200190815260200160002054600360008473ffffffffffffffffffffffffffffffffffffffff1673ffffffffffffffffffffffffffffffffffffffff16815260200190815260200160002081905550816004848154811015156111a157fe5b906000526020600020900160006101000a81548173ffffffffffffffffffffffffffffffffffffffff021916908373ffffffffffffffffffffffffffffffffffffffff160217905550600260008273ffffffffffffffffffffffffffffffffffffffff1673ffffffffffffffffffffffffffffffffffffffff16815260200190815260200160002060009055600360008273ffffffffffffffffffffffffffffffffffffffff1673ffffffffffffffffffffffffffffffffffffffff168152602001908152602001600020600090557fa1982f3fe3fa9dba8ce5bc91687e2ab0850b0431cddacc1a249b2ae0390b912f838284604051808481526020018373ffffffffffffffffffffffffffffffffffffffff1673ffffffffffffffffffffffffffffffffffffffff1681526020018273ffffffffffffffffffffffffffffffffffffffff1673ffffffffffffffffffffffffffffffffffffffff168152602001935050505060405180910390a1505050565b600560009054906101000a900473ffffffffffffffffffffffffffffffffffffffff1673ffffffffffffffffffffffffffffffffffffffff163373ffffffffffffffffffffffffffffffffffffffff1614151561137057600080fd5b600560009054906101000a900473ffffffffffffffffffffffffffffffffffffffff1673ffffffffffffffffffffffffffffffffffffffff16ff5b600560009054906101000a900473ffffffffffffffffffffffffffffffffffffffff1673ffffffffffffffffffffffffffffffffffffffff163373ffffffffffffffffffffffffffffffffffffffff1614151561140757600080fd5b600860009054906101000a900460ff1615151561142357600080fd5b6001600860006101000a81548160ff0219169083151502179055507f6985a02210a168e66602d3235cb6db0e70f92b3ba4d376a33c0f3d9434bff62560405160405180910390a1565b6000600560009054906101000a900473ffffffffffffffffffffffffffffffffffffffff1673ffffffffffffffffffffffffffffffffffffffff163373ffffffffffffffffffffffffffffffffffffffff161415156114ca57600080fd5b8282905090506000811180156114e1575060208111155b15156114ec57600080fd5b8282600991906114fd929190611a20565b50505050565b600560009054906101000a900473ffffffffffffffffffffffffffffffffffffffff1673ffffffffffffffffffffffffffffffffffffffff163373ffffffffffffffffffffffffffffffffffffffff1614151561155f57600080fd5b818160079190611570929190611a20565b507f6362a59ae98fef1a0a45d03a1127a82c2268ca380148117a052b9f8bce8e6f1e8282604051808060200182810382528484828181526020019250808284378201915050935050505060405180910390a15050565b600560009054906101000a900473ffffffffffffffffffffffffffffffffffffffff1681565b60036020528060005260406000206000915090505481565b600560009054906101000a900473ffffffffffffffffffffffffffffffffffffffff1673ffffffffffffffffffffffffffffffffffffffff163373ffffffffffffffffffffffffffffffffffffffff1614151561166057600080fd5b80600b8190555050565b60026020528060005260406000206000915090505481565b60015481565b6000600560009054906101000a900473ffffffffffffffffffffffffffffffffffffffff1673ffffffffffffffffffffffffffffffffffffffff163373ffffffffffffffffffffffffffffffffffffffff161415156116e657600080fd5b82829050905061010081111515156116fd57600080fd5b8282600a919061170e929190611a20565b50505050565b600560009054906101000a900473ffffffffffffffffffffffffffffffffffffffff1673ffffffffffffffffffffffffffffffffffffffff163373ffffffffffffffffffffffffffffffffffffffff1614151561177057600080fd5b600073ffffffffffffffffffffffffffffffffffffffff168173ffffffffffffffffffffffffffffffffffffffff16141515156117ac57600080fd5b8073ffffffffffffffffffffffffffffffffffffffff16600560009054906101000a900473ffffffffffffffffffffffffffffffffffffffff1673ffffffffffffffffffffffffffffffffffffffff167f8be0079c531659141344cd1fd0a4f28419497f9722a3daafe3b4186f6b6457e060405160405180910390a380600560006101000a81548173ffffffffffffffffffffffffffffffffffffffff021916908373ffffffffffffffffffffffffffffffffffffffff16021790555050565b600560009054906101000a900473ffffffffffffffffffffffffffffffffffffffff1673ffffffffffffffffffffffffffffffffffffffff163373ffffffffffffffffffffffffffffffffffffffff161415156118c857600080fd5b8073ffffffffffffffffffffffffffffffffffffffff16ff5b60008082840190508381101515156118f557fe5b8091505092915050565b60008060008414156119145760009150611933565b828402905082848281151561192557fe5b0414151561192f57fe5b8091505b5092915050565b600080828481151561194857fe5b0490508091505092915050565b600082821115151561196357fe5b818303905092915050565b81548183558181151161199b5760050281600502836000526020600020918201910161199a9190611aa0565b5b505050565b828054600181600116156101000203166002900490600052602060002090601f016020900481019282601f106119e157805160ff1916838001178555611a0f565b82800160010185558215611a0f579182015b82811115611a0e5782518255916020019190600101906119f3565b5b509050611a1c9190611b35565b5090565b828054600181600116156101000203166002900490600052602060002090601f016020900481019282601f10611a6157803560ff1916838001178555611a8f565b82800160010185558215611a8f579182015b82811115611a8e578235825591602001919060010190611a73565b5b509050611a9c9190611b35565b5090565b611b3291905b80821115611b2e5760008082016000611abf9190611b5a565b6001820160006101000a81549073ffffffffffffffffffffffffffffffffffffffff02191690556002820160006101000a81549073ffffffffffffffffffffffffffffffffffffffff02191690556003820160009055600482016000611b259190611b5a565b50600501611aa6565b5090565b90565b611b5791905b80821115611b53576000816000905550600101611b3b565b5090565b90565b50805460018160011615610100020316600290046000825580601f10611b805750611b9f565b601f016020900490600052602060002090810190611b9e9190611b35565b5b50565b600073ffffffffffffffffffffffffffffffffffffffff168273ffffffffffffffffffffffffffffffffffffffff1614151515611bde57600080fd5b600081111515611bed57600080fd5b6000600260008473ffffffffffffffffffffffffffffffffffffffff1673ffffffffffffffffffffffffffffffffffffffff16815260200190815260200160002054141515611c3b57600080fd5b60048054806001018281611c4f9190611d01565b9160005260206000209001600084909190916101000a81548173ffffffffffffffffffffffffffffffffffffffff021916908373ffffffffffffffffffffffffffffffffffffffff1602179055505080600260008473ffffffffffffffffffffffffffffffffffffffff1673ffffffffffffffffffffffffffffffffffffffff16815260200190815260200160002081905550611cf7816000546118e190919063ffffffff16565b6000819055505050565b815481835581811511611d2857818360005260206000209182019101611d279190611b35565b5b5050505600a165627a7a72305820a0ca2e00dd771b96dd0299bc73f6c2a675f5dada66f1060b0cba0bc43f7053910029",
  "source": "pragma solidity ^0.4.17;\n\nimport \"zeppelin-solidity/contracts/lifecycle/Destructible.sol\";\nimport \"zeppelin-solidity/contracts/lifecycle/Pausable.sol\";\n/* import \"zeppelin-solidity/contracts/ownership/Claimable.sol\"; */\n/* import \"zeppelin-solidity/contracts/ownership/Whitelist.sol\"; */\nimport \"zeppelin-solidity/contracts/ownership/Ownable.sol\";\nimport \"./common/SplitPaymentChangeable.sol\";\nimport \"./common/IPFSeable.sol\";\n\ncontract Chaingear is Ownable, IPFSeable, Pausable, Destructible, SplitPaymentChangeable {\n\n    struct Registry {\n        string name;\n        address contractAddress;\n        address creator;\n        uint registrationTimestamp;\n        string linkABI;\n    }\n\n    string public name;\n    string public description;\n    uint public registrationFee;\n\n    // to think about permissions\n    /* enum PermissionType {OnlyOwner, AllUsers, Whitelist} */\n\n    Registry[] public registries;\n    event RegistryAdded(string name, address creator, uint entryId);\n\n    function Chaingear(\n        address[] _benefitiaries,\n        uint256[] _shares,\n        string _name,\n        string _description,\n        string _linkABI,\n        string _linkMeta,\n        uint _registrationFee\n    ) SplitPaymentChangeable(_benefitiaries, _shares) IPFSeable(_linkABI, _linkMeta) public {\n        registrationFee = _registrationFee;\n        name = _name;\n        description = _description;\n    }\n\n    function register(string _name, address _address, string _linkABI) external payable {\n        require(msg.value == registrationFee);\n\n        registries.push(Registry(\n        {\n            name: _name,\n            contractAddress: _address,\n            creator: msg.sender,\n            linkABI: _linkABI,\n            registrationTimestamp: now\n        }));\n\n        RegistryAdded(_name, msg.sender, registries.length - 1);\n    }\n\n    function registriesAmount() constant public returns (uint) {\n        return registries.length;\n    }\n\n    function updateRegistrationFee(uint _fee) external onlyOwner {\n        registrationFee = _fee;\n    }\n\n    function updateName(string _name) external onlyOwner {\n        uint len = bytes(_name).length;\n        require(len > 0 && len <= 32);\n\n        name = _name;\n    }\n\n    function updateDescription(string _description) external onlyOwner {\n        uint len = bytes(_description).length;\n        require(len <= 256);\n\n        description = _description;\n    }\n}\n",
  "sourcePath": "/Users/andrey/projects/cyberFund/chaingear/contracts/Chaingear.sol",
  "compiler": {
    "name": "solc",
    "version": "0.4.19+commit.c4cbbb05.Emscripten.clang"
  },
  "schemaVersion": "2.0.0",
  "updatedAt": "2018-03-29T13:01:55.027Z"
}