{
  "contractName": "Chaingear",
  "abi": [
    {
      "constant": false,
      "inputs": [
        {
          "name": "_name",
          "type": "string"
        },
        {
          "name": "_address",
          "type": "address"
        }
      ],
      "name": "register",
      "outputs": [],
      "payable": false,
      "stateMutability": "nonpayable",
      "type": "function"
    },
    {
      "constant": true,
      "inputs": [],
      "name": "contractsLength",
      "outputs": [
        {
          "name": "",
          "type": "uint256"
        }
      ],
      "payable": false,
      "stateMutability": "view",
      "type": "function"
    },
    {
      "constant": true,
      "inputs": [
        {
          "name": "",
          "type": "uint256"
        }
      ],
      "name": "contracts",
      "outputs": [
        {
          "name": "name",
          "type": "string"
        },
        {
          "name": "contractAddress",
          "type": "address"
        }
      ],
      "payable": false,
      "stateMutability": "view",
      "type": "function"
    },
    {
      "anonymous": false,
      "inputs": [
        {
          "indexed": false,
          "name": "owner",
          "type": "address"
        },
        {
          "indexed": false,
          "name": "entryId",
          "type": "uint256"
        }
      ],
      "name": "EntryCreated",
      "type": "event"
    }
  ],
  "bytecode": "0x6060604052341561000f57600080fd5b6105228061001e6000396000f300606060405260043610610057576000357c0100000000000000000000000000000000000000000000000000000000900463ffffffff1680631e59c5291461005c5780633fad74ad146100a9578063474da79a146100d2575b600080fd5b341561006757600080fd5b6100a76004808035906020019082018035906020019190919290803573ffffffffffffffffffffffffffffffffffffffff169060200190919050506101be565b005b34156100b457600080fd5b6100bc610323565b6040518082815260200191505060405180910390f35b34156100dd57600080fd5b6100f3600480803590602001909190505061032f565b60405180806020018373ffffffffffffffffffffffffffffffffffffffff1673ffffffffffffffffffffffffffffffffffffffff1681526020018281038252848181546001816001161561010002031660029004815260200191508054600181600116156101000203166002900480156101ae5780601f10610183576101008083540402835291602001916101ae565b820191906000526020600020905b81548152906001019060200180831161019157829003601f168201915b5050935050505060405180910390f35b600080548060010182816101d29190610381565b91600052602060002090600202016000604080519081016040528087878080601f01602080910402602001604051908101604052809392919081815260200183838082843782019150505050505081526020018573ffffffffffffffffffffffffffffffffffffffff16815250909190915060008201518160000190805190602001906102609291906103b3565b5060208201518160010160006101000a81548173ffffffffffffffffffffffffffffffffffffffff021916908373ffffffffffffffffffffffffffffffffffffffff1602179055505050507fe9a0a2aca9c41fae94448dec8914ad73e4d00ebdc2427e61f3fc66919f4ffa2a33600160008054905003604051808373ffffffffffffffffffffffffffffffffffffffff1673ffffffffffffffffffffffffffffffffffffffff1681526020018281526020019250505060405180910390a1505050565b60008080549050905090565b60008181548110151561033e57fe5b906000526020600020906002020160009150905080600001908060010160009054906101000a900473ffffffffffffffffffffffffffffffffffffffff16905082565b8154818355818115116103ae576002028160020283600052602060002091820191016103ad9190610433565b5b505050565b828054600181600116156101000203166002900490600052602060002090601f016020900481019282601f106103f457805160ff1916838001178555610422565b82800160010185558215610422579182015b82811115610421578251825591602001919060010190610406565b5b50905061042f9190610489565b5090565b61048691905b80821115610482576000808201600061045291906104ae565b6001820160006101000a81549073ffffffffffffffffffffffffffffffffffffffff021916905550600201610439565b5090565b90565b6104ab91905b808211156104a757600081600090555060010161048f565b5090565b90565b50805460018160011615610100020316600290046000825580601f106104d457506104f3565b601f0160209004906000526020600020908101906104f29190610489565b5b505600a165627a7a72305820ef6cbded14942428da2038d6afd849fa6360aa7f7ea5f1d8303ca3765fb980810029",
  "source": "pragma solidity ^0.4.18;\n\ncontract Chaingear  {\n\tstruct ContractItem {\n\t\tstring name;\n\t\taddress contractAddress;\n\t}\n\n\tContractItem[] public contracts;\n\tevent EntryCreated(address owner, uint entryId);\n\n\tfunction register(string _name, address _address) external {\n\n        contracts.push(ContractItem(\n        {\n            name: _name,\n            contractAddress: _address\n        }));\n    \n        EntryCreated(msg.sender, contracts.length - 1);\n\t}\n\n\t\n\n    function contractsLength() constant public returns (uint) {\n        return contracts.length;\n    }\n}",
  "sourcePath": "/Users/andrey/projects/cyberFund/test-orbit/contracts/Chaingear.sol",
  "compiler": {
    "name": "solc",
    "version": "0.4.18+commit.9cf6e910.Emscripten.clang"
  },
  "schemaVersion": "1.0.1",
  "updatedAt": "2018-02-26T14:41:13.367Z"
}