{
  "contractName": "Chaingear",
  "abi": [
    {
      "constant": true,
      "inputs": [
        {
          "name": "",
          "type": "uint256"
        }
      ],
      "name": "contracts",
      "outputs": [
        {
          "name": "name",
          "type": "string"
        },
        {
          "name": "contractAddress",
          "type": "address"
        },
        {
          "name": "ipfsHash",
          "type": "string"
        }
      ],
      "payable": false,
      "stateMutability": "view",
      "type": "function"
    },
    {
      "anonymous": false,
      "inputs": [
        {
          "indexed": false,
          "name": "owner",
          "type": "address"
        },
        {
          "indexed": false,
          "name": "entryId",
          "type": "uint256"
        }
      ],
      "name": "EntryCreated",
      "type": "event"
    },
    {
      "constant": false,
      "inputs": [
        {
          "name": "_name",
          "type": "string"
        },
        {
          "name": "_address",
          "type": "address"
        },
        {
          "name": "_ipfsHash",
          "type": "string"
        }
      ],
      "name": "register",
      "outputs": [],
      "payable": false,
      "stateMutability": "nonpayable",
      "type": "function"
    },
    {
      "constant": true,
      "inputs": [],
      "name": "contractsLength",
      "outputs": [
        {
          "name": "",
          "type": "uint256"
        }
      ],
      "payable": false,
      "stateMutability": "view",
      "type": "function"
    }
  ],
  "bytecode": "0x6060604052341561000f57600080fd5b61062c8061001e6000396000f300606060405260043610610057576000357c0100000000000000000000000000000000000000000000000000000000900463ffffffff1680630578dd1c1461005c5780633fad74ad146100bd578063474da79a146100e6575b600080fd5b341561006757600080fd5b6100bb6004808035906020019082018035906020019190919290803573ffffffffffffffffffffffffffffffffffffffff16906020019091908035906020019082018035906020019190919290505061025b565b005b34156100c857600080fd5b6100d0610418565b6040518082815260200191505060405180910390f35b34156100f157600080fd5b6101076004808035906020019091905050610424565b60405180806020018473ffffffffffffffffffffffffffffffffffffffff1673ffffffffffffffffffffffffffffffffffffffff168152602001806020018381038352868181546001816001161561010002031660029004815260200191508054600181600116156101000203166002900480156101c65780601f1061019b576101008083540402835291602001916101c6565b820191906000526020600020905b8154815290600101906020018083116101a957829003601f168201915b50508381038252848181546001816001161561010002031660029004815260200191508054600181600116156101000203166002900480156102495780601f1061021e57610100808354040283529160200191610249565b820191906000526020600020905b81548152906001019060200180831161022c57829003601f168201915b50509550505050505060405180910390f35b6000805480600101828161026f919061047b565b9160005260206000209060030201600060606040519081016040528089898080601f01602080910402602001604051908101604052809392919081815260200183838082843782019150505050505081526020018773ffffffffffffffffffffffffffffffffffffffff16815260200186868080601f016020809104026020016040519081016040528093929190818152602001838380828437820191505050505050815250909190915060008201518160000190805190602001906103369291906104ad565b5060208201518160010160006101000a81548173ffffffffffffffffffffffffffffffffffffffff021916908373ffffffffffffffffffffffffffffffffffffffff160217905550604082015181600201908051906020019061039a9291906104ad565b505050507fe9a0a2aca9c41fae94448dec8914ad73e4d00ebdc2427e61f3fc66919f4ffa2a33600160008054905003604051808373ffffffffffffffffffffffffffffffffffffffff1673ffffffffffffffffffffffffffffffffffffffff1681526020018281526020019250505060405180910390a15050505050565b60008080549050905090565b60008181548110151561043357fe5b906000526020600020906003020160009150905080600001908060010160009054906101000a900473ffffffffffffffffffffffffffffffffffffffff169080600201905083565b8154818355818115116104a8576003028160030283600052602060002091820191016104a7919061052d565b5b505050565b828054600181600116156101000203166002900490600052602060002090601f016020900481019282601f106104ee57805160ff191683800117855561051c565b8280016001018555821561051c579182015b8281111561051b578251825591602001919060010190610500565b5b5090506105299190610593565b5090565b61059091905b8082111561058c576000808201600061054c91906105b8565b6001820160006101000a81549073ffffffffffffffffffffffffffffffffffffffff021916905560028201600061058391906105b8565b50600301610533565b5090565b90565b6105b591905b808211156105b1576000816000905550600101610599565b5090565b90565b50805460018160011615610100020316600290046000825580601f106105de57506105fd565b601f0160209004906000526020600020908101906105fc9190610593565b5b505600a165627a7a723058208f8ca4536ee0449a4cabf3a0d2be680e23008c1f68781806843565089f6a398b0029",
  "source": "pragma solidity ^0.4.18;\n\ncontract Chaingear  {\n  struct ContractItem {\n    string name;\n    address contractAddress;\n    string ipfsHash;\n  }\n\n  ContractItem[] public contracts;\n  event EntryCreated(address owner, uint entryId);\n\n  function register(string _name, address _address, string _ipfsHash) external {\n\n        contracts.push(ContractItem(\n        {\n            name: _name,\n            contractAddress: _address,\n            ipfsHash: _ipfsHash\n        }));\n    \n        EntryCreated(msg.sender, contracts.length - 1);\n  }\n\n  \n\n    function contractsLength() constant public returns (uint) {\n        return contracts.length;\n    }\n}\n",
  "sourcePath": "/Users/andrey/projects/cyberFund/chaingear/smart-contracts/contracts/Chaingear.sol",
  "compiler": {
    "name": "solc",
    "version": "0.4.19+commit.c4cbbb05.Emscripten.clang"
  },
  "schemaVersion": "2.0.0",
  "updatedAt": "2018-03-27T14:14:34.380Z"
}