{
  "contractName": "Chaingear",
  "abi": [
    {
      "constant": true,
      "inputs": [
        {
          "name": "_registryID",
          "type": "uint256"
        }
      ],
      "name": "nameOf",
      "outputs": [
        {
          "name": "",
          "type": "string"
        }
      ],
      "payable": false,
      "stateMutability": "view",
      "type": "function"
    },
    {
      "constant": true,
      "inputs": [],
      "name": "name",
      "outputs": [
        {
          "name": "",
          "type": "string"
        }
      ],
      "payable": false,
      "stateMutability": "view",
      "type": "function"
    },
    {
      "constant": true,
      "inputs": [],
      "name": "linkSourceCode",
      "outputs": [
        {
          "name": "",
          "type": "string"
        }
      ],
      "payable": false,
      "stateMutability": "view",
      "type": "function"
    },
    {
      "constant": true,
      "inputs": [
        {
          "name": "_tokenId",
          "type": "uint256"
        }
      ],
      "name": "getApproved",
      "outputs": [
        {
          "name": "",
          "type": "address"
        }
      ],
      "payable": false,
      "stateMutability": "view",
      "type": "function"
    },
    {
      "constant": false,
      "inputs": [
        {
          "name": "_to",
          "type": "address"
        },
        {
          "name": "_tokenId",
          "type": "uint256"
        }
      ],
      "name": "approve",
      "outputs": [],
      "payable": false,
      "stateMutability": "nonpayable",
      "type": "function"
    },
    {
      "constant": true,
      "inputs": [],
      "name": "totalSupply",
      "outputs": [
        {
          "name": "",
          "type": "uint256"
        }
      ],
      "payable": false,
      "stateMutability": "view",
      "type": "function"
    },
    {
      "constant": true,
      "inputs": [],
      "name": "registryCreator",
      "outputs": [
        {
          "name": "",
          "type": "address"
        }
      ],
      "payable": false,
      "stateMutability": "view",
      "type": "function"
    },
    {
      "constant": false,
      "inputs": [
        {
          "name": "_from",
          "type": "address"
        },
        {
          "name": "_to",
          "type": "address"
        },
        {
          "name": "_tokenId",
          "type": "uint256"
        }
      ],
      "name": "transferFrom",
      "outputs": [],
      "payable": false,
      "stateMutability": "nonpayable",
      "type": "function"
    },
    {
      "constant": true,
      "inputs": [
        {
          "name": "_owner",
          "type": "address"
        },
        {
          "name": "_index",
          "type": "uint256"
        }
      ],
      "name": "tokenOfOwnerByIndex",
      "outputs": [
        {
          "name": "",
          "type": "uint256"
        }
      ],
      "payable": false,
      "stateMutability": "view",
      "type": "function"
    },
    {
      "constant": true,
      "inputs": [
        {
          "name": "_registryID",
          "type": "uint256"
        }
      ],
      "name": "registryInfo",
      "outputs": [
        {
          "name": "",
          "type": "string"
        },
        {
          "name": "",
          "type": "address"
        },
        {
          "name": "",
          "type": "address"
        },
        {
          "name": "",
          "type": "uint256"
        },
        {
          "name": "",
          "type": "string"
        },
        {
          "name": "",
          "type": "address"
        }
      ],
      "payable": false,
      "stateMutability": "view",
      "type": "function"
    },
    {
      "constant": true,
      "inputs": [],
      "name": "totalShares",
      "outputs": [
        {
          "name": "",
          "type": "uint256"
        }
      ],
      "payable": false,
      "stateMutability": "view",
      "type": "function"
    },
    {
      "constant": false,
      "inputs": [],
      "name": "unpause",
      "outputs": [],
      "payable": false,
      "stateMutability": "nonpayable",
      "type": "function"
    },
    {
      "constant": false,
      "inputs": [
        {
          "name": "_from",
          "type": "address"
        },
        {
          "name": "_to",
          "type": "address"
        },
        {
          "name": "_tokenId",
          "type": "uint256"
        }
      ],
      "name": "safeTransferFrom",
      "outputs": [],
      "payable": false,
      "stateMutability": "nonpayable",
      "type": "function"
    },
    {
      "constant": true,
      "inputs": [],
      "name": "chaingearDescription",
      "outputs": [
        {
          "name": "",
          "type": "string"
        }
      ],
      "payable": false,
      "stateMutability": "view",
      "type": "function"
    },
    {
      "constant": false,
      "inputs": [
        {
          "name": "_linkABI",
          "type": "string"
        }
      ],
      "name": "setABILink",
      "outputs": [],
      "payable": false,
      "stateMutability": "nonpayable",
      "type": "function"
    },
    {
      "constant": true,
      "inputs": [],
      "name": "linkMeta",
      "outputs": [
        {
          "name": "",
          "type": "string"
        }
      ],
      "payable": false,
      "stateMutability": "view",
      "type": "function"
    },
    {
      "constant": false,
      "inputs": [],
      "name": "claim",
      "outputs": [],
      "payable": false,
      "stateMutability": "nonpayable",
      "type": "function"
    },
    {
      "constant": true,
      "inputs": [
        {
          "name": "_tokenId",
          "type": "uint256"
        }
      ],
      "name": "exists",
      "outputs": [
        {
          "name": "",
          "type": "bool"
        }
      ],
      "payable": false,
      "stateMutability": "view",
      "type": "function"
    },
    {
      "constant": true,
      "inputs": [
        {
          "name": "_index",
          "type": "uint256"
        }
      ],
      "name": "tokenByIndex",
      "outputs": [
        {
          "name": "",
          "type": "uint256"
        }
      ],
      "payable": false,
      "stateMutability": "view",
      "type": "function"
    },
    {
      "constant": true,
      "inputs": [],
      "name": "registriesAmount",
      "outputs": [
        {
          "name": "",
          "type": "uint256"
        }
      ],
      "payable": false,
      "stateMutability": "view",
      "type": "function"
    },
    {
      "constant": true,
      "inputs": [
        {
          "name": "_registryID",
          "type": "uint256"
        }
      ],
      "name": "creatorOf",
      "outputs": [
        {
          "name": "",
          "type": "address"
        }
      ],
      "payable": false,
      "stateMutability": "view",
      "type": "function"
    },
    {
      "constant": true,
      "inputs": [],
      "name": "paused",
      "outputs": [
        {
          "name": "",
          "type": "bool"
        }
      ],
      "payable": false,
      "stateMutability": "view",
      "type": "function"
    },
    {
      "constant": true,
      "inputs": [
        {
          "name": "",
          "type": "uint256"
        }
      ],
      "name": "payees",
      "outputs": [
        {
          "name": "",
          "type": "address"
        }
      ],
      "payable": false,
      "stateMutability": "view",
      "type": "function"
    },
    {
      "constant": true,
      "inputs": [
        {
          "name": "_tokenId",
          "type": "uint256"
        }
      ],
      "name": "ownerOf",
      "outputs": [
        {
          "name": "",
          "type": "address"
        }
      ],
      "payable": false,
      "stateMutability": "view",
      "type": "function"
    },
    {
      "constant": false,
      "inputs": [
        {
          "name": "_linkMeta",
          "type": "string"
        }
      ],
      "name": "setMetaLink",
      "outputs": [],
      "payable": false,
      "stateMutability": "nonpayable",
      "type": "function"
    },
    {
      "constant": true,
      "inputs": [
        {
          "name": "_owner",
          "type": "address"
        }
      ],
      "name": "balanceOf",
      "outputs": [
        {
          "name": "",
          "type": "uint256"
        }
      ],
      "payable": false,
      "stateMutability": "view",
      "type": "function"
    },
    {
      "constant": false,
      "inputs": [
        {
          "name": "_payeeIndex",
          "type": "uint256"
        },
        {
          "name": "_newAddress",
          "type": "address"
        }
      ],
      "name": "changePayeeAddress",
      "outputs": [],
      "payable": false,
      "stateMutability": "nonpayable",
      "type": "function"
    },
    {
      "constant": false,
      "inputs": [],
      "name": "destroy",
      "outputs": [],
      "payable": false,
      "stateMutability": "nonpayable",
      "type": "function"
    },
    {
      "constant": false,
      "inputs": [
        {
          "name": "_linkSourceCode",
          "type": "string"
        }
      ],
      "name": "setSourceLink",
      "outputs": [],
      "payable": false,
      "stateMutability": "nonpayable",
      "type": "function"
    },
    {
      "constant": false,
      "inputs": [],
      "name": "pause",
      "outputs": [],
      "payable": false,
      "stateMutability": "nonpayable",
      "type": "function"
    },
    {
      "constant": true,
      "inputs": [],
      "name": "registryRegistrationFee",
      "outputs": [
        {
          "name": "",
          "type": "uint256"
        }
      ],
      "payable": false,
      "stateMutability": "view",
      "type": "function"
    },
    {
      "constant": true,
      "inputs": [],
      "name": "owner",
      "outputs": [
        {
          "name": "",
          "type": "address"
        }
      ],
      "payable": false,
      "stateMutability": "view",
      "type": "function"
    },
    {
      "constant": true,
      "inputs": [
        {
          "name": "_registryID",
          "type": "uint256"
        }
      ],
      "name": "registryDateOf",
      "outputs": [
        {
          "name": "",
          "type": "uint256"
        }
      ],
      "payable": false,
      "stateMutability": "view",
      "type": "function"
    },
    {
      "constant": true,
      "inputs": [],
      "name": "symbol",
      "outputs": [
        {
          "name": "",
          "type": "string"
        }
      ],
      "payable": false,
      "stateMutability": "view",
      "type": "function"
    },
    {
      "constant": true,
      "inputs": [
        {
          "name": "",
          "type": "address"
        }
      ],
      "name": "released",
      "outputs": [
        {
          "name": "",
          "type": "uint256"
        }
      ],
      "payable": false,
      "stateMutability": "view",
      "type": "function"
    },
    {
      "constant": true,
      "inputs": [],
      "name": "linkABI",
      "outputs": [
        {
          "name": "",
          "type": "string"
        }
      ],
      "payable": false,
      "stateMutability": "view",
      "type": "function"
    },
    {
      "constant": false,
      "inputs": [
        {
          "name": "_to",
          "type": "address"
        },
        {
          "name": "_approved",
          "type": "bool"
        }
      ],
      "name": "setApprovalForAll",
      "outputs": [],
      "payable": false,
      "stateMutability": "nonpayable",
      "type": "function"
    },
    {
      "constant": true,
      "inputs": [
        {
          "name": "_registryID",
          "type": "uint256"
        }
      ],
      "name": "registryBalanceInfo",
      "outputs": [
        {
          "name": "",
          "type": "uint256"
        },
        {
          "name": "",
          "type": "uint256"
        }
      ],
      "payable": false,
      "stateMutability": "view",
      "type": "function"
    },
    {
      "constant": false,
      "inputs": [
        {
          "name": "_newFee",
          "type": "uint256"
        }
      ],
      "name": "updateRegistrationFee",
      "outputs": [],
      "payable": false,
      "stateMutability": "nonpayable",
      "type": "function"
    },
    {
      "constant": false,
      "inputs": [
        {
          "name": "_from",
          "type": "address"
        },
        {
          "name": "_to",
          "type": "address"
        },
        {
          "name": "_tokenId",
          "type": "uint256"
        },
        {
          "name": "_data",
          "type": "bytes"
        }
      ],
      "name": "safeTransferFrom",
      "outputs": [],
      "payable": false,
      "stateMutability": "nonpayable",
      "type": "function"
    },
    {
      "constant": true,
      "inputs": [
        {
          "name": "_registryID",
          "type": "uint256"
        }
      ],
      "name": "registryOwnerOf",
      "outputs": [
        {
          "name": "",
          "type": "address"
        }
      ],
      "payable": false,
      "stateMutability": "view",
      "type": "function"
    },
    {
      "constant": true,
      "inputs": [
        {
          "name": "_registryID",
          "type": "uint256"
        }
      ],
      "name": "currentRegistryBalanceETHOf",
      "outputs": [
        {
          "name": "",
          "type": "uint256"
        }
      ],
      "payable": false,
      "stateMutability": "view",
      "type": "function"
    },
    {
      "constant": true,
      "inputs": [
        {
          "name": "_registryID",
          "type": "uint256"
        }
      ],
      "name": "accumulatedRegistryETHOf",
      "outputs": [
        {
          "name": "",
          "type": "uint256"
        }
      ],
      "payable": false,
      "stateMutability": "view",
      "type": "function"
    },
    {
      "constant": true,
      "inputs": [
        {
          "name": "_tokenId",
          "type": "uint256"
        }
      ],
      "name": "tokenURI",
      "outputs": [
        {
          "name": "",
          "type": "string"
        }
      ],
      "payable": false,
      "stateMutability": "view",
      "type": "function"
    },
    {
      "constant": true,
      "inputs": [
        {
          "name": "_registryID",
          "type": "uint256"
        }
      ],
      "name": "ABILinkOf",
      "outputs": [
        {
          "name": "",
          "type": "string"
        }
      ],
      "payable": false,
      "stateMutability": "view",
      "type": "function"
    },
    {
      "constant": true,
      "inputs": [
        {
          "name": "",
          "type": "address"
        }
      ],
      "name": "shares",
      "outputs": [
        {
          "name": "",
          "type": "uint256"
        }
      ],
      "payable": false,
      "stateMutability": "view",
      "type": "function"
    },
    {
      "constant": true,
      "inputs": [],
      "name": "totalReleased",
      "outputs": [
        {
          "name": "",
          "type": "uint256"
        }
      ],
      "payable": false,
      "stateMutability": "view",
      "type": "function"
    },
    {
      "constant": false,
      "inputs": [
        {
          "name": "_description",
          "type": "string"
        }
      ],
      "name": "updateDescription",
      "outputs": [],
      "payable": false,
      "stateMutability": "nonpayable",
      "type": "function"
    },
    {
      "constant": true,
      "inputs": [
        {
          "name": "_owner",
          "type": "address"
        },
        {
          "name": "_operator",
          "type": "address"
        }
      ],
      "name": "isApprovedForAll",
      "outputs": [
        {
          "name": "",
          "type": "bool"
        }
      ],
      "payable": false,
      "stateMutability": "view",
      "type": "function"
    },
    {
      "constant": false,
      "inputs": [
        {
          "name": "newOwner",
          "type": "address"
        }
      ],
      "name": "transferOwnership",
      "outputs": [],
      "payable": false,
      "stateMutability": "nonpayable",
      "type": "function"
    },
    {
      "constant": false,
      "inputs": [
        {
          "name": "_recipient",
          "type": "address"
        }
      ],
      "name": "destroyAndSend",
      "outputs": [],
      "payable": false,
      "stateMutability": "nonpayable",
      "type": "function"
    },
    {
      "constant": true,
      "inputs": [
        {
          "name": "_registryID",
          "type": "uint256"
        }
      ],
      "name": "contractAddressOf",
      "outputs": [
        {
          "name": "",
          "type": "address"
        }
      ],
      "payable": false,
      "stateMutability": "view",
      "type": "function"
    },
    {
      "constant": false,
      "inputs": [
        {
          "name": "_creator",
          "type": "address"
        }
      ],
      "name": "setRegistryCreator",
      "outputs": [],
      "payable": false,
      "stateMutability": "nonpayable",
      "type": "function"
    },
    {
      "inputs": [
        {
          "name": "_creator",
          "type": "address"
        },
        {
          "name": "_benefitiaries",
          "type": "address[]"
        },
        {
          "name": "_shares",
          "type": "uint256[]"
        },
        {
          "name": "_description",
          "type": "string"
        },
        {
          "name": "_registrationFee",
          "type": "uint256"
        },
        {
          "name": "_chaingearName",
          "type": "string"
        },
        {
          "name": "_chaingearSymbol",
          "type": "string"
        }
      ],
      "payable": true,
      "stateMutability": "payable",
      "type": "constructor"
    },
    {
      "payable": true,
      "stateMutability": "payable",
      "type": "fallback"
    },
    {
      "anonymous": false,
      "inputs": [],
      "name": "Pause",
      "type": "event"
    },
    {
      "anonymous": false,
      "inputs": [],
      "name": "Unpause",
      "type": "event"
    },
    {
      "anonymous": false,
      "inputs": [
        {
          "indexed": false,
          "name": "linkMeta",
          "type": "string"
        }
      ],
      "name": "MetaLinkUpdated",
      "type": "event"
    },
    {
      "anonymous": false,
      "inputs": [
        {
          "indexed": false,
          "name": "linkABI",
          "type": "string"
        }
      ],
      "name": "ABILinkUpdated",
      "type": "event"
    },
    {
      "anonymous": false,
      "inputs": [
        {
          "indexed": false,
          "name": "linkSource",
          "type": "string"
        }
      ],
      "name": "SourceLinkUpdated",
      "type": "event"
    },
    {
      "anonymous": false,
      "inputs": [
        {
          "indexed": false,
          "name": "payeeIndex",
          "type": "uint256"
        },
        {
          "indexed": false,
          "name": "oldAddress",
          "type": "address"
        },
        {
          "indexed": false,
          "name": "newAddress",
          "type": "address"
        }
      ],
      "name": "PayeeAddressChanged",
      "type": "event"
    },
    {
      "anonymous": false,
      "inputs": [
        {
          "indexed": true,
          "name": "previousOwner",
          "type": "address"
        },
        {
          "indexed": true,
          "name": "newOwner",
          "type": "address"
        }
      ],
      "name": "OwnershipTransferred",
      "type": "event"
    },
    {
      "anonymous": false,
      "inputs": [
        {
          "indexed": false,
          "name": "name",
          "type": "string"
        },
        {
          "indexed": false,
          "name": "registryAddress",
          "type": "address"
        },
        {
          "indexed": false,
          "name": "creator",
          "type": "address"
        },
        {
          "indexed": false,
          "name": "registryID",
          "type": "uint256"
        }
      ],
      "name": "RegistryRegistered",
      "type": "event"
    },
    {
      "anonymous": false,
      "inputs": [
        {
          "indexed": true,
          "name": "_from",
          "type": "address"
        },
        {
          "indexed": true,
          "name": "_to",
          "type": "address"
        },
        {
          "indexed": false,
          "name": "_tokenId",
          "type": "uint256"
        }
      ],
      "name": "Transfer",
      "type": "event"
    },
    {
      "anonymous": false,
      "inputs": [
        {
          "indexed": true,
          "name": "_owner",
          "type": "address"
        },
        {
          "indexed": true,
          "name": "_approved",
          "type": "address"
        },
        {
          "indexed": false,
          "name": "_tokenId",
          "type": "uint256"
        }
      ],
      "name": "Approval",
      "type": "event"
    },
    {
      "anonymous": false,
      "inputs": [
        {
          "indexed": true,
          "name": "_owner",
          "type": "address"
        },
        {
          "indexed": true,
          "name": "_operator",
          "type": "address"
        },
        {
          "indexed": false,
          "name": "_approved",
          "type": "bool"
        }
      ],
      "name": "ApprovalForAll",
      "type": "event"
    },
    {
      "constant": false,
      "inputs": [
        {
          "name": "_benefitiaries",
          "type": "address[]"
        },
        {
          "name": "_shares",
          "type": "uint256[]"
        },
        {
          "name": "_name",
          "type": "string"
        },
        {
          "name": "_symbol",
          "type": "string"
        },
        {
          "name": "_linkToABIOfEntriesContract",
          "type": "string"
        },
        {
          "name": "_bytecodeOfEntriesContract",
          "type": "bytes"
        }
      ],
      "name": "registerRegistry",
      "outputs": [
        {
          "name": "registryAddress",
          "type": "address"
        },
        {
          "name": "registryID",
          "type": "uint256"
        }
      ],
      "payable": true,
      "stateMutability": "payable",
      "type": "function"
    }
  ],
  "bytecode": "0x60606040526000600b556000600c556000601560006101000a81548160ff02191690831515021790555060405162004ff838038062004ff883398101604052808051906020019091908051820191906020018051820191906020018051820191906020018051906020019091908051820191906020018051820191905050858581816000868681600490805190602001906200009d9291906200037e565b508060059080519060200190620000b69291906200037e565b50505081518351141515620000ca57600080fd5b600090505b82518110156200013757620001298382815181101515620000ec57fe5b9060200190602002015183838151811015156200010557fe5b90602001906020020151620001eb64010000000002620049d5176401000000009004565b8080600101915050620000cf565b50505033601160006101000a81548173ffffffffffffffffffffffffffffffffffffffff021916908373ffffffffffffffffffffffffffffffffffffffff16021790555050508260178190555083601690805190602001906200019c9291906200037e565b5086601860006101000a81548173ffffffffffffffffffffffffffffffffffffffff021916908373ffffffffffffffffffffffffffffffffffffffff160217905550505050505050506200045c565b600073ffffffffffffffffffffffffffffffffffffffff168273ffffffffffffffffffffffffffffffffffffffff16141515156200022857600080fd5b6000811115156200023857600080fd5b6000600d60008473ffffffffffffffffffffffffffffffffffffffff1673ffffffffffffffffffffffffffffffffffffffff168152602001908152602001600020541415156200028757600080fd5b600f80548060010182816200029d919062000405565b9160005260206000209001600084909190916101000a81548173ffffffffffffffffffffffffffffffffffffffff021916908373ffffffffffffffffffffffffffffffffffffffff1602179055505080600d60008473ffffffffffffffffffffffffffffffffffffffff1673ffffffffffffffffffffffffffffffffffffffff168152602001908152602001600020819055506200035581600b546200035f6401000000000262003989179091906401000000009004565b600b819055505050565b60008082840190508381101515156200037457fe5b8091505092915050565b828054600181600116156101000203166002900490600052602060002090601f016020900481019282601f10620003c157805160ff1916838001178555620003f2565b82800160010185558215620003f2579182015b82811115620003f1578251825591602001919060010190620003d4565b5b50905062000401919062000434565b5090565b8154818355818115116200042f578183600052602060002091820191016200042e919062000434565b5b505050565b6200045991905b80821115620004555760008160009055506001016200043b565b5090565b90565b614b8c806200046c6000396000f300606060405260043610610288576000357c0100000000000000000000000000000000000000000000000000000000900463ffffffff168063051a26641461028a57806306fdde031461032657806307b1f8f7146103b4578063081812fc14610442578063095ea7b3146104a557806318160ddd146104e75780631bb952521461051057806323b872dd146105655780632f745c59146105c657806337f5881c1461061c5780633a98ef39146107c45780633f4ba83a146107ed57806342842e0e1461080257806343d2839f146108635780634545d21c146108f15780634dfaf97a1461091f5780634e71d92d146109ad5780634f558e79146109c25780634f6ccce7146109fd578063557902ad14610a34578063589a174314610a5d5780635c975abb14610ac057806363037b0c14610aed5780636352211e14610b505780636d2fd13814610bb357806370a0823114610be15780637b49376814610c2e57806383197ef014610c7057806383ca00ac14610c855780638456cb5914610cb35780638ab47f7b14610cc85780638da5cb5b14610cf15780638e2992a014610d4657806395d89b4114610d7d5780639852595c14610e0b5780639e925a7814610e58578063a22cb46514610ee6578063acaff7d414610f2a578063af582c6b14610f68578063b88d4fde14610f8b578063bb8275cf1461102f578063be901e3214611092578063bfe9300a146110c9578063c85a9e6d14611100578063c87b56dd146111ce578063ca6284d71461126a578063ce7c2ac214611306578063e33b7de314611353578063e735b48a1461137c578063e985e9c5146113aa578063f2fde38b1461141a578063f5074f4114611453578063f5e0c6101461148c578063f6debd2c146114ef575b005b341561029557600080fd5b6102ab6004808035906020019091905050611528565b6040518080602001828103825283818151815260200191508051906020019080838360005b838110156102eb5780820151818401526020810190506102d0565b50505050905090810190601f1680156103185780820380516001836020036101000a031916815260200191505b509250505060405180910390f35b341561033157600080fd5b6103396115f0565b6040518080602001828103825283818151815260200191508051906020019080838360005b8381101561037957808201518184015260208101905061035e565b50505050905090810190601f1680156103a65780820380516001836020036101000a031916815260200191505b509250505060405180910390f35b34156103bf57600080fd5b6103c7611698565b6040518080602001828103825283818151815260200191508051906020019080838360005b838110156104075780820151818401526020810190506103ec565b50505050905090810190601f1680156104345780820380516001836020036101000a031916815260200191505b509250505060405180910390f35b341561044d57600080fd5b6104636004808035906020019091905050611740565b604051808273ffffffffffffffffffffffffffffffffffffffff1673ffffffffffffffffffffffffffffffffffffffff16815260200191505060405180910390f35b34156104b057600080fd5b6104e5600480803573ffffffffffffffffffffffffffffffffffffffff1690602001909190803590602001909190505061177d565b005b34156104f257600080fd5b6104fa611943565b6040518082815260200191505060405180910390f35b341561051b57600080fd5b610523611950565b604051808273ffffffffffffffffffffffffffffffffffffffff1673ffffffffffffffffffffffffffffffffffffffff16815260200191505060405180910390f35b341561057057600080fd5b6105c4600480803573ffffffffffffffffffffffffffffffffffffffff1690602001909190803573ffffffffffffffffffffffffffffffffffffffff1690602001909190803590602001909190505061197a565b005b34156105d157600080fd5b610606600480803573ffffffffffffffffffffffffffffffffffffffff16906020019091908035906020019091905050611a91565b6040518082815260200191505060405180910390f35b341561062757600080fd5b61063d6004808035906020019091905050611b09565b60405180806020018773ffffffffffffffffffffffffffffffffffffffff1673ffffffffffffffffffffffffffffffffffffffff1681526020018673ffffffffffffffffffffffffffffffffffffffff1673ffffffffffffffffffffffffffffffffffffffff168152602001858152602001806020018473ffffffffffffffffffffffffffffffffffffffff1673ffffffffffffffffffffffffffffffffffffffff168152602001838103835289818151815260200191508051906020019080838360005b8381101561071d578082015181840152602081019050610702565b50505050905090810190601f16801561074a5780820380516001836020036101000a031916815260200191505b50838103825285818151815260200191508051906020019080838360005b83811015610783578082015181840152602081019050610768565b50505050905090810190601f1680156107b05780820380516001836020036101000a031916815260200191505b509850505050505050505060405180910390f35b34156107cf57600080fd5b6107d7611b6b565b6040518082815260200191505060405180910390f35b34156107f857600080fd5b610800611b71565b005b341561080d57600080fd5b610861600480803573ffffffffffffffffffffffffffffffffffffffff1690602001909190803573ffffffffffffffffffffffffffffffffffffffff16906020019091908035906020019091905050611c31565b005b341561086e57600080fd5b610876611c69565b6040518080602001828103825283818151815260200191508051906020019080838360005b838110156108b657808201518184015260208101905061089b565b50505050905090810190601f1680156108e35780820380516001836020036101000a031916815260200191505b509250505060405180910390f35b34156108fc57600080fd5b61091d60048080359060200190820180359060200191909192905050611d11565b005b341561092a57600080fd5b610932611dd4565b6040518080602001828103825283818151815260200191508051906020019080838360005b83811015610972578082015181840152602081019050610957565b50505050905090810190601f16801561099f5780820380516001836020036101000a031916815260200191505b509250505060405180910390f35b34156109b857600080fd5b6109c0611e7c565b005b34156109cd57600080fd5b6109e360048080359060200190919050506120e4565b604051808215151515815260200191505060405180910390f35b3415610a0857600080fd5b610a1e6004808035906020019091905050612155565b6040518082815260200191505060405180910390f35b3415610a3f57600080fd5b610a4761218e565b6040518082815260200191505060405180910390f35b3415610a6857600080fd5b610a7e600480803590602001909190505061219b565b604051808273ffffffffffffffffffffffffffffffffffffffff1673ffffffffffffffffffffffffffffffffffffffff16815260200191505060405180910390f35b3415610acb57600080fd5b610ad36121e5565b604051808215151515815260200191505060405180910390f35b3415610af857600080fd5b610b0e60048080359060200190919050506121f8565b604051808273ffffffffffffffffffffffffffffffffffffffff1673ffffffffffffffffffffffffffffffffffffffff16815260200191505060405180910390f35b3415610b5b57600080fd5b610b716004808035906020019091905050612237565b604051808273ffffffffffffffffffffffffffffffffffffffff1673ffffffffffffffffffffffffffffffffffffffff16815260200191505060405180910390f35b3415610bbe57600080fd5b610bdf600480803590602001908201803590602001919091929050506122b4565b005b3415610bec57600080fd5b610c18600480803573ffffffffffffffffffffffffffffffffffffffff16906020019091905050612377565b6040518082815260200191505060405180910390f35b3415610c3957600080fd5b610c6e600480803590602001909190803573ffffffffffffffffffffffffffffffffffffffff169060200190919050506123fb565b005b3415610c7b57600080fd5b610c8361271f565b005b3415610c9057600080fd5b610cb1600480803590602001908201803590602001919091929050506127b6565b005b3415610cbe57600080fd5b610cc6612879565b005b3415610cd357600080fd5b610cdb61293a565b6040518082815260200191505060405180910390f35b3415610cfc57600080fd5b610d04612944565b604051808273ffffffffffffffffffffffffffffffffffffffff1673ffffffffffffffffffffffffffffffffffffffff16815260200191505060405180910390f35b3415610d5157600080fd5b610d67600480803590602001909190505061296a565b6040518082815260200191505060405180910390f35b3415610d8857600080fd5b610d90612994565b6040518080602001828103825283818151815260200191508051906020019080838360005b83811015610dd0578082015181840152602081019050610db5565b50505050905090810190601f168015610dfd5780820380516001836020036101000a031916815260200191505b509250505060405180910390f35b3415610e1657600080fd5b610e42600480803573ffffffffffffffffffffffffffffffffffffffff16906020019091905050612a3c565b6040518082815260200191505060405180910390f35b3415610e6357600080fd5b610e6b612a54565b6040518080602001828103825283818151815260200191508051906020019080838360005b83811015610eab578082015181840152602081019050610e90565b50505050905090810190601f168015610ed85780820380516001836020036101000a031916815260200191505b509250505060405180910390f35b3415610ef157600080fd5b610f28600480803573ffffffffffffffffffffffffffffffffffffffff169060200190919080351515906020019091905050612afc565b005b3415610f3557600080fd5b610f4b6004808035906020019091905050612c38565b604051808381526020018281526020019250505060405180910390f35b3415610f7357600080fd5b610f896004808035906020019091905050612c56565b005b3415610f9657600080fd5b61102d600480803573ffffffffffffffffffffffffffffffffffffffff1690602001909190803573ffffffffffffffffffffffffffffffffffffffff1690602001909190803590602001909190803590602001908201803590602001908080601f01602080910402602001604051908101604052809392919081815260200183838082843782019150505050505091905050612cbc565b005b341561103a57600080fd5b6110506004808035906020019091905050612cfb565b604051808273ffffffffffffffffffffffffffffffffffffffff1673ffffffffffffffffffffffffffffffffffffffff16815260200191505060405180910390f35b341561109d57600080fd5b6110b36004808035906020019091905050612d45565b6040518082815260200191505060405180910390f35b34156110d457600080fd5b6110ea6004808035906020019091905050612d6f565b6040518082815260200191505060405180910390f35b6111856004808035906020019082018035906020019190919290803590602001908201803590602001919091929080359060200190820180359060200191909192908035906020019082018035906020019190919290803590602001908201803590602001919091929080359060200190820180359060200191909192905050612d99565b604051808373ffffffffffffffffffffffffffffffffffffffff1673ffffffffffffffffffffffffffffffffffffffff1681526020018281526020019250505060405180910390f35b34156111d957600080fd5b6111ef6004808035906020019091905050612f11565b6040518080602001828103825283818151815260200191508051906020019080838360005b8381101561122f578082015181840152602081019050611214565b50505050905090810190601f16801561125c5780820380516001836020036101000a031916815260200191505b509250505060405180910390f35b341561127557600080fd5b61128b6004808035906020019091905050612fe0565b6040518080602001828103825283818151815260200191508051906020019080838360005b838110156112cb5780820151818401526020810190506112b0565b50505050905090810190601f1680156112f85780820380516001836020036101000a031916815260200191505b509250505060405180910390f35b341561131157600080fd5b61133d600480803573ffffffffffffffffffffffffffffffffffffffff169060200190919050506130a8565b6040518082815260200191505060405180910390f35b341561135e57600080fd5b6113666130c0565b6040518082815260200191505060405180910390f35b341561138757600080fd5b6113a8600480803590602001908201803590602001919091929050506130c6565b005b34156113b557600080fd5b611400600480803573ffffffffffffffffffffffffffffffffffffffff1690602001909190803573ffffffffffffffffffffffffffffffffffffffff16906020019091905050613151565b604051808215151515815260200191505060405180910390f35b341561142557600080fd5b611451600480803573ffffffffffffffffffffffffffffffffffffffff169060200190919050506131e5565b005b341561145e57600080fd5b61148a600480803573ffffffffffffffffffffffffffffffffffffffff1690602001909190505061333d565b005b341561149757600080fd5b6114ad60048080359060200190919050506133b2565b604051808273ffffffffffffffffffffffffffffffffffffffff1673ffffffffffffffffffffffffffffffffffffffff16815260200191505060405180910390f35b34156114fa57600080fd5b611526600480803573ffffffffffffffffffffffffffffffffffffffff169060200190919050506133fc565b005b611530614656565b60108281548110151561153f57fe5b90600052602060002090600802016000018054600181600116156101000203166002900480601f0160208091040260200160405190810160405280929190818152602001828054600181600116156101000203166002900480156115e45780601f106115b9576101008083540402835291602001916115e4565b820191906000526020600020905b8154815290600101906020018083116115c757829003601f168201915b50505050509050919050565b6115f8614656565b60048054600181600116156101000203166002900480601f01602080910402602001604051908101604052809291908181526020018280546001816001161561010002031660029004801561168e5780601f106116635761010080835404028352916020019161168e565b820191906000526020600020905b81548152906001019060200180831161167157829003601f168201915b5050505050905090565b6116a0614656565b60148054600181600116156101000203166002900480601f0160208091040260200160405190810160405280929190818152602001828054600181600116156101000203166002900480156117365780601f1061170b57610100808354040283529160200191611736565b820191906000526020600020905b81548152906001019060200180831161171957829003601f168201915b5050505050905090565b60006001600083815260200190815260200160002060009054906101000a900473ffffffffffffffffffffffffffffffffffffffff169050919050565b600061178882612237565b90508073ffffffffffffffffffffffffffffffffffffffff168373ffffffffffffffffffffffffffffffffffffffff16141515156117c557600080fd5b8073ffffffffffffffffffffffffffffffffffffffff163373ffffffffffffffffffffffffffffffffffffffff16148061180557506118048133613151565b5b151561181057600080fd5b600073ffffffffffffffffffffffffffffffffffffffff1661183183611740565b73ffffffffffffffffffffffffffffffffffffffff161415806118815750600073ffffffffffffffffffffffffffffffffffffffff168373ffffffffffffffffffffffffffffffffffffffff1614155b1561193e57826001600084815260200190815260200160002060006101000a81548173ffffffffffffffffffffffffffffffffffffffff021916908373ffffffffffffffffffffffffffffffffffffffff1602179055508273ffffffffffffffffffffffffffffffffffffffff168173ffffffffffffffffffffffffffffffffffffffff167f8c5be1e5ebec7d5bd14f71427d1e84f3dd0314c0f7b2291e5b200ac8c7c3b925846040518082815260200191505060405180910390a35b505050565b6000600880549050905090565b6000601860009054906101000a900473ffffffffffffffffffffffffffffffffffffffff16905090565b80611985338261349c565b151561199057600080fd5b600073ffffffffffffffffffffffffffffffffffffffff168473ffffffffffffffffffffffffffffffffffffffff16141515156119cc57600080fd5b600073ffffffffffffffffffffffffffffffffffffffff168373ffffffffffffffffffffffffffffffffffffffff1614151515611a0857600080fd5b611a128483613531565b611a1c848361369a565b611a2683836138b5565b8273ffffffffffffffffffffffffffffffffffffffff168473ffffffffffffffffffffffffffffffffffffffff167fddf252ad1be2c89b69c2b068fc378daa952ba7f163c4a11628f55a4df523b3ef846040518082815260200191505060405180910390a350505050565b6000611a9c83612377565b82101515611aa957600080fd5b600660008473ffffffffffffffffffffffffffffffffffffffff1673ffffffffffffffffffffffffffffffffffffffff16815260200190815260200160002082815481101515611af557fe5b906000526020600020900154905092915050565b611b11614656565b6000806000611b1e614656565b6000611b2987611528565b611b32886133b2565b611b3b8961219b565b611b448a61296a565b611b4d8b612fe0565b611b568c612cfb565b95509550955095509550955091939550919395565b600b5481565b601160009054906101000a900473ffffffffffffffffffffffffffffffffffffffff1673ffffffffffffffffffffffffffffffffffffffff163373ffffffffffffffffffffffffffffffffffffffff16141515611bcd57600080fd5b601560009054906101000a900460ff161515611be857600080fd5b6000601560006101000a81548160ff0219169083151502179055507f7805862f689e2f13df9f062ff482ad3ad112aca9e0847911ed832e158c525b3360405160405180910390a1565b80611c3c338261349c565b1515611c4757600080fd5b611c638484846020604051908101604052806000815250612cbc565b50505050565b611c71614656565b60168054600181600116156101000203166002900480601f016020809104026020016040519081016040528092919081815260200182805460018160011615610100020316600290048015611d075780601f10611cdc57610100808354040283529160200191611d07565b820191906000526020600020905b815481529060010190602001808311611cea57829003601f168201915b5050505050905090565b601160009054906101000a900473ffffffffffffffffffffffffffffffffffffffff1673ffffffffffffffffffffffffffffffffffffffff163373ffffffffffffffffffffffffffffffffffffffff16141515611d6d57600080fd5b818160129190611d7e92919061466a565b507f97bc322e754962c4ff23eb8a9d58b147ead5be0347d9a799addc5a2d44564cbe8282604051808060200182810382528484828181526020019250808284378201915050935050505060405180910390a15050565b611ddc614656565b60138054600181600116156101000203166002900480601f016020809104026020016040519081016040528092919081815260200182805460018160011615610100020316600290048015611e725780601f10611e4757610100808354040283529160200191611e72565b820191906000526020600020905b815481529060010190602001808311611e5557829003601f168201915b5050505050905090565b60008060003392506000600d60008573ffffffffffffffffffffffffffffffffffffffff1673ffffffffffffffffffffffffffffffffffffffff16815260200190815260200160002054111515611ed257600080fd5b611efe600c543073ffffffffffffffffffffffffffffffffffffffff163161398990919063ffffffff16565b9150611fb7600e60008573ffffffffffffffffffffffffffffffffffffffff1673ffffffffffffffffffffffffffffffffffffffff16815260200190815260200160002054611fa9600b54611f9b600d60008973ffffffffffffffffffffffffffffffffffffffff1673ffffffffffffffffffffffffffffffffffffffff16815260200190815260200160002054876139a790919063ffffffff16565b6139e290919063ffffffff16565b6139fd90919063ffffffff16565b905060008114151515611fc957600080fd5b803073ffffffffffffffffffffffffffffffffffffffff163110151515611fef57600080fd5b61204181600e60008673ffffffffffffffffffffffffffffffffffffffff1673ffffffffffffffffffffffffffffffffffffffff1681526020019081526020016000205461398990919063ffffffff16565b600e60008573ffffffffffffffffffffffffffffffffffffffff1673ffffffffffffffffffffffffffffffffffffffff1681526020019081526020016000208190555061209981600c5461398990919063ffffffff16565b600c819055508273ffffffffffffffffffffffffffffffffffffffff166108fc829081150290604051600060405180830381858888f1935050505015156120df57600080fd5b505050565b60008060008084815260200190815260200160002060009054906101000a900473ffffffffffffffffffffffffffffffffffffffff169050600073ffffffffffffffffffffffffffffffffffffffff168173ffffffffffffffffffffffffffffffffffffffff161415915050919050565b600061215f611943565b8210151561216c57600080fd5b60088281548110151561217b57fe5b9060005260206000209001549050919050565b6000601080549050905090565b60006010828154811015156121ac57fe5b906000526020600020906008020160020160009054906101000a900473ffffffffffffffffffffffffffffffffffffffff169050919050565b601560009054906101000a900460ff1681565b600f8181548110151561220757fe5b90600052602060002090016000915054906101000a900473ffffffffffffffffffffffffffffffffffffffff1681565b60008060008084815260200190815260200160002060009054906101000a900473ffffffffffffffffffffffffffffffffffffffff169050600073ffffffffffffffffffffffffffffffffffffffff168173ffffffffffffffffffffffffffffffffffffffff16141515156122ab57600080fd5b80915050919050565b601160009054906101000a900473ffffffffffffffffffffffffffffffffffffffff1673ffffffffffffffffffffffffffffffffffffffff163373ffffffffffffffffffffffffffffffffffffffff1614151561231057600080fd5b81816013919061232192919061466a565b507f6362a59ae98fef1a0a45d03a1127a82c2268ca380148117a052b9f8bce8e6f1e8282604051808060200182810382528484828181526020019250808284378201915050935050505060405180910390a15050565b60008073ffffffffffffffffffffffffffffffffffffffff168273ffffffffffffffffffffffffffffffffffffffff16141515156123b457600080fd5b600260008373ffffffffffffffffffffffffffffffffffffffff1673ffffffffffffffffffffffffffffffffffffffff168152602001908152602001600020549050919050565b6000601160009054906101000a900473ffffffffffffffffffffffffffffffffffffffff1673ffffffffffffffffffffffffffffffffffffffff163373ffffffffffffffffffffffffffffffffffffffff1614151561245957600080fd5b600f8381548110151561246857fe5b906000526020600020900160009054906101000a900473ffffffffffffffffffffffffffffffffffffffff169050600d60008273ffffffffffffffffffffffffffffffffffffffff1673ffffffffffffffffffffffffffffffffffffffff16815260200190815260200160002054600d60008473ffffffffffffffffffffffffffffffffffffffff1673ffffffffffffffffffffffffffffffffffffffff16815260200190815260200160002081905550600e60008273ffffffffffffffffffffffffffffffffffffffff1673ffffffffffffffffffffffffffffffffffffffff16815260200190815260200160002054600e60008473ffffffffffffffffffffffffffffffffffffffff1673ffffffffffffffffffffffffffffffffffffffff1681526020019081526020016000208190555081600f848154811015156125ac57fe5b906000526020600020900160006101000a81548173ffffffffffffffffffffffffffffffffffffffff021916908373ffffffffffffffffffffffffffffffffffffffff160217905550600d60008273ffffffffffffffffffffffffffffffffffffffff1673ffffffffffffffffffffffffffffffffffffffff16815260200190815260200160002060009055600e60008273ffffffffffffffffffffffffffffffffffffffff1673ffffffffffffffffffffffffffffffffffffffff168152602001908152602001600020600090557fa1982f3fe3fa9dba8ce5bc91687e2ab0850b0431cddacc1a249b2ae0390b912f838284604051808481526020018373ffffffffffffffffffffffffffffffffffffffff1673ffffffffffffffffffffffffffffffffffffffff1681526020018273ffffffffffffffffffffffffffffffffffffffff1673ffffffffffffffffffffffffffffffffffffffff168152602001935050505060405180910390a1505050565b601160009054906101000a900473ffffffffffffffffffffffffffffffffffffffff1673ffffffffffffffffffffffffffffffffffffffff163373ffffffffffffffffffffffffffffffffffffffff1614151561277b57600080fd5b601160009054906101000a900473ffffffffffffffffffffffffffffffffffffffff1673ffffffffffffffffffffffffffffffffffffffff16ff5b601160009054906101000a900473ffffffffffffffffffffffffffffffffffffffff1673ffffffffffffffffffffffffffffffffffffffff163373ffffffffffffffffffffffffffffffffffffffff1614151561281257600080fd5b81816014919061282392919061466a565b507fcfaf57d92b1b2684731a770c593d162587ca98e9d372be876ab14b389866f0f68282604051808060200182810382528484828181526020019250808284378201915050935050505060405180910390a15050565b601160009054906101000a900473ffffffffffffffffffffffffffffffffffffffff1673ffffffffffffffffffffffffffffffffffffffff163373ffffffffffffffffffffffffffffffffffffffff161415156128d557600080fd5b601560009054906101000a900460ff161515156128f157600080fd5b6001601560006101000a81548160ff0219169083151502179055507f6985a02210a168e66602d3235cb6db0e70f92b3ba4d376a33c0f3d9434bff62560405160405180910390a1565b6000601754905090565b601160009054906101000a900473ffffffffffffffffffffffffffffffffffffffff1681565b600060108281548110151561297b57fe5b9060005260206000209060080201600401549050919050565b61299c614656565b60058054600181600116156101000203166002900480601f016020809104026020016040519081016040528092919081815260200182805460018160011615610100020316600290048015612a325780601f10612a0757610100808354040283529160200191612a32565b820191906000526020600020905b815481529060010190602001808311612a1557829003601f168201915b5050505050905090565b600e6020528060005260406000206000915090505481565b612a5c614656565b60128054600181600116156101000203166002900480601f016020809104026020016040519081016040528092919081815260200182805460018160011615610100020316600290048015612af25780601f10612ac757610100808354040283529160200191612af2565b820191906000526020600020905b815481529060010190602001808311612ad557829003601f168201915b5050505050905090565b3373ffffffffffffffffffffffffffffffffffffffff168273ffffffffffffffffffffffffffffffffffffffff1614151515612b3757600080fd5b80600360003373ffffffffffffffffffffffffffffffffffffffff1673ffffffffffffffffffffffffffffffffffffffff16815260200190815260200160002060008473ffffffffffffffffffffffffffffffffffffffff1673ffffffffffffffffffffffffffffffffffffffff16815260200190815260200160002060006101000a81548160ff0219169083151502179055508173ffffffffffffffffffffffffffffffffffffffff163373ffffffffffffffffffffffffffffffffffffffff167f17307eab39ab6107e8899845ad3d59bd9653f200f220920489ca2b5937696c3183604051808215151515815260200191505060405180910390a35050565b600080612c4483612d45565b612c4d84612d6f565b91509150915091565b601160009054906101000a900473ffffffffffffffffffffffffffffffffffffffff1673ffffffffffffffffffffffffffffffffffffffff163373ffffffffffffffffffffffffffffffffffffffff16141515612cb257600080fd5b8060178190555050565b81612cc7338261349c565b1515612cd257600080fd5b612cdd85858561197a565b612ce985858585613a16565b1515612cf457600080fd5b5050505050565b6000601082815481101515612d0c57fe5b906000526020600020906008020160050160009054906101000a900473ffffffffffffffffffffffffffffffffffffffff169050919050565b6000601082815481101515612d5657fe5b9060005260206000209060080201600601549050919050565b6000601082815481101515612d8057fe5b9060005260206000209060080201600701549050919050565b600080601560009054906101000a900460ff16151515612db857600080fd5b60175434141515612dc857600080fd5b612efc8e8e808060200260200160405190810160405280939291908181526020018383602002808284378201915050505050508d8d808060200260200160405190810160405280939291908181526020018383602002808284378201915050505050508c8c8080601f0160208091040260200160405190810160405280939291908181526020018383808284378201915050505050508b8b8080601f0160208091040260200160405190810160405280939291908181526020018383808284378201915050505050508a8a8080601f01602080910402602001604051908101604052809392919081815260200183838082843782019150505050505089898080601f016020809104026020016040519081016040528093929190818152602001838380828437820191505050505050613bec565b915091509c509c9a5050505050505050505050565b612f19614656565b612f22826120e4565b1515612f2d57600080fd5b600a60008381526020019081526020016000208054600181600116156101000203166002900480601f016020809104026020016040519081016040528092919081815260200182805460018160011615610100020316600290048015612fd45780601f10612fa957610100808354040283529160200191612fd4565b820191906000526020600020905b815481529060010190602001808311612fb757829003601f168201915b50505050509050919050565b612fe8614656565b601082815481101515612ff757fe5b90600052602060002090600802016003018054600181600116156101000203166002900480601f01602080910402602001604051908101604052809291908181526020018280546001816001161561010002031660029004801561309c5780601f106130715761010080835404028352916020019161309c565b820191906000526020600020905b81548152906001019060200180831161307f57829003601f168201915b50505050509050919050565b600d6020528060005260406000206000915090505481565b600c5481565b6000601160009054906101000a900473ffffffffffffffffffffffffffffffffffffffff1673ffffffffffffffffffffffffffffffffffffffff163373ffffffffffffffffffffffffffffffffffffffff1614151561312457600080fd5b8282905090506080811115151561313a57600080fd5b82826016919061314b92919061466a565b50505050565b6000600360008473ffffffffffffffffffffffffffffffffffffffff1673ffffffffffffffffffffffffffffffffffffffff16815260200190815260200160002060008373ffffffffffffffffffffffffffffffffffffffff1673ffffffffffffffffffffffffffffffffffffffff16815260200190815260200160002060009054906101000a900460ff16905092915050565b601160009054906101000a900473ffffffffffffffffffffffffffffffffffffffff1673ffffffffffffffffffffffffffffffffffffffff163373ffffffffffffffffffffffffffffffffffffffff1614151561324157600080fd5b600073ffffffffffffffffffffffffffffffffffffffff168173ffffffffffffffffffffffffffffffffffffffff161415151561327d57600080fd5b8073ffffffffffffffffffffffffffffffffffffffff16601160009054906101000a900473ffffffffffffffffffffffffffffffffffffffff1673ffffffffffffffffffffffffffffffffffffffff167f8be0079c531659141344cd1fd0a4f28419497f9722a3daafe3b4186f6b6457e060405160405180910390a380601160006101000a81548173ffffffffffffffffffffffffffffffffffffffff021916908373ffffffffffffffffffffffffffffffffffffffff16021790555050565b601160009054906101000a900473ffffffffffffffffffffffffffffffffffffffff1673ffffffffffffffffffffffffffffffffffffffff163373ffffffffffffffffffffffffffffffffffffffff1614151561339957600080fd5b8073ffffffffffffffffffffffffffffffffffffffff16ff5b60006010828154811015156133c357fe5b906000526020600020906008020160010160009054906101000a900473ffffffffffffffffffffffffffffffffffffffff169050919050565b601160009054906101000a900473ffffffffffffffffffffffffffffffffffffffff1673ffffffffffffffffffffffffffffffffffffffff163373ffffffffffffffffffffffffffffffffffffffff1614151561345857600080fd5b80601860006101000a81548173ffffffffffffffffffffffffffffffffffffffff021916908373ffffffffffffffffffffffffffffffffffffffff16021790555050565b6000806134a883612237565b90508073ffffffffffffffffffffffffffffffffffffffff168473ffffffffffffffffffffffffffffffffffffffff16148061351757508373ffffffffffffffffffffffffffffffffffffffff166134ff84611740565b73ffffffffffffffffffffffffffffffffffffffff16145b8061352857506135278185613151565b5b91505092915050565b8173ffffffffffffffffffffffffffffffffffffffff1661355182612237565b73ffffffffffffffffffffffffffffffffffffffff1614151561357357600080fd5b600073ffffffffffffffffffffffffffffffffffffffff166001600083815260200190815260200160002060009054906101000a900473ffffffffffffffffffffffffffffffffffffffff1673ffffffffffffffffffffffffffffffffffffffff161415156136965760006001600083815260200190815260200160002060006101000a81548173ffffffffffffffffffffffffffffffffffffffff021916908373ffffffffffffffffffffffffffffffffffffffff160217905550600073ffffffffffffffffffffffffffffffffffffffff168273ffffffffffffffffffffffffffffffffffffffff167f8c5be1e5ebec7d5bd14f71427d1e84f3dd0314c0f7b2291e5b200ac8c7c3b925836040518082815260200191505060405180910390a35b5050565b60008060006136a985856142b9565b600760008581526020019081526020016000205492506137156001600660008873ffffffffffffffffffffffffffffffffffffffff1673ffffffffffffffffffffffffffffffffffffffff168152602001908152602001600020805490506139fd90919063ffffffff16565b9150600660008673ffffffffffffffffffffffffffffffffffffffff1673ffffffffffffffffffffffffffffffffffffffff1681526020019081526020016000208281548110151561376357fe5b906000526020600020900154905080600660008773ffffffffffffffffffffffffffffffffffffffff1673ffffffffffffffffffffffffffffffffffffffff168152602001908152602001600020848154811015156137be57fe5b9060005260206000209001819055506000600660008773ffffffffffffffffffffffffffffffffffffffff1673ffffffffffffffffffffffffffffffffffffffff1681526020019081526020016000208381548110151561381b57fe5b906000526020600020900181905550600660008673ffffffffffffffffffffffffffffffffffffffff1673ffffffffffffffffffffffffffffffffffffffff16815260200190815260200160002080548091906001900361387c91906146ea565b50600060076000868152602001908152602001600020819055508260076000838152602001908152602001600020819055505050505050565b60006138c183836143e7565b600660008473ffffffffffffffffffffffffffffffffffffffff1673ffffffffffffffffffffffffffffffffffffffff168152602001908152602001600020805490509050600660008473ffffffffffffffffffffffffffffffffffffffff1673ffffffffffffffffffffffffffffffffffffffff16815260200190815260200160002080548060010182816139579190614716565b916000526020600020900160008490919091505550806007600084815260200190815260200160002081905550505050565b600080828401905083811015151561399d57fe5b8091505092915050565b60008060008414156139bc57600091506139db565b82840290508284828115156139cd57fe5b041415156139d757fe5b8091505b5092915050565b60008082848115156139f057fe5b0490508091505092915050565b6000828211151515613a0b57fe5b818303905092915050565b600080613a388573ffffffffffffffffffffffffffffffffffffffff1661453f565b1515613a475760019150613be3565b8473ffffffffffffffffffffffffffffffffffffffff1663f0b9e5ba8786866000604051602001526040518463ffffffff167c0100000000000000000000000000000000000000000000000000000000028152600401808473ffffffffffffffffffffffffffffffffffffffff1673ffffffffffffffffffffffffffffffffffffffff16815260200183815260200180602001828103825283818151815260200191508051906020019080838360005b83811015613b12578082015181840152602081019050613af7565b50505050905090810190601f168015613b3f5780820380516001836020036101000a031916815260200191505b50945050505050602060405180830381600087803b1515613b5f57600080fd5b6102c65a03f11515613b7057600080fd5b50505060405180519050905063f0b9e5ba7c0100000000000000000000000000000000000000000000000000000000027bffffffffffffffffffffffffffffffffffffffffffffffffffffffff1916817bffffffffffffffffffffffffffffffffffffffffffffffffffffffff19161491505b50949350505050565b6000806000613bf9614742565b6000601860009054906101000a900473ffffffffffffffffffffffffffffffffffffffff1673ffffffffffffffffffffffffffffffffffffffff166347c21a3c8c8c8c8c8c8c6000604051602001526040518763ffffffff167c01000000000000000000000000000000000000000000000000000000000281526004018080602001806020018060200180602001806020018060200187810387528d818151815260200191508051906020019060200280838360005b83811015613cca578082015181840152602081019050613caf565b5050505090500187810386528c818151815260200191508051906020019060200280838360005b83811015613d0c578082015181840152602081019050613cf1565b5050505090500187810385528b818151815260200191508051906020019080838360005b83811015613d4b578082015181840152602081019050613d30565b50505050905090810190601f168015613d785780820380516001836020036101000a031916815260200191505b5087810384528a818151815260200191508051906020019080838360005b83811015613db1578082015181840152602081019050613d96565b50505050905090810190601f168015613dde5780820380516001836020036101000a031916815260200191505b50878103835289818151815260200191508051906020019080838360005b83811015613e17578082015181840152602081019050613dfc565b50505050905090810190601f168015613e445780820380516001836020036101000a031916815260200191505b50878103825288818151815260200191508051906020019080838360005b83811015613e7d578082015181840152602081019050613e62565b50505050905090810190601f168015613eaa5780820380516001836020036101000a031916815260200191505b509c50505050505050505050505050602060405180830381600087803b1515613ed257600080fd5b6102c65a03f11515613ee357600080fd5b5050506040518051905092508273ffffffffffffffffffffffffffffffffffffffff1663f2fde38b336040518263ffffffff167c0100000000000000000000000000000000000000000000000000000000028152600401808273ffffffffffffffffffffffffffffffffffffffff1673ffffffffffffffffffffffffffffffffffffffff168152602001915050600060405180830381600087803b1515613f8957600080fd5b6102c65a03f11515613f9a57600080fd5b505050610100604051908101604052808a81526020018473ffffffffffffffffffffffffffffffffffffffff1681526020013373ffffffffffffffffffffffffffffffffffffffff168152602001602060405190810160405280600081525081526020014281526020013373ffffffffffffffffffffffffffffffffffffffff168152602001600081526020016000815250915060016010805480600101828161404491906147d6565b916000526020600020906008020160008590919091506000820151816000019080519060200190614076929190614808565b5060208201518160010160006101000a81548173ffffffffffffffffffffffffffffffffffffffff021916908373ffffffffffffffffffffffffffffffffffffffff16021790555060408201518160020160006101000a81548173ffffffffffffffffffffffffffffffffffffffff021916908373ffffffffffffffffffffffffffffffffffffffff1602179055506060820151816003019080519060200190614121929190614808565b506080820151816004015560a08201518160050160006101000a81548173ffffffffffffffffffffffffffffffffffffffff021916908373ffffffffffffffffffffffffffffffffffffffff16021790555060c0820151816006015560e0820151816007015550500390506141963382614552565b7fd98034e5da8b5718635c8cce4df2965d7cbeeb60f90d84a427442fc79497cb838984338460405180806020018573ffffffffffffffffffffffffffffffffffffffff1673ffffffffffffffffffffffffffffffffffffffff1681526020018473ffffffffffffffffffffffffffffffffffffffff1673ffffffffffffffffffffffffffffffffffffffff168152602001838152602001828103825286818151815260200191508051906020019080838360005b8381101561426557808201518184015260208101905061424a565b50505050905090810190601f1680156142925780820380516001836020036101000a031916815260200191505b509550505050505060405180910390a1828181915094509450505050965096945050505050565b8173ffffffffffffffffffffffffffffffffffffffff166142d982612237565b73ffffffffffffffffffffffffffffffffffffffff161415156142fb57600080fd5b61434e6001600260008573ffffffffffffffffffffffffffffffffffffffff1673ffffffffffffffffffffffffffffffffffffffff168152602001908152602001600020546139fd90919063ffffffff16565b600260008473ffffffffffffffffffffffffffffffffffffffff1673ffffffffffffffffffffffffffffffffffffffff16815260200190815260200160002081905550600080600083815260200190815260200160002060006101000a81548173ffffffffffffffffffffffffffffffffffffffff021916908373ffffffffffffffffffffffffffffffffffffffff1602179055505050565b600073ffffffffffffffffffffffffffffffffffffffff1660008083815260200190815260200160002060009054906101000a900473ffffffffffffffffffffffffffffffffffffffff1673ffffffffffffffffffffffffffffffffffffffff1614151561445457600080fd5b8160008083815260200190815260200160002060006101000a81548173ffffffffffffffffffffffffffffffffffffffff021916908373ffffffffffffffffffffffffffffffffffffffff1602179055506144f86001600260008573ffffffffffffffffffffffffffffffffffffffff1673ffffffffffffffffffffffffffffffffffffffff1681526020019081526020016000205461398990919063ffffffff16565b600260008473ffffffffffffffffffffffffffffffffffffffff1673ffffffffffffffffffffffffffffffffffffffff168152602001908152602001600020819055505050565b600080823b905060008111915050919050565b61455c82826145a6565b60088054905060096000838152602001908152602001600020819055506008805480600101828161458d9190614716565b9160005260206000209001600083909190915055505050565b600073ffffffffffffffffffffffffffffffffffffffff168273ffffffffffffffffffffffffffffffffffffffff16141515156145e257600080fd5b6145ec82826138b5565b8173ffffffffffffffffffffffffffffffffffffffff16600073ffffffffffffffffffffffffffffffffffffffff167fddf252ad1be2c89b69c2b068fc378daa952ba7f163c4a11628f55a4df523b3ef836040518082815260200191505060405180910390a35050565b602060405190810160405280600081525090565b828054600181600116156101000203166002900490600052602060002090601f016020900481019282601f106146ab57803560ff19168380011785556146d9565b828001600101855582156146d9579182015b828111156146d85782358255916020019190600101906146bd565b5b5090506146e69190614888565b5090565b815481835581811511614711578183600052602060002091820191016147109190614888565b5b505050565b81548183558181151161473d5781836000526020600020918201910161473c9190614888565b5b505050565b610100604051908101604052806147576148ad565b8152602001600073ffffffffffffffffffffffffffffffffffffffff168152602001600073ffffffffffffffffffffffffffffffffffffffff16815260200161479e6148ad565b815260200160008152602001600073ffffffffffffffffffffffffffffffffffffffff16815260200160008152602001600081525090565b8154818355818115116148035760080281600802836000526020600020918201910161480291906148c1565b5b505050565b828054600181600116156101000203166002900490600052602060002090601f016020900481019282601f1061484957805160ff1916838001178555614877565b82800160010185558215614877579182015b8281111561487657825182559160200191906001019061485b565b5b5090506148849190614888565b5090565b6148aa91905b808211156148a657600081600090555060010161488e565b5090565b90565b602060405190810160405280600081525090565b61498a91905b8082111561498657600080820160006148e0919061498d565b6001820160006101000a81549073ffffffffffffffffffffffffffffffffffffffff02191690556002820160006101000a81549073ffffffffffffffffffffffffffffffffffffffff021916905560038201600061493e919061498d565b60048201600090556005820160006101000a81549073ffffffffffffffffffffffffffffffffffffffff021916905560068201600090556007820160009055506008016148c7565b5090565b90565b50805460018160011615610100020316600290046000825580601f106149b357506149d2565b601f0160209004906000526020600020908101906149d19190614888565b5b50565b600073ffffffffffffffffffffffffffffffffffffffff168273ffffffffffffffffffffffffffffffffffffffff1614151515614a1157600080fd5b600081111515614a2057600080fd5b6000600d60008473ffffffffffffffffffffffffffffffffffffffff1673ffffffffffffffffffffffffffffffffffffffff16815260200190815260200160002054141515614a6e57600080fd5b600f8054806001018281614a829190614b34565b9160005260206000209001600084909190916101000a81548173ffffffffffffffffffffffffffffffffffffffff021916908373ffffffffffffffffffffffffffffffffffffffff1602179055505080600d60008473ffffffffffffffffffffffffffffffffffffffff1673ffffffffffffffffffffffffffffffffffffffff16815260200190815260200160002081905550614b2a81600b5461398990919063ffffffff16565b600b819055505050565b815481835581811511614b5b57818360005260206000209182019101614b5a9190614888565b5b5050505600a165627a7a72305820e1e82bc07c8b9115230e89fd9432e1602c3bdaf8c613f0c73d4bf5dba3581a7e0029",
  "source": "pragma solidity ^0.4.19;\n\nimport \"zeppelin-solidity/contracts/math/SafeMath.sol\";\nimport \"zeppelin-solidity/contracts/AddressUtils.sol\";\nimport \"zeppelin-solidity/contracts/token/ERC721/ERC721Token.sol\";\nimport \"../common/SplitPaymentChangeable.sol\";\nimport \"./ChaingearCore.sol\";\nimport \"../registry/Registry.sol\";\n\n\ncontract Chaingear is ERC721Token, SplitPaymentChangeable, ChaingearCore {\n\n    using SafeMath for uint256;\n    using AddressUtils for address;\n\n    function Chaingear(\n        RegistryCreator _creator,\n        address[] _benefitiaries,\n        uint256[] _shares,\n        string _description,\n        uint _registrationFee,\n        string _chaingearName,\n        string _chaingearSymbol\n    )\n        SplitPaymentChangeable(_benefitiaries, _shares)\n        ERC721Token(_chaingearName, _chaingearSymbol)\n        public\n        payable\n    {\n        registryRegistrationFee_ = _registrationFee;\n        chaingearDescription_ = _description;\n        creator_ = _creator;\n    }\n\n\n    function registerRegistry(\n        address[] _benefitiaries,\n        uint256[] _shares,\n        string _name,\n        string _symbol,\n        string _linkToABIOfEntriesContract,\n        bytes _bytecodeOfEntriesContract\n    )\n        external\n        payable\n        whenNotPaused\n        returns (address registryAddress, uint256 registryID)\n    {\n        require(msg.value == registryRegistrationFee_);\n\n        return createRegistry(\n            _benefitiaries,\n            _shares,\n            _name,\n            _symbol,\n            _linkToABIOfEntriesContract,\n            _bytecodeOfEntriesContract\n        );\n    }\n\n    function createRegistry(\n        address[] _benefitiaries,\n        uint256[] _shares,\n        string _name,\n        string _symbol,\n        string _linkToABIOfEntriesContract,\n        bytes _bytecodeOfEntriesContract\n    )\n        private\n        returns (address newRegistryContract, uint256 newRegistryID)\n    {\n        Registry registryContract = creator_.create(\n            _benefitiaries,\n            _shares,\n            _name,\n            _symbol,\n            _linkToABIOfEntriesContract,\n            _bytecodeOfEntriesContract\n        );\n        registryContract.transferOwnership(msg.sender); //?'\n\n        RegistryMeta memory registry = (RegistryMeta(\n        {\n            name: _name,\n            contractAddress: registryContract,\n            creator: msg.sender,\n            linkABI: \"\",\n            registrationTimestamp: block.timestamp,\n            owner: msg.sender,\n            currentRegistryBalanceETH: 0,\n            accumulatedRegistryETH: 0\n        }));\n        uint256 registryID = registries.push(registry) - 1;\n        _mint(msg.sender, registryID);\n        RegistryRegistered(_name, registryContract, msg.sender, registryID);\n\n        return (registryContract, registryID);\n    }\n\n    // function unregisterRegistry(uint256 _registryID)\n    //     external\n    //     whenNotPaused\n    // {\n    //     require (ERC721BasicToken.ownerOf(_registryID) == msg.sender);\n    //     address registryAddress = registries[_registryID].contractAddress;\n\n    //     ChaingearRegistrable registryContract = ChaingearRegistrable(registryAddress);\n    //     require(registryContract.owner() == msg.sender);\n    //     require(registryContract.setChaingearMode(msg.sender, false) == false);\n\n    //     string storage registryName = registries[_registryID].name;\n    //     uint256 registryIndex = allTokensIndex[_registryID];\n    //     uint256 lastRegistryIndex = registries.length.sub(1);\n    //     Registry storage lastRegistry = registries[lastRegistryIndex];\n\n    //     registries[registryIndex] = lastRegistry;\n    //     delete registries[lastRegistryIndex];\n    //     registries.length--;\n\n    //     super._burn(msg.sender, _registryID);\n\n    //     //rethink this event\n    //     RegistryUnregistered(msg.sender, registryName);\n    // }\n\n    // function updateRegistryOwnership(uint256 _registryID, address _newOwner)\n    //     external\n    //     whenNotPaused\n    // {\n    //     require (ERC721BasicToken.ownerOf(_registryID) == msg.sender);\n\n    //     address registryAddress = registries[_registryID].contractAddress;\n    //     ChaingearRegistrable registryContract = ChaingearRegistrable(registryAddress);\n\n    //     require(registryContract.owner() == msg.sender);\n    //     require(registryContract.transferTokenizedOnwerhip(msg.sender, _newOwner) == true);\n    //     require(registryContract.owner() == _newOwner);\n\n    //     string storage registryName = registries[_registryID].name;\n    //     registries[_registryID].owner = _newOwner;\n\n    //     super.removeTokenFrom(msg.sender, _registryID);\n    //     super.addTokenTo(_newOwner, _registryID);\n\n    //     RegistryTransferred(msg.sender, registryName, _newOwner);\n    // }\n}\n",
  "sourcePath": "/Users/litvintech/Projects/chaingear/contracts/chaingear/Chaingear.sol",
  "compiler": {
    "name": "solc",
    "version": "0.4.19+commit.c4cbbb05.Emscripten.clang"
  },
  "schemaVersion": "1.0.1",
  "updatedAt": "2018-04-19T16:48:45.071Z"
}