{
  "contractName": "Chaingear",
  "abi": [
    {
      "constant": true,
      "inputs": [],
      "name": "name",
      "outputs": [
        {
          "name": "",
          "type": "string"
        }
      ],
      "payable": false,
      "stateMutability": "view",
      "type": "function"
    },
    {
      "constant": true,
      "inputs": [],
      "name": "registrationFee",
      "outputs": [
        {
          "name": "",
          "type": "uint256"
        }
      ],
      "payable": false,
      "stateMutability": "view",
      "type": "function"
    },
    {
      "constant": true,
      "inputs": [],
      "name": "totalShares",
      "outputs": [
        {
          "name": "",
          "type": "uint256"
        }
      ],
      "payable": false,
      "stateMutability": "view",
      "type": "function"
    },
    {
      "constant": false,
      "inputs": [],
      "name": "unpause",
      "outputs": [],
      "payable": false,
      "stateMutability": "nonpayable",
      "type": "function"
    },
    {
      "constant": false,
      "inputs": [],
      "name": "claim",
      "outputs": [],
      "payable": false,
      "stateMutability": "nonpayable",
      "type": "function"
    },
    {
      "constant": true,
      "inputs": [],
      "name": "paused",
      "outputs": [
        {
          "name": "",
          "type": "bool"
        }
      ],
      "payable": false,
      "stateMutability": "view",
      "type": "function"
    },
    {
      "constant": true,
      "inputs": [
        {
          "name": "",
          "type": "uint256"
        }
      ],
      "name": "payees",
      "outputs": [
        {
          "name": "",
          "type": "address"
        }
      ],
      "payable": false,
      "stateMutability": "view",
      "type": "function"
    },
    {
      "constant": true,
      "inputs": [
        {
          "name": "",
          "type": "uint256"
        }
      ],
      "name": "registries",
      "outputs": [
        {
          "name": "name",
          "type": "string"
        },
        {
          "name": "contractAddress",
          "type": "address"
        },
        {
          "name": "creator",
          "type": "address"
        },
        {
          "name": "registrationTimestamp",
          "type": "uint256"
        },
        {
          "name": "linkABI",
          "type": "string"
        }
      ],
      "payable": false,
      "stateMutability": "view",
      "type": "function"
    },
    {
      "constant": true,
      "inputs": [],
      "name": "description",
      "outputs": [
        {
          "name": "",
          "type": "string"
        }
      ],
      "payable": false,
      "stateMutability": "view",
      "type": "function"
    },
    {
      "constant": false,
      "inputs": [
        {
          "name": "_payeeIndex",
          "type": "uint256"
        },
        {
          "name": "_newAddress",
          "type": "address"
        }
      ],
      "name": "changePayeeAddress",
      "outputs": [],
      "payable": false,
      "stateMutability": "nonpayable",
      "type": "function"
    },
    {
      "constant": false,
      "inputs": [],
      "name": "destroy",
      "outputs": [],
      "payable": false,
      "stateMutability": "nonpayable",
      "type": "function"
    },
    {
      "constant": false,
      "inputs": [],
      "name": "pause",
      "outputs": [],
      "payable": false,
      "stateMutability": "nonpayable",
      "type": "function"
    },
    {
      "constant": false,
      "inputs": [
        {
          "name": "_linkMeta",
          "type": "string"
        }
      ],
      "name": "updateMetaLink",
      "outputs": [],
      "payable": false,
      "stateMutability": "nonpayable",
      "type": "function"
    },
    {
      "constant": true,
      "inputs": [],
      "name": "owner",
      "outputs": [
        {
          "name": "",
          "type": "address"
        }
      ],
      "payable": false,
      "stateMutability": "view",
      "type": "function"
    },
    {
      "constant": true,
      "inputs": [
        {
          "name": "",
          "type": "address"
        }
      ],
      "name": "released",
      "outputs": [
        {
          "name": "",
          "type": "uint256"
        }
      ],
      "payable": false,
      "stateMutability": "view",
      "type": "function"
    },
    {
      "constant": true,
      "inputs": [
        {
          "name": "",
          "type": "address"
        }
      ],
      "name": "shares",
      "outputs": [
        {
          "name": "",
          "type": "uint256"
        }
      ],
      "payable": false,
      "stateMutability": "view",
      "type": "function"
    },
    {
      "constant": true,
      "inputs": [],
      "name": "totalReleased",
      "outputs": [
        {
          "name": "",
          "type": "uint256"
        }
      ],
      "payable": false,
      "stateMutability": "view",
      "type": "function"
    },
    {
      "constant": false,
      "inputs": [
        {
          "name": "newOwner",
          "type": "address"
        }
      ],
      "name": "transferOwnership",
      "outputs": [],
      "payable": false,
      "stateMutability": "nonpayable",
      "type": "function"
    },
    {
      "constant": false,
      "inputs": [
        {
          "name": "_recipient",
          "type": "address"
        }
      ],
      "name": "destroyAndSend",
      "outputs": [],
      "payable": false,
      "stateMutability": "nonpayable",
      "type": "function"
    },
    {
      "inputs": [
        {
          "name": "_benefitiaries",
          "type": "address[]"
        },
        {
          "name": "_shares",
          "type": "uint256[]"
        },
        {
          "name": "_name",
          "type": "string"
        },
        {
          "name": "_description",
          "type": "string"
        },
        {
          "name": "_linkABI",
          "type": "string"
        },
        {
          "name": "_linkMeta",
          "type": "string"
        },
        {
          "name": "_registrationFee",
          "type": "uint256"
        }
      ],
      "payable": false,
      "stateMutability": "nonpayable",
      "type": "constructor"
    },
    {
      "anonymous": false,
      "inputs": [
        {
          "indexed": false,
          "name": "name",
          "type": "string"
        },
        {
          "indexed": false,
          "name": "creator",
          "type": "address"
        },
        {
          "indexed": false,
          "name": "entryId",
          "type": "uint256"
        }
      ],
      "name": "RegistryAdded",
      "type": "event"
    },
    {
      "anonymous": false,
      "inputs": [
        {
          "indexed": false,
          "name": "index",
          "type": "uint256"
        }
      ],
      "name": "RegistryDeleted",
      "type": "event"
    },
    {
      "anonymous": false,
      "inputs": [
        {
          "indexed": false,
          "name": "payeeIndex",
          "type": "uint256"
        },
        {
          "indexed": false,
          "name": "oldAddress",
          "type": "address"
        },
        {
          "indexed": false,
          "name": "newAddress",
          "type": "address"
        }
      ],
      "name": "PayeeAddressChanged",
      "type": "event"
    },
    {
      "anonymous": false,
      "inputs": [],
      "name": "Pause",
      "type": "event"
    },
    {
      "anonymous": false,
      "inputs": [],
      "name": "Unpause",
      "type": "event"
    },
    {
      "anonymous": false,
      "inputs": [
        {
          "indexed": false,
          "name": "linkMeta",
          "type": "string"
        }
      ],
      "name": "MetaLinkUpdated",
      "type": "event"
    },
    {
      "anonymous": false,
      "inputs": [
        {
          "indexed": true,
          "name": "previousOwner",
          "type": "address"
        },
        {
          "indexed": true,
          "name": "newOwner",
          "type": "address"
        }
      ],
      "name": "OwnershipTransferred",
      "type": "event"
    },
    {
      "constant": false,
      "inputs": [
        {
          "name": "_name",
          "type": "string"
        },
        {
          "name": "_address",
          "type": "address"
        },
        {
          "name": "_linkABI",
          "type": "string"
        }
      ],
      "name": "register",
      "outputs": [],
      "payable": true,
      "stateMutability": "payable",
      "type": "function"
    },
    {
      "constant": false,
      "inputs": [
        {
          "name": "contractAddress",
          "type": "address"
        }
      ],
      "name": "deleteRegistry",
      "outputs": [],
      "payable": false,
      "stateMutability": "nonpayable",
      "type": "function"
    },
    {
      "constant": true,
      "inputs": [],
      "name": "registriesAmount",
      "outputs": [
        {
          "name": "",
          "type": "uint256"
        }
      ],
      "payable": false,
      "stateMutability": "view",
      "type": "function"
    },
    {
      "constant": false,
      "inputs": [
        {
          "name": "_fee",
          "type": "uint256"
        }
      ],
      "name": "updateRegistrationFee",
      "outputs": [],
      "payable": false,
      "stateMutability": "nonpayable",
      "type": "function"
    },
    {
      "constant": false,
      "inputs": [
        {
          "name": "_name",
          "type": "string"
        }
      ],
      "name": "updateName",
      "outputs": [],
      "payable": false,
      "stateMutability": "nonpayable",
      "type": "function"
    },
    {
      "constant": false,
      "inputs": [
        {
          "name": "_description",
          "type": "string"
        }
      ],
      "name": "updateDescription",
      "outputs": [],
      "payable": false,
      "stateMutability": "nonpayable",
      "type": "function"
    }
  ],
  "bytecode": "0x60606040526000805560006001556000600860006101000a81548160ff02191690831515021790555034156200003457600080fd5b6040516200261d3803806200261d83398101604052808051820191906020018051820191906020018051820191906020018051820191906020018051820191906020018051820191906020018051906020019091905050868684848383600081518351141515620000a457600080fd5b600090505b82518110156200011157620001038382815181101515620000c657fe5b906020019060200201518383815181101515620000df57fe5b906020019060200201516200022e6401000000000262001fb7176401000000009004565b8080600101915050620000a9565b50505033600560006101000a81548173ffffffffffffffffffffffffffffffffffffffff021916908373ffffffffffffffffffffffffffffffffffffffff160217905550600560009054906101000a900473ffffffffffffffffffffffffffffffffffffffff1673ffffffffffffffffffffffffffffffffffffffff163373ffffffffffffffffffffffffffffffffffffffff16141515620001b257600080fd5b8160069080519060200190620001ca929190620003c1565b508060079080519060200190620001e3929190620003c1565b505050505080600b81905550846009908051906020019062000207929190620003c1565b5083600a908051906020019062000220929190620003c1565b50505050505050506200049f565b600073ffffffffffffffffffffffffffffffffffffffff168273ffffffffffffffffffffffffffffffffffffffff16141515156200026b57600080fd5b6000811115156200027b57600080fd5b6000600260008473ffffffffffffffffffffffffffffffffffffffff1673ffffffffffffffffffffffffffffffffffffffff16815260200190815260200160002054141515620002ca57600080fd5b60048054806001018281620002e0919062000448565b9160005260206000209001600084909190916101000a81548173ffffffffffffffffffffffffffffffffffffffff021916908373ffffffffffffffffffffffffffffffffffffffff1602179055505080600260008473ffffffffffffffffffffffffffffffffffffffff1673ffffffffffffffffffffffffffffffffffffffff168152602001908152602001600020819055506200039881600054620003a26401000000000262001c3d179091906401000000009004565b6000819055505050565b6000808284019050838110151515620003b757fe5b8091505092915050565b828054600181600116156101000203166002900490600052602060002090601f016020900481019282601f106200040457805160ff191683800117855562000435565b8280016001018555821562000435579182015b828111156200043457825182559160200191906001019062000417565b5b50905062000444919062000477565b5090565b815481835581811511620004725781836000526020600020918201910162000471919062000477565b5b505050565b6200049c91905b80821115620004985760008160009055506001016200047e565b5090565b90565b61216e80620004af6000396000f300606060405260043610610149576000357c0100000000000000000000000000000000000000000000000000000000900463ffffffff1680630578dd1c1461014e57806306fdde03146101a457806314c44e09146102325780633a98ef391461025b5780633f4ba83a146102845780634e71d92d14610299578063557902ad146102ae5780635c975abb146102d757806363037b0c146103045780636347c900146103675780637284e416146105165780637b493768146105a457806383197ef0146105e65780638456cb59146105fb57806384da92a7146106105780638aed4b631461063e5780638da5cb5b1461066c5780639852595c146106c1578063af582c6b1461070e578063c9611d0714610731578063ce7c2ac21461076a578063e33b7de3146107b7578063e735b48a146107e0578063f2fde38b1461080e578063f5074f4114610847575b600080fd5b6101a26004808035906020019082018035906020019190919290803573ffffffffffffffffffffffffffffffffffffffff169060200190919080359060200190820180359060200191909192905050610880565b005b34156101af57600080fd5b6101b7610ae2565b6040518080602001828103825283818151815260200191508051906020019080838360005b838110156101f75780820151818401526020810190506101dc565b50505050905090810190601f1680156102245780820380516001836020036101000a031916815260200191505b509250505060405180910390f35b341561023d57600080fd5b610245610b80565b6040518082815260200191505060405180910390f35b341561026657600080fd5b61026e610b86565b6040518082815260200191505060405180910390f35b341561028f57600080fd5b610297610b8c565b005b34156102a457600080fd5b6102ac610c4c565b005b34156102b957600080fd5b6102c1610eb4565b6040518082815260200191505060405180910390f35b34156102e257600080fd5b6102ea610ec1565b604051808215151515815260200191505060405180910390f35b341561030f57600080fd5b6103256004808035906020019091905050610ed4565b604051808273ffffffffffffffffffffffffffffffffffffffff1673ffffffffffffffffffffffffffffffffffffffff16815260200191505060405180910390f35b341561037257600080fd5b6103886004808035906020019091905050610f13565b60405180806020018673ffffffffffffffffffffffffffffffffffffffff1673ffffffffffffffffffffffffffffffffffffffff1681526020018573ffffffffffffffffffffffffffffffffffffffff1673ffffffffffffffffffffffffffffffffffffffff1681526020018481526020018060200183810383528881815460018160011615610100020316600290048152602001915080546001816001161561010002031660029004801561047f5780601f106104545761010080835404028352916020019161047f565b820191906000526020600020905b81548152906001019060200180831161046257829003601f168201915b50508381038252848181546001816001161561010002031660029004815260200191508054600181600116156101000203166002900480156105025780601f106104d757610100808354040283529160200191610502565b820191906000526020600020905b8154815290600101906020018083116104e557829003601f168201915b505097505050505050505060405180910390f35b341561052157600080fd5b610529610f96565b6040518080602001828103825283818151815260200191508051906020019080838360005b8381101561056957808201518184015260208101905061054e565b50505050905090810190601f1680156105965780820380516001836020036101000a031916815260200191505b509250505060405180910390f35b34156105af57600080fd5b6105e4600480803590602001909190803573ffffffffffffffffffffffffffffffffffffffff16906020019091905050611034565b005b34156105f157600080fd5b6105f9611358565b005b341561060657600080fd5b61060e6113ef565b005b341561061b57600080fd5b61063c600480803590602001908201803590602001919091929050506114b0565b005b341561064957600080fd5b61066a60048080359060200190820180359060200191909192905050611547565b005b341561067757600080fd5b61067f61160a565b604051808273ffffffffffffffffffffffffffffffffffffffff1673ffffffffffffffffffffffffffffffffffffffff16815260200191505060405180910390f35b34156106cc57600080fd5b6106f8600480803573ffffffffffffffffffffffffffffffffffffffff16906020019091905050611630565b6040518082815260200191505060405180910390f35b341561071957600080fd5b61072f6004808035906020019091905050611648565b005b341561073c57600080fd5b610768600480803573ffffffffffffffffffffffffffffffffffffffff169060200190919050506116ae565b005b341561077557600080fd5b6107a1600480803573ffffffffffffffffffffffffffffffffffffffff169060200190919050506119c6565b6040518082815260200191505060405180910390f35b34156107c257600080fd5b6107ca6119de565b6040518082815260200191505060405180910390f35b34156107eb57600080fd5b61080c600480803590602001908201803590602001919091929050506119e4565b005b341561081957600080fd5b610845600480803573ffffffffffffffffffffffffffffffffffffffff16906020019091905050611a70565b005b341561085257600080fd5b61087e600480803573ffffffffffffffffffffffffffffffffffffffff16906020019091905050611bc8565b005b600b543414151561089057600080fd5b600c80548060010182816108a49190611cca565b9160005260206000209060050201600060a06040519081016040528089898080601f01602080910402602001604051908101604052809392919081815260200183838082843782019150505050505081526020018773ffffffffffffffffffffffffffffffffffffffff1681526020013373ffffffffffffffffffffffffffffffffffffffff16815260200142815260200186868080601f0160208091040260200160405190810160405280939291908181526020018383808284378201915050505050508152509091909150600082015181600001908051906020019061098d929190611cfc565b5060208201518160010160006101000a81548173ffffffffffffffffffffffffffffffffffffffff021916908373ffffffffffffffffffffffffffffffffffffffff16021790555060408201518160020160006101000a81548173ffffffffffffffffffffffffffffffffffffffff021916908373ffffffffffffffffffffffffffffffffffffffff160217905550606082015181600301556080820151816004019080519060200190610a42929190611cfc565b505050507ff1c7148bd8789b32d03db8530b65543f54c66678f0da238b27c1500a9c1db2228585336001600c805490500360405180806020018473ffffffffffffffffffffffffffffffffffffffff1673ffffffffffffffffffffffffffffffffffffffff168152602001838152602001828103825286868281815260200192508082843782019150509550505050505060405180910390a15050505050565b60098054600181600116156101000203166002900480601f016020809104026020016040519081016040528092919081815260200182805460018160011615610100020316600290048015610b785780601f10610b4d57610100808354040283529160200191610b78565b820191906000526020600020905b815481529060010190602001808311610b5b57829003601f168201915b505050505081565b600b5481565b60005481565b600560009054906101000a900473ffffffffffffffffffffffffffffffffffffffff1673ffffffffffffffffffffffffffffffffffffffff163373ffffffffffffffffffffffffffffffffffffffff16141515610be857600080fd5b600860009054906101000a900460ff161515610c0357600080fd5b6000600860006101000a81548160ff0219169083151502179055507f7805862f689e2f13df9f062ff482ad3ad112aca9e0847911ed832e158c525b3360405160405180910390a1565b60008060003392506000600260008573ffffffffffffffffffffffffffffffffffffffff1673ffffffffffffffffffffffffffffffffffffffff16815260200190815260200160002054111515610ca257600080fd5b610cce6001543073ffffffffffffffffffffffffffffffffffffffff1631611c3d90919063ffffffff16565b9150610d87600360008573ffffffffffffffffffffffffffffffffffffffff1673ffffffffffffffffffffffffffffffffffffffff16815260200190815260200160002054610d79600054610d6b600260008973ffffffffffffffffffffffffffffffffffffffff1673ffffffffffffffffffffffffffffffffffffffff1681526020019081526020016000205487611c5b90919063ffffffff16565b611c9690919063ffffffff16565b611cb190919063ffffffff16565b905060008114151515610d9957600080fd5b803073ffffffffffffffffffffffffffffffffffffffff163110151515610dbf57600080fd5b610e1181600360008673ffffffffffffffffffffffffffffffffffffffff1673ffffffffffffffffffffffffffffffffffffffff16815260200190815260200160002054611c3d90919063ffffffff16565b600360008573ffffffffffffffffffffffffffffffffffffffff1673ffffffffffffffffffffffffffffffffffffffff16815260200190815260200160002081905550610e6981600154611c3d90919063ffffffff16565b6001819055508273ffffffffffffffffffffffffffffffffffffffff166108fc829081150290604051600060405180830381858888f193505050501515610eaf57600080fd5b505050565b6000600c80549050905090565b600860009054906101000a900460ff1681565b600481815481101515610ee357fe5b90600052602060002090016000915054906101000a900473ffffffffffffffffffffffffffffffffffffffff1681565b600c81815481101515610f2257fe5b906000526020600020906005020160009150905080600001908060010160009054906101000a900473ffffffffffffffffffffffffffffffffffffffff16908060020160009054906101000a900473ffffffffffffffffffffffffffffffffffffffff169080600301549080600401905085565b600a8054600181600116156101000203166002900480601f01602080910402602001604051908101604052809291908181526020018280546001816001161561010002031660029004801561102c5780601f106110015761010080835404028352916020019161102c565b820191906000526020600020905b81548152906001019060200180831161100f57829003601f168201915b505050505081565b6000600560009054906101000a900473ffffffffffffffffffffffffffffffffffffffff1673ffffffffffffffffffffffffffffffffffffffff163373ffffffffffffffffffffffffffffffffffffffff1614151561109257600080fd5b6004838154811015156110a157fe5b906000526020600020900160009054906101000a900473ffffffffffffffffffffffffffffffffffffffff169050600260008273ffffffffffffffffffffffffffffffffffffffff1673ffffffffffffffffffffffffffffffffffffffff16815260200190815260200160002054600260008473ffffffffffffffffffffffffffffffffffffffff1673ffffffffffffffffffffffffffffffffffffffff16815260200190815260200160002081905550600360008273ffffffffffffffffffffffffffffffffffffffff1673ffffffffffffffffffffffffffffffffffffffff16815260200190815260200160002054600360008473ffffffffffffffffffffffffffffffffffffffff1673ffffffffffffffffffffffffffffffffffffffff16815260200190815260200160002081905550816004848154811015156111e557fe5b906000526020600020900160006101000a81548173ffffffffffffffffffffffffffffffffffffffff021916908373ffffffffffffffffffffffffffffffffffffffff160217905550600260008273ffffffffffffffffffffffffffffffffffffffff1673ffffffffffffffffffffffffffffffffffffffff16815260200190815260200160002060009055600360008273ffffffffffffffffffffffffffffffffffffffff1673ffffffffffffffffffffffffffffffffffffffff168152602001908152602001600020600090557fa1982f3fe3fa9dba8ce5bc91687e2ab0850b0431cddacc1a249b2ae0390b912f838284604051808481526020018373ffffffffffffffffffffffffffffffffffffffff1673ffffffffffffffffffffffffffffffffffffffff1681526020018273ffffffffffffffffffffffffffffffffffffffff1673ffffffffffffffffffffffffffffffffffffffff168152602001935050505060405180910390a1505050565b600560009054906101000a900473ffffffffffffffffffffffffffffffffffffffff1673ffffffffffffffffffffffffffffffffffffffff163373ffffffffffffffffffffffffffffffffffffffff161415156113b457600080fd5b600560009054906101000a900473ffffffffffffffffffffffffffffffffffffffff1673ffffffffffffffffffffffffffffffffffffffff16ff5b600560009054906101000a900473ffffffffffffffffffffffffffffffffffffffff1673ffffffffffffffffffffffffffffffffffffffff163373ffffffffffffffffffffffffffffffffffffffff1614151561144b57600080fd5b600860009054906101000a900460ff1615151561146757600080fd5b6001600860006101000a81548160ff0219169083151502179055507f6985a02210a168e66602d3235cb6db0e70f92b3ba4d376a33c0f3d9434bff62560405160405180910390a1565b6000600560009054906101000a900473ffffffffffffffffffffffffffffffffffffffff1673ffffffffffffffffffffffffffffffffffffffff163373ffffffffffffffffffffffffffffffffffffffff1614151561150e57600080fd5b828290509050600081118015611525575060208111155b151561153057600080fd5b828260099190611541929190611d7c565b50505050565b600560009054906101000a900473ffffffffffffffffffffffffffffffffffffffff1673ffffffffffffffffffffffffffffffffffffffff163373ffffffffffffffffffffffffffffffffffffffff161415156115a357600080fd5b8181600791906115b4929190611d7c565b507f6362a59ae98fef1a0a45d03a1127a82c2268ca380148117a052b9f8bce8e6f1e8282604051808060200182810382528484828181526020019250808284378201915050935050505060405180910390a15050565b600560009054906101000a900473ffffffffffffffffffffffffffffffffffffffff1681565b60036020528060005260406000206000915090505481565b600560009054906101000a900473ffffffffffffffffffffffffffffffffffffffff1673ffffffffffffffffffffffffffffffffffffffff163373ffffffffffffffffffffffffffffffffffffffff161415156116a457600080fd5b80600b8190555050565b60008060008091505b6001600c805490500382101561174c578373ffffffffffffffffffffffffffffffffffffffff16600c838154811015156116ed57fe5b906000526020600020906005020160010160009054906101000a900473ffffffffffffffffffffffffffffffffffffffff1673ffffffffffffffffffffffffffffffffffffffff16141561173f578192505b81806001019250506116b7565b8290505b6001600c80549050038110156118d557600c6001820181548110151561177257fe5b9060005260206000209060050201600c8281548110151561178f57fe5b9060005260206000209060050201600082018160000190805460018160011615610100020316600290046117c4929190611dfc565b506001820160009054906101000a900473ffffffffffffffffffffffffffffffffffffffff168160010160006101000a81548173ffffffffffffffffffffffffffffffffffffffff021916908373ffffffffffffffffffffffffffffffffffffffff1602179055506002820160009054906101000a900473ffffffffffffffffffffffffffffffffffffffff168160020160006101000a81548173ffffffffffffffffffffffffffffffffffffffff021916908373ffffffffffffffffffffffffffffffffffffffff16021790555060038201548160030155600482018160040190805460018160011615610100020316600290046118c4929190611dfc565b509050508080600101915050611750565b600c6001600c80549050038154811015156118ec57fe5b90600052602060002090600502016000808201600061190b9190611e83565b6001820160006101000a81549073ffffffffffffffffffffffffffffffffffffffff02191690556002820160006101000a81549073ffffffffffffffffffffffffffffffffffffffff021916905560038201600090556004820160006119719190611e83565b5050600c8054809190600190036119889190611ecb565b507fc6265286309935d90275b2f0349cde3d67be654ee3f47a467dca87e960c38343836040518082815260200191505060405180910390a150505050565b60026020528060005260406000206000915090505481565b60015481565b6000600560009054906101000a900473ffffffffffffffffffffffffffffffffffffffff1673ffffffffffffffffffffffffffffffffffffffff163373ffffffffffffffffffffffffffffffffffffffff16141515611a4257600080fd5b8282905090506101008111151515611a5957600080fd5b8282600a9190611a6a929190611d7c565b50505050565b600560009054906101000a900473ffffffffffffffffffffffffffffffffffffffff1673ffffffffffffffffffffffffffffffffffffffff163373ffffffffffffffffffffffffffffffffffffffff16141515611acc57600080fd5b600073ffffffffffffffffffffffffffffffffffffffff168173ffffffffffffffffffffffffffffffffffffffff1614151515611b0857600080fd5b8073ffffffffffffffffffffffffffffffffffffffff16600560009054906101000a900473ffffffffffffffffffffffffffffffffffffffff1673ffffffffffffffffffffffffffffffffffffffff167f8be0079c531659141344cd1fd0a4f28419497f9722a3daafe3b4186f6b6457e060405160405180910390a380600560006101000a81548173ffffffffffffffffffffffffffffffffffffffff021916908373ffffffffffffffffffffffffffffffffffffffff16021790555050565b600560009054906101000a900473ffffffffffffffffffffffffffffffffffffffff1673ffffffffffffffffffffffffffffffffffffffff163373ffffffffffffffffffffffffffffffffffffffff16141515611c2457600080fd5b8073ffffffffffffffffffffffffffffffffffffffff16ff5b6000808284019050838110151515611c5157fe5b8091505092915050565b6000806000841415611c705760009150611c8f565b8284029050828482811515611c8157fe5b04141515611c8b57fe5b8091505b5092915050565b6000808284811515611ca457fe5b0490508091505092915050565b6000828211151515611cbf57fe5b818303905092915050565b815481835581811511611cf757600502816005028360005260206000209182019101611cf69190611efd565b5b505050565b828054600181600116156101000203166002900490600052602060002090601f016020900481019282601f10611d3d57805160ff1916838001178555611d6b565b82800160010185558215611d6b579182015b82811115611d6a578251825591602001919060010190611d4f565b5b509050611d789190611f92565b5090565b828054600181600116156101000203166002900490600052602060002090601f016020900481019282601f10611dbd57803560ff1916838001178555611deb565b82800160010185558215611deb579182015b82811115611dea578235825591602001919060010190611dcf565b5b509050611df89190611f92565b5090565b828054600181600116156101000203166002900490600052602060002090601f016020900481019282601f10611e355780548555611e72565b82800160010185558215611e7257600052602060002091601f016020900482015b82811115611e71578254825591600101919060010190611e56565b5b509050611e7f9190611f92565b5090565b50805460018160011615610100020316600290046000825580601f10611ea95750611ec8565b601f016020900490600052602060002090810190611ec79190611f92565b5b50565b815481835581811511611ef857600502816005028360005260206000209182019101611ef79190611efd565b5b505050565b611f8f91905b80821115611f8b5760008082016000611f1c9190611e83565b6001820160006101000a81549073ffffffffffffffffffffffffffffffffffffffff02191690556002820160006101000a81549073ffffffffffffffffffffffffffffffffffffffff02191690556003820160009055600482016000611f829190611e83565b50600501611f03565b5090565b90565b611fb491905b80821115611fb0576000816000905550600101611f98565b5090565b90565b600073ffffffffffffffffffffffffffffffffffffffff168273ffffffffffffffffffffffffffffffffffffffff1614151515611ff357600080fd5b60008111151561200257600080fd5b6000600260008473ffffffffffffffffffffffffffffffffffffffff1673ffffffffffffffffffffffffffffffffffffffff1681526020019081526020016000205414151561205057600080fd5b600480548060010182816120649190612116565b9160005260206000209001600084909190916101000a81548173ffffffffffffffffffffffffffffffffffffffff021916908373ffffffffffffffffffffffffffffffffffffffff1602179055505080600260008473ffffffffffffffffffffffffffffffffffffffff1673ffffffffffffffffffffffffffffffffffffffff1681526020019081526020016000208190555061210c81600054611c3d90919063ffffffff16565b6000819055505050565b81548183558181151161213d5781836000526020600020918201910161213c9190611f92565b5b5050505600a165627a7a72305820f32ba76d4900ca5bd0b031afb5f47b1718b391eddcea35f01c801acbe2172ccd0029",
  "source": "pragma solidity ^0.4.17;\n\nimport \"zeppelin-solidity/contracts/lifecycle/Destructible.sol\";\nimport \"zeppelin-solidity/contracts/lifecycle/Pausable.sol\";\n/* import \"zeppelin-solidity/contracts/ownership/Claimable.sol\"; */\n/* import \"zeppelin-solidity/contracts/ownership/Whitelist.sol\"; */\nimport \"zeppelin-solidity/contracts/ownership/Ownable.sol\";\nimport \"./common/SplitPaymentChangeable.sol\";\nimport \"./common/IPFSeable.sol\";\n\ncontract Chaingear is Ownable, IPFSeable, Pausable, Destructible, SplitPaymentChangeable {\n\n    struct Registry {\n        string name;\n        address contractAddress;\n        address creator;\n        uint registrationTimestamp;\n        string linkABI;\n    }\n\n    string public name;\n    string public description;\n    uint public registrationFee;\n\n    // to think about permissions\n    /* enum PermissionType {OnlyOwner, AllUsers, Whitelist} */\n\n    Registry[] public registries;\n    event RegistryAdded(string name, address creator, uint entryId);\n    event RegistryDeleted(uint index);\n\n    function Chaingear(\n        address[] _benefitiaries,\n        uint256[] _shares,\n        string _name,\n        string _description,\n        string _linkABI,\n        string _linkMeta,\n        uint _registrationFee\n    ) SplitPaymentChangeable(_benefitiaries, _shares) IPFSeable(_linkABI, _linkMeta) public {\n        registrationFee = _registrationFee;\n        name = _name;\n        description = _description;\n    }\n\n    function register(string _name, address _address, string _linkABI) external payable {\n        require(msg.value == registrationFee);\n\n        registries.push(Registry(\n        {\n            name: _name,\n            contractAddress: _address,\n            creator: msg.sender,\n            linkABI: _linkABI,\n            registrationTimestamp: now\n        }));\n\n        RegistryAdded(_name, msg.sender, registries.length - 1);\n    }\n\n    function deleteRegistry(address contractAddress) external {\n        uint index;\n        for (uint j = 0; j<registries.length-1; j++){\n          if (registries[j].contractAddress == contractAddress) {\n            index = j;\n          }\n        }\n\n        for (uint i = index; i<registries.length-1; i++){\n            registries[i] = registries[i+1];\n        }\n        delete registries[registries.length-1];\n        registries.length--;\n\n        RegistryDeleted(index);\n    }\n\n    function registriesAmount() constant public returns (uint) {\n        return registries.length;\n    }\n\n    function updateRegistrationFee(uint _fee) external onlyOwner {\n        registrationFee = _fee;\n    }\n\n    function updateName(string _name) external onlyOwner {\n        uint len = bytes(_name).length;\n        require(len > 0 && len <= 32);\n\n        name = _name;\n    }\n\n    function updateDescription(string _description) external onlyOwner {\n        uint len = bytes(_description).length;\n        require(len <= 256);\n\n        description = _description;\n    }\n}\n",
  "sourcePath": "/Users/andrey/projects/cyberFund/chaingear/contracts/Chaingear.sol",
  "compiler": {
    "name": "solc",
    "version": "0.4.19+commit.c4cbbb05.Emscripten.clang"
  },
  "schemaVersion": "2.0.0",
  "updatedAt": "2018-04-04T12:30:49.718Z"
}