{
  "contractName": "Chaingeareable",
  "abi": [
    {
      "constant": true,
      "inputs": [],
      "name": "creator",
      "outputs": [
        {
          "name": "",
          "type": "address"
        }
      ],
      "payable": false,
      "stateMutability": "view",
      "type": "function"
    },
    {
      "constant": true,
      "inputs": [],
      "name": "linkSourceCode",
      "outputs": [
        {
          "name": "",
          "type": "string"
        }
      ],
      "payable": false,
      "stateMutability": "view",
      "type": "function"
    },
    {
      "constant": false,
      "inputs": [
        {
          "name": "_permissionTypeEntries",
          "type": "uint256"
        }
      ],
      "name": "updatePermissionTypeEntries",
      "outputs": [],
      "payable": false,
      "stateMutability": "nonpayable",
      "type": "function"
    },
    {
      "constant": true,
      "inputs": [],
      "name": "permissionsTypeEntries",
      "outputs": [
        {
          "name": "",
          "type": "uint8"
        }
      ],
      "payable": false,
      "stateMutability": "view",
      "type": "function"
    },
    {
      "constant": false,
      "inputs": [
        {
          "name": "_linkABI",
          "type": "string"
        }
      ],
      "name": "setABILink",
      "outputs": [],
      "payable": false,
      "stateMutability": "nonpayable",
      "type": "function"
    },
    {
      "constant": true,
      "inputs": [],
      "name": "linkMeta",
      "outputs": [
        {
          "name": "",
          "type": "string"
        }
      ],
      "payable": false,
      "stateMutability": "view",
      "type": "function"
    },
    {
      "constant": false,
      "inputs": [
        {
          "name": "_linkMeta",
          "type": "string"
        }
      ],
      "name": "setMetaLink",
      "outputs": [],
      "payable": false,
      "stateMutability": "nonpayable",
      "type": "function"
    },
    {
      "constant": false,
      "inputs": [],
      "name": "destroy",
      "outputs": [],
      "payable": false,
      "stateMutability": "nonpayable",
      "type": "function"
    },
    {
      "constant": false,
      "inputs": [
        {
          "name": "_linkSourceCode",
          "type": "string"
        }
      ],
      "name": "setSourceLink",
      "outputs": [],
      "payable": false,
      "stateMutability": "nonpayable",
      "type": "function"
    },
    {
      "constant": true,
      "inputs": [],
      "name": "owner",
      "outputs": [
        {
          "name": "",
          "type": "address"
        }
      ],
      "payable": false,
      "stateMutability": "view",
      "type": "function"
    },
    {
      "constant": true,
      "inputs": [],
      "name": "linkABI",
      "outputs": [
        {
          "name": "",
          "type": "string"
        }
      ],
      "payable": false,
      "stateMutability": "view",
      "type": "function"
    },
    {
      "constant": false,
      "inputs": [
        {
          "name": "newOwner",
          "type": "address"
        }
      ],
      "name": "transferOwnership",
      "outputs": [],
      "payable": false,
      "stateMutability": "nonpayable",
      "type": "function"
    },
    {
      "constant": false,
      "inputs": [
        {
          "name": "_recipient",
          "type": "address"
        }
      ],
      "name": "destroyAndSend",
      "outputs": [],
      "payable": false,
      "stateMutability": "nonpayable",
      "type": "function"
    },
    {
      "anonymous": false,
      "inputs": [
        {
          "indexed": false,
          "name": "creator",
          "type": "address"
        },
        {
          "indexed": false,
          "name": "entryId",
          "type": "uint256"
        }
      ],
      "name": "EntryCreated",
      "type": "event"
    },
    {
      "anonymous": false,
      "inputs": [
        {
          "indexed": false,
          "name": "owner",
          "type": "address"
        },
        {
          "indexed": false,
          "name": "entryId",
          "type": "uint256"
        }
      ],
      "name": "EntryUpdated",
      "type": "event"
    },
    {
      "anonymous": false,
      "inputs": [
        {
          "indexed": false,
          "name": "entryId",
          "type": "uint256"
        },
        {
          "indexed": false,
          "name": "newOwner",
          "type": "address"
        }
      ],
      "name": "EntryChangedOwner",
      "type": "event"
    },
    {
      "anonymous": false,
      "inputs": [
        {
          "indexed": false,
          "name": "owner",
          "type": "address"
        },
        {
          "indexed": false,
          "name": "entryId",
          "type": "uint256"
        }
      ],
      "name": "EntryDeleted",
      "type": "event"
    },
    {
      "anonymous": false,
      "inputs": [
        {
          "indexed": false,
          "name": "linkMeta",
          "type": "string"
        }
      ],
      "name": "MetaLinkUpdated",
      "type": "event"
    },
    {
      "anonymous": false,
      "inputs": [
        {
          "indexed": false,
          "name": "linkABI",
          "type": "string"
        }
      ],
      "name": "ABILinkUpdated",
      "type": "event"
    },
    {
      "anonymous": false,
      "inputs": [
        {
          "indexed": false,
          "name": "linkSource",
          "type": "string"
        }
      ],
      "name": "SourceLinkUpdated",
      "type": "event"
    },
    {
      "anonymous": false,
      "inputs": [
        {
          "indexed": true,
          "name": "previousOwner",
          "type": "address"
        },
        {
          "indexed": true,
          "name": "newOwner",
          "type": "address"
        }
      ],
      "name": "OwnershipTransferred",
      "type": "event"
    },
    {
      "constant": true,
      "inputs": [],
      "name": "entryBase",
      "outputs": [
        {
          "name": "",
          "type": "address"
        }
      ],
      "payable": false,
      "stateMutability": "view",
      "type": "function"
    },
    {
      "constant": true,
      "inputs": [],
      "name": "registryBalance",
      "outputs": [
        {
          "name": "",
          "type": "uint256"
        }
      ],
      "payable": false,
      "stateMutability": "view",
      "type": "function"
    },
    {
      "constant": true,
      "inputs": [],
      "name": "entryCreationFee",
      "outputs": [
        {
          "name": "",
          "type": "uint256"
        }
      ],
      "payable": false,
      "stateMutability": "view",
      "type": "function"
    },
    {
      "constant": true,
      "inputs": [],
      "name": "registryName",
      "outputs": [
        {
          "name": "",
          "type": "string"
        }
      ],
      "payable": false,
      "stateMutability": "view",
      "type": "function"
    },
    {
      "constant": true,
      "inputs": [],
      "name": "registryDescription",
      "outputs": [
        {
          "name": "",
          "type": "string"
        }
      ],
      "payable": false,
      "stateMutability": "view",
      "type": "function"
    },
    {
      "constant": true,
      "inputs": [],
      "name": "registryTags",
      "outputs": [
        {
          "name": "",
          "type": "bytes32[]"
        }
      ],
      "payable": false,
      "stateMutability": "view",
      "type": "function"
    },
    {
      "constant": false,
      "inputs": [
        {
          "name": "_fee",
          "type": "uint256"
        }
      ],
      "name": "updateEntryCreationFee",
      "outputs": [],
      "payable": false,
      "stateMutability": "nonpayable",
      "type": "function"
    },
    {
      "constant": false,
      "inputs": [
        {
          "name": "_registryName",
          "type": "string"
        }
      ],
      "name": "updateRegistryName",
      "outputs": [],
      "payable": false,
      "stateMutability": "nonpayable",
      "type": "function"
    },
    {
      "constant": false,
      "inputs": [
        {
          "name": "_registryDescription",
          "type": "string"
        }
      ],
      "name": "updateRegistryDescription",
      "outputs": [],
      "payable": false,
      "stateMutability": "nonpayable",
      "type": "function"
    },
    {
      "constant": false,
      "inputs": [
        {
          "name": "_tag",
          "type": "bytes32"
        }
      ],
      "name": "addRegistryTag",
      "outputs": [],
      "payable": false,
      "stateMutability": "nonpayable",
      "type": "function"
    },
    {
      "constant": false,
      "inputs": [
        {
          "name": "_index",
          "type": "uint256"
        },
        {
          "name": "_tag",
          "type": "bytes32"
        }
      ],
      "name": "updateRegistryTag",
      "outputs": [],
      "payable": false,
      "stateMutability": "nonpayable",
      "type": "function"
    },
    {
      "constant": false,
      "inputs": [
        {
          "name": "_index",
          "type": "uint256"
        },
        {
          "name": "_tag",
          "type": "bytes32"
        }
      ],
      "name": "removeRegistryTag",
      "outputs": [],
      "payable": false,
      "stateMutability": "nonpayable",
      "type": "function"
    }
  ],
  "bytecode": "0x6060604052336000806101000a81548173ffffffffffffffffffffffffffffffffffffffff021916908373ffffffffffffffffffffffffffffffffffffffff16021790555032600460006101000a81548173ffffffffffffffffffffffffffffffffffffffff021916908373ffffffffffffffffffffffffffffffffffffffff160217905550611724806100946000396000f300606060405260043610610149576000357c0100000000000000000000000000000000000000000000000000000000900463ffffffff16806302d05d3f1461014e57806307b1f8f7146101a35780631654d16914610231578063189efc7c146102bf57806327f5f1b6146102e6578063351c6bbe146103095780633a1a3d951461034057806341c39e5c146103695780634545d21c146103f75780634dfaf97a1461042557806368b34562146104b35780636d2fd138146104dc57806383197ef01461050a57806383ca00ac1461051f5780638da5cb5b1461054d5780639e925a78146105a2578063a1f14b2714610630578063bc044e181461065e578063bf3fde331461068e578063c81225eb146106e3578063d24f707614610711578063e59f0cc214610734578063f2fde38b14610764578063f5074f411461079d578063f5ec4e50146107d6575b600080fd5b341561015957600080fd5b610161610840565b604051808273ffffffffffffffffffffffffffffffffffffffff1673ffffffffffffffffffffffffffffffffffffffff16815260200191505060405180910390f35b34156101ae57600080fd5b6101b661086a565b6040518080602001828103825283818151815260200191508051906020019080838360005b838110156101f65780820151818401526020810190506101db565b50505050905090810190601f1680156102235780820380516001836020036101000a031916815260200191505b509250505060405180910390f35b341561023c57600080fd5b610244610912565b6040518080602001828103825283818151815260200191508051906020019080838360005b83811015610284578082015181840152602081019050610269565b50505050905090810190601f1680156102b15780820380516001836020036101000a031916815260200191505b509250505060405180910390f35b34156102ca57600080fd5b6102e46004808035600019169060200190919050506109ba565b005b34156102f157600080fd5b6103076004808035906020019091905050610a5c565b005b341561031457600080fd5b61031c610b03565b6040518082600281111561032c57fe5b60ff16815260200191505060405180910390f35b341561034b57600080fd5b610353610b1a565b6040518082815260200191505060405180910390f35b341561037457600080fd5b61037c610b24565b6040518080602001828103825283818151815260200191508051906020019080838360005b838110156103bc5780820151818401526020810190506103a1565b50505050905090810190601f1680156103e95780820380516001836020036101000a031916815260200191505b509250505060405180910390f35b341561040257600080fd5b61042360048080359060200190820180359060200191909192905050610bcc565b005b341561043057600080fd5b610438610c8e565b6040518080602001828103825283818151815260200191508051906020019080838360005b8381101561047857808201518184015260208101905061045d565b50505050905090810190601f1680156104a55780820380516001836020036101000a031916815260200191505b509250505060405180910390f35b34156104be57600080fd5b6104c6610d36565b6040518082815260200191505060405180910390f35b34156104e757600080fd5b61050860048080359060200190820180359060200191909192905050610d55565b005b341561051557600080fd5b61051d610e17565b005b341561052a57600080fd5b61054b60048080359060200190820180359060200191909192905050610eac565b005b341561055857600080fd5b610560610f6e565b604051808273ffffffffffffffffffffffffffffffffffffffff1673ffffffffffffffffffffffffffffffffffffffff16815260200191505060405180910390f35b34156105ad57600080fd5b6105b5610f93565b6040518080602001828103825283818151815260200191508051906020019080838360005b838110156105f55780820151818401526020810190506105da565b50505050905090810190601f1680156106225780820380516001836020036101000a031916815260200191505b509250505060405180910390f35b341561063b57600080fd5b61065c6004808035906020019082018035906020019190919290505061103b565b005b341561066957600080fd5b61068c6004808035906020019091908035600019169060200190919050506110c7565b005b341561069957600080fd5b6106a16111c5565b604051808273ffffffffffffffffffffffffffffffffffffffff1673ffffffffffffffffffffffffffffffffffffffff16815260200191505060405180910390f35b34156106ee57600080fd5b61070f600480803590602001908201803590602001919091929050506111ef565b005b341561071c57600080fd5b6107326004808035906020019091905050611286565b005b341561073f57600080fd5b6107626004808035906020019091908035600019169060200190919050506112ec565b005b341561076f57600080fd5b61079b600480803573ffffffffffffffffffffffffffffffffffffffff16906020019091905050611383565b005b34156107a857600080fd5b6107d4600480803573ffffffffffffffffffffffffffffffffffffffff169060200190919050506114d8565b005b34156107e157600080fd5b6107e961154c565b6040518080602001828103825283818151815260200191508051906020019060200280838360005b8381101561082c578082015181840152602081019050610811565b505050509050019250505060405180910390f35b6000600460009054906101000a900473ffffffffffffffffffffffffffffffffffffffff16905090565b6108726115ae565b60038054600181600116156101000203166002900480601f0160208091040260200160405190810160405280929190818152602001828054600181600116156101000203166002900480156109085780601f106108dd57610100808354040283529160200191610908565b820191906000526020600020905b8154815290600101906020018083116108eb57829003601f168201915b5050505050905090565b61091a6115ae565b60068054600181600116156101000203166002900480601f0160208091040260200160405190810160405280929190818152602001828054600181600116156101000203166002900480156109b05780601f10610985576101008083540402835291602001916109b0565b820191906000526020600020905b81548152906001019060200180831161099357829003601f168201915b5050505050905090565b600460009054906101000a900473ffffffffffffffffffffffffffffffffffffffff1673ffffffffffffffffffffffffffffffffffffffff163373ffffffffffffffffffffffffffffffffffffffff16141515610a1657600080fd5b6010602060ff1611151515610a2a57600080fd5b60088054806001018281610a3e91906115c2565b91600052602060002090016000839091909150906000191690555050565b600460009054906101000a900473ffffffffffffffffffffffffffffffffffffffff1673ffffffffffffffffffffffffffffffffffffffff163373ffffffffffffffffffffffffffffffffffffffff16141515610ab857600080fd5b80600280811115610ac557fe5b10151515610ad257600080fd5b806002811115610ade57fe5b600460146101000a81548160ff02191690836002811115610afb57fe5b021790555050565b6000600460149054906101000a900460ff16905090565b6000600554905090565b610b2c6115ae565b60078054600181600116156101000203166002900480601f016020809104026020016040519081016040528092919081815260200182805460018160011615610100020316600290048015610bc25780601f10610b9757610100808354040283529160200191610bc2565b820191906000526020600020905b815481529060010190602001808311610ba557829003601f168201915b5050505050905090565b6000809054906101000a900473ffffffffffffffffffffffffffffffffffffffff1673ffffffffffffffffffffffffffffffffffffffff163373ffffffffffffffffffffffffffffffffffffffff16141515610c2757600080fd5b818160019190610c389291906115ee565b507f97bc322e754962c4ff23eb8a9d58b147ead5be0347d9a799addc5a2d44564cbe8282604051808060200182810382528484828181526020019250808284378201915050935050505060405180910390a15050565b610c966115ae565b60028054600181600116156101000203166002900480601f016020809104026020016040519081016040528092919081815260200182805460018160011615610100020316600290048015610d2c5780601f10610d0157610100808354040283529160200191610d2c565b820191906000526020600020905b815481529060010190602001808311610d0f57829003601f168201915b5050505050905090565b60003073ffffffffffffffffffffffffffffffffffffffff1631905090565b6000809054906101000a900473ffffffffffffffffffffffffffffffffffffffff1673ffffffffffffffffffffffffffffffffffffffff163373ffffffffffffffffffffffffffffffffffffffff16141515610db057600080fd5b818160029190610dc19291906115ee565b507f6362a59ae98fef1a0a45d03a1127a82c2268ca380148117a052b9f8bce8e6f1e8282604051808060200182810382528484828181526020019250808284378201915050935050505060405180910390a15050565b6000809054906101000a900473ffffffffffffffffffffffffffffffffffffffff1673ffffffffffffffffffffffffffffffffffffffff163373ffffffffffffffffffffffffffffffffffffffff16141515610e7257600080fd5b6000809054906101000a900473ffffffffffffffffffffffffffffffffffffffff1673ffffffffffffffffffffffffffffffffffffffff16ff5b6000809054906101000a900473ffffffffffffffffffffffffffffffffffffffff1673ffffffffffffffffffffffffffffffffffffffff163373ffffffffffffffffffffffffffffffffffffffff16141515610f0757600080fd5b818160039190610f189291906115ee565b507fcfaf57d92b1b2684731a770c593d162587ca98e9d372be876ab14b389866f0f68282604051808060200182810382528484828181526020019250808284378201915050935050505060405180910390a15050565b6000809054906101000a900473ffffffffffffffffffffffffffffffffffffffff1681565b610f9b6115ae565b60018054600181600116156101000203166002900480601f0160208091040260200160405190810160405280929190818152602001828054600181600116156101000203166002900480156110315780601f1061100657610100808354040283529160200191611031565b820191906000526020600020905b81548152906001019060200180831161101457829003601f168201915b5050505050905090565b6000600460009054906101000a900473ffffffffffffffffffffffffffffffffffffffff1673ffffffffffffffffffffffffffffffffffffffff163373ffffffffffffffffffffffffffffffffffffffff1614151561109957600080fd5b82829050905061010081111515156110b057600080fd5b8282600791906110c19291906115ee565b50505050565b600080600460009054906101000a900473ffffffffffffffffffffffffffffffffffffffff1673ffffffffffffffffffffffffffffffffffffffff163373ffffffffffffffffffffffffffffffffffffffff1614151561112657600080fd5b6010602060ff161115151561113a57600080fd5b600160088054905003915060088281548110151561115457fe5b90600052602060002090015490508060088581548110151561117257fe5b90600052602060002090018160001916905550600060088381548110151561119657fe5b9060005260206000209001816000191690555060088054809190600190036111be919061166e565b5050505050565b6000600960009054906101000a900473ffffffffffffffffffffffffffffffffffffffff16905090565b6000600460009054906101000a900473ffffffffffffffffffffffffffffffffffffffff1673ffffffffffffffffffffffffffffffffffffffff163373ffffffffffffffffffffffffffffffffffffffff1614151561124d57600080fd5b828290509050600081118015611264575060208111155b151561126f57600080fd5b8282600691906112809291906115ee565b50505050565b600460009054906101000a900473ffffffffffffffffffffffffffffffffffffffff1673ffffffffffffffffffffffffffffffffffffffff163373ffffffffffffffffffffffffffffffffffffffff161415156112e257600080fd5b8060058190555050565b600460009054906101000a900473ffffffffffffffffffffffffffffffffffffffff1673ffffffffffffffffffffffffffffffffffffffff163373ffffffffffffffffffffffffffffffffffffffff1614151561134857600080fd5b6010602060ff161115151561135c57600080fd5b8060088381548110151561136c57fe5b906000526020600020900181600019169055505050565b6000809054906101000a900473ffffffffffffffffffffffffffffffffffffffff1673ffffffffffffffffffffffffffffffffffffffff163373ffffffffffffffffffffffffffffffffffffffff161415156113de57600080fd5b600073ffffffffffffffffffffffffffffffffffffffff168173ffffffffffffffffffffffffffffffffffffffff161415151561141a57600080fd5b8073ffffffffffffffffffffffffffffffffffffffff166000809054906101000a900473ffffffffffffffffffffffffffffffffffffffff1673ffffffffffffffffffffffffffffffffffffffff167f8be0079c531659141344cd1fd0a4f28419497f9722a3daafe3b4186f6b6457e060405160405180910390a3806000806101000a81548173ffffffffffffffffffffffffffffffffffffffff021916908373ffffffffffffffffffffffffffffffffffffffff16021790555050565b6000809054906101000a900473ffffffffffffffffffffffffffffffffffffffff1673ffffffffffffffffffffffffffffffffffffffff163373ffffffffffffffffffffffffffffffffffffffff1614151561153357600080fd5b8073ffffffffffffffffffffffffffffffffffffffff16ff5b61155461169a565b60088054806020026020016040519081016040528092919081815260200182805480156115a457602002820191906000526020600020905b8154600019168152602001906001019080831161158c575b5050505050905090565b602060405190810160405280600081525090565b8154818355818115116115e9578183600052602060002091820191016115e891906116ae565b5b505050565b828054600181600116156101000203166002900490600052602060002090601f016020900481019282601f1061162f57803560ff191683800117855561165d565b8280016001018555821561165d579182015b8281111561165c578235825591602001919060010190611641565b5b50905061166a91906116d3565b5090565b8154818355818115116116955781836000526020600020918201910161169491906116ae565b5b505050565b602060405190810160405280600081525090565b6116d091905b808211156116cc5760008160009055506001016116b4565b5090565b90565b6116f591905b808211156116f15760008160009055506001016116d9565b5090565b905600a165627a7a723058202020f059b51b41b5d12e0de96069bbf0165a5e32afdfdae9bb8ec1876a8662d00029",
  "source": "pragma solidity ^0.4.19;\n\nimport \"../common/IPFSeable.sol\";\nimport \"./RegistryAccessControl.sol\";\n// import \"../common/RegistrySafe.sol\";\nimport \"./EntryBase.sol\";\n\n\ncontract Chaingeareable is IPFSeable, RegistryAccessControl {\n\n    uint internal entryCreationFee_;\n    string internal registryName_;\n    string internal registryDescription_;\n    bytes32[] internal registryTags_;\n    address internal entryBase_;\n\n    // address internal registrySafe_;\n    \n    event EntryCreated(\n        address creator,\n        uint entryId\n    );\n\n    event EntryUpdated(\n        address owner,\n        uint entryId\n    );\n\n    event EntryChangedOwner(\n        uint entryId,\n        address newOwner\n    );\n\n    event EntryDeleted(\n        address owner,\n        uint entryId\n    );\n    \n    function entryBase()\n        public\n        view\n        returns (address)\n    {\n        return entryBase_;\n    }\n    \n    function registryBalance()\n        public\n        view\n        returns (uint)\n    {\n        return this.balance;\n    }\n\n    function entryCreationFee()\n        public\n        view\n        returns (uint)\n    {\n        return entryCreationFee_;\n    }\n\n    function registryName()\n        public\n        view\n        returns (string)\n    {\n        return registryName_;\n    }\n\n    function registryDescription()\n        public\n        view\n        returns (string)\n    {\n        return registryDescription_;\n    }\n\n    function registryTags()\n        public\n        view\n        returns (bytes32[])\n    {\n        return registryTags_;\n    }\n\n    function updateEntryCreationFee(uint _fee)\n        external\n        onlyCreator\n    {\n        entryCreationFee_ = _fee;\n    }\n\n    function updateRegistryName(string _registryName)\n        external\n        onlyCreator\n    {\n        uint len = bytes(_registryName).length;\n        require(len > 0 && len <= 32);\n\n        registryName_ = _registryName;\n    }\n\n    function updateRegistryDescription(string _registryDescription)\n        external\n        onlyCreator\n    {\n        uint len = bytes(_registryDescription).length;\n        require(len <= 256);\n\n        registryDescription_ = _registryDescription;\n    }\n\n    function addRegistryTag(bytes32 _tag)\n        external\n        onlyCreator\n    {\n        require(_tag.length <= 16);\n\n        registryTags_.push(_tag);\n    }\n\n    function updateRegistryTag(uint256 _index, bytes32 _tag)\n        external\n        onlyCreator\n    {\n        require(_tag.length <= 16);\n\n        registryTags_[_index] = _tag;\n    }\n\n    function removeRegistryTag(uint256 _index, bytes32 _tag)\n        external\n        onlyCreator\n    {\n        require(_tag.length <= 16);\n\n        uint256 lastTagIndex = registryTags_.length - 1;\n        bytes32 lastTag = registryTags_[lastTagIndex];\n\n        registryTags_[_index] = lastTag;\n        registryTags_[lastTagIndex] = \"\"; //\"\"?\n        registryTags_.length--;\n    }\n\n    // function registrySafe()\n    //     public\n    //     view\n    //     returns (address)\n    // {\n    //     return registrySafe_;\n    // }\n\n}\n",
  "sourcePath": "/Users/litvintech/Projects/chaingear/contracts/registry/Chaingeareable.sol",
  "compiler": {
    "name": "solc",
    "version": "0.4.19+commit.c4cbbb05.Emscripten.clang"
  },
  "schemaVersion": "1.0.1",
  "updatedAt": "2018-04-18T22:56:38.930Z"
}