{
  "contractName": "Chaingear",
  "abi": [
    {
      "constant": true,
      "inputs": [
        {
          "name": "_registryID",
          "type": "uint256"
        }
      ],
      "name": "nameOf",
      "outputs": [
        {
          "name": "",
          "type": "string"
        }
      ],
      "payable": false,
      "stateMutability": "view",
      "type": "function"
    },
    {
      "constant": true,
      "inputs": [],
      "name": "name",
      "outputs": [
        {
          "name": "",
          "type": "string"
        }
      ],
      "payable": false,
      "stateMutability": "view",
      "type": "function"
    },
    {
      "constant": true,
      "inputs": [],
      "name": "linkSourceCode",
      "outputs": [
        {
          "name": "",
          "type": "string"
        }
      ],
      "payable": false,
      "stateMutability": "view",
      "type": "function"
    },
    {
      "constant": true,
      "inputs": [
        {
          "name": "_tokenId",
          "type": "uint256"
        }
      ],
      "name": "getApproved",
      "outputs": [
        {
          "name": "",
          "type": "address"
        }
      ],
      "payable": false,
      "stateMutability": "view",
      "type": "function"
    },
    {
      "constant": false,
      "inputs": [
        {
          "name": "_to",
          "type": "address"
        },
        {
          "name": "_tokenId",
          "type": "uint256"
        }
      ],
      "name": "approve",
      "outputs": [],
      "payable": false,
      "stateMutability": "nonpayable",
      "type": "function"
    },
    {
      "constant": true,
      "inputs": [],
      "name": "totalSupply",
      "outputs": [
        {
          "name": "",
          "type": "uint256"
        }
      ],
      "payable": false,
      "stateMutability": "view",
      "type": "function"
    },
    {
      "constant": true,
      "inputs": [],
      "name": "registryCreator",
      "outputs": [
        {
          "name": "",
          "type": "address"
        }
      ],
      "payable": false,
      "stateMutability": "view",
      "type": "function"
    },
    {
      "constant": false,
      "inputs": [
        {
          "name": "_from",
          "type": "address"
        },
        {
          "name": "_to",
          "type": "address"
        },
        {
          "name": "_tokenId",
          "type": "uint256"
        }
      ],
      "name": "transferFrom",
      "outputs": [],
      "payable": false,
      "stateMutability": "nonpayable",
      "type": "function"
    },
    {
      "constant": true,
      "inputs": [
        {
          "name": "_owner",
          "type": "address"
        },
        {
          "name": "_index",
          "type": "uint256"
        }
      ],
      "name": "tokenOfOwnerByIndex",
      "outputs": [
        {
          "name": "",
          "type": "uint256"
        }
      ],
      "payable": false,
      "stateMutability": "view",
      "type": "function"
    },
    {
      "constant": true,
      "inputs": [
        {
          "name": "_registryID",
          "type": "uint256"
        }
      ],
      "name": "registryInfo",
      "outputs": [
        {
          "name": "",
          "type": "string"
        },
        {
          "name": "",
          "type": "address"
        },
        {
          "name": "",
          "type": "address"
        },
        {
          "name": "",
          "type": "uint256"
        },
        {
          "name": "",
          "type": "address"
        }
      ],
      "payable": false,
      "stateMutability": "view",
      "type": "function"
    },
    {
      "constant": true,
      "inputs": [],
      "name": "totalShares",
      "outputs": [
        {
          "name": "",
          "type": "uint256"
        }
      ],
      "payable": false,
      "stateMutability": "view",
      "type": "function"
    },
    {
      "constant": false,
      "inputs": [],
      "name": "unpause",
      "outputs": [],
      "payable": false,
      "stateMutability": "nonpayable",
      "type": "function"
    },
    {
      "constant": false,
      "inputs": [
        {
          "name": "_from",
          "type": "address"
        },
        {
          "name": "_to",
          "type": "address"
        },
        {
          "name": "_tokenId",
          "type": "uint256"
        }
      ],
      "name": "safeTransferFrom",
      "outputs": [],
      "payable": false,
      "stateMutability": "nonpayable",
      "type": "function"
    },
    {
      "constant": true,
      "inputs": [],
      "name": "chaingearDescription",
      "outputs": [
        {
          "name": "",
          "type": "string"
        }
      ],
      "payable": false,
      "stateMutability": "view",
      "type": "function"
    },
    {
      "constant": false,
      "inputs": [
        {
          "name": "_linkABI",
          "type": "string"
        }
      ],
      "name": "setABILink",
      "outputs": [],
      "payable": false,
      "stateMutability": "nonpayable",
      "type": "function"
    },
    {
      "constant": true,
      "inputs": [],
      "name": "linkMeta",
      "outputs": [
        {
          "name": "",
          "type": "string"
        }
      ],
      "payable": false,
      "stateMutability": "view",
      "type": "function"
    },
    {
      "constant": false,
      "inputs": [],
      "name": "claim",
      "outputs": [],
      "payable": false,
      "stateMutability": "nonpayable",
      "type": "function"
    },
    {
      "constant": true,
      "inputs": [
        {
          "name": "_tokenId",
          "type": "uint256"
        }
      ],
      "name": "exists",
      "outputs": [
        {
          "name": "",
          "type": "bool"
        }
      ],
      "payable": false,
      "stateMutability": "view",
      "type": "function"
    },
    {
      "constant": true,
      "inputs": [
        {
          "name": "_index",
          "type": "uint256"
        }
      ],
      "name": "tokenByIndex",
      "outputs": [
        {
          "name": "",
          "type": "uint256"
        }
      ],
      "payable": false,
      "stateMutability": "view",
      "type": "function"
    },
    {
      "constant": true,
      "inputs": [],
      "name": "registriesAmount",
      "outputs": [
        {
          "name": "",
          "type": "uint256"
        }
      ],
      "payable": false,
      "stateMutability": "view",
      "type": "function"
    },
    {
      "constant": true,
      "inputs": [
        {
          "name": "_registryID",
          "type": "uint256"
        }
      ],
      "name": "creatorOf",
      "outputs": [
        {
          "name": "",
          "type": "address"
        }
      ],
      "payable": false,
      "stateMutability": "view",
      "type": "function"
    },
    {
      "constant": true,
      "inputs": [],
      "name": "paused",
      "outputs": [
        {
          "name": "",
          "type": "bool"
        }
      ],
      "payable": false,
      "stateMutability": "view",
      "type": "function"
    },
    {
      "constant": true,
      "inputs": [
        {
          "name": "",
          "type": "uint256"
        }
      ],
      "name": "payees",
      "outputs": [
        {
          "name": "",
          "type": "address"
        }
      ],
      "payable": false,
      "stateMutability": "view",
      "type": "function"
    },
    {
      "constant": true,
      "inputs": [
        {
          "name": "_tokenId",
          "type": "uint256"
        }
      ],
      "name": "ownerOf",
      "outputs": [
        {
          "name": "",
          "type": "address"
        }
      ],
      "payable": false,
      "stateMutability": "view",
      "type": "function"
    },
    {
      "constant": false,
      "inputs": [
        {
          "name": "_linkMeta",
          "type": "string"
        }
      ],
      "name": "setMetaLink",
      "outputs": [],
      "payable": false,
      "stateMutability": "nonpayable",
      "type": "function"
    },
    {
      "constant": true,
      "inputs": [
        {
          "name": "_owner",
          "type": "address"
        }
      ],
      "name": "balanceOf",
      "outputs": [
        {
          "name": "",
          "type": "uint256"
        }
      ],
      "payable": false,
      "stateMutability": "view",
      "type": "function"
    },
    {
      "constant": false,
      "inputs": [
        {
          "name": "_payeeIndex",
          "type": "uint256"
        },
        {
          "name": "_newAddress",
          "type": "address"
        }
      ],
      "name": "changePayeeAddress",
      "outputs": [],
      "payable": false,
      "stateMutability": "nonpayable",
      "type": "function"
    },
    {
      "constant": false,
      "inputs": [],
      "name": "destroy",
      "outputs": [],
      "payable": false,
      "stateMutability": "nonpayable",
      "type": "function"
    },
    {
      "constant": false,
      "inputs": [
        {
          "name": "_linkSourceCode",
          "type": "string"
        }
      ],
      "name": "setSourceLink",
      "outputs": [],
      "payable": false,
      "stateMutability": "nonpayable",
      "type": "function"
    },
    {
      "constant": false,
      "inputs": [],
      "name": "pause",
      "outputs": [],
      "payable": false,
      "stateMutability": "nonpayable",
      "type": "function"
    },
    {
      "constant": true,
      "inputs": [],
      "name": "registryRegistrationFee",
      "outputs": [
        {
          "name": "",
          "type": "uint256"
        }
      ],
      "payable": false,
      "stateMutability": "view",
      "type": "function"
    },
    {
      "constant": true,
      "inputs": [],
      "name": "owner",
      "outputs": [
        {
          "name": "",
          "type": "address"
        }
      ],
      "payable": false,
      "stateMutability": "view",
      "type": "function"
    },
    {
      "constant": true,
      "inputs": [
        {
          "name": "_registryID",
          "type": "uint256"
        }
      ],
      "name": "registryDateOf",
      "outputs": [
        {
          "name": "",
          "type": "uint256"
        }
      ],
      "payable": false,
      "stateMutability": "view",
      "type": "function"
    },
    {
      "constant": true,
      "inputs": [],
      "name": "symbol",
      "outputs": [
        {
          "name": "",
          "type": "string"
        }
      ],
      "payable": false,
      "stateMutability": "view",
      "type": "function"
    },
    {
      "constant": true,
      "inputs": [
        {
          "name": "",
          "type": "address"
        }
      ],
      "name": "released",
      "outputs": [
        {
          "name": "",
          "type": "uint256"
        }
      ],
      "payable": false,
      "stateMutability": "view",
      "type": "function"
    },
    {
      "constant": true,
      "inputs": [],
      "name": "linkABI",
      "outputs": [
        {
          "name": "",
          "type": "string"
        }
      ],
      "payable": false,
      "stateMutability": "view",
      "type": "function"
    },
    {
      "constant": false,
      "inputs": [
        {
          "name": "_to",
          "type": "address"
        },
        {
          "name": "_approved",
          "type": "bool"
        }
      ],
      "name": "setApprovalForAll",
      "outputs": [],
      "payable": false,
      "stateMutability": "nonpayable",
      "type": "function"
    },
    {
      "constant": false,
      "inputs": [
        {
          "name": "_newFee",
          "type": "uint256"
        }
      ],
      "name": "updateRegistrationFee",
      "outputs": [],
      "payable": false,
      "stateMutability": "nonpayable",
      "type": "function"
    },
    {
      "constant": false,
      "inputs": [
        {
          "name": "_from",
          "type": "address"
        },
        {
          "name": "_to",
          "type": "address"
        },
        {
          "name": "_tokenId",
          "type": "uint256"
        },
        {
          "name": "_data",
          "type": "bytes"
        }
      ],
      "name": "safeTransferFrom",
      "outputs": [],
      "payable": false,
      "stateMutability": "nonpayable",
      "type": "function"
    },
    {
      "constant": true,
      "inputs": [
        {
          "name": "_registryID",
          "type": "uint256"
        }
      ],
      "name": "registryOwnerOf",
      "outputs": [
        {
          "name": "",
          "type": "address"
        }
      ],
      "payable": false,
      "stateMutability": "view",
      "type": "function"
    },
    {
      "constant": true,
      "inputs": [
        {
          "name": "_tokenId",
          "type": "uint256"
        }
      ],
      "name": "tokenURI",
      "outputs": [
        {
          "name": "",
          "type": "string"
        }
      ],
      "payable": false,
      "stateMutability": "view",
      "type": "function"
    },
    {
      "constant": true,
      "inputs": [
        {
          "name": "",
          "type": "address"
        }
      ],
      "name": "shares",
      "outputs": [
        {
          "name": "",
          "type": "uint256"
        }
      ],
      "payable": false,
      "stateMutability": "view",
      "type": "function"
    },
    {
      "constant": true,
      "inputs": [],
      "name": "totalReleased",
      "outputs": [
        {
          "name": "",
          "type": "uint256"
        }
      ],
      "payable": false,
      "stateMutability": "view",
      "type": "function"
    },
    {
      "constant": false,
      "inputs": [
        {
          "name": "_description",
          "type": "string"
        }
      ],
      "name": "updateDescription",
      "outputs": [],
      "payable": false,
      "stateMutability": "nonpayable",
      "type": "function"
    },
    {
      "constant": true,
      "inputs": [
        {
          "name": "_owner",
          "type": "address"
        },
        {
          "name": "_operator",
          "type": "address"
        }
      ],
      "name": "isApprovedForAll",
      "outputs": [
        {
          "name": "",
          "type": "bool"
        }
      ],
      "payable": false,
      "stateMutability": "view",
      "type": "function"
    },
    {
      "constant": false,
      "inputs": [
        {
          "name": "newOwner",
          "type": "address"
        }
      ],
      "name": "transferOwnership",
      "outputs": [],
      "payable": false,
      "stateMutability": "nonpayable",
      "type": "function"
    },
    {
      "constant": false,
      "inputs": [
        {
          "name": "_recipient",
          "type": "address"
        }
      ],
      "name": "destroyAndSend",
      "outputs": [],
      "payable": false,
      "stateMutability": "nonpayable",
      "type": "function"
    },
    {
      "constant": true,
      "inputs": [
        {
          "name": "_registryID",
          "type": "uint256"
        }
      ],
      "name": "contractAddressOf",
      "outputs": [
        {
          "name": "",
          "type": "address"
        }
      ],
      "payable": false,
      "stateMutability": "view",
      "type": "function"
    },
    {
      "constant": false,
      "inputs": [
        {
          "name": "_creator",
          "type": "address"
        }
      ],
      "name": "setRegistryCreator",
      "outputs": [],
      "payable": false,
      "stateMutability": "nonpayable",
      "type": "function"
    },
    {
      "inputs": [
        {
          "name": "_creator",
          "type": "address"
        },
        {
          "name": "_benefitiaries",
          "type": "address[]"
        },
        {
          "name": "_shares",
          "type": "uint256[]"
        },
        {
          "name": "_description",
          "type": "string"
        },
        {
          "name": "_registrationFee",
          "type": "uint256"
        },
        {
          "name": "_chaingearName",
          "type": "string"
        },
        {
          "name": "_chaingearSymbol",
          "type": "string"
        }
      ],
      "payable": true,
      "stateMutability": "payable",
      "type": "constructor"
    },
    {
      "payable": true,
      "stateMutability": "payable",
      "type": "fallback"
    },
    {
      "anonymous": false,
      "inputs": [],
      "name": "Pause",
      "type": "event"
    },
    {
      "anonymous": false,
      "inputs": [],
      "name": "Unpause",
      "type": "event"
    },
    {
      "anonymous": false,
      "inputs": [
        {
          "indexed": false,
          "name": "linkMeta",
          "type": "string"
        }
      ],
      "name": "MetaLinkUpdated",
      "type": "event"
    },
    {
      "anonymous": false,
      "inputs": [
        {
          "indexed": false,
          "name": "linkABI",
          "type": "string"
        }
      ],
      "name": "ABILinkUpdated",
      "type": "event"
    },
    {
      "anonymous": false,
      "inputs": [
        {
          "indexed": false,
          "name": "linkSource",
          "type": "string"
        }
      ],
      "name": "SourceLinkUpdated",
      "type": "event"
    },
    {
      "anonymous": false,
      "inputs": [
        {
          "indexed": false,
          "name": "payeeIndex",
          "type": "uint256"
        },
        {
          "indexed": false,
          "name": "oldAddress",
          "type": "address"
        },
        {
          "indexed": false,
          "name": "newAddress",
          "type": "address"
        }
      ],
      "name": "PayeeAddressChanged",
      "type": "event"
    },
    {
      "anonymous": false,
      "inputs": [
        {
          "indexed": true,
          "name": "previousOwner",
          "type": "address"
        },
        {
          "indexed": true,
          "name": "newOwner",
          "type": "address"
        }
      ],
      "name": "OwnershipTransferred",
      "type": "event"
    },
    {
      "anonymous": false,
      "inputs": [
        {
          "indexed": false,
          "name": "name",
          "type": "string"
        },
        {
          "indexed": false,
          "name": "registryAddress",
          "type": "address"
        },
        {
          "indexed": false,
          "name": "creator",
          "type": "address"
        },
        {
          "indexed": false,
          "name": "registryID",
          "type": "uint256"
        }
      ],
      "name": "RegistryRegistered",
      "type": "event"
    },
    {
      "anonymous": false,
      "inputs": [
        {
          "indexed": true,
          "name": "_from",
          "type": "address"
        },
        {
          "indexed": true,
          "name": "_to",
          "type": "address"
        },
        {
          "indexed": false,
          "name": "_tokenId",
          "type": "uint256"
        }
      ],
      "name": "Transfer",
      "type": "event"
    },
    {
      "anonymous": false,
      "inputs": [
        {
          "indexed": true,
          "name": "_owner",
          "type": "address"
        },
        {
          "indexed": true,
          "name": "_approved",
          "type": "address"
        },
        {
          "indexed": false,
          "name": "_tokenId",
          "type": "uint256"
        }
      ],
      "name": "Approval",
      "type": "event"
    },
    {
      "anonymous": false,
      "inputs": [
        {
          "indexed": true,
          "name": "_owner",
          "type": "address"
        },
        {
          "indexed": true,
          "name": "_operator",
          "type": "address"
        },
        {
          "indexed": false,
          "name": "_approved",
          "type": "bool"
        }
      ],
      "name": "ApprovalForAll",
      "type": "event"
    },
    {
      "constant": false,
      "inputs": [
        {
          "name": "_benefitiaries",
          "type": "address[]"
        },
        {
          "name": "_shares",
          "type": "uint256[]"
        },
        {
          "name": "_name",
          "type": "string"
        },
        {
          "name": "_symbol",
          "type": "string"
        },
        {
          "name": "_linkToABIOfEntriesContract",
          "type": "string"
        },
        {
          "name": "_bytecodeOfEntriesContract",
          "type": "bytes"
        }
      ],
      "name": "registerRegistry",
      "outputs": [
        {
          "name": "registryAddress",
          "type": "address"
        },
        {
          "name": "registryID",
          "type": "uint256"
        }
      ],
      "payable": true,
      "stateMutability": "payable",
      "type": "function"
    }
  ],
  "bytecode": "0x60606040526000600b556000600c556000601560006101000a81548160ff02191690831515021790555060405162004c3838038062004c3883398101604052808051906020019091908051820191906020018051820191906020018051820191906020018051906020019091908051820191906020018051820191905050858581816000868681600490805190602001906200009d9291906200037e565b508060059080519060200190620000b69291906200037e565b50505081518351141515620000ca57600080fd5b600090505b82518110156200013757620001298382815181101515620000ec57fe5b9060200190602002015183838151811015156200010557fe5b90602001906020020151620001eb6401000000000262004615176401000000009004565b8080600101915050620000cf565b50505033601160006101000a81548173ffffffffffffffffffffffffffffffffffffffff021916908373ffffffffffffffffffffffffffffffffffffffff16021790555050508260178190555083601690805190602001906200019c9291906200037e565b5086601860006101000a81548173ffffffffffffffffffffffffffffffffffffffff021916908373ffffffffffffffffffffffffffffffffffffffff160217905550505050505050506200045c565b600073ffffffffffffffffffffffffffffffffffffffff168273ffffffffffffffffffffffffffffffffffffffff16141515156200022857600080fd5b6000811115156200023857600080fd5b6000600d60008473ffffffffffffffffffffffffffffffffffffffff1673ffffffffffffffffffffffffffffffffffffffff168152602001908152602001600020541415156200028757600080fd5b600f80548060010182816200029d919062000405565b9160005260206000209001600084909190916101000a81548173ffffffffffffffffffffffffffffffffffffffff021916908373ffffffffffffffffffffffffffffffffffffffff1602179055505080600d60008473ffffffffffffffffffffffffffffffffffffffff1673ffffffffffffffffffffffffffffffffffffffff168152602001908152602001600020819055506200035581600b546200035f640100000000026200365b179091906401000000009004565b600b819055505050565b60008082840190508381101515156200037457fe5b8091505092915050565b828054600181600116156101000203166002900490600052602060002090601f016020900481019282601f10620003c157805160ff1916838001178555620003f2565b82800160010185558215620003f2579182015b82811115620003f1578251825591602001919060010190620003d4565b5b50905062000401919062000434565b5090565b8154818355818115116200042f578183600052602060002091820191016200042e919062000434565b5b505050565b6200045991905b80821115620004555760008160009055506001016200043b565b5090565b90565b6147cc806200046c6000396000f30060606040526004361061025c576000357c0100000000000000000000000000000000000000000000000000000000900463ffffffff168063051a26641461025e57806306fdde03146102fa57806307b1f8f714610388578063081812fc14610416578063095ea7b31461047957806318160ddd146104bb5780631bb95252146104e457806323b872dd146105395780632f745c591461059a57806337f5881c146105f05780633a98ef391461072c5780633f4ba83a1461075557806342842e0e1461076a57806343d2839f146107cb5780634545d21c146108595780634dfaf97a146108875780634e71d92d146109155780634f558e791461092a5780634f6ccce714610965578063557902ad1461099c578063589a1743146109c55780635c975abb14610a2857806363037b0c14610a555780636352211e14610ab85780636d2fd13814610b1b57806370a0823114610b495780637b49376814610b9657806383197ef014610bd857806383ca00ac14610bed5780638456cb5914610c1b5780638ab47f7b14610c305780638da5cb5b14610c595780638e2992a014610cae57806395d89b4114610ce55780639852595c14610d735780639e925a7814610dc0578063a22cb46514610e4e578063af582c6b14610e92578063b88d4fde14610eb5578063bb8275cf14610f59578063c85a9e6d14610fbc578063c87b56dd1461108a578063ce7c2ac214611126578063e33b7de314611173578063e735b48a1461119c578063e985e9c5146111ca578063f2fde38b1461123a578063f5074f4114611273578063f5e0c610146112ac578063f6debd2c1461130f575b005b341561026957600080fd5b61027f6004808035906020019091905050611348565b6040518080602001828103825283818151815260200191508051906020019080838360005b838110156102bf5780820151818401526020810190506102a4565b50505050905090810190601f1680156102ec5780820380516001836020036101000a031916815260200191505b509250505060405180910390f35b341561030557600080fd5b61030d611410565b6040518080602001828103825283818151815260200191508051906020019080838360005b8381101561034d578082015181840152602081019050610332565b50505050905090810190601f16801561037a5780820380516001836020036101000a031916815260200191505b509250505060405180910390f35b341561039357600080fd5b61039b6114b8565b6040518080602001828103825283818151815260200191508051906020019080838360005b838110156103db5780820151818401526020810190506103c0565b50505050905090810190601f1680156104085780820380516001836020036101000a031916815260200191505b509250505060405180910390f35b341561042157600080fd5b6104376004808035906020019091905050611560565b604051808273ffffffffffffffffffffffffffffffffffffffff1673ffffffffffffffffffffffffffffffffffffffff16815260200191505060405180910390f35b341561048457600080fd5b6104b9600480803573ffffffffffffffffffffffffffffffffffffffff1690602001909190803590602001909190505061159d565b005b34156104c657600080fd5b6104ce611763565b6040518082815260200191505060405180910390f35b34156104ef57600080fd5b6104f7611770565b604051808273ffffffffffffffffffffffffffffffffffffffff1673ffffffffffffffffffffffffffffffffffffffff16815260200191505060405180910390f35b341561054457600080fd5b610598600480803573ffffffffffffffffffffffffffffffffffffffff1690602001909190803573ffffffffffffffffffffffffffffffffffffffff1690602001909190803590602001909190505061179a565b005b34156105a557600080fd5b6105da600480803573ffffffffffffffffffffffffffffffffffffffff169060200190919080359060200190919050506118b1565b6040518082815260200191505060405180910390f35b34156105fb57600080fd5b6106116004808035906020019091905050611929565b60405180806020018673ffffffffffffffffffffffffffffffffffffffff1673ffffffffffffffffffffffffffffffffffffffff1681526020018573ffffffffffffffffffffffffffffffffffffffff1673ffffffffffffffffffffffffffffffffffffffff1681526020018481526020018373ffffffffffffffffffffffffffffffffffffffff1673ffffffffffffffffffffffffffffffffffffffff168152602001828103825287818151815260200191508051906020019080838360005b838110156106ed5780820151818401526020810190506106d2565b50505050905090810190601f16801561071a5780820380516001836020036101000a031916815260200191505b50965050505050505060405180910390f35b341561073757600080fd5b61073f611977565b6040518082815260200191505060405180910390f35b341561076057600080fd5b61076861197d565b005b341561077557600080fd5b6107c9600480803573ffffffffffffffffffffffffffffffffffffffff1690602001909190803573ffffffffffffffffffffffffffffffffffffffff16906020019091908035906020019091905050611a3d565b005b34156107d657600080fd5b6107de611a75565b6040518080602001828103825283818151815260200191508051906020019080838360005b8381101561081e578082015181840152602081019050610803565b50505050905090810190601f16801561084b5780820380516001836020036101000a031916815260200191505b509250505060405180910390f35b341561086457600080fd5b61088560048080359060200190820180359060200191909192905050611b1d565b005b341561089257600080fd5b61089a611be0565b6040518080602001828103825283818151815260200191508051906020019080838360005b838110156108da5780820151818401526020810190506108bf565b50505050905090810190601f1680156109075780820380516001836020036101000a031916815260200191505b509250505060405180910390f35b341561092057600080fd5b610928611c88565b005b341561093557600080fd5b61094b6004808035906020019091905050611ef0565b604051808215151515815260200191505060405180910390f35b341561097057600080fd5b6109866004808035906020019091905050611f61565b6040518082815260200191505060405180910390f35b34156109a757600080fd5b6109af611f9a565b6040518082815260200191505060405180910390f35b34156109d057600080fd5b6109e66004808035906020019091905050611fa7565b604051808273ffffffffffffffffffffffffffffffffffffffff1673ffffffffffffffffffffffffffffffffffffffff16815260200191505060405180910390f35b3415610a3357600080fd5b610a3b611ff1565b604051808215151515815260200191505060405180910390f35b3415610a6057600080fd5b610a766004808035906020019091905050612004565b604051808273ffffffffffffffffffffffffffffffffffffffff1673ffffffffffffffffffffffffffffffffffffffff16815260200191505060405180910390f35b3415610ac357600080fd5b610ad96004808035906020019091905050612043565b604051808273ffffffffffffffffffffffffffffffffffffffff1673ffffffffffffffffffffffffffffffffffffffff16815260200191505060405180910390f35b3415610b2657600080fd5b610b47600480803590602001908201803590602001919091929050506120c0565b005b3415610b5457600080fd5b610b80600480803573ffffffffffffffffffffffffffffffffffffffff16906020019091905050612183565b6040518082815260200191505060405180910390f35b3415610ba157600080fd5b610bd6600480803590602001909190803573ffffffffffffffffffffffffffffffffffffffff16906020019091905050612207565b005b3415610be357600080fd5b610beb61252b565b005b3415610bf857600080fd5b610c19600480803590602001908201803590602001919091929050506125c2565b005b3415610c2657600080fd5b610c2e612685565b005b3415610c3b57600080fd5b610c43612746565b6040518082815260200191505060405180910390f35b3415610c6457600080fd5b610c6c612750565b604051808273ffffffffffffffffffffffffffffffffffffffff1673ffffffffffffffffffffffffffffffffffffffff16815260200191505060405180910390f35b3415610cb957600080fd5b610ccf6004808035906020019091905050612776565b6040518082815260200191505060405180910390f35b3415610cf057600080fd5b610cf86127a0565b6040518080602001828103825283818151815260200191508051906020019080838360005b83811015610d38578082015181840152602081019050610d1d565b50505050905090810190601f168015610d655780820380516001836020036101000a031916815260200191505b509250505060405180910390f35b3415610d7e57600080fd5b610daa600480803573ffffffffffffffffffffffffffffffffffffffff16906020019091905050612848565b6040518082815260200191505060405180910390f35b3415610dcb57600080fd5b610dd3612860565b6040518080602001828103825283818151815260200191508051906020019080838360005b83811015610e13578082015181840152602081019050610df8565b50505050905090810190601f168015610e405780820380516001836020036101000a031916815260200191505b509250505060405180910390f35b3415610e5957600080fd5b610e90600480803573ffffffffffffffffffffffffffffffffffffffff169060200190919080351515906020019091905050612908565b005b3415610e9d57600080fd5b610eb36004808035906020019091905050612a44565b005b3415610ec057600080fd5b610f57600480803573ffffffffffffffffffffffffffffffffffffffff1690602001909190803573ffffffffffffffffffffffffffffffffffffffff1690602001909190803590602001909190803590602001908201803590602001908080601f01602080910402602001604051908101604052809392919081815260200183838082843782019150505050505091905050612aaa565b005b3415610f6457600080fd5b610f7a6004808035906020019091905050612ae9565b604051808273ffffffffffffffffffffffffffffffffffffffff1673ffffffffffffffffffffffffffffffffffffffff16815260200191505060405180910390f35b6110416004808035906020019082018035906020019190919290803590602001908201803590602001919091929080359060200190820180359060200191909192908035906020019082018035906020019190919290803590602001908201803590602001919091929080359060200190820180359060200191909192905050612b33565b604051808373ffffffffffffffffffffffffffffffffffffffff1673ffffffffffffffffffffffffffffffffffffffff1681526020018281526020019250505060405180910390f35b341561109557600080fd5b6110ab6004808035906020019091905050612cab565b6040518080602001828103825283818151815260200191508051906020019080838360005b838110156110eb5780820151818401526020810190506110d0565b50505050905090810190601f1680156111185780820380516001836020036101000a031916815260200191505b509250505060405180910390f35b341561113157600080fd5b61115d600480803573ffffffffffffffffffffffffffffffffffffffff16906020019091905050612d7a565b6040518082815260200191505060405180910390f35b341561117e57600080fd5b611186612d92565b6040518082815260200191505060405180910390f35b34156111a757600080fd5b6111c860048080359060200190820180359060200191909192905050612d98565b005b34156111d557600080fd5b611220600480803573ffffffffffffffffffffffffffffffffffffffff1690602001909190803573ffffffffffffffffffffffffffffffffffffffff16906020019091905050612e23565b604051808215151515815260200191505060405180910390f35b341561124557600080fd5b611271600480803573ffffffffffffffffffffffffffffffffffffffff16906020019091905050612eb7565b005b341561127e57600080fd5b6112aa600480803573ffffffffffffffffffffffffffffffffffffffff1690602001909190505061300f565b005b34156112b757600080fd5b6112cd6004808035906020019091905050613084565b604051808273ffffffffffffffffffffffffffffffffffffffff1673ffffffffffffffffffffffffffffffffffffffff16815260200191505060405180910390f35b341561131a57600080fd5b611346600480803573ffffffffffffffffffffffffffffffffffffffff169060200190919050506130ce565b005b6113506142d2565b60108281548110151561135f57fe5b90600052602060002090600502016000018054600181600116156101000203166002900480601f0160208091040260200160405190810160405280929190818152602001828054600181600116156101000203166002900480156114045780601f106113d957610100808354040283529160200191611404565b820191906000526020600020905b8154815290600101906020018083116113e757829003601f168201915b50505050509050919050565b6114186142d2565b60048054600181600116156101000203166002900480601f0160208091040260200160405190810160405280929190818152602001828054600181600116156101000203166002900480156114ae5780601f10611483576101008083540402835291602001916114ae565b820191906000526020600020905b81548152906001019060200180831161149157829003601f168201915b5050505050905090565b6114c06142d2565b60148054600181600116156101000203166002900480601f0160208091040260200160405190810160405280929190818152602001828054600181600116156101000203166002900480156115565780601f1061152b57610100808354040283529160200191611556565b820191906000526020600020905b81548152906001019060200180831161153957829003601f168201915b5050505050905090565b60006001600083815260200190815260200160002060009054906101000a900473ffffffffffffffffffffffffffffffffffffffff169050919050565b60006115a882612043565b90508073ffffffffffffffffffffffffffffffffffffffff168373ffffffffffffffffffffffffffffffffffffffff16141515156115e557600080fd5b8073ffffffffffffffffffffffffffffffffffffffff163373ffffffffffffffffffffffffffffffffffffffff16148061162557506116248133612e23565b5b151561163057600080fd5b600073ffffffffffffffffffffffffffffffffffffffff1661165183611560565b73ffffffffffffffffffffffffffffffffffffffff161415806116a15750600073ffffffffffffffffffffffffffffffffffffffff168373ffffffffffffffffffffffffffffffffffffffff1614155b1561175e57826001600084815260200190815260200160002060006101000a81548173ffffffffffffffffffffffffffffffffffffffff021916908373ffffffffffffffffffffffffffffffffffffffff1602179055508273ffffffffffffffffffffffffffffffffffffffff168173ffffffffffffffffffffffffffffffffffffffff167f8c5be1e5ebec7d5bd14f71427d1e84f3dd0314c0f7b2291e5b200ac8c7c3b925846040518082815260200191505060405180910390a35b505050565b6000600880549050905090565b6000601860009054906101000a900473ffffffffffffffffffffffffffffffffffffffff16905090565b806117a5338261316e565b15156117b057600080fd5b600073ffffffffffffffffffffffffffffffffffffffff168473ffffffffffffffffffffffffffffffffffffffff16141515156117ec57600080fd5b600073ffffffffffffffffffffffffffffffffffffffff168373ffffffffffffffffffffffffffffffffffffffff161415151561182857600080fd5b6118328483613203565b61183c848361336c565b6118468383613587565b8273ffffffffffffffffffffffffffffffffffffffff168473ffffffffffffffffffffffffffffffffffffffff167fddf252ad1be2c89b69c2b068fc378daa952ba7f163c4a11628f55a4df523b3ef846040518082815260200191505060405180910390a350505050565b60006118bc83612183565b821015156118c957600080fd5b600660008473ffffffffffffffffffffffffffffffffffffffff1673ffffffffffffffffffffffffffffffffffffffff1681526020019081526020016000208281548110151561191557fe5b906000526020600020900154905092915050565b6119316142d2565b60008060008061194086611348565b61194987613084565b61195288611fa7565b61195b89612776565b6119648a612ae9565b9450945094509450945091939590929450565b600b5481565b601160009054906101000a900473ffffffffffffffffffffffffffffffffffffffff1673ffffffffffffffffffffffffffffffffffffffff163373ffffffffffffffffffffffffffffffffffffffff161415156119d957600080fd5b601560009054906101000a900460ff1615156119f457600080fd5b6000601560006101000a81548160ff0219169083151502179055507f7805862f689e2f13df9f062ff482ad3ad112aca9e0847911ed832e158c525b3360405160405180910390a1565b80611a48338261316e565b1515611a5357600080fd5b611a6f8484846020604051908101604052806000815250612aaa565b50505050565b611a7d6142d2565b60168054600181600116156101000203166002900480601f016020809104026020016040519081016040528092919081815260200182805460018160011615610100020316600290048015611b135780601f10611ae857610100808354040283529160200191611b13565b820191906000526020600020905b815481529060010190602001808311611af657829003601f168201915b5050505050905090565b601160009054906101000a900473ffffffffffffffffffffffffffffffffffffffff1673ffffffffffffffffffffffffffffffffffffffff163373ffffffffffffffffffffffffffffffffffffffff16141515611b7957600080fd5b818160129190611b8a9291906142e6565b507f97bc322e754962c4ff23eb8a9d58b147ead5be0347d9a799addc5a2d44564cbe8282604051808060200182810382528484828181526020019250808284378201915050935050505060405180910390a15050565b611be86142d2565b60138054600181600116156101000203166002900480601f016020809104026020016040519081016040528092919081815260200182805460018160011615610100020316600290048015611c7e5780601f10611c5357610100808354040283529160200191611c7e565b820191906000526020600020905b815481529060010190602001808311611c6157829003601f168201915b5050505050905090565b60008060003392506000600d60008573ffffffffffffffffffffffffffffffffffffffff1673ffffffffffffffffffffffffffffffffffffffff16815260200190815260200160002054111515611cde57600080fd5b611d0a600c543073ffffffffffffffffffffffffffffffffffffffff163161365b90919063ffffffff16565b9150611dc3600e60008573ffffffffffffffffffffffffffffffffffffffff1673ffffffffffffffffffffffffffffffffffffffff16815260200190815260200160002054611db5600b54611da7600d60008973ffffffffffffffffffffffffffffffffffffffff1673ffffffffffffffffffffffffffffffffffffffff168152602001908152602001600020548761367990919063ffffffff16565b6136b490919063ffffffff16565b6136cf90919063ffffffff16565b905060008114151515611dd557600080fd5b803073ffffffffffffffffffffffffffffffffffffffff163110151515611dfb57600080fd5b611e4d81600e60008673ffffffffffffffffffffffffffffffffffffffff1673ffffffffffffffffffffffffffffffffffffffff1681526020019081526020016000205461365b90919063ffffffff16565b600e60008573ffffffffffffffffffffffffffffffffffffffff1673ffffffffffffffffffffffffffffffffffffffff16815260200190815260200160002081905550611ea581600c5461365b90919063ffffffff16565b600c819055508273ffffffffffffffffffffffffffffffffffffffff166108fc829081150290604051600060405180830381858888f193505050501515611eeb57600080fd5b505050565b60008060008084815260200190815260200160002060009054906101000a900473ffffffffffffffffffffffffffffffffffffffff169050600073ffffffffffffffffffffffffffffffffffffffff168173ffffffffffffffffffffffffffffffffffffffff161415915050919050565b6000611f6b611763565b82101515611f7857600080fd5b600882815481101515611f8757fe5b9060005260206000209001549050919050565b6000601080549050905090565b6000601082815481101515611fb857fe5b906000526020600020906005020160020160009054906101000a900473ffffffffffffffffffffffffffffffffffffffff169050919050565b601560009054906101000a900460ff1681565b600f8181548110151561201357fe5b90600052602060002090016000915054906101000a900473ffffffffffffffffffffffffffffffffffffffff1681565b60008060008084815260200190815260200160002060009054906101000a900473ffffffffffffffffffffffffffffffffffffffff169050600073ffffffffffffffffffffffffffffffffffffffff168173ffffffffffffffffffffffffffffffffffffffff16141515156120b757600080fd5b80915050919050565b601160009054906101000a900473ffffffffffffffffffffffffffffffffffffffff1673ffffffffffffffffffffffffffffffffffffffff163373ffffffffffffffffffffffffffffffffffffffff1614151561211c57600080fd5b81816013919061212d9291906142e6565b507f6362a59ae98fef1a0a45d03a1127a82c2268ca380148117a052b9f8bce8e6f1e8282604051808060200182810382528484828181526020019250808284378201915050935050505060405180910390a15050565b60008073ffffffffffffffffffffffffffffffffffffffff168273ffffffffffffffffffffffffffffffffffffffff16141515156121c057600080fd5b600260008373ffffffffffffffffffffffffffffffffffffffff1673ffffffffffffffffffffffffffffffffffffffff168152602001908152602001600020549050919050565b6000601160009054906101000a900473ffffffffffffffffffffffffffffffffffffffff1673ffffffffffffffffffffffffffffffffffffffff163373ffffffffffffffffffffffffffffffffffffffff1614151561226557600080fd5b600f8381548110151561227457fe5b906000526020600020900160009054906101000a900473ffffffffffffffffffffffffffffffffffffffff169050600d60008273ffffffffffffffffffffffffffffffffffffffff1673ffffffffffffffffffffffffffffffffffffffff16815260200190815260200160002054600d60008473ffffffffffffffffffffffffffffffffffffffff1673ffffffffffffffffffffffffffffffffffffffff16815260200190815260200160002081905550600e60008273ffffffffffffffffffffffffffffffffffffffff1673ffffffffffffffffffffffffffffffffffffffff16815260200190815260200160002054600e60008473ffffffffffffffffffffffffffffffffffffffff1673ffffffffffffffffffffffffffffffffffffffff1681526020019081526020016000208190555081600f848154811015156123b857fe5b906000526020600020900160006101000a81548173ffffffffffffffffffffffffffffffffffffffff021916908373ffffffffffffffffffffffffffffffffffffffff160217905550600d60008273ffffffffffffffffffffffffffffffffffffffff1673ffffffffffffffffffffffffffffffffffffffff16815260200190815260200160002060009055600e60008273ffffffffffffffffffffffffffffffffffffffff1673ffffffffffffffffffffffffffffffffffffffff168152602001908152602001600020600090557fa1982f3fe3fa9dba8ce5bc91687e2ab0850b0431cddacc1a249b2ae0390b912f838284604051808481526020018373ffffffffffffffffffffffffffffffffffffffff1673ffffffffffffffffffffffffffffffffffffffff1681526020018273ffffffffffffffffffffffffffffffffffffffff1673ffffffffffffffffffffffffffffffffffffffff168152602001935050505060405180910390a1505050565b601160009054906101000a900473ffffffffffffffffffffffffffffffffffffffff1673ffffffffffffffffffffffffffffffffffffffff163373ffffffffffffffffffffffffffffffffffffffff1614151561258757600080fd5b601160009054906101000a900473ffffffffffffffffffffffffffffffffffffffff1673ffffffffffffffffffffffffffffffffffffffff16ff5b601160009054906101000a900473ffffffffffffffffffffffffffffffffffffffff1673ffffffffffffffffffffffffffffffffffffffff163373ffffffffffffffffffffffffffffffffffffffff1614151561261e57600080fd5b81816014919061262f9291906142e6565b507fcfaf57d92b1b2684731a770c593d162587ca98e9d372be876ab14b389866f0f68282604051808060200182810382528484828181526020019250808284378201915050935050505060405180910390a15050565b601160009054906101000a900473ffffffffffffffffffffffffffffffffffffffff1673ffffffffffffffffffffffffffffffffffffffff163373ffffffffffffffffffffffffffffffffffffffff161415156126e157600080fd5b601560009054906101000a900460ff161515156126fd57600080fd5b6001601560006101000a81548160ff0219169083151502179055507f6985a02210a168e66602d3235cb6db0e70f92b3ba4d376a33c0f3d9434bff62560405160405180910390a1565b6000601754905090565b601160009054906101000a900473ffffffffffffffffffffffffffffffffffffffff1681565b600060108281548110151561278757fe5b9060005260206000209060050201600301549050919050565b6127a86142d2565b60058054600181600116156101000203166002900480601f01602080910402602001604051908101604052809291908181526020018280546001816001161561010002031660029004801561283e5780601f106128135761010080835404028352916020019161283e565b820191906000526020600020905b81548152906001019060200180831161282157829003601f168201915b5050505050905090565b600e6020528060005260406000206000915090505481565b6128686142d2565b60128054600181600116156101000203166002900480601f0160208091040260200160405190810160405280929190818152602001828054600181600116156101000203166002900480156128fe5780601f106128d3576101008083540402835291602001916128fe565b820191906000526020600020905b8154815290600101906020018083116128e157829003601f168201915b5050505050905090565b3373ffffffffffffffffffffffffffffffffffffffff168273ffffffffffffffffffffffffffffffffffffffff161415151561294357600080fd5b80600360003373ffffffffffffffffffffffffffffffffffffffff1673ffffffffffffffffffffffffffffffffffffffff16815260200190815260200160002060008473ffffffffffffffffffffffffffffffffffffffff1673ffffffffffffffffffffffffffffffffffffffff16815260200190815260200160002060006101000a81548160ff0219169083151502179055508173ffffffffffffffffffffffffffffffffffffffff163373ffffffffffffffffffffffffffffffffffffffff167f17307eab39ab6107e8899845ad3d59bd9653f200f220920489ca2b5937696c3183604051808215151515815260200191505060405180910390a35050565b601160009054906101000a900473ffffffffffffffffffffffffffffffffffffffff1673ffffffffffffffffffffffffffffffffffffffff163373ffffffffffffffffffffffffffffffffffffffff16141515612aa057600080fd5b8060178190555050565b81612ab5338261316e565b1515612ac057600080fd5b612acb85858561179a565b612ad7858585856136e8565b1515612ae257600080fd5b5050505050565b6000601082815481101515612afa57fe5b906000526020600020906005020160040160009054906101000a900473ffffffffffffffffffffffffffffffffffffffff169050919050565b600080601560009054906101000a900460ff16151515612b5257600080fd5b60175434141515612b6257600080fd5b612c968e8e808060200260200160405190810160405280939291908181526020018383602002808284378201915050505050508d8d808060200260200160405190810160405280939291908181526020018383602002808284378201915050505050508c8c8080601f0160208091040260200160405190810160405280939291908181526020018383808284378201915050505050508b8b8080601f0160208091040260200160405190810160405280939291908181526020018383808284378201915050505050508a8a8080601f01602080910402602001604051908101604052809392919081815260200183838082843782019150505050505089898080601f0160208091040260200160405190810160405280939291908181526020018383808284378201915050505050506138be565b915091509c509c9a5050505050505050505050565b612cb36142d2565b612cbc82611ef0565b1515612cc757600080fd5b600a60008381526020019081526020016000208054600181600116156101000203166002900480601f016020809104026020016040519081016040528092919081815260200182805460018160011615610100020316600290048015612d6e5780601f10612d4357610100808354040283529160200191612d6e565b820191906000526020600020905b815481529060010190602001808311612d5157829003601f168201915b50505050509050919050565b600d6020528060005260406000206000915090505481565b600c5481565b6000601160009054906101000a900473ffffffffffffffffffffffffffffffffffffffff1673ffffffffffffffffffffffffffffffffffffffff163373ffffffffffffffffffffffffffffffffffffffff16141515612df657600080fd5b82829050905060808111151515612e0c57600080fd5b828260169190612e1d9291906142e6565b50505050565b6000600360008473ffffffffffffffffffffffffffffffffffffffff1673ffffffffffffffffffffffffffffffffffffffff16815260200190815260200160002060008373ffffffffffffffffffffffffffffffffffffffff1673ffffffffffffffffffffffffffffffffffffffff16815260200190815260200160002060009054906101000a900460ff16905092915050565b601160009054906101000a900473ffffffffffffffffffffffffffffffffffffffff1673ffffffffffffffffffffffffffffffffffffffff163373ffffffffffffffffffffffffffffffffffffffff16141515612f1357600080fd5b600073ffffffffffffffffffffffffffffffffffffffff168173ffffffffffffffffffffffffffffffffffffffff1614151515612f4f57600080fd5b8073ffffffffffffffffffffffffffffffffffffffff16601160009054906101000a900473ffffffffffffffffffffffffffffffffffffffff1673ffffffffffffffffffffffffffffffffffffffff167f8be0079c531659141344cd1fd0a4f28419497f9722a3daafe3b4186f6b6457e060405160405180910390a380601160006101000a81548173ffffffffffffffffffffffffffffffffffffffff021916908373ffffffffffffffffffffffffffffffffffffffff16021790555050565b601160009054906101000a900473ffffffffffffffffffffffffffffffffffffffff1673ffffffffffffffffffffffffffffffffffffffff163373ffffffffffffffffffffffffffffffffffffffff1614151561306b57600080fd5b8073ffffffffffffffffffffffffffffffffffffffff16ff5b600060108281548110151561309557fe5b906000526020600020906005020160010160009054906101000a900473ffffffffffffffffffffffffffffffffffffffff169050919050565b601160009054906101000a900473ffffffffffffffffffffffffffffffffffffffff1673ffffffffffffffffffffffffffffffffffffffff163373ffffffffffffffffffffffffffffffffffffffff1614151561312a57600080fd5b80601860006101000a81548173ffffffffffffffffffffffffffffffffffffffff021916908373ffffffffffffffffffffffffffffffffffffffff16021790555050565b60008061317a83612043565b90508073ffffffffffffffffffffffffffffffffffffffff168473ffffffffffffffffffffffffffffffffffffffff1614806131e957508373ffffffffffffffffffffffffffffffffffffffff166131d184611560565b73ffffffffffffffffffffffffffffffffffffffff16145b806131fa57506131f98185612e23565b5b91505092915050565b8173ffffffffffffffffffffffffffffffffffffffff1661322382612043565b73ffffffffffffffffffffffffffffffffffffffff1614151561324557600080fd5b600073ffffffffffffffffffffffffffffffffffffffff166001600083815260200190815260200160002060009054906101000a900473ffffffffffffffffffffffffffffffffffffffff1673ffffffffffffffffffffffffffffffffffffffff161415156133685760006001600083815260200190815260200160002060006101000a81548173ffffffffffffffffffffffffffffffffffffffff021916908373ffffffffffffffffffffffffffffffffffffffff160217905550600073ffffffffffffffffffffffffffffffffffffffff168273ffffffffffffffffffffffffffffffffffffffff167f8c5be1e5ebec7d5bd14f71427d1e84f3dd0314c0f7b2291e5b200ac8c7c3b925836040518082815260200191505060405180910390a35b5050565b600080600061337b8585613f35565b600760008581526020019081526020016000205492506133e76001600660008873ffffffffffffffffffffffffffffffffffffffff1673ffffffffffffffffffffffffffffffffffffffff168152602001908152602001600020805490506136cf90919063ffffffff16565b9150600660008673ffffffffffffffffffffffffffffffffffffffff1673ffffffffffffffffffffffffffffffffffffffff1681526020019081526020016000208281548110151561343557fe5b906000526020600020900154905080600660008773ffffffffffffffffffffffffffffffffffffffff1673ffffffffffffffffffffffffffffffffffffffff1681526020019081526020016000208481548110151561349057fe5b9060005260206000209001819055506000600660008773ffffffffffffffffffffffffffffffffffffffff1673ffffffffffffffffffffffffffffffffffffffff168152602001908152602001600020838154811015156134ed57fe5b906000526020600020900181905550600660008673ffffffffffffffffffffffffffffffffffffffff1673ffffffffffffffffffffffffffffffffffffffff16815260200190815260200160002080548091906001900361354e9190614366565b50600060076000868152602001908152602001600020819055508260076000838152602001908152602001600020819055505050505050565b60006135938383614063565b600660008473ffffffffffffffffffffffffffffffffffffffff1673ffffffffffffffffffffffffffffffffffffffff168152602001908152602001600020805490509050600660008473ffffffffffffffffffffffffffffffffffffffff1673ffffffffffffffffffffffffffffffffffffffff16815260200190815260200160002080548060010182816136299190614392565b916000526020600020900160008490919091505550806007600084815260200190815260200160002081905550505050565b600080828401905083811015151561366f57fe5b8091505092915050565b600080600084141561368e57600091506136ad565b828402905082848281151561369f57fe5b041415156136a957fe5b8091505b5092915050565b60008082848115156136c257fe5b0490508091505092915050565b60008282111515156136dd57fe5b818303905092915050565b60008061370a8573ffffffffffffffffffffffffffffffffffffffff166141bb565b151561371957600191506138b5565b8473ffffffffffffffffffffffffffffffffffffffff1663f0b9e5ba8786866000604051602001526040518463ffffffff167c0100000000000000000000000000000000000000000000000000000000028152600401808473ffffffffffffffffffffffffffffffffffffffff1673ffffffffffffffffffffffffffffffffffffffff16815260200183815260200180602001828103825283818151815260200191508051906020019080838360005b838110156137e45780820151818401526020810190506137c9565b50505050905090810190601f1680156138115780820380516001836020036101000a031916815260200191505b50945050505050602060405180830381600087803b151561383157600080fd5b6102c65a03f1151561384257600080fd5b50505060405180519050905063f0b9e5ba7c0100000000000000000000000000000000000000000000000000000000027bffffffffffffffffffffffffffffffffffffffffffffffffffffffff1916817bffffffffffffffffffffffffffffffffffffffffffffffffffffffff19161491505b50949350505050565b60008060006138cb6143be565b6000601860009054906101000a900473ffffffffffffffffffffffffffffffffffffffff1673ffffffffffffffffffffffffffffffffffffffff166347c21a3c8c8c8c8c8c8c6000604051602001526040518763ffffffff167c01000000000000000000000000000000000000000000000000000000000281526004018080602001806020018060200180602001806020018060200187810387528d818151815260200191508051906020019060200280838360005b8381101561399c578082015181840152602081019050613981565b5050505090500187810386528c818151815260200191508051906020019060200280838360005b838110156139de5780820151818401526020810190506139c3565b5050505090500187810385528b818151815260200191508051906020019080838360005b83811015613a1d578082015181840152602081019050613a02565b50505050905090810190601f168015613a4a5780820380516001836020036101000a031916815260200191505b5087810384528a818151815260200191508051906020019080838360005b83811015613a83578082015181840152602081019050613a68565b50505050905090810190601f168015613ab05780820380516001836020036101000a031916815260200191505b50878103835289818151815260200191508051906020019080838360005b83811015613ae9578082015181840152602081019050613ace565b50505050905090810190601f168015613b165780820380516001836020036101000a031916815260200191505b50878103825288818151815260200191508051906020019080838360005b83811015613b4f578082015181840152602081019050613b34565b50505050905090810190601f168015613b7c5780820380516001836020036101000a031916815260200191505b509c50505050505050505050505050602060405180830381600087803b1515613ba457600080fd5b6102c65a03f11515613bb557600080fd5b5050506040518051905092508273ffffffffffffffffffffffffffffffffffffffff1663f2fde38b336040518263ffffffff167c0100000000000000000000000000000000000000000000000000000000028152600401808273ffffffffffffffffffffffffffffffffffffffff1673ffffffffffffffffffffffffffffffffffffffff168152602001915050600060405180830381600087803b1515613c5b57600080fd5b6102c65a03f11515613c6c57600080fd5b50505060a0604051908101604052808a81526020018473ffffffffffffffffffffffffffffffffffffffff1681526020013373ffffffffffffffffffffffffffffffffffffffff1681526020014281526020013373ffffffffffffffffffffffffffffffffffffffff168152509150600160108054806001018281613cf19190614436565b916000526020600020906005020160008590919091506000820151816000019080519060200190613d23929190614468565b5060208201518160010160006101000a81548173ffffffffffffffffffffffffffffffffffffffff021916908373ffffffffffffffffffffffffffffffffffffffff16021790555060408201518160020160006101000a81548173ffffffffffffffffffffffffffffffffffffffff021916908373ffffffffffffffffffffffffffffffffffffffff1602179055506060820151816003015560808201518160040160006101000a81548173ffffffffffffffffffffffffffffffffffffffff021916908373ffffffffffffffffffffffffffffffffffffffff1602179055505050039050613e1233826141ce565b7fd98034e5da8b5718635c8cce4df2965d7cbeeb60f90d84a427442fc79497cb838984338460405180806020018573ffffffffffffffffffffffffffffffffffffffff1673ffffffffffffffffffffffffffffffffffffffff1681526020018473ffffffffffffffffffffffffffffffffffffffff1673ffffffffffffffffffffffffffffffffffffffff168152602001838152602001828103825286818151815260200191508051906020019080838360005b83811015613ee1578082015181840152602081019050613ec6565b50505050905090810190601f168015613f0e5780820380516001836020036101000a031916815260200191505b509550505050505060405180910390a1828181915094509450505050965096945050505050565b8173ffffffffffffffffffffffffffffffffffffffff16613f5582612043565b73ffffffffffffffffffffffffffffffffffffffff16141515613f7757600080fd5b613fca6001600260008573ffffffffffffffffffffffffffffffffffffffff1673ffffffffffffffffffffffffffffffffffffffff168152602001908152602001600020546136cf90919063ffffffff16565b600260008473ffffffffffffffffffffffffffffffffffffffff1673ffffffffffffffffffffffffffffffffffffffff16815260200190815260200160002081905550600080600083815260200190815260200160002060006101000a81548173ffffffffffffffffffffffffffffffffffffffff021916908373ffffffffffffffffffffffffffffffffffffffff1602179055505050565b600073ffffffffffffffffffffffffffffffffffffffff1660008083815260200190815260200160002060009054906101000a900473ffffffffffffffffffffffffffffffffffffffff1673ffffffffffffffffffffffffffffffffffffffff161415156140d057600080fd5b8160008083815260200190815260200160002060006101000a81548173ffffffffffffffffffffffffffffffffffffffff021916908373ffffffffffffffffffffffffffffffffffffffff1602179055506141746001600260008573ffffffffffffffffffffffffffffffffffffffff1673ffffffffffffffffffffffffffffffffffffffff1681526020019081526020016000205461365b90919063ffffffff16565b600260008473ffffffffffffffffffffffffffffffffffffffff1673ffffffffffffffffffffffffffffffffffffffff168152602001908152602001600020819055505050565b600080823b905060008111915050919050565b6141d88282614222565b6008805490506009600083815260200190815260200160002081905550600880548060010182816142099190614392565b9160005260206000209001600083909190915055505050565b600073ffffffffffffffffffffffffffffffffffffffff168273ffffffffffffffffffffffffffffffffffffffff161415151561425e57600080fd5b6142688282613587565b8173ffffffffffffffffffffffffffffffffffffffff16600073ffffffffffffffffffffffffffffffffffffffff167fddf252ad1be2c89b69c2b068fc378daa952ba7f163c4a11628f55a4df523b3ef836040518082815260200191505060405180910390a35050565b602060405190810160405280600081525090565b828054600181600116156101000203166002900490600052602060002090601f016020900481019282601f1061432757803560ff1916838001178555614355565b82800160010185558215614355579182015b82811115614354578235825591602001919060010190614339565b5b50905061436291906144e8565b5090565b81548183558181151161438d5781836000526020600020918201910161438c91906144e8565b5b505050565b8154818355818115116143b9578183600052602060002091820191016143b891906144e8565b5b505050565b60a0604051908101604052806143d261450d565b8152602001600073ffffffffffffffffffffffffffffffffffffffff168152602001600073ffffffffffffffffffffffffffffffffffffffff16815260200160008152602001600073ffffffffffffffffffffffffffffffffffffffff1681525090565b815481835581811511614463576005028160050283600052602060002091820191016144629190614521565b5b505050565b828054600181600116156101000203166002900490600052602060002090601f016020900481019282601f106144a957805160ff19168380011785556144d7565b828001600101855582156144d7579182015b828111156144d65782518255916020019190600101906144bb565b5b5090506144e491906144e8565b5090565b61450a91905b808211156145065760008160009055506001016144ee565b5090565b90565b602060405190810160405280600081525090565b6145ca91905b808211156145c6576000808201600061454091906145cd565b6001820160006101000a81549073ffffffffffffffffffffffffffffffffffffffff02191690556002820160006101000a81549073ffffffffffffffffffffffffffffffffffffffff021916905560038201600090556004820160006101000a81549073ffffffffffffffffffffffffffffffffffffffff021916905550600501614527565b5090565b90565b50805460018160011615610100020316600290046000825580601f106145f35750614612565b601f01602090049060005260206000209081019061461191906144e8565b5b50565b600073ffffffffffffffffffffffffffffffffffffffff168273ffffffffffffffffffffffffffffffffffffffff161415151561465157600080fd5b60008111151561466057600080fd5b6000600d60008473ffffffffffffffffffffffffffffffffffffffff1673ffffffffffffffffffffffffffffffffffffffff168152602001908152602001600020541415156146ae57600080fd5b600f80548060010182816146c29190614774565b9160005260206000209001600084909190916101000a81548173ffffffffffffffffffffffffffffffffffffffff021916908373ffffffffffffffffffffffffffffffffffffffff1602179055505080600d60008473ffffffffffffffffffffffffffffffffffffffff1673ffffffffffffffffffffffffffffffffffffffff1681526020019081526020016000208190555061476a81600b5461365b90919063ffffffff16565b600b819055505050565b81548183558181151161479b5781836000526020600020918201910161479a91906144e8565b5b5050505600a165627a7a7230582099085a130cceca835bb586d7184d27168b1e49f47e176606f4a8ca0d56e9cd760029",
  "source": "pragma solidity ^0.4.19;\n\nimport \"zeppelin-solidity/contracts/math/SafeMath.sol\";\nimport \"zeppelin-solidity/contracts/AddressUtils.sol\";\nimport \"zeppelin-solidity/contracts/token/ERC721/ERC721Token.sol\";\nimport \"../common/SplitPaymentChangeable.sol\";\nimport \"./ChaingearCore.sol\";\nimport \"../registry/Registry.sol\";\n\n\ncontract Chaingear is ERC721Token, SplitPaymentChangeable, ChaingearCore {\n\n    using SafeMath for uint256;\n    using AddressUtils for address;\n\n    function Chaingear(\n        RegistryCreator _creator,\n        address[] _benefitiaries,\n        uint256[] _shares,\n        string _description,\n        uint _registrationFee,\n        string _chaingearName,\n        string _chaingearSymbol\n    )\n        SplitPaymentChangeable(_benefitiaries, _shares)\n        ERC721Token(_chaingearName, _chaingearSymbol)\n        public\n        payable\n    {\n        registryRegistrationFee_ = _registrationFee;\n        chaingearDescription_ = _description;\n        creator_ = _creator;\n    }\n\n\n    function registerRegistry(\n        address[] _benefitiaries,\n        uint256[] _shares,\n        string _name,\n        string _symbol,\n        string _linkToABIOfEntriesContract,\n        bytes _bytecodeOfEntriesContract\n    )\n        external\n        payable\n        whenNotPaused\n        returns (address registryAddress, uint256 registryID)\n    {\n        require(msg.value == registryRegistrationFee_);\n\n        /* Registry newRegistryContract = creator_.create(\n            _benefitiaries,\n            _shares,\n            _name,\n            _symbol,\n            _linkToABIOfEntriesContract,\n            _bytecodeOfEntriesContract\n        );\n        newRegistryContract.transferOwnership(msg.sender);  */\n        return createRegistry(\n            _benefitiaries,\n            _shares,\n            _name,\n            _symbol,\n            _linkToABIOfEntriesContract,\n            _bytecodeOfEntriesContract\n        );\n\n        /* uint256 newRegistryID = addToRegistries(\n            _name,\n            newRegistryContract,\n            _linkToABIOfRegistryContract\n        ); */\n        /* _mint(msg.sender, registryID); */\n\n        /* return (\n            registryAddress,\n            registryID\n        ); */\n    }\n\n    function createRegistry(\n        address[] _benefitiaries,\n        uint256[] _shares,\n        string _name,\n        string _symbol,\n        string _linkToABIOfEntriesContract,\n        bytes _bytecodeOfEntriesContract\n    )\n        internal\n        returns (address newRegistryContract, uint256 newRegistryID)\n    {\n        Registry registryContract = creator_.create(\n            _benefitiaries,\n            _shares,\n            _name,\n            _symbol,\n            _linkToABIOfEntriesContract,\n            _bytecodeOfEntriesContract\n        );\n        registryContract.transferOwnership(msg.sender); //?'\n\n        RegistryMeta memory registry = (RegistryMeta(\n        {\n            name: _name,\n            contractAddress: registryContract,\n            creator: msg.sender,\n            /* linkABI: _linkToABIOfRegistryContract, */\n            registrationTimestamp: block.timestamp,\n            owner: msg.sender\n        }));\n        uint256 registryID = registries.push(registry) - 1;\n        _mint(msg.sender, registryID);\n        RegistryRegistered(_name, registryContract, msg.sender, registryID);\n\n        return (registryContract, registryID);\n    }\n\n    /* function addToRegistries(\n        string _name,\n        Registry _newRegistryContract,\n        string _linkToABIOfRegistryContract\n    )\n        internal\n        returns (uint256 registryID)\n    {\n        RegistryMeta memory registry = (RegistryMeta(\n        {\n            name: _name,\n            contractAddress: _newRegistryContract,\n            creator: msg.sender,\n            linkABI: _linkToABIOfRegistryContract,\n            registrationTimestamp: block.timestamp,\n            owner: msg.sender\n        }));\n        uint256 newRegistryID = registries.push(registry) - 1;\n\n        return newRegistryID;\n    } */\n\n    // function unregisterRegistry(uint256 _registryID)\n    //     external\n    //     whenNotPaused\n    // {\n    //     require (ERC721BasicToken.ownerOf(_registryID) == msg.sender);\n    //     address registryAddress = registries[_registryID].contractAddress;\n\n    //     ChaingearRegistrable registryContract = ChaingearRegistrable(registryAddress);\n    //     require(registryContract.owner() == msg.sender);\n    //     require(registryContract.setChaingearMode(msg.sender, false) == false);\n\n    //     string storage registryName = registries[_registryID].name;\n    //     uint256 registryIndex = allTokensIndex[_registryID];\n    //     uint256 lastRegistryIndex = registries.length.sub(1);\n    //     Registry storage lastRegistry = registries[lastRegistryIndex];\n\n    //     registries[registryIndex] = lastRegistry;\n    //     delete registries[lastRegistryIndex];\n    //     registries.length--;\n\n    //     super._burn(msg.sender, _registryID);\n\n    //     //rethink this event\n    //     RegistryUnregistered(msg.sender, registryName);\n    // }\n\n    // function updateRegistryOwnership(uint256 _registryID, address _newOwner)\n    //     external\n    //     whenNotPaused\n    // {\n    //     require (ERC721BasicToken.ownerOf(_registryID) == msg.sender);\n\n    //     address registryAddress = registries[_registryID].contractAddress;\n    //     ChaingearRegistrable registryContract = ChaingearRegistrable(registryAddress);\n\n    //     require(registryContract.owner() == msg.sender);\n    //     require(registryContract.transferTokenizedOnwerhip(msg.sender, _newOwner) == true);\n    //     require(registryContract.owner() == _newOwner);\n\n    //     string storage registryName = registries[_registryID].name;\n    //     registries[_registryID].owner = _newOwner;\n\n    //     super.removeTokenFrom(msg.sender, _registryID);\n    //     super.addTokenTo(_newOwner, _registryID);\n\n    //     RegistryTransferred(msg.sender, registryName, _newOwner);\n    // }\n}\n",
  "sourcePath": "/Users/litvintech/Projects/chaingear/contracts/chaingear/Chaingear.sol",
  "compiler": {
    "name": "solc",
    "version": "0.4.19+commit.c4cbbb05.Emscripten.clang"
  },
  "schemaVersion": "1.0.1",
  "updatedAt": "2018-04-19T16:07:50.101Z"
}