{
  "contractName": "Chaingeareable",
  "abi": [
    {
      "constant": false,
      "inputs": [
        {
          "name": "_permissionTypeEntries",
          "type": "uint256"
        }
      ],
      "name": "updatePermissionTypeEntries",
      "outputs": [],
      "payable": false,
      "stateMutability": "nonpayable",
      "type": "function"
    },
    {
      "constant": true,
      "inputs": [],
      "name": "permissionsTypeEntries",
      "outputs": [
        {
          "name": "",
          "type": "uint8"
        }
      ],
      "payable": false,
      "stateMutability": "view",
      "type": "function"
    },
    {
      "constant": false,
      "inputs": [],
      "name": "unpause",
      "outputs": [],
      "payable": false,
      "stateMutability": "nonpayable",
      "type": "function"
    },
    {
      "constant": true,
      "inputs": [],
      "name": "paused",
      "outputs": [
        {
          "name": "",
          "type": "bool"
        }
      ],
      "payable": false,
      "stateMutability": "view",
      "type": "function"
    },
    {
      "constant": false,
      "inputs": [],
      "name": "destroy",
      "outputs": [],
      "payable": false,
      "stateMutability": "nonpayable",
      "type": "function"
    },
    {
      "constant": false,
      "inputs": [],
      "name": "pause",
      "outputs": [],
      "payable": false,
      "stateMutability": "nonpayable",
      "type": "function"
    },
    {
      "constant": true,
      "inputs": [],
      "name": "owner",
      "outputs": [
        {
          "name": "",
          "type": "address"
        }
      ],
      "payable": false,
      "stateMutability": "view",
      "type": "function"
    },
    {
      "constant": true,
      "inputs": [],
      "name": "registryOwner",
      "outputs": [
        {
          "name": "",
          "type": "address"
        }
      ],
      "payable": false,
      "stateMutability": "view",
      "type": "function"
    },
    {
      "constant": false,
      "inputs": [
        {
          "name": "newOwner",
          "type": "address"
        }
      ],
      "name": "transferOwnership",
      "outputs": [],
      "payable": false,
      "stateMutability": "nonpayable",
      "type": "function"
    },
    {
      "constant": false,
      "inputs": [
        {
          "name": "_recipient",
          "type": "address"
        }
      ],
      "name": "destroyAndSend",
      "outputs": [],
      "payable": false,
      "stateMutability": "nonpayable",
      "type": "function"
    },
    {
      "anonymous": false,
      "inputs": [
        {
          "indexed": false,
          "name": "creator",
          "type": "address"
        },
        {
          "indexed": false,
          "name": "entryId",
          "type": "uint256"
        }
      ],
      "name": "EntryCreated",
      "type": "event"
    },
    {
      "anonymous": false,
      "inputs": [
        {
          "indexed": false,
          "name": "entryId",
          "type": "uint256"
        },
        {
          "indexed": false,
          "name": "newOwner",
          "type": "address"
        }
      ],
      "name": "EntryChangedOwner",
      "type": "event"
    },
    {
      "anonymous": false,
      "inputs": [
        {
          "indexed": false,
          "name": "owner",
          "type": "address"
        },
        {
          "indexed": false,
          "name": "entryId",
          "type": "uint256"
        }
      ],
      "name": "EntryDeleted",
      "type": "event"
    },
    {
      "anonymous": false,
      "inputs": [
        {
          "indexed": false,
          "name": "entryId",
          "type": "uint256"
        },
        {
          "indexed": false,
          "name": "funder",
          "type": "address"
        }
      ],
      "name": "EntryFunded",
      "type": "event"
    },
    {
      "anonymous": false,
      "inputs": [
        {
          "indexed": false,
          "name": "entryId",
          "type": "uint256"
        },
        {
          "indexed": false,
          "name": "owner",
          "type": "address"
        },
        {
          "indexed": false,
          "name": "amount",
          "type": "uint256"
        }
      ],
      "name": "EntryFundsClaimed",
      "type": "event"
    },
    {
      "anonymous": false,
      "inputs": [],
      "name": "Pause",
      "type": "event"
    },
    {
      "anonymous": false,
      "inputs": [],
      "name": "Unpause",
      "type": "event"
    },
    {
      "anonymous": false,
      "inputs": [
        {
          "indexed": true,
          "name": "previousOwner",
          "type": "address"
        },
        {
          "indexed": true,
          "name": "newOwner",
          "type": "address"
        }
      ],
      "name": "OwnershipTransferred",
      "type": "event"
    },
    {
      "constant": true,
      "inputs": [],
      "name": "entryBase",
      "outputs": [
        {
          "name": "",
          "type": "address"
        }
      ],
      "payable": false,
      "stateMutability": "view",
      "type": "function"
    },
    {
      "constant": true,
      "inputs": [],
      "name": "ABIOfEntriesContract",
      "outputs": [
        {
          "name": "",
          "type": "string"
        }
      ],
      "payable": false,
      "stateMutability": "view",
      "type": "function"
    },
    {
      "constant": true,
      "inputs": [],
      "name": "registryBalance",
      "outputs": [
        {
          "name": "",
          "type": "uint256"
        }
      ],
      "payable": false,
      "stateMutability": "view",
      "type": "function"
    },
    {
      "constant": true,
      "inputs": [],
      "name": "entryCreationFee",
      "outputs": [
        {
          "name": "",
          "type": "uint256"
        }
      ],
      "payable": false,
      "stateMutability": "view",
      "type": "function"
    },
    {
      "constant": true,
      "inputs": [],
      "name": "registryName",
      "outputs": [
        {
          "name": "",
          "type": "string"
        }
      ],
      "payable": false,
      "stateMutability": "view",
      "type": "function"
    },
    {
      "constant": true,
      "inputs": [],
      "name": "registryDescription",
      "outputs": [
        {
          "name": "",
          "type": "string"
        }
      ],
      "payable": false,
      "stateMutability": "view",
      "type": "function"
    },
    {
      "constant": true,
      "inputs": [],
      "name": "registryTags",
      "outputs": [
        {
          "name": "",
          "type": "bytes32[]"
        }
      ],
      "payable": false,
      "stateMutability": "view",
      "type": "function"
    },
    {
      "constant": false,
      "inputs": [
        {
          "name": "_fee",
          "type": "uint256"
        }
      ],
      "name": "updateEntryCreationFee",
      "outputs": [],
      "payable": false,
      "stateMutability": "nonpayable",
      "type": "function"
    },
    {
      "constant": false,
      "inputs": [
        {
          "name": "_registryName",
          "type": "string"
        }
      ],
      "name": "updateRegistryName",
      "outputs": [],
      "payable": false,
      "stateMutability": "nonpayable",
      "type": "function"
    },
    {
      "constant": false,
      "inputs": [
        {
          "name": "_registryDescription",
          "type": "string"
        }
      ],
      "name": "updateRegistryDescription",
      "outputs": [],
      "payable": false,
      "stateMutability": "nonpayable",
      "type": "function"
    },
    {
      "constant": false,
      "inputs": [
        {
          "name": "_tag",
          "type": "bytes32"
        }
      ],
      "name": "addRegistryTag",
      "outputs": [],
      "payable": false,
      "stateMutability": "nonpayable",
      "type": "function"
    },
    {
      "constant": false,
      "inputs": [
        {
          "name": "_index",
          "type": "uint256"
        },
        {
          "name": "_tag",
          "type": "bytes32"
        }
      ],
      "name": "updateRegistryTag",
      "outputs": [],
      "payable": false,
      "stateMutability": "nonpayable",
      "type": "function"
    },
    {
      "constant": false,
      "inputs": [
        {
          "name": "_index",
          "type": "uint256"
        },
        {
          "name": "_tag",
          "type": "bytes32"
        }
      ],
      "name": "removeRegistryTag",
      "outputs": [],
      "payable": false,
      "stateMutability": "nonpayable",
      "type": "function"
    },
    {
      "constant": true,
      "inputs": [],
      "name": "registrySafe",
      "outputs": [
        {
          "name": "",
          "type": "address"
        }
      ],
      "payable": false,
      "stateMutability": "view",
      "type": "function"
    }
  ],
  "bytecode": "0x606060405260008060146101000a81548160ff021916908315150217905550336000806101000a81548173ffffffffffffffffffffffffffffffffffffffff021916908373ffffffffffffffffffffffffffffffffffffffff16021790555032600160006101000a81548173ffffffffffffffffffffffffffffffffffffffff021916908373ffffffffffffffffffffffffffffffffffffffff160217905550611444806100ae6000396000f30060606040526004361061013e576000357c0100000000000000000000000000000000000000000000000000000000900463ffffffff1680631654d16914610143578063189efc7c146101d157806327f5f1b6146101f8578063351c6bbe1461021b5780633a1a3d95146102525780633f4ba83a1461027b57806341c39e5c14610290578063490a08eb1461031e5780635c975abb146103ac57806368b34562146103d957806383197ef0146104025780638456cb59146104175780638da5cb5b1461042c578063a1f14b2714610481578063aef10f08146104af578063bc044e1814610504578063bf3fde3314610534578063c81225eb14610589578063d24f7076146105b7578063dc5853c7146105da578063e59f0cc21461062f578063f2fde38b1461065f578063f5074f4114610698578063f5ec4e50146106d1575b600080fd5b341561014e57600080fd5b61015661073b565b6040518080602001828103825283818151815260200191508051906020019080838360005b8381101561019657808201518184015260208101905061017b565b50505050905090810190601f1680156101c35780820380516001836020036101000a031916815260200191505b509250505060405180910390f35b34156101dc57600080fd5b6101f66004808035600019169060200190919050506107e3565b005b341561020357600080fd5b6102196004808035906020019091905050610885565b005b341561022657600080fd5b61022e61092c565b6040518082600281111561023e57fe5b60ff16815260200191505060405180910390f35b341561025d57600080fd5b610265610943565b6040518082815260200191505060405180910390f35b341561028657600080fd5b61028e61094d565b005b341561029b57600080fd5b6102a3610a0b565b6040518080602001828103825283818151815260200191508051906020019080838360005b838110156102e35780820151818401526020810190506102c8565b50505050905090810190601f1680156103105780820380516001836020036101000a031916815260200191505b509250505060405180910390f35b341561032957600080fd5b610331610ab3565b6040518080602001828103825283818151815260200191508051906020019080838360005b83811015610371578082015181840152602081019050610356565b50505050905090810190601f16801561039e5780820380516001836020036101000a031916815260200191505b509250505060405180910390f35b34156103b757600080fd5b6103bf610b5b565b604051808215151515815260200191505060405180910390f35b34156103e457600080fd5b6103ec610b6e565b6040518082815260200191505060405180910390f35b341561040d57600080fd5b610415610b8d565b005b341561042257600080fd5b61042a610c22565b005b341561043757600080fd5b61043f610ce2565b604051808273ffffffffffffffffffffffffffffffffffffffff1673ffffffffffffffffffffffffffffffffffffffff16815260200191505060405180910390f35b341561048c57600080fd5b6104ad60048080359060200190820180359060200191909192905050610d07565b005b34156104ba57600080fd5b6104c2610d93565b604051808273ffffffffffffffffffffffffffffffffffffffff1673ffffffffffffffffffffffffffffffffffffffff16815260200191505060405180910390f35b341561050f57600080fd5b610532600480803590602001909190803560001916906020019091905050610dbd565b005b341561053f57600080fd5b610547610ebb565b604051808273ffffffffffffffffffffffffffffffffffffffff1673ffffffffffffffffffffffffffffffffffffffff16815260200191505060405180910390f35b341561059457600080fd5b6105b560048080359060200190820180359060200191909192905050610ee5565b005b34156105c257600080fd5b6105d86004808035906020019091905050610f7c565b005b34156105e557600080fd5b6105ed610fe2565b604051808273ffffffffffffffffffffffffffffffffffffffff1673ffffffffffffffffffffffffffffffffffffffff16815260200191505060405180910390f35b341561063a57600080fd5b61065d60048080359060200190919080356000191690602001909190505061100c565b005b341561066a57600080fd5b610696600480803573ffffffffffffffffffffffffffffffffffffffff169060200190919050506110a3565b005b34156106a357600080fd5b6106cf600480803573ffffffffffffffffffffffffffffffffffffffff169060200190919050506111f8565b005b34156106dc57600080fd5b6106e461126c565b6040518080602001828103825283818151815260200191508051906020019060200280838360005b8381101561072757808201518184015260208101905061070c565b505050509050019250505060405180910390f35b6107436112ce565b60038054600181600116156101000203166002900480601f0160208091040260200160405190810160405280929190818152602001828054600181600116156101000203166002900480156107d95780601f106107ae576101008083540402835291602001916107d9565b820191906000526020600020905b8154815290600101906020018083116107bc57829003601f168201915b5050505050905090565b600160009054906101000a900473ffffffffffffffffffffffffffffffffffffffff1673ffffffffffffffffffffffffffffffffffffffff163373ffffffffffffffffffffffffffffffffffffffff1614151561083f57600080fd5b6010602060ff161115151561085357600080fd5b6005805480600101828161086791906112e2565b91600052602060002090016000839091909150906000191690555050565b600160009054906101000a900473ffffffffffffffffffffffffffffffffffffffff1673ffffffffffffffffffffffffffffffffffffffff163373ffffffffffffffffffffffffffffffffffffffff161415156108e157600080fd5b806002808111156108ee57fe5b101515156108fb57600080fd5b80600281111561090757fe5b600160146101000a81548160ff0219169083600281111561092457fe5b021790555050565b6000600160149054906101000a900460ff16905090565b6000600254905090565b6000809054906101000a900473ffffffffffffffffffffffffffffffffffffffff1673ffffffffffffffffffffffffffffffffffffffff163373ffffffffffffffffffffffffffffffffffffffff161415156109a857600080fd5b600060149054906101000a900460ff1615156109c357600080fd5b60008060146101000a81548160ff0219169083151502179055507f7805862f689e2f13df9f062ff482ad3ad112aca9e0847911ed832e158c525b3360405160405180910390a1565b610a136112ce565b60048054600181600116156101000203166002900480601f016020809104026020016040519081016040528092919081815260200182805460018160011615610100020316600290048015610aa95780601f10610a7e57610100808354040283529160200191610aa9565b820191906000526020600020905b815481529060010190602001808311610a8c57829003601f168201915b5050505050905090565b610abb6112ce565b60078054600181600116156101000203166002900480601f016020809104026020016040519081016040528092919081815260200182805460018160011615610100020316600290048015610b515780601f10610b2657610100808354040283529160200191610b51565b820191906000526020600020905b815481529060010190602001808311610b3457829003601f168201915b5050505050905090565b600060149054906101000a900460ff1681565b60003073ffffffffffffffffffffffffffffffffffffffff1631905090565b6000809054906101000a900473ffffffffffffffffffffffffffffffffffffffff1673ffffffffffffffffffffffffffffffffffffffff163373ffffffffffffffffffffffffffffffffffffffff16141515610be857600080fd5b6000809054906101000a900473ffffffffffffffffffffffffffffffffffffffff1673ffffffffffffffffffffffffffffffffffffffff16ff5b6000809054906101000a900473ffffffffffffffffffffffffffffffffffffffff1673ffffffffffffffffffffffffffffffffffffffff163373ffffffffffffffffffffffffffffffffffffffff16141515610c7d57600080fd5b600060149054906101000a900460ff16151515610c9957600080fd5b6001600060146101000a81548160ff0219169083151502179055507f6985a02210a168e66602d3235cb6db0e70f92b3ba4d376a33c0f3d9434bff62560405160405180910390a1565b6000809054906101000a900473ffffffffffffffffffffffffffffffffffffffff1681565b6000600160009054906101000a900473ffffffffffffffffffffffffffffffffffffffff1673ffffffffffffffffffffffffffffffffffffffff163373ffffffffffffffffffffffffffffffffffffffff16141515610d6557600080fd5b8282905090506101008111151515610d7c57600080fd5b828260049190610d8d92919061130e565b50505050565b6000600860009054906101000a900473ffffffffffffffffffffffffffffffffffffffff16905090565b600080600160009054906101000a900473ffffffffffffffffffffffffffffffffffffffff1673ffffffffffffffffffffffffffffffffffffffff163373ffffffffffffffffffffffffffffffffffffffff16141515610e1c57600080fd5b6010602060ff1611151515610e3057600080fd5b6001600580549050039150600582815481101515610e4a57fe5b906000526020600020900154905080600585815481101515610e6857fe5b906000526020600020900181600019169055506000600583815481101515610e8c57fe5b906000526020600020900181600019169055506005805480919060019003610eb4919061138e565b5050505050565b6000600660009054906101000a900473ffffffffffffffffffffffffffffffffffffffff16905090565b6000600160009054906101000a900473ffffffffffffffffffffffffffffffffffffffff1673ffffffffffffffffffffffffffffffffffffffff163373ffffffffffffffffffffffffffffffffffffffff16141515610f4357600080fd5b828290509050600081118015610f5a575060208111155b1515610f6557600080fd5b828260039190610f7692919061130e565b50505050565b600160009054906101000a900473ffffffffffffffffffffffffffffffffffffffff1673ffffffffffffffffffffffffffffffffffffffff163373ffffffffffffffffffffffffffffffffffffffff16141515610fd857600080fd5b8060028190555050565b6000600160009054906101000a900473ffffffffffffffffffffffffffffffffffffffff16905090565b600160009054906101000a900473ffffffffffffffffffffffffffffffffffffffff1673ffffffffffffffffffffffffffffffffffffffff163373ffffffffffffffffffffffffffffffffffffffff1614151561106857600080fd5b6010602060ff161115151561107c57600080fd5b8060058381548110151561108c57fe5b906000526020600020900181600019169055505050565b6000809054906101000a900473ffffffffffffffffffffffffffffffffffffffff1673ffffffffffffffffffffffffffffffffffffffff163373ffffffffffffffffffffffffffffffffffffffff161415156110fe57600080fd5b600073ffffffffffffffffffffffffffffffffffffffff168173ffffffffffffffffffffffffffffffffffffffff161415151561113a57600080fd5b8073ffffffffffffffffffffffffffffffffffffffff166000809054906101000a900473ffffffffffffffffffffffffffffffffffffffff1673ffffffffffffffffffffffffffffffffffffffff167f8be0079c531659141344cd1fd0a4f28419497f9722a3daafe3b4186f6b6457e060405160405180910390a3806000806101000a81548173ffffffffffffffffffffffffffffffffffffffff021916908373ffffffffffffffffffffffffffffffffffffffff16021790555050565b6000809054906101000a900473ffffffffffffffffffffffffffffffffffffffff1673ffffffffffffffffffffffffffffffffffffffff163373ffffffffffffffffffffffffffffffffffffffff1614151561125357600080fd5b8073ffffffffffffffffffffffffffffffffffffffff16ff5b6112746113ba565b60058054806020026020016040519081016040528092919081815260200182805480156112c457602002820191906000526020600020905b815460001916815260200190600101908083116112ac575b5050505050905090565b602060405190810160405280600081525090565b8154818355818115116113095781836000526020600020918201910161130891906113ce565b5b505050565b828054600181600116156101000203166002900490600052602060002090601f016020900481019282601f1061134f57803560ff191683800117855561137d565b8280016001018555821561137d579182015b8281111561137c578235825591602001919060010190611361565b5b50905061138a91906113f3565b5090565b8154818355818115116113b5578183600052602060002091820191016113b491906113ce565b5b505050565b602060405190810160405280600081525090565b6113f091905b808211156113ec5760008160009055506001016113d4565b5090565b90565b61141591905b808211156114115760008160009055506001016113f9565b5090565b905600a165627a7a7230582000488ec8d8d46784c0b771138a3e1f6dd7c824899e46683867c6042d110557380029",
  "source": "pragma solidity ^0.4.19;\n\n/* import \"../common/IPFSeable.sol\"; */\nimport \"./RegistryAccessControl.sol\";\n// import \"../common/RegistrySafe.sol\";\n\n\ncontract Chaingeareable is RegistryAccessControl {\n\n    uint internal entryCreationFee_;\n    string internal registryName_;\n    string internal registryDescription_;\n    bytes32[] internal registryTags_;\n    address internal entryBase_;\n    string internal linkToABIOfEntriesContract_;\n\n    address internal registrySafe_;\n\n    event EntryCreated(\n        address creator,\n        uint entryId\n    );\n\n    /* event EntryUpdated(\n        address owner,\n        uint entryId\n    ); */\n\n    event EntryChangedOwner(\n        uint entryId,\n        address newOwner\n    );\n\n    event EntryDeleted(\n        address owner,\n        uint entryId\n    );\n\n    event EntryFunded(\n        uint entryId,\n        address funder\n    );\n\n    event EntryFundsClaimed(\n        uint entryId,\n        address owner,\n        uint amount\n    );\n\n    function entryBase()\n        public\n        view\n        returns (address)\n    {\n        return entryBase_;\n    }\n\n    function ABIOfEntriesContract()\n        public\n        view\n        returns (string)\n    {\n        return linkToABIOfEntriesContract_;\n    }\n\n    function registryBalance()\n        public\n        view\n        returns (uint)\n    {\n        return this.balance;\n    }\n\n    function entryCreationFee()\n        public\n        view\n        returns (uint)\n    {\n        return entryCreationFee_;\n    }\n\n    function registryName()\n        public\n        view\n        returns (string)\n    {\n        return registryName_;\n    }\n\n    function registryDescription()\n        public\n        view\n        returns (string)\n    {\n        return registryDescription_;\n    }\n\n    function registryTags()\n        public\n        view\n        returns (bytes32[])\n    {\n        return registryTags_;\n    }\n\n    function updateEntryCreationFee(uint _fee)\n        external\n        onlyRegistryOwner\n    {\n        entryCreationFee_ = _fee;\n    }\n\n    function updateRegistryName(string _registryName)\n        external\n        onlyRegistryOwner\n    {\n        uint len = bytes(_registryName).length;\n        require(len > 0 && len <= 32);\n\n        registryName_ = _registryName;\n    }\n\n    function updateRegistryDescription(string _registryDescription)\n        external\n        onlyRegistryOwner\n    {\n        uint len = bytes(_registryDescription).length;\n        require(len <= 256);\n\n        registryDescription_ = _registryDescription;\n    }\n\n    function addRegistryTag(bytes32 _tag)\n        external\n        onlyRegistryOwner\n    {\n        require(_tag.length <= 16);\n\n        registryTags_.push(_tag);\n    }\n\n    function updateRegistryTag(uint256 _index, bytes32 _tag)\n        external\n        onlyRegistryOwner\n    {\n        require(_tag.length <= 16);\n\n        registryTags_[_index] = _tag;\n    }\n\n    function removeRegistryTag(uint256 _index, bytes32 _tag)\n        external\n        onlyRegistryOwner\n    {\n        require(_tag.length <= 16);\n\n        uint256 lastTagIndex = registryTags_.length - 1;\n        bytes32 lastTag = registryTags_[lastTagIndex];\n\n        registryTags_[_index] = lastTag;\n        registryTags_[lastTagIndex] = \"\"; //\"\"?\n        registryTags_.length--;\n    }\n\n    function registrySafe()\n        public\n        view\n        returns (address)\n    {\n        return registrySafe_;\n    }\n\n}\n",
  "sourcePath": "/Users/litvintech/Projects/chaingear/contracts/registry/Chaingeareable.sol",
  "compiler": {
    "name": "solc",
    "version": "0.4.19+commit.c4cbbb05.Emscripten.clang"
  },
  "schemaVersion": "1.0.1",
  "updatedAt": "2018-04-24T06:19:11.593Z"
}