{
  "contractName": "Chaingear",
  "abi": [
    {
      "constant": true,
      "inputs": [],
      "name": "name",
      "outputs": [
        {
          "name": "",
          "type": "string"
        }
      ],
      "payable": false,
      "stateMutability": "view",
      "type": "function"
    },
    {
      "constant": true,
      "inputs": [
        {
          "name": "_tokenId",
          "type": "uint256"
        }
      ],
      "name": "getApproved",
      "outputs": [
        {
          "name": "",
          "type": "address"
        }
      ],
      "payable": false,
      "stateMutability": "view",
      "type": "function"
    },
    {
      "constant": false,
      "inputs": [
        {
          "name": "_to",
          "type": "address"
        },
        {
          "name": "_tokenId",
          "type": "uint256"
        }
      ],
      "name": "approve",
      "outputs": [],
      "payable": false,
      "stateMutability": "nonpayable",
      "type": "function"
    },
    {
      "constant": true,
      "inputs": [],
      "name": "chaingearDescription_",
      "outputs": [
        {
          "name": "",
          "type": "string"
        }
      ],
      "payable": false,
      "stateMutability": "view",
      "type": "function"
    },
    {
      "constant": false,
      "inputs": [
        {
          "name": "_linkSourceCode",
          "type": "string"
        }
      ],
      "name": "updateSourceLink",
      "outputs": [],
      "payable": false,
      "stateMutability": "nonpayable",
      "type": "function"
    },
    {
      "constant": true,
      "inputs": [],
      "name": "linkSourceCode_",
      "outputs": [
        {
          "name": "",
          "type": "string"
        }
      ],
      "payable": false,
      "stateMutability": "view",
      "type": "function"
    },
    {
      "constant": true,
      "inputs": [],
      "name": "totalSupply",
      "outputs": [
        {
          "name": "",
          "type": "uint256"
        }
      ],
      "payable": false,
      "stateMutability": "view",
      "type": "function"
    },
    {
      "constant": false,
      "inputs": [
        {
          "name": "_from",
          "type": "address"
        },
        {
          "name": "_to",
          "type": "address"
        },
        {
          "name": "_tokenId",
          "type": "uint256"
        }
      ],
      "name": "transferFrom",
      "outputs": [],
      "payable": false,
      "stateMutability": "nonpayable",
      "type": "function"
    },
    {
      "constant": true,
      "inputs": [
        {
          "name": "_owner",
          "type": "address"
        },
        {
          "name": "_index",
          "type": "uint256"
        }
      ],
      "name": "tokenOfOwnerByIndex",
      "outputs": [
        {
          "name": "",
          "type": "uint256"
        }
      ],
      "payable": false,
      "stateMutability": "view",
      "type": "function"
    },
    {
      "constant": true,
      "inputs": [],
      "name": "totalShares",
      "outputs": [
        {
          "name": "",
          "type": "uint256"
        }
      ],
      "payable": false,
      "stateMutability": "view",
      "type": "function"
    },
    {
      "constant": false,
      "inputs": [],
      "name": "unpause",
      "outputs": [],
      "payable": false,
      "stateMutability": "nonpayable",
      "type": "function"
    },
    {
      "constant": false,
      "inputs": [
        {
          "name": "_from",
          "type": "address"
        },
        {
          "name": "_to",
          "type": "address"
        },
        {
          "name": "_tokenId",
          "type": "uint256"
        }
      ],
      "name": "safeTransferFrom",
      "outputs": [],
      "payable": false,
      "stateMutability": "nonpayable",
      "type": "function"
    },
    {
      "constant": false,
      "inputs": [],
      "name": "claim",
      "outputs": [],
      "payable": false,
      "stateMutability": "nonpayable",
      "type": "function"
    },
    {
      "constant": true,
      "inputs": [
        {
          "name": "_tokenId",
          "type": "uint256"
        }
      ],
      "name": "exists",
      "outputs": [
        {
          "name": "",
          "type": "bool"
        }
      ],
      "payable": false,
      "stateMutability": "view",
      "type": "function"
    },
    {
      "constant": true,
      "inputs": [
        {
          "name": "_index",
          "type": "uint256"
        }
      ],
      "name": "tokenByIndex",
      "outputs": [
        {
          "name": "",
          "type": "uint256"
        }
      ],
      "payable": false,
      "stateMutability": "view",
      "type": "function"
    },
    {
      "constant": true,
      "inputs": [],
      "name": "linkMeta_",
      "outputs": [
        {
          "name": "",
          "type": "string"
        }
      ],
      "payable": false,
      "stateMutability": "view",
      "type": "function"
    },
    {
      "constant": true,
      "inputs": [],
      "name": "paused",
      "outputs": [
        {
          "name": "",
          "type": "bool"
        }
      ],
      "payable": false,
      "stateMutability": "view",
      "type": "function"
    },
    {
      "constant": true,
      "inputs": [
        {
          "name": "",
          "type": "uint256"
        }
      ],
      "name": "payees",
      "outputs": [
        {
          "name": "",
          "type": "address"
        }
      ],
      "payable": false,
      "stateMutability": "view",
      "type": "function"
    },
    {
      "constant": true,
      "inputs": [
        {
          "name": "",
          "type": "uint256"
        }
      ],
      "name": "registries",
      "outputs": [
        {
          "name": "name",
          "type": "string"
        },
        {
          "name": "contractAddress",
          "type": "address"
        },
        {
          "name": "creator",
          "type": "address"
        },
        {
          "name": "registrationTimestamp",
          "type": "uint256"
        },
        {
          "name": "linkABI",
          "type": "string"
        },
        {
          "name": "owner",
          "type": "address"
        }
      ],
      "payable": false,
      "stateMutability": "view",
      "type": "function"
    },
    {
      "constant": true,
      "inputs": [
        {
          "name": "_tokenId",
          "type": "uint256"
        }
      ],
      "name": "ownerOf",
      "outputs": [
        {
          "name": "",
          "type": "address"
        }
      ],
      "payable": false,
      "stateMutability": "view",
      "type": "function"
    },
    {
      "constant": true,
      "inputs": [
        {
          "name": "_owner",
          "type": "address"
        }
      ],
      "name": "balanceOf",
      "outputs": [
        {
          "name": "",
          "type": "uint256"
        }
      ],
      "payable": false,
      "stateMutability": "view",
      "type": "function"
    },
    {
      "constant": false,
      "inputs": [
        {
          "name": "_payeeIndex",
          "type": "uint256"
        },
        {
          "name": "_newAddress",
          "type": "address"
        }
      ],
      "name": "changePayeeAddress",
      "outputs": [],
      "payable": false,
      "stateMutability": "nonpayable",
      "type": "function"
    },
    {
      "constant": false,
      "inputs": [],
      "name": "destroy",
      "outputs": [],
      "payable": false,
      "stateMutability": "nonpayable",
      "type": "function"
    },
    {
      "constant": false,
      "inputs": [],
      "name": "pause",
      "outputs": [],
      "payable": false,
      "stateMutability": "nonpayable",
      "type": "function"
    },
    {
      "constant": false,
      "inputs": [
        {
          "name": "_linkMeta",
          "type": "string"
        }
      ],
      "name": "updateMetaLink",
      "outputs": [],
      "payable": false,
      "stateMutability": "nonpayable",
      "type": "function"
    },
    {
      "constant": true,
      "inputs": [],
      "name": "owner",
      "outputs": [
        {
          "name": "",
          "type": "address"
        }
      ],
      "payable": false,
      "stateMutability": "view",
      "type": "function"
    },
    {
      "constant": true,
      "inputs": [],
      "name": "symbol",
      "outputs": [
        {
          "name": "",
          "type": "string"
        }
      ],
      "payable": false,
      "stateMutability": "view",
      "type": "function"
    },
    {
      "constant": true,
      "inputs": [
        {
          "name": "",
          "type": "address"
        }
      ],
      "name": "released",
      "outputs": [
        {
          "name": "",
          "type": "uint256"
        }
      ],
      "payable": false,
      "stateMutability": "view",
      "type": "function"
    },
    {
      "constant": false,
      "inputs": [
        {
          "name": "_to",
          "type": "address"
        },
        {
          "name": "_approved",
          "type": "bool"
        }
      ],
      "name": "setApprovalForAll",
      "outputs": [],
      "payable": false,
      "stateMutability": "nonpayable",
      "type": "function"
    },
    {
      "constant": true,
      "inputs": [],
      "name": "NAME",
      "outputs": [
        {
          "name": "",
          "type": "string"
        }
      ],
      "payable": false,
      "stateMutability": "view",
      "type": "function"
    },
    {
      "constant": false,
      "inputs": [
        {
          "name": "_linkABI",
          "type": "string"
        }
      ],
      "name": "updateABILink",
      "outputs": [],
      "payable": false,
      "stateMutability": "nonpayable",
      "type": "function"
    },
    {
      "constant": false,
      "inputs": [
        {
          "name": "_from",
          "type": "address"
        },
        {
          "name": "_to",
          "type": "address"
        },
        {
          "name": "_tokenId",
          "type": "uint256"
        },
        {
          "name": "_data",
          "type": "bytes"
        }
      ],
      "name": "safeTransferFrom",
      "outputs": [],
      "payable": false,
      "stateMutability": "nonpayable",
      "type": "function"
    },
    {
      "constant": true,
      "inputs": [
        {
          "name": "_tokenId",
          "type": "uint256"
        }
      ],
      "name": "tokenURI",
      "outputs": [
        {
          "name": "",
          "type": "string"
        }
      ],
      "payable": false,
      "stateMutability": "view",
      "type": "function"
    },
    {
      "constant": true,
      "inputs": [
        {
          "name": "",
          "type": "address"
        }
      ],
      "name": "shares",
      "outputs": [
        {
          "name": "",
          "type": "uint256"
        }
      ],
      "payable": false,
      "stateMutability": "view",
      "type": "function"
    },
    {
      "constant": true,
      "inputs": [],
      "name": "linkABI_",
      "outputs": [
        {
          "name": "",
          "type": "string"
        }
      ],
      "payable": false,
      "stateMutability": "view",
      "type": "function"
    },
    {
      "constant": true,
      "inputs": [],
      "name": "totalReleased",
      "outputs": [
        {
          "name": "",
          "type": "uint256"
        }
      ],
      "payable": false,
      "stateMutability": "view",
      "type": "function"
    },
    {
      "constant": true,
      "inputs": [
        {
          "name": "_owner",
          "type": "address"
        },
        {
          "name": "_operator",
          "type": "address"
        }
      ],
      "name": "isApprovedForAll",
      "outputs": [
        {
          "name": "",
          "type": "bool"
        }
      ],
      "payable": false,
      "stateMutability": "view",
      "type": "function"
    },
    {
      "constant": true,
      "inputs": [],
      "name": "registryRegistrationFee_",
      "outputs": [
        {
          "name": "",
          "type": "uint256"
        }
      ],
      "payable": false,
      "stateMutability": "view",
      "type": "function"
    },
    {
      "constant": false,
      "inputs": [
        {
          "name": "newOwner",
          "type": "address"
        }
      ],
      "name": "transferOwnership",
      "outputs": [],
      "payable": false,
      "stateMutability": "nonpayable",
      "type": "function"
    },
    {
      "constant": false,
      "inputs": [
        {
          "name": "_recipient",
          "type": "address"
        }
      ],
      "name": "destroyAndSend",
      "outputs": [],
      "payable": false,
      "stateMutability": "nonpayable",
      "type": "function"
    },
    {
      "inputs": [
        {
          "name": "_benefitiaries",
          "type": "address[]"
        },
        {
          "name": "_shares",
          "type": "uint256[]"
        },
        {
          "name": "_description",
          "type": "string"
        },
        {
          "name": "_linkABI",
          "type": "string"
        },
        {
          "name": "_registrationFee",
          "type": "uint256"
        },
        {
          "name": "_chaingearSymbol",
          "type": "string"
        }
      ],
      "payable": false,
      "stateMutability": "nonpayable",
      "type": "constructor"
    },
    {
      "payable": true,
      "stateMutability": "payable",
      "type": "fallback"
    },
    {
      "anonymous": false,
      "inputs": [
        {
          "indexed": false,
          "name": "name",
          "type": "string"
        },
        {
          "indexed": false,
          "name": "creator",
          "type": "address"
        },
        {
          "indexed": false,
          "name": "entryId",
          "type": "uint256"
        }
      ],
      "name": "RegistryRegistered",
      "type": "event"
    },
    {
      "anonymous": false,
      "inputs": [
        {
          "indexed": false,
          "name": "owner",
          "type": "address"
        },
        {
          "indexed": false,
          "name": "registryId",
          "type": "uint256"
        }
      ],
      "name": "RegistryUnregistered",
      "type": "event"
    },
    {
      "anonymous": false,
      "inputs": [
        {
          "indexed": false,
          "name": "payeeIndex",
          "type": "uint256"
        },
        {
          "indexed": false,
          "name": "oldAddress",
          "type": "address"
        },
        {
          "indexed": false,
          "name": "newAddress",
          "type": "address"
        }
      ],
      "name": "PayeeAddressChanged",
      "type": "event"
    },
    {
      "anonymous": false,
      "inputs": [],
      "name": "Pause",
      "type": "event"
    },
    {
      "anonymous": false,
      "inputs": [],
      "name": "Unpause",
      "type": "event"
    },
    {
      "anonymous": false,
      "inputs": [
        {
          "indexed": false,
          "name": "linkMeta",
          "type": "string"
        }
      ],
      "name": "MetaLinkUpdated",
      "type": "event"
    },
    {
      "anonymous": false,
      "inputs": [
        {
          "indexed": false,
          "name": "linkABI",
          "type": "string"
        }
      ],
      "name": "ABILinkUpdated",
      "type": "event"
    },
    {
      "anonymous": false,
      "inputs": [
        {
          "indexed": false,
          "name": "linkSource",
          "type": "string"
        }
      ],
      "name": "SourceLinkUpdated",
      "type": "event"
    },
    {
      "anonymous": false,
      "inputs": [
        {
          "indexed": true,
          "name": "previousOwner",
          "type": "address"
        },
        {
          "indexed": true,
          "name": "newOwner",
          "type": "address"
        }
      ],
      "name": "OwnershipTransferred",
      "type": "event"
    },
    {
      "anonymous": false,
      "inputs": [
        {
          "indexed": true,
          "name": "_from",
          "type": "address"
        },
        {
          "indexed": true,
          "name": "_to",
          "type": "address"
        },
        {
          "indexed": false,
          "name": "_tokenId",
          "type": "uint256"
        }
      ],
      "name": "Transfer",
      "type": "event"
    },
    {
      "anonymous": false,
      "inputs": [
        {
          "indexed": true,
          "name": "_owner",
          "type": "address"
        },
        {
          "indexed": true,
          "name": "_approved",
          "type": "address"
        },
        {
          "indexed": false,
          "name": "_tokenId",
          "type": "uint256"
        }
      ],
      "name": "Approval",
      "type": "event"
    },
    {
      "anonymous": false,
      "inputs": [
        {
          "indexed": true,
          "name": "_owner",
          "type": "address"
        },
        {
          "indexed": true,
          "name": "_operator",
          "type": "address"
        },
        {
          "indexed": false,
          "name": "_approved",
          "type": "bool"
        }
      ],
      "name": "ApprovalForAll",
      "type": "event"
    },
    {
      "constant": false,
      "inputs": [
        {
          "name": "_registryName",
          "type": "string"
        },
        {
          "name": "_linkABI",
          "type": "string"
        },
        {
          "name": "_registryAddress",
          "type": "address"
        }
      ],
      "name": "registerRegistry",
      "outputs": [
        {
          "name": "registryId",
          "type": "uint256"
        }
      ],
      "payable": true,
      "stateMutability": "payable",
      "type": "function"
    },
    {
      "constant": false,
      "inputs": [
        {
          "name": "_registryID",
          "type": "uint256"
        }
      ],
      "name": "unregisterRegistry",
      "outputs": [],
      "payable": false,
      "stateMutability": "nonpayable",
      "type": "function"
    },
    {
      "constant": true,
      "inputs": [
        {
          "name": "_registryID",
          "type": "uint256"
        }
      ],
      "name": "getRegistry",
      "outputs": [
        {
          "name": "name",
          "type": "string"
        },
        {
          "name": "contractAddress",
          "type": "address"
        },
        {
          "name": "creator",
          "type": "address"
        },
        {
          "name": "registrationTimestamp",
          "type": "uint256"
        },
        {
          "name": "linkABI",
          "type": "string"
        },
        {
          "name": "owner",
          "type": "address"
        }
      ],
      "payable": false,
      "stateMutability": "view",
      "type": "function"
    },
    {
      "constant": false,
      "inputs": [
        {
          "name": "_fee",
          "type": "uint256"
        }
      ],
      "name": "updateRegistrationFee",
      "outputs": [],
      "payable": false,
      "stateMutability": "nonpayable",
      "type": "function"
    },
    {
      "constant": false,
      "inputs": [
        {
          "name": "_description",
          "type": "string"
        }
      ],
      "name": "updateDescription",
      "outputs": [],
      "payable": false,
      "stateMutability": "nonpayable",
      "type": "function"
    }
  ],
  "bytecode": "0x60606040526000600b556000600c556000601460006101000a81548160ff02191690831515021790555034156200003557600080fd5b60405162004ddb38038062004ddb833981016040528080518201919060200180518201919060200180518201919060200180518201919060200180519060200190919080518201919050508585818160006040805190810160405280600981526020017f434841494e474541520000000000000000000000000000000000000000000000815250868160049080519060200190620000d59291906200038d565b508060059080519060200190620000ee9291906200038d565b505050815183511415156200010257600080fd5b600090505b82518110156200016f576200016183828151811015156200012457fe5b9060200190602002015183838151811015156200013d57fe5b90602001906020020151620001fa64010000000002620047a9176401000000009004565b808060010191505062000107565b50505033601060006101000a81548173ffffffffffffffffffffffffffffffffffffffff021916908373ffffffffffffffffffffffffffffffffffffffff1602179055505050816016819055508360159080519060200190620001d49291906200038d565b508260119080519060200190620001ed9291906200038d565b505050505050506200046b565b600073ffffffffffffffffffffffffffffffffffffffff168273ffffffffffffffffffffffffffffffffffffffff16141515156200023757600080fd5b6000811115156200024757600080fd5b6000600d60008473ffffffffffffffffffffffffffffffffffffffff1673ffffffffffffffffffffffffffffffffffffffff168152602001908152602001600020541415156200029657600080fd5b600f8054806001018281620002ac919062000414565b9160005260206000209001600084909190916101000a81548173ffffffffffffffffffffffffffffffffffffffff021916908373ffffffffffffffffffffffffffffffffffffffff1602179055505080600d60008473ffffffffffffffffffffffffffffffffffffffff1673ffffffffffffffffffffffffffffffffffffffff168152602001908152602001600020819055506200036481600b546200036e6401000000000262003bd7179091906401000000009004565b600b819055505050565b60008082840190508381101515156200038357fe5b8091505092915050565b828054600181600116156101000203166002900490600052602060002090601f016020900481019282601f10620003d057805160ff191683800117855562000401565b8280016001018555821562000401579182015b8281111562000400578251825591602001919060010190620003e3565b5b50905062000410919062000443565b5090565b8154818355818115116200043e578183600052602060002091820191016200043d919062000443565b5b505050565b6200046891905b80821115620004645760008160009055506001016200044a565b5090565b90565b614960806200047b6000396000f300606060405260043610610225576000357c0100000000000000000000000000000000000000000000000000000000900463ffffffff16806306fdde0314610227578063081812fc146102b5578063095ea7b3146103185780630e2779ab1461035a5780630f6a2ad5146103e857806312a8cad41461041657806318160ddd146104a4578063193c045e146104cd57806323b872dd146106755780632f745c59146106d65780633a98ef391461072c5780633f4ba83a1461075557806342842e0e1461076a5780634e71d92d146107cb5780634f558e79146107e05780634f6ccce71461081b578063505b1390146108525780635c975abb146108e057806363037b0c1461090d5780636347c900146109705780636352211e14610b5257806370a0823114610bb55780637b49376814610c0257806383197ef014610c445780638456cb5914610c595780638aed4b6314610c6e5780638da5cb5b14610c9c57806395d89b4114610cf15780639852595c14610d7f578063a22cb46514610dcc578063a3f4df7e14610e10578063a58017af14610e9e578063acab3bd514610ec1578063af582c6b14610eef578063b3ae56d114610f12578063b88d4fde14610fda578063c87b56dd1461107e578063ce7c2ac21461111a578063e16f48f214611167578063e33b7de3146111f5578063e735b48a1461121e578063e985e9c51461124c578063f240b8d7146112bc578063f2fde38b146112e5578063f5074f411461131e575b005b341561023257600080fd5b61023a611357565b6040518080602001828103825283818151815260200191508051906020019080838360005b8381101561027a57808201518184015260208101905061025f565b50505050905090810190601f1680156102a75780820380516001836020036101000a031916815260200191505b509250505060405180910390f35b34156102c057600080fd5b6102d660048080359060200190919050506113ff565b604051808273ffffffffffffffffffffffffffffffffffffffff1673ffffffffffffffffffffffffffffffffffffffff16815260200191505060405180910390f35b341561032357600080fd5b610358600480803573ffffffffffffffffffffffffffffffffffffffff1690602001909190803590602001909190505061143c565b005b341561036557600080fd5b61036d611602565b6040518080602001828103825283818151815260200191508051906020019080838360005b838110156103ad578082015181840152602081019050610392565b50505050905090810190601f1680156103da5780820380516001836020036101000a031916815260200191505b509250505060405180910390f35b34156103f357600080fd5b610414600480803590602001908201803590602001919091929050506116a0565b005b341561042157600080fd5b610429611763565b6040518080602001828103825283818151815260200191508051906020019080838360005b8381101561046957808201518184015260208101905061044e565b50505050905090810190601f1680156104965780820380516001836020036101000a031916815260200191505b509250505060405180910390f35b34156104af57600080fd5b6104b7611801565b6040518082815260200191505060405180910390f35b34156104d857600080fd5b6104ee600480803590602001909190505061180e565b60405180806020018773ffffffffffffffffffffffffffffffffffffffff1673ffffffffffffffffffffffffffffffffffffffff1681526020018673ffffffffffffffffffffffffffffffffffffffff1673ffffffffffffffffffffffffffffffffffffffff168152602001858152602001806020018473ffffffffffffffffffffffffffffffffffffffff1673ffffffffffffffffffffffffffffffffffffffff168152602001838103835289818151815260200191508051906020019080838360005b838110156105ce5780820151818401526020810190506105b3565b50505050905090810190601f1680156105fb5780820380516001836020036101000a031916815260200191505b50838103825285818151815260200191508051906020019080838360005b83811015610634578082015181840152602081019050610619565b50505050905090810190601f1680156106615780820380516001836020036101000a031916815260200191505b509850505050505050505060405180910390f35b341561068057600080fd5b6106d4600480803573ffffffffffffffffffffffffffffffffffffffff1690602001909190803573ffffffffffffffffffffffffffffffffffffffff16906020019091908035906020019091905050611a96565b005b34156106e157600080fd5b610716600480803573ffffffffffffffffffffffffffffffffffffffff16906020019091908035906020019091905050611bad565b6040518082815260200191505060405180910390f35b341561073757600080fd5b61073f611c25565b6040518082815260200191505060405180910390f35b341561076057600080fd5b610768611c2b565b005b341561077557600080fd5b6107c9600480803573ffffffffffffffffffffffffffffffffffffffff1690602001909190803573ffffffffffffffffffffffffffffffffffffffff16906020019091908035906020019091905050611ceb565b005b34156107d657600080fd5b6107de611d23565b005b34156107eb57600080fd5b6108016004808035906020019091905050611f8b565b604051808215151515815260200191505060405180910390f35b341561082657600080fd5b61083c6004808035906020019091905050611ffc565b6040518082815260200191505060405180910390f35b341561085d57600080fd5b610865612035565b6040518080602001828103825283818151815260200191508051906020019080838360005b838110156108a557808201518184015260208101905061088a565b50505050905090810190601f1680156108d25780820380516001836020036101000a031916815260200191505b509250505060405180910390f35b34156108eb57600080fd5b6108f36120d3565b604051808215151515815260200191505060405180910390f35b341561091857600080fd5b61092e60048080359060200190919050506120e6565b604051808273ffffffffffffffffffffffffffffffffffffffff1673ffffffffffffffffffffffffffffffffffffffff16815260200191505060405180910390f35b341561097b57600080fd5b6109916004808035906020019091905050612125565b60405180806020018773ffffffffffffffffffffffffffffffffffffffff1673ffffffffffffffffffffffffffffffffffffffff1681526020018673ffffffffffffffffffffffffffffffffffffffff1673ffffffffffffffffffffffffffffffffffffffff168152602001858152602001806020018473ffffffffffffffffffffffffffffffffffffffff1673ffffffffffffffffffffffffffffffffffffffff168152602001838103835289818154600181600116156101000203166002900481526020019150805460018160011615610100020316600290048015610aba5780601f10610a8f57610100808354040283529160200191610aba565b820191906000526020600020905b815481529060010190602001808311610a9d57829003601f168201915b5050838103825285818154600181600116156101000203166002900481526020019150805460018160011615610100020316600290048015610b3d5780601f10610b1257610100808354040283529160200191610b3d565b820191906000526020600020905b815481529060010190602001808311610b2057829003601f168201915b50509850505050505050505060405180910390f35b3415610b5d57600080fd5b610b7360048080359060200190919050506121ce565b604051808273ffffffffffffffffffffffffffffffffffffffff1673ffffffffffffffffffffffffffffffffffffffff16815260200191505060405180910390f35b3415610bc057600080fd5b610bec600480803573ffffffffffffffffffffffffffffffffffffffff1690602001909190505061224b565b6040518082815260200191505060405180910390f35b3415610c0d57600080fd5b610c42600480803590602001909190803573ffffffffffffffffffffffffffffffffffffffff169060200190919050506122cf565b005b3415610c4f57600080fd5b610c576125f3565b005b3415610c6457600080fd5b610c6c61268a565b005b3415610c7957600080fd5b610c9a6004808035906020019082018035906020019190919290505061274b565b005b3415610ca757600080fd5b610caf61280e565b604051808273ffffffffffffffffffffffffffffffffffffffff1673ffffffffffffffffffffffffffffffffffffffff16815260200191505060405180910390f35b3415610cfc57600080fd5b610d04612834565b6040518080602001828103825283818151815260200191508051906020019080838360005b83811015610d44578082015181840152602081019050610d29565b50505050905090810190601f168015610d715780820380516001836020036101000a031916815260200191505b509250505060405180910390f35b3415610d8a57600080fd5b610db6600480803573ffffffffffffffffffffffffffffffffffffffff169060200190919050506128dc565b6040518082815260200191505060405180910390f35b3415610dd757600080fd5b610e0e600480803573ffffffffffffffffffffffffffffffffffffffff1690602001909190803515159060200190919050506128f4565b005b3415610e1b57600080fd5b610e23612a30565b6040518080602001828103825283818151815260200191508051906020019080838360005b83811015610e63578082015181840152602081019050610e48565b50505050905090810190601f168015610e905780820380516001836020036101000a031916815260200191505b509250505060405180910390f35b3415610ea957600080fd5b610ebf6004808035906020019091905050612a69565b005b3415610ecc57600080fd5b610eed60048080359060200190820180359060200191909192905050612e1a565b005b3415610efa57600080fd5b610f106004808035906020019091905050612edd565b005b610fc4600480803590602001908201803590602001908080601f0160208091040260200160405190810160405280939291908181526020018383808284378201915050505050509190803590602001908201803590602001908080601f0160208091040260200160405190810160405280939291908181526020018383808284378201915050505050509190803573ffffffffffffffffffffffffffffffffffffffff16906020019091905050612f43565b6040518082815260200191505060405180910390f35b3415610fe557600080fd5b61107c600480803573ffffffffffffffffffffffffffffffffffffffff1690602001909190803573ffffffffffffffffffffffffffffffffffffffff1690602001909190803590602001909190803590602001908201803590602001908080601f0160208091040260200160405190810160405280939291908181526020018383808284378201915050505050509190505061322d565b005b341561108957600080fd5b61109f600480803590602001909190505061326c565b6040518080602001828103825283818151815260200191508051906020019080838360005b838110156110df5780820151818401526020810190506110c4565b50505050905090810190601f16801561110c5780820380516001836020036101000a031916815260200191505b509250505060405180910390f35b341561112557600080fd5b611151600480803573ffffffffffffffffffffffffffffffffffffffff1690602001909190505061333b565b6040518082815260200191505060405180910390f35b341561117257600080fd5b61117a613353565b6040518080602001828103825283818151815260200191508051906020019080838360005b838110156111ba57808201518184015260208101905061119f565b50505050905090810190601f1680156111e75780820380516001836020036101000a031916815260200191505b509250505060405180910390f35b341561120057600080fd5b6112086133f1565b6040518082815260200191505060405180910390f35b341561122957600080fd5b61124a600480803590602001908201803590602001919091929050506133f7565b005b341561125757600080fd5b6112a2600480803573ffffffffffffffffffffffffffffffffffffffff1690602001909190803573ffffffffffffffffffffffffffffffffffffffff16906020019091905050613483565b604051808215151515815260200191505060405180910390f35b34156112c757600080fd5b6112cf613517565b6040518082815260200191505060405180910390f35b34156112f057600080fd5b61131c600480803573ffffffffffffffffffffffffffffffffffffffff1690602001909190505061351d565b005b341561132957600080fd5b611355600480803573ffffffffffffffffffffffffffffffffffffffff16906020019091905050613675565b005b61135f614390565b60048054600181600116156101000203166002900480601f0160208091040260200160405190810160405280929190818152602001828054600181600116156101000203166002900480156113f55780601f106113ca576101008083540402835291602001916113f5565b820191906000526020600020905b8154815290600101906020018083116113d857829003601f168201915b5050505050905090565b60006001600083815260200190815260200160002060009054906101000a900473ffffffffffffffffffffffffffffffffffffffff169050919050565b6000611447826121ce565b90508073ffffffffffffffffffffffffffffffffffffffff168373ffffffffffffffffffffffffffffffffffffffff161415151561148457600080fd5b8073ffffffffffffffffffffffffffffffffffffffff163373ffffffffffffffffffffffffffffffffffffffff1614806114c457506114c38133613483565b5b15156114cf57600080fd5b600073ffffffffffffffffffffffffffffffffffffffff166114f0836113ff565b73ffffffffffffffffffffffffffffffffffffffff161415806115405750600073ffffffffffffffffffffffffffffffffffffffff168373ffffffffffffffffffffffffffffffffffffffff1614155b156115fd57826001600084815260200190815260200160002060006101000a81548173ffffffffffffffffffffffffffffffffffffffff021916908373ffffffffffffffffffffffffffffffffffffffff1602179055508273ffffffffffffffffffffffffffffffffffffffff168173ffffffffffffffffffffffffffffffffffffffff167f8c5be1e5ebec7d5bd14f71427d1e84f3dd0314c0f7b2291e5b200ac8c7c3b925846040518082815260200191505060405180910390a35b505050565b60158054600181600116156101000203166002900480601f0160208091040260200160405190810160405280929190818152602001828054600181600116156101000203166002900480156116985780601f1061166d57610100808354040283529160200191611698565b820191906000526020600020905b81548152906001019060200180831161167b57829003601f168201915b505050505081565b601060009054906101000a900473ffffffffffffffffffffffffffffffffffffffff1673ffffffffffffffffffffffffffffffffffffffff163373ffffffffffffffffffffffffffffffffffffffff161415156116fc57600080fd5b81816013919061170d9291906143a4565b507fcfaf57d92b1b2684731a770c593d162587ca98e9d372be876ab14b389866f0f68282604051808060200182810382528484828181526020019250808284378201915050935050505060405180910390a15050565b60138054600181600116156101000203166002900480601f0160208091040260200160405190810160405280929190818152602001828054600181600116156101000203166002900480156117f95780601f106117ce576101008083540402835291602001916117f9565b820191906000526020600020905b8154815290600101906020018083116117dc57829003601f168201915b505050505081565b6000600880549050905090565b611816614390565b6000806000611823614390565b600060178781548110151561183457fe5b906000526020600020906006020160000160178881548110151561185457fe5b906000526020600020906006020160010160009054906101000a900473ffffffffffffffffffffffffffffffffffffffff1660178981548110151561189557fe5b906000526020600020906006020160020160009054906101000a900473ffffffffffffffffffffffffffffffffffffffff1660178a8154811015156118d657fe5b90600052602060002090600602016003015460178b8154811015156118f757fe5b906000526020600020906006020160040160178c81548110151561191757fe5b906000526020600020906006020160050160009054906101000a900473ffffffffffffffffffffffffffffffffffffffff16858054600181600116156101000203166002900480601f0160208091040260200160405190810160405280929190818152602001828054600181600116156101000203166002900480156119de5780601f106119b3576101008083540402835291602001916119de565b820191906000526020600020905b8154815290600101906020018083116119c157829003601f168201915b50505050509550818054600181600116156101000203166002900480601f016020809104026020016040519081016040528092919081815260200182805460018160011615610100020316600290048015611a7a5780601f10611a4f57610100808354040283529160200191611a7a565b820191906000526020600020905b815481529060010190602001808311611a5d57829003601f168201915b5050505050915095509550955095509550955091939550919395565b80611aa133826136ea565b1515611aac57600080fd5b600073ffffffffffffffffffffffffffffffffffffffff168473ffffffffffffffffffffffffffffffffffffffff1614151515611ae857600080fd5b600073ffffffffffffffffffffffffffffffffffffffff168373ffffffffffffffffffffffffffffffffffffffff1614151515611b2457600080fd5b611b2e848361377f565b611b3884836138e8565b611b428383613b03565b8273ffffffffffffffffffffffffffffffffffffffff168473ffffffffffffffffffffffffffffffffffffffff167fddf252ad1be2c89b69c2b068fc378daa952ba7f163c4a11628f55a4df523b3ef846040518082815260200191505060405180910390a350505050565b6000611bb88361224b565b82101515611bc557600080fd5b600660008473ffffffffffffffffffffffffffffffffffffffff1673ffffffffffffffffffffffffffffffffffffffff16815260200190815260200160002082815481101515611c1157fe5b906000526020600020900154905092915050565b600b5481565b601060009054906101000a900473ffffffffffffffffffffffffffffffffffffffff1673ffffffffffffffffffffffffffffffffffffffff163373ffffffffffffffffffffffffffffffffffffffff16141515611c8757600080fd5b601460009054906101000a900460ff161515611ca257600080fd5b6000601460006101000a81548160ff0219169083151502179055507f7805862f689e2f13df9f062ff482ad3ad112aca9e0847911ed832e158c525b3360405160405180910390a1565b80611cf633826136ea565b1515611d0157600080fd5b611d1d848484602060405190810160405280600081525061322d565b50505050565b60008060003392506000600d60008573ffffffffffffffffffffffffffffffffffffffff1673ffffffffffffffffffffffffffffffffffffffff16815260200190815260200160002054111515611d7957600080fd5b611da5600c543073ffffffffffffffffffffffffffffffffffffffff1631613bd790919063ffffffff16565b9150611e5e600e60008573ffffffffffffffffffffffffffffffffffffffff1673ffffffffffffffffffffffffffffffffffffffff16815260200190815260200160002054611e50600b54611e42600d60008973ffffffffffffffffffffffffffffffffffffffff1673ffffffffffffffffffffffffffffffffffffffff1681526020019081526020016000205487613bf590919063ffffffff16565b613c3090919063ffffffff16565b613c4b90919063ffffffff16565b905060008114151515611e7057600080fd5b803073ffffffffffffffffffffffffffffffffffffffff163110151515611e9657600080fd5b611ee881600e60008673ffffffffffffffffffffffffffffffffffffffff1673ffffffffffffffffffffffffffffffffffffffff16815260200190815260200160002054613bd790919063ffffffff16565b600e60008573ffffffffffffffffffffffffffffffffffffffff1673ffffffffffffffffffffffffffffffffffffffff16815260200190815260200160002081905550611f4081600c54613bd790919063ffffffff16565b600c819055508273ffffffffffffffffffffffffffffffffffffffff166108fc829081150290604051600060405180830381858888f193505050501515611f8657600080fd5b505050565b60008060008084815260200190815260200160002060009054906101000a900473ffffffffffffffffffffffffffffffffffffffff169050600073ffffffffffffffffffffffffffffffffffffffff168173ffffffffffffffffffffffffffffffffffffffff161415915050919050565b6000612006611801565b8210151561201357600080fd5b60088281548110151561202257fe5b9060005260206000209001549050919050565b60128054600181600116156101000203166002900480601f0160208091040260200160405190810160405280929190818152602001828054600181600116156101000203166002900480156120cb5780601f106120a0576101008083540402835291602001916120cb565b820191906000526020600020905b8154815290600101906020018083116120ae57829003601f168201915b505050505081565b601460009054906101000a900460ff1681565b600f818154811015156120f557fe5b90600052602060002090016000915054906101000a900473ffffffffffffffffffffffffffffffffffffffff1681565b60178181548110151561213457fe5b906000526020600020906006020160009150905080600001908060010160009054906101000a900473ffffffffffffffffffffffffffffffffffffffff16908060020160009054906101000a900473ffffffffffffffffffffffffffffffffffffffff169080600301549080600401908060050160009054906101000a900473ffffffffffffffffffffffffffffffffffffffff16905086565b60008060008084815260200190815260200160002060009054906101000a900473ffffffffffffffffffffffffffffffffffffffff169050600073ffffffffffffffffffffffffffffffffffffffff168173ffffffffffffffffffffffffffffffffffffffff161415151561224257600080fd5b80915050919050565b60008073ffffffffffffffffffffffffffffffffffffffff168273ffffffffffffffffffffffffffffffffffffffff161415151561228857600080fd5b600260008373ffffffffffffffffffffffffffffffffffffffff1673ffffffffffffffffffffffffffffffffffffffff168152602001908152602001600020549050919050565b6000601060009054906101000a900473ffffffffffffffffffffffffffffffffffffffff1673ffffffffffffffffffffffffffffffffffffffff163373ffffffffffffffffffffffffffffffffffffffff1614151561232d57600080fd5b600f8381548110151561233c57fe5b906000526020600020900160009054906101000a900473ffffffffffffffffffffffffffffffffffffffff169050600d60008273ffffffffffffffffffffffffffffffffffffffff1673ffffffffffffffffffffffffffffffffffffffff16815260200190815260200160002054600d60008473ffffffffffffffffffffffffffffffffffffffff1673ffffffffffffffffffffffffffffffffffffffff16815260200190815260200160002081905550600e60008273ffffffffffffffffffffffffffffffffffffffff1673ffffffffffffffffffffffffffffffffffffffff16815260200190815260200160002054600e60008473ffffffffffffffffffffffffffffffffffffffff1673ffffffffffffffffffffffffffffffffffffffff1681526020019081526020016000208190555081600f8481548110151561248057fe5b906000526020600020900160006101000a81548173ffffffffffffffffffffffffffffffffffffffff021916908373ffffffffffffffffffffffffffffffffffffffff160217905550600d60008273ffffffffffffffffffffffffffffffffffffffff1673ffffffffffffffffffffffffffffffffffffffff16815260200190815260200160002060009055600e60008273ffffffffffffffffffffffffffffffffffffffff1673ffffffffffffffffffffffffffffffffffffffff168152602001908152602001600020600090557fa1982f3fe3fa9dba8ce5bc91687e2ab0850b0431cddacc1a249b2ae0390b912f838284604051808481526020018373ffffffffffffffffffffffffffffffffffffffff1673ffffffffffffffffffffffffffffffffffffffff1681526020018273ffffffffffffffffffffffffffffffffffffffff1673ffffffffffffffffffffffffffffffffffffffff168152602001935050505060405180910390a1505050565b601060009054906101000a900473ffffffffffffffffffffffffffffffffffffffff1673ffffffffffffffffffffffffffffffffffffffff163373ffffffffffffffffffffffffffffffffffffffff1614151561264f57600080fd5b601060009054906101000a900473ffffffffffffffffffffffffffffffffffffffff1673ffffffffffffffffffffffffffffffffffffffff16ff5b601060009054906101000a900473ffffffffffffffffffffffffffffffffffffffff1673ffffffffffffffffffffffffffffffffffffffff163373ffffffffffffffffffffffffffffffffffffffff161415156126e657600080fd5b601460009054906101000a900460ff1615151561270257600080fd5b6001601460006101000a81548160ff0219169083151502179055507f6985a02210a168e66602d3235cb6db0e70f92b3ba4d376a33c0f3d9434bff62560405160405180910390a1565b601060009054906101000a900473ffffffffffffffffffffffffffffffffffffffff1673ffffffffffffffffffffffffffffffffffffffff163373ffffffffffffffffffffffffffffffffffffffff161415156127a757600080fd5b8181601291906127b89291906143a4565b507f6362a59ae98fef1a0a45d03a1127a82c2268ca380148117a052b9f8bce8e6f1e8282604051808060200182810382528484828181526020019250808284378201915050935050505060405180910390a15050565b601060009054906101000a900473ffffffffffffffffffffffffffffffffffffffff1681565b61283c614390565b60058054600181600116156101000203166002900480601f0160208091040260200160405190810160405280929190818152602001828054600181600116156101000203166002900480156128d25780601f106128a7576101008083540402835291602001916128d2565b820191906000526020600020905b8154815290600101906020018083116128b557829003601f168201915b5050505050905090565b600e6020528060005260406000206000915090505481565b3373ffffffffffffffffffffffffffffffffffffffff168273ffffffffffffffffffffffffffffffffffffffff161415151561292f57600080fd5b80600360003373ffffffffffffffffffffffffffffffffffffffff1673ffffffffffffffffffffffffffffffffffffffff16815260200190815260200160002060008473ffffffffffffffffffffffffffffffffffffffff1673ffffffffffffffffffffffffffffffffffffffff16815260200190815260200160002060006101000a81548160ff0219169083151502179055508173ffffffffffffffffffffffffffffffffffffffff163373ffffffffffffffffffffffffffffffffffffffff167f17307eab39ab6107e8899845ad3d59bd9653f200f220920489ca2b5937696c3183604051808215151515815260200191505060405180910390a35050565b6040805190810160405280600981526020017f434841494e47454152000000000000000000000000000000000000000000000081525081565b6000806000601460009054906101000a900460ff16151515612a8a57600080fd5b3373ffffffffffffffffffffffffffffffffffffffff16612aaa856121ce565b73ffffffffffffffffffffffffffffffffffffffff16141515612acc57600080fd5b60096000858152602001908152602001600020549250612afb6001601780549050613c4b90919063ffffffff16565b9150601782815481101515612b0c57fe5b9060005260206000209060060201905080601784815481101515612b2c57fe5b906000526020600020906006020160008201816000019080546001816001161561010002031660029004612b61929190614424565b506001820160009054906101000a900473ffffffffffffffffffffffffffffffffffffffff168160010160006101000a81548173ffffffffffffffffffffffffffffffffffffffff021916908373ffffffffffffffffffffffffffffffffffffffff1602179055506002820160009054906101000a900473ffffffffffffffffffffffffffffffffffffffff168160020160006101000a81548173ffffffffffffffffffffffffffffffffffffffff021916908373ffffffffffffffffffffffffffffffffffffffff1602179055506003820154816003015560048201816004019080546001816001161561010002031660029004612c61929190614424565b506005820160009054906101000a900473ffffffffffffffffffffffffffffffffffffffff168160050160006101000a81548173ffffffffffffffffffffffffffffffffffffffff021916908373ffffffffffffffffffffffffffffffffffffffff160217905550905050601782815481101515612cdb57fe5b906000526020600020906006020160008082016000612cfa91906144ab565b6001820160006101000a81549073ffffffffffffffffffffffffffffffffffffffff02191690556002820160006101000a81549073ffffffffffffffffffffffffffffffffffffffff02191690556003820160009055600482016000612d6091906144ab565b6005820160006101000a81549073ffffffffffffffffffffffffffffffffffffffff021916905550506017805480919060019003612d9e91906144f3565b50612da93385613c64565b7f5cc96736b6deb09792495249594855a7dbaa977d5552f543ab842d284e2733cc3385604051808373ffffffffffffffffffffffffffffffffffffffff1673ffffffffffffffffffffffffffffffffffffffff1681526020018281526020019250505060405180910390a150505050565b601060009054906101000a900473ffffffffffffffffffffffffffffffffffffffff1673ffffffffffffffffffffffffffffffffffffffff163373ffffffffffffffffffffffffffffffffffffffff16141515612e7657600080fd5b818160119190612e879291906143a4565b507f97bc322e754962c4ff23eb8a9d58b147ead5be0347d9a799addc5a2d44564cbe8282604051808060200182810382528484828181526020019250808284378201915050935050505060405180910390a15050565b601060009054906101000a900473ffffffffffffffffffffffffffffffffffffffff1673ffffffffffffffffffffffffffffffffffffffff163373ffffffffffffffffffffffffffffffffffffffff16141515612f3957600080fd5b8060168190555050565b6000612f4d614525565b6000601460009054906101000a900460ff16151515612f6b57600080fd5b60165434141515612f7b57600080fd5b60c0604051908101604052808781526020018573ffffffffffffffffffffffffffffffffffffffff1681526020013373ffffffffffffffffffffffffffffffffffffffff1681526020014281526020018681526020013373ffffffffffffffffffffffffffffffffffffffff16815250915060016017805480600101828161300391906145aa565b9160005260206000209060060201600085909190915060008201518160000190805190602001906130359291906145dc565b5060208201518160010160006101000a81548173ffffffffffffffffffffffffffffffffffffffff021916908373ffffffffffffffffffffffffffffffffffffffff16021790555060408201518160020160006101000a81548173ffffffffffffffffffffffffffffffffffffffff021916908373ffffffffffffffffffffffffffffffffffffffff1602179055506060820151816003015560808201518160040190805190602001906130ea9291906145dc565b5060a08201518160050160006101000a81548173ffffffffffffffffffffffffffffffffffffffff021916908373ffffffffffffffffffffffffffffffffffffffff16021790555050500390506131413382613d9f565b7f117374ab8f202ef124c02e124e63b8aa3fdaa980a3b914ece811536c16ad7748863360016017805490500360405180806020018473ffffffffffffffffffffffffffffffffffffffff1673ffffffffffffffffffffffffffffffffffffffff168152602001838152602001828103825285818151815260200191508051906020019080838360005b838110156131e55780820151818401526020810190506131ca565b50505050905090810190601f1680156132125780820380516001836020036101000a031916815260200191505b5094505050505060405180910390a182925050509392505050565b8161323833826136ea565b151561324357600080fd5b61324e858585611a96565b61325a85858585613df3565b151561326557600080fd5b5050505050565b613274614390565b61327d82611f8b565b151561328857600080fd5b600a60008381526020019081526020016000208054600181600116156101000203166002900480601f01602080910402602001604051908101604052809291908181526020018280546001816001161561010002031660029004801561332f5780601f106133045761010080835404028352916020019161332f565b820191906000526020600020905b81548152906001019060200180831161331257829003601f168201915b50505050509050919050565b600d6020528060005260406000206000915090505481565b60118054600181600116156101000203166002900480601f0160208091040260200160405190810160405280929190818152602001828054600181600116156101000203166002900480156133e95780601f106133be576101008083540402835291602001916133e9565b820191906000526020600020905b8154815290600101906020018083116133cc57829003601f168201915b505050505081565b600c5481565b6000601060009054906101000a900473ffffffffffffffffffffffffffffffffffffffff1673ffffffffffffffffffffffffffffffffffffffff163373ffffffffffffffffffffffffffffffffffffffff1614151561345557600080fd5b828290509050610100811115151561346c57600080fd5b82826015919061347d9291906143a4565b50505050565b6000600360008473ffffffffffffffffffffffffffffffffffffffff1673ffffffffffffffffffffffffffffffffffffffff16815260200190815260200160002060008373ffffffffffffffffffffffffffffffffffffffff1673ffffffffffffffffffffffffffffffffffffffff16815260200190815260200160002060009054906101000a900460ff16905092915050565b60165481565b601060009054906101000a900473ffffffffffffffffffffffffffffffffffffffff1673ffffffffffffffffffffffffffffffffffffffff163373ffffffffffffffffffffffffffffffffffffffff1614151561357957600080fd5b600073ffffffffffffffffffffffffffffffffffffffff168173ffffffffffffffffffffffffffffffffffffffff16141515156135b557600080fd5b8073ffffffffffffffffffffffffffffffffffffffff16601060009054906101000a900473ffffffffffffffffffffffffffffffffffffffff1673ffffffffffffffffffffffffffffffffffffffff167f8be0079c531659141344cd1fd0a4f28419497f9722a3daafe3b4186f6b6457e060405160405180910390a380601060006101000a81548173ffffffffffffffffffffffffffffffffffffffff021916908373ffffffffffffffffffffffffffffffffffffffff16021790555050565b601060009054906101000a900473ffffffffffffffffffffffffffffffffffffffff1673ffffffffffffffffffffffffffffffffffffffff163373ffffffffffffffffffffffffffffffffffffffff161415156136d157600080fd5b8073ffffffffffffffffffffffffffffffffffffffff16ff5b6000806136f6836121ce565b90508073ffffffffffffffffffffffffffffffffffffffff168473ffffffffffffffffffffffffffffffffffffffff16148061376557508373ffffffffffffffffffffffffffffffffffffffff1661374d846113ff565b73ffffffffffffffffffffffffffffffffffffffff16145b8061377657506137758185613483565b5b91505092915050565b8173ffffffffffffffffffffffffffffffffffffffff1661379f826121ce565b73ffffffffffffffffffffffffffffffffffffffff161415156137c157600080fd5b600073ffffffffffffffffffffffffffffffffffffffff166001600083815260200190815260200160002060009054906101000a900473ffffffffffffffffffffffffffffffffffffffff1673ffffffffffffffffffffffffffffffffffffffff161415156138e45760006001600083815260200190815260200160002060006101000a81548173ffffffffffffffffffffffffffffffffffffffff021916908373ffffffffffffffffffffffffffffffffffffffff160217905550600073ffffffffffffffffffffffffffffffffffffffff168273ffffffffffffffffffffffffffffffffffffffff167f8c5be1e5ebec7d5bd14f71427d1e84f3dd0314c0f7b2291e5b200ac8c7c3b925836040518082815260200191505060405180910390a35b5050565b60008060006138f78585613fc9565b600760008581526020019081526020016000205492506139636001600660008873ffffffffffffffffffffffffffffffffffffffff1673ffffffffffffffffffffffffffffffffffffffff16815260200190815260200160002080549050613c4b90919063ffffffff16565b9150600660008673ffffffffffffffffffffffffffffffffffffffff1673ffffffffffffffffffffffffffffffffffffffff168152602001908152602001600020828154811015156139b157fe5b906000526020600020900154905080600660008773ffffffffffffffffffffffffffffffffffffffff1673ffffffffffffffffffffffffffffffffffffffff16815260200190815260200160002084815481101515613a0c57fe5b9060005260206000209001819055506000600660008773ffffffffffffffffffffffffffffffffffffffff1673ffffffffffffffffffffffffffffffffffffffff16815260200190815260200160002083815481101515613a6957fe5b906000526020600020900181905550600660008673ffffffffffffffffffffffffffffffffffffffff1673ffffffffffffffffffffffffffffffffffffffff168152602001908152602001600020805480919060019003613aca919061465c565b50600060076000868152602001908152602001600020819055508260076000838152602001908152602001600020819055505050505050565b6000613b0f83836140f7565b600660008473ffffffffffffffffffffffffffffffffffffffff1673ffffffffffffffffffffffffffffffffffffffff168152602001908152602001600020805490509050600660008473ffffffffffffffffffffffffffffffffffffffff1673ffffffffffffffffffffffffffffffffffffffff1681526020019081526020016000208054806001018281613ba59190614688565b916000526020600020900160008490919091505550806007600084815260200190815260200160002081905550505050565b6000808284019050838110151515613beb57fe5b8091505092915050565b6000806000841415613c0a5760009150613c29565b8284029050828482811515613c1b57fe5b04141515613c2557fe5b8091505b5092915050565b6000808284811515613c3e57fe5b0490508091505092915050565b6000828211151515613c5957fe5b818303905092915050565b6000806000613c73858561424f565b6000600a6000868152602001908152602001600020805460018160011615610100020316600290049050141515613cc457600a60008581526020019081526020016000206000613cc391906144ab565b5b60096000858152602001908152602001600020549250613cf36001600880549050613c4b90919063ffffffff16565b9150600882815481101515613d0457fe5b906000526020600020900154905080600884815481101515613d2257fe5b9060005260206000209001819055506000600883815481101515613d4257fe5b9060005260206000209001819055506008805480919060019003613d66919061465c565b50600060096000868152602001908152602001600020819055508260096000838152602001908152602001600020819055505050505050565b613da982826142cd565b600880549050600960008381526020019081526020016000208190555060088054806001018281613dda9190614688565b9160005260206000209001600083909190915055505050565b600080613e158573ffffffffffffffffffffffffffffffffffffffff1661437d565b1515613e245760019150613fc0565b8473ffffffffffffffffffffffffffffffffffffffff1663f0b9e5ba8786866000604051602001526040518463ffffffff167c0100000000000000000000000000000000000000000000000000000000028152600401808473ffffffffffffffffffffffffffffffffffffffff1673ffffffffffffffffffffffffffffffffffffffff16815260200183815260200180602001828103825283818151815260200191508051906020019080838360005b83811015613eef578082015181840152602081019050613ed4565b50505050905090810190601f168015613f1c5780820380516001836020036101000a031916815260200191505b50945050505050602060405180830381600087803b1515613f3c57600080fd5b6102c65a03f11515613f4d57600080fd5b50505060405180519050905063f0b9e5ba7c0100000000000000000000000000000000000000000000000000000000027bffffffffffffffffffffffffffffffffffffffffffffffffffffffff1916817bffffffffffffffffffffffffffffffffffffffffffffffffffffffff19161491505b50949350505050565b8173ffffffffffffffffffffffffffffffffffffffff16613fe9826121ce565b73ffffffffffffffffffffffffffffffffffffffff1614151561400b57600080fd5b61405e6001600260008573ffffffffffffffffffffffffffffffffffffffff1673ffffffffffffffffffffffffffffffffffffffff16815260200190815260200160002054613c4b90919063ffffffff16565b600260008473ffffffffffffffffffffffffffffffffffffffff1673ffffffffffffffffffffffffffffffffffffffff16815260200190815260200160002081905550600080600083815260200190815260200160002060006101000a81548173ffffffffffffffffffffffffffffffffffffffff021916908373ffffffffffffffffffffffffffffffffffffffff1602179055505050565b600073ffffffffffffffffffffffffffffffffffffffff1660008083815260200190815260200160002060009054906101000a900473ffffffffffffffffffffffffffffffffffffffff1673ffffffffffffffffffffffffffffffffffffffff1614151561416457600080fd5b8160008083815260200190815260200160002060006101000a81548173ffffffffffffffffffffffffffffffffffffffff021916908373ffffffffffffffffffffffffffffffffffffffff1602179055506142086001600260008573ffffffffffffffffffffffffffffffffffffffff1673ffffffffffffffffffffffffffffffffffffffff16815260200190815260200160002054613bd790919063ffffffff16565b600260008473ffffffffffffffffffffffffffffffffffffffff1673ffffffffffffffffffffffffffffffffffffffff168152602001908152602001600020819055505050565b614259828261377f565b61426382826138e8565b600073ffffffffffffffffffffffffffffffffffffffff168273ffffffffffffffffffffffffffffffffffffffff167fddf252ad1be2c89b69c2b068fc378daa952ba7f163c4a11628f55a4df523b3ef836040518082815260200191505060405180910390a35050565b600073ffffffffffffffffffffffffffffffffffffffff168273ffffffffffffffffffffffffffffffffffffffff161415151561430957600080fd5b6143138282613b03565b8173ffffffffffffffffffffffffffffffffffffffff16600073ffffffffffffffffffffffffffffffffffffffff167fddf252ad1be2c89b69c2b068fc378daa952ba7f163c4a11628f55a4df523b3ef836040518082815260200191505060405180910390a35050565b600080823b905060008111915050919050565b602060405190810160405280600081525090565b828054600181600116156101000203166002900490600052602060002090601f016020900481019282601f106143e557803560ff1916838001178555614413565b82800160010185558215614413579182015b828111156144125782358255916020019190600101906143f7565b5b50905061442091906146b4565b5090565b828054600181600116156101000203166002900490600052602060002090601f016020900481019282601f1061445d578054855561449a565b8280016001018555821561449a57600052602060002091601f016020900482015b8281111561449957825482559160010191906001019061447e565b5b5090506144a791906146b4565b5090565b50805460018160011615610100020316600290046000825580601f106144d157506144f0565b601f0160209004906000526020600020908101906144ef91906146b4565b5b50565b8154818355818115116145205760060281600602836000526020600020918201910161451f91906146d9565b5b505050565b60c060405190810160405280614539614795565b8152602001600073ffffffffffffffffffffffffffffffffffffffff168152602001600073ffffffffffffffffffffffffffffffffffffffff16815260200160008152602001614587614795565b8152602001600073ffffffffffffffffffffffffffffffffffffffff1681525090565b8154818355818115116145d7576006028160060283600052602060002091820191016145d691906146d9565b5b505050565b828054600181600116156101000203166002900490600052602060002090601f016020900481019282601f1061461d57805160ff191683800117855561464b565b8280016001018555821561464b579182015b8281111561464a57825182559160200191906001019061462f565b5b50905061465891906146b4565b5090565b8154818355818115116146835781836000526020600020918201910161468291906146b4565b5b505050565b8154818355818115116146af578183600052602060002091820191016146ae91906146b4565b5b505050565b6146d691905b808211156146d25760008160009055506001016146ba565b5090565b90565b61479291905b8082111561478e57600080820160006146f891906144ab565b6001820160006101000a81549073ffffffffffffffffffffffffffffffffffffffff02191690556002820160006101000a81549073ffffffffffffffffffffffffffffffffffffffff0219169055600382016000905560048201600061475e91906144ab565b6005820160006101000a81549073ffffffffffffffffffffffffffffffffffffffff0219169055506006016146df565b5090565b90565b602060405190810160405280600081525090565b600073ffffffffffffffffffffffffffffffffffffffff168273ffffffffffffffffffffffffffffffffffffffff16141515156147e557600080fd5b6000811115156147f457600080fd5b6000600d60008473ffffffffffffffffffffffffffffffffffffffff1673ffffffffffffffffffffffffffffffffffffffff1681526020019081526020016000205414151561484257600080fd5b600f80548060010182816148569190614908565b9160005260206000209001600084909190916101000a81548173ffffffffffffffffffffffffffffffffffffffff021916908373ffffffffffffffffffffffffffffffffffffffff1602179055505080600d60008473ffffffffffffffffffffffffffffffffffffffff1673ffffffffffffffffffffffffffffffffffffffff168152602001908152602001600020819055506148fe81600b54613bd790919063ffffffff16565b600b819055505050565b81548183558181151161492f5781836000526020600020918201910161492e91906146b4565b5b5050505600a165627a7a72305820345a3102a9079b9a6ac490257f171f48c46423fa14610179487ab59be9f4fceb0029",
  "source": "pragma solidity ^0.4.18;\n\nimport \"zeppelin-solidity/contracts/lifecycle/Destructible.sol\";\nimport \"zeppelin-solidity/contracts/lifecycle/Pausable.sol\";\nimport \"zeppelin-solidity/contracts/ownership/Ownable.sol\";\nimport \"zeppelin-solidity/contracts/token/ERC721/ERC721Token.sol\";\nimport \"zeppelin-solidity/contracts/math/SafeMath.sol\";\nimport \"zeppelin-solidity/contracts/AddressUtils.sol\";\nimport \"./common/SplitPaymentChangeable.sol\";\nimport \"./common/IPFSeable.sol\";\n\n\ncontract Chaingear is ERC721Token, Ownable, IPFSeable, Pausable, Destructible, SplitPaymentChangeable {\n\n    using SafeMath for uint256;\n    using AddressUtils for address;\n\n    struct Registry {\n        string name;\n        address contractAddress;\n        address creator;\n        uint registrationTimestamp;\n        string linkABI;\n        address owner;\n    }\n\n    string constant public NAME = \"CHAINGEAR\";\n    string public chaingearDescription_;\n    uint public registryRegistrationFee_;\n\n    Registry[] public registries;\n\n    event RegistryRegistered(string name, address creator, uint entryId);\n    event RegistryUnregistered(address owner, uint registryId);\n\n\n    function Chaingear(\n        address[] _benefitiaries,\n        uint256[] _shares,\n        string _description,\n        string _linkABI,\n        uint _registrationFee,\n        string _chaingearSymbol\n    ) SplitPaymentChangeable(_benefitiaries, _shares) ERC721Token(NAME, _chaingearSymbol) public\n    {\n        registryRegistrationFee_ = _registrationFee;\n        chaingearDescription_ = _description;\n        linkABI_ = _linkABI;\n    }\n\n    function registerRegistry(string _registryName, string _linkABI, address _registryAddress) public payable whenNotPaused returns (uint256 registryId) {\n        require(msg.value == registryRegistrationFee_);\n        // checkInterface(_registryAddress)\n\n        Registry memory registry = (Registry(\n        {\n            name: _registryName,\n            contractAddress: _registryAddress,\n            creator: msg.sender,\n            linkABI: _linkABI,\n            registrationTimestamp: now,\n            owner: msg.sender\n        }));\n        uint256 newRegistryId = registries.push(registry) - 1;\n        ERC721Token._mint(msg.sender, newRegistryId);\n        RegistryRegistered(_registryName, msg.sender, registries.length - 1);\n        return registryId;\n    }\n\n    function unregisterRegistry(uint256 _registryID) external whenNotPaused {\n        require (ERC721BasicToken.ownerOf(_registryID) == msg.sender);\n\n        uint256 registryIndex = allTokensIndex[_registryID];\n        uint256 lastRegistryIndex = registries.length.sub(1);\n        Registry storage lastRegistry = registries[lastRegistryIndex];\n\n        registries[registryIndex] = lastRegistry;\n        delete registries[lastRegistryIndex];\n        registries.length--;\n\n        ERC721Token._burn(msg.sender, _registryID);\n\n        //rethink this event\n        RegistryUnregistered(msg.sender, _registryID);\n    }\n\n    function getRegistry(uint256 _registryID) constant public returns (string name, address contractAddress, address creator, uint registrationTimestamp, string linkABI, address owner) {\n        return (\n            registries[_registryID].name,\n            registries[_registryID].contractAddress,\n            registries[_registryID].creator,\n            registries[_registryID].registrationTimestamp,\n            registries[_registryID].linkABI,\n            registries[_registryID].owner\n        );\n    }\n\n    function updateRegistrationFee(uint _fee) external onlyOwner {\n        registryRegistrationFee_ = _fee;\n    }\n\n    /* function updateRegistryOwnership(address _owner) public returns (uint256 registryId) {\n\n    } */\n\n    function updateDescription(string _description) external onlyOwner {\n        uint len = bytes(_description).length;\n        require(len <= 256);\n\n        chaingearDescription_ = _description;\n    }\n}\n",
  "sourcePath": "/Users/litvintech/Projects/chaingear/contracts/Chaingear.sol",
  "compiler": {
    "name": "solc",
    "version": "0.4.19+commit.c4cbbb05.Emscripten.clang"
  },
  "schemaVersion": "1.0.1",
  "updatedAt": "2018-04-06T10:29:06.560Z"
}