{
  "contractName": "Chaingear",
  "abi": [
    {
      "constant": true,
      "inputs": [
        {
          "name": "_registryID",
          "type": "uint256"
        }
      ],
      "name": "nameOf",
      "outputs": [
        {
          "name": "",
          "type": "string"
        }
      ],
      "payable": false,
      "stateMutability": "view",
      "type": "function"
    },
    {
      "constant": true,
      "inputs": [],
      "name": "name",
      "outputs": [
        {
          "name": "",
          "type": "string"
        }
      ],
      "payable": false,
      "stateMutability": "view",
      "type": "function"
    },
    {
      "constant": true,
      "inputs": [],
      "name": "linkSourceCode",
      "outputs": [
        {
          "name": "",
          "type": "string"
        }
      ],
      "payable": false,
      "stateMutability": "view",
      "type": "function"
    },
    {
      "constant": true,
      "inputs": [
        {
          "name": "_tokenId",
          "type": "uint256"
        }
      ],
      "name": "getApproved",
      "outputs": [
        {
          "name": "",
          "type": "address"
        }
      ],
      "payable": false,
      "stateMutability": "view",
      "type": "function"
    },
    {
      "constant": false,
      "inputs": [
        {
          "name": "_to",
          "type": "address"
        },
        {
          "name": "_tokenId",
          "type": "uint256"
        }
      ],
      "name": "approve",
      "outputs": [],
      "payable": false,
      "stateMutability": "nonpayable",
      "type": "function"
    },
    {
      "constant": true,
      "inputs": [],
      "name": "totalSupply",
      "outputs": [
        {
          "name": "",
          "type": "uint256"
        }
      ],
      "payable": false,
      "stateMutability": "view",
      "type": "function"
    },
    {
      "constant": false,
      "inputs": [
        {
          "name": "_from",
          "type": "address"
        },
        {
          "name": "_to",
          "type": "address"
        },
        {
          "name": "_tokenId",
          "type": "uint256"
        }
      ],
      "name": "transferFrom",
      "outputs": [],
      "payable": false,
      "stateMutability": "nonpayable",
      "type": "function"
    },
    {
      "constant": true,
      "inputs": [
        {
          "name": "_owner",
          "type": "address"
        },
        {
          "name": "_index",
          "type": "uint256"
        }
      ],
      "name": "tokenOfOwnerByIndex",
      "outputs": [
        {
          "name": "",
          "type": "uint256"
        }
      ],
      "payable": false,
      "stateMutability": "view",
      "type": "function"
    },
    {
      "constant": true,
      "inputs": [
        {
          "name": "_registryID",
          "type": "uint256"
        }
      ],
      "name": "registryInfo",
      "outputs": [
        {
          "name": "",
          "type": "string"
        },
        {
          "name": "",
          "type": "address"
        },
        {
          "name": "",
          "type": "address"
        },
        {
          "name": "",
          "type": "uint256"
        },
        {
          "name": "",
          "type": "string"
        },
        {
          "name": "",
          "type": "address"
        },
        {
          "name": "",
          "type": "bytes32"
        }
      ],
      "payable": false,
      "stateMutability": "view",
      "type": "function"
    },
    {
      "constant": true,
      "inputs": [],
      "name": "totalShares",
      "outputs": [
        {
          "name": "",
          "type": "uint256"
        }
      ],
      "payable": false,
      "stateMutability": "view",
      "type": "function"
    },
    {
      "constant": false,
      "inputs": [],
      "name": "unpause",
      "outputs": [],
      "payable": false,
      "stateMutability": "nonpayable",
      "type": "function"
    },
    {
      "constant": false,
      "inputs": [
        {
          "name": "_from",
          "type": "address"
        },
        {
          "name": "_to",
          "type": "address"
        },
        {
          "name": "_tokenId",
          "type": "uint256"
        }
      ],
      "name": "safeTransferFrom",
      "outputs": [],
      "payable": false,
      "stateMutability": "nonpayable",
      "type": "function"
    },
    {
      "constant": true,
      "inputs": [],
      "name": "linkMeta",
      "outputs": [
        {
          "name": "",
          "type": "string"
        }
      ],
      "payable": false,
      "stateMutability": "view",
      "type": "function"
    },
    {
      "constant": false,
      "inputs": [],
      "name": "claim",
      "outputs": [],
      "payable": false,
      "stateMutability": "nonpayable",
      "type": "function"
    },
    {
      "constant": true,
      "inputs": [
        {
          "name": "_tokenId",
          "type": "uint256"
        }
      ],
      "name": "exists",
      "outputs": [
        {
          "name": "",
          "type": "bool"
        }
      ],
      "payable": false,
      "stateMutability": "view",
      "type": "function"
    },
    {
      "constant": true,
      "inputs": [
        {
          "name": "_index",
          "type": "uint256"
        }
      ],
      "name": "tokenByIndex",
      "outputs": [
        {
          "name": "",
          "type": "uint256"
        }
      ],
      "payable": false,
      "stateMutability": "view",
      "type": "function"
    },
    {
      "constant": true,
      "inputs": [],
      "name": "registriesAmount",
      "outputs": [
        {
          "name": "",
          "type": "uint256"
        }
      ],
      "payable": false,
      "stateMutability": "view",
      "type": "function"
    },
    {
      "constant": true,
      "inputs": [
        {
          "name": "_registryID",
          "type": "uint256"
        }
      ],
      "name": "creatorOf",
      "outputs": [
        {
          "name": "",
          "type": "address"
        }
      ],
      "payable": false,
      "stateMutability": "view",
      "type": "function"
    },
    {
      "constant": true,
      "inputs": [],
      "name": "paused",
      "outputs": [
        {
          "name": "",
          "type": "bool"
        }
      ],
      "payable": false,
      "stateMutability": "view",
      "type": "function"
    },
    {
      "constant": true,
      "inputs": [
        {
          "name": "",
          "type": "uint256"
        }
      ],
      "name": "payees",
      "outputs": [
        {
          "name": "",
          "type": "address"
        }
      ],
      "payable": false,
      "stateMutability": "view",
      "type": "function"
    },
    {
      "constant": true,
      "inputs": [
        {
          "name": "_tokenId",
          "type": "uint256"
        }
      ],
      "name": "ownerOf",
      "outputs": [
        {
          "name": "",
          "type": "address"
        }
      ],
      "payable": false,
      "stateMutability": "view",
      "type": "function"
    },
    {
      "constant": false,
      "inputs": [
        {
          "name": "_linkMeta",
          "type": "string"
        }
      ],
      "name": "setMetaLink",
      "outputs": [],
      "payable": false,
      "stateMutability": "nonpayable",
      "type": "function"
    },
    {
      "constant": true,
      "inputs": [
        {
          "name": "_owner",
          "type": "address"
        }
      ],
      "name": "balanceOf",
      "outputs": [
        {
          "name": "",
          "type": "uint256"
        }
      ],
      "payable": false,
      "stateMutability": "view",
      "type": "function"
    },
    {
      "constant": false,
      "inputs": [
        {
          "name": "_payeeIndex",
          "type": "uint256"
        },
        {
          "name": "_newAddress",
          "type": "address"
        }
      ],
      "name": "changePayeeAddress",
      "outputs": [],
      "payable": false,
      "stateMutability": "nonpayable",
      "type": "function"
    },
    {
      "constant": false,
      "inputs": [],
      "name": "destroy",
      "outputs": [],
      "payable": false,
      "stateMutability": "nonpayable",
      "type": "function"
    },
    {
      "constant": false,
      "inputs": [
        {
          "name": "_linkSourceCode",
          "type": "string"
        }
      ],
      "name": "setSourceLink",
      "outputs": [],
      "payable": false,
      "stateMutability": "nonpayable",
      "type": "function"
    },
    {
      "constant": false,
      "inputs": [],
      "name": "pause",
      "outputs": [],
      "payable": false,
      "stateMutability": "nonpayable",
      "type": "function"
    },
    {
      "constant": true,
      "inputs": [],
      "name": "owner",
      "outputs": [
        {
          "name": "",
          "type": "address"
        }
      ],
      "payable": false,
      "stateMutability": "view",
      "type": "function"
    },
    {
      "constant": true,
      "inputs": [
        {
          "name": "_registryID",
          "type": "uint256"
        }
      ],
      "name": "registryDateOf",
      "outputs": [
        {
          "name": "",
          "type": "uint256"
        }
      ],
      "payable": false,
      "stateMutability": "view",
      "type": "function"
    },
    {
      "constant": true,
      "inputs": [],
      "name": "symbol",
      "outputs": [
        {
          "name": "",
          "type": "string"
        }
      ],
      "payable": false,
      "stateMutability": "view",
      "type": "function"
    },
    {
      "constant": true,
      "inputs": [
        {
          "name": "",
          "type": "address"
        }
      ],
      "name": "released",
      "outputs": [
        {
          "name": "",
          "type": "uint256"
        }
      ],
      "payable": false,
      "stateMutability": "view",
      "type": "function"
    },
    {
      "constant": true,
      "inputs": [],
      "name": "linkABI",
      "outputs": [
        {
          "name": "",
          "type": "string"
        }
      ],
      "payable": false,
      "stateMutability": "view",
      "type": "function"
    },
    {
      "constant": false,
      "inputs": [
        {
          "name": "_to",
          "type": "address"
        },
        {
          "name": "_approved",
          "type": "bool"
        }
      ],
      "name": "setApprovalForAll",
      "outputs": [],
      "payable": false,
      "stateMutability": "nonpayable",
      "type": "function"
    },
    {
      "constant": true,
      "inputs": [
        {
          "name": "_registryID",
          "type": "uint256"
        }
      ],
      "name": "versionOf",
      "outputs": [
        {
          "name": "",
          "type": "bytes32"
        }
      ],
      "payable": false,
      "stateMutability": "view",
      "type": "function"
    },
    {
      "constant": false,
      "inputs": [
        {
          "name": "_linkABI",
          "type": "string"
        }
      ],
      "name": "updateABILink",
      "outputs": [],
      "payable": false,
      "stateMutability": "nonpayable",
      "type": "function"
    },
    {
      "constant": false,
      "inputs": [
        {
          "name": "_from",
          "type": "address"
        },
        {
          "name": "_to",
          "type": "address"
        },
        {
          "name": "_tokenId",
          "type": "uint256"
        },
        {
          "name": "_data",
          "type": "bytes"
        }
      ],
      "name": "safeTransferFrom",
      "outputs": [],
      "payable": false,
      "stateMutability": "nonpayable",
      "type": "function"
    },
    {
      "constant": true,
      "inputs": [
        {
          "name": "_registryID",
          "type": "uint256"
        }
      ],
      "name": "registryOwnerOf",
      "outputs": [
        {
          "name": "",
          "type": "address"
        }
      ],
      "payable": false,
      "stateMutability": "view",
      "type": "function"
    },
    {
      "constant": true,
      "inputs": [
        {
          "name": "_tokenId",
          "type": "uint256"
        }
      ],
      "name": "tokenURI",
      "outputs": [
        {
          "name": "",
          "type": "string"
        }
      ],
      "payable": false,
      "stateMutability": "view",
      "type": "function"
    },
    {
      "constant": true,
      "inputs": [
        {
          "name": "_registryID",
          "type": "uint256"
        }
      ],
      "name": "ABILinkOf",
      "outputs": [
        {
          "name": "",
          "type": "string"
        }
      ],
      "payable": false,
      "stateMutability": "view",
      "type": "function"
    },
    {
      "constant": true,
      "inputs": [
        {
          "name": "",
          "type": "address"
        }
      ],
      "name": "shares",
      "outputs": [
        {
          "name": "",
          "type": "uint256"
        }
      ],
      "payable": false,
      "stateMutability": "view",
      "type": "function"
    },
    {
      "constant": true,
      "inputs": [],
      "name": "totalReleased",
      "outputs": [
        {
          "name": "",
          "type": "uint256"
        }
      ],
      "payable": false,
      "stateMutability": "view",
      "type": "function"
    },
    {
      "constant": true,
      "inputs": [
        {
          "name": "_owner",
          "type": "address"
        },
        {
          "name": "_operator",
          "type": "address"
        }
      ],
      "name": "isApprovedForAll",
      "outputs": [
        {
          "name": "",
          "type": "bool"
        }
      ],
      "payable": false,
      "stateMutability": "view",
      "type": "function"
    },
    {
      "constant": false,
      "inputs": [
        {
          "name": "newOwner",
          "type": "address"
        }
      ],
      "name": "transferOwnership",
      "outputs": [],
      "payable": false,
      "stateMutability": "nonpayable",
      "type": "function"
    },
    {
      "constant": false,
      "inputs": [
        {
          "name": "_recipient",
          "type": "address"
        }
      ],
      "name": "destroyAndSend",
      "outputs": [],
      "payable": false,
      "stateMutability": "nonpayable",
      "type": "function"
    },
    {
      "constant": true,
      "inputs": [
        {
          "name": "_registryID",
          "type": "uint256"
        }
      ],
      "name": "contractAddressOf",
      "outputs": [
        {
          "name": "",
          "type": "address"
        }
      ],
      "payable": false,
      "stateMutability": "view",
      "type": "function"
    },
    {
      "inputs": [
        {
          "name": "_benefitiaries",
          "type": "address[]"
        },
        {
          "name": "_shares",
          "type": "uint256[]"
        },
        {
          "name": "_description",
          "type": "string"
        },
        {
          "name": "_linkABI",
          "type": "string"
        },
        {
          "name": "_registrationFee",
          "type": "uint256"
        },
        {
          "name": "_chaingearName",
          "type": "string"
        },
        {
          "name": "_chaingearSymbol",
          "type": "string"
        }
      ],
      "payable": true,
      "stateMutability": "payable",
      "type": "constructor"
    },
    {
      "payable": true,
      "stateMutability": "payable",
      "type": "fallback"
    },
    {
      "anonymous": false,
      "inputs": [
        {
          "indexed": false,
          "name": "payeeIndex",
          "type": "uint256"
        },
        {
          "indexed": false,
          "name": "oldAddress",
          "type": "address"
        },
        {
          "indexed": false,
          "name": "newAddress",
          "type": "address"
        }
      ],
      "name": "PayeeAddressChanged",
      "type": "event"
    },
    {
      "anonymous": false,
      "inputs": [
        {
          "indexed": false,
          "name": "linkMeta",
          "type": "string"
        }
      ],
      "name": "MetaLinkUpdated",
      "type": "event"
    },
    {
      "anonymous": false,
      "inputs": [
        {
          "indexed": false,
          "name": "linkABI",
          "type": "string"
        }
      ],
      "name": "ABILinkUpdated",
      "type": "event"
    },
    {
      "anonymous": false,
      "inputs": [
        {
          "indexed": false,
          "name": "linkSource",
          "type": "string"
        }
      ],
      "name": "SourceLinkUpdated",
      "type": "event"
    },
    {
      "anonymous": false,
      "inputs": [
        {
          "indexed": true,
          "name": "_from",
          "type": "address"
        },
        {
          "indexed": true,
          "name": "_to",
          "type": "address"
        },
        {
          "indexed": false,
          "name": "_tokenId",
          "type": "uint256"
        }
      ],
      "name": "Transfer",
      "type": "event"
    },
    {
      "anonymous": false,
      "inputs": [
        {
          "indexed": true,
          "name": "_owner",
          "type": "address"
        },
        {
          "indexed": true,
          "name": "_approved",
          "type": "address"
        },
        {
          "indexed": false,
          "name": "_tokenId",
          "type": "uint256"
        }
      ],
      "name": "Approval",
      "type": "event"
    },
    {
      "anonymous": false,
      "inputs": [
        {
          "indexed": true,
          "name": "_owner",
          "type": "address"
        },
        {
          "indexed": true,
          "name": "_operator",
          "type": "address"
        },
        {
          "indexed": false,
          "name": "_approved",
          "type": "bool"
        }
      ],
      "name": "ApprovalForAll",
      "type": "event"
    },
    {
      "anonymous": false,
      "inputs": [
        {
          "indexed": false,
          "name": "name",
          "type": "string"
        },
        {
          "indexed": false,
          "name": "creator",
          "type": "address"
        },
        {
          "indexed": false,
          "name": "registryId",
          "type": "uint256"
        }
      ],
      "name": "RegistryRegistered",
      "type": "event"
    },
    {
      "anonymous": false,
      "inputs": [
        {
          "indexed": false,
          "name": "owner",
          "type": "address"
        },
        {
          "indexed": false,
          "name": "registryName",
          "type": "string"
        }
      ],
      "name": "RegistryUnregistered",
      "type": "event"
    },
    {
      "anonymous": false,
      "inputs": [
        {
          "indexed": false,
          "name": "caller",
          "type": "address"
        },
        {
          "indexed": false,
          "name": "registryName",
          "type": "string"
        },
        {
          "indexed": false,
          "name": "newOwner",
          "type": "address"
        }
      ],
      "name": "RegistryTransferred",
      "type": "event"
    },
    {
      "anonymous": false,
      "inputs": [],
      "name": "Pause",
      "type": "event"
    },
    {
      "anonymous": false,
      "inputs": [],
      "name": "Unpause",
      "type": "event"
    },
    {
      "anonymous": false,
      "inputs": [
        {
          "indexed": true,
          "name": "previousOwner",
          "type": "address"
        },
        {
          "indexed": true,
          "name": "newOwner",
          "type": "address"
        }
      ],
      "name": "OwnershipTransferred",
      "type": "event"
    },
    {
      "constant": false,
      "inputs": [
        {
          "name": "_registryName",
          "type": "string"
        },
        {
          "name": "_linkABI",
          "type": "string"
        },
        {
          "name": "_registryAddress",
          "type": "address"
        }
      ],
      "name": "registerRegistry",
      "outputs": [
        {
          "name": "registryId",
          "type": "uint256"
        }
      ],
      "payable": true,
      "stateMutability": "payable",
      "type": "function"
    },
    {
      "constant": false,
      "inputs": [
        {
          "name": "_registryID",
          "type": "uint256"
        }
      ],
      "name": "unregisterRegistry",
      "outputs": [],
      "payable": false,
      "stateMutability": "nonpayable",
      "type": "function"
    },
    {
      "constant": false,
      "inputs": [
        {
          "name": "_registryID",
          "type": "uint256"
        },
        {
          "name": "_newOwner",
          "type": "address"
        }
      ],
      "name": "updateRegistryOwnership",
      "outputs": [],
      "payable": false,
      "stateMutability": "nonpayable",
      "type": "function"
    },
    {
      "constant": true,
      "inputs": [],
      "name": "registryRegistrationFee",
      "outputs": [
        {
          "name": "",
          "type": "uint256"
        }
      ],
      "payable": false,
      "stateMutability": "view",
      "type": "function"
    },
    {
      "constant": false,
      "inputs": [
        {
          "name": "_newFee",
          "type": "uint256"
        }
      ],
      "name": "updateRegistrationFee",
      "outputs": [],
      "payable": false,
      "stateMutability": "nonpayable",
      "type": "function"
    },
    {
      "constant": true,
      "inputs": [],
      "name": "chaingearDescription",
      "outputs": [
        {
          "name": "",
          "type": "string"
        }
      ],
      "payable": false,
      "stateMutability": "view",
      "type": "function"
    },
    {
      "constant": false,
      "inputs": [
        {
          "name": "_description",
          "type": "string"
        }
      ],
      "name": "updateDescription",
      "outputs": [],
      "payable": false,
      "stateMutability": "nonpayable",
      "type": "function"
    }
  ],
  "bytecode": "0x60606040526000805560006001556000600560146101000a81548160ff0219169083151502179055506040516200584d3803806200584d833981016040528080518201919060200180518201919060200180518201919060200180518201919060200180519060200190919080518201919060200180518201919050508686838383836000815183511415156200009557600080fd5b600090505b82518110156200010257620000f48382815181101515620000b757fe5b906020019060200201518383815181101515620000d057fe5b90602001906020020151620001c26401000000000262005253176401000000009004565b80806001019150506200009a565b50505033600560006101000a81548173ffffffffffffffffffffffffffffffffffffffff021916908373ffffffffffffffffffffffffffffffffffffffff16021790555081600b90805190602001906200015e92919062000355565b5080600c90805190602001906200017792919062000355565b50505050508260168190555084601590805190602001906200019b92919062000355565b508360129080519060200190620001b492919062000355565b505050505050505062000433565b600073ffffffffffffffffffffffffffffffffffffffff168273ffffffffffffffffffffffffffffffffffffffff1614151515620001ff57600080fd5b6000811115156200020f57600080fd5b6000600260008473ffffffffffffffffffffffffffffffffffffffff1673ffffffffffffffffffffffffffffffffffffffff168152602001908152602001600020541415156200025e57600080fd5b60048054806001018281620002749190620003dc565b9160005260206000209001600084909190916101000a81548173ffffffffffffffffffffffffffffffffffffffff021916908373ffffffffffffffffffffffffffffffffffffffff1602179055505080600260008473ffffffffffffffffffffffffffffffffffffffff1673ffffffffffffffffffffffffffffffffffffffff168152602001908152602001600020819055506200032c8160005462000336640100000000026200466c179091906401000000009004565b6000819055505050565b60008082840190508381101515156200034b57fe5b8091505092915050565b828054600181600116156101000203166002900490600052602060002090601f016020900481019282601f106200039857805160ff1916838001178555620003c9565b82800160010185558215620003c9579182015b82811115620003c8578251825591602001919060010190620003ab565b5b509050620003d891906200040b565b5090565b81548183558181151162000406578183600052602060002091820191016200040591906200040b565b5b505050565b6200043091905b808211156200042c57600081600090555060010162000412565b5090565b90565b61540a80620004436000396000f300606060405260043610610272576000357c0100000000000000000000000000000000000000000000000000000000900463ffffffff168063051a26641461027457806306fdde031461031057806307b1f8f71461039e578063081812fc1461042c578063095ea7b31461048f57806318160ddd146104d15780631d6e86e2146104fa57806323b872dd1461053c5780632f745c591461059d57806337f5881c146105f35780633a98ef39146107aa5780633f4ba83a146107d357806342842e0e146107e857806343d2839f146108495780634dfaf97a146108d75780634e71d92d146109655780634f558e791461097a5780634f6ccce7146109b5578063557902ad146109ec578063589a174314610a155780635c975abb14610a7857806363037b0c14610aa55780636352211e14610b085780636d2fd13814610b6b57806370a0823114610b995780637b49376814610be657806383197ef014610c2857806383ca00ac14610c3d5780638456cb5914610c6b5780638ab47f7b14610c805780638da5cb5b14610ca95780638e2992a014610cfe57806395d89b4114610d355780639852595c14610dc35780639e925a7814610e10578063a22cb46514610e9e578063a563b45014610ee2578063a58017af14610f21578063acab3bd514610f44578063af582c6b14610f72578063b3ae56d114610f95578063b88d4fde14610fff578063bb8275cf146110a3578063c87b56dd14611106578063ca6284d7146111a2578063ce7c2ac21461123e578063e33b7de31461128b578063e735b48a146112b4578063e985e9c5146112e2578063f2fde38b14611352578063f5074f411461138b578063f5e0c610146113c4575b005b341561027f57600080fd5b6102956004808035906020019091905050611427565b6040518080602001828103825283818151815260200191508051906020019080838360005b838110156102d55780820151818401526020810190506102ba565b50505050905090810190601f1680156103025780820380516001836020036101000a031916815260200191505b509250505060405180910390f35b341561031b57600080fd5b6103236114ef565b6040518080602001828103825283818151815260200191508051906020019080838360005b83811015610363578082015181840152602081019050610348565b50505050905090810190601f1680156103905780820380516001836020036101000a031916815260200191505b509250505060405180910390f35b34156103a957600080fd5b6103b1611597565b6040518080602001828103825283818151815260200191508051906020019080838360005b838110156103f15780820151818401526020810190506103d6565b50505050905090810190601f16801561041e5780820380516001836020036101000a031916815260200191505b509250505060405180910390f35b341561043757600080fd5b61044d600480803590602001909190505061163f565b604051808273ffffffffffffffffffffffffffffffffffffffff1673ffffffffffffffffffffffffffffffffffffffff16815260200191505060405180910390f35b341561049a57600080fd5b6104cf600480803573ffffffffffffffffffffffffffffffffffffffff1690602001909190803590602001909190505061167c565b005b34156104dc57600080fd5b6104e4611842565b6040518082815260200191505060405180910390f35b341561050557600080fd5b61053a600480803590602001909190803573ffffffffffffffffffffffffffffffffffffffff1690602001909190505061184f565b005b341561054757600080fd5b61059b600480803573ffffffffffffffffffffffffffffffffffffffff1690602001909190803573ffffffffffffffffffffffffffffffffffffffff16906020019091908035906020019091905050611d39565b005b34156105a857600080fd5b6105dd600480803573ffffffffffffffffffffffffffffffffffffffff16906020019091908035906020019091905050611e50565b6040518082815260200191505060405180910390f35b34156105fe57600080fd5b6106146004808035906020019091905050611ec8565b60405180806020018873ffffffffffffffffffffffffffffffffffffffff1673ffffffffffffffffffffffffffffffffffffffff1681526020018773ffffffffffffffffffffffffffffffffffffffff1673ffffffffffffffffffffffffffffffffffffffff168152602001868152602001806020018573ffffffffffffffffffffffffffffffffffffffff1673ffffffffffffffffffffffffffffffffffffffff168152602001846000191660001916815260200183810383528a818151815260200191508051906020019080838360005b838110156107025780820151818401526020810190506106e7565b50505050905090810190601f16801561072f5780820380516001836020036101000a031916815260200191505b50838103825286818151815260200191508051906020019080838360005b8381101561076857808201518184015260208101905061074d565b50505050905090810190601f1680156107955780820380516001836020036101000a031916815260200191505b50995050505050505050505060405180910390f35b34156107b557600080fd5b6107bd611f38565b6040518082815260200191505060405180910390f35b34156107de57600080fd5b6107e6611f3e565b005b34156107f357600080fd5b610847600480803573ffffffffffffffffffffffffffffffffffffffff1690602001909190803573ffffffffffffffffffffffffffffffffffffffff16906020019091908035906020019091905050611ffe565b005b341561085457600080fd5b61085c612036565b6040518080602001828103825283818151815260200191508051906020019080838360005b8381101561089c578082015181840152602081019050610881565b50505050905090810190601f1680156108c95780820380516001836020036101000a031916815260200191505b509250505060405180910390f35b34156108e257600080fd5b6108ea6120de565b6040518080602001828103825283818151815260200191508051906020019080838360005b8381101561092a57808201518184015260208101905061090f565b50505050905090810190601f1680156109575780820380516001836020036101000a031916815260200191505b509250505060405180910390f35b341561097057600080fd5b610978612186565b005b341561098557600080fd5b61099b60048080359060200190919050506123ee565b604051808215151515815260200191505060405180910390f35b34156109c057600080fd5b6109d66004808035906020019091905050612460565b6040518082815260200191505060405180910390f35b34156109f757600080fd5b6109ff612499565b6040518082815260200191505060405180910390f35b3415610a2057600080fd5b610a3660048080359060200190919050506124a6565b604051808273ffffffffffffffffffffffffffffffffffffffff1673ffffffffffffffffffffffffffffffffffffffff16815260200191505060405180910390f35b3415610a8357600080fd5b610a8b6124f0565b604051808215151515815260200191505060405180910390f35b3415610ab057600080fd5b610ac66004808035906020019091905050612503565b604051808273ffffffffffffffffffffffffffffffffffffffff1673ffffffffffffffffffffffffffffffffffffffff16815260200191505060405180910390f35b3415610b1357600080fd5b610b296004808035906020019091905050612542565b604051808273ffffffffffffffffffffffffffffffffffffffff1673ffffffffffffffffffffffffffffffffffffffff16815260200191505060405180910390f35b3415610b7657600080fd5b610b97600480803590602001908201803590602001919091929050506125c0565b005b3415610ba457600080fd5b610bd0600480803573ffffffffffffffffffffffffffffffffffffffff16906020019091905050612683565b6040518082815260200191505060405180910390f35b3415610bf157600080fd5b610c26600480803590602001909190803573ffffffffffffffffffffffffffffffffffffffff16906020019091905050612707565b005b3415610c3357600080fd5b610c3b612a2b565b005b3415610c4857600080fd5b610c6960048080359060200190820180359060200191909192905050612ac2565b005b3415610c7657600080fd5b610c7e612b85565b005b3415610c8b57600080fd5b610c93612c46565b6040518082815260200191505060405180910390f35b3415610cb457600080fd5b610cbc612c50565b604051808273ffffffffffffffffffffffffffffffffffffffff1673ffffffffffffffffffffffffffffffffffffffff16815260200191505060405180910390f35b3415610d0957600080fd5b610d1f6004808035906020019091905050612c76565b6040518082815260200191505060405180910390f35b3415610d4057600080fd5b610d48612ca0565b6040518080602001828103825283818151815260200191508051906020019080838360005b83811015610d88578082015181840152602081019050610d6d565b50505050905090810190601f168015610db55780820380516001836020036101000a031916815260200191505b509250505060405180910390f35b3415610dce57600080fd5b610dfa600480803573ffffffffffffffffffffffffffffffffffffffff16906020019091905050612d48565b6040518082815260200191505060405180910390f35b3415610e1b57600080fd5b610e23612d60565b6040518080602001828103825283818151815260200191508051906020019080838360005b83811015610e63578082015181840152602081019050610e48565b50505050905090810190601f168015610e905780820380516001836020036101000a031916815260200191505b509250505060405180910390f35b3415610ea957600080fd5b610ee0600480803573ffffffffffffffffffffffffffffffffffffffff169060200190919080351515906020019091905050612e08565b005b3415610eed57600080fd5b610f036004808035906020019091905050612f44565b60405180826000191660001916815260200191505060405180910390f35b3415610f2c57600080fd5b610f426004808035906020019091905050612f6e565b005b3415610f4f57600080fd5b610f70600480803590602001908201803590602001919091929050506135c4565b005b3415610f7d57600080fd5b610f936004808035906020019091905050613687565b005b610fe960048080359060200190820180359060200191909192908035906020019082018035906020019190919290803573ffffffffffffffffffffffffffffffffffffffff169060200190919050506136ed565b6040518082815260200191505060405180910390f35b341561100a57600080fd5b6110a1600480803573ffffffffffffffffffffffffffffffffffffffff1690602001909190803573ffffffffffffffffffffffffffffffffffffffff1690602001909190803590602001909190803590602001908201803590602001908080601f01602080910402602001604051908101604052809392919081815260200183838082843782019150505050505091905050613c0b565b005b34156110ae57600080fd5b6110c46004808035906020019091905050613c4a565b604051808273ffffffffffffffffffffffffffffffffffffffff1673ffffffffffffffffffffffffffffffffffffffff16815260200191505060405180910390f35b341561111157600080fd5b6111276004808035906020019091905050613c94565b6040518080602001828103825283818151815260200191508051906020019080838360005b8381101561116757808201518184015260208101905061114c565b50505050905090810190601f1680156111945780820380516001836020036101000a031916815260200191505b509250505060405180910390f35b34156111ad57600080fd5b6111c36004808035906020019091905050613d63565b6040518080602001828103825283818151815260200191508051906020019080838360005b838110156112035780820151818401526020810190506111e8565b50505050905090810190601f1680156112305780820380516001836020036101000a031916815260200191505b509250505060405180910390f35b341561124957600080fd5b611275600480803573ffffffffffffffffffffffffffffffffffffffff16906020019091905050613e2b565b6040518082815260200191505060405180910390f35b341561129657600080fd5b61129e613e43565b6040518082815260200191505060405180910390f35b34156112bf57600080fd5b6112e060048080359060200190820180359060200191909192905050613e49565b005b34156112ed57600080fd5b611338600480803573ffffffffffffffffffffffffffffffffffffffff1690602001909190803573ffffffffffffffffffffffffffffffffffffffff16906020019091905050613ed4565b604051808215151515815260200191505060405180910390f35b341561135d57600080fd5b611389600480803573ffffffffffffffffffffffffffffffffffffffff16906020019091905050613f68565b005b341561139657600080fd5b6113c2600480803573ffffffffffffffffffffffffffffffffffffffff169060200190919050506140c0565b005b34156113cf57600080fd5b6113e56004808035906020019091905050614135565b604051808273ffffffffffffffffffffffffffffffffffffffff1673ffffffffffffffffffffffffffffffffffffffff16815260200191505060405180910390f35b61142f614e28565b60068281548110151561143e57fe5b90600052602060002090600702016000018054600181600116156101000203166002900480601f0160208091040260200160405190810160405280929190818152602001828054600181600116156101000203166002900480156114e35780601f106114b8576101008083540402835291602001916114e3565b820191906000526020600020905b8154815290600101906020018083116114c657829003601f168201915b50505050509050919050565b6114f7614e28565b600b8054600181600116156101000203166002900480601f01602080910402602001604051908101604052809291908181526020018280546001816001161561010002031660029004801561158d5780601f106115625761010080835404028352916020019161158d565b820191906000526020600020905b81548152906001019060200180831161157057829003601f168201915b5050505050905090565b61159f614e28565b60148054600181600116156101000203166002900480601f0160208091040260200160405190810160405280929190818152602001828054600181600116156101000203166002900480156116355780601f1061160a57610100808354040283529160200191611635565b820191906000526020600020905b81548152906001019060200180831161161857829003601f168201915b5050505050905090565b60006008600083815260200190815260200160002060009054906101000a900473ffffffffffffffffffffffffffffffffffffffff169050919050565b600061168782612542565b90508073ffffffffffffffffffffffffffffffffffffffff168373ffffffffffffffffffffffffffffffffffffffff16141515156116c457600080fd5b8073ffffffffffffffffffffffffffffffffffffffff163373ffffffffffffffffffffffffffffffffffffffff16148061170457506117038133613ed4565b5b151561170f57600080fd5b600073ffffffffffffffffffffffffffffffffffffffff166117308361163f565b73ffffffffffffffffffffffffffffffffffffffff161415806117805750600073ffffffffffffffffffffffffffffffffffffffff168373ffffffffffffffffffffffffffffffffffffffff1614155b1561183d57826008600084815260200190815260200160002060006101000a81548173ffffffffffffffffffffffffffffffffffffffff021916908373ffffffffffffffffffffffffffffffffffffffff1602179055508273ffffffffffffffffffffffffffffffffffffffff168173ffffffffffffffffffffffffffffffffffffffff167f8c5be1e5ebec7d5bd14f71427d1e84f3dd0314c0f7b2291e5b200ac8c7c3b925846040518082815260200191505060405180910390a35b505050565b6000600f80549050905090565b6000806000600560149054906101000a900460ff1615151561187057600080fd5b3373ffffffffffffffffffffffffffffffffffffffff1661189086612542565b73ffffffffffffffffffffffffffffffffffffffff161415156118b257600080fd5b6006858154811015156118c157fe5b906000526020600020906007020160010160009054906101000a900473ffffffffffffffffffffffffffffffffffffffff1692508291503373ffffffffffffffffffffffffffffffffffffffff168273ffffffffffffffffffffffffffffffffffffffff16638da5cb5b6000604051602001526040518163ffffffff167c0100000000000000000000000000000000000000000000000000000000028152600401602060405180830381600087803b151561197b57600080fd5b6102c65a03f1151561198c57600080fd5b5050506040518051905073ffffffffffffffffffffffffffffffffffffffff161415156119b857600080fd5b600115158273ffffffffffffffffffffffffffffffffffffffff16639af78aa133876000604051602001526040518363ffffffff167c0100000000000000000000000000000000000000000000000000000000028152600401808373ffffffffffffffffffffffffffffffffffffffff1673ffffffffffffffffffffffffffffffffffffffff1681526020018273ffffffffffffffffffffffffffffffffffffffff1673ffffffffffffffffffffffffffffffffffffffff16815260200192505050602060405180830381600087803b1515611a9357600080fd5b6102c65a03f11515611aa457600080fd5b505050604051805190501515141515611abc57600080fd5b8373ffffffffffffffffffffffffffffffffffffffff168273ffffffffffffffffffffffffffffffffffffffff16638da5cb5b6000604051602001526040518163ffffffff167c0100000000000000000000000000000000000000000000000000000000028152600401602060405180830381600087803b1515611b3f57600080fd5b6102c65a03f11515611b5057600080fd5b5050506040518051905073ffffffffffffffffffffffffffffffffffffffff16141515611b7c57600080fd5b600685815481101515611b8b57fe5b9060005260206000209060070201600001905083600686815481101515611bae57fe5b906000526020600020906007020160050160006101000a81548173ffffffffffffffffffffffffffffffffffffffff021916908373ffffffffffffffffffffffffffffffffffffffff160217905550611c07338661417f565b611c11848661439a565b7f2ba17077f61e4f2a024c2db5f1c79eb52c06e63ce63a37963128a3f528927a5a338286604051808473ffffffffffffffffffffffffffffffffffffffff1673ffffffffffffffffffffffffffffffffffffffff168152602001806020018373ffffffffffffffffffffffffffffffffffffffff1673ffffffffffffffffffffffffffffffffffffffff168152602001828103825284818154600181600116156101000203166002900481526020019150805460018160011615610100020316600290048015611d225780601f10611cf757610100808354040283529160200191611d22565b820191906000526020600020905b815481529060010190602001808311611d0557829003601f168201915b505094505050505060405180910390a15050505050565b80611d44338261446e565b1515611d4f57600080fd5b600073ffffffffffffffffffffffffffffffffffffffff168473ffffffffffffffffffffffffffffffffffffffff1614151515611d8b57600080fd5b600073ffffffffffffffffffffffffffffffffffffffff168373ffffffffffffffffffffffffffffffffffffffff1614151515611dc757600080fd5b611dd18483614503565b611ddb848361417f565b611de5838361439a565b8273ffffffffffffffffffffffffffffffffffffffff168473ffffffffffffffffffffffffffffffffffffffff167fddf252ad1be2c89b69c2b068fc378daa952ba7f163c4a11628f55a4df523b3ef846040518082815260200191505060405180910390a350505050565b6000611e5b83612683565b82101515611e6857600080fd5b600d60008473ffffffffffffffffffffffffffffffffffffffff1673ffffffffffffffffffffffffffffffffffffffff16815260200190815260200160002082815481101515611eb457fe5b906000526020600020900154905092915050565b611ed0614e28565b6000806000611edd614e28565b600080611ee988611427565b611ef289614135565b611efb8a6124a6565b611f048b612c76565b611f0d8c613d63565b611f168d613c4a565b611f1f8e612f44565b9650965096509650965096509650919395979092949650565b60005481565b600560009054906101000a900473ffffffffffffffffffffffffffffffffffffffff1673ffffffffffffffffffffffffffffffffffffffff163373ffffffffffffffffffffffffffffffffffffffff16141515611f9a57600080fd5b600560149054906101000a900460ff161515611fb557600080fd5b6000600560146101000a81548160ff0219169083151502179055507f7805862f689e2f13df9f062ff482ad3ad112aca9e0847911ed832e158c525b3360405160405180910390a1565b80612009338261446e565b151561201457600080fd5b6120308484846020604051908101604052806000815250613c0b565b50505050565b61203e614e28565b60158054600181600116156101000203166002900480601f0160208091040260200160405190810160405280929190818152602001828054600181600116156101000203166002900480156120d45780601f106120a9576101008083540402835291602001916120d4565b820191906000526020600020905b8154815290600101906020018083116120b757829003601f168201915b5050505050905090565b6120e6614e28565b60138054600181600116156101000203166002900480601f01602080910402602001604051908101604052809291908181526020018280546001816001161561010002031660029004801561217c5780601f106121515761010080835404028352916020019161217c565b820191906000526020600020905b81548152906001019060200180831161215f57829003601f168201915b5050505050905090565b60008060003392506000600260008573ffffffffffffffffffffffffffffffffffffffff1673ffffffffffffffffffffffffffffffffffffffff168152602001908152602001600020541115156121dc57600080fd5b6122086001543073ffffffffffffffffffffffffffffffffffffffff163161466c90919063ffffffff16565b91506122c1600360008573ffffffffffffffffffffffffffffffffffffffff1673ffffffffffffffffffffffffffffffffffffffff168152602001908152602001600020546122b36000546122a5600260008973ffffffffffffffffffffffffffffffffffffffff1673ffffffffffffffffffffffffffffffffffffffff168152602001908152602001600020548761468a90919063ffffffff16565b6146c590919063ffffffff16565b6146e090919063ffffffff16565b9050600081141515156122d357600080fd5b803073ffffffffffffffffffffffffffffffffffffffff1631101515156122f957600080fd5b61234b81600360008673ffffffffffffffffffffffffffffffffffffffff1673ffffffffffffffffffffffffffffffffffffffff1681526020019081526020016000205461466c90919063ffffffff16565b600360008573ffffffffffffffffffffffffffffffffffffffff1673ffffffffffffffffffffffffffffffffffffffff168152602001908152602001600020819055506123a38160015461466c90919063ffffffff16565b6001819055508273ffffffffffffffffffffffffffffffffffffffff166108fc829081150290604051600060405180830381858888f1935050505015156123e957600080fd5b505050565b6000806007600084815260200190815260200160002060009054906101000a900473ffffffffffffffffffffffffffffffffffffffff169050600073ffffffffffffffffffffffffffffffffffffffff168173ffffffffffffffffffffffffffffffffffffffff161415915050919050565b600061246a611842565b8210151561247757600080fd5b600f8281548110151561248657fe5b9060005260206000209001549050919050565b6000600680549050905090565b60006006828154811015156124b757fe5b906000526020600020906007020160020160009054906101000a900473ffffffffffffffffffffffffffffffffffffffff169050919050565b600560149054906101000a900460ff1681565b60048181548110151561251257fe5b90600052602060002090016000915054906101000a900473ffffffffffffffffffffffffffffffffffffffff1681565b6000806007600084815260200190815260200160002060009054906101000a900473ffffffffffffffffffffffffffffffffffffffff169050600073ffffffffffffffffffffffffffffffffffffffff168173ffffffffffffffffffffffffffffffffffffffff16141515156125b757600080fd5b80915050919050565b600560009054906101000a900473ffffffffffffffffffffffffffffffffffffffff1673ffffffffffffffffffffffffffffffffffffffff163373ffffffffffffffffffffffffffffffffffffffff1614151561261c57600080fd5b81816013919061262d929190614e3c565b507f6362a59ae98fef1a0a45d03a1127a82c2268ca380148117a052b9f8bce8e6f1e8282604051808060200182810382528484828181526020019250808284378201915050935050505060405180910390a15050565b60008073ffffffffffffffffffffffffffffffffffffffff168273ffffffffffffffffffffffffffffffffffffffff16141515156126c057600080fd5b600960008373ffffffffffffffffffffffffffffffffffffffff1673ffffffffffffffffffffffffffffffffffffffff168152602001908152602001600020549050919050565b6000600560009054906101000a900473ffffffffffffffffffffffffffffffffffffffff1673ffffffffffffffffffffffffffffffffffffffff163373ffffffffffffffffffffffffffffffffffffffff1614151561276557600080fd5b60048381548110151561277457fe5b906000526020600020900160009054906101000a900473ffffffffffffffffffffffffffffffffffffffff169050600260008273ffffffffffffffffffffffffffffffffffffffff1673ffffffffffffffffffffffffffffffffffffffff16815260200190815260200160002054600260008473ffffffffffffffffffffffffffffffffffffffff1673ffffffffffffffffffffffffffffffffffffffff16815260200190815260200160002081905550600360008273ffffffffffffffffffffffffffffffffffffffff1673ffffffffffffffffffffffffffffffffffffffff16815260200190815260200160002054600360008473ffffffffffffffffffffffffffffffffffffffff1673ffffffffffffffffffffffffffffffffffffffff16815260200190815260200160002081905550816004848154811015156128b857fe5b906000526020600020900160006101000a81548173ffffffffffffffffffffffffffffffffffffffff021916908373ffffffffffffffffffffffffffffffffffffffff160217905550600260008273ffffffffffffffffffffffffffffffffffffffff1673ffffffffffffffffffffffffffffffffffffffff16815260200190815260200160002060009055600360008273ffffffffffffffffffffffffffffffffffffffff1673ffffffffffffffffffffffffffffffffffffffff168152602001908152602001600020600090557fa1982f3fe3fa9dba8ce5bc91687e2ab0850b0431cddacc1a249b2ae0390b912f838284604051808481526020018373ffffffffffffffffffffffffffffffffffffffff1673ffffffffffffffffffffffffffffffffffffffff1681526020018273ffffffffffffffffffffffffffffffffffffffff1673ffffffffffffffffffffffffffffffffffffffff168152602001935050505060405180910390a1505050565b600560009054906101000a900473ffffffffffffffffffffffffffffffffffffffff1673ffffffffffffffffffffffffffffffffffffffff163373ffffffffffffffffffffffffffffffffffffffff16141515612a8757600080fd5b600560009054906101000a900473ffffffffffffffffffffffffffffffffffffffff1673ffffffffffffffffffffffffffffffffffffffff16ff5b600560009054906101000a900473ffffffffffffffffffffffffffffffffffffffff1673ffffffffffffffffffffffffffffffffffffffff163373ffffffffffffffffffffffffffffffffffffffff16141515612b1e57600080fd5b818160149190612b2f929190614e3c565b507fcfaf57d92b1b2684731a770c593d162587ca98e9d372be876ab14b389866f0f68282604051808060200182810382528484828181526020019250808284378201915050935050505060405180910390a15050565b600560009054906101000a900473ffffffffffffffffffffffffffffffffffffffff1673ffffffffffffffffffffffffffffffffffffffff163373ffffffffffffffffffffffffffffffffffffffff16141515612be157600080fd5b600560149054906101000a900460ff16151515612bfd57600080fd5b6001600560146101000a81548160ff0219169083151502179055507f6985a02210a168e66602d3235cb6db0e70f92b3ba4d376a33c0f3d9434bff62560405160405180910390a1565b6000601654905090565b600560009054906101000a900473ffffffffffffffffffffffffffffffffffffffff1681565b6000600682815481101515612c8757fe5b9060005260206000209060070201600301549050919050565b612ca8614e28565b600c8054600181600116156101000203166002900480601f016020809104026020016040519081016040528092919081815260200182805460018160011615610100020316600290048015612d3e5780601f10612d1357610100808354040283529160200191612d3e565b820191906000526020600020905b815481529060010190602001808311612d2157829003601f168201915b5050505050905090565b60036020528060005260406000206000915090505481565b612d68614e28565b60128054600181600116156101000203166002900480601f016020809104026020016040519081016040528092919081815260200182805460018160011615610100020316600290048015612dfe5780601f10612dd357610100808354040283529160200191612dfe565b820191906000526020600020905b815481529060010190602001808311612de157829003601f168201915b5050505050905090565b3373ffffffffffffffffffffffffffffffffffffffff168273ffffffffffffffffffffffffffffffffffffffff1614151515612e4357600080fd5b80600a60003373ffffffffffffffffffffffffffffffffffffffff1673ffffffffffffffffffffffffffffffffffffffff16815260200190815260200160002060008473ffffffffffffffffffffffffffffffffffffffff1673ffffffffffffffffffffffffffffffffffffffff16815260200190815260200160002060006101000a81548160ff0219169083151502179055508173ffffffffffffffffffffffffffffffffffffffff163373ffffffffffffffffffffffffffffffffffffffff167f17307eab39ab6107e8899845ad3d59bd9653f200f220920489ca2b5937696c3183604051808215151515815260200191505060405180910390a35050565b6000600682815481101515612f5557fe5b9060005260206000209060070201600601549050919050565b600080600080600080600560149054906101000a900460ff16151515612f9357600080fd5b3373ffffffffffffffffffffffffffffffffffffffff16612fb388612542565b73ffffffffffffffffffffffffffffffffffffffff16141515612fd557600080fd5b600687815481101515612fe457fe5b906000526020600020906007020160010160009054906101000a900473ffffffffffffffffffffffffffffffffffffffff1695508594503373ffffffffffffffffffffffffffffffffffffffff168573ffffffffffffffffffffffffffffffffffffffff16638da5cb5b6000604051602001526040518163ffffffff167c0100000000000000000000000000000000000000000000000000000000028152600401602060405180830381600087803b151561309e57600080fd5b6102c65a03f115156130af57600080fd5b5050506040518051905073ffffffffffffffffffffffffffffffffffffffff161415156130db57600080fd5b600015158573ffffffffffffffffffffffffffffffffffffffff1663676047ce33600080604051602001526040518363ffffffff167c0100000000000000000000000000000000000000000000000000000000028152600401808373ffffffffffffffffffffffffffffffffffffffff1673ffffffffffffffffffffffffffffffffffffffff1681526020018215151515815260200192505050602060405180830381600087803b151561318e57600080fd5b6102c65a03f1151561319f57600080fd5b5050506040518051905015151415156131b757600080fd5b6006878154811015156131c657fe5b906000526020600020906007020160000193506010600088815260200190815260200160002054925061320860016006805490506146e090919063ffffffff16565b915060068281548110151561321957fe5b906000526020600020906007020190508060068481548110151561323957fe5b90600052602060002090600702016000820181600001908054600181600116156101000203166002900461326e929190614ebc565b506001820160009054906101000a900473ffffffffffffffffffffffffffffffffffffffff168160010160006101000a81548173ffffffffffffffffffffffffffffffffffffffff021916908373ffffffffffffffffffffffffffffffffffffffff1602179055506002820160009054906101000a900473ffffffffffffffffffffffffffffffffffffffff168160020160006101000a81548173ffffffffffffffffffffffffffffffffffffffff021916908373ffffffffffffffffffffffffffffffffffffffff160217905550600382015481600301556004820181600401908054600181600116156101000203166002900461336e929190614ebc565b506005820160009054906101000a900473ffffffffffffffffffffffffffffffffffffffff168160050160006101000a81548173ffffffffffffffffffffffffffffffffffffffff021916908373ffffffffffffffffffffffffffffffffffffffff160217905550600682015481600601906000191690559050506006828154811015156133f857fe5b9060005260206000209060070201600080820160006134179190614f43565b6001820160006101000a81549073ffffffffffffffffffffffffffffffffffffffff02191690556002820160006101000a81549073ffffffffffffffffffffffffffffffffffffffff0219169055600382016000905560048201600061347d9190614f43565b6005820160006101000a81549073ffffffffffffffffffffffffffffffffffffffff02191690556006820160009055505060068054809190600190036134c39190614f8b565b506134ce33886146f9565b7fc87efb95ac06ce4ec97503af7cd49444f98c4100d49236dcd550a365f45153433385604051808373ffffffffffffffffffffffffffffffffffffffff1673ffffffffffffffffffffffffffffffffffffffff168152602001806020018281038252838181546001816001161561010002031660029004815260200191508054600181600116156101000203166002900480156135ac5780601f10613581576101008083540402835291602001916135ac565b820191906000526020600020905b81548152906001019060200180831161358f57829003601f168201915b5050935050505060405180910390a150505050505050565b600560009054906101000a900473ffffffffffffffffffffffffffffffffffffffff1673ffffffffffffffffffffffffffffffffffffffff163373ffffffffffffffffffffffffffffffffffffffff1614151561362057600080fd5b818160129190613631929190614e3c565b507f97bc322e754962c4ff23eb8a9d58b147ead5be0347d9a799addc5a2d44564cbe8282604051808060200182810382528484828181526020019250808284378201915050935050505060405180910390a15050565b600560009054906101000a900473ffffffffffffffffffffffffffffffffffffffff1673ffffffffffffffffffffffffffffffffffffffff163373ffffffffffffffffffffffffffffffffffffffff161415156136e357600080fd5b8060168190555050565b60008060006136fa614fbd565b6000600560149054906101000a900460ff1615151561371857600080fd5b6016543414151561372857600080fd5b859350600115158473ffffffffffffffffffffffffffffffffffffffff1663c5243add6000604051602001526040518163ffffffff167c0100000000000000000000000000000000000000000000000000000000028152600401602060405180830381600087803b151561379b57600080fd5b6102c65a03f115156137ac57600080fd5b5050506040518051905015151415156137c457600080fd5b600115158473ffffffffffffffffffffffffffffffffffffffff1663676047ce3360016000604051602001526040518363ffffffff167c0100000000000000000000000000000000000000000000000000000000028152600401808373ffffffffffffffffffffffffffffffffffffffff1673ffffffffffffffffffffffffffffffffffffffff1681526020018215151515815260200192505050602060405180830381600087803b151561387857600080fd5b6102c65a03f1151561388957600080fd5b5050506040518051905015151415156138a157600080fd5b8373ffffffffffffffffffffffffffffffffffffffff16636abd72036000604051602001526040518163ffffffff167c0100000000000000000000000000000000000000000000000000000000028152600401602060405180830381600087803b151561390d57600080fd5b6102c65a03f1151561391e57600080fd5b50505060405180519050925060e0604051908101604052808b8b8080601f01602080910402602001604051908101604052809392919081815260200183838082843782019150505050505081526020018773ffffffffffffffffffffffffffffffffffffffff1681526020013373ffffffffffffffffffffffffffffffffffffffff16815260200142815260200189898080601f01602080910402602001604051908101604052809392919081815260200183838082843782019150505050505081526020013373ffffffffffffffffffffffffffffffffffffffff16815260200184600019168152509150600160068054806001018281613a20919061504c565b916000526020600020906007020160008590919091506000820151816000019080519060200190613a5292919061507e565b5060208201518160010160006101000a81548173ffffffffffffffffffffffffffffffffffffffff021916908373ffffffffffffffffffffffffffffffffffffffff16021790555060408201518160020160006101000a81548173ffffffffffffffffffffffffffffffffffffffff021916908373ffffffffffffffffffffffffffffffffffffffff160217905550606082015181600301556080820151816004019080519060200190613b0792919061507e565b5060a08201518160050160006101000a81548173ffffffffffffffffffffffffffffffffffffffff021916908373ffffffffffffffffffffffffffffffffffffffff16021790555060c082015181600601906000191690555050039050613b6e3382614834565b7f117374ab8f202ef124c02e124e63b8aa3fdaa980a3b914ece811536c16ad77488a8a338460405180806020018473ffffffffffffffffffffffffffffffffffffffff1673ffffffffffffffffffffffffffffffffffffffff168152602001838152602001828103825286868281815260200192508082843782019150509550505050505060405180910390a18094505050505095945050505050565b81613c16338261446e565b1515613c2157600080fd5b613c2c858585611d39565b613c3885858585614888565b1515613c4357600080fd5b5050505050565b6000600682815481101515613c5b57fe5b906000526020600020906007020160050160009054906101000a900473ffffffffffffffffffffffffffffffffffffffff169050919050565b613c9c614e28565b613ca5826123ee565b1515613cb057600080fd5b601160008381526020019081526020016000208054600181600116156101000203166002900480601f016020809104026020016040519081016040528092919081815260200182805460018160011615610100020316600290048015613d575780601f10613d2c57610100808354040283529160200191613d57565b820191906000526020600020905b815481529060010190602001808311613d3a57829003601f168201915b50505050509050919050565b613d6b614e28565b600682815481101515613d7a57fe5b90600052602060002090600702016004018054600181600116156101000203166002900480601f016020809104026020016040519081016040528092919081815260200182805460018160011615610100020316600290048015613e1f5780601f10613df457610100808354040283529160200191613e1f565b820191906000526020600020905b815481529060010190602001808311613e0257829003601f168201915b50505050509050919050565b60026020528060005260406000206000915090505481565b60015481565b6000600560009054906101000a900473ffffffffffffffffffffffffffffffffffffffff1673ffffffffffffffffffffffffffffffffffffffff163373ffffffffffffffffffffffffffffffffffffffff16141515613ea757600080fd5b82829050905060808111151515613ebd57600080fd5b828260159190613ece929190614e3c565b50505050565b6000600a60008473ffffffffffffffffffffffffffffffffffffffff1673ffffffffffffffffffffffffffffffffffffffff16815260200190815260200160002060008373ffffffffffffffffffffffffffffffffffffffff1673ffffffffffffffffffffffffffffffffffffffff16815260200190815260200160002060009054906101000a900460ff16905092915050565b600560009054906101000a900473ffffffffffffffffffffffffffffffffffffffff1673ffffffffffffffffffffffffffffffffffffffff163373ffffffffffffffffffffffffffffffffffffffff16141515613fc457600080fd5b600073ffffffffffffffffffffffffffffffffffffffff168173ffffffffffffffffffffffffffffffffffffffff161415151561400057600080fd5b8073ffffffffffffffffffffffffffffffffffffffff16600560009054906101000a900473ffffffffffffffffffffffffffffffffffffffff1673ffffffffffffffffffffffffffffffffffffffff167f8be0079c531659141344cd1fd0a4f28419497f9722a3daafe3b4186f6b6457e060405160405180910390a380600560006101000a81548173ffffffffffffffffffffffffffffffffffffffff021916908373ffffffffffffffffffffffffffffffffffffffff16021790555050565b600560009054906101000a900473ffffffffffffffffffffffffffffffffffffffff1673ffffffffffffffffffffffffffffffffffffffff163373ffffffffffffffffffffffffffffffffffffffff1614151561411c57600080fd5b8073ffffffffffffffffffffffffffffffffffffffff16ff5b600060068281548110151561414657fe5b906000526020600020906007020160010160009054906101000a900473ffffffffffffffffffffffffffffffffffffffff169050919050565b600080600061418e8585614a5e565b600e60008581526020019081526020016000205492506141fa6001600d60008873ffffffffffffffffffffffffffffffffffffffff1673ffffffffffffffffffffffffffffffffffffffff168152602001908152602001600020805490506146e090919063ffffffff16565b9150600d60008673ffffffffffffffffffffffffffffffffffffffff1673ffffffffffffffffffffffffffffffffffffffff1681526020019081526020016000208281548110151561424857fe5b906000526020600020900154905080600d60008773ffffffffffffffffffffffffffffffffffffffff1673ffffffffffffffffffffffffffffffffffffffff168152602001908152602001600020848154811015156142a357fe5b9060005260206000209001819055506000600d60008773ffffffffffffffffffffffffffffffffffffffff1673ffffffffffffffffffffffffffffffffffffffff1681526020019081526020016000208381548110151561430057fe5b906000526020600020900181905550600d60008673ffffffffffffffffffffffffffffffffffffffff1673ffffffffffffffffffffffffffffffffffffffff16815260200190815260200160002080548091906001900361436191906150fe565b506000600e60008681526020019081526020016000208190555082600e6000838152602001908152602001600020819055505050505050565b60006143a68383614b8d565b600d60008473ffffffffffffffffffffffffffffffffffffffff1673ffffffffffffffffffffffffffffffffffffffff168152602001908152602001600020805490509050600d60008473ffffffffffffffffffffffffffffffffffffffff1673ffffffffffffffffffffffffffffffffffffffff168152602001908152602001600020805480600101828161443c919061512a565b91600052602060002090016000849091909150555080600e600084815260200190815260200160002081905550505050565b60008061447a83612542565b90508073ffffffffffffffffffffffffffffffffffffffff168473ffffffffffffffffffffffffffffffffffffffff1614806144e957508373ffffffffffffffffffffffffffffffffffffffff166144d18461163f565b73ffffffffffffffffffffffffffffffffffffffff16145b806144fa57506144f98185613ed4565b5b91505092915050565b8173ffffffffffffffffffffffffffffffffffffffff1661452382612542565b73ffffffffffffffffffffffffffffffffffffffff1614151561454557600080fd5b600073ffffffffffffffffffffffffffffffffffffffff166008600083815260200190815260200160002060009054906101000a900473ffffffffffffffffffffffffffffffffffffffff1673ffffffffffffffffffffffffffffffffffffffff161415156146685760006008600083815260200190815260200160002060006101000a81548173ffffffffffffffffffffffffffffffffffffffff021916908373ffffffffffffffffffffffffffffffffffffffff160217905550600073ffffffffffffffffffffffffffffffffffffffff168273ffffffffffffffffffffffffffffffffffffffff167f8c5be1e5ebec7d5bd14f71427d1e84f3dd0314c0f7b2291e5b200ac8c7c3b925836040518082815260200191505060405180910390a35b5050565b600080828401905083811015151561468057fe5b8091505092915050565b600080600084141561469f57600091506146be565b82840290508284828115156146b057fe5b041415156146ba57fe5b8091505b5092915050565b60008082848115156146d357fe5b0490508091505092915050565b60008282111515156146ee57fe5b818303905092915050565b60008060006147088585614ce7565b600060116000868152602001908152602001600020805460018160011615610100020316600290049050141515614759576011600085815260200190815260200160002060006147589190614f43565b5b601060008581526020019081526020016000205492506147886001600f805490506146e090919063ffffffff16565b9150600f8281548110151561479957fe5b906000526020600020900154905080600f848154811015156147b757fe5b9060005260206000209001819055506000600f838154811015156147d757fe5b906000526020600020900181905550600f8054809190600190036147fb91906150fe565b50600060106000868152602001908152602001600020819055508260106000838152602001908152602001600020819055505050505050565b61483e8282614d65565b600f805490506010600083815260200190815260200160002081905550600f805480600101828161486f919061512a565b9160005260206000209001600083909190915055505050565b6000806148aa8573ffffffffffffffffffffffffffffffffffffffff16614e15565b15156148b95760019150614a55565b8473ffffffffffffffffffffffffffffffffffffffff1663f0b9e5ba8786866000604051602001526040518463ffffffff167c0100000000000000000000000000000000000000000000000000000000028152600401808473ffffffffffffffffffffffffffffffffffffffff1673ffffffffffffffffffffffffffffffffffffffff16815260200183815260200180602001828103825283818151815260200191508051906020019080838360005b83811015614984578082015181840152602081019050614969565b50505050905090810190601f1680156149b15780820380516001836020036101000a031916815260200191505b50945050505050602060405180830381600087803b15156149d157600080fd5b6102c65a03f115156149e257600080fd5b50505060405180519050905063f0b9e5ba7c0100000000000000000000000000000000000000000000000000000000027bffffffffffffffffffffffffffffffffffffffffffffffffffffffff1916817bffffffffffffffffffffffffffffffffffffffffffffffffffffffff19161491505b50949350505050565b8173ffffffffffffffffffffffffffffffffffffffff16614a7e82612542565b73ffffffffffffffffffffffffffffffffffffffff16141515614aa057600080fd5b614af36001600960008573ffffffffffffffffffffffffffffffffffffffff1673ffffffffffffffffffffffffffffffffffffffff168152602001908152602001600020546146e090919063ffffffff16565b600960008473ffffffffffffffffffffffffffffffffffffffff1673ffffffffffffffffffffffffffffffffffffffff1681526020019081526020016000208190555060006007600083815260200190815260200160002060006101000a81548173ffffffffffffffffffffffffffffffffffffffff021916908373ffffffffffffffffffffffffffffffffffffffff1602179055505050565b600073ffffffffffffffffffffffffffffffffffffffff166007600083815260200190815260200160002060009054906101000a900473ffffffffffffffffffffffffffffffffffffffff1673ffffffffffffffffffffffffffffffffffffffff16141515614bfb57600080fd5b816007600083815260200190815260200160002060006101000a81548173ffffffffffffffffffffffffffffffffffffffff021916908373ffffffffffffffffffffffffffffffffffffffff160217905550614ca06001600960008573ffffffffffffffffffffffffffffffffffffffff1673ffffffffffffffffffffffffffffffffffffffff1681526020019081526020016000205461466c90919063ffffffff16565b600960008473ffffffffffffffffffffffffffffffffffffffff1673ffffffffffffffffffffffffffffffffffffffff168152602001908152602001600020819055505050565b614cf18282614503565b614cfb828261417f565b600073ffffffffffffffffffffffffffffffffffffffff168273ffffffffffffffffffffffffffffffffffffffff167fddf252ad1be2c89b69c2b068fc378daa952ba7f163c4a11628f55a4df523b3ef836040518082815260200191505060405180910390a35050565b600073ffffffffffffffffffffffffffffffffffffffff168273ffffffffffffffffffffffffffffffffffffffff1614151515614da157600080fd5b614dab828261439a565b8173ffffffffffffffffffffffffffffffffffffffff16600073ffffffffffffffffffffffffffffffffffffffff167fddf252ad1be2c89b69c2b068fc378daa952ba7f163c4a11628f55a4df523b3ef836040518082815260200191505060405180910390a35050565b600080823b905060008111915050919050565b602060405190810160405280600081525090565b828054600181600116156101000203166002900490600052602060002090601f016020900481019282601f10614e7d57803560ff1916838001178555614eab565b82800160010185558215614eab579182015b82811115614eaa578235825591602001919060010190614e8f565b5b509050614eb89190615156565b5090565b828054600181600116156101000203166002900490600052602060002090601f016020900481019282601f10614ef55780548555614f32565b82800160010185558215614f3257600052602060002091601f016020900482015b82811115614f31578254825591600101919060010190614f16565b5b509050614f3f9190615156565b5090565b50805460018160011615610100020316600290046000825580601f10614f695750614f88565b601f016020900490600052602060002090810190614f879190615156565b5b50565b815481835581811511614fb857600702816007028360005260206000209182019101614fb7919061517b565b5b505050565b60e060405190810160405280614fd161523f565b8152602001600073ffffffffffffffffffffffffffffffffffffffff168152602001600073ffffffffffffffffffffffffffffffffffffffff1681526020016000815260200161501f61523f565b8152602001600073ffffffffffffffffffffffffffffffffffffffff168152602001600080191681525090565b81548183558181151161507957600702816007028360005260206000209182019101615078919061517b565b5b505050565b828054600181600116156101000203166002900490600052602060002090601f016020900481019282601f106150bf57805160ff19168380011785556150ed565b828001600101855582156150ed579182015b828111156150ec5782518255916020019190600101906150d1565b5b5090506150fa9190615156565b5090565b815481835581811511615125578183600052602060002091820191016151249190615156565b5b505050565b815481835581811511615151578183600052602060002091820191016151509190615156565b5b505050565b61517891905b8082111561517457600081600090555060010161515c565b5090565b90565b61523c91905b80821115615238576000808201600061519a9190614f43565b6001820160006101000a81549073ffffffffffffffffffffffffffffffffffffffff02191690556002820160006101000a81549073ffffffffffffffffffffffffffffffffffffffff021916905560038201600090556004820160006152009190614f43565b6005820160006101000a81549073ffffffffffffffffffffffffffffffffffffffff0219169055600682016000905550600701615181565b5090565b90565b602060405190810160405280600081525090565b600073ffffffffffffffffffffffffffffffffffffffff168273ffffffffffffffffffffffffffffffffffffffff161415151561528f57600080fd5b60008111151561529e57600080fd5b6000600260008473ffffffffffffffffffffffffffffffffffffffff1673ffffffffffffffffffffffffffffffffffffffff168152602001908152602001600020541415156152ec57600080fd5b6004805480600101828161530091906153b2565b9160005260206000209001600084909190916101000a81548173ffffffffffffffffffffffffffffffffffffffff021916908373ffffffffffffffffffffffffffffffffffffffff1602179055505080600260008473ffffffffffffffffffffffffffffffffffffffff1673ffffffffffffffffffffffffffffffffffffffff168152602001908152602001600020819055506153a88160005461466c90919063ffffffff16565b6000819055505050565b8154818355818115116153d9578183600052602060002091820191016153d89190615156565b5b5050505600a165627a7a723058203e72a24459ffcf34437ea9f0b24bd5e1ebba642ac1bc163f8cccbe42a6c4b4f10029",
  "source": "pragma solidity ^0.4.18;\n\nimport \"zeppelin-solidity/contracts/math/SafeMath.sol\";\nimport \"zeppelin-solidity/contracts/AddressUtils.sol\";\nimport \"zeppelin-solidity/contracts/token/ERC721/ERC721Token.sol\";\nimport \"../common/SplitPaymentChangeable.sol\";\nimport \"./IPFSeable.sol\";\nimport \"./RegistryBase.sol\";\nimport \"../common/ChaingearRegistrable.sol\";\n\n\ncontract Chaingear is RegistryBase, ERC721Token, IPFSeable, SplitPaymentChangeable {\n\n    using SafeMath for uint256;\n    using AddressUtils for address;\n\n    string internal chaingearDescription_;\n    uint internal registryRegistrationFee_;\n\n    function Chaingear(\n        address[] _benefitiaries,\n        uint256[] _shares,\n        string _description,\n        string _linkABI,\n        uint _registrationFee,\n        string _chaingearName,\n        string _chaingearSymbol\n    )\n        SplitPaymentChangeable(_benefitiaries, _shares)\n        ERC721Token(_chaingearName, _chaingearSymbol)\n        public\n        payable\n    {\n        registryRegistrationFee_ = _registrationFee;\n        chaingearDescription_ = _description;\n        linkABI_ = _linkABI;\n    }\n\n\n    function registerRegistry(string _registryName, string _linkABI, address _registryAddress)\n        external\n        payable\n        whenNotPaused\n        returns (uint256 registryId)\n    {\n        require(msg.value == registryRegistrationFee_);\n\n        ChaingearRegistrable registryContract = ChaingearRegistrable(_registryAddress);\n        require(registryContract.implementsChaingearedRegistry() == true);\n        require(registryContract.setChaingearMode(msg.sender, true) == true);\n\n        bytes32 contractChaingearVersion = registryContract.getChaingeareableVersion();\n\n        Registry memory registry = (Registry(\n        {\n            name: _registryName,\n            contractAddress: _registryAddress,\n            creator: msg.sender,\n            linkABI: _linkABI,\n            registrationTimestamp: block.timestamp,\n            owner: msg.sender,\n            chaingeareableVersion: contractChaingearVersion\n        }));\n\n        uint256 newRegistryId = registries.push(registry) - 1;\n        super._mint(msg.sender, newRegistryId);\n\n         RegistryRegistered(_registryName, msg.sender, newRegistryId);\n\n        return newRegistryId;\n    }\n\n    function unregisterRegistry(uint256 _registryID)\n        external\n        whenNotPaused\n    {\n        require (ERC721BasicToken.ownerOf(_registryID) == msg.sender);\n        address registryAddress = registries[_registryID].contractAddress;\n\n        ChaingearRegistrable registryContract = ChaingearRegistrable(registryAddress);\n        require(registryContract.owner() == msg.sender);\n        require(registryContract.setChaingearMode(msg.sender, false) == false);\n\n        string storage registryName = registries[_registryID].name;\n        uint256 registryIndex = allTokensIndex[_registryID];\n        uint256 lastRegistryIndex = registries.length.sub(1);\n        Registry storage lastRegistry = registries[lastRegistryIndex];\n\n        registries[registryIndex] = lastRegistry;\n        delete registries[lastRegistryIndex];\n        registries.length--;\n\n        super._burn(msg.sender, _registryID);\n\n        //rethink this event\n        RegistryUnregistered(msg.sender, registryName);\n    }\n\n    function updateRegistryOwnership(uint256 _registryID, address _newOwner)\n        external\n        whenNotPaused\n    {\n        require (ERC721BasicToken.ownerOf(_registryID) == msg.sender);\n\n        address registryAddress = registries[_registryID].contractAddress;\n        ChaingearRegistrable registryContract = ChaingearRegistrable(registryAddress);\n\n        require(registryContract.owner() == msg.sender);\n        require(registryContract.transferTokenizedOnwerhip(msg.sender, _newOwner) == true);\n        require(registryContract.owner() == _newOwner);\n\n        string storage registryName = registries[_registryID].name;\n        registries[_registryID].owner = _newOwner;\n\n        super.removeTokenFrom(msg.sender, _registryID);\n        super.addTokenTo(_newOwner, _registryID);\n\n        RegistryTransferred(msg.sender, registryName, _newOwner);\n    }\n\n    function registryRegistrationFee()\n        public\n        view\n        returns (uint)\n    {\n        return registryRegistrationFee_;\n    }\n\n    function updateRegistrationFee(uint _newFee)\n        external\n        onlyOwner\n    {\n        registryRegistrationFee_ = _newFee;\n    }\n\n    function chaingearDescription()\n        public\n        view\n        returns (string)\n    {\n        return chaingearDescription_;\n    }\n\n    function updateDescription(string _description)\n        external\n        onlyOwner\n    {\n        uint len = bytes(_description).length;\n        require(len <= 128);\n\n        chaingearDescription_ = _description;\n    }\n}\n",
  "sourcePath": "/Users/litvintech/Projects/chaingear/contracts/chaingear/Chaingear.sol",
  "compiler": {
    "name": "solc",
    "version": "0.4.19+commit.c4cbbb05.Emscripten.clang"
  },
  "schemaVersion": "1.0.1",
  "updatedAt": "2018-04-13T15:34:57.407Z"
}