{
  "contractName": "Chaingeareable",
  "abi": [
    {
      "constant": true,
      "inputs": [],
      "name": "creator",
      "outputs": [
        {
          "name": "",
          "type": "address"
        }
      ],
      "payable": false,
      "stateMutability": "view",
      "type": "function"
    },
    {
      "constant": true,
      "inputs": [],
      "name": "linkSourceCode",
      "outputs": [
        {
          "name": "",
          "type": "string"
        }
      ],
      "payable": false,
      "stateMutability": "view",
      "type": "function"
    },
    {
      "constant": false,
      "inputs": [
        {
          "name": "_permissionTypeEntries",
          "type": "uint256"
        }
      ],
      "name": "updatePermissionTypeEntries",
      "outputs": [],
      "payable": false,
      "stateMutability": "nonpayable",
      "type": "function"
    },
    {
      "constant": true,
      "inputs": [],
      "name": "permissionsTypeEntries",
      "outputs": [
        {
          "name": "",
          "type": "uint8"
        }
      ],
      "payable": false,
      "stateMutability": "view",
      "type": "function"
    },
    {
      "constant": false,
      "inputs": [
        {
          "name": "_linkABI",
          "type": "string"
        }
      ],
      "name": "setABILink",
      "outputs": [],
      "payable": false,
      "stateMutability": "nonpayable",
      "type": "function"
    },
    {
      "constant": true,
      "inputs": [],
      "name": "linkMeta",
      "outputs": [
        {
          "name": "",
          "type": "string"
        }
      ],
      "payable": false,
      "stateMutability": "view",
      "type": "function"
    },
    {
      "constant": false,
      "inputs": [
        {
          "name": "_linkMeta",
          "type": "string"
        }
      ],
      "name": "setMetaLink",
      "outputs": [],
      "payable": false,
      "stateMutability": "nonpayable",
      "type": "function"
    },
    {
      "constant": false,
      "inputs": [],
      "name": "destroy",
      "outputs": [],
      "payable": false,
      "stateMutability": "nonpayable",
      "type": "function"
    },
    {
      "constant": false,
      "inputs": [
        {
          "name": "_linkSourceCode",
          "type": "string"
        }
      ],
      "name": "setSourceLink",
      "outputs": [],
      "payable": false,
      "stateMutability": "nonpayable",
      "type": "function"
    },
    {
      "constant": true,
      "inputs": [],
      "name": "owner",
      "outputs": [
        {
          "name": "",
          "type": "address"
        }
      ],
      "payable": false,
      "stateMutability": "view",
      "type": "function"
    },
    {
      "constant": true,
      "inputs": [],
      "name": "linkABI",
      "outputs": [
        {
          "name": "",
          "type": "string"
        }
      ],
      "payable": false,
      "stateMutability": "view",
      "type": "function"
    },
    {
      "constant": false,
      "inputs": [
        {
          "name": "newOwner",
          "type": "address"
        }
      ],
      "name": "transferOwnership",
      "outputs": [],
      "payable": false,
      "stateMutability": "nonpayable",
      "type": "function"
    },
    {
      "constant": false,
      "inputs": [
        {
          "name": "_recipient",
          "type": "address"
        }
      ],
      "name": "destroyAndSend",
      "outputs": [],
      "payable": false,
      "stateMutability": "nonpayable",
      "type": "function"
    },
    {
      "anonymous": false,
      "inputs": [
        {
          "indexed": false,
          "name": "creator",
          "type": "address"
        },
        {
          "indexed": false,
          "name": "entryId",
          "type": "uint256"
        }
      ],
      "name": "EntryCreated",
      "type": "event"
    },
    {
      "anonymous": false,
      "inputs": [
        {
          "indexed": false,
          "name": "owner",
          "type": "address"
        },
        {
          "indexed": false,
          "name": "entryId",
          "type": "uint256"
        }
      ],
      "name": "EntryUpdated",
      "type": "event"
    },
    {
      "anonymous": false,
      "inputs": [
        {
          "indexed": false,
          "name": "entryId",
          "type": "uint256"
        },
        {
          "indexed": false,
          "name": "newOwner",
          "type": "address"
        }
      ],
      "name": "EntryChangedOwner",
      "type": "event"
    },
    {
      "anonymous": false,
      "inputs": [
        {
          "indexed": false,
          "name": "owner",
          "type": "address"
        },
        {
          "indexed": false,
          "name": "entryId",
          "type": "uint256"
        }
      ],
      "name": "EntryDeleted",
      "type": "event"
    },
    {
      "anonymous": false,
      "inputs": [
        {
          "indexed": false,
          "name": "linkMeta",
          "type": "string"
        }
      ],
      "name": "MetaLinkUpdated",
      "type": "event"
    },
    {
      "anonymous": false,
      "inputs": [
        {
          "indexed": false,
          "name": "linkABI",
          "type": "string"
        }
      ],
      "name": "ABILinkUpdated",
      "type": "event"
    },
    {
      "anonymous": false,
      "inputs": [
        {
          "indexed": false,
          "name": "linkSource",
          "type": "string"
        }
      ],
      "name": "SourceLinkUpdated",
      "type": "event"
    },
    {
      "anonymous": false,
      "inputs": [
        {
          "indexed": true,
          "name": "previousOwner",
          "type": "address"
        },
        {
          "indexed": true,
          "name": "newOwner",
          "type": "address"
        }
      ],
      "name": "OwnershipTransferred",
      "type": "event"
    },
    {
      "constant": true,
      "inputs": [],
      "name": "entryBase",
      "outputs": [
        {
          "name": "",
          "type": "address"
        }
      ],
      "payable": false,
      "stateMutability": "view",
      "type": "function"
    },
    {
      "constant": true,
      "inputs": [],
      "name": "ABIOfEntriesContract",
      "outputs": [
        {
          "name": "",
          "type": "string"
        }
      ],
      "payable": false,
      "stateMutability": "view",
      "type": "function"
    },
    {
      "constant": true,
      "inputs": [],
      "name": "registryBalance",
      "outputs": [
        {
          "name": "",
          "type": "uint256"
        }
      ],
      "payable": false,
      "stateMutability": "view",
      "type": "function"
    },
    {
      "constant": true,
      "inputs": [],
      "name": "entryCreationFee",
      "outputs": [
        {
          "name": "",
          "type": "uint256"
        }
      ],
      "payable": false,
      "stateMutability": "view",
      "type": "function"
    },
    {
      "constant": true,
      "inputs": [],
      "name": "registryName",
      "outputs": [
        {
          "name": "",
          "type": "string"
        }
      ],
      "payable": false,
      "stateMutability": "view",
      "type": "function"
    },
    {
      "constant": true,
      "inputs": [],
      "name": "registryDescription",
      "outputs": [
        {
          "name": "",
          "type": "string"
        }
      ],
      "payable": false,
      "stateMutability": "view",
      "type": "function"
    },
    {
      "constant": true,
      "inputs": [],
      "name": "registryTags",
      "outputs": [
        {
          "name": "",
          "type": "bytes32[]"
        }
      ],
      "payable": false,
      "stateMutability": "view",
      "type": "function"
    },
    {
      "constant": false,
      "inputs": [
        {
          "name": "_fee",
          "type": "uint256"
        }
      ],
      "name": "updateEntryCreationFee",
      "outputs": [],
      "payable": false,
      "stateMutability": "nonpayable",
      "type": "function"
    },
    {
      "constant": false,
      "inputs": [
        {
          "name": "_registryName",
          "type": "string"
        }
      ],
      "name": "updateRegistryName",
      "outputs": [],
      "payable": false,
      "stateMutability": "nonpayable",
      "type": "function"
    },
    {
      "constant": false,
      "inputs": [
        {
          "name": "_registryDescription",
          "type": "string"
        }
      ],
      "name": "updateRegistryDescription",
      "outputs": [],
      "payable": false,
      "stateMutability": "nonpayable",
      "type": "function"
    },
    {
      "constant": false,
      "inputs": [
        {
          "name": "_tag",
          "type": "bytes32"
        }
      ],
      "name": "addRegistryTag",
      "outputs": [],
      "payable": false,
      "stateMutability": "nonpayable",
      "type": "function"
    },
    {
      "constant": false,
      "inputs": [
        {
          "name": "_index",
          "type": "uint256"
        },
        {
          "name": "_tag",
          "type": "bytes32"
        }
      ],
      "name": "updateRegistryTag",
      "outputs": [],
      "payable": false,
      "stateMutability": "nonpayable",
      "type": "function"
    },
    {
      "constant": false,
      "inputs": [
        {
          "name": "_index",
          "type": "uint256"
        },
        {
          "name": "_tag",
          "type": "bytes32"
        }
      ],
      "name": "removeRegistryTag",
      "outputs": [],
      "payable": false,
      "stateMutability": "nonpayable",
      "type": "function"
    },
    {
      "constant": true,
      "inputs": [],
      "name": "registrySafe",
      "outputs": [
        {
          "name": "",
          "type": "address"
        }
      ],
      "payable": false,
      "stateMutability": "view",
      "type": "function"
    }
  ],
  "bytecode": "0x6060604052336000806101000a81548173ffffffffffffffffffffffffffffffffffffffff021916908373ffffffffffffffffffffffffffffffffffffffff16021790555032600460006101000a81548173ffffffffffffffffffffffffffffffffffffffff021916908373ffffffffffffffffffffffffffffffffffffffff1602179055506118ef806100946000396000f30060606040526004361061015f576000357c0100000000000000000000000000000000000000000000000000000000900463ffffffff16806302d05d3f1461016457806307b1f8f7146101b95780631654d16914610247578063189efc7c146102d557806327f5f1b6146102fc578063351c6bbe1461031f5780633a1a3d951461035657806341c39e5c1461037f5780634545d21c1461040d578063490a08eb1461043b5780634dfaf97a146104c957806368b34562146105575780636d2fd1381461058057806383197ef0146105ae57806383ca00ac146105c35780638da5cb5b146105f15780639e925a7814610646578063a1f14b27146106d4578063aef10f0814610702578063bc044e1814610757578063bf3fde3314610787578063c81225eb146107dc578063d24f70761461080a578063e59f0cc21461082d578063f2fde38b1461085d578063f5074f4114610896578063f5ec4e50146108cf575b600080fd5b341561016f57600080fd5b610177610939565b604051808273ffffffffffffffffffffffffffffffffffffffff1673ffffffffffffffffffffffffffffffffffffffff16815260200191505060405180910390f35b34156101c457600080fd5b6101cc610963565b6040518080602001828103825283818151815260200191508051906020019080838360005b8381101561020c5780820151818401526020810190506101f1565b50505050905090810190601f1680156102395780820380516001836020036101000a031916815260200191505b509250505060405180910390f35b341561025257600080fd5b61025a610a0b565b6040518080602001828103825283818151815260200191508051906020019080838360005b8381101561029a57808201518184015260208101905061027f565b50505050905090810190601f1680156102c75780820380516001836020036101000a031916815260200191505b509250505060405180910390f35b34156102e057600080fd5b6102fa600480803560001916906020019091905050610ab3565b005b341561030757600080fd5b61031d6004808035906020019091905050610b55565b005b341561032a57600080fd5b610332610bfc565b6040518082600281111561034257fe5b60ff16815260200191505060405180910390f35b341561036157600080fd5b610369610c13565b6040518082815260200191505060405180910390f35b341561038a57600080fd5b610392610c1d565b6040518080602001828103825283818151815260200191508051906020019080838360005b838110156103d25780820151818401526020810190506103b7565b50505050905090810190601f1680156103ff5780820380516001836020036101000a031916815260200191505b509250505060405180910390f35b341561041857600080fd5b61043960048080359060200190820180359060200191909192905050610cc5565b005b341561044657600080fd5b61044e610d87565b6040518080602001828103825283818151815260200191508051906020019080838360005b8381101561048e578082015181840152602081019050610473565b50505050905090810190601f1680156104bb5780820380516001836020036101000a031916815260200191505b509250505060405180910390f35b34156104d457600080fd5b6104dc610e2f565b6040518080602001828103825283818151815260200191508051906020019080838360005b8381101561051c578082015181840152602081019050610501565b50505050905090810190601f1680156105495780820380516001836020036101000a031916815260200191505b509250505060405180910390f35b341561056257600080fd5b61056a610ed7565b6040518082815260200191505060405180910390f35b341561058b57600080fd5b6105ac60048080359060200190820180359060200191909192905050610ef6565b005b34156105b957600080fd5b6105c1610fb8565b005b34156105ce57600080fd5b6105ef6004808035906020019082018035906020019190919290505061104d565b005b34156105fc57600080fd5b61060461110f565b604051808273ffffffffffffffffffffffffffffffffffffffff1673ffffffffffffffffffffffffffffffffffffffff16815260200191505060405180910390f35b341561065157600080fd5b610659611134565b6040518080602001828103825283818151815260200191508051906020019080838360005b8381101561069957808201518184015260208101905061067e565b50505050905090810190601f1680156106c65780820380516001836020036101000a031916815260200191505b509250505060405180910390f35b34156106df57600080fd5b610700600480803590602001908201803590602001919091929050506111dc565b005b341561070d57600080fd5b610715611268565b604051808273ffffffffffffffffffffffffffffffffffffffff1673ffffffffffffffffffffffffffffffffffffffff16815260200191505060405180910390f35b341561076257600080fd5b610785600480803590602001909190803560001916906020019091905050611292565b005b341561079257600080fd5b61079a611390565b604051808273ffffffffffffffffffffffffffffffffffffffff1673ffffffffffffffffffffffffffffffffffffffff16815260200191505060405180910390f35b34156107e757600080fd5b610808600480803590602001908201803590602001919091929050506113ba565b005b341561081557600080fd5b61082b6004808035906020019091905050611451565b005b341561083857600080fd5b61085b6004808035906020019091908035600019169060200190919050506114b7565b005b341561086857600080fd5b610894600480803573ffffffffffffffffffffffffffffffffffffffff1690602001909190505061154e565b005b34156108a157600080fd5b6108cd600480803573ffffffffffffffffffffffffffffffffffffffff169060200190919050506116a3565b005b34156108da57600080fd5b6108e2611717565b6040518080602001828103825283818151815260200191508051906020019060200280838360005b8381101561092557808201518184015260208101905061090a565b505050509050019250505060405180910390f35b6000600460009054906101000a900473ffffffffffffffffffffffffffffffffffffffff16905090565b61096b611779565b60038054600181600116156101000203166002900480601f016020809104026020016040519081016040528092919081815260200182805460018160011615610100020316600290048015610a015780601f106109d657610100808354040283529160200191610a01565b820191906000526020600020905b8154815290600101906020018083116109e457829003601f168201915b5050505050905090565b610a13611779565b60068054600181600116156101000203166002900480601f016020809104026020016040519081016040528092919081815260200182805460018160011615610100020316600290048015610aa95780601f10610a7e57610100808354040283529160200191610aa9565b820191906000526020600020905b815481529060010190602001808311610a8c57829003601f168201915b5050505050905090565b600460009054906101000a900473ffffffffffffffffffffffffffffffffffffffff1673ffffffffffffffffffffffffffffffffffffffff163373ffffffffffffffffffffffffffffffffffffffff16141515610b0f57600080fd5b6010602060ff1611151515610b2357600080fd5b60088054806001018281610b37919061178d565b91600052602060002090016000839091909150906000191690555050565b600460009054906101000a900473ffffffffffffffffffffffffffffffffffffffff1673ffffffffffffffffffffffffffffffffffffffff163373ffffffffffffffffffffffffffffffffffffffff16141515610bb157600080fd5b80600280811115610bbe57fe5b10151515610bcb57600080fd5b806002811115610bd757fe5b600460146101000a81548160ff02191690836002811115610bf457fe5b021790555050565b6000600460149054906101000a900460ff16905090565b6000600554905090565b610c25611779565b60078054600181600116156101000203166002900480601f016020809104026020016040519081016040528092919081815260200182805460018160011615610100020316600290048015610cbb5780601f10610c9057610100808354040283529160200191610cbb565b820191906000526020600020905b815481529060010190602001808311610c9e57829003601f168201915b5050505050905090565b6000809054906101000a900473ffffffffffffffffffffffffffffffffffffffff1673ffffffffffffffffffffffffffffffffffffffff163373ffffffffffffffffffffffffffffffffffffffff16141515610d2057600080fd5b818160019190610d319291906117b9565b507f97bc322e754962c4ff23eb8a9d58b147ead5be0347d9a799addc5a2d44564cbe8282604051808060200182810382528484828181526020019250808284378201915050935050505060405180910390a15050565b610d8f611779565b600a8054600181600116156101000203166002900480601f016020809104026020016040519081016040528092919081815260200182805460018160011615610100020316600290048015610e255780601f10610dfa57610100808354040283529160200191610e25565b820191906000526020600020905b815481529060010190602001808311610e0857829003601f168201915b5050505050905090565b610e37611779565b60028054600181600116156101000203166002900480601f016020809104026020016040519081016040528092919081815260200182805460018160011615610100020316600290048015610ecd5780601f10610ea257610100808354040283529160200191610ecd565b820191906000526020600020905b815481529060010190602001808311610eb057829003601f168201915b5050505050905090565b60003073ffffffffffffffffffffffffffffffffffffffff1631905090565b6000809054906101000a900473ffffffffffffffffffffffffffffffffffffffff1673ffffffffffffffffffffffffffffffffffffffff163373ffffffffffffffffffffffffffffffffffffffff16141515610f5157600080fd5b818160029190610f629291906117b9565b507f6362a59ae98fef1a0a45d03a1127a82c2268ca380148117a052b9f8bce8e6f1e8282604051808060200182810382528484828181526020019250808284378201915050935050505060405180910390a15050565b6000809054906101000a900473ffffffffffffffffffffffffffffffffffffffff1673ffffffffffffffffffffffffffffffffffffffff163373ffffffffffffffffffffffffffffffffffffffff1614151561101357600080fd5b6000809054906101000a900473ffffffffffffffffffffffffffffffffffffffff1673ffffffffffffffffffffffffffffffffffffffff16ff5b6000809054906101000a900473ffffffffffffffffffffffffffffffffffffffff1673ffffffffffffffffffffffffffffffffffffffff163373ffffffffffffffffffffffffffffffffffffffff161415156110a857600080fd5b8181600391906110b99291906117b9565b507fcfaf57d92b1b2684731a770c593d162587ca98e9d372be876ab14b389866f0f68282604051808060200182810382528484828181526020019250808284378201915050935050505060405180910390a15050565b6000809054906101000a900473ffffffffffffffffffffffffffffffffffffffff1681565b61113c611779565b60018054600181600116156101000203166002900480601f0160208091040260200160405190810160405280929190818152602001828054600181600116156101000203166002900480156111d25780601f106111a7576101008083540402835291602001916111d2565b820191906000526020600020905b8154815290600101906020018083116111b557829003601f168201915b5050505050905090565b6000600460009054906101000a900473ffffffffffffffffffffffffffffffffffffffff1673ffffffffffffffffffffffffffffffffffffffff163373ffffffffffffffffffffffffffffffffffffffff1614151561123a57600080fd5b828290509050610100811115151561125157600080fd5b8282600791906112629291906117b9565b50505050565b6000600b60009054906101000a900473ffffffffffffffffffffffffffffffffffffffff16905090565b600080600460009054906101000a900473ffffffffffffffffffffffffffffffffffffffff1673ffffffffffffffffffffffffffffffffffffffff163373ffffffffffffffffffffffffffffffffffffffff161415156112f157600080fd5b6010602060ff161115151561130557600080fd5b600160088054905003915060088281548110151561131f57fe5b90600052602060002090015490508060088581548110151561133d57fe5b90600052602060002090018160001916905550600060088381548110151561136157fe5b9060005260206000209001816000191690555060088054809190600190036113899190611839565b5050505050565b6000600960009054906101000a900473ffffffffffffffffffffffffffffffffffffffff16905090565b6000600460009054906101000a900473ffffffffffffffffffffffffffffffffffffffff1673ffffffffffffffffffffffffffffffffffffffff163373ffffffffffffffffffffffffffffffffffffffff1614151561141857600080fd5b82829050905060008111801561142f575060208111155b151561143a57600080fd5b82826006919061144b9291906117b9565b50505050565b600460009054906101000a900473ffffffffffffffffffffffffffffffffffffffff1673ffffffffffffffffffffffffffffffffffffffff163373ffffffffffffffffffffffffffffffffffffffff161415156114ad57600080fd5b8060058190555050565b600460009054906101000a900473ffffffffffffffffffffffffffffffffffffffff1673ffffffffffffffffffffffffffffffffffffffff163373ffffffffffffffffffffffffffffffffffffffff1614151561151357600080fd5b6010602060ff161115151561152757600080fd5b8060088381548110151561153757fe5b906000526020600020900181600019169055505050565b6000809054906101000a900473ffffffffffffffffffffffffffffffffffffffff1673ffffffffffffffffffffffffffffffffffffffff163373ffffffffffffffffffffffffffffffffffffffff161415156115a957600080fd5b600073ffffffffffffffffffffffffffffffffffffffff168173ffffffffffffffffffffffffffffffffffffffff16141515156115e557600080fd5b8073ffffffffffffffffffffffffffffffffffffffff166000809054906101000a900473ffffffffffffffffffffffffffffffffffffffff1673ffffffffffffffffffffffffffffffffffffffff167f8be0079c531659141344cd1fd0a4f28419497f9722a3daafe3b4186f6b6457e060405160405180910390a3806000806101000a81548173ffffffffffffffffffffffffffffffffffffffff021916908373ffffffffffffffffffffffffffffffffffffffff16021790555050565b6000809054906101000a900473ffffffffffffffffffffffffffffffffffffffff1673ffffffffffffffffffffffffffffffffffffffff163373ffffffffffffffffffffffffffffffffffffffff161415156116fe57600080fd5b8073ffffffffffffffffffffffffffffffffffffffff16ff5b61171f611865565b600880548060200260200160405190810160405280929190818152602001828054801561176f57602002820191906000526020600020905b81546000191681526020019060010190808311611757575b5050505050905090565b602060405190810160405280600081525090565b8154818355818115116117b4578183600052602060002091820191016117b39190611879565b5b505050565b828054600181600116156101000203166002900490600052602060002090601f016020900481019282601f106117fa57803560ff1916838001178555611828565b82800160010185558215611828579182015b8281111561182757823582559160200191906001019061180c565b5b509050611835919061189e565b5090565b8154818355818115116118605781836000526020600020918201910161185f9190611879565b5b505050565b602060405190810160405280600081525090565b61189b91905b8082111561189757600081600090555060010161187f565b5090565b90565b6118c091905b808211156118bc5760008160009055506001016118a4565b5090565b905600a165627a7a72305820f7a5029f73132f12090cc44df0f14696e484ed501440373414c5bd2594acfafb0029",
  "source": "pragma solidity ^0.4.19;\n\nimport \"../common/IPFSeable.sol\";\nimport \"./RegistryAccessControl.sol\";\n// import \"../common/RegistrySafe.sol\";\n\n\ncontract Chaingeareable is IPFSeable, RegistryAccessControl {\n\n    uint internal entryCreationFee_;\n    string internal registryName_;\n    string internal registryDescription_;\n    bytes32[] internal registryTags_;\n    address internal entryBase_;\n    string internal linkToABIOfEntriesContract_;\n\n    address internal registrySafe_;\n\n    event EntryCreated(\n        address creator,\n        uint entryId\n    );\n\n    event EntryUpdated(\n        address owner,\n        uint entryId\n    );\n\n    event EntryChangedOwner(\n        uint entryId,\n        address newOwner\n    );\n\n    event EntryDeleted(\n        address owner,\n        uint entryId\n    );\n\n    function entryBase()\n        public\n        view\n        returns (address)\n    {\n        return entryBase_;\n    }\n\n    function ABIOfEntriesContract()\n        public\n        view\n        returns (string)\n    {\n        return linkToABIOfEntriesContract_;\n    }\n\n    function registryBalance()\n        public\n        view\n        returns (uint)\n    {\n        return this.balance;\n    }\n\n    function entryCreationFee()\n        public\n        view\n        returns (uint)\n    {\n        return entryCreationFee_;\n    }\n\n    function registryName()\n        public\n        view\n        returns (string)\n    {\n        return registryName_;\n    }\n\n    function registryDescription()\n        public\n        view\n        returns (string)\n    {\n        return registryDescription_;\n    }\n\n    function registryTags()\n        public\n        view\n        returns (bytes32[])\n    {\n        return registryTags_;\n    }\n\n    function updateEntryCreationFee(uint _fee)\n        external\n        onlyCreator\n    {\n        entryCreationFee_ = _fee;\n    }\n\n    function updateRegistryName(string _registryName)\n        external\n        onlyCreator\n    {\n        uint len = bytes(_registryName).length;\n        require(len > 0 && len <= 32);\n\n        registryName_ = _registryName;\n    }\n\n    function updateRegistryDescription(string _registryDescription)\n        external\n        onlyCreator\n    {\n        uint len = bytes(_registryDescription).length;\n        require(len <= 256);\n\n        registryDescription_ = _registryDescription;\n    }\n\n    function addRegistryTag(bytes32 _tag)\n        external\n        onlyCreator\n    {\n        require(_tag.length <= 16);\n\n        registryTags_.push(_tag);\n    }\n\n    function updateRegistryTag(uint256 _index, bytes32 _tag)\n        external\n        onlyCreator\n    {\n        require(_tag.length <= 16);\n\n        registryTags_[_index] = _tag;\n    }\n\n    function removeRegistryTag(uint256 _index, bytes32 _tag)\n        external\n        onlyCreator\n    {\n        require(_tag.length <= 16);\n\n        uint256 lastTagIndex = registryTags_.length - 1;\n        bytes32 lastTag = registryTags_[lastTagIndex];\n\n        registryTags_[_index] = lastTag;\n        registryTags_[lastTagIndex] = \"\"; //\"\"?\n        registryTags_.length--;\n    }\n\n    function registrySafe()\n        public\n        view\n        returns (address)\n    {\n        return registrySafe_;\n    }\n\n}\n",
  "sourcePath": "/Users/litvintech/Projects/chaingear/contracts/registry/Chaingeareable.sol",
  "compiler": {
    "name": "solc",
    "version": "0.4.19+commit.c4cbbb05.Emscripten.clang"
  },
  "schemaVersion": "1.0.1",
  "updatedAt": "2018-04-19T16:48:45.077Z"
}