{
  "contractName": "Chaingeareable",
  "abi": [
    {
      "constant": true,
      "inputs": [],
      "name": "name",
      "outputs": [
        {
          "name": "",
          "type": "string"
        }
      ],
      "payable": false,
      "stateMutability": "view",
      "type": "function"
    },
    {
      "constant": true,
      "inputs": [],
      "name": "entryCreationFee",
      "outputs": [
        {
          "name": "",
          "type": "uint256"
        }
      ],
      "payable": false,
      "stateMutability": "view",
      "type": "function"
    },
    {
      "constant": true,
      "inputs": [],
      "name": "totalShares",
      "outputs": [
        {
          "name": "",
          "type": "uint256"
        }
      ],
      "payable": false,
      "stateMutability": "view",
      "type": "function"
    },
    {
      "constant": false,
      "inputs": [],
      "name": "unpause",
      "outputs": [],
      "payable": false,
      "stateMutability": "nonpayable",
      "type": "function"
    },
    {
      "constant": false,
      "inputs": [],
      "name": "claim",
      "outputs": [],
      "payable": false,
      "stateMutability": "nonpayable",
      "type": "function"
    },
    {
      "constant": true,
      "inputs": [],
      "name": "paused",
      "outputs": [
        {
          "name": "",
          "type": "bool"
        }
      ],
      "payable": false,
      "stateMutability": "view",
      "type": "function"
    },
    {
      "constant": true,
      "inputs": [
        {
          "name": "",
          "type": "uint256"
        }
      ],
      "name": "payees",
      "outputs": [
        {
          "name": "",
          "type": "address"
        }
      ],
      "payable": false,
      "stateMutability": "view",
      "type": "function"
    },
    {
      "constant": true,
      "inputs": [],
      "name": "description",
      "outputs": [
        {
          "name": "",
          "type": "string"
        }
      ],
      "payable": false,
      "stateMutability": "view",
      "type": "function"
    },
    {
      "constant": false,
      "inputs": [
        {
          "name": "_payeeIndex",
          "type": "uint256"
        },
        {
          "name": "_newAddress",
          "type": "address"
        }
      ],
      "name": "changePayeeAddress",
      "outputs": [],
      "payable": false,
      "stateMutability": "nonpayable",
      "type": "function"
    },
    {
      "constant": false,
      "inputs": [],
      "name": "destroy",
      "outputs": [],
      "payable": false,
      "stateMutability": "nonpayable",
      "type": "function"
    },
    {
      "constant": false,
      "inputs": [],
      "name": "pause",
      "outputs": [],
      "payable": false,
      "stateMutability": "nonpayable",
      "type": "function"
    },
    {
      "constant": true,
      "inputs": [],
      "name": "owner",
      "outputs": [
        {
          "name": "",
          "type": "address"
        }
      ],
      "payable": false,
      "stateMutability": "view",
      "type": "function"
    },
    {
      "constant": true,
      "inputs": [
        {
          "name": "",
          "type": "address"
        }
      ],
      "name": "released",
      "outputs": [
        {
          "name": "",
          "type": "uint256"
        }
      ],
      "payable": false,
      "stateMutability": "view",
      "type": "function"
    },
    {
      "constant": true,
      "inputs": [
        {
          "name": "",
          "type": "address"
        }
      ],
      "name": "shares",
      "outputs": [
        {
          "name": "",
          "type": "uint256"
        }
      ],
      "payable": false,
      "stateMutability": "view",
      "type": "function"
    },
    {
      "constant": true,
      "inputs": [],
      "name": "tags",
      "outputs": [
        {
          "name": "",
          "type": "string"
        }
      ],
      "payable": false,
      "stateMutability": "view",
      "type": "function"
    },
    {
      "constant": true,
      "inputs": [],
      "name": "totalReleased",
      "outputs": [
        {
          "name": "",
          "type": "uint256"
        }
      ],
      "payable": false,
      "stateMutability": "view",
      "type": "function"
    },
    {
      "constant": true,
      "inputs": [],
      "name": "permissionType",
      "outputs": [
        {
          "name": "",
          "type": "uint8"
        }
      ],
      "payable": false,
      "stateMutability": "view",
      "type": "function"
    },
    {
      "constant": false,
      "inputs": [
        {
          "name": "newOwner",
          "type": "address"
        }
      ],
      "name": "transferOwnership",
      "outputs": [],
      "payable": false,
      "stateMutability": "nonpayable",
      "type": "function"
    },
    {
      "constant": false,
      "inputs": [
        {
          "name": "_recipient",
          "type": "address"
        }
      ],
      "name": "destroyAndSend",
      "outputs": [],
      "payable": false,
      "stateMutability": "nonpayable",
      "type": "function"
    },
    {
      "inputs": [
        {
          "name": "_benefitiaries",
          "type": "address[]"
        },
        {
          "name": "_shares",
          "type": "uint256[]"
        },
        {
          "name": "_permissionType",
          "type": "uint8"
        },
        {
          "name": "_entryCreationFee",
          "type": "uint256"
        },
        {
          "name": "_name",
          "type": "string"
        },
        {
          "name": "_description",
          "type": "string"
        },
        {
          "name": "_tags",
          "type": "string"
        }
      ],
      "payable": false,
      "stateMutability": "nonpayable",
      "type": "constructor"
    },
    {
      "anonymous": false,
      "inputs": [
        {
          "indexed": false,
          "name": "payeeIndex",
          "type": "uint256"
        },
        {
          "indexed": false,
          "name": "oldAddress",
          "type": "address"
        },
        {
          "indexed": false,
          "name": "newAddress",
          "type": "address"
        }
      ],
      "name": "PayeeAddressChanged",
      "type": "event"
    },
    {
      "anonymous": false,
      "inputs": [],
      "name": "Pause",
      "type": "event"
    },
    {
      "anonymous": false,
      "inputs": [],
      "name": "Unpause",
      "type": "event"
    },
    {
      "anonymous": false,
      "inputs": [
        {
          "indexed": true,
          "name": "previousOwner",
          "type": "address"
        },
        {
          "indexed": true,
          "name": "newOwner",
          "type": "address"
        }
      ],
      "name": "OwnershipTransferred",
      "type": "event"
    },
    {
      "constant": false,
      "inputs": [
        {
          "name": "_fee",
          "type": "uint256"
        }
      ],
      "name": "updateEntryCreationFee",
      "outputs": [],
      "payable": false,
      "stateMutability": "nonpayable",
      "type": "function"
    },
    {
      "constant": false,
      "inputs": [
        {
          "name": "_permissionType",
          "type": "uint8"
        }
      ],
      "name": "updatePermissionType",
      "outputs": [],
      "payable": false,
      "stateMutability": "nonpayable",
      "type": "function"
    },
    {
      "constant": false,
      "inputs": [
        {
          "name": "_name",
          "type": "string"
        }
      ],
      "name": "updateName",
      "outputs": [],
      "payable": false,
      "stateMutability": "nonpayable",
      "type": "function"
    },
    {
      "constant": false,
      "inputs": [
        {
          "name": "_description",
          "type": "string"
        }
      ],
      "name": "updateDescription",
      "outputs": [],
      "payable": false,
      "stateMutability": "nonpayable",
      "type": "function"
    },
    {
      "constant": false,
      "inputs": [
        {
          "name": "_tags",
          "type": "string"
        }
      ],
      "name": "updateTags",
      "outputs": [],
      "payable": false,
      "stateMutability": "nonpayable",
      "type": "function"
    },
    {
      "constant": false,
      "inputs": [
        {
          "name": "_name",
          "type": "string"
        },
        {
          "name": "_chaingearAddress",
          "type": "address"
        }
      ],
      "name": "registerInChaingear",
      "outputs": [],
      "payable": false,
      "stateMutability": "nonpayable",
      "type": "function"
    }
  ],
  "bytecode": "0x60606040526000805560006001556000600560146101000a81548160ff02191690831515021790555034156200003457600080fd5b60405162001e7538038062001e7583398101604052808051820191906020018051820191906020018051906020019091908051906020019091908051820191906020018051820191906020018051820191905050868681816000815183511415156200009f57600080fd5b600090505b82518110156200010c57620000fe8382815181101515620000c157fe5b906020019060200201518383815181101515620000da57fe5b90602001906020020151620001d56401000000000262001868176401000000009004565b8080600101915050620000a4565b50505033600560006101000a81548173ffffffffffffffffffffffffffffffffffffffff021916908373ffffffffffffffffffffffffffffffffffffffff160217905550505084600960006101000a81548160ff021916908360028111156200017157fe5b021790555083600a8190555082600690805190602001906200019592919062000368565b508160079080519060200190620001ae92919062000368565b508060089080519060200190620001c792919062000368565b505050505050505062000446565b600073ffffffffffffffffffffffffffffffffffffffff168273ffffffffffffffffffffffffffffffffffffffff16141515156200021257600080fd5b6000811115156200022257600080fd5b6000600260008473ffffffffffffffffffffffffffffffffffffffff1673ffffffffffffffffffffffffffffffffffffffff168152602001908152602001600020541415156200027157600080fd5b60048054806001018281620002879190620003ef565b9160005260206000209001600084909190916101000a81548173ffffffffffffffffffffffffffffffffffffffff021916908373ffffffffffffffffffffffffffffffffffffffff1602179055505080600260008473ffffffffffffffffffffffffffffffffffffffff1673ffffffffffffffffffffffffffffffffffffffff168152602001908152602001600020819055506200033f81600054620003496401000000000262001736179091906401000000009004565b6000819055505050565b60008082840190508381101515156200035e57fe5b8091505092915050565b828054600181600116156101000203166002900490600052602060002090601f016020900481019282601f10620003ab57805160ff1916838001178555620003dc565b82800160010185558215620003dc579182015b82811115620003db578251825591602001919060010190620003be565b5b509050620003eb91906200041e565b5090565b81548183558181151162000419578183600052602060002091820191016200041891906200041e565b5b505050565b6200044391905b808211156200043f57600081600090555060010162000425565b5090565b90565b611a1f80620004566000396000f300606060405260043610610149576000357c0100000000000000000000000000000000000000000000000000000000900463ffffffff16806306fdde031461014e5780633a1a3d95146101dc5780633a98ef39146102055780633f4ba83a1461022e5780634e71d92d146102435780635b2c904f146102585780635c975abb1461028657806363037b0c146102b35780637284e416146103165780637b493768146103a457806383197ef0146103e65780638456cb59146103fb57806384da92a7146104105780638da5cb5b1461043e5780639852595c14610493578063c209586b146104e0578063ce7c2ac21461052d578063d24f70761461057a578063de6b7e091461059d578063e33b7de31461062b578063e4df8b3414610654578063e735b48a1461067a578063e7b78392146106a8578063f2fde38b146106df578063f5074f4114610718575b600080fd5b341561015957600080fd5b610161610751565b6040518080602001828103825283818151815260200191508051906020019080838360005b838110156101a1578082015181840152602081019050610186565b50505050905090810190601f1680156101ce5780820380516001836020036101000a031916815260200191505b509250505060405180910390f35b34156101e757600080fd5b6101ef6107ef565b6040518082815260200191505060405180910390f35b341561021057600080fd5b6102186107f5565b6040518082815260200191505060405180910390f35b341561023957600080fd5b6102416107fb565b005b341561024e57600080fd5b6102566108bb565b005b341561026357600080fd5b61028460048080359060200190820180359060200191909192905050610b23565b005b341561029157600080fd5b610299610bae565b604051808215151515815260200191505060405180910390f35b34156102be57600080fd5b6102d46004808035906020019091905050610bc1565b604051808273ffffffffffffffffffffffffffffffffffffffff1673ffffffffffffffffffffffffffffffffffffffff16815260200191505060405180910390f35b341561032157600080fd5b610329610c00565b6040518080602001828103825283818151815260200191508051906020019080838360005b8381101561036957808201518184015260208101905061034e565b50505050905090810190601f1680156103965780820380516001836020036101000a031916815260200191505b509250505060405180910390f35b34156103af57600080fd5b6103e4600480803590602001909190803573ffffffffffffffffffffffffffffffffffffffff16906020019091905050610c9e565b005b34156103f157600080fd5b6103f9610fc2565b005b341561040657600080fd5b61040e611059565b005b341561041b57600080fd5b61043c6004808035906020019082018035906020019190919290505061111a565b005b341561044957600080fd5b6104516111b1565b604051808273ffffffffffffffffffffffffffffffffffffffff1673ffffffffffffffffffffffffffffffffffffffff16815260200191505060405180910390f35b341561049e57600080fd5b6104ca600480803573ffffffffffffffffffffffffffffffffffffffff169060200190919050506111d7565b6040518082815260200191505060405180910390f35b34156104eb57600080fd5b61052b6004808035906020019082018035906020019190919290803573ffffffffffffffffffffffffffffffffffffffff169060200190919050506111ef565b005b341561053857600080fd5b610564600480803573ffffffffffffffffffffffffffffffffffffffff16906020019091905050611326565b6040518082815260200191505060405180910390f35b341561058557600080fd5b61059b600480803590602001909190505061133e565b005b34156105a857600080fd5b6105b06113a4565b6040518080602001828103825283818151815260200191508051906020019080838360005b838110156105f05780820151818401526020810190506105d5565b50505050905090810190601f16801561061d5780820380516001836020036101000a031916815260200191505b509250505060405180910390f35b341561063657600080fd5b61063e611442565b6040518082815260200191505060405180910390f35b341561065f57600080fd5b610678600480803560ff16906020019091905050611448565b005b341561068557600080fd5b6106a6600480803590602001908201803590602001919091929050506114ca565b005b34156106b357600080fd5b6106bb611556565b604051808260028111156106cb57fe5b60ff16815260200191505060405180910390f35b34156106ea57600080fd5b610716600480803573ffffffffffffffffffffffffffffffffffffffff16906020019091905050611569565b005b341561072357600080fd5b61074f600480803573ffffffffffffffffffffffffffffffffffffffff169060200190919050506116c1565b005b60068054600181600116156101000203166002900480601f0160208091040260200160405190810160405280929190818152602001828054600181600116156101000203166002900480156107e75780601f106107bc576101008083540402835291602001916107e7565b820191906000526020600020905b8154815290600101906020018083116107ca57829003601f168201915b505050505081565b600a5481565b60005481565b600560009054906101000a900473ffffffffffffffffffffffffffffffffffffffff1673ffffffffffffffffffffffffffffffffffffffff163373ffffffffffffffffffffffffffffffffffffffff1614151561085757600080fd5b600560149054906101000a900460ff16151561087257600080fd5b6000600560146101000a81548160ff0219169083151502179055507f7805862f689e2f13df9f062ff482ad3ad112aca9e0847911ed832e158c525b3360405160405180910390a1565b60008060003392506000600260008573ffffffffffffffffffffffffffffffffffffffff1673ffffffffffffffffffffffffffffffffffffffff1681526020019081526020016000205411151561091157600080fd5b61093d6001543073ffffffffffffffffffffffffffffffffffffffff163161173690919063ffffffff16565b91506109f6600360008573ffffffffffffffffffffffffffffffffffffffff1673ffffffffffffffffffffffffffffffffffffffff168152602001908152602001600020546109e86000546109da600260008973ffffffffffffffffffffffffffffffffffffffff1673ffffffffffffffffffffffffffffffffffffffff168152602001908152602001600020548761175490919063ffffffff16565b61178f90919063ffffffff16565b6117aa90919063ffffffff16565b905060008114151515610a0857600080fd5b803073ffffffffffffffffffffffffffffffffffffffff163110151515610a2e57600080fd5b610a8081600360008673ffffffffffffffffffffffffffffffffffffffff1673ffffffffffffffffffffffffffffffffffffffff1681526020019081526020016000205461173690919063ffffffff16565b600360008573ffffffffffffffffffffffffffffffffffffffff1673ffffffffffffffffffffffffffffffffffffffff16815260200190815260200160002081905550610ad88160015461173690919063ffffffff16565b6001819055508273ffffffffffffffffffffffffffffffffffffffff166108fc829081150290604051600060405180830381858888f193505050501515610b1e57600080fd5b505050565b6000600560009054906101000a900473ffffffffffffffffffffffffffffffffffffffff1673ffffffffffffffffffffffffffffffffffffffff163373ffffffffffffffffffffffffffffffffffffffff16141515610b8157600080fd5b82829050905060408111151515610b9757600080fd5b828260089190610ba89291906117c3565b50505050565b600560149054906101000a900460ff1681565b600481815481101515610bd057fe5b90600052602060002090016000915054906101000a900473ffffffffffffffffffffffffffffffffffffffff1681565b60078054600181600116156101000203166002900480601f016020809104026020016040519081016040528092919081815260200182805460018160011615610100020316600290048015610c965780601f10610c6b57610100808354040283529160200191610c96565b820191906000526020600020905b815481529060010190602001808311610c7957829003601f168201915b505050505081565b6000600560009054906101000a900473ffffffffffffffffffffffffffffffffffffffff1673ffffffffffffffffffffffffffffffffffffffff163373ffffffffffffffffffffffffffffffffffffffff16141515610cfc57600080fd5b600483815481101515610d0b57fe5b906000526020600020900160009054906101000a900473ffffffffffffffffffffffffffffffffffffffff169050600260008273ffffffffffffffffffffffffffffffffffffffff1673ffffffffffffffffffffffffffffffffffffffff16815260200190815260200160002054600260008473ffffffffffffffffffffffffffffffffffffffff1673ffffffffffffffffffffffffffffffffffffffff16815260200190815260200160002081905550600360008273ffffffffffffffffffffffffffffffffffffffff1673ffffffffffffffffffffffffffffffffffffffff16815260200190815260200160002054600360008473ffffffffffffffffffffffffffffffffffffffff1673ffffffffffffffffffffffffffffffffffffffff1681526020019081526020016000208190555081600484815481101515610e4f57fe5b906000526020600020900160006101000a81548173ffffffffffffffffffffffffffffffffffffffff021916908373ffffffffffffffffffffffffffffffffffffffff160217905550600260008273ffffffffffffffffffffffffffffffffffffffff1673ffffffffffffffffffffffffffffffffffffffff16815260200190815260200160002060009055600360008273ffffffffffffffffffffffffffffffffffffffff1673ffffffffffffffffffffffffffffffffffffffff168152602001908152602001600020600090557fa1982f3fe3fa9dba8ce5bc91687e2ab0850b0431cddacc1a249b2ae0390b912f838284604051808481526020018373ffffffffffffffffffffffffffffffffffffffff1673ffffffffffffffffffffffffffffffffffffffff1681526020018273ffffffffffffffffffffffffffffffffffffffff1673ffffffffffffffffffffffffffffffffffffffff168152602001935050505060405180910390a1505050565b600560009054906101000a900473ffffffffffffffffffffffffffffffffffffffff1673ffffffffffffffffffffffffffffffffffffffff163373ffffffffffffffffffffffffffffffffffffffff1614151561101e57600080fd5b600560009054906101000a900473ffffffffffffffffffffffffffffffffffffffff1673ffffffffffffffffffffffffffffffffffffffff16ff5b600560009054906101000a900473ffffffffffffffffffffffffffffffffffffffff1673ffffffffffffffffffffffffffffffffffffffff163373ffffffffffffffffffffffffffffffffffffffff161415156110b557600080fd5b600560149054906101000a900460ff161515156110d157600080fd5b6001600560146101000a81548160ff0219169083151502179055507f6985a02210a168e66602d3235cb6db0e70f92b3ba4d376a33c0f3d9434bff62560405160405180910390a1565b6000600560009054906101000a900473ffffffffffffffffffffffffffffffffffffffff1673ffffffffffffffffffffffffffffffffffffffff163373ffffffffffffffffffffffffffffffffffffffff1614151561117857600080fd5b82829050905060008111801561118f575060208111155b151561119a57600080fd5b8282600691906111ab9291906117c3565b50505050565b600560009054906101000a900473ffffffffffffffffffffffffffffffffffffffff1681565b60036020528060005260406000206000915090505481565b6000600560009054906101000a900473ffffffffffffffffffffffffffffffffffffffff1673ffffffffffffffffffffffffffffffffffffffff163373ffffffffffffffffffffffffffffffffffffffff1614151561124d57600080fd5b8190508073ffffffffffffffffffffffffffffffffffffffff16631e59c5298585306040518463ffffffff167c010000000000000000000000000000000000000000000000000000000002815260040180806020018373ffffffffffffffffffffffffffffffffffffffff1673ffffffffffffffffffffffffffffffffffffffff16815260200182810382528585828181526020019250808284378201915050945050505050600060405180830381600087803b151561130c57600080fd5b6102c65a03f1151561131d57600080fd5b50505050505050565b60026020528060005260406000206000915090505481565b600560009054906101000a900473ffffffffffffffffffffffffffffffffffffffff1673ffffffffffffffffffffffffffffffffffffffff163373ffffffffffffffffffffffffffffffffffffffff1614151561139a57600080fd5b80600a8190555050565b60088054600181600116156101000203166002900480601f01602080910402602001604051908101604052809291908181526020018280546001816001161561010002031660029004801561143a5780601f1061140f5761010080835404028352916020019161143a565b820191906000526020600020905b81548152906001019060200180831161141d57829003601f168201915b505050505081565b60015481565b600560009054906101000a900473ffffffffffffffffffffffffffffffffffffffff1673ffffffffffffffffffffffffffffffffffffffff163373ffffffffffffffffffffffffffffffffffffffff161415156114a457600080fd5b80600960006101000a81548160ff021916908360028111156114c257fe5b021790555050565b6000600560009054906101000a900473ffffffffffffffffffffffffffffffffffffffff1673ffffffffffffffffffffffffffffffffffffffff163373ffffffffffffffffffffffffffffffffffffffff1614151561152857600080fd5b828290509050610100811115151561153f57600080fd5b8282600791906115509291906117c3565b50505050565b600960009054906101000a900460ff1681565b600560009054906101000a900473ffffffffffffffffffffffffffffffffffffffff1673ffffffffffffffffffffffffffffffffffffffff163373ffffffffffffffffffffffffffffffffffffffff161415156115c557600080fd5b600073ffffffffffffffffffffffffffffffffffffffff168173ffffffffffffffffffffffffffffffffffffffff161415151561160157600080fd5b8073ffffffffffffffffffffffffffffffffffffffff16600560009054906101000a900473ffffffffffffffffffffffffffffffffffffffff1673ffffffffffffffffffffffffffffffffffffffff167f8be0079c531659141344cd1fd0a4f28419497f9722a3daafe3b4186f6b6457e060405160405180910390a380600560006101000a81548173ffffffffffffffffffffffffffffffffffffffff021916908373ffffffffffffffffffffffffffffffffffffffff16021790555050565b600560009054906101000a900473ffffffffffffffffffffffffffffffffffffffff1673ffffffffffffffffffffffffffffffffffffffff163373ffffffffffffffffffffffffffffffffffffffff1614151561171d57600080fd5b8073ffffffffffffffffffffffffffffffffffffffff16ff5b600080828401905083811015151561174a57fe5b8091505092915050565b60008060008414156117695760009150611788565b828402905082848281151561177a57fe5b0414151561178457fe5b8091505b5092915050565b600080828481151561179d57fe5b0490508091505092915050565b60008282111515156117b857fe5b818303905092915050565b828054600181600116156101000203166002900490600052602060002090601f016020900481019282601f1061180457803560ff1916838001178555611832565b82800160010185558215611832579182015b82811115611831578235825591602001919060010190611816565b5b50905061183f9190611843565b5090565b61186591905b80821115611861576000816000905550600101611849565b5090565b90565b600073ffffffffffffffffffffffffffffffffffffffff168273ffffffffffffffffffffffffffffffffffffffff16141515156118a457600080fd5b6000811115156118b357600080fd5b6000600260008473ffffffffffffffffffffffffffffffffffffffff1673ffffffffffffffffffffffffffffffffffffffff1681526020019081526020016000205414151561190157600080fd5b6004805480600101828161191591906119c7565b9160005260206000209001600084909190916101000a81548173ffffffffffffffffffffffffffffffffffffffff021916908373ffffffffffffffffffffffffffffffffffffffff1602179055505080600260008473ffffffffffffffffffffffffffffffffffffffff1673ffffffffffffffffffffffffffffffffffffffff168152602001908152602001600020819055506119bd8160005461173690919063ffffffff16565b6000819055505050565b8154818355818115116119ee578183600052602060002091820191016119ed9190611843565b5b5050505600a165627a7a723058208cd5dd9a5ebcf7a9b2e0f2da2285ec0fa87596fd0a74c4baacc3332b1ed6856e0029",
  "source": "pragma solidity ^0.4.17;\n\nimport \"zeppelin-solidity/contracts/lifecycle/Destructible.sol\";\nimport \"zeppelin-solidity/contracts/lifecycle/Pausable.sol\";\n/* import \"zeppelin-solidity/contracts/ownership/Claimable.sol\"; */\n/* import \"zeppelin-solidity/contracts/ownership/Whitelist.sol\"; */\nimport \"zeppelin-solidity/contracts/ownership/Ownable.sol\";\nimport \"./SplitPaymentChangeable.sol\";\nimport \"./IPFSeable.sol\";\nimport \"./ChaingearRegistreable.sol\";\n\n\ncontract Chaingeareable is Ownable, Destructible, Pausable, SplitPaymentChangeable {\n\n    string public name;\n    string public description;\n    string public tags;\n    PermissionType public permissionType;\n    uint public entryCreationFee;\n\n    enum PermissionType {OnlyOwner, AllUsers, Whitelist}\n\n    function Chaingeareable(\n        address[] _benefitiaries,\n        uint256[] _shares,\n        PermissionType _permissionType,\n        uint _entryCreationFee,\n        string _name,\n        string _description,\n        string _tags\n    ) SplitPaymentChangeable(_benefitiaries, _shares) public\n    {\n        permissionType = _permissionType;\n        entryCreationFee = _entryCreationFee;\n        name = _name;\n        description = _description;\n        tags = _tags;\n    }\n\n    function updateEntryCreationFee(uint _fee) external onlyOwner {\n        entryCreationFee = _fee;\n    }\n\n    function updatePermissionType(PermissionType _permissionType) external onlyOwner {\n        permissionType = _permissionType;\n    }\n\n    function updateName(string _name) external onlyOwner {\n        uint len = bytes(_name).length;\n        require(len > 0 && len <= 32);\n\n        name = _name;\n    }\n\n    function updateDescription(string _description) external onlyOwner {\n        uint len = bytes(_description).length;\n        require(len <= 256);\n\n        description = _description;\n    }\n\n    //change to array\n    function updateTags(string _tags) external onlyOwner {\n        uint len = bytes(_tags).length;\n        require(len <= 64);\n\n        tags = _tags;\n    }\n\n    function registerInChaingear(string _name, address _chaingearAddress) external onlyOwner {\n        ChaingearRegistreable chaingear = ChaingearRegistreable(_chaingearAddress);\n        chaingear.register(_name, this);\n    }\n}\n",
  "sourcePath": "/Users/andrey/projects/cyberFund/chaingear/contracts/common/Chaingeareable.sol",
  "compiler": {
    "name": "solc",
    "version": "0.4.19+commit.c4cbbb05.Emscripten.clang"
  },
  "schemaVersion": "2.0.0",
  "updatedAt": "2018-04-04T11:03:13.003Z"
}