{
  "contractName": "Chaingear",
  "abi": [
    {
      "constant": true,
      "inputs": [],
      "name": "name",
      "outputs": [
        {
          "name": "",
          "type": "string"
        }
      ],
      "payable": false,
      "stateMutability": "view",
      "type": "function"
    },
    {
      "constant": true,
      "inputs": [],
      "name": "registrationFee",
      "outputs": [
        {
          "name": "",
          "type": "uint256"
        }
      ],
      "payable": false,
      "stateMutability": "view",
      "type": "function"
    },
    {
      "constant": true,
      "inputs": [],
      "name": "totalShares",
      "outputs": [
        {
          "name": "",
          "type": "uint256"
        }
      ],
      "payable": false,
      "stateMutability": "view",
      "type": "function"
    },
    {
      "constant": false,
      "inputs": [],
      "name": "unpause",
      "outputs": [],
      "payable": false,
      "stateMutability": "nonpayable",
      "type": "function"
    },
    {
      "constant": false,
      "inputs": [],
      "name": "claim",
      "outputs": [],
      "payable": false,
      "stateMutability": "nonpayable",
      "type": "function"
    },
    {
      "constant": true,
      "inputs": [],
      "name": "paused",
      "outputs": [
        {
          "name": "",
          "type": "bool"
        }
      ],
      "payable": false,
      "stateMutability": "view",
      "type": "function"
    },
    {
      "constant": true,
      "inputs": [
        {
          "name": "",
          "type": "uint256"
        }
      ],
      "name": "payees",
      "outputs": [
        {
          "name": "",
          "type": "address"
        }
      ],
      "payable": false,
      "stateMutability": "view",
      "type": "function"
    },
    {
      "constant": true,
      "inputs": [
        {
          "name": "",
          "type": "uint256"
        }
      ],
      "name": "registries",
      "outputs": [
        {
          "name": "name",
          "type": "string"
        },
        {
          "name": "contractAddress",
          "type": "address"
        },
        {
          "name": "creator",
          "type": "address"
        },
        {
          "name": "registrationTimestamp",
          "type": "uint256"
        }
      ],
      "payable": false,
      "stateMutability": "view",
      "type": "function"
    },
    {
      "constant": true,
      "inputs": [],
      "name": "description",
      "outputs": [
        {
          "name": "",
          "type": "string"
        }
      ],
      "payable": false,
      "stateMutability": "view",
      "type": "function"
    },
    {
      "constant": false,
      "inputs": [
        {
          "name": "_payeeIndex",
          "type": "uint256"
        },
        {
          "name": "_newAddress",
          "type": "address"
        }
      ],
      "name": "changePayeeAddress",
      "outputs": [],
      "payable": false,
      "stateMutability": "nonpayable",
      "type": "function"
    },
    {
      "constant": false,
      "inputs": [],
      "name": "destroy",
      "outputs": [],
      "payable": false,
      "stateMutability": "nonpayable",
      "type": "function"
    },
    {
      "constant": false,
      "inputs": [],
      "name": "pause",
      "outputs": [],
      "payable": false,
      "stateMutability": "nonpayable",
      "type": "function"
    },
    {
      "constant": false,
      "inputs": [
        {
          "name": "_linkMeta",
          "type": "string"
        }
      ],
      "name": "updateMetaLink",
      "outputs": [],
      "payable": false,
      "stateMutability": "nonpayable",
      "type": "function"
    },
    {
      "constant": true,
      "inputs": [],
      "name": "owner",
      "outputs": [
        {
          "name": "",
          "type": "address"
        }
      ],
      "payable": false,
      "stateMutability": "view",
      "type": "function"
    },
    {
      "constant": true,
      "inputs": [
        {
          "name": "",
          "type": "address"
        }
      ],
      "name": "released",
      "outputs": [
        {
          "name": "",
          "type": "uint256"
        }
      ],
      "payable": false,
      "stateMutability": "view",
      "type": "function"
    },
    {
      "constant": true,
      "inputs": [
        {
          "name": "",
          "type": "address"
        }
      ],
      "name": "shares",
      "outputs": [
        {
          "name": "",
          "type": "uint256"
        }
      ],
      "payable": false,
      "stateMutability": "view",
      "type": "function"
    },
    {
      "constant": true,
      "inputs": [],
      "name": "totalReleased",
      "outputs": [
        {
          "name": "",
          "type": "uint256"
        }
      ],
      "payable": false,
      "stateMutability": "view",
      "type": "function"
    },
    {
      "constant": false,
      "inputs": [
        {
          "name": "newOwner",
          "type": "address"
        }
      ],
      "name": "transferOwnership",
      "outputs": [],
      "payable": false,
      "stateMutability": "nonpayable",
      "type": "function"
    },
    {
      "constant": false,
      "inputs": [
        {
          "name": "_recipient",
          "type": "address"
        }
      ],
      "name": "destroyAndSend",
      "outputs": [],
      "payable": false,
      "stateMutability": "nonpayable",
      "type": "function"
    },
    {
      "inputs": [
        {
          "name": "_benefitiaries",
          "type": "address[]"
        },
        {
          "name": "_shares",
          "type": "uint256[]"
        },
        {
          "name": "_name",
          "type": "string"
        },
        {
          "name": "_description",
          "type": "string"
        },
        {
          "name": "_linkABI",
          "type": "string"
        },
        {
          "name": "_linkMeta",
          "type": "string"
        },
        {
          "name": "_registrationFee",
          "type": "uint256"
        }
      ],
      "payable": false,
      "stateMutability": "nonpayable",
      "type": "constructor"
    },
    {
      "anonymous": false,
      "inputs": [
        {
          "indexed": false,
          "name": "name",
          "type": "string"
        },
        {
          "indexed": false,
          "name": "creator",
          "type": "address"
        },
        {
          "indexed": false,
          "name": "entryId",
          "type": "uint256"
        }
      ],
      "name": "RegistryAdded",
      "type": "event"
    },
    {
      "anonymous": false,
      "inputs": [
        {
          "indexed": false,
          "name": "payeeIndex",
          "type": "uint256"
        },
        {
          "indexed": false,
          "name": "oldAddress",
          "type": "address"
        },
        {
          "indexed": false,
          "name": "newAddress",
          "type": "address"
        }
      ],
      "name": "PayeeAddressChanged",
      "type": "event"
    },
    {
      "anonymous": false,
      "inputs": [],
      "name": "Pause",
      "type": "event"
    },
    {
      "anonymous": false,
      "inputs": [],
      "name": "Unpause",
      "type": "event"
    },
    {
      "anonymous": false,
      "inputs": [
        {
          "indexed": false,
          "name": "linkMeta",
          "type": "string"
        }
      ],
      "name": "MetaLinkUpdated",
      "type": "event"
    },
    {
      "anonymous": false,
      "inputs": [
        {
          "indexed": true,
          "name": "previousOwner",
          "type": "address"
        },
        {
          "indexed": true,
          "name": "newOwner",
          "type": "address"
        }
      ],
      "name": "OwnershipTransferred",
      "type": "event"
    },
    {
      "constant": false,
      "inputs": [
        {
          "name": "_name",
          "type": "string"
        },
        {
          "name": "_address",
          "type": "address"
        }
      ],
      "name": "register",
      "outputs": [],
      "payable": true,
      "stateMutability": "payable",
      "type": "function"
    },
    {
      "constant": true,
      "inputs": [],
      "name": "registriesAmount",
      "outputs": [
        {
          "name": "",
          "type": "uint256"
        }
      ],
      "payable": false,
      "stateMutability": "view",
      "type": "function"
    },
    {
      "constant": false,
      "inputs": [
        {
          "name": "_fee",
          "type": "uint256"
        }
      ],
      "name": "updateRegistrationFee",
      "outputs": [],
      "payable": false,
      "stateMutability": "nonpayable",
      "type": "function"
    },
    {
      "constant": false,
      "inputs": [
        {
          "name": "_name",
          "type": "string"
        }
      ],
      "name": "updateName",
      "outputs": [],
      "payable": false,
      "stateMutability": "nonpayable",
      "type": "function"
    },
    {
      "constant": false,
      "inputs": [
        {
          "name": "_description",
          "type": "string"
        }
      ],
      "name": "updateDescription",
      "outputs": [],
      "payable": false,
      "stateMutability": "nonpayable",
      "type": "function"
    }
  ],
  "bytecode": "0x60606040526000805560006001556000600860006101000a81548160ff02191690831515021790555034156200003457600080fd5b604051620020ff380380620020ff83398101604052808051820191906020018051820191906020018051820191906020018051820191906020018051820191906020018051820191906020018051906020019091905050868684848383600081518351141515620000a457600080fd5b600090505b82518110156200011157620001038382815181101515620000c657fe5b906020019060200201518383815181101515620000df57fe5b906020019060200201516200022e6401000000000262001a99176401000000009004565b8080600101915050620000a9565b50505033600560006101000a81548173ffffffffffffffffffffffffffffffffffffffff021916908373ffffffffffffffffffffffffffffffffffffffff160217905550600560009054906101000a900473ffffffffffffffffffffffffffffffffffffffff1673ffffffffffffffffffffffffffffffffffffffff163373ffffffffffffffffffffffffffffffffffffffff16141515620001b257600080fd5b8160069080519060200190620001ca929190620003c1565b508060079080519060200190620001e3929190620003c1565b505050505080600b81905550846009908051906020019062000207929190620003c1565b5083600a908051906020019062000220929190620003c1565b50505050505050506200049f565b600073ffffffffffffffffffffffffffffffffffffffff168273ffffffffffffffffffffffffffffffffffffffff16141515156200026b57600080fd5b6000811115156200027b57600080fd5b6000600260008473ffffffffffffffffffffffffffffffffffffffff1673ffffffffffffffffffffffffffffffffffffffff16815260200190815260200160002054141515620002ca57600080fd5b60048054806001018281620002e0919062000448565b9160005260206000209001600084909190916101000a81548173ffffffffffffffffffffffffffffffffffffffff021916908373ffffffffffffffffffffffffffffffffffffffff1602179055505080600260008473ffffffffffffffffffffffffffffffffffffffff1673ffffffffffffffffffffffffffffffffffffffff168152602001908152602001600020819055506200039881600054620003a264010000000002620017e8179091906401000000009004565b6000819055505050565b6000808284019050838110151515620003b757fe5b8091505092915050565b828054600181600116156101000203166002900490600052602060002090601f016020900481019282601f106200040457805160ff191683800117855562000435565b8280016001018555821562000435579182015b828111156200043457825182559160200191906001019062000417565b5b50905062000444919062000477565b5090565b815481835581811511620004725781836000526020600020918201910162000471919062000477565b5b505050565b6200049c91905b80821115620004985760008160009055506001016200047e565b5090565b90565b611c5080620004af6000396000f30060606040526004361061013e576000357c0100000000000000000000000000000000000000000000000000000000900463ffffffff16806306fdde031461014357806314c44e09146101d15780631e59c529146101fa5780633a98ef391461023c5780633f4ba83a146102655780634e71d92d1461027a578063557902ad1461028f5780635c975abb146102b857806363037b0c146102e55780636347c900146103485780637284e4161461046e5780637b493768146104fc57806383197ef01461053e5780638456cb591461055357806384da92a7146105685780638aed4b63146105965780638da5cb5b146105c45780639852595c14610619578063af582c6b14610666578063ce7c2ac214610689578063e33b7de3146106d6578063e735b48a146106ff578063f2fde38b1461072d578063f5074f4114610766575b600080fd5b341561014e57600080fd5b61015661079f565b6040518080602001828103825283818151815260200191508051906020019080838360005b8381101561019657808201518184015260208101905061017b565b50505050905090810190601f1680156101c35780820380516001836020036101000a031916815260200191505b509250505060405180910390f35b34156101dc57600080fd5b6101e461083d565b6040518082815260200191505060405180910390f35b61023a6004808035906020019082018035906020019190919290803573ffffffffffffffffffffffffffffffffffffffff16906020019091905050610843565b005b341561024757600080fd5b61024f610a4e565b6040518082815260200191505060405180910390f35b341561027057600080fd5b610278610a54565b005b341561028557600080fd5b61028d610b14565b005b341561029a57600080fd5b6102a2610d7c565b6040518082815260200191505060405180910390f35b34156102c357600080fd5b6102cb610d89565b604051808215151515815260200191505060405180910390f35b34156102f057600080fd5b6103066004808035906020019091905050610d9c565b604051808273ffffffffffffffffffffffffffffffffffffffff1673ffffffffffffffffffffffffffffffffffffffff16815260200191505060405180910390f35b341561035357600080fd5b6103696004808035906020019091905050610ddb565b60405180806020018573ffffffffffffffffffffffffffffffffffffffff1673ffffffffffffffffffffffffffffffffffffffff1681526020018473ffffffffffffffffffffffffffffffffffffffff1673ffffffffffffffffffffffffffffffffffffffff16815260200183815260200182810382528681815460018160011615610100020316600290048152602001915080546001816001161561010002031660029004801561045c5780601f106104315761010080835404028352916020019161045c565b820191906000526020600020905b81548152906001019060200180831161043f57829003601f168201915b50509550505050505060405180910390f35b341561047957600080fd5b610481610e59565b6040518080602001828103825283818151815260200191508051906020019080838360005b838110156104c15780820151818401526020810190506104a6565b50505050905090810190601f1680156104ee5780820380516001836020036101000a031916815260200191505b509250505060405180910390f35b341561050757600080fd5b61053c600480803590602001909190803573ffffffffffffffffffffffffffffffffffffffff16906020019091905050610ef7565b005b341561054957600080fd5b61055161121b565b005b341561055e57600080fd5b6105666112b2565b005b341561057357600080fd5b61059460048080359060200190820180359060200191909192905050611373565b005b34156105a157600080fd5b6105c26004808035906020019082018035906020019190919290505061140a565b005b34156105cf57600080fd5b6105d76114cd565b604051808273ffffffffffffffffffffffffffffffffffffffff1673ffffffffffffffffffffffffffffffffffffffff16815260200191505060405180910390f35b341561062457600080fd5b610650600480803573ffffffffffffffffffffffffffffffffffffffff169060200190919050506114f3565b6040518082815260200191505060405180910390f35b341561067157600080fd5b610687600480803590602001909190505061150b565b005b341561069457600080fd5b6106c0600480803573ffffffffffffffffffffffffffffffffffffffff16906020019091905050611571565b6040518082815260200191505060405180910390f35b34156106e157600080fd5b6106e9611589565b6040518082815260200191505060405180910390f35b341561070a57600080fd5b61072b6004808035906020019082018035906020019190919290505061158f565b005b341561073857600080fd5b610764600480803573ffffffffffffffffffffffffffffffffffffffff1690602001909190505061161b565b005b341561077157600080fd5b61079d600480803573ffffffffffffffffffffffffffffffffffffffff16906020019091905050611773565b005b60098054600181600116156101000203166002900480601f0160208091040260200160405190810160405280929190818152602001828054600181600116156101000203166002900480156108355780601f1061080a57610100808354040283529160200191610835565b820191906000526020600020905b81548152906001019060200180831161081857829003601f168201915b505050505081565b600b5481565b600b543414151561085357600080fd5b600c80548060010182816108679190611875565b9160005260206000209060040201600060806040519081016040528087878080601f01602080910402602001604051908101604052809392919081815260200183838082843782019150505050505081526020018573ffffffffffffffffffffffffffffffffffffffff1681526020013373ffffffffffffffffffffffffffffffffffffffff16815260200142815250909190915060008201518160000190805190602001906109189291906118a7565b5060208201518160010160006101000a81548173ffffffffffffffffffffffffffffffffffffffff021916908373ffffffffffffffffffffffffffffffffffffffff16021790555060408201518160020160006101000a81548173ffffffffffffffffffffffffffffffffffffffff021916908373ffffffffffffffffffffffffffffffffffffffff160217905550606082015181600301555050507ff1c7148bd8789b32d03db8530b65543f54c66678f0da238b27c1500a9c1db2228383336001600c805490500360405180806020018473ffffffffffffffffffffffffffffffffffffffff1673ffffffffffffffffffffffffffffffffffffffff168152602001838152602001828103825286868281815260200192508082843782019150509550505050505060405180910390a1505050565b60005481565b600560009054906101000a900473ffffffffffffffffffffffffffffffffffffffff1673ffffffffffffffffffffffffffffffffffffffff163373ffffffffffffffffffffffffffffffffffffffff16141515610ab057600080fd5b600860009054906101000a900460ff161515610acb57600080fd5b6000600860006101000a81548160ff0219169083151502179055507f7805862f689e2f13df9f062ff482ad3ad112aca9e0847911ed832e158c525b3360405160405180910390a1565b60008060003392506000600260008573ffffffffffffffffffffffffffffffffffffffff1673ffffffffffffffffffffffffffffffffffffffff16815260200190815260200160002054111515610b6a57600080fd5b610b966001543073ffffffffffffffffffffffffffffffffffffffff16316117e890919063ffffffff16565b9150610c4f600360008573ffffffffffffffffffffffffffffffffffffffff1673ffffffffffffffffffffffffffffffffffffffff16815260200190815260200160002054610c41600054610c33600260008973ffffffffffffffffffffffffffffffffffffffff1673ffffffffffffffffffffffffffffffffffffffff168152602001908152602001600020548761180690919063ffffffff16565b61184190919063ffffffff16565b61185c90919063ffffffff16565b905060008114151515610c6157600080fd5b803073ffffffffffffffffffffffffffffffffffffffff163110151515610c8757600080fd5b610cd981600360008673ffffffffffffffffffffffffffffffffffffffff1673ffffffffffffffffffffffffffffffffffffffff168152602001908152602001600020546117e890919063ffffffff16565b600360008573ffffffffffffffffffffffffffffffffffffffff1673ffffffffffffffffffffffffffffffffffffffff16815260200190815260200160002081905550610d31816001546117e890919063ffffffff16565b6001819055508273ffffffffffffffffffffffffffffffffffffffff166108fc829081150290604051600060405180830381858888f193505050501515610d7757600080fd5b505050565b6000600c80549050905090565b600860009054906101000a900460ff1681565b600481815481101515610dab57fe5b90600052602060002090016000915054906101000a900473ffffffffffffffffffffffffffffffffffffffff1681565b600c81815481101515610dea57fe5b906000526020600020906004020160009150905080600001908060010160009054906101000a900473ffffffffffffffffffffffffffffffffffffffff16908060020160009054906101000a900473ffffffffffffffffffffffffffffffffffffffff16908060030154905084565b600a8054600181600116156101000203166002900480601f016020809104026020016040519081016040528092919081815260200182805460018160011615610100020316600290048015610eef5780601f10610ec457610100808354040283529160200191610eef565b820191906000526020600020905b815481529060010190602001808311610ed257829003601f168201915b505050505081565b6000600560009054906101000a900473ffffffffffffffffffffffffffffffffffffffff1673ffffffffffffffffffffffffffffffffffffffff163373ffffffffffffffffffffffffffffffffffffffff16141515610f5557600080fd5b600483815481101515610f6457fe5b906000526020600020900160009054906101000a900473ffffffffffffffffffffffffffffffffffffffff169050600260008273ffffffffffffffffffffffffffffffffffffffff1673ffffffffffffffffffffffffffffffffffffffff16815260200190815260200160002054600260008473ffffffffffffffffffffffffffffffffffffffff1673ffffffffffffffffffffffffffffffffffffffff16815260200190815260200160002081905550600360008273ffffffffffffffffffffffffffffffffffffffff1673ffffffffffffffffffffffffffffffffffffffff16815260200190815260200160002054600360008473ffffffffffffffffffffffffffffffffffffffff1673ffffffffffffffffffffffffffffffffffffffff16815260200190815260200160002081905550816004848154811015156110a857fe5b906000526020600020900160006101000a81548173ffffffffffffffffffffffffffffffffffffffff021916908373ffffffffffffffffffffffffffffffffffffffff160217905550600260008273ffffffffffffffffffffffffffffffffffffffff1673ffffffffffffffffffffffffffffffffffffffff16815260200190815260200160002060009055600360008273ffffffffffffffffffffffffffffffffffffffff1673ffffffffffffffffffffffffffffffffffffffff168152602001908152602001600020600090557fa1982f3fe3fa9dba8ce5bc91687e2ab0850b0431cddacc1a249b2ae0390b912f838284604051808481526020018373ffffffffffffffffffffffffffffffffffffffff1673ffffffffffffffffffffffffffffffffffffffff1681526020018273ffffffffffffffffffffffffffffffffffffffff1673ffffffffffffffffffffffffffffffffffffffff168152602001935050505060405180910390a1505050565b600560009054906101000a900473ffffffffffffffffffffffffffffffffffffffff1673ffffffffffffffffffffffffffffffffffffffff163373ffffffffffffffffffffffffffffffffffffffff1614151561127757600080fd5b600560009054906101000a900473ffffffffffffffffffffffffffffffffffffffff1673ffffffffffffffffffffffffffffffffffffffff16ff5b600560009054906101000a900473ffffffffffffffffffffffffffffffffffffffff1673ffffffffffffffffffffffffffffffffffffffff163373ffffffffffffffffffffffffffffffffffffffff1614151561130e57600080fd5b600860009054906101000a900460ff1615151561132a57600080fd5b6001600860006101000a81548160ff0219169083151502179055507f6985a02210a168e66602d3235cb6db0e70f92b3ba4d376a33c0f3d9434bff62560405160405180910390a1565b6000600560009054906101000a900473ffffffffffffffffffffffffffffffffffffffff1673ffffffffffffffffffffffffffffffffffffffff163373ffffffffffffffffffffffffffffffffffffffff161415156113d157600080fd5b8282905090506000811180156113e8575060208111155b15156113f357600080fd5b828260099190611404929190611927565b50505050565b600560009054906101000a900473ffffffffffffffffffffffffffffffffffffffff1673ffffffffffffffffffffffffffffffffffffffff163373ffffffffffffffffffffffffffffffffffffffff1614151561146657600080fd5b818160079190611477929190611927565b507f6362a59ae98fef1a0a45d03a1127a82c2268ca380148117a052b9f8bce8e6f1e8282604051808060200182810382528484828181526020019250808284378201915050935050505060405180910390a15050565b600560009054906101000a900473ffffffffffffffffffffffffffffffffffffffff1681565b60036020528060005260406000206000915090505481565b600560009054906101000a900473ffffffffffffffffffffffffffffffffffffffff1673ffffffffffffffffffffffffffffffffffffffff163373ffffffffffffffffffffffffffffffffffffffff1614151561156757600080fd5b80600b8190555050565b60026020528060005260406000206000915090505481565b60015481565b6000600560009054906101000a900473ffffffffffffffffffffffffffffffffffffffff1673ffffffffffffffffffffffffffffffffffffffff163373ffffffffffffffffffffffffffffffffffffffff161415156115ed57600080fd5b828290509050610100811115151561160457600080fd5b8282600a9190611615929190611927565b50505050565b600560009054906101000a900473ffffffffffffffffffffffffffffffffffffffff1673ffffffffffffffffffffffffffffffffffffffff163373ffffffffffffffffffffffffffffffffffffffff1614151561167757600080fd5b600073ffffffffffffffffffffffffffffffffffffffff168173ffffffffffffffffffffffffffffffffffffffff16141515156116b357600080fd5b8073ffffffffffffffffffffffffffffffffffffffff16600560009054906101000a900473ffffffffffffffffffffffffffffffffffffffff1673ffffffffffffffffffffffffffffffffffffffff167f8be0079c531659141344cd1fd0a4f28419497f9722a3daafe3b4186f6b6457e060405160405180910390a380600560006101000a81548173ffffffffffffffffffffffffffffffffffffffff021916908373ffffffffffffffffffffffffffffffffffffffff16021790555050565b600560009054906101000a900473ffffffffffffffffffffffffffffffffffffffff1673ffffffffffffffffffffffffffffffffffffffff163373ffffffffffffffffffffffffffffffffffffffff161415156117cf57600080fd5b8073ffffffffffffffffffffffffffffffffffffffff16ff5b60008082840190508381101515156117fc57fe5b8091505092915050565b600080600084141561181b576000915061183a565b828402905082848281151561182c57fe5b0414151561183657fe5b8091505b5092915050565b600080828481151561184f57fe5b0490508091505092915050565b600082821115151561186a57fe5b818303905092915050565b8154818355818115116118a2576004028160040283600052602060002091820191016118a191906119a7565b5b505050565b828054600181600116156101000203166002900490600052602060002090601f016020900481019282601f106118e857805160ff1916838001178555611916565b82800160010185558215611916579182015b828111156119155782518255916020019190600101906118fa565b5b5090506119239190611a2c565b5090565b828054600181600116156101000203166002900490600052602060002090601f016020900481019282601f1061196857803560ff1916838001178555611996565b82800160010185558215611996579182015b8281111561199557823582559160200191906001019061197a565b5b5090506119a39190611a2c565b5090565b611a2991905b80821115611a2557600080820160006119c69190611a51565b6001820160006101000a81549073ffffffffffffffffffffffffffffffffffffffff02191690556002820160006101000a81549073ffffffffffffffffffffffffffffffffffffffff02191690556003820160009055506004016119ad565b5090565b90565b611a4e91905b80821115611a4a576000816000905550600101611a32565b5090565b90565b50805460018160011615610100020316600290046000825580601f10611a775750611a96565b601f016020900490600052602060002090810190611a959190611a2c565b5b50565b600073ffffffffffffffffffffffffffffffffffffffff168273ffffffffffffffffffffffffffffffffffffffff1614151515611ad557600080fd5b600081111515611ae457600080fd5b6000600260008473ffffffffffffffffffffffffffffffffffffffff1673ffffffffffffffffffffffffffffffffffffffff16815260200190815260200160002054141515611b3257600080fd5b60048054806001018281611b469190611bf8565b9160005260206000209001600084909190916101000a81548173ffffffffffffffffffffffffffffffffffffffff021916908373ffffffffffffffffffffffffffffffffffffffff1602179055505080600260008473ffffffffffffffffffffffffffffffffffffffff1673ffffffffffffffffffffffffffffffffffffffff16815260200190815260200160002081905550611bee816000546117e890919063ffffffff16565b6000819055505050565b815481835581811511611c1f57818360005260206000209182019101611c1e9190611a2c565b5b5050505600a165627a7a72305820f7004151ae79cb7a9cbb3f585047fb6c06f567df9b2b90653acff7bd2e6426b20029",
  "source": "pragma solidity ^0.4.17;\n\nimport \"zeppelin-solidity/contracts/lifecycle/Destructible.sol\";\nimport \"zeppelin-solidity/contracts/lifecycle/Pausable.sol\";\n/* import \"zeppelin-solidity/contracts/ownership/Claimable.sol\"; */\n/* import \"zeppelin-solidity/contracts/ownership/Whitelist.sol\"; */\nimport \"zeppelin-solidity/contracts/ownership/Ownable.sol\";\nimport \"./common/SplitPaymentChangeable.sol\";\nimport \"./common/IPFSeable.sol\";\n\ncontract Chaingear is Ownable, IPFSeable, Pausable, Destructible, SplitPaymentChangeable {\n\n    struct Registry {\n        string name;\n        address contractAddress;\n        address creator;\n        uint registrationTimestamp;\n    }\n\n    string public name;\n    string public description;\n    uint public registrationFee;\n\n    // to think about permissions\n    /* enum PermissionType {OnlyOwner, AllUsers, Whitelist} */\n\n    Registry[] public registries;\n    event RegistryAdded(string name, address creator, uint entryId);\n\n    function Chaingear(\n        address[] _benefitiaries,\n        uint256[] _shares,\n        string _name,\n        string _description,\n        string _linkABI,\n        string _linkMeta,\n        uint _registrationFee\n    ) SplitPaymentChangeable(_benefitiaries, _shares) IPFSeable(_linkABI, _linkMeta) public {\n        registrationFee = _registrationFee;\n        name = _name;\n        description = _description;\n    }\n\n    function register(string _name, address _address) external payable {\n        require(msg.value == registrationFee);\n\n        registries.push(Registry(\n        {\n            name: _name,\n            contractAddress: _address,\n            creator: msg.sender,\n            registrationTimestamp: now\n        }));\n\n        RegistryAdded(_name, msg.sender, registries.length - 1);\n    }\n\n    function registriesAmount() constant public returns (uint) {\n        return registries.length;\n    }\n\n    function updateRegistrationFee(uint _fee) external onlyOwner {\n        registrationFee = _fee;\n    }\n\n    function updateName(string _name) external onlyOwner {\n        uint len = bytes(_name).length;\n        require(len > 0 && len <= 32);\n\n        name = _name;\n    }\n\n    function updateDescription(string _description) external onlyOwner {\n        uint len = bytes(_description).length;\n        require(len <= 256);\n\n        description = _description;\n    }\n}\n",
  "sourcePath": "/Users/litvintech/Projects/chaingear/contracts/Chaingear.sol",
  "compiler": {
    "name": "solc",
    "version": "0.4.19+commit.c4cbbb05.Emscripten.clang"
  },
  "schemaVersion": "1.0.1",
  "updatedAt": "2018-03-28T22:30:02.432Z"
}