{
  "contractName": "Chaingeareable",
  "abi": [
    {
      "constant": true,
      "inputs": [],
      "name": "linkSourceCode",
      "outputs": [
        {
          "name": "",
          "type": "string"
        }
      ],
      "payable": false,
      "stateMutability": "view",
      "type": "function"
    },
    {
      "constant": false,
      "inputs": [
        {
          "name": "_permissionTypeEntries",
          "type": "uint256"
        }
      ],
      "name": "updatePermissionTypeEntries",
      "outputs": [],
      "payable": false,
      "stateMutability": "nonpayable",
      "type": "function"
    },
    {
      "constant": true,
      "inputs": [],
      "name": "permissionsTypeEntries",
      "outputs": [
        {
          "name": "",
          "type": "uint8"
        }
      ],
      "payable": false,
      "stateMutability": "view",
      "type": "function"
    },
    {
      "constant": false,
      "inputs": [],
      "name": "unpause",
      "outputs": [],
      "payable": false,
      "stateMutability": "nonpayable",
      "type": "function"
    },
    {
      "constant": true,
      "inputs": [],
      "name": "linkMeta",
      "outputs": [
        {
          "name": "",
          "type": "string"
        }
      ],
      "payable": false,
      "stateMutability": "view",
      "type": "function"
    },
    {
      "constant": true,
      "inputs": [],
      "name": "paused",
      "outputs": [
        {
          "name": "",
          "type": "bool"
        }
      ],
      "payable": false,
      "stateMutability": "view",
      "type": "function"
    },
    {
      "constant": false,
      "inputs": [],
      "name": "destroy",
      "outputs": [],
      "payable": false,
      "stateMutability": "nonpayable",
      "type": "function"
    },
    {
      "constant": false,
      "inputs": [],
      "name": "pause",
      "outputs": [],
      "payable": false,
      "stateMutability": "nonpayable",
      "type": "function"
    },
    {
      "constant": true,
      "inputs": [],
      "name": "owner",
      "outputs": [
        {
          "name": "",
          "type": "address"
        }
      ],
      "payable": false,
      "stateMutability": "view",
      "type": "function"
    },
    {
      "constant": true,
      "inputs": [],
      "name": "linkABI",
      "outputs": [
        {
          "name": "",
          "type": "string"
        }
      ],
      "payable": false,
      "stateMutability": "view",
      "type": "function"
    },
    {
      "constant": false,
      "inputs": [
        {
          "name": "newOwner",
          "type": "address"
        }
      ],
      "name": "transferOwnership",
      "outputs": [],
      "payable": false,
      "stateMutability": "nonpayable",
      "type": "function"
    },
    {
      "constant": false,
      "inputs": [
        {
          "name": "_recipient",
          "type": "address"
        }
      ],
      "name": "destroyAndSend",
      "outputs": [],
      "payable": false,
      "stateMutability": "nonpayable",
      "type": "function"
    },
    {
      "anonymous": false,
      "inputs": [
        {
          "indexed": true,
          "name": "previousOwner",
          "type": "address"
        },
        {
          "indexed": true,
          "name": "newOwner",
          "type": "address"
        }
      ],
      "name": "OwnershipTransferred",
      "type": "event"
    },
    {
      "anonymous": false,
      "inputs": [
        {
          "indexed": true,
          "name": "previousOwner",
          "type": "address"
        },
        {
          "indexed": true,
          "name": "newOwner",
          "type": "address"
        }
      ],
      "name": "TokenizedOwnershipTransferred",
      "type": "event"
    },
    {
      "anonymous": false,
      "inputs": [],
      "name": "Pause",
      "type": "event"
    },
    {
      "anonymous": false,
      "inputs": [],
      "name": "Unpause",
      "type": "event"
    },
    {
      "anonymous": false,
      "inputs": [
        {
          "indexed": false,
          "name": "linkMeta",
          "type": "string"
        }
      ],
      "name": "MetaLinkUpdated",
      "type": "event"
    },
    {
      "anonymous": false,
      "inputs": [
        {
          "indexed": false,
          "name": "linkABI",
          "type": "string"
        }
      ],
      "name": "ABILinkUpdated",
      "type": "event"
    },
    {
      "anonymous": false,
      "inputs": [
        {
          "indexed": false,
          "name": "linkSource",
          "type": "string"
        }
      ],
      "name": "SourceLinkUpdated",
      "type": "event"
    },
    {
      "constant": true,
      "inputs": [],
      "name": "implementsChaingearedRegistry",
      "outputs": [
        {
          "name": "",
          "type": "bool"
        }
      ],
      "payable": false,
      "stateMutability": "view",
      "type": "function"
    },
    {
      "constant": false,
      "inputs": [
        {
          "name": "_originAddress",
          "type": "address"
        },
        {
          "name": "_mode",
          "type": "bool"
        }
      ],
      "name": "setChaingearMode",
      "outputs": [
        {
          "name": "",
          "type": "bool"
        }
      ],
      "payable": false,
      "stateMutability": "nonpayable",
      "type": "function"
    },
    {
      "constant": true,
      "inputs": [],
      "name": "chaingearModeStatus",
      "outputs": [
        {
          "name": "",
          "type": "bool"
        }
      ],
      "payable": false,
      "stateMutability": "view",
      "type": "function"
    },
    {
      "constant": true,
      "inputs": [],
      "name": "getChaingeareableVersion",
      "outputs": [
        {
          "name": "",
          "type": "bytes32"
        }
      ],
      "payable": false,
      "stateMutability": "view",
      "type": "function"
    },
    {
      "constant": false,
      "inputs": [
        {
          "name": "_originAddress",
          "type": "address"
        },
        {
          "name": "newOwner",
          "type": "address"
        }
      ],
      "name": "transferTokenizedOnwerhip",
      "outputs": [
        {
          "name": "",
          "type": "bool"
        }
      ],
      "payable": false,
      "stateMutability": "nonpayable",
      "type": "function"
    },
    {
      "constant": true,
      "inputs": [],
      "name": "entryCreationFee",
      "outputs": [
        {
          "name": "",
          "type": "uint256"
        }
      ],
      "payable": false,
      "stateMutability": "view",
      "type": "function"
    },
    {
      "constant": true,
      "inputs": [],
      "name": "registryName",
      "outputs": [
        {
          "name": "",
          "type": "string"
        }
      ],
      "payable": false,
      "stateMutability": "view",
      "type": "function"
    },
    {
      "constant": true,
      "inputs": [],
      "name": "registryDescription",
      "outputs": [
        {
          "name": "",
          "type": "string"
        }
      ],
      "payable": false,
      "stateMutability": "view",
      "type": "function"
    },
    {
      "constant": true,
      "inputs": [],
      "name": "registryTags",
      "outputs": [
        {
          "name": "",
          "type": "bytes32[]"
        }
      ],
      "payable": false,
      "stateMutability": "view",
      "type": "function"
    },
    {
      "constant": false,
      "inputs": [
        {
          "name": "_fee",
          "type": "uint256"
        }
      ],
      "name": "updateEntryCreationFee",
      "outputs": [],
      "payable": false,
      "stateMutability": "nonpayable",
      "type": "function"
    },
    {
      "constant": false,
      "inputs": [
        {
          "name": "_registryName",
          "type": "string"
        }
      ],
      "name": "updateRegistryName",
      "outputs": [],
      "payable": false,
      "stateMutability": "nonpayable",
      "type": "function"
    },
    {
      "constant": false,
      "inputs": [
        {
          "name": "_registryDescription",
          "type": "string"
        }
      ],
      "name": "updateRegistryDescription",
      "outputs": [],
      "payable": false,
      "stateMutability": "nonpayable",
      "type": "function"
    },
    {
      "constant": false,
      "inputs": [
        {
          "name": "_tag",
          "type": "bytes32"
        }
      ],
      "name": "addRegistryTag",
      "outputs": [],
      "payable": false,
      "stateMutability": "nonpayable",
      "type": "function"
    },
    {
      "constant": false,
      "inputs": [
        {
          "name": "_index",
          "type": "uint256"
        },
        {
          "name": "_tag",
          "type": "bytes32"
        }
      ],
      "name": "updateRegistryTag",
      "outputs": [],
      "payable": false,
      "stateMutability": "nonpayable",
      "type": "function"
    },
    {
      "constant": false,
      "inputs": [
        {
          "name": "_index",
          "type": "uint256"
        },
        {
          "name": "_tag",
          "type": "bytes32"
        }
      ],
      "name": "removeRegistryTag",
      "outputs": [],
      "payable": false,
      "stateMutability": "nonpayable",
      "type": "function"
    },
    {
      "constant": false,
      "inputs": [
        {
          "name": "_linkABI",
          "type": "string"
        }
      ],
      "name": "updateABILink",
      "outputs": [],
      "payable": false,
      "stateMutability": "nonpayable",
      "type": "function"
    },
    {
      "constant": false,
      "inputs": [
        {
          "name": "_linkMeta",
          "type": "string"
        }
      ],
      "name": "setMetaLink",
      "outputs": [],
      "payable": false,
      "stateMutability": "nonpayable",
      "type": "function"
    },
    {
      "constant": false,
      "inputs": [
        {
          "name": "_linkSourceCode",
          "type": "string"
        }
      ],
      "name": "setSourceLink",
      "outputs": [],
      "payable": false,
      "stateMutability": "nonpayable",
      "type": "function"
    }
  ],
  "bytecode": "0x60606040526000600360156101000a81548160ff0219169083151502179055506000600560146101000a81548160ff0219169083151502179055507f312e300000000000000000000000000000000000000000000000000000000000600a9060001916905533600560006101000a81548173ffffffffffffffffffffffffffffffffffffffff021916908373ffffffffffffffffffffffffffffffffffffffff160217905550611d8c806100b46000396000f300606060405260043610610180576000357c0100000000000000000000000000000000000000000000000000000000900463ffffffff16806307b1f8f7146101855780631654d16914610213578063189efc7c146102a157806327f5f1b6146102c8578063351c6bbe146102eb5780633a1a3d95146103225780633f4ba83a1461034b57806341c39e5c146103605780634dfaf97a146103ee5780635c975abb1461047c578063676047ce146104a95780636abd7203146105055780636d2fd1381461053657806383197ef01461056457806383ca00ac146105795780638456cb59146105a75780638da5cb5b146105bc5780639af78aa1146106115780639e925a7814610681578063a1f14b271461070f578063acab3bd51461073d578063bc044e181461076b578063be183e511461079b578063c5243add146107c8578063c81225eb146107f5578063d24f707614610823578063e59f0cc214610846578063f2fde38b14610876578063f5074f41146108af578063f5ec4e50146108e8575b600080fd5b341561019057600080fd5b610198610952565b6040518080602001828103825283818151815260200191508051906020019080838360005b838110156101d85780820151818401526020810190506101bd565b50505050905090810190601f1680156102055780820380516001836020036101000a031916815260200191505b509250505060405180910390f35b341561021e57600080fd5b6102266109fa565b6040518080602001828103825283818151815260200191508051906020019080838360005b8381101561026657808201518184015260208101905061024b565b50505050905090810190601f1680156102935780820380516001836020036101000a031916815260200191505b509250505060405180910390f35b34156102ac57600080fd5b6102c6600480803560001916906020019091905050610aa2565b005b34156102d357600080fd5b6102e96004808035906020019091905050610b44565b005b34156102f657600080fd5b6102fe610beb565b6040518082600281111561030e57fe5b60ff16815260200191505060405180910390f35b341561032d57600080fd5b610335610c02565b6040518082815260200191505060405180910390f35b341561035657600080fd5b61035e610c0c565b005b341561036b57600080fd5b610373610ccc565b6040518080602001828103825283818151815260200191508051906020019080838360005b838110156103b3578082015181840152602081019050610398565b50505050905090810190601f1680156103e05780820380516001836020036101000a031916815260200191505b509250505060405180910390f35b34156103f957600080fd5b610401610d74565b6040518080602001828103825283818151815260200191508051906020019080838360005b83811015610441578082015181840152602081019050610426565b50505050905090810190601f16801561046e5780820380516001836020036101000a031916815260200191505b509250505060405180910390f35b341561048757600080fd5b61048f610e1c565b604051808215151515815260200191505060405180910390f35b34156104b457600080fd5b6104eb600480803573ffffffffffffffffffffffffffffffffffffffff169060200190919080351515906020019091905050610e2f565b604051808215151515815260200191505060405180910390f35b341561051057600080fd5b610518610fb1565b60405180826000191660001916815260200191505060405180910390f35b341561054157600080fd5b61056260048080359060200190820180359060200191909192905050610fbb565b005b341561056f57600080fd5b61057761107e565b005b341561058457600080fd5b6105a560048080359060200190820180359060200191909192905050611137565b005b34156105b257600080fd5b6105ba6111fa565b005b34156105c757600080fd5b6105cf6112bb565b604051808273ffffffffffffffffffffffffffffffffffffffff1673ffffffffffffffffffffffffffffffffffffffff16815260200191505060405180910390f35b341561061c57600080fd5b610667600480803573ffffffffffffffffffffffffffffffffffffffff1690602001909190803573ffffffffffffffffffffffffffffffffffffffff169060200190919050506112e1565b604051808215151515815260200191505060405180910390f35b341561068c57600080fd5b6106946114fa565b6040518080602001828103825283818151815260200191508051906020019080838360005b838110156106d45780820151818401526020810190506106b9565b50505050905090810190601f1680156107015780820380516001836020036101000a031916815260200191505b509250505060405180910390f35b341561071a57600080fd5b61073b600480803590602001908201803590602001919091929050506115a2565b005b341561074857600080fd5b6107696004808035906020019082018035906020019190919290505061162e565b005b341561077657600080fd5b6107996004808035906020019091908035600019169060200190919050506116f1565b005b34156107a657600080fd5b6107ae6117ef565b604051808215151515815260200191505060405180910390f35b34156107d357600080fd5b6107db611806565b604051808215151515815260200191505060405180910390f35b341561080057600080fd5b6108216004808035906020019082018035906020019190919290505061180f565b005b341561082e57600080fd5b61084460048080359060200190919050506118a6565b005b341561085157600080fd5b61087460048080359060200190919080356000191690602001909190505061190c565b005b341561088157600080fd5b6108ad600480803573ffffffffffffffffffffffffffffffffffffffff169060200190919050506119a3565b005b34156108ba57600080fd5b6108e6600480803573ffffffffffffffffffffffffffffffffffffffff16906020019091905050611b1d565b005b34156108f357600080fd5b6108fb611bb4565b6040518080602001828103825283818151815260200191508051906020019060200280838360005b8381101561093e578082015181840152602081019050610923565b505050509050019250505060405180910390f35b61095a611c16565b60028054600181600116156101000203166002900480601f0160208091040260200160405190810160405280929190818152602001828054600181600116156101000203166002900480156109f05780601f106109c5576101008083540402835291602001916109f0565b820191906000526020600020905b8154815290600101906020018083116109d357829003601f168201915b5050505050905090565b610a02611c16565b60078054600181600116156101000203166002900480601f016020809104026020016040519081016040528092919081815260200182805460018160011615610100020316600290048015610a985780601f10610a6d57610100808354040283529160200191610a98565b820191906000526020600020905b815481529060010190602001808311610a7b57829003601f168201915b5050505050905090565b600560009054906101000a900473ffffffffffffffffffffffffffffffffffffffff1673ffffffffffffffffffffffffffffffffffffffff163373ffffffffffffffffffffffffffffffffffffffff16141515610afe57600080fd5b6010602060ff1611151515610b1257600080fd5b60098054806001018281610b269190611c2a565b91600052602060002090016000839091909150906000191690555050565b600560009054906101000a900473ffffffffffffffffffffffffffffffffffffffff1673ffffffffffffffffffffffffffffffffffffffff163373ffffffffffffffffffffffffffffffffffffffff16141515610ba057600080fd5b80600280811115610bad57fe5b10151515610bba57600080fd5b806002811115610bc657fe5b600360146101000a81548160ff02191690836002811115610be357fe5b021790555050565b6000600360149054906101000a900460ff16905090565b6000600654905090565b600560009054906101000a900473ffffffffffffffffffffffffffffffffffffffff1673ffffffffffffffffffffffffffffffffffffffff163373ffffffffffffffffffffffffffffffffffffffff16141515610c6857600080fd5b600560149054906101000a900460ff161515610c8357600080fd5b6000600560146101000a81548160ff0219169083151502179055507f7805862f689e2f13df9f062ff482ad3ad112aca9e0847911ed832e158c525b3360405160405180910390a1565b610cd4611c16565b60088054600181600116156101000203166002900480601f016020809104026020016040519081016040528092919081815260200182805460018160011615610100020316600290048015610d6a5780601f10610d3f57610100808354040283529160200191610d6a565b820191906000526020600020905b815481529060010190602001808311610d4d57829003601f168201915b5050505050905090565b610d7c611c16565b60018054600181600116156101000203166002900480601f016020809104026020016040519081016040528092919081815260200182805460018160011615610100020316600290048015610e125780601f10610de757610100808354040283529160200191610e12565b820191906000526020600020905b815481529060010190602001808311610df557829003601f168201915b5050505050905090565b600560149054906101000a900460ff1681565b6000600560009054906101000a900473ffffffffffffffffffffffffffffffffffffffff1673ffffffffffffffffffffffffffffffffffffffff163273ffffffffffffffffffffffffffffffffffffffff16141515610e8d57600080fd5b600560009054906101000a900473ffffffffffffffffffffffffffffffffffffffff1673ffffffffffffffffffffffffffffffffffffffff168373ffffffffffffffffffffffffffffffffffffffff16141515610ee957600080fd5b81600360156101000a81548160ff021916908315150217905550600115158215151415610f565733600460006101000a81548173ffffffffffffffffffffffffffffffffffffffff021916908373ffffffffffffffffffffffffffffffffffffffff160217905550610f99565b6000600460006101000a81548173ffffffffffffffffffffffffffffffffffffffff021916908373ffffffffffffffffffffffffffffffffffffffff1602179055505b600360159054906101000a900460ff16905092915050565b6000600a54905090565b600560009054906101000a900473ffffffffffffffffffffffffffffffffffffffff1673ffffffffffffffffffffffffffffffffffffffff163373ffffffffffffffffffffffffffffffffffffffff1614151561101757600080fd5b818160019190611028929190611c56565b507f6362a59ae98fef1a0a45d03a1127a82c2268ca380148117a052b9f8bce8e6f1e8282604051808060200182810382528484828181526020019250808284378201915050935050505060405180910390a15050565b600560009054906101000a900473ffffffffffffffffffffffffffffffffffffffff1673ffffffffffffffffffffffffffffffffffffffff163373ffffffffffffffffffffffffffffffffffffffff161415156110da57600080fd5b60001515600360159054906101000a900460ff1615151415156110fc57600080fd5b600560009054906101000a900473ffffffffffffffffffffffffffffffffffffffff1673ffffffffffffffffffffffffffffffffffffffff16ff5b600560009054906101000a900473ffffffffffffffffffffffffffffffffffffffff1673ffffffffffffffffffffffffffffffffffffffff163373ffffffffffffffffffffffffffffffffffffffff1614151561119357600080fd5b8181600291906111a4929190611c56565b507fcfaf57d92b1b2684731a770c593d162587ca98e9d372be876ab14b389866f0f68282604051808060200182810382528484828181526020019250808284378201915050935050505060405180910390a15050565b600560009054906101000a900473ffffffffffffffffffffffffffffffffffffffff1673ffffffffffffffffffffffffffffffffffffffff163373ffffffffffffffffffffffffffffffffffffffff1614151561125657600080fd5b600560149054906101000a900460ff1615151561127257600080fd5b6001600560146101000a81548160ff0219169083151502179055507f6985a02210a168e66602d3235cb6db0e70f92b3ba4d376a33c0f3d9434bff62560405160405180910390a1565b600560009054906101000a900473ffffffffffffffffffffffffffffffffffffffff1681565b6000600460009054906101000a900473ffffffffffffffffffffffffffffffffffffffff1673ffffffffffffffffffffffffffffffffffffffff163373ffffffffffffffffffffffffffffffffffffffff1614151561133f57600080fd5b60011515600360159054906101000a900460ff16151514151561136157600080fd5b600560009054906101000a900473ffffffffffffffffffffffffffffffffffffffff1673ffffffffffffffffffffffffffffffffffffffff163273ffffffffffffffffffffffffffffffffffffffff161415156113bd57600080fd5b600560009054906101000a900473ffffffffffffffffffffffffffffffffffffffff1673ffffffffffffffffffffffffffffffffffffffff168373ffffffffffffffffffffffffffffffffffffffff1614151561141957600080fd5b600073ffffffffffffffffffffffffffffffffffffffff168273ffffffffffffffffffffffffffffffffffffffff161415151561145557600080fd5b8173ffffffffffffffffffffffffffffffffffffffff168373ffffffffffffffffffffffffffffffffffffffff167f84bde0f24a9f2ab2bee792a5368c45c8600cc3d0b2fc0d7deff0e73c94519ae860405160405180910390a381600560006101000a81548173ffffffffffffffffffffffffffffffffffffffff021916908373ffffffffffffffffffffffffffffffffffffffff1602179055506001905092915050565b611502611c16565b60008054600181600116156101000203166002900480601f0160208091040260200160405190810160405280929190818152602001828054600181600116156101000203166002900480156115985780601f1061156d57610100808354040283529160200191611598565b820191906000526020600020905b81548152906001019060200180831161157b57829003601f168201915b5050505050905090565b6000600560009054906101000a900473ffffffffffffffffffffffffffffffffffffffff1673ffffffffffffffffffffffffffffffffffffffff163373ffffffffffffffffffffffffffffffffffffffff1614151561160057600080fd5b828290509050610100811115151561161757600080fd5b828260089190611628929190611c56565b50505050565b600560009054906101000a900473ffffffffffffffffffffffffffffffffffffffff1673ffffffffffffffffffffffffffffffffffffffff163373ffffffffffffffffffffffffffffffffffffffff1614151561168a57600080fd5b81816000919061169b929190611c56565b507f97bc322e754962c4ff23eb8a9d58b147ead5be0347d9a799addc5a2d44564cbe8282604051808060200182810382528484828181526020019250808284378201915050935050505060405180910390a15050565b600080600560009054906101000a900473ffffffffffffffffffffffffffffffffffffffff1673ffffffffffffffffffffffffffffffffffffffff163373ffffffffffffffffffffffffffffffffffffffff1614151561175057600080fd5b6010602060ff161115151561176457600080fd5b600160098054905003915060098281548110151561177e57fe5b90600052602060002090015490508060098581548110151561179c57fe5b9060005260206000209001816000191690555060006009838154811015156117c057fe5b9060005260206000209001816000191690555060098054809190600190036117e89190611cd6565b5050505050565b6000600360159054906101000a900460ff16905090565b60006001905090565b6000600560009054906101000a900473ffffffffffffffffffffffffffffffffffffffff1673ffffffffffffffffffffffffffffffffffffffff163373ffffffffffffffffffffffffffffffffffffffff1614151561186d57600080fd5b828290509050600081118015611884575060208111155b151561188f57600080fd5b8282600791906118a0929190611c56565b50505050565b600560009054906101000a900473ffffffffffffffffffffffffffffffffffffffff1673ffffffffffffffffffffffffffffffffffffffff163373ffffffffffffffffffffffffffffffffffffffff1614151561190257600080fd5b8060068190555050565b600560009054906101000a900473ffffffffffffffffffffffffffffffffffffffff1673ffffffffffffffffffffffffffffffffffffffff163373ffffffffffffffffffffffffffffffffffffffff1614151561196857600080fd5b6010602060ff161115151561197c57600080fd5b8060098381548110151561198c57fe5b906000526020600020900181600019169055505050565b600560009054906101000a900473ffffffffffffffffffffffffffffffffffffffff1673ffffffffffffffffffffffffffffffffffffffff163373ffffffffffffffffffffffffffffffffffffffff161415156119ff57600080fd5b60001515600360159054906101000a900460ff161515141515611a2157600080fd5b600073ffffffffffffffffffffffffffffffffffffffff168173ffffffffffffffffffffffffffffffffffffffff1614151515611a5d57600080fd5b8073ffffffffffffffffffffffffffffffffffffffff16600560009054906101000a900473ffffffffffffffffffffffffffffffffffffffff1673ffffffffffffffffffffffffffffffffffffffff167f8be0079c531659141344cd1fd0a4f28419497f9722a3daafe3b4186f6b6457e060405160405180910390a380600560006101000a81548173ffffffffffffffffffffffffffffffffffffffff021916908373ffffffffffffffffffffffffffffffffffffffff16021790555050565b600560009054906101000a900473ffffffffffffffffffffffffffffffffffffffff1673ffffffffffffffffffffffffffffffffffffffff163373ffffffffffffffffffffffffffffffffffffffff16141515611b7957600080fd5b60001515600360159054906101000a900460ff161515141515611b9b57600080fd5b8073ffffffffffffffffffffffffffffffffffffffff16ff5b611bbc611d02565b6009805480602002602001604051908101604052809291908181526020018280548015611c0c57602002820191906000526020600020905b81546000191681526020019060010190808311611bf4575b5050505050905090565b602060405190810160405280600081525090565b815481835581811511611c5157818360005260206000209182019101611c509190611d16565b5b505050565b828054600181600116156101000203166002900490600052602060002090601f016020900481019282601f10611c9757803560ff1916838001178555611cc5565b82800160010185558215611cc5579182015b82811115611cc4578235825591602001919060010190611ca9565b5b509050611cd29190611d3b565b5090565b815481835581811511611cfd57818360005260206000209182019101611cfc9190611d16565b5b505050565b602060405190810160405280600081525090565b611d3891905b80821115611d34576000816000905550600101611d1c565b5090565b90565b611d5d91905b80821115611d59576000816000905550600101611d41565b5090565b905600a165627a7a72305820e5eef09e7dc10ed8184248ed0ff3752b74e4cd0d5e48d8eef6e8a10ac32971f40029",
  "source": "pragma solidity ^0.4.18;\n\nimport \"./IPFSeable.sol\";\nimport \"../common/ChaingearRegistrable.sol\";\nimport \"./RegistryAccessControl.sol\";\n\n\ncontract Chaingeareable is IPFSeable, ChaingearRegistrable, RegistryAccessControl {\n\n    uint internal entryCreationFee_;\n    string internal registryName_;\n    string internal registryDescription_;\n    bytes32[] internal registryTags_;\n\n    bytes32 internal chaingearVersion = \"1.0\";\n\n    /* uint256 public currentRegistryBalanceETH;\n    uint256 public accumulatedOverallRegistryETH; */\n\n    function implementsChaingearedRegistry()\n        public\n        view\n        returns (bool)\n    {\n        return true;\n    }\n\n    function setChaingearMode(address _originAddress, bool _mode)\n        public\n        returns (bool)\n    {\n        require(tx.origin == owner);\n        require(_originAddress == owner);\n        chaingearModeState = _mode;\n        if (_mode == true) {\n            chaingearAddress = msg.sender;\n        } else {\n            chaingearAddress = address(0);\n        }\n        return chaingearModeState;\n    }\n\n    function chaingearModeStatus()\n        public\n        view\n        returns (bool)\n    {\n        return chaingearModeState;\n    }\n\n    function getChaingeareableVersion()\n        public\n        view\n        returns (bytes32)\n    {\n        return chaingearVersion;\n    }\n\n    function transferTokenizedOnwerhip(address _originAddress, address newOwner)\n        onlyChaingear\n        onlyChaingearModeOn\n        public\n        returns (bool)\n    {\n        require(tx.origin == owner);\n        require(_originAddress == owner);\n\n        require(newOwner != address(0));\n        TokenizedOwnershipTransferred(_originAddress, newOwner);\n        owner = newOwner;\n        return true;\n    }\n\n\n    function entryCreationFee()\n        public\n        view\n        returns (uint)\n    {\n        return entryCreationFee_;\n    }\n\n    function registryName()\n        public\n        view\n        returns (string)\n    {\n        return registryName_;\n    }\n\n    function registryDescription()\n        public\n        view\n        returns (string)\n    {\n        return registryDescription_;\n    }\n\n    function registryTags()\n        public\n        view\n        returns (bytes32[])\n    {\n        return registryTags_;\n    }\n\n    function updateEntryCreationFee(uint _fee)\n        external\n        onlyOwner\n    {\n        entryCreationFee_ = _fee;\n    }\n\n    function updateRegistryName(string _registryName)\n        external\n        onlyOwner\n    {\n        uint len = bytes(_registryName).length;\n        require(len > 0 && len <= 32);\n\n        registryName_ = _registryName;\n    }\n\n    function updateRegistryDescription(string _registryDescription)\n        external\n        onlyOwner\n    {\n        uint len = bytes(_registryDescription).length;\n        require(len <= 256);\n\n        registryDescription_ = _registryDescription;\n    }\n\n    function addRegistryTag(bytes32 _tag)\n        external\n        onlyOwner\n    {\n        require(_tag.length <= 16);\n\n        registryTags_.push(_tag);\n    }\n\n    function updateRegistryTag(uint256 _index, bytes32 _tag)\n        external\n        onlyOwner\n    {\n        require(_tag.length <= 16);\n\n        registryTags_[_index] = _tag;\n    }\n\n    function removeRegistryTag(uint256 _index, bytes32 _tag)\n        external\n        onlyOwner\n    {\n        require(_tag.length <= 16);\n\n        uint256 lastTagIndex = registryTags_.length - 1;\n        bytes32 lastTag = registryTags_[lastTagIndex];\n\n        registryTags_[_index] = lastTag;\n        registryTags_[lastTagIndex] = \"\"; //\"\"?\n        registryTags_.length--;\n    }\n\n\n    function updateABILink(string _linkABI)\n        external\n        onlyOwner\n    {\n        linkABI_ = _linkABI;\n         ABILinkUpdated(_linkABI);\n    }\n\n    function setMetaLink(string _linkMeta)\n        external\n        onlyOwner\n    {\n        linkMeta_ = _linkMeta;\n         MetaLinkUpdated(_linkMeta);\n    }\n\n    function setSourceLink(string _linkSourceCode)\n        external\n        onlyOwner\n    {\n        linkSourceCode_ = _linkSourceCode;\n         SourceLinkUpdated(_linkSourceCode);\n    }\n}\n",
  "sourcePath": "/Users/litvintech/Projects/chaingear/contracts/registry/Chaingeareable.sol",
  "compiler": {
    "name": "solc",
    "version": "0.4.19+commit.c4cbbb05.Emscripten.clang"
  },
  "schemaVersion": "1.0.1",
  "updatedAt": "2018-04-13T15:34:57.410Z"
}