{
  "contractName": "Chaingear",
  "abi": [
    {
      "constant": true,
      "inputs": [
        {
          "name": "_registryID",
          "type": "uint256"
        }
      ],
      "name": "nameOf",
      "outputs": [
        {
          "name": "",
          "type": "string"
        }
      ],
      "payable": false,
      "stateMutability": "view",
      "type": "function"
    },
    {
      "constant": true,
      "inputs": [],
      "name": "name",
      "outputs": [
        {
          "name": "",
          "type": "string"
        }
      ],
      "payable": false,
      "stateMutability": "view",
      "type": "function"
    },
    {
      "constant": true,
      "inputs": [],
      "name": "linkSourceCode",
      "outputs": [
        {
          "name": "",
          "type": "string"
        }
      ],
      "payable": false,
      "stateMutability": "view",
      "type": "function"
    },
    {
      "constant": true,
      "inputs": [
        {
          "name": "_tokenId",
          "type": "uint256"
        }
      ],
      "name": "getApproved",
      "outputs": [
        {
          "name": "",
          "type": "address"
        }
      ],
      "payable": false,
      "stateMutability": "view",
      "type": "function"
    },
    {
      "constant": false,
      "inputs": [
        {
          "name": "_to",
          "type": "address"
        },
        {
          "name": "_tokenId",
          "type": "uint256"
        }
      ],
      "name": "approve",
      "outputs": [],
      "payable": false,
      "stateMutability": "nonpayable",
      "type": "function"
    },
    {
      "constant": true,
      "inputs": [],
      "name": "totalSupply",
      "outputs": [
        {
          "name": "",
          "type": "uint256"
        }
      ],
      "payable": false,
      "stateMutability": "view",
      "type": "function"
    },
    {
      "constant": true,
      "inputs": [],
      "name": "registryCreator",
      "outputs": [
        {
          "name": "",
          "type": "address"
        }
      ],
      "payable": false,
      "stateMutability": "view",
      "type": "function"
    },
    {
      "constant": false,
      "inputs": [
        {
          "name": "_from",
          "type": "address"
        },
        {
          "name": "_to",
          "type": "address"
        },
        {
          "name": "_tokenId",
          "type": "uint256"
        }
      ],
      "name": "transferFrom",
      "outputs": [],
      "payable": false,
      "stateMutability": "nonpayable",
      "type": "function"
    },
    {
      "constant": true,
      "inputs": [
        {
          "name": "_owner",
          "type": "address"
        },
        {
          "name": "_index",
          "type": "uint256"
        }
      ],
      "name": "tokenOfOwnerByIndex",
      "outputs": [
        {
          "name": "",
          "type": "uint256"
        }
      ],
      "payable": false,
      "stateMutability": "view",
      "type": "function"
    },
    {
      "constant": true,
      "inputs": [
        {
          "name": "_registryID",
          "type": "uint256"
        }
      ],
      "name": "registryInfo",
      "outputs": [
        {
          "name": "",
          "type": "string"
        },
        {
          "name": "",
          "type": "address"
        },
        {
          "name": "",
          "type": "address"
        },
        {
          "name": "",
          "type": "uint256"
        },
        {
          "name": "",
          "type": "string"
        },
        {
          "name": "",
          "type": "address"
        }
      ],
      "payable": false,
      "stateMutability": "view",
      "type": "function"
    },
    {
      "constant": true,
      "inputs": [],
      "name": "totalShares",
      "outputs": [
        {
          "name": "",
          "type": "uint256"
        }
      ],
      "payable": false,
      "stateMutability": "view",
      "type": "function"
    },
    {
      "constant": false,
      "inputs": [],
      "name": "unpause",
      "outputs": [],
      "payable": false,
      "stateMutability": "nonpayable",
      "type": "function"
    },
    {
      "constant": false,
      "inputs": [
        {
          "name": "_from",
          "type": "address"
        },
        {
          "name": "_to",
          "type": "address"
        },
        {
          "name": "_tokenId",
          "type": "uint256"
        }
      ],
      "name": "safeTransferFrom",
      "outputs": [],
      "payable": false,
      "stateMutability": "nonpayable",
      "type": "function"
    },
    {
      "constant": true,
      "inputs": [],
      "name": "chaingearDescription",
      "outputs": [
        {
          "name": "",
          "type": "string"
        }
      ],
      "payable": false,
      "stateMutability": "view",
      "type": "function"
    },
    {
      "constant": false,
      "inputs": [
        {
          "name": "_linkABI",
          "type": "string"
        }
      ],
      "name": "setABILink",
      "outputs": [],
      "payable": false,
      "stateMutability": "nonpayable",
      "type": "function"
    },
    {
      "constant": true,
      "inputs": [],
      "name": "linkMeta",
      "outputs": [
        {
          "name": "",
          "type": "string"
        }
      ],
      "payable": false,
      "stateMutability": "view",
      "type": "function"
    },
    {
      "constant": false,
      "inputs": [],
      "name": "claim",
      "outputs": [],
      "payable": false,
      "stateMutability": "nonpayable",
      "type": "function"
    },
    {
      "constant": true,
      "inputs": [
        {
          "name": "_tokenId",
          "type": "uint256"
        }
      ],
      "name": "exists",
      "outputs": [
        {
          "name": "",
          "type": "bool"
        }
      ],
      "payable": false,
      "stateMutability": "view",
      "type": "function"
    },
    {
      "constant": true,
      "inputs": [
        {
          "name": "_index",
          "type": "uint256"
        }
      ],
      "name": "tokenByIndex",
      "outputs": [
        {
          "name": "",
          "type": "uint256"
        }
      ],
      "payable": false,
      "stateMutability": "view",
      "type": "function"
    },
    {
      "constant": true,
      "inputs": [],
      "name": "registriesAmount",
      "outputs": [
        {
          "name": "",
          "type": "uint256"
        }
      ],
      "payable": false,
      "stateMutability": "view",
      "type": "function"
    },
    {
      "constant": true,
      "inputs": [
        {
          "name": "_registryID",
          "type": "uint256"
        }
      ],
      "name": "creatorOf",
      "outputs": [
        {
          "name": "",
          "type": "address"
        }
      ],
      "payable": false,
      "stateMutability": "view",
      "type": "function"
    },
    {
      "constant": true,
      "inputs": [],
      "name": "paused",
      "outputs": [
        {
          "name": "",
          "type": "bool"
        }
      ],
      "payable": false,
      "stateMutability": "view",
      "type": "function"
    },
    {
      "constant": true,
      "inputs": [
        {
          "name": "",
          "type": "uint256"
        }
      ],
      "name": "payees",
      "outputs": [
        {
          "name": "",
          "type": "address"
        }
      ],
      "payable": false,
      "stateMutability": "view",
      "type": "function"
    },
    {
      "constant": true,
      "inputs": [
        {
          "name": "_tokenId",
          "type": "uint256"
        }
      ],
      "name": "ownerOf",
      "outputs": [
        {
          "name": "",
          "type": "address"
        }
      ],
      "payable": false,
      "stateMutability": "view",
      "type": "function"
    },
    {
      "constant": false,
      "inputs": [
        {
          "name": "_linkMeta",
          "type": "string"
        }
      ],
      "name": "setMetaLink",
      "outputs": [],
      "payable": false,
      "stateMutability": "nonpayable",
      "type": "function"
    },
    {
      "constant": true,
      "inputs": [
        {
          "name": "_owner",
          "type": "address"
        }
      ],
      "name": "balanceOf",
      "outputs": [
        {
          "name": "",
          "type": "uint256"
        }
      ],
      "payable": false,
      "stateMutability": "view",
      "type": "function"
    },
    {
      "constant": false,
      "inputs": [
        {
          "name": "_payeeIndex",
          "type": "uint256"
        },
        {
          "name": "_newAddress",
          "type": "address"
        }
      ],
      "name": "changePayeeAddress",
      "outputs": [],
      "payable": false,
      "stateMutability": "nonpayable",
      "type": "function"
    },
    {
      "constant": false,
      "inputs": [],
      "name": "destroy",
      "outputs": [],
      "payable": false,
      "stateMutability": "nonpayable",
      "type": "function"
    },
    {
      "constant": false,
      "inputs": [
        {
          "name": "_linkSourceCode",
          "type": "string"
        }
      ],
      "name": "setSourceLink",
      "outputs": [],
      "payable": false,
      "stateMutability": "nonpayable",
      "type": "function"
    },
    {
      "constant": false,
      "inputs": [],
      "name": "pause",
      "outputs": [],
      "payable": false,
      "stateMutability": "nonpayable",
      "type": "function"
    },
    {
      "constant": true,
      "inputs": [],
      "name": "registryRegistrationFee",
      "outputs": [
        {
          "name": "",
          "type": "uint256"
        }
      ],
      "payable": false,
      "stateMutability": "view",
      "type": "function"
    },
    {
      "constant": true,
      "inputs": [],
      "name": "owner",
      "outputs": [
        {
          "name": "",
          "type": "address"
        }
      ],
      "payable": false,
      "stateMutability": "view",
      "type": "function"
    },
    {
      "constant": true,
      "inputs": [
        {
          "name": "_registryID",
          "type": "uint256"
        }
      ],
      "name": "registryDateOf",
      "outputs": [
        {
          "name": "",
          "type": "uint256"
        }
      ],
      "payable": false,
      "stateMutability": "view",
      "type": "function"
    },
    {
      "constant": true,
      "inputs": [],
      "name": "symbol",
      "outputs": [
        {
          "name": "",
          "type": "string"
        }
      ],
      "payable": false,
      "stateMutability": "view",
      "type": "function"
    },
    {
      "constant": true,
      "inputs": [
        {
          "name": "",
          "type": "address"
        }
      ],
      "name": "released",
      "outputs": [
        {
          "name": "",
          "type": "uint256"
        }
      ],
      "payable": false,
      "stateMutability": "view",
      "type": "function"
    },
    {
      "constant": true,
      "inputs": [],
      "name": "linkABI",
      "outputs": [
        {
          "name": "",
          "type": "string"
        }
      ],
      "payable": false,
      "stateMutability": "view",
      "type": "function"
    },
    {
      "constant": false,
      "inputs": [
        {
          "name": "_to",
          "type": "address"
        },
        {
          "name": "_approved",
          "type": "bool"
        }
      ],
      "name": "setApprovalForAll",
      "outputs": [],
      "payable": false,
      "stateMutability": "nonpayable",
      "type": "function"
    },
    {
      "constant": true,
      "inputs": [
        {
          "name": "_registryID",
          "type": "uint256"
        }
      ],
      "name": "registryBalanceInfo",
      "outputs": [
        {
          "name": "",
          "type": "uint256"
        },
        {
          "name": "",
          "type": "uint256"
        }
      ],
      "payable": false,
      "stateMutability": "view",
      "type": "function"
    },
    {
      "constant": false,
      "inputs": [
        {
          "name": "_newFee",
          "type": "uint256"
        }
      ],
      "name": "updateRegistrationFee",
      "outputs": [],
      "payable": false,
      "stateMutability": "nonpayable",
      "type": "function"
    },
    {
      "constant": false,
      "inputs": [
        {
          "name": "_from",
          "type": "address"
        },
        {
          "name": "_to",
          "type": "address"
        },
        {
          "name": "_tokenId",
          "type": "uint256"
        },
        {
          "name": "_data",
          "type": "bytes"
        }
      ],
      "name": "safeTransferFrom",
      "outputs": [],
      "payable": false,
      "stateMutability": "nonpayable",
      "type": "function"
    },
    {
      "constant": true,
      "inputs": [
        {
          "name": "_registryID",
          "type": "uint256"
        }
      ],
      "name": "registryOwnerOf",
      "outputs": [
        {
          "name": "",
          "type": "address"
        }
      ],
      "payable": false,
      "stateMutability": "view",
      "type": "function"
    },
    {
      "constant": true,
      "inputs": [
        {
          "name": "_registryID",
          "type": "uint256"
        }
      ],
      "name": "currentRegistryBalanceETHOf",
      "outputs": [
        {
          "name": "",
          "type": "uint256"
        }
      ],
      "payable": false,
      "stateMutability": "view",
      "type": "function"
    },
    {
      "constant": true,
      "inputs": [
        {
          "name": "_registryID",
          "type": "uint256"
        }
      ],
      "name": "accumulatedRegistryETHOf",
      "outputs": [
        {
          "name": "",
          "type": "uint256"
        }
      ],
      "payable": false,
      "stateMutability": "view",
      "type": "function"
    },
    {
      "constant": true,
      "inputs": [
        {
          "name": "_tokenId",
          "type": "uint256"
        }
      ],
      "name": "tokenURI",
      "outputs": [
        {
          "name": "",
          "type": "string"
        }
      ],
      "payable": false,
      "stateMutability": "view",
      "type": "function"
    },
    {
      "constant": true,
      "inputs": [
        {
          "name": "_registryID",
          "type": "uint256"
        }
      ],
      "name": "ABILinkOf",
      "outputs": [
        {
          "name": "",
          "type": "string"
        }
      ],
      "payable": false,
      "stateMutability": "view",
      "type": "function"
    },
    {
      "constant": true,
      "inputs": [
        {
          "name": "",
          "type": "address"
        }
      ],
      "name": "shares",
      "outputs": [
        {
          "name": "",
          "type": "uint256"
        }
      ],
      "payable": false,
      "stateMutability": "view",
      "type": "function"
    },
    {
      "constant": true,
      "inputs": [],
      "name": "totalReleased",
      "outputs": [
        {
          "name": "",
          "type": "uint256"
        }
      ],
      "payable": false,
      "stateMutability": "view",
      "type": "function"
    },
    {
      "constant": false,
      "inputs": [
        {
          "name": "_description",
          "type": "string"
        }
      ],
      "name": "updateDescription",
      "outputs": [],
      "payable": false,
      "stateMutability": "nonpayable",
      "type": "function"
    },
    {
      "constant": true,
      "inputs": [
        {
          "name": "_owner",
          "type": "address"
        },
        {
          "name": "_operator",
          "type": "address"
        }
      ],
      "name": "isApprovedForAll",
      "outputs": [
        {
          "name": "",
          "type": "bool"
        }
      ],
      "payable": false,
      "stateMutability": "view",
      "type": "function"
    },
    {
      "constant": false,
      "inputs": [
        {
          "name": "newOwner",
          "type": "address"
        }
      ],
      "name": "transferOwnership",
      "outputs": [],
      "payable": false,
      "stateMutability": "nonpayable",
      "type": "function"
    },
    {
      "constant": false,
      "inputs": [
        {
          "name": "_recipient",
          "type": "address"
        }
      ],
      "name": "destroyAndSend",
      "outputs": [],
      "payable": false,
      "stateMutability": "nonpayable",
      "type": "function"
    },
    {
      "constant": true,
      "inputs": [
        {
          "name": "_registryID",
          "type": "uint256"
        }
      ],
      "name": "contractAddressOf",
      "outputs": [
        {
          "name": "",
          "type": "address"
        }
      ],
      "payable": false,
      "stateMutability": "view",
      "type": "function"
    },
    {
      "constant": false,
      "inputs": [
        {
          "name": "_creator",
          "type": "address"
        }
      ],
      "name": "setRegistryCreator",
      "outputs": [],
      "payable": false,
      "stateMutability": "nonpayable",
      "type": "function"
    },
    {
      "inputs": [
        {
          "name": "_creator",
          "type": "address"
        },
        {
          "name": "_benefitiaries",
          "type": "address[]"
        },
        {
          "name": "_shares",
          "type": "uint256[]"
        },
        {
          "name": "_description",
          "type": "string"
        },
        {
          "name": "_registrationFee",
          "type": "uint256"
        },
        {
          "name": "_chaingearName",
          "type": "string"
        },
        {
          "name": "_chaingearSymbol",
          "type": "string"
        }
      ],
      "payable": true,
      "stateMutability": "payable",
      "type": "constructor"
    },
    {
      "payable": true,
      "stateMutability": "payable",
      "type": "fallback"
    },
    {
      "anonymous": false,
      "inputs": [],
      "name": "Pause",
      "type": "event"
    },
    {
      "anonymous": false,
      "inputs": [],
      "name": "Unpause",
      "type": "event"
    },
    {
      "anonymous": false,
      "inputs": [
        {
          "indexed": false,
          "name": "linkMeta",
          "type": "string"
        }
      ],
      "name": "MetaLinkUpdated",
      "type": "event"
    },
    {
      "anonymous": false,
      "inputs": [
        {
          "indexed": false,
          "name": "linkABI",
          "type": "string"
        }
      ],
      "name": "ABILinkUpdated",
      "type": "event"
    },
    {
      "anonymous": false,
      "inputs": [
        {
          "indexed": false,
          "name": "linkSource",
          "type": "string"
        }
      ],
      "name": "SourceLinkUpdated",
      "type": "event"
    },
    {
      "anonymous": false,
      "inputs": [
        {
          "indexed": false,
          "name": "payeeIndex",
          "type": "uint256"
        },
        {
          "indexed": false,
          "name": "oldAddress",
          "type": "address"
        },
        {
          "indexed": false,
          "name": "newAddress",
          "type": "address"
        }
      ],
      "name": "PayeeAddressChanged",
      "type": "event"
    },
    {
      "anonymous": false,
      "inputs": [
        {
          "indexed": true,
          "name": "previousOwner",
          "type": "address"
        },
        {
          "indexed": true,
          "name": "newOwner",
          "type": "address"
        }
      ],
      "name": "OwnershipTransferred",
      "type": "event"
    },
    {
      "anonymous": false,
      "inputs": [
        {
          "indexed": false,
          "name": "name",
          "type": "string"
        },
        {
          "indexed": false,
          "name": "registryAddress",
          "type": "address"
        },
        {
          "indexed": false,
          "name": "creator",
          "type": "address"
        },
        {
          "indexed": false,
          "name": "registryID",
          "type": "uint256"
        }
      ],
      "name": "RegistryRegistered",
      "type": "event"
    },
    {
      "anonymous": false,
      "inputs": [
        {
          "indexed": false,
          "name": "caller",
          "type": "address"
        },
        {
          "indexed": false,
          "name": "registryName",
          "type": "string"
        },
        {
          "indexed": false,
          "name": "registyID",
          "type": "uint256"
        },
        {
          "indexed": false,
          "name": "newOwner",
          "type": "address"
        }
      ],
      "name": "RegistryTransferred",
      "type": "event"
    },
    {
      "anonymous": false,
      "inputs": [
        {
          "indexed": true,
          "name": "_from",
          "type": "address"
        },
        {
          "indexed": true,
          "name": "_to",
          "type": "address"
        },
        {
          "indexed": false,
          "name": "_tokenId",
          "type": "uint256"
        }
      ],
      "name": "Transfer",
      "type": "event"
    },
    {
      "anonymous": false,
      "inputs": [
        {
          "indexed": true,
          "name": "_owner",
          "type": "address"
        },
        {
          "indexed": true,
          "name": "_approved",
          "type": "address"
        },
        {
          "indexed": false,
          "name": "_tokenId",
          "type": "uint256"
        }
      ],
      "name": "Approval",
      "type": "event"
    },
    {
      "anonymous": false,
      "inputs": [
        {
          "indexed": true,
          "name": "_owner",
          "type": "address"
        },
        {
          "indexed": true,
          "name": "_operator",
          "type": "address"
        },
        {
          "indexed": false,
          "name": "_approved",
          "type": "bool"
        }
      ],
      "name": "ApprovalForAll",
      "type": "event"
    },
    {
      "constant": false,
      "inputs": [
        {
          "name": "_benefitiaries",
          "type": "address[]"
        },
        {
          "name": "_shares",
          "type": "uint256[]"
        },
        {
          "name": "_name",
          "type": "string"
        },
        {
          "name": "_symbol",
          "type": "string"
        },
        {
          "name": "_linkToABIOfEntriesContract",
          "type": "string"
        },
        {
          "name": "_bytecodeOfEntriesContract",
          "type": "bytes"
        }
      ],
      "name": "registerRegistry",
      "outputs": [
        {
          "name": "registryAddress",
          "type": "address"
        },
        {
          "name": "registryID",
          "type": "uint256"
        }
      ],
      "payable": true,
      "stateMutability": "payable",
      "type": "function"
    },
    {
      "constant": false,
      "inputs": [
        {
          "name": "_registryID",
          "type": "uint256"
        },
        {
          "name": "_newOwner",
          "type": "address"
        }
      ],
      "name": "updateRegistryOwnership",
      "outputs": [],
      "payable": false,
      "stateMutability": "nonpayable",
      "type": "function"
    }
  ],
  "bytecode": "0x60606040526000600b556000600c556000601560006101000a81548160ff021916908315150217905550604051620053523803806200535283398101604052808051906020019091908051820191906020018051820191906020018051820191906020018051906020019091908051820191906020018051820191905050858581816000868681600490805190602001906200009d9291906200037e565b508060059080519060200190620000b69291906200037e565b50505081518351141515620000ca57600080fd5b600090505b82518110156200013757620001298382815181101515620000ec57fe5b9060200190602002015183838151811015156200010557fe5b90602001906020020151620001eb6401000000000262004d2f176401000000009004565b8080600101915050620000cf565b50505033601160006101000a81548173ffffffffffffffffffffffffffffffffffffffff021916908373ffffffffffffffffffffffffffffffffffffffff16021790555050508260178190555083601690805190602001906200019c9291906200037e565b5086601860006101000a81548173ffffffffffffffffffffffffffffffffffffffff021916908373ffffffffffffffffffffffffffffffffffffffff160217905550505050505050506200045c565b600073ffffffffffffffffffffffffffffffffffffffff168273ffffffffffffffffffffffffffffffffffffffff16141515156200022857600080fd5b6000811115156200023857600080fd5b6000600d60008473ffffffffffffffffffffffffffffffffffffffff1673ffffffffffffffffffffffffffffffffffffffff168152602001908152602001600020541415156200028757600080fd5b600f80548060010182816200029d919062000405565b9160005260206000209001600084909190916101000a81548173ffffffffffffffffffffffffffffffffffffffff021916908373ffffffffffffffffffffffffffffffffffffffff1602179055505080600d60008473ffffffffffffffffffffffffffffffffffffffff1673ffffffffffffffffffffffffffffffffffffffff168152602001908152602001600020819055506200035581600b546200035f6401000000000262003ce3179091906401000000009004565b600b819055505050565b60008082840190508381101515156200037457fe5b8091505092915050565b828054600181600116156101000203166002900490600052602060002090601f016020900481019282601f10620003c157805160ff1916838001178555620003f2565b82800160010185558215620003f2579182015b82811115620003f1578251825591602001919060010190620003d4565b5b50905062000401919062000434565b5090565b8154818355818115116200042f578183600052602060002091820191016200042e919062000434565b5b505050565b6200045991905b80821115620004555760008160009055506001016200043b565b5090565b90565b614ee6806200046c6000396000f300606060405260043610610293576000357c0100000000000000000000000000000000000000000000000000000000900463ffffffff168063051a26641461029557806306fdde031461033157806307b1f8f7146103bf578063081812fc1461044d578063095ea7b3146104b057806318160ddd146104f25780631bb952521461051b5780631d6e86e21461057057806323b872dd146105b25780632f745c591461061357806337f5881c146106695780633a98ef39146108115780633f4ba83a1461083a57806342842e0e1461084f57806343d2839f146108b05780634545d21c1461093e5780634dfaf97a1461096c5780634e71d92d146109fa5780634f558e7914610a0f5780634f6ccce714610a4a578063557902ad14610a81578063589a174314610aaa5780635c975abb14610b0d57806363037b0c14610b3a5780636352211e14610b9d5780636d2fd13814610c0057806370a0823114610c2e5780637b49376814610c7b57806383197ef014610cbd57806383ca00ac14610cd25780638456cb5914610d005780638ab47f7b14610d155780638da5cb5b14610d3e5780638e2992a014610d9357806395d89b4114610dca5780639852595c14610e585780639e925a7814610ea5578063a22cb46514610f33578063acaff7d414610f77578063af582c6b14610fb5578063b88d4fde14610fd8578063bb8275cf1461107c578063be901e32146110df578063bfe9300a14611116578063c85a9e6d1461114d578063c87b56dd1461121b578063ca6284d7146112b7578063ce7c2ac214611353578063e33b7de3146113a0578063e735b48a146113c9578063e985e9c5146113f7578063f2fde38b14611467578063f5074f41146114a0578063f5e0c610146114d9578063f6debd2c1461153c575b005b34156102a057600080fd5b6102b66004808035906020019091905050611575565b6040518080602001828103825283818151815260200191508051906020019080838360005b838110156102f65780820151818401526020810190506102db565b50505050905090810190601f1680156103235780820380516001836020036101000a031916815260200191505b509250505060405180910390f35b341561033c57600080fd5b61034461163d565b6040518080602001828103825283818151815260200191508051906020019080838360005b83811015610384578082015181840152602081019050610369565b50505050905090810190601f1680156103b15780820380516001836020036101000a031916815260200191505b509250505060405180910390f35b34156103ca57600080fd5b6103d26116e5565b6040518080602001828103825283818151815260200191508051906020019080838360005b838110156104125780820151818401526020810190506103f7565b50505050905090810190601f16801561043f5780820380516001836020036101000a031916815260200191505b509250505060405180910390f35b341561045857600080fd5b61046e600480803590602001909190505061178d565b604051808273ffffffffffffffffffffffffffffffffffffffff1673ffffffffffffffffffffffffffffffffffffffff16815260200191505060405180910390f35b34156104bb57600080fd5b6104f0600480803573ffffffffffffffffffffffffffffffffffffffff169060200190919080359060200190919050506117ca565b005b34156104fd57600080fd5b610505611990565b6040518082815260200191505060405180910390f35b341561052657600080fd5b61052e61199d565b604051808273ffffffffffffffffffffffffffffffffffffffff1673ffffffffffffffffffffffffffffffffffffffff16815260200191505060405180910390f35b341561057b57600080fd5b6105b0600480803590602001909190803573ffffffffffffffffffffffffffffffffffffffff169060200190919050506119c7565b005b34156105bd57600080fd5b610611600480803573ffffffffffffffffffffffffffffffffffffffff1690602001909190803573ffffffffffffffffffffffffffffffffffffffff16906020019091908035906020019091905050611cd4565b005b341561061e57600080fd5b610653600480803573ffffffffffffffffffffffffffffffffffffffff16906020019091908035906020019091905050611deb565b6040518082815260200191505060405180910390f35b341561067457600080fd5b61068a6004808035906020019091905050611e63565b60405180806020018773ffffffffffffffffffffffffffffffffffffffff1673ffffffffffffffffffffffffffffffffffffffff1681526020018673ffffffffffffffffffffffffffffffffffffffff1673ffffffffffffffffffffffffffffffffffffffff168152602001858152602001806020018473ffffffffffffffffffffffffffffffffffffffff1673ffffffffffffffffffffffffffffffffffffffff168152602001838103835289818151815260200191508051906020019080838360005b8381101561076a57808201518184015260208101905061074f565b50505050905090810190601f1680156107975780820380516001836020036101000a031916815260200191505b50838103825285818151815260200191508051906020019080838360005b838110156107d05780820151818401526020810190506107b5565b50505050905090810190601f1680156107fd5780820380516001836020036101000a031916815260200191505b509850505050505050505060405180910390f35b341561081c57600080fd5b610824611ec5565b6040518082815260200191505060405180910390f35b341561084557600080fd5b61084d611ecb565b005b341561085a57600080fd5b6108ae600480803573ffffffffffffffffffffffffffffffffffffffff1690602001909190803573ffffffffffffffffffffffffffffffffffffffff16906020019091908035906020019091905050611f8b565b005b34156108bb57600080fd5b6108c3611fc3565b6040518080602001828103825283818151815260200191508051906020019080838360005b838110156109035780820151818401526020810190506108e8565b50505050905090810190601f1680156109305780820380516001836020036101000a031916815260200191505b509250505060405180910390f35b341561094957600080fd5b61096a6004808035906020019082018035906020019190919290505061206b565b005b341561097757600080fd5b61097f61212e565b6040518080602001828103825283818151815260200191508051906020019080838360005b838110156109bf5780820151818401526020810190506109a4565b50505050905090810190601f1680156109ec5780820380516001836020036101000a031916815260200191505b509250505060405180910390f35b3415610a0557600080fd5b610a0d6121d6565b005b3415610a1a57600080fd5b610a30600480803590602001909190505061243e565b604051808215151515815260200191505060405180910390f35b3415610a5557600080fd5b610a6b60048080359060200190919050506124af565b6040518082815260200191505060405180910390f35b3415610a8c57600080fd5b610a946124e8565b6040518082815260200191505060405180910390f35b3415610ab557600080fd5b610acb60048080359060200190919050506124f5565b604051808273ffffffffffffffffffffffffffffffffffffffff1673ffffffffffffffffffffffffffffffffffffffff16815260200191505060405180910390f35b3415610b1857600080fd5b610b2061253f565b604051808215151515815260200191505060405180910390f35b3415610b4557600080fd5b610b5b6004808035906020019091905050612552565b604051808273ffffffffffffffffffffffffffffffffffffffff1673ffffffffffffffffffffffffffffffffffffffff16815260200191505060405180910390f35b3415610ba857600080fd5b610bbe6004808035906020019091905050612591565b604051808273ffffffffffffffffffffffffffffffffffffffff1673ffffffffffffffffffffffffffffffffffffffff16815260200191505060405180910390f35b3415610c0b57600080fd5b610c2c6004808035906020019082018035906020019190919290505061260e565b005b3415610c3957600080fd5b610c65600480803573ffffffffffffffffffffffffffffffffffffffff169060200190919050506126d1565b6040518082815260200191505060405180910390f35b3415610c8657600080fd5b610cbb600480803590602001909190803573ffffffffffffffffffffffffffffffffffffffff16906020019091905050612755565b005b3415610cc857600080fd5b610cd0612a79565b005b3415610cdd57600080fd5b610cfe60048080359060200190820180359060200191909192905050612b10565b005b3415610d0b57600080fd5b610d13612bd3565b005b3415610d2057600080fd5b610d28612c94565b6040518082815260200191505060405180910390f35b3415610d4957600080fd5b610d51612c9e565b604051808273ffffffffffffffffffffffffffffffffffffffff1673ffffffffffffffffffffffffffffffffffffffff16815260200191505060405180910390f35b3415610d9e57600080fd5b610db46004808035906020019091905050612cc4565b6040518082815260200191505060405180910390f35b3415610dd557600080fd5b610ddd612cee565b6040518080602001828103825283818151815260200191508051906020019080838360005b83811015610e1d578082015181840152602081019050610e02565b50505050905090810190601f168015610e4a5780820380516001836020036101000a031916815260200191505b509250505060405180910390f35b3415610e6357600080fd5b610e8f600480803573ffffffffffffffffffffffffffffffffffffffff16906020019091905050612d96565b6040518082815260200191505060405180910390f35b3415610eb057600080fd5b610eb8612dae565b6040518080602001828103825283818151815260200191508051906020019080838360005b83811015610ef8578082015181840152602081019050610edd565b50505050905090810190601f168015610f255780820380516001836020036101000a031916815260200191505b509250505060405180910390f35b3415610f3e57600080fd5b610f75600480803573ffffffffffffffffffffffffffffffffffffffff169060200190919080351515906020019091905050612e56565b005b3415610f8257600080fd5b610f986004808035906020019091905050612f92565b604051808381526020018281526020019250505060405180910390f35b3415610fc057600080fd5b610fd66004808035906020019091905050612fb0565b005b3415610fe357600080fd5b61107a600480803573ffffffffffffffffffffffffffffffffffffffff1690602001909190803573ffffffffffffffffffffffffffffffffffffffff1690602001909190803590602001909190803590602001908201803590602001908080601f01602080910402602001604051908101604052809392919081815260200183838082843782019150505050505091905050613016565b005b341561108757600080fd5b61109d6004808035906020019091905050613055565b604051808273ffffffffffffffffffffffffffffffffffffffff1673ffffffffffffffffffffffffffffffffffffffff16815260200191505060405180910390f35b34156110ea57600080fd5b611100600480803590602001909190505061309f565b6040518082815260200191505060405180910390f35b341561112157600080fd5b61113760048080359060200190919050506130c9565b6040518082815260200191505060405180910390f35b6111d260048080359060200190820180359060200191909192908035906020019082018035906020019190919290803590602001908201803590602001919091929080359060200190820180359060200191909192908035906020019082018035906020019190919290803590602001908201803590602001919091929050506130f3565b604051808373ffffffffffffffffffffffffffffffffffffffff1673ffffffffffffffffffffffffffffffffffffffff1681526020018281526020019250505060405180910390f35b341561122657600080fd5b61123c600480803590602001909190505061326b565b6040518080602001828103825283818151815260200191508051906020019080838360005b8381101561127c578082015181840152602081019050611261565b50505050905090810190601f1680156112a95780820380516001836020036101000a031916815260200191505b509250505060405180910390f35b34156112c257600080fd5b6112d8600480803590602001909190505061333a565b6040518080602001828103825283818151815260200191508051906020019080838360005b838110156113185780820151818401526020810190506112fd565b50505050905090810190601f1680156113455780820380516001836020036101000a031916815260200191505b509250505060405180910390f35b341561135e57600080fd5b61138a600480803573ffffffffffffffffffffffffffffffffffffffff16906020019091905050613402565b6040518082815260200191505060405180910390f35b34156113ab57600080fd5b6113b361341a565b6040518082815260200191505060405180910390f35b34156113d457600080fd5b6113f560048080359060200190820180359060200191909192905050613420565b005b341561140257600080fd5b61144d600480803573ffffffffffffffffffffffffffffffffffffffff1690602001909190803573ffffffffffffffffffffffffffffffffffffffff169060200190919050506134ab565b604051808215151515815260200191505060405180910390f35b341561147257600080fd5b61149e600480803573ffffffffffffffffffffffffffffffffffffffff1690602001909190505061353f565b005b34156114ab57600080fd5b6114d7600480803573ffffffffffffffffffffffffffffffffffffffff16906020019091905050613697565b005b34156114e457600080fd5b6114fa600480803590602001909190505061370c565b604051808273ffffffffffffffffffffffffffffffffffffffff1673ffffffffffffffffffffffffffffffffffffffff16815260200191505060405180910390f35b341561154757600080fd5b611573600480803573ffffffffffffffffffffffffffffffffffffffff16906020019091905050613756565b005b61157d6149b0565b60108281548110151561158c57fe5b90600052602060002090600802016000018054600181600116156101000203166002900480601f0160208091040260200160405190810160405280929190818152602001828054600181600116156101000203166002900480156116315780601f1061160657610100808354040283529160200191611631565b820191906000526020600020905b81548152906001019060200180831161161457829003601f168201915b50505050509050919050565b6116456149b0565b60048054600181600116156101000203166002900480601f0160208091040260200160405190810160405280929190818152602001828054600181600116156101000203166002900480156116db5780601f106116b0576101008083540402835291602001916116db565b820191906000526020600020905b8154815290600101906020018083116116be57829003601f168201915b5050505050905090565b6116ed6149b0565b60148054600181600116156101000203166002900480601f0160208091040260200160405190810160405280929190818152602001828054600181600116156101000203166002900480156117835780601f1061175857610100808354040283529160200191611783565b820191906000526020600020905b81548152906001019060200180831161176657829003601f168201915b5050505050905090565b60006001600083815260200190815260200160002060009054906101000a900473ffffffffffffffffffffffffffffffffffffffff169050919050565b60006117d582612591565b90508073ffffffffffffffffffffffffffffffffffffffff168373ffffffffffffffffffffffffffffffffffffffff161415151561181257600080fd5b8073ffffffffffffffffffffffffffffffffffffffff163373ffffffffffffffffffffffffffffffffffffffff161480611852575061185181336134ab565b5b151561185d57600080fd5b600073ffffffffffffffffffffffffffffffffffffffff1661187e8361178d565b73ffffffffffffffffffffffffffffffffffffffff161415806118ce5750600073ffffffffffffffffffffffffffffffffffffffff168373ffffffffffffffffffffffffffffffffffffffff1614155b1561198b57826001600084815260200190815260200160002060006101000a81548173ffffffffffffffffffffffffffffffffffffffff021916908373ffffffffffffffffffffffffffffffffffffffff1602179055508273ffffffffffffffffffffffffffffffffffffffff168173ffffffffffffffffffffffffffffffffffffffff167f8c5be1e5ebec7d5bd14f71427d1e84f3dd0314c0f7b2291e5b200ac8c7c3b925846040518082815260200191505060405180910390a35b505050565b6000600880549050905090565b6000601860009054906101000a900473ffffffffffffffffffffffffffffffffffffffff16905090565b601560009054906101000a900460ff161515156119e357600080fd5b813373ffffffffffffffffffffffffffffffffffffffff16611a0482612591565b73ffffffffffffffffffffffffffffffffffffffff16141515611a2657600080fd5b601083815481101515611a3557fe5b906000526020600020906008020160010160009054906101000a900473ffffffffffffffffffffffffffffffffffffffff1673ffffffffffffffffffffffffffffffffffffffff166376c48c00836040518263ffffffff167c0100000000000000000000000000000000000000000000000000000000028152600401808273ffffffffffffffffffffffffffffffffffffffff1673ffffffffffffffffffffffffffffffffffffffff168152602001915050600060405180830381600087803b1515611b0057600080fd5b6102c65a03f11515611b1157600080fd5b50505081601084815481101515611b2457fe5b906000526020600020906008020160050160006101000a81548173ffffffffffffffffffffffffffffffffffffffff021916908373ffffffffffffffffffffffffffffffffffffffff160217905550611b7d33846137f6565b611b878284613a11565b7f7261d25fa7019a7052053245f81c6f308ac6783c9bb973b8eccee7cda7875ee833601085815481101515611bb857fe5b90600052602060002090600802016000018585604051808573ffffffffffffffffffffffffffffffffffffffff1673ffffffffffffffffffffffffffffffffffffffff168152602001806020018481526020018373ffffffffffffffffffffffffffffffffffffffff1673ffffffffffffffffffffffffffffffffffffffff168152602001828103825285818154600181600116156101000203166002900481526020019150805460018160011615610100020316600290048015611cbe5780601f10611c9357610100808354040283529160200191611cbe565b820191906000526020600020905b815481529060010190602001808311611ca157829003601f168201915b50509550505050505060405180910390a1505050565b80611cdf3382613ae5565b1515611cea57600080fd5b600073ffffffffffffffffffffffffffffffffffffffff168473ffffffffffffffffffffffffffffffffffffffff1614151515611d2657600080fd5b600073ffffffffffffffffffffffffffffffffffffffff168373ffffffffffffffffffffffffffffffffffffffff1614151515611d6257600080fd5b611d6c8483613b7a565b611d7684836137f6565b611d808383613a11565b8273ffffffffffffffffffffffffffffffffffffffff168473ffffffffffffffffffffffffffffffffffffffff167fddf252ad1be2c89b69c2b068fc378daa952ba7f163c4a11628f55a4df523b3ef846040518082815260200191505060405180910390a350505050565b6000611df6836126d1565b82101515611e0357600080fd5b600660008473ffffffffffffffffffffffffffffffffffffffff1673ffffffffffffffffffffffffffffffffffffffff16815260200190815260200160002082815481101515611e4f57fe5b906000526020600020900154905092915050565b611e6b6149b0565b6000806000611e786149b0565b6000611e8387611575565b611e8c8861370c565b611e95896124f5565b611e9e8a612cc4565b611ea78b61333a565b611eb08c613055565b95509550955095509550955091939550919395565b600b5481565b601160009054906101000a900473ffffffffffffffffffffffffffffffffffffffff1673ffffffffffffffffffffffffffffffffffffffff163373ffffffffffffffffffffffffffffffffffffffff16141515611f2757600080fd5b601560009054906101000a900460ff161515611f4257600080fd5b6000601560006101000a81548160ff0219169083151502179055507f7805862f689e2f13df9f062ff482ad3ad112aca9e0847911ed832e158c525b3360405160405180910390a1565b80611f963382613ae5565b1515611fa157600080fd5b611fbd8484846020604051908101604052806000815250613016565b50505050565b611fcb6149b0565b60168054600181600116156101000203166002900480601f0160208091040260200160405190810160405280929190818152602001828054600181600116156101000203166002900480156120615780601f1061203657610100808354040283529160200191612061565b820191906000526020600020905b81548152906001019060200180831161204457829003601f168201915b5050505050905090565b601160009054906101000a900473ffffffffffffffffffffffffffffffffffffffff1673ffffffffffffffffffffffffffffffffffffffff163373ffffffffffffffffffffffffffffffffffffffff161415156120c757600080fd5b8181601291906120d89291906149c4565b507f97bc322e754962c4ff23eb8a9d58b147ead5be0347d9a799addc5a2d44564cbe8282604051808060200182810382528484828181526020019250808284378201915050935050505060405180910390a15050565b6121366149b0565b60138054600181600116156101000203166002900480601f0160208091040260200160405190810160405280929190818152602001828054600181600116156101000203166002900480156121cc5780601f106121a1576101008083540402835291602001916121cc565b820191906000526020600020905b8154815290600101906020018083116121af57829003601f168201915b5050505050905090565b60008060003392506000600d60008573ffffffffffffffffffffffffffffffffffffffff1673ffffffffffffffffffffffffffffffffffffffff1681526020019081526020016000205411151561222c57600080fd5b612258600c543073ffffffffffffffffffffffffffffffffffffffff1631613ce390919063ffffffff16565b9150612311600e60008573ffffffffffffffffffffffffffffffffffffffff1673ffffffffffffffffffffffffffffffffffffffff16815260200190815260200160002054612303600b546122f5600d60008973ffffffffffffffffffffffffffffffffffffffff1673ffffffffffffffffffffffffffffffffffffffff1681526020019081526020016000205487613d0190919063ffffffff16565b613d3c90919063ffffffff16565b613d5790919063ffffffff16565b90506000811415151561232357600080fd5b803073ffffffffffffffffffffffffffffffffffffffff16311015151561234957600080fd5b61239b81600e60008673ffffffffffffffffffffffffffffffffffffffff1673ffffffffffffffffffffffffffffffffffffffff16815260200190815260200160002054613ce390919063ffffffff16565b600e60008573ffffffffffffffffffffffffffffffffffffffff1673ffffffffffffffffffffffffffffffffffffffff168152602001908152602001600020819055506123f381600c54613ce390919063ffffffff16565b600c819055508273ffffffffffffffffffffffffffffffffffffffff166108fc829081150290604051600060405180830381858888f19350505050151561243957600080fd5b505050565b60008060008084815260200190815260200160002060009054906101000a900473ffffffffffffffffffffffffffffffffffffffff169050600073ffffffffffffffffffffffffffffffffffffffff168173ffffffffffffffffffffffffffffffffffffffff161415915050919050565b60006124b9611990565b821015156124c657600080fd5b6008828154811015156124d557fe5b9060005260206000209001549050919050565b6000601080549050905090565b600060108281548110151561250657fe5b906000526020600020906008020160020160009054906101000a900473ffffffffffffffffffffffffffffffffffffffff169050919050565b601560009054906101000a900460ff1681565b600f8181548110151561256157fe5b90600052602060002090016000915054906101000a900473ffffffffffffffffffffffffffffffffffffffff1681565b60008060008084815260200190815260200160002060009054906101000a900473ffffffffffffffffffffffffffffffffffffffff169050600073ffffffffffffffffffffffffffffffffffffffff168173ffffffffffffffffffffffffffffffffffffffff161415151561260557600080fd5b80915050919050565b601160009054906101000a900473ffffffffffffffffffffffffffffffffffffffff1673ffffffffffffffffffffffffffffffffffffffff163373ffffffffffffffffffffffffffffffffffffffff1614151561266a57600080fd5b81816013919061267b9291906149c4565b507f6362a59ae98fef1a0a45d03a1127a82c2268ca380148117a052b9f8bce8e6f1e8282604051808060200182810382528484828181526020019250808284378201915050935050505060405180910390a15050565b60008073ffffffffffffffffffffffffffffffffffffffff168273ffffffffffffffffffffffffffffffffffffffff161415151561270e57600080fd5b600260008373ffffffffffffffffffffffffffffffffffffffff1673ffffffffffffffffffffffffffffffffffffffff168152602001908152602001600020549050919050565b6000601160009054906101000a900473ffffffffffffffffffffffffffffffffffffffff1673ffffffffffffffffffffffffffffffffffffffff163373ffffffffffffffffffffffffffffffffffffffff161415156127b357600080fd5b600f838154811015156127c257fe5b906000526020600020900160009054906101000a900473ffffffffffffffffffffffffffffffffffffffff169050600d60008273ffffffffffffffffffffffffffffffffffffffff1673ffffffffffffffffffffffffffffffffffffffff16815260200190815260200160002054600d60008473ffffffffffffffffffffffffffffffffffffffff1673ffffffffffffffffffffffffffffffffffffffff16815260200190815260200160002081905550600e60008273ffffffffffffffffffffffffffffffffffffffff1673ffffffffffffffffffffffffffffffffffffffff16815260200190815260200160002054600e60008473ffffffffffffffffffffffffffffffffffffffff1673ffffffffffffffffffffffffffffffffffffffff1681526020019081526020016000208190555081600f8481548110151561290657fe5b906000526020600020900160006101000a81548173ffffffffffffffffffffffffffffffffffffffff021916908373ffffffffffffffffffffffffffffffffffffffff160217905550600d60008273ffffffffffffffffffffffffffffffffffffffff1673ffffffffffffffffffffffffffffffffffffffff16815260200190815260200160002060009055600e60008273ffffffffffffffffffffffffffffffffffffffff1673ffffffffffffffffffffffffffffffffffffffff168152602001908152602001600020600090557fa1982f3fe3fa9dba8ce5bc91687e2ab0850b0431cddacc1a249b2ae0390b912f838284604051808481526020018373ffffffffffffffffffffffffffffffffffffffff1673ffffffffffffffffffffffffffffffffffffffff1681526020018273ffffffffffffffffffffffffffffffffffffffff1673ffffffffffffffffffffffffffffffffffffffff168152602001935050505060405180910390a1505050565b601160009054906101000a900473ffffffffffffffffffffffffffffffffffffffff1673ffffffffffffffffffffffffffffffffffffffff163373ffffffffffffffffffffffffffffffffffffffff16141515612ad557600080fd5b601160009054906101000a900473ffffffffffffffffffffffffffffffffffffffff1673ffffffffffffffffffffffffffffffffffffffff16ff5b601160009054906101000a900473ffffffffffffffffffffffffffffffffffffffff1673ffffffffffffffffffffffffffffffffffffffff163373ffffffffffffffffffffffffffffffffffffffff16141515612b6c57600080fd5b818160149190612b7d9291906149c4565b507fcfaf57d92b1b2684731a770c593d162587ca98e9d372be876ab14b389866f0f68282604051808060200182810382528484828181526020019250808284378201915050935050505060405180910390a15050565b601160009054906101000a900473ffffffffffffffffffffffffffffffffffffffff1673ffffffffffffffffffffffffffffffffffffffff163373ffffffffffffffffffffffffffffffffffffffff16141515612c2f57600080fd5b601560009054906101000a900460ff16151515612c4b57600080fd5b6001601560006101000a81548160ff0219169083151502179055507f6985a02210a168e66602d3235cb6db0e70f92b3ba4d376a33c0f3d9434bff62560405160405180910390a1565b6000601754905090565b601160009054906101000a900473ffffffffffffffffffffffffffffffffffffffff1681565b6000601082815481101515612cd557fe5b9060005260206000209060080201600401549050919050565b612cf66149b0565b60058054600181600116156101000203166002900480601f016020809104026020016040519081016040528092919081815260200182805460018160011615610100020316600290048015612d8c5780601f10612d6157610100808354040283529160200191612d8c565b820191906000526020600020905b815481529060010190602001808311612d6f57829003601f168201915b5050505050905090565b600e6020528060005260406000206000915090505481565b612db66149b0565b60128054600181600116156101000203166002900480601f016020809104026020016040519081016040528092919081815260200182805460018160011615610100020316600290048015612e4c5780601f10612e2157610100808354040283529160200191612e4c565b820191906000526020600020905b815481529060010190602001808311612e2f57829003601f168201915b5050505050905090565b3373ffffffffffffffffffffffffffffffffffffffff168273ffffffffffffffffffffffffffffffffffffffff1614151515612e9157600080fd5b80600360003373ffffffffffffffffffffffffffffffffffffffff1673ffffffffffffffffffffffffffffffffffffffff16815260200190815260200160002060008473ffffffffffffffffffffffffffffffffffffffff1673ffffffffffffffffffffffffffffffffffffffff16815260200190815260200160002060006101000a81548160ff0219169083151502179055508173ffffffffffffffffffffffffffffffffffffffff163373ffffffffffffffffffffffffffffffffffffffff167f17307eab39ab6107e8899845ad3d59bd9653f200f220920489ca2b5937696c3183604051808215151515815260200191505060405180910390a35050565b600080612f9e8361309f565b612fa7846130c9565b91509150915091565b601160009054906101000a900473ffffffffffffffffffffffffffffffffffffffff1673ffffffffffffffffffffffffffffffffffffffff163373ffffffffffffffffffffffffffffffffffffffff1614151561300c57600080fd5b8060178190555050565b816130213382613ae5565b151561302c57600080fd5b613037858585611cd4565b61304385858585613d70565b151561304e57600080fd5b5050505050565b600060108281548110151561306657fe5b906000526020600020906008020160050160009054906101000a900473ffffffffffffffffffffffffffffffffffffffff169050919050565b60006010828154811015156130b057fe5b9060005260206000209060080201600601549050919050565b60006010828154811015156130da57fe5b9060005260206000209060080201600701549050919050565b600080601560009054906101000a900460ff1615151561311257600080fd5b6017543414151561312257600080fd5b6132568e8e808060200260200160405190810160405280939291908181526020018383602002808284378201915050505050508d8d808060200260200160405190810160405280939291908181526020018383602002808284378201915050505050508c8c8080601f0160208091040260200160405190810160405280939291908181526020018383808284378201915050505050508b8b8080601f0160208091040260200160405190810160405280939291908181526020018383808284378201915050505050508a8a8080601f01602080910402602001604051908101604052809392919081815260200183838082843782019150505050505089898080601f016020809104026020016040519081016040528093929190818152602001838380828437820191505050505050613f46565b915091509c509c9a5050505050505050505050565b6132736149b0565b61327c8261243e565b151561328757600080fd5b600a60008381526020019081526020016000208054600181600116156101000203166002900480601f01602080910402602001604051908101604052809291908181526020018280546001816001161561010002031660029004801561332e5780601f106133035761010080835404028352916020019161332e565b820191906000526020600020905b81548152906001019060200180831161331157829003601f168201915b50505050509050919050565b6133426149b0565b60108281548110151561335157fe5b90600052602060002090600802016003018054600181600116156101000203166002900480601f0160208091040260200160405190810160405280929190818152602001828054600181600116156101000203166002900480156133f65780601f106133cb576101008083540402835291602001916133f6565b820191906000526020600020905b8154815290600101906020018083116133d957829003601f168201915b50505050509050919050565b600d6020528060005260406000206000915090505481565b600c5481565b6000601160009054906101000a900473ffffffffffffffffffffffffffffffffffffffff1673ffffffffffffffffffffffffffffffffffffffff163373ffffffffffffffffffffffffffffffffffffffff1614151561347e57600080fd5b8282905090506080811115151561349457600080fd5b8282601691906134a59291906149c4565b50505050565b6000600360008473ffffffffffffffffffffffffffffffffffffffff1673ffffffffffffffffffffffffffffffffffffffff16815260200190815260200160002060008373ffffffffffffffffffffffffffffffffffffffff1673ffffffffffffffffffffffffffffffffffffffff16815260200190815260200160002060009054906101000a900460ff16905092915050565b601160009054906101000a900473ffffffffffffffffffffffffffffffffffffffff1673ffffffffffffffffffffffffffffffffffffffff163373ffffffffffffffffffffffffffffffffffffffff1614151561359b57600080fd5b600073ffffffffffffffffffffffffffffffffffffffff168173ffffffffffffffffffffffffffffffffffffffff16141515156135d757600080fd5b8073ffffffffffffffffffffffffffffffffffffffff16601160009054906101000a900473ffffffffffffffffffffffffffffffffffffffff1673ffffffffffffffffffffffffffffffffffffffff167f8be0079c531659141344cd1fd0a4f28419497f9722a3daafe3b4186f6b6457e060405160405180910390a380601160006101000a81548173ffffffffffffffffffffffffffffffffffffffff021916908373ffffffffffffffffffffffffffffffffffffffff16021790555050565b601160009054906101000a900473ffffffffffffffffffffffffffffffffffffffff1673ffffffffffffffffffffffffffffffffffffffff163373ffffffffffffffffffffffffffffffffffffffff161415156136f357600080fd5b8073ffffffffffffffffffffffffffffffffffffffff16ff5b600060108281548110151561371d57fe5b906000526020600020906008020160010160009054906101000a900473ffffffffffffffffffffffffffffffffffffffff169050919050565b601160009054906101000a900473ffffffffffffffffffffffffffffffffffffffff1673ffffffffffffffffffffffffffffffffffffffff163373ffffffffffffffffffffffffffffffffffffffff161415156137b257600080fd5b80601860006101000a81548173ffffffffffffffffffffffffffffffffffffffff021916908373ffffffffffffffffffffffffffffffffffffffff16021790555050565b60008060006138058585614613565b600760008581526020019081526020016000205492506138716001600660008873ffffffffffffffffffffffffffffffffffffffff1673ffffffffffffffffffffffffffffffffffffffff16815260200190815260200160002080549050613d5790919063ffffffff16565b9150600660008673ffffffffffffffffffffffffffffffffffffffff1673ffffffffffffffffffffffffffffffffffffffff168152602001908152602001600020828154811015156138bf57fe5b906000526020600020900154905080600660008773ffffffffffffffffffffffffffffffffffffffff1673ffffffffffffffffffffffffffffffffffffffff1681526020019081526020016000208481548110151561391a57fe5b9060005260206000209001819055506000600660008773ffffffffffffffffffffffffffffffffffffffff1673ffffffffffffffffffffffffffffffffffffffff1681526020019081526020016000208381548110151561397757fe5b906000526020600020900181905550600660008673ffffffffffffffffffffffffffffffffffffffff1673ffffffffffffffffffffffffffffffffffffffff1681526020019081526020016000208054809190600190036139d89190614a44565b50600060076000868152602001908152602001600020819055508260076000838152602001908152602001600020819055505050505050565b6000613a1d8383614741565b600660008473ffffffffffffffffffffffffffffffffffffffff1673ffffffffffffffffffffffffffffffffffffffff168152602001908152602001600020805490509050600660008473ffffffffffffffffffffffffffffffffffffffff1673ffffffffffffffffffffffffffffffffffffffff1681526020019081526020016000208054806001018281613ab39190614a70565b916000526020600020900160008490919091505550806007600084815260200190815260200160002081905550505050565b600080613af183612591565b90508073ffffffffffffffffffffffffffffffffffffffff168473ffffffffffffffffffffffffffffffffffffffff161480613b6057508373ffffffffffffffffffffffffffffffffffffffff16613b488461178d565b73ffffffffffffffffffffffffffffffffffffffff16145b80613b715750613b7081856134ab565b5b91505092915050565b8173ffffffffffffffffffffffffffffffffffffffff16613b9a82612591565b73ffffffffffffffffffffffffffffffffffffffff16141515613bbc57600080fd5b600073ffffffffffffffffffffffffffffffffffffffff166001600083815260200190815260200160002060009054906101000a900473ffffffffffffffffffffffffffffffffffffffff1673ffffffffffffffffffffffffffffffffffffffff16141515613cdf5760006001600083815260200190815260200160002060006101000a81548173ffffffffffffffffffffffffffffffffffffffff021916908373ffffffffffffffffffffffffffffffffffffffff160217905550600073ffffffffffffffffffffffffffffffffffffffff168273ffffffffffffffffffffffffffffffffffffffff167f8c5be1e5ebec7d5bd14f71427d1e84f3dd0314c0f7b2291e5b200ac8c7c3b925836040518082815260200191505060405180910390a35b5050565b6000808284019050838110151515613cf757fe5b8091505092915050565b6000806000841415613d165760009150613d35565b8284029050828482811515613d2757fe5b04141515613d3157fe5b8091505b5092915050565b6000808284811515613d4a57fe5b0490508091505092915050565b6000828211151515613d6557fe5b818303905092915050565b600080613d928573ffffffffffffffffffffffffffffffffffffffff16614899565b1515613da15760019150613f3d565b8473ffffffffffffffffffffffffffffffffffffffff1663f0b9e5ba8786866000604051602001526040518463ffffffff167c0100000000000000000000000000000000000000000000000000000000028152600401808473ffffffffffffffffffffffffffffffffffffffff1673ffffffffffffffffffffffffffffffffffffffff16815260200183815260200180602001828103825283818151815260200191508051906020019080838360005b83811015613e6c578082015181840152602081019050613e51565b50505050905090810190601f168015613e995780820380516001836020036101000a031916815260200191505b50945050505050602060405180830381600087803b1515613eb957600080fd5b6102c65a03f11515613eca57600080fd5b50505060405180519050905063f0b9e5ba7c0100000000000000000000000000000000000000000000000000000000027bffffffffffffffffffffffffffffffffffffffffffffffffffffffff1916817bffffffffffffffffffffffffffffffffffffffffffffffffffffffff19161491505b50949350505050565b6000806000613f53614a9c565b6000601860009054906101000a900473ffffffffffffffffffffffffffffffffffffffff1673ffffffffffffffffffffffffffffffffffffffff166347c21a3c8c8c8c8c8c8c6000604051602001526040518763ffffffff167c01000000000000000000000000000000000000000000000000000000000281526004018080602001806020018060200180602001806020018060200187810387528d818151815260200191508051906020019060200280838360005b83811015614024578082015181840152602081019050614009565b5050505090500187810386528c818151815260200191508051906020019060200280838360005b8381101561406657808201518184015260208101905061404b565b5050505090500187810385528b818151815260200191508051906020019080838360005b838110156140a557808201518184015260208101905061408a565b50505050905090810190601f1680156140d25780820380516001836020036101000a031916815260200191505b5087810384528a818151815260200191508051906020019080838360005b8381101561410b5780820151818401526020810190506140f0565b50505050905090810190601f1680156141385780820380516001836020036101000a031916815260200191505b50878103835289818151815260200191508051906020019080838360005b83811015614171578082015181840152602081019050614156565b50505050905090810190601f16801561419e5780820380516001836020036101000a031916815260200191505b50878103825288818151815260200191508051906020019080838360005b838110156141d75780820151818401526020810190506141bc565b50505050905090810190601f1680156142045780820380516001836020036101000a031916815260200191505b509c50505050505050505050505050602060405180830381600087803b151561422c57600080fd5b6102c65a03f1151561423d57600080fd5b5050506040518051905092508273ffffffffffffffffffffffffffffffffffffffff1663f2fde38b336040518263ffffffff167c0100000000000000000000000000000000000000000000000000000000028152600401808273ffffffffffffffffffffffffffffffffffffffff1673ffffffffffffffffffffffffffffffffffffffff168152602001915050600060405180830381600087803b15156142e357600080fd5b6102c65a03f115156142f457600080fd5b505050610100604051908101604052808a81526020018473ffffffffffffffffffffffffffffffffffffffff1681526020013373ffffffffffffffffffffffffffffffffffffffff168152602001602060405190810160405280600081525081526020014281526020013373ffffffffffffffffffffffffffffffffffffffff168152602001600081526020016000815250915060016010805480600101828161439e9190614b30565b9160005260206000209060080201600085909190915060008201518160000190805190602001906143d0929190614b62565b5060208201518160010160006101000a81548173ffffffffffffffffffffffffffffffffffffffff021916908373ffffffffffffffffffffffffffffffffffffffff16021790555060408201518160020160006101000a81548173ffffffffffffffffffffffffffffffffffffffff021916908373ffffffffffffffffffffffffffffffffffffffff160217905550606082015181600301908051906020019061447b929190614b62565b506080820151816004015560a08201518160050160006101000a81548173ffffffffffffffffffffffffffffffffffffffff021916908373ffffffffffffffffffffffffffffffffffffffff16021790555060c0820151816006015560e0820151816007015550500390506144f033826148ac565b7fd98034e5da8b5718635c8cce4df2965d7cbeeb60f90d84a427442fc79497cb838984338460405180806020018573ffffffffffffffffffffffffffffffffffffffff1673ffffffffffffffffffffffffffffffffffffffff1681526020018473ffffffffffffffffffffffffffffffffffffffff1673ffffffffffffffffffffffffffffffffffffffff168152602001838152602001828103825286818151815260200191508051906020019080838360005b838110156145bf5780820151818401526020810190506145a4565b50505050905090810190601f1680156145ec5780820380516001836020036101000a031916815260200191505b509550505050505060405180910390a1828181915094509450505050965096945050505050565b8173ffffffffffffffffffffffffffffffffffffffff1661463382612591565b73ffffffffffffffffffffffffffffffffffffffff1614151561465557600080fd5b6146a86001600260008573ffffffffffffffffffffffffffffffffffffffff1673ffffffffffffffffffffffffffffffffffffffff16815260200190815260200160002054613d5790919063ffffffff16565b600260008473ffffffffffffffffffffffffffffffffffffffff1673ffffffffffffffffffffffffffffffffffffffff16815260200190815260200160002081905550600080600083815260200190815260200160002060006101000a81548173ffffffffffffffffffffffffffffffffffffffff021916908373ffffffffffffffffffffffffffffffffffffffff1602179055505050565b600073ffffffffffffffffffffffffffffffffffffffff1660008083815260200190815260200160002060009054906101000a900473ffffffffffffffffffffffffffffffffffffffff1673ffffffffffffffffffffffffffffffffffffffff161415156147ae57600080fd5b8160008083815260200190815260200160002060006101000a81548173ffffffffffffffffffffffffffffffffffffffff021916908373ffffffffffffffffffffffffffffffffffffffff1602179055506148526001600260008573ffffffffffffffffffffffffffffffffffffffff1673ffffffffffffffffffffffffffffffffffffffff16815260200190815260200160002054613ce390919063ffffffff16565b600260008473ffffffffffffffffffffffffffffffffffffffff1673ffffffffffffffffffffffffffffffffffffffff168152602001908152602001600020819055505050565b600080823b905060008111915050919050565b6148b68282614900565b6008805490506009600083815260200190815260200160002081905550600880548060010182816148e79190614a70565b9160005260206000209001600083909190915055505050565b600073ffffffffffffffffffffffffffffffffffffffff168273ffffffffffffffffffffffffffffffffffffffff161415151561493c57600080fd5b6149468282613a11565b8173ffffffffffffffffffffffffffffffffffffffff16600073ffffffffffffffffffffffffffffffffffffffff167fddf252ad1be2c89b69c2b068fc378daa952ba7f163c4a11628f55a4df523b3ef836040518082815260200191505060405180910390a35050565b602060405190810160405280600081525090565b828054600181600116156101000203166002900490600052602060002090601f016020900481019282601f10614a0557803560ff1916838001178555614a33565b82800160010185558215614a33579182015b82811115614a32578235825591602001919060010190614a17565b5b509050614a409190614be2565b5090565b815481835581811511614a6b57818360005260206000209182019101614a6a9190614be2565b5b505050565b815481835581811511614a9757818360005260206000209182019101614a969190614be2565b5b505050565b61010060405190810160405280614ab1614c07565b8152602001600073ffffffffffffffffffffffffffffffffffffffff168152602001600073ffffffffffffffffffffffffffffffffffffffff168152602001614af8614c07565b815260200160008152602001600073ffffffffffffffffffffffffffffffffffffffff16815260200160008152602001600081525090565b815481835581811511614b5d57600802816008028360005260206000209182019101614b5c9190614c1b565b5b505050565b828054600181600116156101000203166002900490600052602060002090601f016020900481019282601f10614ba357805160ff1916838001178555614bd1565b82800160010185558215614bd1579182015b82811115614bd0578251825591602001919060010190614bb5565b5b509050614bde9190614be2565b5090565b614c0491905b80821115614c00576000816000905550600101614be8565b5090565b90565b602060405190810160405280600081525090565b614ce491905b80821115614ce05760008082016000614c3a9190614ce7565b6001820160006101000a81549073ffffffffffffffffffffffffffffffffffffffff02191690556002820160006101000a81549073ffffffffffffffffffffffffffffffffffffffff0219169055600382016000614c989190614ce7565b60048201600090556005820160006101000a81549073ffffffffffffffffffffffffffffffffffffffff02191690556006820160009055600782016000905550600801614c21565b5090565b90565b50805460018160011615610100020316600290046000825580601f10614d0d5750614d2c565b601f016020900490600052602060002090810190614d2b9190614be2565b5b50565b600073ffffffffffffffffffffffffffffffffffffffff168273ffffffffffffffffffffffffffffffffffffffff1614151515614d6b57600080fd5b600081111515614d7a57600080fd5b6000600d60008473ffffffffffffffffffffffffffffffffffffffff1673ffffffffffffffffffffffffffffffffffffffff16815260200190815260200160002054141515614dc857600080fd5b600f8054806001018281614ddc9190614e8e565b9160005260206000209001600084909190916101000a81548173ffffffffffffffffffffffffffffffffffffffff021916908373ffffffffffffffffffffffffffffffffffffffff1602179055505080600d60008473ffffffffffffffffffffffffffffffffffffffff1673ffffffffffffffffffffffffffffffffffffffff16815260200190815260200160002081905550614e8481600b54613ce390919063ffffffff16565b600b819055505050565b815481835581811511614eb557818360005260206000209182019101614eb49190614be2565b5b5050505600a165627a7a72305820d6b568df003db254f6a5328da0901159407eedae896ddf877c8e038fff0a88290029",
  "source": "pragma solidity ^0.4.19;\n\nimport \"zeppelin-solidity/contracts/math/SafeMath.sol\";\nimport \"zeppelin-solidity/contracts/token/ERC721/ERC721Token.sol\";\nimport \"../common/SplitPaymentChangeable.sol\";\nimport \"./ChaingearCore.sol\";\nimport \"../registry/Registry.sol\";\n\n\ncontract Chaingear is ERC721Token, SplitPaymentChangeable, ChaingearCore {\n\n    using SafeMath for uint256;\n\n    modifier onlyRegistryOwner(uint256 _registryID) {\n        require (ownerOf(_registryID) == msg.sender);\n        _;\n    }\n\n    function Chaingear(\n        RegistryCreator _creator,\n        address[] _benefitiaries,\n        uint256[] _shares,\n        string _description,\n        uint _registrationFee,\n        string _chaingearName,\n        string _chaingearSymbol\n    )\n        SplitPaymentChangeable(_benefitiaries, _shares)\n        ERC721Token(_chaingearName, _chaingearSymbol)\n        public\n        payable\n    {\n        registryRegistrationFee_ = _registrationFee;\n        chaingearDescription_ = _description;\n        creator_ = _creator;\n    }\n\n\n    function registerRegistry(\n        address[] _benefitiaries,\n        uint256[] _shares,\n        string _name,\n        string _symbol,\n        string _linkToABIOfEntriesContract,\n        bytes _bytecodeOfEntriesContract\n    )\n        payable\n        whenNotPaused\n        external\n        returns (address registryAddress, uint256 registryID)\n    {\n        require(msg.value == registryRegistrationFee_);\n\n        return createRegistry(\n            _benefitiaries,\n            _shares,\n            _name,\n            _symbol,\n            _linkToABIOfEntriesContract,\n            _bytecodeOfEntriesContract\n        );\n    }\n\n    function createRegistry(\n        address[] _benefitiaries,\n        uint256[] _shares,\n        string _name,\n        string _symbol,\n        string _linkToABIOfEntriesContract,\n        bytes _bytecodeOfEntriesContract\n    )\n        private\n        returns (address newRegistryContract, uint256 newRegistryID)\n    {\n        Registry registryContract = creator_.create(\n            _benefitiaries,\n            _shares,\n            _name,\n            _symbol,\n            _linkToABIOfEntriesContract,\n            _bytecodeOfEntriesContract\n        );\n        registryContract.transferOwnership(msg.sender);\n\n        RegistryMeta memory registry = (RegistryMeta(\n        {\n            name: _name,\n            contractAddress: registryContract,\n            creator: msg.sender,\n            linkABI: \"\",\n            registrationTimestamp: block.timestamp,\n            owner: msg.sender,\n            currentRegistryBalanceETH: 0,\n            accumulatedRegistryETH: 0\n        }));\n        uint256 registryID = registries.push(registry) - 1;\n        _mint(msg.sender, registryID);\n        RegistryRegistered(_name, registryContract, msg.sender, registryID);\n\n        return (registryContract, registryID);\n    }\n\n     /* function unregisterRegistry(uint256 _registryID)\n         external\n         whenNotPaused\n     {\n         require (ERC721BasicToken.ownerOf(_registryID) == msg.sender);\n         address registryAddress = registries[_registryID].contractAddress;\n\n         string storage registryName = registries[_registryID].name;\n         uint256 registryIndex = allTokensIndex[_registryID];\n         uint256 lastRegistryIndex = registries.length.sub(1);\n         Registry storage lastRegistry = registries[lastRegistryIndex];\n\n         registries[registryIndex] = lastRegistry;\n         delete registries[lastRegistryIndex];\n         registries.length--;\n\n         super._burn(msg.sender, _registryID);\n\n         rethink this event\n         RegistryUnregistered(msg.sender, registryName);\n     } */\n\n     function updateRegistryOwnership(uint256 _registryID, address _newOwner)\n         whenNotPaused\n         onlyRegistryOwner(_registryID)\n         external\n     {\n         Registry(registries[_registryID].contractAddress).transferTokenizedOnwerhip(_newOwner);\n         registries[_registryID].owner = _newOwner;\n\n         super.removeTokenFrom(msg.sender, _registryID);\n         super.addTokenTo(_newOwner, _registryID);\n\n         RegistryTransferred(msg.sender, registries[_registryID].name, _registryID, _newOwner);\n     }\n}\n",
  "sourcePath": "/Users/litvintech/Projects/chaingear/contracts/chaingear/Chaingear.sol",
  "compiler": {
    "name": "solc",
    "version": "0.4.19+commit.c4cbbb05.Emscripten.clang"
  },
  "schemaVersion": "1.0.1",
  "updatedAt": "2018-04-24T06:19:12.643Z"
}