{
  "contractName": "EntryCore",
  "abi": [
    {
      "constant": true,
      "inputs": [
        {
          "name": "_entryId",
          "type": "uint256"
        }
      ],
      "name": "entryMeta",
      "outputs": [
        {
          "name": "",
          "type": "address"
        },
        {
          "name": "",
          "type": "address"
        },
        {
          "name": "",
          "type": "uint256"
        },
        {
          "name": "",
          "type": "uint256"
        }
      ],
      "payable": false,
      "stateMutability": "view",
      "type": "function"
    },
    {
      "constant": true,
      "inputs": [],
      "name": "owner",
      "outputs": [
        {
          "name": "",
          "type": "address"
        }
      ],
      "payable": false,
      "stateMutability": "view",
      "type": "function"
    },
    {
      "constant": false,
      "inputs": [
        {
          "name": "newOwner",
          "type": "address"
        }
      ],
      "name": "transferOwnership",
      "outputs": [],
      "payable": false,
      "stateMutability": "nonpayable",
      "type": "function"
    },
    {
      "anonymous": false,
      "inputs": [
        {
          "indexed": true,
          "name": "previousOwner",
          "type": "address"
        },
        {
          "indexed": true,
          "name": "newOwner",
          "type": "address"
        }
      ],
      "name": "OwnershipTransferred",
      "type": "event"
    },
    {
      "constant": true,
      "inputs": [
        {
          "name": "_entryId",
          "type": "uint256"
        }
      ],
      "name": "expensiveAddressOf",
      "outputs": [
        {
          "name": "",
          "type": "address"
        }
      ],
      "payable": false,
      "stateMutability": "view",
      "type": "function"
    },
    {
      "constant": true,
      "inputs": [
        {
          "name": "_entryId",
          "type": "uint256"
        }
      ],
      "name": "expensiveUintOf",
      "outputs": [
        {
          "name": "",
          "type": "uint256"
        }
      ],
      "payable": false,
      "stateMutability": "view",
      "type": "function"
    },
    {
      "constant": true,
      "inputs": [
        {
          "name": "_entryId",
          "type": "uint256"
        }
      ],
      "name": "expensiveIntOf",
      "outputs": [
        {
          "name": "",
          "type": "int128"
        }
      ],
      "payable": false,
      "stateMutability": "view",
      "type": "function"
    },
    {
      "constant": true,
      "inputs": [
        {
          "name": "_entryId",
          "type": "uint256"
        }
      ],
      "name": "expensiveStringOf",
      "outputs": [
        {
          "name": "",
          "type": "string"
        }
      ],
      "payable": false,
      "stateMutability": "view",
      "type": "function"
    },
    {
      "constant": true,
      "inputs": [
        {
          "name": "_entryId",
          "type": "uint256"
        }
      ],
      "name": "entryInfo",
      "outputs": [
        {
          "name": "",
          "type": "address"
        },
        {
          "name": "",
          "type": "uint256"
        },
        {
          "name": "",
          "type": "int128"
        },
        {
          "name": "",
          "type": "string"
        }
      ],
      "payable": false,
      "stateMutability": "view",
      "type": "function"
    },
    {
      "constant": true,
      "inputs": [],
      "name": "entriesAmount",
      "outputs": [
        {
          "name": "",
          "type": "uint256"
        }
      ],
      "payable": false,
      "stateMutability": "view",
      "type": "function"
    },
    {
      "constant": false,
      "inputs": [
        {
          "name": "_serializedParams",
          "type": "bytes"
        }
      ],
      "name": "createEntry",
      "outputs": [
        {
          "name": "entryId",
          "type": "uint256"
        }
      ],
      "payable": false,
      "stateMutability": "nonpayable",
      "type": "function"
    },
    {
      "constant": true,
      "inputs": [
        {
          "name": "_entryId",
          "type": "uint256"
        }
      ],
      "name": "registryOwnerOf",
      "outputs": [
        {
          "name": "",
          "type": "address"
        }
      ],
      "payable": false,
      "stateMutability": "view",
      "type": "function"
    },
    {
      "constant": true,
      "inputs": [
        {
          "name": "_entryId",
          "type": "uint256"
        }
      ],
      "name": "creatorOf",
      "outputs": [
        {
          "name": "",
          "type": "address"
        }
      ],
      "payable": false,
      "stateMutability": "view",
      "type": "function"
    },
    {
      "constant": true,
      "inputs": [
        {
          "name": "_entryId",
          "type": "uint256"
        }
      ],
      "name": "createdAtOf",
      "outputs": [
        {
          "name": "",
          "type": "uint256"
        }
      ],
      "payable": false,
      "stateMutability": "view",
      "type": "function"
    },
    {
      "constant": true,
      "inputs": [
        {
          "name": "_entryId",
          "type": "uint256"
        }
      ],
      "name": "lastUpdateTimeOf",
      "outputs": [
        {
          "name": "",
          "type": "uint256"
        }
      ],
      "payable": false,
      "stateMutability": "view",
      "type": "function"
    }
  ],
  "bytecode": "0x6060604052336000806101000a81548173ffffffffffffffffffffffffffffffffffffffff021916908373ffffffffffffffffffffffffffffffffffffffff1602179055506113aa806100536000396000f3006060604052600436106100d0576000357c0100000000000000000000000000000000000000000000000000000000900463ffffffff1680631a849d6b146100d557806339464884146101465780634fa5f70414610229578063528510fb146102cd5780635886dc9e14610304578063589a1743146103a05780637899b9f3146104035780638da5cb5b1461042c5780639689d2d314610481578063a427825d146104e4578063bb8275cf1461051b578063cb23a9811461057e578063f2fde38b146105b5578063fc326266146105ee575b600080fd5b34156100e057600080fd5b610130600480803590602001908201803590602001908080601f0160208091040260200160405190810160405280939291908181526020018383808284378201915050505050509190505061062b565b6040518082815260200191505060405180910390f35b341561015157600080fd5b610167600480803590602001909190505061095d565b604051808573ffffffffffffffffffffffffffffffffffffffff1673ffffffffffffffffffffffffffffffffffffffff16815260200184815260200183600f0b600f0b815260200180602001828103825283818151815260200191508051906020019080838360005b838110156101eb5780820151818401526020810190506101d0565b50505050905090810190601f1680156102185780820380516001836020036101000a031916815260200191505b509550505050505060405180910390f35b341561023457600080fd5b61024a600480803590602001909190505061099d565b604051808573ffffffffffffffffffffffffffffffffffffffff1673ffffffffffffffffffffffffffffffffffffffff1681526020018473ffffffffffffffffffffffffffffffffffffffff1673ffffffffffffffffffffffffffffffffffffffff16815260200183815260200182815260200194505050505060405180910390f35b34156102d857600080fd5b6102ee60048080359060200190919050506109d6565b6040518082815260200191505060405180910390f35b341561030f57600080fd5b61032560048080359060200190919050506109f8565b6040518080602001828103825283818151815260200191508051906020019080838360005b8381101561036557808201518184015260208101905061034a565b50505050905090810190601f1680156103925780820380516001836020036101000a031916815260200191505b509250505060405180910390f35b34156103ab57600080fd5b6103c16004808035906020019091905050610ac0565b604051808273ffffffffffffffffffffffffffffffffffffffff1673ffffffffffffffffffffffffffffffffffffffff16815260200191505060405180910390f35b341561040e57600080fd5b610416610af6565b6040518082815260200191505060405180910390f35b341561043757600080fd5b61043f610b03565b604051808273ffffffffffffffffffffffffffffffffffffffff1673ffffffffffffffffffffffffffffffffffffffff16815260200191505060405180910390f35b341561048c57600080fd5b6104a26004808035906020019091905050610b28565b604051808273ffffffffffffffffffffffffffffffffffffffff1673ffffffffffffffffffffffffffffffffffffffff16815260200191505060405180910390f35b34156104ef57600080fd5b6105056004808035906020019091905050610b72565b6040518082815260200191505060405180910390f35b341561052657600080fd5b61053c6004808035906020019091905050610b9c565b604051808273ffffffffffffffffffffffffffffffffffffffff1673ffffffffffffffffffffffffffffffffffffffff16815260200191505060405180910390f35b341561058957600080fd5b61059f6004808035906020019091905050610bd2565b6040518082815260200191505060405180910390f35b34156105c057600080fd5b6105ec600480803573ffffffffffffffffffffffffffffffffffffffff16906020019091905050610bff565b005b34156105f957600080fd5b61060f6004808035906020019091905050610d54565b6040518082600f0b600f0b815260200191505060405180910390f35b600080600080600061063b611051565b610643611065565b61064b6110ba565b60008060009054906101000a900473ffffffffffffffffffffffffffffffffffffffff1673ffffffffffffffffffffffffffffffffffffffff163373ffffffffffffffffffffffffffffffffffffffff161415156106a857600080fd5b895197506106b6888b610d8b565b96506106c0610d99565b60ff16880397506106d1888b610da2565b95506106de610100610db0565b880397506106ec888b610dc2565b94506106f86080610dd0565b88039750602060405180591061070b5750595b9080825280601f01601f1916602001820160405250935061072d888b86610fff565b6080604051908101604052803273ffffffffffffffffffffffffffffffffffffffff1681526020013273ffffffffffffffffffffffffffffffffffffffff16815260200142815260200142815250925060a0604051908101604052808873ffffffffffffffffffffffffffffffffffffffff16815260200187815260200186600f0b815260200185815260200184815250915060018080548060010182816107d59190611110565b9160005260206000209060080201600085909190915060008201518160000160006101000a81548173ffffffffffffffffffffffffffffffffffffffff021916908373ffffffffffffffffffffffffffffffffffffffff1602179055506020820151816001015560408201518160020160006101000a8154816fffffffffffffffffffffffffffffffff0219169083600f0b6fffffffffffffffffffffffffffffffff160217905550606082015181600301908051906020019061089a929190611142565b5060808201518160040160008201518160000160006101000a81548173ffffffffffffffffffffffffffffffffffffffff021916908373ffffffffffffffffffffffffffffffffffffffff16021790555060208201518160010160006101000a81548173ffffffffffffffffffffffffffffffffffffffff021916908373ffffffffffffffffffffffffffffffffffffffff1602179055506040820151816002015560608201518160030155505050500390508098505050505050505050919050565b600080600061096a611051565b61097385610b28565b61097c86610b72565b61098587610d54565b61098e886109f8565b93509350935093509193509193565b6000806000806109ac85610b9c565b6109b586610ac0565b6109be876109d6565b6109c788610bd2565b93509350935093509193509193565b60006001828154811015156109e757fe5b906000526020600020905050919050565b610a00611051565b600182815481101515610a0f57fe5b90600052602060002090600802016003018054600181600116156101000203166002900480601f016020809104026020016040519081016040528092919081815260200182805460018160011615610100020316600290048015610ab45780601f10610a8957610100808354040283529160200191610ab4565b820191906000526020600020905b815481529060010190602001808311610a9757829003601f168201915b50505050509050919050565b6000600182815481101515610ad157fe5b906000526020600020906008020160040160010160009054906101000a905050919050565b6000600180549050905090565b6000809054906101000a900473ffffffffffffffffffffffffffffffffffffffff1681565b6000600182815481101515610b3957fe5b906000526020600020906008020160000160009054906101000a900473ffffffffffffffffffffffffffffffffffffffff169050919050565b6000600182815481101515610b8357fe5b9060005260206000209060080201600101549050919050565b6000600182815481101515610bad57fe5b906000526020600020906008020160040160000160009054906101000a905050919050565b6000600182815481101515610be357fe5b9060005260206000209060080201600401600301549050919050565b6000809054906101000a900473ffffffffffffffffffffffffffffffffffffffff1673ffffffffffffffffffffffffffffffffffffffff163373ffffffffffffffffffffffffffffffffffffffff16141515610c5a57600080fd5b600073ffffffffffffffffffffffffffffffffffffffff168173ffffffffffffffffffffffffffffffffffffffff1614151515610c9657600080fd5b8073ffffffffffffffffffffffffffffffffffffffff166000809054906101000a900473ffffffffffffffffffffffffffffffffffffffff1673ffffffffffffffffffffffffffffffffffffffff167f8be0079c531659141344cd1fd0a4f28419497f9722a3daafe3b4186f6b6457e060405160405180910390a3806000806101000a81548173ffffffffffffffffffffffffffffffffffffffff021916908373ffffffffffffffffffffffffffffffffffffffff16021790555050565b6000600182815481101515610d6557fe5b906000526020600020906008020160020160009054906101000a9004600f0b9050919050565b600082820151905092915050565b60006014905090565b600082820151905092915050565b6000610dbb82610dd0565b9050919050565b600082820151905092915050565b60008160088114610edd5760108114610ee65760188114610eef5760208114610ef85760288114610f015760308114610f0a5760388114610f135760408114610f1c5760488114610f255760508114610f2e5760588114610f375760608114610f405760688114610f495760708114610f525760788114610f5b5760808114610f645760888114610f6d5760908114610f765760988114610f7f5760a08114610f885760a88114610f915760b08114610f9a5760b88114610fa35760c08114610fac5760c88114610fb55760d08114610fbe5760d88114610fc75760e08114610fd05760e88114610fd95760f08114610fe25760f88114610feb576101008114610ff45760209150610ff9565b60019150610ff9565b60029150610ff9565b60039150610ff9565b60049150610ff9565b60059150610ff9565b60069150610ff9565b60079150610ff9565b60089150610ff9565b60099150610ff9565b600a9150610ff9565b600b9150610ff9565b600c9150610ff9565b600d9150610ff9565b600e9150610ff9565b600f9150610ff9565b60109150610ff9565b60119150610ff9565b60129150610ff9565b60139150610ff9565b60149150610ff9565b60159150610ff9565b60169150610ff9565b60179150610ff9565b60189150610ff9565b60199150610ff9565b601a9150610ff9565b601b9150610ff9565b601c9150610ff9565b601d9150610ff9565b601e9150610ff9565b601f9150610ff9565b602091505b50919050565b600060209050600080858501519250600160208404019050600060208406111561102a576001810190505b5b858501516020830285015260208603955060018201915080821061102b57505050505050565b602060405190810160405280600081525090565b608060405190810160405280600073ffffffffffffffffffffffffffffffffffffffff168152602001600073ffffffffffffffffffffffffffffffffffffffff16815260200160008152602001600081525090565b61010060405190810160405280600073ffffffffffffffffffffffffffffffffffffffff168152602001600081526020016000600f0b81526020016110fd6111c2565b815260200161110a6111d6565b81525090565b81548183558181151161113d5760080281600802836000526020600020918201910161113c919061122b565b5b505050565b828054600181600116156101000203166002900490600052602060002090601f016020900481019282601f1061118357805160ff19168380011785556111b1565b828001600101855582156111b1579182015b828111156111b0578251825591602001919060010190611195565b5b5090506111be9190611311565b5090565b602060405190810160405280600081525090565b608060405190810160405280600073ffffffffffffffffffffffffffffffffffffffff168152602001600073ffffffffffffffffffffffffffffffffffffffff16815260200160008152602001600081525090565b61130e91905b8082111561130a57600080820160006101000a81549073ffffffffffffffffffffffffffffffffffffffff021916905560018201600090556002820160006101000a8154906fffffffffffffffffffffffffffffffff021916905560038201600061129c9190611336565b60048201600080820160006101000a81549073ffffffffffffffffffffffffffffffffffffffff02191690556001820160006101000a81549073ffffffffffffffffffffffffffffffffffffffff021916905560028201600090556003820160009055505050600801611231565b5090565b90565b61133391905b8082111561132f576000816000905550600101611317565b5090565b90565b50805460018160011615610100020316600290046000825580601f1061135c575061137b565b601f01602090049060005260206000209081019061137a9190611311565b5b505600a165627a7a72305820acf3c34f79bd783ad21c7f408e93c01a52055e8497880b7b4540ca5b04ce2b780029",
  "source": "pragma solidity ^0.4.19;\n\nimport \"zeppelin-solidity/contracts/ownership/Ownable.sol\";\nimport \"../common/seriality/Seriality.sol\";\nimport \"./EntryBase.sol\";\n\n\ncontract EntryCore is EntryBase, Ownable, Seriality {\n\n    struct Entry {\n        address expensiveAddress;\n        uint256 expensiveUint;\n        int128 expensiveInt;\n        string expensiveString;\n\n        EntryMeta metainformation;\n    }\n\n    Entry[] internal entries;\n\n    // event EntryFunded(\n    //     uint entryId,\n    //     address funder\n    // );\n\n    // event EntryFundsClaimed(\n    //     uint entryId,\n    //     address receiver,\n    //     uint amount\n    // );\n\n    function expensiveAddressOf(uint256 _entryId)\n        public\n        view\n        returns (address)\n    {\n        return entries[_entryId].expensiveAddress;\n    }\n\n    function expensiveUintOf(uint256 _entryId)\n        public\n        view\n        returns (uint256)\n    {\n        return entries[_entryId].expensiveUint;\n    }\n\n    function expensiveIntOf(uint256 _entryId)\n        public\n        view\n        returns (int128)\n    {\n        return entries[_entryId].expensiveInt;\n    }\n\n    function expensiveStringOf(uint256 _entryId)\n        public\n        view\n        returns (string)\n    {\n        return entries[_entryId].expensiveString;\n    }\n\n    function entryInfo(uint256 _entryId)\n        public\n        view\n        returns (address, uint256, int128, string)\n    {\n        return (\n            expensiveAddressOf(_entryId),\n            expensiveUintOf(_entryId),\n            expensiveIntOf(_entryId),\n            expensiveStringOf(_entryId)\n        );\n    }\n\n    function entriesAmount()\n        public\n        view\n        returns (uint256)\n    {\n        return entries.length;\n    }\n\n    function createEntry(bytes _serializedParams)\n        public\n        onlyOwner\n        returns (uint256 entryId)\n    {\n        uint offset = _serializedParams.length;\n\n        address _expensiveAddress = bytesToAddress(offset, _serializedParams);\n        offset -= sizeOfAddress();\n\n        uint256 _expensiveUint = bytesToUint256(offset, _serializedParams);\n        offset -= sizeOfUint(256);\n\n        int128 _expensiveInt = bytesToInt128(offset, _serializedParams);\n        offset -= sizeOfInt(128);\n\n        string memory _expensiveString = new string(32);\n        bytesToString(offset, _serializedParams, bytes(_expensiveString));\n\n        EntryMeta memory meta = (EntryMeta(\n        {\n            lastUpdateTime: block.timestamp,\n            createdAt: block.timestamp,\n            owner: tx.origin,\n            creator: tx.origin\n            // currentEntryBalanceETH: 0,\n            // accumulatedOverallEntryETH: 0\n        }));\n\n        Entry memory entry = (Entry(\n        {\n            expensiveAddress: _expensiveAddress,\n            expensiveUint: _expensiveUint,\n            expensiveInt: _expensiveInt,\n            expensiveString: _expensiveString,\n            metainformation: meta\n        }));\n\n        uint256 newEntryId = entries.push(entry) - 1;\n\n        return newEntryId;\n    }\n\n    // function updateEntry(bytes _serializedParams)\n    //     public\n    //     onlyOwner\n    // {\n\n    // }\n\n    function registryOwnerOf(uint256 _entryId)\n        public\n        view\n        returns (address)\n    {\n        entries[_entryId].metainformation.owner;\n    }\n\n    function creatorOf(uint256 _entryId)\n        public\n        view\n        returns (address)\n    {\n        entries[_entryId].metainformation.creator;\n    }\n\n    function createdAtOf(uint256 _entryId)\n        public\n        view\n        returns (uint)\n    {\n        entries[_entryId].metainformation.createdAt;\n    }\n\n    function lastUpdateTimeOf(uint256 _entryId)\n        public\n        view\n        returns (uint)\n    {\n        return entries[_entryId].metainformation.lastUpdateTime;\n    }\n\n}\n",
  "sourcePath": "/Users/litvintech/Projects/chaingear/contracts/registry/EntryCore.sol",
  "compiler": {
    "name": "solc",
    "version": "0.4.19+commit.c4cbbb05.Emscripten.clang"
  },
  "schemaVersion": "1.0.1",
  "updatedAt": "2018-04-18T22:26:09.243Z"
}