{
  "contractName": "EntryCore",
  "abi": [
    {
      "constant": true,
      "inputs": [
        {
          "name": "_entryId",
          "type": "uint256"
        }
      ],
      "name": "entryMeta",
      "outputs": [
        {
          "name": "",
          "type": "address"
        },
        {
          "name": "",
          "type": "address"
        },
        {
          "name": "",
          "type": "uint256"
        },
        {
          "name": "",
          "type": "uint256"
        },
        {
          "name": "",
          "type": "uint256"
        },
        {
          "name": "",
          "type": "uint256"
        }
      ],
      "payable": false,
      "stateMutability": "view",
      "type": "function"
    },
    {
      "constant": true,
      "inputs": [],
      "name": "owner",
      "outputs": [
        {
          "name": "",
          "type": "address"
        }
      ],
      "payable": false,
      "stateMutability": "view",
      "type": "function"
    },
    {
      "constant": false,
      "inputs": [
        {
          "name": "newOwner",
          "type": "address"
        }
      ],
      "name": "transferOwnership",
      "outputs": [],
      "payable": false,
      "stateMutability": "nonpayable",
      "type": "function"
    },
    {
      "anonymous": false,
      "inputs": [
        {
          "indexed": true,
          "name": "previousOwner",
          "type": "address"
        },
        {
          "indexed": true,
          "name": "newOwner",
          "type": "address"
        }
      ],
      "name": "OwnershipTransferred",
      "type": "event"
    },
    {
      "constant": true,
      "inputs": [],
      "name": "entriesAmount",
      "outputs": [
        {
          "name": "entryID",
          "type": "uint256"
        }
      ],
      "payable": false,
      "stateMutability": "view",
      "type": "function"
    },
    {
      "constant": true,
      "inputs": [
        {
          "name": "_entryId",
          "type": "uint256"
        }
      ],
      "name": "expensiveAddressOf",
      "outputs": [
        {
          "name": "",
          "type": "address"
        }
      ],
      "payable": false,
      "stateMutability": "view",
      "type": "function"
    },
    {
      "constant": true,
      "inputs": [
        {
          "name": "_entryId",
          "type": "uint256"
        }
      ],
      "name": "expensiveUintOf",
      "outputs": [
        {
          "name": "",
          "type": "uint256"
        }
      ],
      "payable": false,
      "stateMutability": "view",
      "type": "function"
    },
    {
      "constant": true,
      "inputs": [
        {
          "name": "_entryId",
          "type": "uint256"
        }
      ],
      "name": "expensiveIntOf",
      "outputs": [
        {
          "name": "",
          "type": "int128"
        }
      ],
      "payable": false,
      "stateMutability": "view",
      "type": "function"
    },
    {
      "constant": true,
      "inputs": [
        {
          "name": "_entryId",
          "type": "uint256"
        }
      ],
      "name": "expensiveStringOf",
      "outputs": [
        {
          "name": "",
          "type": "string"
        }
      ],
      "payable": false,
      "stateMutability": "view",
      "type": "function"
    },
    {
      "constant": true,
      "inputs": [
        {
          "name": "_entryId",
          "type": "uint256"
        }
      ],
      "name": "entryInfo",
      "outputs": [
        {
          "name": "",
          "type": "address"
        },
        {
          "name": "",
          "type": "uint256"
        },
        {
          "name": "",
          "type": "int128"
        },
        {
          "name": "",
          "type": "string"
        }
      ],
      "payable": false,
      "stateMutability": "view",
      "type": "function"
    },
    {
      "constant": false,
      "inputs": [],
      "name": "createEntry",
      "outputs": [
        {
          "name": "entryId",
          "type": "uint256"
        }
      ],
      "payable": false,
      "stateMutability": "nonpayable",
      "type": "function"
    },
    {
      "constant": false,
      "inputs": [
        {
          "name": "_entryId",
          "type": "uint256"
        },
        {
          "name": "_newAddress",
          "type": "address"
        },
        {
          "name": "_newUint",
          "type": "uint256"
        },
        {
          "name": "_newInt",
          "type": "int128"
        },
        {
          "name": "_newString",
          "type": "string"
        }
      ],
      "name": "updateEntry",
      "outputs": [],
      "payable": false,
      "stateMutability": "nonpayable",
      "type": "function"
    },
    {
      "constant": false,
      "inputs": [
        {
          "name": "_entryIndex",
          "type": "uint256"
        }
      ],
      "name": "deleteEntry",
      "outputs": [],
      "payable": false,
      "stateMutability": "nonpayable",
      "type": "function"
    },
    {
      "constant": false,
      "inputs": [
        {
          "name": "_entryID",
          "type": "uint256"
        },
        {
          "name": "_newOwner",
          "type": "address"
        }
      ],
      "name": "updateEntryOwnership",
      "outputs": [],
      "payable": false,
      "stateMutability": "nonpayable",
      "type": "function"
    },
    {
      "constant": false,
      "inputs": [
        {
          "name": "_entryID",
          "type": "uint256"
        },
        {
          "name": "_amount",
          "type": "uint256"
        }
      ],
      "name": "updateEntryFund",
      "outputs": [],
      "payable": false,
      "stateMutability": "nonpayable",
      "type": "function"
    },
    {
      "constant": false,
      "inputs": [
        {
          "name": "_entryID",
          "type": "uint256"
        },
        {
          "name": "_amount",
          "type": "uint256"
        }
      ],
      "name": "claimEntryFund",
      "outputs": [],
      "payable": false,
      "stateMutability": "nonpayable",
      "type": "function"
    },
    {
      "constant": true,
      "inputs": [
        {
          "name": "_entryID",
          "type": "uint256"
        }
      ],
      "name": "entryOwnerOf",
      "outputs": [
        {
          "name": "",
          "type": "address"
        }
      ],
      "payable": false,
      "stateMutability": "view",
      "type": "function"
    },
    {
      "constant": true,
      "inputs": [
        {
          "name": "_entryID",
          "type": "uint256"
        }
      ],
      "name": "creatorOf",
      "outputs": [
        {
          "name": "",
          "type": "address"
        }
      ],
      "payable": false,
      "stateMutability": "view",
      "type": "function"
    },
    {
      "constant": true,
      "inputs": [
        {
          "name": "_entryID",
          "type": "uint256"
        }
      ],
      "name": "createdAtOf",
      "outputs": [
        {
          "name": "",
          "type": "uint256"
        }
      ],
      "payable": false,
      "stateMutability": "view",
      "type": "function"
    },
    {
      "constant": true,
      "inputs": [
        {
          "name": "_entryID",
          "type": "uint256"
        }
      ],
      "name": "lastUpdateTimeOf",
      "outputs": [
        {
          "name": "",
          "type": "uint256"
        }
      ],
      "payable": false,
      "stateMutability": "view",
      "type": "function"
    },
    {
      "constant": true,
      "inputs": [
        {
          "name": "_entryID",
          "type": "uint256"
        }
      ],
      "name": "currentEntryBalanceETHOf",
      "outputs": [
        {
          "name": "",
          "type": "uint256"
        }
      ],
      "payable": false,
      "stateMutability": "view",
      "type": "function"
    },
    {
      "constant": true,
      "inputs": [
        {
          "name": "_entryID",
          "type": "uint256"
        }
      ],
      "name": "accumulatedOverallEntryETHOf",
      "outputs": [
        {
          "name": "",
          "type": "uint256"
        }
      ],
      "payable": false,
      "stateMutability": "view",
      "type": "function"
    }
  ],
  "bytecode": "0x6060604052336000806101000a81548173ffffffffffffffffffffffffffffffffffffffff021916908373ffffffffffffffffffffffffffffffffffffffff160217905550611b49806100536000396000f30060606040526004361061011d576000357c0100000000000000000000000000000000000000000000000000000000900463ffffffff16806304c437811461012257806305f7a3901461014b57806311f7516c1461018257806339464884146101a55780634fa5f70414610288578063528510fb1461033a5780635886dc9e14610371578063589a17431461040d5780637899b9f3146104705780638da5cb5b146104995780639689d2d3146104ee578063a427825d14610551578063b08fd8ef14610588578063cb23a981146105bf578063d02ac661146105f6578063d6da323214610622578063dfab882314610685578063e3b54fb6146106c7578063f2fde38b14610761578063fbfd6e411461079a578063fc326266146107c6575b600080fd5b341561012d57600080fd5b610135610803565b6040518082815260200191505060405180910390f35b341561015657600080fd5b61016c6004808035906020019091905050610ad0565b6040518082815260200191505060405180910390f35b341561018d57600080fd5b6101a36004808035906020019091905050610afd565b005b34156101b057600080fd5b6101c66004808035906020019091905050610eaf565b604051808573ffffffffffffffffffffffffffffffffffffffff1673ffffffffffffffffffffffffffffffffffffffff16815260200184815260200183600f0b600f0b815260200180602001828103825283818151815260200191508051906020019080838360005b8381101561024a57808201518184015260208101905061022f565b50505050905090810190601f1680156102775780820380516001836020036101000a031916815260200191505b509550505050505060405180910390f35b341561029357600080fd5b6102a96004808035906020019091905050610eef565b604051808773ffffffffffffffffffffffffffffffffffffffff1673ffffffffffffffffffffffffffffffffffffffff1681526020018673ffffffffffffffffffffffffffffffffffffffff1673ffffffffffffffffffffffffffffffffffffffff168152602001858152602001848152602001838152602001828152602001965050505050505060405180910390f35b341561034557600080fd5b61035b6004808035906020019091905050610f43565b6040518082815260200191505060405180910390f35b341561037c57600080fd5b6103926004808035906020019091905050610f65565b6040518080602001828103825283818151815260200191508051906020019080838360005b838110156103d25780820151818401526020810190506103b7565b50505050905090810190601f1680156103ff5780820380516001836020036101000a031916815260200191505b509250505060405180910390f35b341561041857600080fd5b61042e600480803590602001909190505061102d565b604051808273ffffffffffffffffffffffffffffffffffffffff1673ffffffffffffffffffffffffffffffffffffffff16815260200191505060405180910390f35b341561047b57600080fd5b610483611063565b6040518082815260200191505060405180910390f35b34156104a457600080fd5b6104ac611070565b604051808273ffffffffffffffffffffffffffffffffffffffff1673ffffffffffffffffffffffffffffffffffffffff16815260200191505060405180910390f35b34156104f957600080fd5b61050f6004808035906020019091905050611095565b604051808273ffffffffffffffffffffffffffffffffffffffff1673ffffffffffffffffffffffffffffffffffffffff16815260200191505060405180910390f35b341561055c57600080fd5b61057260048080359060200190919050506110df565b6040518082815260200191505060405180910390f35b341561059357600080fd5b6105a96004808035906020019091905050611109565b6040518082815260200191505060405180910390f35b34156105ca57600080fd5b6105e06004808035906020019091905050611136565b6040518082815260200191505060405180910390f35b341561060157600080fd5b6106206004808035906020019091908035906020019091905050611163565b005b341561062d57600080fd5b61064360048080359060200190919050506111f9565b604051808273ffffffffffffffffffffffffffffffffffffffff1673ffffffffffffffffffffffffffffffffffffffff16815260200191505060405180910390f35b341561069057600080fd5b6106c5600480803590602001909190803573ffffffffffffffffffffffffffffffffffffffff1690602001909190505061122f565b005b34156106d257600080fd5b61075f600480803590602001909190803573ffffffffffffffffffffffffffffffffffffffff16906020019091908035906020019091908035600f0b90602001909190803590602001908201803590602001908080601f016020809104026020016040519081016040528093929190818152602001838380828437820191505050505050919050506112f0565b005b341561076c57600080fd5b610798600480803573ffffffffffffffffffffffffffffffffffffffff16906020019091905050611432565b005b34156107a557600080fd5b6107c46004808035906020019091908035906020019091905050611587565b005b34156107d157600080fd5b6107e7600480803590602001909190505061161d565b6040518082600f0b600f0b815260200191505060405180910390f35b600061080d61168b565b6108156116ee565b60008060009054906101000a900473ffffffffffffffffffffffffffffffffffffffff1673ffffffffffffffffffffffffffffffffffffffff163373ffffffffffffffffffffffffffffffffffffffff1614151561087257600080fd5b60c0604051908101604052803273ffffffffffffffffffffffffffffffffffffffff1681526020013273ffffffffffffffffffffffffffffffffffffffff168152602001428152602001428152602001600081526020016000815250925060a060405190810160405280600073ffffffffffffffffffffffffffffffffffffffff168152602001600081526020016000600f0b815260200160206040519081016040528060008152508152602001848152509150600180805480600101828161093b9190611744565b91600052602060002090600a0201600085909190915060008201518160000160006101000a81548173ffffffffffffffffffffffffffffffffffffffff021916908373ffffffffffffffffffffffffffffffffffffffff1602179055506020820151816001015560408201518160020160006101000a8154816fffffffffffffffffffffffffffffffff0219169083600f0b6fffffffffffffffffffffffffffffffff1602179055506060820151816003019080519060200190610a00929190611776565b5060808201518160040160008201518160000160006101000a81548173ffffffffffffffffffffffffffffffffffffffff021916908373ffffffffffffffffffffffffffffffffffffffff16021790555060208201518160010160006101000a81548173ffffffffffffffffffffffffffffffffffffffff021916908373ffffffffffffffffffffffffffffffffffffffff16021790555060408201518160020155606082015181600301556080820151816004015560a082015181600501555050505003905080935050505090565b6000600182815481101515610ae157fe5b90600052602060002090600a0201600401600501549050919050565b6000806000809054906101000a900473ffffffffffffffffffffffffffffffffffffffff1673ffffffffffffffffffffffffffffffffffffffff163373ffffffffffffffffffffffffffffffffffffffff16141515610b5b57600080fd5b610b736001808054905061165490919063ffffffff16565b9150600182815481101515610b8457fe5b90600052602060002090600a0201905080600184815481101515610ba457fe5b90600052602060002090600a02016000820160009054906101000a900473ffffffffffffffffffffffffffffffffffffffff168160000160006101000a81548173ffffffffffffffffffffffffffffffffffffffff021916908373ffffffffffffffffffffffffffffffffffffffff160217905550600182015481600101556002820160009054906101000a9004600f0b8160020160006101000a8154816fffffffffffffffffffffffffffffffff0219169083600f0b6fffffffffffffffffffffffffffffffff16021790555060038201816003019080546001816001161561010002031660029004610c999291906117f6565b5060048201816004016000820160009054906101000a900473ffffffffffffffffffffffffffffffffffffffff168160000160006101000a81548173ffffffffffffffffffffffffffffffffffffffff021916908373ffffffffffffffffffffffffffffffffffffffff1602179055506001820160009054906101000a900473ffffffffffffffffffffffffffffffffffffffff168160010160006101000a81548173ffffffffffffffffffffffffffffffffffffffff021916908373ffffffffffffffffffffffffffffffffffffffff160217905550600282015481600201556003820154816003015560048201548160040155600582015481600501555050905050600182815481101515610dac57fe5b90600052602060002090600a0201600080820160006101000a81549073ffffffffffffffffffffffffffffffffffffffff021916905560018201600090556002820160006101000a8154906fffffffffffffffffffffffffffffffff0219169055600382016000610e1d919061187d565b60048201600080820160006101000a81549073ffffffffffffffffffffffffffffffffffffffff02191690556001820160006101000a81549073ffffffffffffffffffffffffffffffffffffffff02191690556002820160009055600382016000905560048201600090556005820160009055505050506001805480919060019003610ea991906118c5565b50505050565b6000806000610ebc6118f7565b610ec585611095565b610ece866110df565b610ed78761161d565b610ee088610f65565b93509350935093509193509193565b600080600080600080610f01876111f9565b610f0a8861102d565b610f1389610f43565b610f1c8a611136565b610f258b611109565b610f2e8c610ad0565b95509550955095509550955091939550919395565b6000600182815481101515610f5457fe5b906000526020600020905050919050565b610f6d6118f7565b600182815481101515610f7c57fe5b90600052602060002090600a02016003018054600181600116156101000203166002900480601f0160208091040260200160405190810160405280929190818152602001828054600181600116156101000203166002900480156110215780601f10610ff657610100808354040283529160200191611021565b820191906000526020600020905b81548152906001019060200180831161100457829003601f168201915b50505050509050919050565b600060018281548110151561103e57fe5b90600052602060002090600a020160040160010160009054906101000a905050919050565b6000600180549050905090565b6000809054906101000a900473ffffffffffffffffffffffffffffffffffffffff1681565b60006001828154811015156110a657fe5b90600052602060002090600a020160000160009054906101000a900473ffffffffffffffffffffffffffffffffffffffff169050919050565b60006001828154811015156110f057fe5b90600052602060002090600a0201600101549050919050565b600060018281548110151561111a57fe5b90600052602060002090600a0201600401600401549050919050565b600060018281548110151561114757fe5b90600052602060002090600a0201600401600301549050919050565b6000809054906101000a900473ffffffffffffffffffffffffffffffffffffffff1673ffffffffffffffffffffffffffffffffffffffff163373ffffffffffffffffffffffffffffffffffffffff161415156111be57600080fd5b6111f4816001848154811015156111d157fe5b90600052602060002090600a02016004016004015461165490919063ffffffff16565b505050565b600060018281548110151561120a57fe5b90600052602060002090600a020160040160000160009054906101000a905050919050565b6000809054906101000a900473ffffffffffffffffffffffffffffffffffffffff1673ffffffffffffffffffffffffffffffffffffffff163373ffffffffffffffffffffffffffffffffffffffff1614151561128a57600080fd5b8060018381548110151561129a57fe5b90600052602060002090600a020160040160000160006101000a81548173ffffffffffffffffffffffffffffffffffffffff021916908373ffffffffffffffffffffffffffffffffffffffff1602179055505050565b8360018681548110151561130057fe5b90600052602060002090600a020160000160006101000a81548173ffffffffffffffffffffffffffffffffffffffff021916908373ffffffffffffffffffffffffffffffffffffffff1602179055508260018681548110151561135f57fe5b90600052602060002090600a0201600101819055508160018681548110151561138457fe5b90600052602060002090600a020160020160006101000a8154816fffffffffffffffffffffffffffffffff0219169083600f0b6fffffffffffffffffffffffffffffffff160217905550806001868154811015156113de57fe5b90600052602060002090600a0201600301908051906020019061140292919061190b565b504260018681548110151561141357fe5b90600052602060002090600a0201600401600301819055505050505050565b6000809054906101000a900473ffffffffffffffffffffffffffffffffffffffff1673ffffffffffffffffffffffffffffffffffffffff163373ffffffffffffffffffffffffffffffffffffffff1614151561148d57600080fd5b600073ffffffffffffffffffffffffffffffffffffffff168173ffffffffffffffffffffffffffffffffffffffff16141515156114c957600080fd5b8073ffffffffffffffffffffffffffffffffffffffff166000809054906101000a900473ffffffffffffffffffffffffffffffffffffffff1673ffffffffffffffffffffffffffffffffffffffff167f8be0079c531659141344cd1fd0a4f28419497f9722a3daafe3b4186f6b6457e060405160405180910390a3806000806101000a81548173ffffffffffffffffffffffffffffffffffffffff021916908373ffffffffffffffffffffffffffffffffffffffff16021790555050565b6000809054906101000a900473ffffffffffffffffffffffffffffffffffffffff1673ffffffffffffffffffffffffffffffffffffffff163373ffffffffffffffffffffffffffffffffffffffff161415156115e257600080fd5b611618816001848154811015156115f557fe5b90600052602060002090600a02016004016005015461166d90919063ffffffff16565b505050565b600060018281548110151561162e57fe5b90600052602060002090600a020160020160009054906101000a9004600f0b9050919050565b600082821115151561166257fe5b818303905092915050565b600080828401905083811015151561168157fe5b8091505092915050565b60c060405190810160405280600073ffffffffffffffffffffffffffffffffffffffff168152602001600073ffffffffffffffffffffffffffffffffffffffff168152602001600081526020016000815260200160008152602001600081525090565b61014060405190810160405280600073ffffffffffffffffffffffffffffffffffffffff168152602001600081526020016000600f0b815260200161173161198b565b815260200161173e61199f565b81525090565b81548183558181151161177157600a0281600a0283600052602060002091820191016117709190611a02565b5b505050565b828054600181600116156101000203166002900490600052602060002090601f016020900481019282601f106117b757805160ff19168380011785556117e5565b828001600101855582156117e5579182015b828111156117e45782518255916020019190600101906117c9565b5b5090506117f29190611af8565b5090565b828054600181600116156101000203166002900490600052602060002090601f016020900481019282601f1061182f578054855561186c565b8280016001018555821561186c57600052602060002091601f016020900482015b8281111561186b578254825591600101919060010190611850565b5b5090506118799190611af8565b5090565b50805460018160011615610100020316600290046000825580601f106118a357506118c2565b601f0160209004906000526020600020908101906118c19190611af8565b5b50565b8154818355818115116118f257600a0281600a0283600052602060002091820191016118f19190611a02565b5b505050565b602060405190810160405280600081525090565b828054600181600116156101000203166002900490600052602060002090601f016020900481019282601f1061194c57805160ff191683800117855561197a565b8280016001018555821561197a579182015b8281111561197957825182559160200191906001019061195e565b5b5090506119879190611af8565b5090565b602060405190810160405280600081525090565b60c060405190810160405280600073ffffffffffffffffffffffffffffffffffffffff168152602001600073ffffffffffffffffffffffffffffffffffffffff168152602001600081526020016000815260200160008152602001600081525090565b611af591905b80821115611af157600080820160006101000a81549073ffffffffffffffffffffffffffffffffffffffff021916905560018201600090556002820160006101000a8154906fffffffffffffffffffffffffffffffff0219169055600382016000611a73919061187d565b60048201600080820160006101000a81549073ffffffffffffffffffffffffffffffffffffffff02191690556001820160006101000a81549073ffffffffffffffffffffffffffffffffffffffff02191690556002820160009055600382016000905560048201600090556005820160009055505050600a01611a08565b5090565b90565b611b1a91905b80821115611b16576000816000905550600101611afe565b5090565b905600a165627a7a72305820e4fdf6ef3cf05de462578ce666581bd3a9693120bc1029833223a558e035f1550029",
  "source": "pragma solidity ^0.4.19;\n\nimport \"zeppelin-solidity/contracts/math/SafeMath.sol\";\nimport \"zeppelin-solidity/contracts/ownership/Ownable.sol\";\nimport \"./EntryBase.sol\";\n\n\ncontract EntryCore is EntryBase, Ownable {\n\n    using SafeMath for uint256;\n\n    struct Entry {\n        address expensiveAddress;\n        uint256 expensiveUint;\n        int128 expensiveInt;\n        string expensiveString;\n\n        EntryMeta metainformation;\n    }\n\n    Entry[] internal entries;\n\n    modifier onlyEntryOwner(uint256 _entryId) {\n        require(entries[_entryId].metainformation.owner == msg.sender);\n        _;\n    }\n\n    function entriesAmount()\n        public\n        view\n        returns (uint256 entryID)\n    {\n        return entries.length;\n    }\n\n    function expensiveAddressOf(uint256 _entryId)\n        public\n        view\n        returns (address)\n    {\n        return entries[_entryId].expensiveAddress;\n    }\n\n    function expensiveUintOf(uint256 _entryId)\n        public\n        view\n        returns (uint256)\n    {\n        return entries[_entryId].expensiveUint;\n    }\n\n    function expensiveIntOf(uint256 _entryId)\n        public\n        view\n        returns (int128)\n    {\n        return entries[_entryId].expensiveInt;\n    }\n\n    function expensiveStringOf(uint256 _entryId)\n        public\n        view\n        returns (string)\n    {\n        return entries[_entryId].expensiveString;\n    }\n\n    function entryInfo(uint256 _entryId)\n        public\n        view\n        returns (address, uint256, int128, string)\n    {\n        return (\n            expensiveAddressOf(_entryId),\n            expensiveUintOf(_entryId),\n            expensiveIntOf(_entryId),\n            expensiveStringOf(_entryId)\n        );\n    }\n\n    function createEntry()\n        public\n        onlyOwner\n        returns (uint256 entryId)\n    {\n        EntryMeta memory meta = (EntryMeta(\n        {\n            lastUpdateTime: block.timestamp,\n            createdAt: block.timestamp,\n            owner: tx.origin,\n            creator: tx.origin,\n            currentEntryBalanceETH: 0,\n            accumulatedOverallEntryETH: 0\n        }));\n\n        Entry memory entry = (Entry(\n        {\n            expensiveAddress: address(0),\n            expensiveUint: uint256(0),\n            expensiveInt: int128(0),\n            expensiveString: \"\",\n            metainformation: meta\n        }));\n\n        uint256 newEntryId = entries.push(entry) - 1;\n\n        return newEntryId;\n    }\n\n    function updateEntry(uint256 _entryId, address _newAddress, uint256 _newUint, int128 _newInt, string _newString)\n        /* onlyEntryOwner(_entryId) */\n        public\n    {\n        entries[_entryId].expensiveAddress = _newAddress;\n        entries[_entryId].expensiveUint = _newUint;\n        entries[_entryId].expensiveInt = _newInt;\n        entries[_entryId].expensiveString = _newString;\n\n        entries[_entryId].metainformation.lastUpdateTime = block.timestamp;\n    }\n\n    function deleteEntry(uint256 _entryIndex)\n        onlyOwner\n        public\n    {\n        uint256 lastEntryIndex = entries.length.sub(1);\n        Entry storage lastEntry = entries[lastEntryIndex];\n\n        entries[_entryIndex] = lastEntry;\n        delete entries[lastEntryIndex];\n        entries.length--;\n    }\n\n    function updateEntryOwnership(uint256 _entryID, address _newOwner)\n        onlyOwner\n        public\n    {\n        entries[_entryID].metainformation.owner = _newOwner;\n    }\n\n    function updateEntryFund(uint256 _entryID, uint256 _amount)\n        onlyOwner\n        public\n    {\n        entries[_entryID].metainformation.accumulatedOverallEntryETH.add(_amount);\n    }\n\n    function claimEntryFund(uint256 _entryID, uint256 _amount)\n        onlyOwner\n        public\n    {\n        entries[_entryID].metainformation.currentEntryBalanceETH.sub(_amount);\n    }\n\n    function entryOwnerOf(uint256 _entryID)\n        public\n        view\n        returns (address)\n    {\n        entries[_entryID].metainformation.owner;\n    }\n\n    function creatorOf(uint256 _entryID)\n        public\n        view\n        returns (address)\n    {\n        entries[_entryID].metainformation.creator;\n    }\n\n    function createdAtOf(uint256 _entryID)\n        public\n        view\n        returns (uint)\n    {\n        entries[_entryID].metainformation.createdAt;\n    }\n\n    function lastUpdateTimeOf(uint256 _entryID)\n        public\n        view\n        returns (uint)\n    {\n        return entries[_entryID].metainformation.lastUpdateTime;\n    }\n\n    function currentEntryBalanceETHOf(uint256 _entryID)\n        public\n        view\n        returns (uint)\n    {\n        return entries[_entryID].metainformation.currentEntryBalanceETH;\n    }\n\n    function accumulatedOverallEntryETHOf(uint256 _entryID)\n        public\n        view\n        returns (uint)\n    {\n        return entries[_entryID].metainformation.accumulatedOverallEntryETH;\n    }\n\n}\n",
  "sourcePath": "/Users/litvintech/Projects/chaingear/contracts/registry/EntryCore.sol",
  "compiler": {
    "name": "solc",
    "version": "0.4.19+commit.c4cbbb05.Emscripten.clang"
  },
  "schemaVersion": "1.0.1",
  "updatedAt": "2018-04-24T06:19:11.597Z"
}