{
  "contractName": "EntryBase",
  "abi": [
    {
      "anonymous": false,
      "inputs": [
        {
          "indexed": false,
          "name": "creator",
          "type": "address"
        },
        {
          "indexed": false,
          "name": "entryId",
          "type": "uint256"
        }
      ],
      "name": "EntryCreated",
      "type": "event"
    },
    {
      "anonymous": false,
      "inputs": [
        {
          "indexed": false,
          "name": "owner",
          "type": "address"
        },
        {
          "indexed": false,
          "name": "entryId",
          "type": "uint256"
        }
      ],
      "name": "EntryUpdated",
      "type": "event"
    },
    {
      "anonymous": false,
      "inputs": [
        {
          "indexed": false,
          "name": "entryId",
          "type": "uint256"
        },
        {
          "indexed": false,
          "name": "newOwner",
          "type": "address"
        }
      ],
      "name": "EntryChangedOwner",
      "type": "event"
    },
    {
      "anonymous": false,
      "inputs": [
        {
          "indexed": false,
          "name": "owner",
          "type": "address"
        },
        {
          "indexed": false,
          "name": "entryId",
          "type": "uint256"
        }
      ],
      "name": "EntryDeleted",
      "type": "event"
    },
    {
      "constant": true,
      "inputs": [
        {
          "name": "_entryId",
          "type": "uint256"
        }
      ],
      "name": "expensiveAddressOf",
      "outputs": [
        {
          "name": "",
          "type": "address"
        }
      ],
      "payable": false,
      "stateMutability": "view",
      "type": "function"
    },
    {
      "constant": true,
      "inputs": [
        {
          "name": "_entryId",
          "type": "uint256"
        }
      ],
      "name": "expensiveUintOf",
      "outputs": [
        {
          "name": "",
          "type": "uint256"
        }
      ],
      "payable": false,
      "stateMutability": "view",
      "type": "function"
    },
    {
      "constant": true,
      "inputs": [
        {
          "name": "_entryId",
          "type": "uint256"
        }
      ],
      "name": "expensiveIntOf",
      "outputs": [
        {
          "name": "",
          "type": "int256"
        }
      ],
      "payable": false,
      "stateMutability": "view",
      "type": "function"
    },
    {
      "constant": true,
      "inputs": [
        {
          "name": "_entryId",
          "type": "uint256"
        }
      ],
      "name": "expensiveStringOf",
      "outputs": [
        {
          "name": "",
          "type": "string"
        }
      ],
      "payable": false,
      "stateMutability": "view",
      "type": "function"
    },
    {
      "constant": true,
      "inputs": [
        {
          "name": "_entryId",
          "type": "uint256"
        }
      ],
      "name": "lastUpdateTimeOf",
      "outputs": [
        {
          "name": "",
          "type": "uint256"
        }
      ],
      "payable": false,
      "stateMutability": "view",
      "type": "function"
    },
    {
      "constant": true,
      "inputs": [
        {
          "name": "_entryId",
          "type": "uint256"
        }
      ],
      "name": "entryInfo",
      "outputs": [
        {
          "name": "",
          "type": "address"
        },
        {
          "name": "",
          "type": "uint256"
        },
        {
          "name": "",
          "type": "int256"
        },
        {
          "name": "",
          "type": "string"
        },
        {
          "name": "",
          "type": "uint256"
        }
      ],
      "payable": false,
      "stateMutability": "view",
      "type": "function"
    },
    {
      "constant": true,
      "inputs": [],
      "name": "entriesAmount",
      "outputs": [
        {
          "name": "",
          "type": "uint256"
        }
      ],
      "payable": false,
      "stateMutability": "view",
      "type": "function"
    }
  ],
  "bytecode": "0x6060604052341561000f57600080fd5b6105608061001e6000396000f300606060405260043610610083576000357c0100000000000000000000000000000000000000000000000000000000900463ffffffff16806339464884146100885780635886dc9e1461016c5780637899b9f3146102085780639689d2d314610231578063a427825d14610294578063cb23a981146102cb578063fc32626614610302575b600080fd5b341561009357600080fd5b6100a96004808035906020019091905050610339565b604051808673ffffffffffffffffffffffffffffffffffffffff1673ffffffffffffffffffffffffffffffffffffffff16815260200185815260200184815260200180602001838152602001828103825284818151815260200191508051906020019080838360005b8381101561012d578082015181840152602081019050610112565b50505050905090810190601f16801561015a5780820380516001836020036101000a031916815260200191505b50965050505050505060405180910390f35b341561017757600080fd5b61018d6004808035906020019091905050610388565b6040518080602001828103825283818151815260200191508051906020019080838360005b838110156101cd5780820151818401526020810190506101b2565b50505050905090810190601f1680156101fa5780820380516001836020036101000a031916815260200191505b509250505060405180910390f35b341561021357600080fd5b61021b610450565b6040518082815260200191505060405180910390f35b341561023c57600080fd5b610252600480803590602001909190505061045c565b604051808273ffffffffffffffffffffffffffffffffffffffff1673ffffffffffffffffffffffffffffffffffffffff16815260200191505060405180910390f35b341561029f57600080fd5b6102b560048080359060200190919050506104a5565b6040518082815260200191505060405180910390f35b34156102d657600080fd5b6102ec60048080359060200190919050506104ce565b6040518082815260200191505060405180910390f35b341561030d57600080fd5b61032360048080359060200190919050506104f7565b6040518082815260200191505060405180910390f35b6000806000610346610520565b60006103518661045c565b61035a876104a5565b610363886104f7565b61036c89610388565b6103758a6104ce565b9450945094509450945091939590929450565b610390610520565b60008281548110151561039f57fe5b90600052602060002090600602016003018054600181600116156101000203166002900480601f0160208091040260200160405190810160405280929190818152602001828054600181600116156101000203166002900480156104445780601f1061041957610100808354040283529160200191610444565b820191906000526020600020905b81548152906001019060200180831161042757829003601f168201915b50505050509050919050565b60008080549050905090565b6000808281548110151561046c57fe5b906000526020600020906006020160000160009054906101000a900473ffffffffffffffffffffffffffffffffffffffff169050919050565b600080828154811015156104b557fe5b9060005260206000209060060201600101549050919050565b600080828154811015156104de57fe5b9060005260206000209060060201600501549050919050565b6000808281548110151561050757fe5b9060005260206000209060060201600201549050919050565b6020604051908101604052806000815250905600a165627a7a72305820c06c134f116c24e1dfcac4cba5376037c9480f6702c227a9598d6a400de1220a0029",
  "source": "pragma solidity ^0.4.18;\n\n\ncontract EntryBase {\n\n    struct Entry {\n        address expensiveAddress;\n        uint expensiveUint;\n        int expensiveInt;\n        string expensiveString;\n\n        //inbox fields\n        address owner;\n        uint lastUpdateTime;\n    }\n\n    Entry[] internal entries;\n\n    event EntryCreated(\n        address creator,\n        uint entryId\n    );\n\n    event EntryUpdated(\n        address owner,\n        uint entryId\n    );\n\n    event EntryChangedOwner(\n        uint entryId,\n        address newOwner\n    );\n\n    event EntryDeleted(\n        address owner,\n        uint entryId\n    );\n\n    /* struct EntryMeta {\n       address creator;\n       uint createdAt;\n       uint lastUpdateTime;\n       uint currentEntryBalanceETH;\n       uint accumulatedOverallEntryEth;\n    }\n\n    EntryMeta[] entriesMeta;\n    mapping (uint256 => EntryMeta) entriesMetaIndex; */\n\n    function expensiveAddressOf(uint256 _entryId)\n        public\n        view\n        returns (address)\n    {\n        return entries[_entryId].expensiveAddress;\n    }\n\n    function expensiveUintOf(uint256 _entryId)\n        public\n        view\n        returns (uint)\n    {\n        return entries[_entryId].expensiveUint;\n    }\n\n    function expensiveIntOf(uint256 _entryId)\n        public\n        view\n        returns (int)\n    {\n        return entries[_entryId].expensiveInt;\n    }\n\n    function expensiveStringOf(uint256 _entryId)\n        public\n        view\n        returns (string)\n    {\n        return entries[_entryId].expensiveString;\n    }\n\n    function lastUpdateTimeOf(uint256 _entryId)\n        public\n        view\n        returns (uint)\n    {\n        return entries[_entryId].lastUpdateTime;\n    }\n\n    function entryInfo(uint256 _entryId)\n        public\n        view\n        returns (address, uint, int, string, uint)\n    {\n        return (\n            expensiveAddressOf(_entryId),\n            expensiveUintOf(_entryId),\n            expensiveIntOf(_entryId),\n            expensiveStringOf(_entryId),\n            lastUpdateTimeOf(_entryId)\n        );\n    }\n\n    function entriesAmount()\n        public\n        view\n        returns (uint256)\n    {\n        return entries.length;\n    }\n\n}\n",
  "sourcePath": "/Users/litvintech/Projects/chaingear/contracts/registry/EntryBase.sol",
  "compiler": {
    "name": "solc",
    "version": "0.4.19+commit.c4cbbb05.Emscripten.clang"
  },
  "schemaVersion": "1.0.1",
  "updatedAt": "2018-04-13T15:34:57.411Z"
}