{
  "contractName": "IPFSeable",
  "abi": [
    {
      "constant": true,
      "inputs": [],
      "name": "linkSourceCode_",
      "outputs": [
        {
          "name": "",
          "type": "string"
        }
      ],
      "payable": false,
      "stateMutability": "view",
      "type": "function"
    },
    {
      "constant": true,
      "inputs": [],
      "name": "linkMeta_",
      "outputs": [
        {
          "name": "",
          "type": "string"
        }
      ],
      "payable": false,
      "stateMutability": "view",
      "type": "function"
    },
    {
      "constant": true,
      "inputs": [],
      "name": "owner",
      "outputs": [
        {
          "name": "",
          "type": "address"
        }
      ],
      "payable": false,
      "stateMutability": "view",
      "type": "function"
    },
    {
      "constant": true,
      "inputs": [],
      "name": "linkABI_",
      "outputs": [
        {
          "name": "",
          "type": "string"
        }
      ],
      "payable": false,
      "stateMutability": "view",
      "type": "function"
    },
    {
      "constant": false,
      "inputs": [
        {
          "name": "newOwner",
          "type": "address"
        }
      ],
      "name": "transferOwnership",
      "outputs": [],
      "payable": false,
      "stateMutability": "nonpayable",
      "type": "function"
    },
    {
      "anonymous": false,
      "inputs": [
        {
          "indexed": false,
          "name": "linkMeta",
          "type": "string"
        }
      ],
      "name": "MetaLinkUpdated",
      "type": "event"
    },
    {
      "anonymous": false,
      "inputs": [
        {
          "indexed": false,
          "name": "linkABI",
          "type": "string"
        }
      ],
      "name": "ABILinkUpdated",
      "type": "event"
    },
    {
      "anonymous": false,
      "inputs": [
        {
          "indexed": false,
          "name": "linkSource",
          "type": "string"
        }
      ],
      "name": "SourceLinkUpdated",
      "type": "event"
    },
    {
      "anonymous": false,
      "inputs": [
        {
          "indexed": true,
          "name": "previousOwner",
          "type": "address"
        },
        {
          "indexed": true,
          "name": "newOwner",
          "type": "address"
        }
      ],
      "name": "OwnershipTransferred",
      "type": "event"
    },
    {
      "constant": false,
      "inputs": [
        {
          "name": "_linkABI",
          "type": "string"
        }
      ],
      "name": "updateABILink",
      "outputs": [],
      "payable": false,
      "stateMutability": "nonpayable",
      "type": "function"
    },
    {
      "constant": false,
      "inputs": [
        {
          "name": "_linkMeta",
          "type": "string"
        }
      ],
      "name": "updateMetaLink",
      "outputs": [],
      "payable": false,
      "stateMutability": "nonpayable",
      "type": "function"
    },
    {
      "constant": false,
      "inputs": [
        {
          "name": "_linkSourceCode",
          "type": "string"
        }
      ],
      "name": "updateSourceLink",
      "outputs": [],
      "payable": false,
      "stateMutability": "nonpayable",
      "type": "function"
    }
  ],
  "bytecode": "0x6060604052336000806101000a81548173ffffffffffffffffffffffffffffffffffffffff021916908373ffffffffffffffffffffffffffffffffffffffff1602179055506109c0806100536000396000f30060606040526004361061008e576000357c0100000000000000000000000000000000000000000000000000000000900463ffffffff1680630f6a2ad51461009357806312a8cad4146100c1578063505b13901461014f5780638aed4b63146101dd5780638da5cb5b1461020b578063acab3bd514610260578063e16f48f21461028e578063f2fde38b1461031c575b600080fd5b341561009e57600080fd5b6100bf60048080359060200190820180359060200191909192905050610355565b005b34156100cc57600080fd5b6100d4610417565b6040518080602001828103825283818151815260200191508051906020019080838360005b838110156101145780820151818401526020810190506100f9565b50505050905090810190601f1680156101415780820380516001836020036101000a031916815260200191505b509250505060405180910390f35b341561015a57600080fd5b6101626104b5565b6040518080602001828103825283818151815260200191508051906020019080838360005b838110156101a2578082015181840152602081019050610187565b50505050905090810190601f1680156101cf5780820380516001836020036101000a031916815260200191505b509250505060405180910390f35b34156101e857600080fd5b61020960048080359060200190820180359060200191909192905050610553565b005b341561021657600080fd5b61021e610615565b604051808273ffffffffffffffffffffffffffffffffffffffff1673ffffffffffffffffffffffffffffffffffffffff16815260200191505060405180910390f35b341561026b57600080fd5b61028c6004808035906020019082018035906020019190919290505061063a565b005b341561029957600080fd5b6102a16106fc565b6040518080602001828103825283818151815260200191508051906020019080838360005b838110156102e15780820151818401526020810190506102c6565b50505050905090810190601f16801561030e5780820380516001836020036101000a031916815260200191505b509250505060405180910390f35b341561032757600080fd5b610353600480803573ffffffffffffffffffffffffffffffffffffffff1690602001909190505061079a565b005b6000809054906101000a900473ffffffffffffffffffffffffffffffffffffffff1673ffffffffffffffffffffffffffffffffffffffff163373ffffffffffffffffffffffffffffffffffffffff161415156103b057600080fd5b8181600391906103c19291906108ef565b507fcfaf57d92b1b2684731a770c593d162587ca98e9d372be876ab14b389866f0f68282604051808060200182810382528484828181526020019250808284378201915050935050505060405180910390a15050565b60038054600181600116156101000203166002900480601f0160208091040260200160405190810160405280929190818152602001828054600181600116156101000203166002900480156104ad5780601f10610482576101008083540402835291602001916104ad565b820191906000526020600020905b81548152906001019060200180831161049057829003601f168201915b505050505081565b60028054600181600116156101000203166002900480601f01602080910402602001604051908101604052809291908181526020018280546001816001161561010002031660029004801561054b5780601f106105205761010080835404028352916020019161054b565b820191906000526020600020905b81548152906001019060200180831161052e57829003601f168201915b505050505081565b6000809054906101000a900473ffffffffffffffffffffffffffffffffffffffff1673ffffffffffffffffffffffffffffffffffffffff163373ffffffffffffffffffffffffffffffffffffffff161415156105ae57600080fd5b8181600291906105bf9291906108ef565b507f6362a59ae98fef1a0a45d03a1127a82c2268ca380148117a052b9f8bce8e6f1e8282604051808060200182810382528484828181526020019250808284378201915050935050505060405180910390a15050565b6000809054906101000a900473ffffffffffffffffffffffffffffffffffffffff1681565b6000809054906101000a900473ffffffffffffffffffffffffffffffffffffffff1673ffffffffffffffffffffffffffffffffffffffff163373ffffffffffffffffffffffffffffffffffffffff1614151561069557600080fd5b8181600191906106a69291906108ef565b507f97bc322e754962c4ff23eb8a9d58b147ead5be0347d9a799addc5a2d44564cbe8282604051808060200182810382528484828181526020019250808284378201915050935050505060405180910390a15050565b60018054600181600116156101000203166002900480601f0160208091040260200160405190810160405280929190818152602001828054600181600116156101000203166002900480156107925780601f1061076757610100808354040283529160200191610792565b820191906000526020600020905b81548152906001019060200180831161077557829003601f168201915b505050505081565b6000809054906101000a900473ffffffffffffffffffffffffffffffffffffffff1673ffffffffffffffffffffffffffffffffffffffff163373ffffffffffffffffffffffffffffffffffffffff161415156107f557600080fd5b600073ffffffffffffffffffffffffffffffffffffffff168173ffffffffffffffffffffffffffffffffffffffff161415151561083157600080fd5b8073ffffffffffffffffffffffffffffffffffffffff166000809054906101000a900473ffffffffffffffffffffffffffffffffffffffff1673ffffffffffffffffffffffffffffffffffffffff167f8be0079c531659141344cd1fd0a4f28419497f9722a3daafe3b4186f6b6457e060405160405180910390a3806000806101000a81548173ffffffffffffffffffffffffffffffffffffffff021916908373ffffffffffffffffffffffffffffffffffffffff16021790555050565b828054600181600116156101000203166002900490600052602060002090601f016020900481019282601f1061093057803560ff191683800117855561095e565b8280016001018555821561095e579182015b8281111561095d578235825591602001919060010190610942565b5b50905061096b919061096f565b5090565b61099191905b8082111561098d576000816000905550600101610975565b5090565b905600a165627a7a72305820be570e81b512e0b2f8df69fbae8f9a32fa55e27334473aa0bd4ffb0f85a028ba0029",
  "source": "pragma solidity ^0.4.18;\n\nimport \"zeppelin-solidity/contracts/ownership/Ownable.sol\";\n\n\ncontract IPFSeable is Ownable {\n\n    string public linkABI_;\n    string public linkMeta_;\n    string public linkSourceCode_;\n\n    event MetaLinkUpdated (string linkMeta);\n    event ABILinkUpdated (string linkABI);\n    event SourceLinkUpdated (string linkSource);\n\n    function updateABILink(string _linkABI) external onlyOwner {\n        linkABI_ = _linkABI;\n        ABILinkUpdated(_linkABI);\n    }\n\n    function updateMetaLink(string _linkMeta) external onlyOwner {\n        linkMeta_ = _linkMeta;\n        MetaLinkUpdated(_linkMeta);\n    }\n\n    function updateSourceLink(string _linkSourceCode) external onlyOwner {\n        linkSourceCode_ = _linkSourceCode;\n        SourceLinkUpdated(_linkSourceCode);\n    }\n}\n",
  "sourcePath": "/Users/litvintech/Projects/chaingear/contracts/common/IPFSeable.sol",
  "compiler": {
    "name": "solc",
    "version": "0.4.19+commit.c4cbbb05.Emscripten.clang"
  },
  "schemaVersion": "1.0.1",
  "updatedAt": "2018-04-06T10:18:16.483Z"
}