{
  "contractName": "Registry",
  "abi": [
    {
      "constant": true,
      "inputs": [],
      "name": "creator",
      "outputs": [
        {
          "name": "",
          "type": "address"
        }
      ],
      "payable": false,
      "stateMutability": "view",
      "type": "function"
    },
    {
      "constant": true,
      "inputs": [],
      "name": "name",
      "outputs": [
        {
          "name": "",
          "type": "string"
        }
      ],
      "payable": false,
      "stateMutability": "view",
      "type": "function"
    },
    {
      "constant": true,
      "inputs": [],
      "name": "linkSourceCode",
      "outputs": [
        {
          "name": "",
          "type": "string"
        }
      ],
      "payable": false,
      "stateMutability": "view",
      "type": "function"
    },
    {
      "constant": true,
      "inputs": [
        {
          "name": "_tokenId",
          "type": "uint256"
        }
      ],
      "name": "getApproved",
      "outputs": [
        {
          "name": "",
          "type": "address"
        }
      ],
      "payable": false,
      "stateMutability": "view",
      "type": "function"
    },
    {
      "constant": false,
      "inputs": [
        {
          "name": "_to",
          "type": "address"
        },
        {
          "name": "_tokenId",
          "type": "uint256"
        }
      ],
      "name": "approve",
      "outputs": [],
      "payable": false,
      "stateMutability": "nonpayable",
      "type": "function"
    },
    {
      "constant": true,
      "inputs": [],
      "name": "registryName",
      "outputs": [
        {
          "name": "",
          "type": "string"
        }
      ],
      "payable": false,
      "stateMutability": "view",
      "type": "function"
    },
    {
      "constant": true,
      "inputs": [],
      "name": "totalSupply",
      "outputs": [
        {
          "name": "",
          "type": "uint256"
        }
      ],
      "payable": false,
      "stateMutability": "view",
      "type": "function"
    },
    {
      "constant": false,
      "inputs": [
        {
          "name": "_tag",
          "type": "bytes32"
        }
      ],
      "name": "addRegistryTag",
      "outputs": [],
      "payable": false,
      "stateMutability": "nonpayable",
      "type": "function"
    },
    {
      "constant": false,
      "inputs": [
        {
          "name": "_from",
          "type": "address"
        },
        {
          "name": "_to",
          "type": "address"
        },
        {
          "name": "_tokenId",
          "type": "uint256"
        }
      ],
      "name": "transferFrom",
      "outputs": [],
      "payable": false,
      "stateMutability": "nonpayable",
      "type": "function"
    },
    {
      "constant": false,
      "inputs": [
        {
          "name": "_permissionTypeEntries",
          "type": "uint256"
        }
      ],
      "name": "updatePermissionTypeEntries",
      "outputs": [],
      "payable": false,
      "stateMutability": "nonpayable",
      "type": "function"
    },
    {
      "constant": true,
      "inputs": [
        {
          "name": "_owner",
          "type": "address"
        },
        {
          "name": "_index",
          "type": "uint256"
        }
      ],
      "name": "tokenOfOwnerByIndex",
      "outputs": [
        {
          "name": "",
          "type": "uint256"
        }
      ],
      "payable": false,
      "stateMutability": "view",
      "type": "function"
    },
    {
      "constant": true,
      "inputs": [],
      "name": "permissionsTypeEntries",
      "outputs": [
        {
          "name": "",
          "type": "uint8"
        }
      ],
      "payable": false,
      "stateMutability": "view",
      "type": "function"
    },
    {
      "constant": true,
      "inputs": [],
      "name": "entryCreationFee",
      "outputs": [
        {
          "name": "",
          "type": "uint256"
        }
      ],
      "payable": false,
      "stateMutability": "view",
      "type": "function"
    },
    {
      "constant": true,
      "inputs": [],
      "name": "totalShares",
      "outputs": [
        {
          "name": "",
          "type": "uint256"
        }
      ],
      "payable": false,
      "stateMutability": "view",
      "type": "function"
    },
    {
      "constant": true,
      "inputs": [],
      "name": "registryDescription",
      "outputs": [
        {
          "name": "",
          "type": "string"
        }
      ],
      "payable": false,
      "stateMutability": "view",
      "type": "function"
    },
    {
      "constant": false,
      "inputs": [
        {
          "name": "_from",
          "type": "address"
        },
        {
          "name": "_to",
          "type": "address"
        },
        {
          "name": "_tokenId",
          "type": "uint256"
        }
      ],
      "name": "safeTransferFrom",
      "outputs": [],
      "payable": false,
      "stateMutability": "nonpayable",
      "type": "function"
    },
    {
      "constant": false,
      "inputs": [
        {
          "name": "_linkABI",
          "type": "string"
        }
      ],
      "name": "setABILink",
      "outputs": [],
      "payable": false,
      "stateMutability": "nonpayable",
      "type": "function"
    },
    {
      "constant": true,
      "inputs": [],
      "name": "linkMeta",
      "outputs": [
        {
          "name": "",
          "type": "string"
        }
      ],
      "payable": false,
      "stateMutability": "view",
      "type": "function"
    },
    {
      "constant": false,
      "inputs": [],
      "name": "claim",
      "outputs": [],
      "payable": false,
      "stateMutability": "nonpayable",
      "type": "function"
    },
    {
      "constant": true,
      "inputs": [
        {
          "name": "_tokenId",
          "type": "uint256"
        }
      ],
      "name": "exists",
      "outputs": [
        {
          "name": "",
          "type": "bool"
        }
      ],
      "payable": false,
      "stateMutability": "view",
      "type": "function"
    },
    {
      "constant": true,
      "inputs": [
        {
          "name": "_index",
          "type": "uint256"
        }
      ],
      "name": "tokenByIndex",
      "outputs": [
        {
          "name": "",
          "type": "uint256"
        }
      ],
      "payable": false,
      "stateMutability": "view",
      "type": "function"
    },
    {
      "constant": true,
      "inputs": [
        {
          "name": "",
          "type": "uint256"
        }
      ],
      "name": "payees",
      "outputs": [
        {
          "name": "",
          "type": "address"
        }
      ],
      "payable": false,
      "stateMutability": "view",
      "type": "function"
    },
    {
      "constant": true,
      "inputs": [
        {
          "name": "_tokenId",
          "type": "uint256"
        }
      ],
      "name": "ownerOf",
      "outputs": [
        {
          "name": "",
          "type": "address"
        }
      ],
      "payable": false,
      "stateMutability": "view",
      "type": "function"
    },
    {
      "constant": true,
      "inputs": [],
      "name": "registryBalance",
      "outputs": [
        {
          "name": "",
          "type": "uint256"
        }
      ],
      "payable": false,
      "stateMutability": "view",
      "type": "function"
    },
    {
      "constant": false,
      "inputs": [
        {
          "name": "_linkMeta",
          "type": "string"
        }
      ],
      "name": "setMetaLink",
      "outputs": [],
      "payable": false,
      "stateMutability": "nonpayable",
      "type": "function"
    },
    {
      "constant": true,
      "inputs": [
        {
          "name": "_owner",
          "type": "address"
        }
      ],
      "name": "balanceOf",
      "outputs": [
        {
          "name": "",
          "type": "uint256"
        }
      ],
      "payable": false,
      "stateMutability": "view",
      "type": "function"
    },
    {
      "constant": false,
      "inputs": [
        {
          "name": "_payeeIndex",
          "type": "uint256"
        },
        {
          "name": "_newAddress",
          "type": "address"
        }
      ],
      "name": "changePayeeAddress",
      "outputs": [],
      "payable": false,
      "stateMutability": "nonpayable",
      "type": "function"
    },
    {
      "constant": false,
      "inputs": [],
      "name": "destroy",
      "outputs": [],
      "payable": false,
      "stateMutability": "nonpayable",
      "type": "function"
    },
    {
      "constant": false,
      "inputs": [
        {
          "name": "_linkSourceCode",
          "type": "string"
        }
      ],
      "name": "setSourceLink",
      "outputs": [],
      "payable": false,
      "stateMutability": "nonpayable",
      "type": "function"
    },
    {
      "constant": true,
      "inputs": [],
      "name": "owner",
      "outputs": [
        {
          "name": "",
          "type": "address"
        }
      ],
      "payable": false,
      "stateMutability": "view",
      "type": "function"
    },
    {
      "constant": true,
      "inputs": [],
      "name": "symbol",
      "outputs": [
        {
          "name": "",
          "type": "string"
        }
      ],
      "payable": false,
      "stateMutability": "view",
      "type": "function"
    },
    {
      "constant": true,
      "inputs": [
        {
          "name": "",
          "type": "address"
        }
      ],
      "name": "released",
      "outputs": [
        {
          "name": "",
          "type": "uint256"
        }
      ],
      "payable": false,
      "stateMutability": "view",
      "type": "function"
    },
    {
      "constant": true,
      "inputs": [],
      "name": "linkABI",
      "outputs": [
        {
          "name": "",
          "type": "string"
        }
      ],
      "payable": false,
      "stateMutability": "view",
      "type": "function"
    },
    {
      "constant": false,
      "inputs": [
        {
          "name": "_registryDescription",
          "type": "string"
        }
      ],
      "name": "updateRegistryDescription",
      "outputs": [],
      "payable": false,
      "stateMutability": "nonpayable",
      "type": "function"
    },
    {
      "constant": false,
      "inputs": [
        {
          "name": "_to",
          "type": "address"
        },
        {
          "name": "_approved",
          "type": "bool"
        }
      ],
      "name": "setApprovalForAll",
      "outputs": [],
      "payable": false,
      "stateMutability": "nonpayable",
      "type": "function"
    },
    {
      "constant": false,
      "inputs": [
        {
          "name": "_from",
          "type": "address"
        },
        {
          "name": "_to",
          "type": "address"
        },
        {
          "name": "_tokenId",
          "type": "uint256"
        },
        {
          "name": "_data",
          "type": "bytes"
        }
      ],
      "name": "safeTransferFrom",
      "outputs": [],
      "payable": false,
      "stateMutability": "nonpayable",
      "type": "function"
    },
    {
      "constant": false,
      "inputs": [
        {
          "name": "_index",
          "type": "uint256"
        },
        {
          "name": "_tag",
          "type": "bytes32"
        }
      ],
      "name": "removeRegistryTag",
      "outputs": [],
      "payable": false,
      "stateMutability": "nonpayable",
      "type": "function"
    },
    {
      "constant": true,
      "inputs": [],
      "name": "entryBase",
      "outputs": [
        {
          "name": "",
          "type": "address"
        }
      ],
      "payable": false,
      "stateMutability": "view",
      "type": "function"
    },
    {
      "constant": false,
      "inputs": [
        {
          "name": "_registryName",
          "type": "string"
        }
      ],
      "name": "updateRegistryName",
      "outputs": [],
      "payable": false,
      "stateMutability": "nonpayable",
      "type": "function"
    },
    {
      "constant": true,
      "inputs": [
        {
          "name": "_tokenId",
          "type": "uint256"
        }
      ],
      "name": "tokenURI",
      "outputs": [
        {
          "name": "",
          "type": "string"
        }
      ],
      "payable": false,
      "stateMutability": "view",
      "type": "function"
    },
    {
      "constant": true,
      "inputs": [
        {
          "name": "",
          "type": "address"
        }
      ],
      "name": "shares",
      "outputs": [
        {
          "name": "",
          "type": "uint256"
        }
      ],
      "payable": false,
      "stateMutability": "view",
      "type": "function"
    },
    {
      "constant": false,
      "inputs": [
        {
          "name": "_fee",
          "type": "uint256"
        }
      ],
      "name": "updateEntryCreationFee",
      "outputs": [],
      "payable": false,
      "stateMutability": "nonpayable",
      "type": "function"
    },
    {
      "constant": true,
      "inputs": [],
      "name": "totalReleased",
      "outputs": [
        {
          "name": "",
          "type": "uint256"
        }
      ],
      "payable": false,
      "stateMutability": "view",
      "type": "function"
    },
    {
      "constant": false,
      "inputs": [
        {
          "name": "_index",
          "type": "uint256"
        },
        {
          "name": "_tag",
          "type": "bytes32"
        }
      ],
      "name": "updateRegistryTag",
      "outputs": [],
      "payable": false,
      "stateMutability": "nonpayable",
      "type": "function"
    },
    {
      "constant": true,
      "inputs": [
        {
          "name": "_owner",
          "type": "address"
        },
        {
          "name": "_operator",
          "type": "address"
        }
      ],
      "name": "isApprovedForAll",
      "outputs": [
        {
          "name": "",
          "type": "bool"
        }
      ],
      "payable": false,
      "stateMutability": "view",
      "type": "function"
    },
    {
      "constant": false,
      "inputs": [
        {
          "name": "newOwner",
          "type": "address"
        }
      ],
      "name": "transferOwnership",
      "outputs": [],
      "payable": false,
      "stateMutability": "nonpayable",
      "type": "function"
    },
    {
      "constant": false,
      "inputs": [
        {
          "name": "_recipient",
          "type": "address"
        }
      ],
      "name": "destroyAndSend",
      "outputs": [],
      "payable": false,
      "stateMutability": "nonpayable",
      "type": "function"
    },
    {
      "constant": true,
      "inputs": [],
      "name": "registryTags",
      "outputs": [
        {
          "name": "",
          "type": "bytes32[]"
        }
      ],
      "payable": false,
      "stateMutability": "view",
      "type": "function"
    },
    {
      "inputs": [
        {
          "name": "_benefitiaries",
          "type": "address[]"
        },
        {
          "name": "_shares",
          "type": "uint256[]"
        },
        {
          "name": "_permissionType",
          "type": "uint8"
        },
        {
          "name": "_entryCreationFee",
          "type": "uint256"
        },
        {
          "name": "_name",
          "type": "string"
        },
        {
          "name": "_symbol",
          "type": "string"
        },
        {
          "name": "_description",
          "type": "string"
        },
        {
          "name": "_bytecodeOfEntriesContract",
          "type": "bytes"
        }
      ],
      "payable": true,
      "stateMutability": "payable",
      "type": "constructor"
    },
    {
      "payable": true,
      "stateMutability": "payable",
      "type": "fallback"
    },
    {
      "anonymous": false,
      "inputs": [
        {
          "indexed": false,
          "name": "payeeIndex",
          "type": "uint256"
        },
        {
          "indexed": false,
          "name": "oldAddress",
          "type": "address"
        },
        {
          "indexed": false,
          "name": "newAddress",
          "type": "address"
        }
      ],
      "name": "PayeeAddressChanged",
      "type": "event"
    },
    {
      "anonymous": false,
      "inputs": [
        {
          "indexed": true,
          "name": "_from",
          "type": "address"
        },
        {
          "indexed": true,
          "name": "_to",
          "type": "address"
        },
        {
          "indexed": false,
          "name": "_tokenId",
          "type": "uint256"
        }
      ],
      "name": "Transfer",
      "type": "event"
    },
    {
      "anonymous": false,
      "inputs": [
        {
          "indexed": true,
          "name": "_owner",
          "type": "address"
        },
        {
          "indexed": true,
          "name": "_approved",
          "type": "address"
        },
        {
          "indexed": false,
          "name": "_tokenId",
          "type": "uint256"
        }
      ],
      "name": "Approval",
      "type": "event"
    },
    {
      "anonymous": false,
      "inputs": [
        {
          "indexed": true,
          "name": "_owner",
          "type": "address"
        },
        {
          "indexed": true,
          "name": "_operator",
          "type": "address"
        },
        {
          "indexed": false,
          "name": "_approved",
          "type": "bool"
        }
      ],
      "name": "ApprovalForAll",
      "type": "event"
    },
    {
      "anonymous": false,
      "inputs": [
        {
          "indexed": false,
          "name": "creator",
          "type": "address"
        },
        {
          "indexed": false,
          "name": "entryId",
          "type": "uint256"
        }
      ],
      "name": "EntryCreated",
      "type": "event"
    },
    {
      "anonymous": false,
      "inputs": [
        {
          "indexed": false,
          "name": "owner",
          "type": "address"
        },
        {
          "indexed": false,
          "name": "entryId",
          "type": "uint256"
        }
      ],
      "name": "EntryUpdated",
      "type": "event"
    },
    {
      "anonymous": false,
      "inputs": [
        {
          "indexed": false,
          "name": "entryId",
          "type": "uint256"
        },
        {
          "indexed": false,
          "name": "newOwner",
          "type": "address"
        }
      ],
      "name": "EntryChangedOwner",
      "type": "event"
    },
    {
      "anonymous": false,
      "inputs": [
        {
          "indexed": false,
          "name": "owner",
          "type": "address"
        },
        {
          "indexed": false,
          "name": "entryId",
          "type": "uint256"
        }
      ],
      "name": "EntryDeleted",
      "type": "event"
    },
    {
      "anonymous": false,
      "inputs": [
        {
          "indexed": false,
          "name": "linkMeta",
          "type": "string"
        }
      ],
      "name": "MetaLinkUpdated",
      "type": "event"
    },
    {
      "anonymous": false,
      "inputs": [
        {
          "indexed": false,
          "name": "linkABI",
          "type": "string"
        }
      ],
      "name": "ABILinkUpdated",
      "type": "event"
    },
    {
      "anonymous": false,
      "inputs": [
        {
          "indexed": false,
          "name": "linkSource",
          "type": "string"
        }
      ],
      "name": "SourceLinkUpdated",
      "type": "event"
    },
    {
      "anonymous": false,
      "inputs": [
        {
          "indexed": true,
          "name": "previousOwner",
          "type": "address"
        },
        {
          "indexed": true,
          "name": "newOwner",
          "type": "address"
        }
      ],
      "name": "OwnershipTransferred",
      "type": "event"
    },
    {
      "constant": false,
      "inputs": [
        {
          "name": "_serializedParams",
          "type": "bytes"
        }
      ],
      "name": "createEntry",
      "outputs": [
        {
          "name": "",
          "type": "uint256"
        }
      ],
      "payable": true,
      "stateMutability": "payable",
      "type": "function"
    }
  ],
  "bytecode": "0x6060604052600080556000600155604051620043af380380620043af8339810160405280805182019190602001805182019190602001805190602001909190805190602001909190805182019190602001805182019190602001805182019190602001805182019190505060008888868683836000815183511415156200008557600080fd5b600090505b8251811015620000f257620000e48382815181101515620000a757fe5b906020019060200201518383815181101515620000c057fe5b906020019060200201516200028d6401000000000262003cea176401000000009004565b80806001019150506200008a565b50505033600560006101000a81548173ffffffffffffffffffffffffffffffffffffffff021916908373ffffffffffffffffffffffffffffffffffffffff16021790555032600960006101000a81548173ffffffffffffffffffffffffffffffffffffffff021916908373ffffffffffffffffffffffffffffffffffffffff16021790555081601390805190602001906200018f92919062000420565b508060149080519060200190620001a892919062000420565b505050505086600960146101000a81548160ff02191690836002811115620001cc57fe5b021790555085600a8190555084600b9080519060200190620001f092919062000420565b5082600c90805190602001906200020992919062000420565b5081516020830181816000f09250505060008173ffffffffffffffffffffffffffffffffffffffff16141515156200023d57fe5b80600e60006101000a81548173ffffffffffffffffffffffffffffffffffffffff021916908373ffffffffffffffffffffffffffffffffffffffff160217905550505050505050505050620004fe565b600073ffffffffffffffffffffffffffffffffffffffff168273ffffffffffffffffffffffffffffffffffffffff1614151515620002ca57600080fd5b600081111515620002da57600080fd5b6000600260008473ffffffffffffffffffffffffffffffffffffffff1673ffffffffffffffffffffffffffffffffffffffff168152602001908152602001600020541415156200032957600080fd5b600480548060010182816200033f9190620004a7565b9160005260206000209001600084909190916101000a81548173ffffffffffffffffffffffffffffffffffffffff021916908373ffffffffffffffffffffffffffffffffffffffff1602179055505080600260008473ffffffffffffffffffffffffffffffffffffffff1673ffffffffffffffffffffffffffffffffffffffff16815260200190815260200160002081905550620003f781600054620004016401000000000262003599179091906401000000009004565b6000819055505050565b60008082840190508381101515156200041657fe5b8091505092915050565b828054600181600116156101000203166002900490600052602060002090601f016020900481019282601f106200046357805160ff191683800117855562000494565b8280016001018555821562000494579182015b828111156200049357825182559160200191906001019062000476565b5b509050620004a39190620004d6565b5090565b815481835581811511620004d157818360005260206000209182019101620004d09190620004d6565b5b505050565b620004fb91905b80821115620004f7576000816000905550600101620004dd565b5090565b90565b613ea1806200050e6000396000f300606060405260043610610251576000357c0100000000000000000000000000000000000000000000000000000000900463ffffffff16806302d05d3f1461025357806306fdde03146102a857806307b1f8f714610336578063081812fc146103c4578063095ea7b3146104275780631654d1691461046957806318160ddd146104f7578063189efc7c146105205780631a849d6b1461054757806323b872dd1461057e57806327f5f1b6146105df5780632f745c5914610602578063351c6bbe146106585780633a1a3d951461068f5780633a98ef39146106b857806341c39e5c146106e157806342842e0e1461076f5780634545d21c146107d05780634dfaf97a146107fe5780634e71d92d1461088c5780634f558e79146108a15780634f6ccce7146108dc57806363037b0c146109135780636352211e1461097657806368b34562146109d95780636d2fd13814610a0257806370a0823114610a305780637b49376814610a7d57806383197ef014610abf57806383ca00ac14610ad45780638da5cb5b14610b0257806395d89b4114610b575780639852595c14610be55780639e925a7814610c32578063a1f14b2714610cc0578063a22cb46514610cee578063b88d4fde14610d32578063bc044e1814610dd6578063bf3fde3314610e06578063c81225eb14610e5b578063c87b56dd14610e89578063ce7c2ac214610f25578063d24f707614610f72578063e33b7de314610f95578063e59f0cc214610fbe578063e985e9c514610fee578063f2fde38b1461105e578063f5074f4114611097578063f5ec4e50146110d0575b005b341561025e57600080fd5b61026661113a565b604051808273ffffffffffffffffffffffffffffffffffffffff1673ffffffffffffffffffffffffffffffffffffffff16815260200191505060405180910390f35b34156102b357600080fd5b6102bb611164565b6040518080602001828103825283818151815260200191508051906020019080838360005b838110156102fb5780820151818401526020810190506102e0565b50505050905090810190601f1680156103285780820380516001836020036101000a031916815260200191505b509250505060405180910390f35b341561034157600080fd5b61034961120c565b6040518080602001828103825283818151815260200191508051906020019080838360005b8381101561038957808201518184015260208101905061036e565b50505050905090810190601f1680156103b65780820380516001836020036101000a031916815260200191505b509250505060405180910390f35b34156103cf57600080fd5b6103e560048080359060200190919050506112b4565b604051808273ffffffffffffffffffffffffffffffffffffffff1673ffffffffffffffffffffffffffffffffffffffff16815260200191505060405180910390f35b341561043257600080fd5b610467600480803573ffffffffffffffffffffffffffffffffffffffff169060200190919080359060200190919050506112f1565b005b341561047457600080fd5b61047c6114b7565b6040518080602001828103825283818151815260200191508051906020019080838360005b838110156104bc5780820151818401526020810190506104a1565b50505050905090810190601f1680156104e95780820380516001836020036101000a031916815260200191505b509250505060405180910390f35b341561050257600080fd5b61050a61155f565b6040518082815260200191505060405180910390f35b341561052b57600080fd5b61054560048080356000191690602001909190505061156c565b005b6105686004808035906020019082018035906020019190919290505061160e565b6040518082815260200191505060405180910390f35b341561058957600080fd5b6105dd600480803573ffffffffffffffffffffffffffffffffffffffff1690602001909190803573ffffffffffffffffffffffffffffffffffffffff169060200190919080359060200190919050506117fb565b005b34156105ea57600080fd5b6106006004808035906020019091905050611912565b005b341561060d57600080fd5b610642600480803573ffffffffffffffffffffffffffffffffffffffff169060200190919080359060200190919050506119b9565b6040518082815260200191505060405180910390f35b341561066357600080fd5b61066b611a31565b6040518082600281111561067b57fe5b60ff16815260200191505060405180910390f35b341561069a57600080fd5b6106a2611a48565b6040518082815260200191505060405180910390f35b34156106c357600080fd5b6106cb611a52565b6040518082815260200191505060405180910390f35b34156106ec57600080fd5b6106f4611a58565b6040518080602001828103825283818151815260200191508051906020019080838360005b83811015610734578082015181840152602081019050610719565b50505050905090810190601f1680156107615780820380516001836020036101000a031916815260200191505b509250505060405180910390f35b341561077a57600080fd5b6107ce600480803573ffffffffffffffffffffffffffffffffffffffff1690602001909190803573ffffffffffffffffffffffffffffffffffffffff16906020019091908035906020019091905050611b00565b005b34156107db57600080fd5b6107fc60048080359060200190820180359060200191909192905050611b38565b005b341561080957600080fd5b610811611bfb565b6040518080602001828103825283818151815260200191508051906020019080838360005b83811015610851578082015181840152602081019050610836565b50505050905090810190601f16801561087e5780820380516001836020036101000a031916815260200191505b509250505060405180910390f35b341561089757600080fd5b61089f611ca3565b005b34156108ac57600080fd5b6108c26004808035906020019091905050611f0b565b604051808215151515815260200191505060405180910390f35b34156108e757600080fd5b6108fd6004808035906020019091905050611f7d565b6040518082815260200191505060405180910390f35b341561091e57600080fd5b6109346004808035906020019091905050611fb6565b604051808273ffffffffffffffffffffffffffffffffffffffff1673ffffffffffffffffffffffffffffffffffffffff16815260200191505060405180910390f35b341561098157600080fd5b6109976004808035906020019091905050611ff5565b604051808273ffffffffffffffffffffffffffffffffffffffff1673ffffffffffffffffffffffffffffffffffffffff16815260200191505060405180910390f35b34156109e457600080fd5b6109ec612073565b6040518082815260200191505060405180910390f35b3415610a0d57600080fd5b610a2e60048080359060200190820180359060200191909192905050612092565b005b3415610a3b57600080fd5b610a67600480803573ffffffffffffffffffffffffffffffffffffffff16906020019091905050612155565b6040518082815260200191505060405180910390f35b3415610a8857600080fd5b610abd600480803590602001909190803573ffffffffffffffffffffffffffffffffffffffff169060200190919050506121d9565b005b3415610aca57600080fd5b610ad26124fd565b005b3415610adf57600080fd5b610b0060048080359060200190820180359060200191909192905050612594565b005b3415610b0d57600080fd5b610b15612657565b604051808273ffffffffffffffffffffffffffffffffffffffff1673ffffffffffffffffffffffffffffffffffffffff16815260200191505060405180910390f35b3415610b6257600080fd5b610b6a61267d565b6040518080602001828103825283818151815260200191508051906020019080838360005b83811015610baa578082015181840152602081019050610b8f565b50505050905090810190601f168015610bd75780820380516001836020036101000a031916815260200191505b509250505060405180910390f35b3415610bf057600080fd5b610c1c600480803573ffffffffffffffffffffffffffffffffffffffff16906020019091905050612725565b6040518082815260200191505060405180910390f35b3415610c3d57600080fd5b610c4561273d565b6040518080602001828103825283818151815260200191508051906020019080838360005b83811015610c85578082015181840152602081019050610c6a565b50505050905090810190601f168015610cb25780820380516001836020036101000a031916815260200191505b509250505060405180910390f35b3415610ccb57600080fd5b610cec600480803590602001908201803590602001919091929050506127e5565b005b3415610cf957600080fd5b610d30600480803573ffffffffffffffffffffffffffffffffffffffff169060200190919080351515906020019091905050612871565b005b3415610d3d57600080fd5b610dd4600480803573ffffffffffffffffffffffffffffffffffffffff1690602001909190803573ffffffffffffffffffffffffffffffffffffffff1690602001909190803590602001909190803590602001908201803590602001908080601f016020809104026020016040519081016040528093929190818152602001838380828437820191505050505050919050506129ad565b005b3415610de157600080fd5b610e046004808035906020019091908035600019169060200190919050506129ec565b005b3415610e1157600080fd5b610e19612aea565b604051808273ffffffffffffffffffffffffffffffffffffffff1673ffffffffffffffffffffffffffffffffffffffff16815260200191505060405180910390f35b3415610e6657600080fd5b610e8760048080359060200190820180359060200191909192905050612b14565b005b3415610e9457600080fd5b610eaa6004808035906020019091905050612bab565b6040518080602001828103825283818151815260200191508051906020019080838360005b83811015610eea578082015181840152602081019050610ecf565b50505050905090810190601f168015610f175780820380516001836020036101000a031916815260200191505b509250505060405180910390f35b3415610f3057600080fd5b610f5c600480803573ffffffffffffffffffffffffffffffffffffffff16906020019091905050612c7a565b6040518082815260200191505060405180910390f35b3415610f7d57600080fd5b610f936004808035906020019091905050612c92565b005b3415610fa057600080fd5b610fa8612cf8565b6040518082815260200191505060405180910390f35b3415610fc957600080fd5b610fec600480803590602001909190803560001916906020019091905050612cfe565b005b3415610ff957600080fd5b611044600480803573ffffffffffffffffffffffffffffffffffffffff1690602001909190803573ffffffffffffffffffffffffffffffffffffffff16906020019091905050612d95565b604051808215151515815260200191505060405180910390f35b341561106957600080fd5b611095600480803573ffffffffffffffffffffffffffffffffffffffff16906020019091905050612e29565b005b34156110a257600080fd5b6110ce600480803573ffffffffffffffffffffffffffffffffffffffff16906020019091905050612f81565b005b34156110db57600080fd5b6110e3612ff6565b6040518080602001828103825283818151815260200191508051906020019060200280838360005b8381101561112657808201518184015260208101905061110b565b505050509050019250505060405180910390f35b6000600960009054906101000a900473ffffffffffffffffffffffffffffffffffffffff16905090565b61116c613b48565b60138054600181600116156101000203166002900480601f0160208091040260200160405190810160405280929190818152602001828054600181600116156101000203166002900480156112025780601f106111d757610100808354040283529160200191611202565b820191906000526020600020905b8154815290600101906020018083116111e557829003601f168201915b5050505050905090565b611214613b48565b60088054600181600116156101000203166002900480601f0160208091040260200160405190810160405280929190818152602001828054600181600116156101000203166002900480156112aa5780601f1061127f576101008083540402835291602001916112aa565b820191906000526020600020905b81548152906001019060200180831161128d57829003601f168201915b5050505050905090565b60006010600083815260200190815260200160002060009054906101000a900473ffffffffffffffffffffffffffffffffffffffff169050919050565b60006112fc82611ff5565b90508073ffffffffffffffffffffffffffffffffffffffff168373ffffffffffffffffffffffffffffffffffffffff161415151561133957600080fd5b8073ffffffffffffffffffffffffffffffffffffffff163373ffffffffffffffffffffffffffffffffffffffff16148061137957506113788133612d95565b5b151561138457600080fd5b600073ffffffffffffffffffffffffffffffffffffffff166113a5836112b4565b73ffffffffffffffffffffffffffffffffffffffff161415806113f55750600073ffffffffffffffffffffffffffffffffffffffff168373ffffffffffffffffffffffffffffffffffffffff1614155b156114b257826010600084815260200190815260200160002060006101000a81548173ffffffffffffffffffffffffffffffffffffffff021916908373ffffffffffffffffffffffffffffffffffffffff1602179055508273ffffffffffffffffffffffffffffffffffffffff168173ffffffffffffffffffffffffffffffffffffffff167f8c5be1e5ebec7d5bd14f71427d1e84f3dd0314c0f7b2291e5b200ac8c7c3b925846040518082815260200191505060405180910390a35b505050565b6114bf613b48565b600b8054600181600116156101000203166002900480601f0160208091040260200160405190810160405280929190818152602001828054600181600116156101000203166002900480156115555780601f1061152a57610100808354040283529160200191611555565b820191906000526020600020905b81548152906001019060200180831161153857829003601f168201915b5050505050905090565b6000601780549050905090565b600960009054906101000a900473ffffffffffffffffffffffffffffffffffffffff1673ffffffffffffffffffffffffffffffffffffffff163373ffffffffffffffffffffffffffffffffffffffff161415156115c857600080fd5b6010602060ff16111515156115dc57600080fd5b600d80548060010182816115f09190613b5c565b91600052602060002090016000839091909150906000191690555050565b6000806000600281111561161e57fe5b600960149054906101000a900460ff16600281111561163957fe5b141561169c57600960009054906101000a900473ffffffffffffffffffffffffffffffffffffffff1673ffffffffffffffffffffffffffffffffffffffff163373ffffffffffffffffffffffffffffffffffffffff1614151561169b57600080fd5b5b600a54341415156116ac57600080fd5b600e60009054906101000a900473ffffffffffffffffffffffffffffffffffffffff1673ffffffffffffffffffffffffffffffffffffffff16631a849d6b85856000604051602001526040518363ffffffff167c01000000000000000000000000000000000000000000000000000000000281526004018080602001828103825284848281815260200192508082843782019150509350505050602060405180830381600087803b151561175f57600080fd5b6102c65a03f1151561177057600080fd5b5050506040518051905090506117863382613058565b7fe9a0a2aca9c41fae94448dec8914ad73e4d00ebdc2427e61f3fc66919f4ffa2a3382604051808373ffffffffffffffffffffffffffffffffffffffff1673ffffffffffffffffffffffffffffffffffffffff1681526020018281526020019250505060405180910390a18091505092915050565b8061180633826130ac565b151561181157600080fd5b600073ffffffffffffffffffffffffffffffffffffffff168473ffffffffffffffffffffffffffffffffffffffff161415151561184d57600080fd5b600073ffffffffffffffffffffffffffffffffffffffff168373ffffffffffffffffffffffffffffffffffffffff161415151561188957600080fd5b6118938483613141565b61189d84836132aa565b6118a783836134c5565b8273ffffffffffffffffffffffffffffffffffffffff168473ffffffffffffffffffffffffffffffffffffffff167fddf252ad1be2c89b69c2b068fc378daa952ba7f163c4a11628f55a4df523b3ef846040518082815260200191505060405180910390a350505050565b600960009054906101000a900473ffffffffffffffffffffffffffffffffffffffff1673ffffffffffffffffffffffffffffffffffffffff163373ffffffffffffffffffffffffffffffffffffffff1614151561196e57600080fd5b8060028081111561197b57fe5b1015151561198857600080fd5b80600281111561199457fe5b600960146101000a81548160ff021916908360028111156119b157fe5b021790555050565b60006119c483612155565b821015156119d157600080fd5b601560008473ffffffffffffffffffffffffffffffffffffffff1673ffffffffffffffffffffffffffffffffffffffff16815260200190815260200160002082815481101515611a1d57fe5b906000526020600020900154905092915050565b6000600960149054906101000a900460ff16905090565b6000600a54905090565b60005481565b611a60613b48565b600c8054600181600116156101000203166002900480601f016020809104026020016040519081016040528092919081815260200182805460018160011615610100020316600290048015611af65780601f10611acb57610100808354040283529160200191611af6565b820191906000526020600020905b815481529060010190602001808311611ad957829003601f168201915b5050505050905090565b80611b0b33826130ac565b1515611b1657600080fd5b611b3284848460206040519081016040528060008152506129ad565b50505050565b600560009054906101000a900473ffffffffffffffffffffffffffffffffffffffff1673ffffffffffffffffffffffffffffffffffffffff163373ffffffffffffffffffffffffffffffffffffffff16141515611b9457600080fd5b818160069190611ba5929190613b88565b507f97bc322e754962c4ff23eb8a9d58b147ead5be0347d9a799addc5a2d44564cbe8282604051808060200182810382528484828181526020019250808284378201915050935050505060405180910390a15050565b611c03613b48565b60078054600181600116156101000203166002900480601f016020809104026020016040519081016040528092919081815260200182805460018160011615610100020316600290048015611c995780601f10611c6e57610100808354040283529160200191611c99565b820191906000526020600020905b815481529060010190602001808311611c7c57829003601f168201915b5050505050905090565b60008060003392506000600260008573ffffffffffffffffffffffffffffffffffffffff1673ffffffffffffffffffffffffffffffffffffffff16815260200190815260200160002054111515611cf957600080fd5b611d256001543073ffffffffffffffffffffffffffffffffffffffff163161359990919063ffffffff16565b9150611dde600360008573ffffffffffffffffffffffffffffffffffffffff1673ffffffffffffffffffffffffffffffffffffffff16815260200190815260200160002054611dd0600054611dc2600260008973ffffffffffffffffffffffffffffffffffffffff1673ffffffffffffffffffffffffffffffffffffffff16815260200190815260200160002054876135b790919063ffffffff16565b6135f290919063ffffffff16565b61360d90919063ffffffff16565b905060008114151515611df057600080fd5b803073ffffffffffffffffffffffffffffffffffffffff163110151515611e1657600080fd5b611e6881600360008673ffffffffffffffffffffffffffffffffffffffff1673ffffffffffffffffffffffffffffffffffffffff1681526020019081526020016000205461359990919063ffffffff16565b600360008573ffffffffffffffffffffffffffffffffffffffff1673ffffffffffffffffffffffffffffffffffffffff16815260200190815260200160002081905550611ec08160015461359990919063ffffffff16565b6001819055508273ffffffffffffffffffffffffffffffffffffffff166108fc829081150290604051600060405180830381858888f193505050501515611f0657600080fd5b505050565b600080600f600084815260200190815260200160002060009054906101000a900473ffffffffffffffffffffffffffffffffffffffff169050600073ffffffffffffffffffffffffffffffffffffffff168173ffffffffffffffffffffffffffffffffffffffff161415915050919050565b6000611f8761155f565b82101515611f9457600080fd5b601782815481101515611fa357fe5b9060005260206000209001549050919050565b600481815481101515611fc557fe5b90600052602060002090016000915054906101000a900473ffffffffffffffffffffffffffffffffffffffff1681565b600080600f600084815260200190815260200160002060009054906101000a900473ffffffffffffffffffffffffffffffffffffffff169050600073ffffffffffffffffffffffffffffffffffffffff168173ffffffffffffffffffffffffffffffffffffffff161415151561206a57600080fd5b80915050919050565b60003073ffffffffffffffffffffffffffffffffffffffff1631905090565b600560009054906101000a900473ffffffffffffffffffffffffffffffffffffffff1673ffffffffffffffffffffffffffffffffffffffff163373ffffffffffffffffffffffffffffffffffffffff161415156120ee57600080fd5b8181600791906120ff929190613b88565b507f6362a59ae98fef1a0a45d03a1127a82c2268ca380148117a052b9f8bce8e6f1e8282604051808060200182810382528484828181526020019250808284378201915050935050505060405180910390a15050565b60008073ffffffffffffffffffffffffffffffffffffffff168273ffffffffffffffffffffffffffffffffffffffff161415151561219257600080fd5b601160008373ffffffffffffffffffffffffffffffffffffffff1673ffffffffffffffffffffffffffffffffffffffff168152602001908152602001600020549050919050565b6000600560009054906101000a900473ffffffffffffffffffffffffffffffffffffffff1673ffffffffffffffffffffffffffffffffffffffff163373ffffffffffffffffffffffffffffffffffffffff1614151561223757600080fd5b60048381548110151561224657fe5b906000526020600020900160009054906101000a900473ffffffffffffffffffffffffffffffffffffffff169050600260008273ffffffffffffffffffffffffffffffffffffffff1673ffffffffffffffffffffffffffffffffffffffff16815260200190815260200160002054600260008473ffffffffffffffffffffffffffffffffffffffff1673ffffffffffffffffffffffffffffffffffffffff16815260200190815260200160002081905550600360008273ffffffffffffffffffffffffffffffffffffffff1673ffffffffffffffffffffffffffffffffffffffff16815260200190815260200160002054600360008473ffffffffffffffffffffffffffffffffffffffff1673ffffffffffffffffffffffffffffffffffffffff168152602001908152602001600020819055508160048481548110151561238a57fe5b906000526020600020900160006101000a81548173ffffffffffffffffffffffffffffffffffffffff021916908373ffffffffffffffffffffffffffffffffffffffff160217905550600260008273ffffffffffffffffffffffffffffffffffffffff1673ffffffffffffffffffffffffffffffffffffffff16815260200190815260200160002060009055600360008273ffffffffffffffffffffffffffffffffffffffff1673ffffffffffffffffffffffffffffffffffffffff168152602001908152602001600020600090557fa1982f3fe3fa9dba8ce5bc91687e2ab0850b0431cddacc1a249b2ae0390b912f838284604051808481526020018373ffffffffffffffffffffffffffffffffffffffff1673ffffffffffffffffffffffffffffffffffffffff1681526020018273ffffffffffffffffffffffffffffffffffffffff1673ffffffffffffffffffffffffffffffffffffffff168152602001935050505060405180910390a1505050565b600560009054906101000a900473ffffffffffffffffffffffffffffffffffffffff1673ffffffffffffffffffffffffffffffffffffffff163373ffffffffffffffffffffffffffffffffffffffff1614151561255957600080fd5b600560009054906101000a900473ffffffffffffffffffffffffffffffffffffffff1673ffffffffffffffffffffffffffffffffffffffff16ff5b600560009054906101000a900473ffffffffffffffffffffffffffffffffffffffff1673ffffffffffffffffffffffffffffffffffffffff163373ffffffffffffffffffffffffffffffffffffffff161415156125f057600080fd5b818160089190612601929190613b88565b507fcfaf57d92b1b2684731a770c593d162587ca98e9d372be876ab14b389866f0f68282604051808060200182810382528484828181526020019250808284378201915050935050505060405180910390a15050565b600560009054906101000a900473ffffffffffffffffffffffffffffffffffffffff1681565b612685613b48565b60148054600181600116156101000203166002900480601f01602080910402602001604051908101604052809291908181526020018280546001816001161561010002031660029004801561271b5780601f106126f05761010080835404028352916020019161271b565b820191906000526020600020905b8154815290600101906020018083116126fe57829003601f168201915b5050505050905090565b60036020528060005260406000206000915090505481565b612745613b48565b60068054600181600116156101000203166002900480601f0160208091040260200160405190810160405280929190818152602001828054600181600116156101000203166002900480156127db5780601f106127b0576101008083540402835291602001916127db565b820191906000526020600020905b8154815290600101906020018083116127be57829003601f168201915b5050505050905090565b6000600960009054906101000a900473ffffffffffffffffffffffffffffffffffffffff1673ffffffffffffffffffffffffffffffffffffffff163373ffffffffffffffffffffffffffffffffffffffff1614151561284357600080fd5b828290509050610100811115151561285a57600080fd5b8282600c919061286b929190613b88565b50505050565b3373ffffffffffffffffffffffffffffffffffffffff168273ffffffffffffffffffffffffffffffffffffffff16141515156128ac57600080fd5b80601260003373ffffffffffffffffffffffffffffffffffffffff1673ffffffffffffffffffffffffffffffffffffffff16815260200190815260200160002060008473ffffffffffffffffffffffffffffffffffffffff1673ffffffffffffffffffffffffffffffffffffffff16815260200190815260200160002060006101000a81548160ff0219169083151502179055508173ffffffffffffffffffffffffffffffffffffffff163373ffffffffffffffffffffffffffffffffffffffff167f17307eab39ab6107e8899845ad3d59bd9653f200f220920489ca2b5937696c3183604051808215151515815260200191505060405180910390a35050565b816129b833826130ac565b15156129c357600080fd5b6129ce8585856117fb565b6129da85858585613626565b15156129e557600080fd5b5050505050565b600080600960009054906101000a900473ffffffffffffffffffffffffffffffffffffffff1673ffffffffffffffffffffffffffffffffffffffff163373ffffffffffffffffffffffffffffffffffffffff16141515612a4b57600080fd5b6010602060ff1611151515612a5f57600080fd5b6001600d80549050039150600d82815481101515612a7957fe5b906000526020600020900154905080600d85815481101515612a9757fe5b906000526020600020900181600019169055506000600d83815481101515612abb57fe5b90600052602060002090018160001916905550600d805480919060019003612ae39190613c08565b5050505050565b6000600e60009054906101000a900473ffffffffffffffffffffffffffffffffffffffff16905090565b6000600960009054906101000a900473ffffffffffffffffffffffffffffffffffffffff1673ffffffffffffffffffffffffffffffffffffffff163373ffffffffffffffffffffffffffffffffffffffff16141515612b7257600080fd5b828290509050600081118015612b89575060208111155b1515612b9457600080fd5b8282600b9190612ba5929190613b88565b50505050565b612bb3613b48565b612bbc82611f0b565b1515612bc757600080fd5b601960008381526020019081526020016000208054600181600116156101000203166002900480601f016020809104026020016040519081016040528092919081815260200182805460018160011615610100020316600290048015612c6e5780601f10612c4357610100808354040283529160200191612c6e565b820191906000526020600020905b815481529060010190602001808311612c5157829003601f168201915b50505050509050919050565b60026020528060005260406000206000915090505481565b600960009054906101000a900473ffffffffffffffffffffffffffffffffffffffff1673ffffffffffffffffffffffffffffffffffffffff163373ffffffffffffffffffffffffffffffffffffffff16141515612cee57600080fd5b80600a8190555050565b60015481565b600960009054906101000a900473ffffffffffffffffffffffffffffffffffffffff1673ffffffffffffffffffffffffffffffffffffffff163373ffffffffffffffffffffffffffffffffffffffff16141515612d5a57600080fd5b6010602060ff1611151515612d6e57600080fd5b80600d83815481101515612d7e57fe5b906000526020600020900181600019169055505050565b6000601260008473ffffffffffffffffffffffffffffffffffffffff1673ffffffffffffffffffffffffffffffffffffffff16815260200190815260200160002060008373ffffffffffffffffffffffffffffffffffffffff1673ffffffffffffffffffffffffffffffffffffffff16815260200190815260200160002060009054906101000a900460ff16905092915050565b600560009054906101000a900473ffffffffffffffffffffffffffffffffffffffff1673ffffffffffffffffffffffffffffffffffffffff163373ffffffffffffffffffffffffffffffffffffffff16141515612e8557600080fd5b600073ffffffffffffffffffffffffffffffffffffffff168173ffffffffffffffffffffffffffffffffffffffff1614151515612ec157600080fd5b8073ffffffffffffffffffffffffffffffffffffffff16600560009054906101000a900473ffffffffffffffffffffffffffffffffffffffff1673ffffffffffffffffffffffffffffffffffffffff167f8be0079c531659141344cd1fd0a4f28419497f9722a3daafe3b4186f6b6457e060405160405180910390a380600560006101000a81548173ffffffffffffffffffffffffffffffffffffffff021916908373ffffffffffffffffffffffffffffffffffffffff16021790555050565b600560009054906101000a900473ffffffffffffffffffffffffffffffffffffffff1673ffffffffffffffffffffffffffffffffffffffff163373ffffffffffffffffffffffffffffffffffffffff16141515612fdd57600080fd5b8073ffffffffffffffffffffffffffffffffffffffff16ff5b612ffe613c34565b600d80548060200260200160405190810160405280929190818152602001828054801561304e57602002820191906000526020600020905b81546000191681526020019060010190808311613036575b5050505050905090565b61306282826137fc565b6017805490506018600083815260200190815260200160002081905550601780548060010182816130939190613c48565b9160005260206000209001600083909190915055505050565b6000806130b883611ff5565b90508073ffffffffffffffffffffffffffffffffffffffff168473ffffffffffffffffffffffffffffffffffffffff16148061312757508373ffffffffffffffffffffffffffffffffffffffff1661310f846112b4565b73ffffffffffffffffffffffffffffffffffffffff16145b8061313857506131378185612d95565b5b91505092915050565b8173ffffffffffffffffffffffffffffffffffffffff1661316182611ff5565b73ffffffffffffffffffffffffffffffffffffffff1614151561318357600080fd5b600073ffffffffffffffffffffffffffffffffffffffff166010600083815260200190815260200160002060009054906101000a900473ffffffffffffffffffffffffffffffffffffffff1673ffffffffffffffffffffffffffffffffffffffff161415156132a65760006010600083815260200190815260200160002060006101000a81548173ffffffffffffffffffffffffffffffffffffffff021916908373ffffffffffffffffffffffffffffffffffffffff160217905550600073ffffffffffffffffffffffffffffffffffffffff168273ffffffffffffffffffffffffffffffffffffffff167f8c5be1e5ebec7d5bd14f71427d1e84f3dd0314c0f7b2291e5b200ac8c7c3b925836040518082815260200191505060405180910390a35b5050565b60008060006132b985856138ac565b601660008581526020019081526020016000205492506133256001601560008873ffffffffffffffffffffffffffffffffffffffff1673ffffffffffffffffffffffffffffffffffffffff1681526020019081526020016000208054905061360d90919063ffffffff16565b9150601560008673ffffffffffffffffffffffffffffffffffffffff1673ffffffffffffffffffffffffffffffffffffffff1681526020019081526020016000208281548110151561337357fe5b906000526020600020900154905080601560008773ffffffffffffffffffffffffffffffffffffffff1673ffffffffffffffffffffffffffffffffffffffff168152602001908152602001600020848154811015156133ce57fe5b9060005260206000209001819055506000601560008773ffffffffffffffffffffffffffffffffffffffff1673ffffffffffffffffffffffffffffffffffffffff1681526020019081526020016000208381548110151561342b57fe5b906000526020600020900181905550601560008673ffffffffffffffffffffffffffffffffffffffff1673ffffffffffffffffffffffffffffffffffffffff16815260200190815260200160002080548091906001900361348c9190613c74565b50600060166000868152602001908152602001600020819055508260166000838152602001908152602001600020819055505050505050565b60006134d183836139db565b601560008473ffffffffffffffffffffffffffffffffffffffff1673ffffffffffffffffffffffffffffffffffffffff168152602001908152602001600020805490509050601560008473ffffffffffffffffffffffffffffffffffffffff1673ffffffffffffffffffffffffffffffffffffffff16815260200190815260200160002080548060010182816135679190613c48565b916000526020600020900160008490919091505550806016600084815260200190815260200160002081905550505050565b60008082840190508381101515156135ad57fe5b8091505092915050565b60008060008414156135cc57600091506135eb565b82840290508284828115156135dd57fe5b041415156135e757fe5b8091505b5092915050565b600080828481151561360057fe5b0490508091505092915050565b600082821115151561361b57fe5b818303905092915050565b6000806136488573ffffffffffffffffffffffffffffffffffffffff16613b35565b151561365757600191506137f3565b8473ffffffffffffffffffffffffffffffffffffffff1663f0b9e5ba8786866000604051602001526040518463ffffffff167c0100000000000000000000000000000000000000000000000000000000028152600401808473ffffffffffffffffffffffffffffffffffffffff1673ffffffffffffffffffffffffffffffffffffffff16815260200183815260200180602001828103825283818151815260200191508051906020019080838360005b83811015613722578082015181840152602081019050613707565b50505050905090810190601f16801561374f5780820380516001836020036101000a031916815260200191505b50945050505050602060405180830381600087803b151561376f57600080fd5b6102c65a03f1151561378057600080fd5b50505060405180519050905063f0b9e5ba7c0100000000000000000000000000000000000000000000000000000000027bffffffffffffffffffffffffffffffffffffffffffffffffffffffff1916817bffffffffffffffffffffffffffffffffffffffffffffffffffffffff19161491505b50949350505050565b600073ffffffffffffffffffffffffffffffffffffffff168273ffffffffffffffffffffffffffffffffffffffff161415151561383857600080fd5b61384282826134c5565b8173ffffffffffffffffffffffffffffffffffffffff16600073ffffffffffffffffffffffffffffffffffffffff167fddf252ad1be2c89b69c2b068fc378daa952ba7f163c4a11628f55a4df523b3ef836040518082815260200191505060405180910390a35050565b8173ffffffffffffffffffffffffffffffffffffffff166138cc82611ff5565b73ffffffffffffffffffffffffffffffffffffffff161415156138ee57600080fd5b6139416001601160008573ffffffffffffffffffffffffffffffffffffffff1673ffffffffffffffffffffffffffffffffffffffff1681526020019081526020016000205461360d90919063ffffffff16565b601160008473ffffffffffffffffffffffffffffffffffffffff1673ffffffffffffffffffffffffffffffffffffffff168152602001908152602001600020819055506000600f600083815260200190815260200160002060006101000a81548173ffffffffffffffffffffffffffffffffffffffff021916908373ffffffffffffffffffffffffffffffffffffffff1602179055505050565b600073ffffffffffffffffffffffffffffffffffffffff16600f600083815260200190815260200160002060009054906101000a900473ffffffffffffffffffffffffffffffffffffffff1673ffffffffffffffffffffffffffffffffffffffff16141515613a4957600080fd5b81600f600083815260200190815260200160002060006101000a81548173ffffffffffffffffffffffffffffffffffffffff021916908373ffffffffffffffffffffffffffffffffffffffff160217905550613aee6001601160008573ffffffffffffffffffffffffffffffffffffffff1673ffffffffffffffffffffffffffffffffffffffff1681526020019081526020016000205461359990919063ffffffff16565b601160008473ffffffffffffffffffffffffffffffffffffffff1673ffffffffffffffffffffffffffffffffffffffff168152602001908152602001600020819055505050565b600080823b905060008111915050919050565b602060405190810160405280600081525090565b815481835581811511613b8357818360005260206000209182019101613b829190613ca0565b5b505050565b828054600181600116156101000203166002900490600052602060002090601f016020900481019282601f10613bc957803560ff1916838001178555613bf7565b82800160010185558215613bf7579182015b82811115613bf6578235825591602001919060010190613bdb565b5b509050613c049190613cc5565b5090565b815481835581811511613c2f57818360005260206000209182019101613c2e9190613ca0565b5b505050565b602060405190810160405280600081525090565b815481835581811511613c6f57818360005260206000209182019101613c6e9190613cc5565b5b505050565b815481835581811511613c9b57818360005260206000209182019101613c9a9190613cc5565b5b505050565b613cc291905b80821115613cbe576000816000905550600101613ca6565b5090565b90565b613ce791905b80821115613ce3576000816000905550600101613ccb565b5090565b90565b600073ffffffffffffffffffffffffffffffffffffffff168273ffffffffffffffffffffffffffffffffffffffff1614151515613d2657600080fd5b600081111515613d3557600080fd5b6000600260008473ffffffffffffffffffffffffffffffffffffffff1673ffffffffffffffffffffffffffffffffffffffff16815260200190815260200160002054141515613d8357600080fd5b60048054806001018281613d979190613e49565b9160005260206000209001600084909190916101000a81548173ffffffffffffffffffffffffffffffffffffffff021916908373ffffffffffffffffffffffffffffffffffffffff1602179055505080600260008473ffffffffffffffffffffffffffffffffffffffff1673ffffffffffffffffffffffffffffffffffffffff16815260200190815260200160002081905550613e3f8160005461359990919063ffffffff16565b6000819055505050565b815481835581811511613e7057818360005260206000209182019101613e6f9190613cc5565b5b5050505600a165627a7a72305820c6f202ff4f24a511bc40da221b42e891df3294ed91a53bf26a3a3ce683b65adf0029",
  "source": "pragma solidity ^0.4.19;\n\nimport \"zeppelin-solidity/contracts/token/ERC721/ERC721Token.sol\";\nimport \"zeppelin-solidity/contracts/math/SafeMath.sol\";\nimport \"zeppelin-solidity/contracts/AddressUtils.sol\";\nimport \"../common/SplitPaymentChangeable.sol\";\nimport \"./Chaingeareable.sol\";\nimport \"./EntryBase.sol\";\n// import \"../common/RegistrySafe.sol\";\n\ncontract Registry is Chaingeareable, ERC721Token, SplitPaymentChangeable {\n\n    using SafeMath for uint256;\n    using AddressUtils for address;\n\n    function Registry(\n        address[] _benefitiaries,\n        uint256[] _shares,\n        PermissionTypeEntries _permissionType,\n        uint _entryCreationFee,\n        string _name,\n        string _symbol,\n        string _description,\n        // string _linkToABIOfEntriesContract,\n        bytes _bytecodeOfEntriesContract\n    )\n        SplitPaymentChangeable(_benefitiaries, _shares)\n        ERC721Token(_name, _symbol)\n        public\n        payable\n    {\n        permissionTypeEntries_ = _permissionType;\n        // linkABI_ = _linkABI;\n        entryCreationFee_ = _entryCreationFee;\n        registryName_ = _name;\n        registryDescription_ = _description;\n        // registrySafe_ = new RegistrySafe();\n\n        address deployedAddress;\n        assembly {\n          let s := mload(_bytecodeOfEntriesContract)\n          let p := add(_bytecodeOfEntriesContract, 0x20)\n          deployedAddress := create(0, p, s)\n        }\n\n        assert(deployedAddress != 0x0);\n\n        entryBase_ = deployedAddress;\n    }\n\n    function createEntry(bytes _serializedParams)\n        external\n        payable\n        onlyPermissionedToEntries\n        returns (uint256)\n    {\n        require(msg.value == entryCreationFee_);\n        // EntryMeta memory meta = (EntryMeta(\n        // {\n        //     lastUpdateTime: block.timestamp,\n        //     createdAt: block.timestamp,\n        //     owner: msg.sender,\n        //     creator: msg.sender,\n        //     currentEntryBalanceETH: 0,\n        //     accumulatedOverallEntryETH: 0\n        // }));\n        // Entry memory entry = (Entry(\n        // {\n        //     expensiveAddress: _expensiveAddress,\n        //     expensiveUint: _expensiveUint,\n        //     expensiveInt: _expensiveInt,\n        //     expensiveString: _expensiveString,\n        //     metainformation: meta\n        // }));\n\n        // uint256 newEntryId = entries.push(entry) - 1;\n        uint256 newEntryId = EntryBase(entryBase_).createEntry(_serializedParams);\n        _mint(msg.sender, newEntryId);\n\n        EntryCreated(msg.sender, newEntryId);\n\n        return newEntryId;\n    }\n\n    // function deleteEntry(uint256 _entryId)\n    //     whenNotPaused\n    //     external\n    // {\n    //     require(ERC721BasicToken.ownerOf(_entryId) == msg.sender);\n\n    //     uint256 entryIndex = allTokensIndex[_entryId];\n    //     uint256 lastEntryIndex = entries.length.sub(1);\n    //     Entry storage lastEntry = entries[lastEntryIndex];\n\n    //     entries[entryIndex] = lastEntry;\n    //     delete entries[lastEntryIndex];\n    //     entries.length--;\n\n    //     super._burn(msg.sender, _entryId);\n\n    //     EntryDeleted(msg.sender, _entryId);\n    // }\n\n\n    // function transferEntryOwnership(uint _entryId, address _newOwner)\n    //     whenNotPaused\n    //     external\n    // {\n    //     require (ERC721BasicToken.ownerOf(_entryId) == msg.sender);\n    //     // throw if balance?\n    //     //locked balance?\n    //     entries[_entryId].metainformation.owner = _newOwner;\n    //     entries[_entryId].metainformation.lastUpdateTime = block.timestamp;\n\n    //     super.removeTokenFrom(msg.sender, _entryId);\n    //     super.addTokenTo(_newOwner, _entryId);\n\n    //     EntryChangedOwner(_entryId, _newOwner);\n    // }\n\n    // function fundEntry(uint256 _entryId)\n    //     whenNotPaused\n    //     payable\n    //     public\n    // {\n    //     entries[_entryId].metainformation.accumulatedOverallEntryETH.add(msg.value);\n    //     registrySafe_.transfer(msg.value);\n\n    //     EntryFunded(_entryId, msg.sender);\n    // }\n\n    // function claimEntryFunds(uint256 _entryId, uint _amount)\n    //     whenNotPaused\n    //     public\n    // {\n    //     require(ERC721BasicToken.ownerOf(_entryId) == msg.sender);\n    //     require(_amount <= entries[_entryId].metainformation.currentEntryBalanceETH);\n    //     entries[_entryId].metainformation.currentEntryBalanceETH.sub(_amount);\n    //     RegistrySafe(registrySafe_).claim(msg.sender, _amount);\n\n    //     EntryFundsClaimed(_entryId, msg.sender, _amount);\n    // }\n}\n",
  "sourcePath": "/Users/litvintech/Projects/chaingear/contracts/registry/Registry.sol",
  "compiler": {
    "name": "solc",
    "version": "0.4.19+commit.c4cbbb05.Emscripten.clang"
  },
  "schemaVersion": "1.0.1",
  "updatedAt": "2018-04-18T22:29:39.927Z"
}