{
  "contractName": "RegistryCreator",
  "abi": [
    {
      "constant": true,
      "inputs": [],
      "name": "owner",
      "outputs": [
        {
          "name": "",
          "type": "address"
        }
      ],
      "payable": false,
      "stateMutability": "view",
      "type": "function"
    },
    {
      "constant": false,
      "inputs": [
        {
          "name": "newOwner",
          "type": "address"
        }
      ],
      "name": "transferOwnership",
      "outputs": [],
      "payable": false,
      "stateMutability": "nonpayable",
      "type": "function"
    },
    {
      "inputs": [
        {
          "name": "_builder",
          "type": "address"
        }
      ],
      "payable": false,
      "stateMutability": "nonpayable",
      "type": "constructor"
    },
    {
      "anonymous": false,
      "inputs": [
        {
          "indexed": true,
          "name": "previousOwner",
          "type": "address"
        },
        {
          "indexed": true,
          "name": "newOwner",
          "type": "address"
        }
      ],
      "name": "OwnershipTransferred",
      "type": "event"
    },
    {
      "constant": false,
      "inputs": [
        {
          "name": "_benefitiaries",
          "type": "address[]"
        },
        {
          "name": "_shares",
          "type": "uint256[]"
        },
        {
          "name": "_name",
          "type": "string"
        },
        {
          "name": "_symbol",
          "type": "string"
        },
        {
          "name": "_linkToABIOfEntriesContract",
          "type": "string"
        },
        {
          "name": "_bytecodeOfEntriesContract",
          "type": "bytes"
        }
      ],
      "name": "create",
      "outputs": [
        {
          "name": "newRegistryContract",
          "type": "address"
        }
      ],
      "payable": false,
      "stateMutability": "nonpayable",
      "type": "function"
    },
    {
      "constant": false,
      "inputs": [
        {
          "name": "_builder",
          "type": "address"
        }
      ],
      "name": "setBuilder",
      "outputs": [],
      "payable": false,
      "stateMutability": "nonpayable",
      "type": "function"
    },
    {
      "constant": true,
      "inputs": [],
      "name": "registryBuilder",
      "outputs": [
        {
          "name": "",
          "type": "address"
        }
      ],
      "payable": false,
      "stateMutability": "view",
      "type": "function"
    }
  ],
  "bytecode": "0x6060604052341561000f57600080fd5b604051602080615d1f83398101604052808051906020019091905050336000806101000a81548173ffffffffffffffffffffffffffffffffffffffff021916908373ffffffffffffffffffffffffffffffffffffffff16021790555080600160006101000a81548173ffffffffffffffffffffffffffffffffffffffff021916908373ffffffffffffffffffffffffffffffffffffffff16021790555050615c63806100bc6000396000f30060606040526004361062000073576000357c0100000000000000000000000000000000000000000000000000000000900463ffffffff16806337130e68146200007857806347c21a3c14620000d05780636c6d6a1714620001a55780638da5cb5b14620001e1578063f2fde38b1462000239575b600080fd5b34156200008457600080fd5b6200008e62000275565b604051808273ffffffffffffffffffffffffffffffffffffffff1673ffffffffffffffffffffffffffffffffffffffff16815260200191505060405180910390f35b3415620000dc57600080fd5b6200016360048080359060200190820180359060200191909192908035906020019082018035906020019190919290803590602001908201803590602001919091929080359060200190820180359060200191909192908035906020019082018035906020019190919290803590602001908201803590602001919091929050506200029f565b604051808273ffffffffffffffffffffffffffffffffffffffff1673ffffffffffffffffffffffffffffffffffffffff16815260200191505060405180910390f35b3415620001b157600080fd5b620001df600480803573ffffffffffffffffffffffffffffffffffffffff1690602001909190505062000449565b005b3415620001ed57600080fd5b620001f7620004e9565b604051808273ffffffffffffffffffffffffffffffffffffffff1673ffffffffffffffffffffffffffffffffffffffff16815260200191505060405180910390f35b34156200024557600080fd5b62000273600480803573ffffffffffffffffffffffffffffffffffffffff169060200190919050506200050e565b005b6000600160009054906101000a900473ffffffffffffffffffffffffffffffffffffffff16905090565b6000600160009054906101000a900473ffffffffffffffffffffffffffffffffffffffff1673ffffffffffffffffffffffffffffffffffffffff163373ffffffffffffffffffffffffffffffffffffffff16141515620002fe57600080fd5b620004348d8d808060200260200160405190810160405280939291908181526020018383602002808284378201915050505050508c8c808060200260200160405190810160405280939291908181526020018383602002808284378201915050505050508b8b8080601f0160208091040260200160405190810160405280939291908181526020018383808284378201915050505050508a8a8080601f01602080910402602001604051908101604052809392919081815260200183838082843782019150505050505089898080601f01602080910402602001604051908101604052809392919081815260200183838082843782019150505050505088888080601f01602080910402602001604051908101604052809392919081815260200183838082843782019150505050505062000665565b90508090509c9b505050505050505050505050565b6000809054906101000a900473ffffffffffffffffffffffffffffffffffffffff1673ffffffffffffffffffffffffffffffffffffffff163373ffffffffffffffffffffffffffffffffffffffff16141515620004a557600080fd5b80600160006101000a81548173ffffffffffffffffffffffffffffffffffffffff021916908373ffffffffffffffffffffffffffffffffffffffff16021790555050565b6000809054906101000a900473ffffffffffffffffffffffffffffffffffffffff1681565b6000809054906101000a900473ffffffffffffffffffffffffffffffffffffffff1673ffffffffffffffffffffffffffffffffffffffff163373ffffffffffffffffffffffffffffffffffffffff161415156200056a57600080fd5b600073ffffffffffffffffffffffffffffffffffffffff168173ffffffffffffffffffffffffffffffffffffffff1614151515620005a757600080fd5b8073ffffffffffffffffffffffffffffffffffffffff166000809054906101000a900473ffffffffffffffffffffffffffffffffffffffff1673ffffffffffffffffffffffffffffffffffffffff167f8be0079c531659141344cd1fd0a4f28419497f9722a3daafe3b4186f6b6457e060405160405180910390a3806000806101000a81548173ffffffffffffffffffffffffffffffffffffffff021916908373ffffffffffffffffffffffffffffffffffffffff16021790555050565b600086868686868662000677620009a0565b8080602001806020018060200180602001806020018060200187810387528d818151815260200191508051906020019060200280838360005b83811015620006cd578082015181840152602081019050620006b0565b5050505090500187810386528c818151815260200191508051906020019060200280838360005b8381101562000711578082015181840152602081019050620006f4565b5050505090500187810385528b818151815260200191508051906020019080838360005b838110156200075257808201518184015260208101905062000735565b50505050905090810190601f168015620007805780820380516001836020036101000a031916815260200191505b5087810384528a818151815260200191508051906020019080838360005b83811015620007bb5780820151818401526020810190506200079e565b50505050905090810190601f168015620007e95780820380516001836020036101000a031916815260200191505b50878103835289818151815260200191508051906020019080838360005b838110156200082457808201518184015260208101905062000807565b50505050905090810190601f168015620008525780820380516001836020036101000a031916815260200191505b50878103825288818151815260200191508051906020019080838360005b838110156200088d57808201518184015260208101905062000870565b50505050905090810190601f168015620008bb5780820380516001836020036101000a031916815260200191505b509c50505050505050505050505050604051809103906000f0801515620008e157600080fd5b90508073ffffffffffffffffffffffffffffffffffffffff1663f2fde38b336040518263ffffffff167c0100000000000000000000000000000000000000000000000000000000028152600401808273ffffffffffffffffffffffffffffffffffffffff1673ffffffffffffffffffffffffffffffffffffffff168152602001915050600060405180830381600087803b15156200097e57600080fd5b6102c65a03f115156200099057600080fd5b5050508090509695505050505050565b60405161528680620009b283390190560060606040526000805560006001556000600560146101000a81548160ff02191690831515021790555060405162005286380380620052868339810160405280805182019190602001805182019190602001805182019190602001805182019190602001805182019190602001805182019190505060008686868683836000815183511415156200008e57600080fd5b600090505b8251811015620000fb57620000ed8382815181101515620000b057fe5b906020019060200201518383815181101515620000c957fe5b90602001906020020151620002ef64010000000002620045ba176401000000009004565b808060010191505062000093565b50505033600560006101000a81548173ffffffffffffffffffffffffffffffffffffffff021916908373ffffffffffffffffffffffffffffffffffffffff16021790555032600660006101000a81548173ffffffffffffffffffffffffffffffffffffffff021916908373ffffffffffffffffffffffffffffffffffffffff16021790555081601290805190602001906200019892919062000482565b508060139080519060200190620001b192919062000482565b50505050506000600660146101000a81548160ff02191690836002811115620001d657fe5b02179055508460089080519060200190620001f392919062000482565b5082600c90805190602001906200020c92919062000482565b506200021762000509565b604051809103906000f08015156200022e57600080fd5b600d60006101000a81548173ffffffffffffffffffffffffffffffffffffffff021916908373ffffffffffffffffffffffffffffffffffffffff16021790555081516020830181816000f09250505060008173ffffffffffffffffffffffffffffffffffffffff1614151515620002a157fe5b80600b60006101000a81548173ffffffffffffffffffffffffffffffffffffffff021916908373ffffffffffffffffffffffffffffffffffffffff1602179055505050505050505062000571565b600073ffffffffffffffffffffffffffffffffffffffff168273ffffffffffffffffffffffffffffffffffffffff16141515156200032c57600080fd5b6000811115156200033c57600080fd5b6000600260008473ffffffffffffffffffffffffffffffffffffffff1673ffffffffffffffffffffffffffffffffffffffff168152602001908152602001600020541415156200038b57600080fd5b60048054806001018281620003a191906200051a565b9160005260206000209001600084909190916101000a81548173ffffffffffffffffffffffffffffffffffffffff021916908373ffffffffffffffffffffffffffffffffffffffff1602179055505080600260008473ffffffffffffffffffffffffffffffffffffffff1673ffffffffffffffffffffffffffffffffffffffff168152602001908152602001600020819055506200045981600054620004636401000000000262003da3179091906401000000009004565b6000819055505050565b60008082840190508381101515156200047857fe5b8091505092915050565b828054600181600116156101000203166002900490600052602060002090601f016020900481019282601f10620004c557805160ff1916838001178555620004f6565b82800160010185558215620004f6579182015b82811115620004f5578251825591602001919060010190620004d8565b5b50905062000505919062000549565b5090565b6040516105948062004cf283390190565b815481835581811511620005445781836000526020600020918201910162000543919062000549565b5b505050565b6200056e91905b808211156200056a57600081600090555060010162000550565b5090565b90565b61477180620005816000396000f30060606040526004361061027d576000357c0100000000000000000000000000000000000000000000000000000000900463ffffffff16806304c437811461027f57806306fdde031461029d578063081812fc1461032b578063095ea7b31461038e57806311f7516c146103d05780631654d169146103f357806318160ddd14610481578063189efc7c146104aa57806323b872dd146104d157806327f5f1b6146105325780632f745c5914610555578063351c6bbe146105ab5780633a1a3d95146105e25780633a98ef391461060b5780633f4ba83a1461063457806341c39e5c1461064957806342842e0e146106d7578063490a08eb146107385780634e71d92d146107c65780634f558e79146107db5780634f6ccce7146108165780635c975abb1461084d57806363037b0c1461087a5780636352211e146108dd578063683ae65b1461094057806368b345621461098257806370a08231146109ab57806376c48c00146109f85780637b49376814610a3157806383197ef014610a735780638456cb5914610a885780638da5cb5b14610a9d57806395d89b4114610af25780639852595c14610b80578063a1f14b2714610bcd578063a22cb46514610bfb578063aef10f0814610c3f578063b88d4fde14610c94578063bc044e1814610d38578063bf3fde3314610d68578063c81225eb14610dbd578063c87b56dd14610deb578063ce7c2ac214610e87578063d24f707614610ed4578063d4af2ab814610ef7578063dc5853c714610f23578063e33b7de314610f78578063e540944014610fa1578063e59f0cc214610fb9578063e985e9c514610fe9578063f2fde38b14611059578063f5074f4114611092578063f5ec4e50146110cb575b005b610287611135565b6040518082815260200191505060405180910390f35b34156102a857600080fd5b6102b0611316565b6040518080602001828103825283818151815260200191508051906020019080838360005b838110156102f05780820151818401526020810190506102d5565b50505050905090810190601f16801561031d5780820380516001836020036101000a031916815260200191505b509250505060405180910390f35b341561033657600080fd5b61034c60048080359060200190919050506113be565b604051808273ffffffffffffffffffffffffffffffffffffffff1673ffffffffffffffffffffffffffffffffffffffff16815260200191505060405180910390f35b341561039957600080fd5b6103ce600480803573ffffffffffffffffffffffffffffffffffffffff169060200190919080359060200190919050506113fb565b005b34156103db57600080fd5b6103f160048080359060200190919050506115c1565b005b34156103fe57600080fd5b610406611754565b6040518080602001828103825283818151815260200191508051906020019080838360005b8381101561044657808201518184015260208101905061042b565b50505050905090810190601f1680156104735780820380516001836020036101000a031916815260200191505b509250505060405180910390f35b341561048c57600080fd5b6104946117fc565b6040518082815260200191505060405180910390f35b34156104b557600080fd5b6104cf600480803560001916906020019091905050611809565b005b34156104dc57600080fd5b610530600480803573ffffffffffffffffffffffffffffffffffffffff1690602001909190803573ffffffffffffffffffffffffffffffffffffffff169060200190919080359060200190919050506118ab565b005b341561053d57600080fd5b61055360048080359060200190919050506119c2565b005b341561056057600080fd5b610595600480803573ffffffffffffffffffffffffffffffffffffffff16906020019091908035906020019091905050611a69565b6040518082815260200191505060405180910390f35b34156105b657600080fd5b6105be611ae1565b604051808260028111156105ce57fe5b60ff16815260200191505060405180910390f35b34156105ed57600080fd5b6105f5611af8565b6040518082815260200191505060405180910390f35b341561061657600080fd5b61061e611b02565b6040518082815260200191505060405180910390f35b341561063f57600080fd5b610647611b08565b005b341561065457600080fd5b61065c611bc8565b6040518080602001828103825283818151815260200191508051906020019080838360005b8381101561069c578082015181840152602081019050610681565b50505050905090810190601f1680156106c95780820380516001836020036101000a031916815260200191505b509250505060405180910390f35b34156106e257600080fd5b610736600480803573ffffffffffffffffffffffffffffffffffffffff1690602001909190803573ffffffffffffffffffffffffffffffffffffffff16906020019091908035906020019091905050611c70565b005b341561074357600080fd5b61074b611ca8565b6040518080602001828103825283818151815260200191508051906020019080838360005b8381101561078b578082015181840152602081019050610770565b50505050905090810190601f1680156107b85780820380516001836020036101000a031916815260200191505b509250505060405180910390f35b34156107d157600080fd5b6107d9611d50565b005b34156107e657600080fd5b6107fc6004808035906020019091905050611fb8565b604051808215151515815260200191505060405180910390f35b341561082157600080fd5b610837600480803590602001909190505061202a565b6040518082815260200191505060405180910390f35b341561085857600080fd5b610860612063565b604051808215151515815260200191505060405180910390f35b341561088557600080fd5b61089b6004808035906020019091905050612076565b604051808273ffffffffffffffffffffffffffffffffffffffff1673ffffffffffffffffffffffffffffffffffffffff16815260200191505060405180910390f35b34156108e857600080fd5b6108fe60048080359060200190919050506120b5565b604051808273ffffffffffffffffffffffffffffffffffffffff1673ffffffffffffffffffffffffffffffffffffffff16815260200191505060405180910390f35b341561094b57600080fd5b610980600480803590602001909190803573ffffffffffffffffffffffffffffffffffffffff16906020019091905050612133565b005b341561098d57600080fd5b6109956122ec565b6040518082815260200191505060405180910390f35b34156109b657600080fd5b6109e2600480803573ffffffffffffffffffffffffffffffffffffffff1690602001909190505061230b565b6040518082815260200191505060405180910390f35b3415610a0357600080fd5b610a2f600480803573ffffffffffffffffffffffffffffffffffffffff1690602001909190505061238f565b005b3415610a3c57600080fd5b610a71600480803590602001909190803573ffffffffffffffffffffffffffffffffffffffff1690602001909190505061244b565b005b3415610a7e57600080fd5b610a8661276f565b005b3415610a9357600080fd5b610a9b612806565b005b3415610aa857600080fd5b610ab06128c7565b604051808273ffffffffffffffffffffffffffffffffffffffff1673ffffffffffffffffffffffffffffffffffffffff16815260200191505060405180910390f35b3415610afd57600080fd5b610b056128ed565b6040518080602001828103825283818151815260200191508051906020019080838360005b83811015610b45578082015181840152602081019050610b2a565b50505050905090810190601f168015610b725780820380516001836020036101000a031916815260200191505b509250505060405180910390f35b3415610b8b57600080fd5b610bb7600480803573ffffffffffffffffffffffffffffffffffffffff16906020019091905050612995565b6040518082815260200191505060405180910390f35b3415610bd857600080fd5b610bf9600480803590602001908201803590602001919091929050506129ad565b005b3415610c0657600080fd5b610c3d600480803573ffffffffffffffffffffffffffffffffffffffff169060200190919080351515906020019091905050612a39565b005b3415610c4a57600080fd5b610c52612b75565b604051808273ffffffffffffffffffffffffffffffffffffffff1673ffffffffffffffffffffffffffffffffffffffff16815260200191505060405180910390f35b3415610c9f57600080fd5b610d36600480803573ffffffffffffffffffffffffffffffffffffffff1690602001909190803573ffffffffffffffffffffffffffffffffffffffff1690602001909190803590602001909190803590602001908201803590602001908080601f01602080910402602001604051908101604052809392919081815260200183838082843782019150505050505091905050612b9f565b005b3415610d4357600080fd5b610d66600480803590602001909190803560001916906020019091905050612bde565b005b3415610d7357600080fd5b610d7b612cdc565b604051808273ffffffffffffffffffffffffffffffffffffffff1673ffffffffffffffffffffffffffffffffffffffff16815260200191505060405180910390f35b3415610dc857600080fd5b610de960048080359060200190820180359060200191909192905050612d06565b005b3415610df657600080fd5b610e0c6004808035906020019091905050612d9d565b6040518080602001828103825283818151815260200191508051906020019080838360005b83811015610e4c578082015181840152602081019050610e31565b50505050905090810190601f168015610e795780820380516001836020036101000a031916815260200191505b509250505060405180910390f35b3415610e9257600080fd5b610ebe600480803573ffffffffffffffffffffffffffffffffffffffff16906020019091905050612e6c565b6040518082815260200191505060405180910390f35b3415610edf57600080fd5b610ef56004808035906020019091905050612e84565b005b3415610f0257600080fd5b610f216004808035906020019091908035906020019091905050612eea565b005b3415610f2e57600080fd5b610f36613205565b604051808273ffffffffffffffffffffffffffffffffffffffff1673ffffffffffffffffffffffffffffffffffffffff16815260200191505060405180910390f35b3415610f8357600080fd5b610f8b61322f565b6040518082815260200191505060405180910390f35b610fb76004808035906020019091905050613235565b005b3415610fc457600080fd5b610fe76004808035906020019091908035600019169060200190919050506133cd565b005b3415610ff457600080fd5b61103f600480803573ffffffffffffffffffffffffffffffffffffffff1690602001909190803573ffffffffffffffffffffffffffffffffffffffff16906020019091905050613464565b604051808215151515815260200191505060405180910390f35b341561106457600080fd5b611090600480803573ffffffffffffffffffffffffffffffffffffffff169060200190919050506134f8565b005b341561109d57600080fd5b6110c9600480803573ffffffffffffffffffffffffffffffffffffffff16906020019091905050613650565b005b34156110d657600080fd5b6110de6136c5565b6040518080602001828103825283818151815260200191508051906020019060200280838360005b83811015611121578082015181840152602081019050611106565b505050509050019250505060405180910390f35b600080600560149054906101000a900460ff1615151561115457600080fd5b6000600281111561116157fe5b600660149054906101000a900460ff16600281111561117c57fe5b14156111df57600660009054906101000a900473ffffffffffffffffffffffffffffffffffffffff1673ffffffffffffffffffffffffffffffffffffffff163373ffffffffffffffffffffffffffffffffffffffff161415156111de57600080fd5b5b600754341415156111ef57600080fd5b600b60009054906101000a900473ffffffffffffffffffffffffffffffffffffffff1673ffffffffffffffffffffffffffffffffffffffff166304c437816000604051602001526040518163ffffffff167c0100000000000000000000000000000000000000000000000000000000028152600401602060405180830381600087803b151561127d57600080fd5b6102c65a03f1151561128e57600080fd5b5050506040518051905090506112a43382613727565b7fe9a0a2aca9c41fae94448dec8914ad73e4d00ebdc2427e61f3fc66919f4ffa2a3382604051808373ffffffffffffffffffffffffffffffffffffffff1673ffffffffffffffffffffffffffffffffffffffff1681526020018281526020019250505060405180910390a18091505090565b61131e6143d0565b60128054600181600116156101000203166002900480601f0160208091040260200160405190810160405280929190818152602001828054600181600116156101000203166002900480156113b45780601f10611389576101008083540402835291602001916113b4565b820191906000526020600020905b81548152906001019060200180831161139757829003601f168201915b5050505050905090565b6000600f600083815260200190815260200160002060009054906101000a900473ffffffffffffffffffffffffffffffffffffffff169050919050565b6000611406826120b5565b90508073ffffffffffffffffffffffffffffffffffffffff168373ffffffffffffffffffffffffffffffffffffffff161415151561144357600080fd5b8073ffffffffffffffffffffffffffffffffffffffff163373ffffffffffffffffffffffffffffffffffffffff16148061148357506114828133613464565b5b151561148e57600080fd5b600073ffffffffffffffffffffffffffffffffffffffff166114af836113be565b73ffffffffffffffffffffffffffffffffffffffff161415806114ff5750600073ffffffffffffffffffffffffffffffffffffffff168373ffffffffffffffffffffffffffffffffffffffff1614155b156115bc5782600f600084815260200190815260200160002060006101000a81548173ffffffffffffffffffffffffffffffffffffffff021916908373ffffffffffffffffffffffffffffffffffffffff1602179055508273ffffffffffffffffffffffffffffffffffffffff168173ffffffffffffffffffffffffffffffffffffffff167f8c5be1e5ebec7d5bd14f71427d1e84f3dd0314c0f7b2291e5b200ac8c7c3b925846040518082815260200191505060405180910390a35b505050565b6000600560149054906101000a900460ff161515156115df57600080fd5b3373ffffffffffffffffffffffffffffffffffffffff166115ff836120b5565b73ffffffffffffffffffffffffffffffffffffffff1614151561162157600080fd5b60176000838152602001908152602001600020549050600b60009054906101000a900473ffffffffffffffffffffffffffffffffffffffff1673ffffffffffffffffffffffffffffffffffffffff166311f7516c826040518263ffffffff167c010000000000000000000000000000000000000000000000000000000002815260040180828152602001915050600060405180830381600087803b15156116c757600080fd5b6102c65a03f115156116d857600080fd5b5050506116e5338361377b565b7f863d345cb8a315b82cf25ba9b949c03407c0298f0b316ee400d4a2256a96a1943383604051808373ffffffffffffffffffffffffffffffffffffffff1673ffffffffffffffffffffffffffffffffffffffff1681526020018281526020019250505060405180910390a15050565b61175c6143d0565b60088054600181600116156101000203166002900480601f0160208091040260200160405190810160405280929190818152602001828054600181600116156101000203166002900480156117f25780601f106117c7576101008083540402835291602001916117f2565b820191906000526020600020905b8154815290600101906020018083116117d557829003601f168201915b5050505050905090565b6000601680549050905090565b600660009054906101000a900473ffffffffffffffffffffffffffffffffffffffff1673ffffffffffffffffffffffffffffffffffffffff163373ffffffffffffffffffffffffffffffffffffffff1614151561186557600080fd5b6010602060ff161115151561187957600080fd5b600a805480600101828161188d91906143e4565b91600052602060002090016000839091909150906000191690555050565b806118b633826138b6565b15156118c157600080fd5b600073ffffffffffffffffffffffffffffffffffffffff168473ffffffffffffffffffffffffffffffffffffffff16141515156118fd57600080fd5b600073ffffffffffffffffffffffffffffffffffffffff168373ffffffffffffffffffffffffffffffffffffffff161415151561193957600080fd5b611943848361394b565b61194d8483613ab4565b6119578383613ccf565b8273ffffffffffffffffffffffffffffffffffffffff168473ffffffffffffffffffffffffffffffffffffffff167fddf252ad1be2c89b69c2b068fc378daa952ba7f163c4a11628f55a4df523b3ef846040518082815260200191505060405180910390a350505050565b600660009054906101000a900473ffffffffffffffffffffffffffffffffffffffff1673ffffffffffffffffffffffffffffffffffffffff163373ffffffffffffffffffffffffffffffffffffffff16141515611a1e57600080fd5b80600280811115611a2b57fe5b10151515611a3857600080fd5b806002811115611a4457fe5b600660146101000a81548160ff02191690836002811115611a6157fe5b021790555050565b6000611a748361230b565b82101515611a8157600080fd5b601460008473ffffffffffffffffffffffffffffffffffffffff1673ffffffffffffffffffffffffffffffffffffffff16815260200190815260200160002082815481101515611acd57fe5b906000526020600020900154905092915050565b6000600660149054906101000a900460ff16905090565b6000600754905090565b60005481565b600560009054906101000a900473ffffffffffffffffffffffffffffffffffffffff1673ffffffffffffffffffffffffffffffffffffffff163373ffffffffffffffffffffffffffffffffffffffff16141515611b6457600080fd5b600560149054906101000a900460ff161515611b7f57600080fd5b6000600560146101000a81548160ff0219169083151502179055507f7805862f689e2f13df9f062ff482ad3ad112aca9e0847911ed832e158c525b3360405160405180910390a1565b611bd06143d0565b60098054600181600116156101000203166002900480601f016020809104026020016040519081016040528092919081815260200182805460018160011615610100020316600290048015611c665780601f10611c3b57610100808354040283529160200191611c66565b820191906000526020600020905b815481529060010190602001808311611c4957829003601f168201915b5050505050905090565b80611c7b33826138b6565b1515611c8657600080fd5b611ca28484846020604051908101604052806000815250612b9f565b50505050565b611cb06143d0565b600c8054600181600116156101000203166002900480601f016020809104026020016040519081016040528092919081815260200182805460018160011615610100020316600290048015611d465780601f10611d1b57610100808354040283529160200191611d46565b820191906000526020600020905b815481529060010190602001808311611d2957829003601f168201915b5050505050905090565b60008060003392506000600260008573ffffffffffffffffffffffffffffffffffffffff1673ffffffffffffffffffffffffffffffffffffffff16815260200190815260200160002054111515611da657600080fd5b611dd26001543073ffffffffffffffffffffffffffffffffffffffff1631613da390919063ffffffff16565b9150611e8b600360008573ffffffffffffffffffffffffffffffffffffffff1673ffffffffffffffffffffffffffffffffffffffff16815260200190815260200160002054611e7d600054611e6f600260008973ffffffffffffffffffffffffffffffffffffffff1673ffffffffffffffffffffffffffffffffffffffff1681526020019081526020016000205487613dc190919063ffffffff16565b613dfc90919063ffffffff16565b613e1790919063ffffffff16565b905060008114151515611e9d57600080fd5b803073ffffffffffffffffffffffffffffffffffffffff163110151515611ec357600080fd5b611f1581600360008673ffffffffffffffffffffffffffffffffffffffff1673ffffffffffffffffffffffffffffffffffffffff16815260200190815260200160002054613da390919063ffffffff16565b600360008573ffffffffffffffffffffffffffffffffffffffff1673ffffffffffffffffffffffffffffffffffffffff16815260200190815260200160002081905550611f6d81600154613da390919063ffffffff16565b6001819055508273ffffffffffffffffffffffffffffffffffffffff166108fc829081150290604051600060405180830381858888f193505050501515611fb357600080fd5b505050565b600080600e600084815260200190815260200160002060009054906101000a900473ffffffffffffffffffffffffffffffffffffffff169050600073ffffffffffffffffffffffffffffffffffffffff168173ffffffffffffffffffffffffffffffffffffffff161415915050919050565b60006120346117fc565b8210151561204157600080fd5b60168281548110151561205057fe5b9060005260206000209001549050919050565b600560149054906101000a900460ff1681565b60048181548110151561208557fe5b90600052602060002090016000915054906101000a900473ffffffffffffffffffffffffffffffffffffffff1681565b600080600e600084815260200190815260200160002060009054906101000a900473ffffffffffffffffffffffffffffffffffffffff169050600073ffffffffffffffffffffffffffffffffffffffff168173ffffffffffffffffffffffffffffffffffffffff161415151561212a57600080fd5b80915050919050565b600560149054906101000a900460ff1615151561214f57600080fd5b3373ffffffffffffffffffffffffffffffffffffffff1661216f836120b5565b73ffffffffffffffffffffffffffffffffffffffff1614151561219157600080fd5b600b60009054906101000a900473ffffffffffffffffffffffffffffffffffffffff1673ffffffffffffffffffffffffffffffffffffffff1663dfab882383836040518363ffffffff167c0100000000000000000000000000000000000000000000000000000000028152600401808381526020018273ffffffffffffffffffffffffffffffffffffffff1673ffffffffffffffffffffffffffffffffffffffff16815260200192505050600060405180830381600087803b151561225557600080fd5b6102c65a03f1151561226657600080fd5b5050506122733383613ab4565b61227d8183613ccf565b7fe93f305b235917d8ff8103ff4bb045df5935484b45bfd248c7fec5f04fecf92d8282604051808381526020018273ffffffffffffffffffffffffffffffffffffffff1673ffffffffffffffffffffffffffffffffffffffff1681526020019250505060405180910390a15050565b60003073ffffffffffffffffffffffffffffffffffffffff1631905090565b60008073ffffffffffffffffffffffffffffffffffffffff168273ffffffffffffffffffffffffffffffffffffffff161415151561234857600080fd5b601060008373ffffffffffffffffffffffffffffffffffffffff1673ffffffffffffffffffffffffffffffffffffffff168152602001908152602001600020549050919050565b600560149054906101000a900460ff161515156123ab57600080fd5b600560009054906101000a900473ffffffffffffffffffffffffffffffffffffffff1673ffffffffffffffffffffffffffffffffffffffff163373ffffffffffffffffffffffffffffffffffffffff1614151561240757600080fd5b80600660006101000a81548173ffffffffffffffffffffffffffffffffffffffff021916908373ffffffffffffffffffffffffffffffffffffffff16021790555050565b6000600560009054906101000a900473ffffffffffffffffffffffffffffffffffffffff1673ffffffffffffffffffffffffffffffffffffffff163373ffffffffffffffffffffffffffffffffffffffff161415156124a957600080fd5b6004838154811015156124b857fe5b906000526020600020900160009054906101000a900473ffffffffffffffffffffffffffffffffffffffff169050600260008273ffffffffffffffffffffffffffffffffffffffff1673ffffffffffffffffffffffffffffffffffffffff16815260200190815260200160002054600260008473ffffffffffffffffffffffffffffffffffffffff1673ffffffffffffffffffffffffffffffffffffffff16815260200190815260200160002081905550600360008273ffffffffffffffffffffffffffffffffffffffff1673ffffffffffffffffffffffffffffffffffffffff16815260200190815260200160002054600360008473ffffffffffffffffffffffffffffffffffffffff1673ffffffffffffffffffffffffffffffffffffffff16815260200190815260200160002081905550816004848154811015156125fc57fe5b906000526020600020900160006101000a81548173ffffffffffffffffffffffffffffffffffffffff021916908373ffffffffffffffffffffffffffffffffffffffff160217905550600260008273ffffffffffffffffffffffffffffffffffffffff1673ffffffffffffffffffffffffffffffffffffffff16815260200190815260200160002060009055600360008273ffffffffffffffffffffffffffffffffffffffff1673ffffffffffffffffffffffffffffffffffffffff168152602001908152602001600020600090557fa1982f3fe3fa9dba8ce5bc91687e2ab0850b0431cddacc1a249b2ae0390b912f838284604051808481526020018373ffffffffffffffffffffffffffffffffffffffff1673ffffffffffffffffffffffffffffffffffffffff1681526020018273ffffffffffffffffffffffffffffffffffffffff1673ffffffffffffffffffffffffffffffffffffffff168152602001935050505060405180910390a1505050565b600560009054906101000a900473ffffffffffffffffffffffffffffffffffffffff1673ffffffffffffffffffffffffffffffffffffffff163373ffffffffffffffffffffffffffffffffffffffff161415156127cb57600080fd5b600560009054906101000a900473ffffffffffffffffffffffffffffffffffffffff1673ffffffffffffffffffffffffffffffffffffffff16ff5b600560009054906101000a900473ffffffffffffffffffffffffffffffffffffffff1673ffffffffffffffffffffffffffffffffffffffff163373ffffffffffffffffffffffffffffffffffffffff1614151561286257600080fd5b600560149054906101000a900460ff1615151561287e57600080fd5b6001600560146101000a81548160ff0219169083151502179055507f6985a02210a168e66602d3235cb6db0e70f92b3ba4d376a33c0f3d9434bff62560405160405180910390a1565b600560009054906101000a900473ffffffffffffffffffffffffffffffffffffffff1681565b6128f56143d0565b60138054600181600116156101000203166002900480601f01602080910402602001604051908101604052809291908181526020018280546001816001161561010002031660029004801561298b5780601f106129605761010080835404028352916020019161298b565b820191906000526020600020905b81548152906001019060200180831161296e57829003601f168201915b5050505050905090565b60036020528060005260406000206000915090505481565b6000600660009054906101000a900473ffffffffffffffffffffffffffffffffffffffff1673ffffffffffffffffffffffffffffffffffffffff163373ffffffffffffffffffffffffffffffffffffffff16141515612a0b57600080fd5b8282905090506101008111151515612a2257600080fd5b828260099190612a33929190614410565b50505050565b3373ffffffffffffffffffffffffffffffffffffffff168273ffffffffffffffffffffffffffffffffffffffff1614151515612a7457600080fd5b80601160003373ffffffffffffffffffffffffffffffffffffffff1673ffffffffffffffffffffffffffffffffffffffff16815260200190815260200160002060008473ffffffffffffffffffffffffffffffffffffffff1673ffffffffffffffffffffffffffffffffffffffff16815260200190815260200160002060006101000a81548160ff0219169083151502179055508173ffffffffffffffffffffffffffffffffffffffff163373ffffffffffffffffffffffffffffffffffffffff167f17307eab39ab6107e8899845ad3d59bd9653f200f220920489ca2b5937696c3183604051808215151515815260200191505060405180910390a35050565b6000600d60009054906101000a900473ffffffffffffffffffffffffffffffffffffffff16905090565b81612baa33826138b6565b1515612bb557600080fd5b612bc08585856118ab565b612bcc85858585613e30565b1515612bd757600080fd5b5050505050565b600080600660009054906101000a900473ffffffffffffffffffffffffffffffffffffffff1673ffffffffffffffffffffffffffffffffffffffff163373ffffffffffffffffffffffffffffffffffffffff16141515612c3d57600080fd5b6010602060ff1611151515612c5157600080fd5b6001600a80549050039150600a82815481101515612c6b57fe5b906000526020600020900154905080600a85815481101515612c8957fe5b906000526020600020900181600019169055506000600a83815481101515612cad57fe5b90600052602060002090018160001916905550600a805480919060019003612cd59190614490565b5050505050565b6000600b60009054906101000a900473ffffffffffffffffffffffffffffffffffffffff16905090565b6000600660009054906101000a900473ffffffffffffffffffffffffffffffffffffffff1673ffffffffffffffffffffffffffffffffffffffff163373ffffffffffffffffffffffffffffffffffffffff16141515612d6457600080fd5b828290509050600081118015612d7b575060208111155b1515612d8657600080fd5b828260089190612d97929190614410565b50505050565b612da56143d0565b612dae82611fb8565b1515612db957600080fd5b601860008381526020019081526020016000208054600181600116156101000203166002900480601f016020809104026020016040519081016040528092919081815260200182805460018160011615610100020316600290048015612e605780601f10612e3557610100808354040283529160200191612e60565b820191906000526020600020905b815481529060010190602001808311612e4357829003601f168201915b50505050509050919050565b60026020528060005260406000206000915090505481565b600660009054906101000a900473ffffffffffffffffffffffffffffffffffffffff1673ffffffffffffffffffffffffffffffffffffffff163373ffffffffffffffffffffffffffffffffffffffff16141515612ee057600080fd5b8060078190555050565b600560149054906101000a900460ff16151515612f0657600080fd5b3373ffffffffffffffffffffffffffffffffffffffff16612f26836120b5565b73ffffffffffffffffffffffffffffffffffffffff16141515612f4857600080fd5b600b60009054906101000a900473ffffffffffffffffffffffffffffffffffffffff1673ffffffffffffffffffffffffffffffffffffffff1663b08fd8ef836000604051602001526040518263ffffffff167c010000000000000000000000000000000000000000000000000000000002815260040180828152602001915050602060405180830381600087803b1515612fe157600080fd5b6102c65a03f11515612ff257600080fd5b50505060405180519050811115151561300a57600080fd5b600b60009054906101000a900473ffffffffffffffffffffffffffffffffffffffff1673ffffffffffffffffffffffffffffffffffffffff1663d02ac66183836040518363ffffffff167c01000000000000000000000000000000000000000000000000000000000281526004018083815260200182815260200192505050600060405180830381600087803b15156130a257600080fd5b6102c65a03f115156130b357600080fd5b505050600d60009054906101000a900473ffffffffffffffffffffffffffffffffffffffff1673ffffffffffffffffffffffffffffffffffffffff1663aad3ec9633836040518363ffffffff167c0100000000000000000000000000000000000000000000000000000000028152600401808373ffffffffffffffffffffffffffffffffffffffff1673ffffffffffffffffffffffffffffffffffffffff16815260200182815260200192505050600060405180830381600087803b151561317a57600080fd5b6102c65a03f1151561318b57600080fd5b5050507f4f04130f46dd1e00a82dae1ffa48c13a8cabe468b42b9cc102a766711bd63353823383604051808481526020018373ffffffffffffffffffffffffffffffffffffffff1673ffffffffffffffffffffffffffffffffffffffff168152602001828152602001935050505060405180910390a15050565b6000600660009054906101000a900473ffffffffffffffffffffffffffffffffffffffff16905090565b60015481565b600560149054906101000a900460ff1615151561325157600080fd5b600b60009054906101000a900473ffffffffffffffffffffffffffffffffffffffff1673ffffffffffffffffffffffffffffffffffffffff1663fbfd6e4182346040518363ffffffff167c01000000000000000000000000000000000000000000000000000000000281526004018083815260200182815260200192505050600060405180830381600087803b15156132e957600080fd5b6102c65a03f115156132fa57600080fd5b505050600d60009054906101000a900473ffffffffffffffffffffffffffffffffffffffff1673ffffffffffffffffffffffffffffffffffffffff166108fc349081150290604051600060405180830381858888f19350505050151561335f57600080fd5b7f9566bda72037bf9c5595eca9767ce805f0e65570522fcef215d1a5587455ccd88133604051808381526020018273ffffffffffffffffffffffffffffffffffffffff1673ffffffffffffffffffffffffffffffffffffffff1681526020019250505060405180910390a150565b600660009054906101000a900473ffffffffffffffffffffffffffffffffffffffff1673ffffffffffffffffffffffffffffffffffffffff163373ffffffffffffffffffffffffffffffffffffffff1614151561342957600080fd5b6010602060ff161115151561343d57600080fd5b80600a8381548110151561344d57fe5b906000526020600020900181600019169055505050565b6000601160008473ffffffffffffffffffffffffffffffffffffffff1673ffffffffffffffffffffffffffffffffffffffff16815260200190815260200160002060008373ffffffffffffffffffffffffffffffffffffffff1673ffffffffffffffffffffffffffffffffffffffff16815260200190815260200160002060009054906101000a900460ff16905092915050565b600560009054906101000a900473ffffffffffffffffffffffffffffffffffffffff1673ffffffffffffffffffffffffffffffffffffffff163373ffffffffffffffffffffffffffffffffffffffff1614151561355457600080fd5b600073ffffffffffffffffffffffffffffffffffffffff168173ffffffffffffffffffffffffffffffffffffffff161415151561359057600080fd5b8073ffffffffffffffffffffffffffffffffffffffff16600560009054906101000a900473ffffffffffffffffffffffffffffffffffffffff1673ffffffffffffffffffffffffffffffffffffffff167f8be0079c531659141344cd1fd0a4f28419497f9722a3daafe3b4186f6b6457e060405160405180910390a380600560006101000a81548173ffffffffffffffffffffffffffffffffffffffff021916908373ffffffffffffffffffffffffffffffffffffffff16021790555050565b600560009054906101000a900473ffffffffffffffffffffffffffffffffffffffff1673ffffffffffffffffffffffffffffffffffffffff163373ffffffffffffffffffffffffffffffffffffffff161415156136ac57600080fd5b8073ffffffffffffffffffffffffffffffffffffffff16ff5b6136cd6144bc565b600a80548060200260200160405190810160405280929190818152602001828054801561371d57602002820191906000526020600020905b81546000191681526020019060010190808311613705575b5050505050905090565b6137318282614006565b60168054905060176000838152602001908152602001600020819055506016805480600101828161376291906144d0565b9160005260206000209001600083909190915055505050565b600080600061378a85856140b6565b6000601860008681526020019081526020016000208054600181600116156101000203166002900490501415156137db576018600085815260200190815260200160002060006137da91906144fc565b5b6017600085815260200190815260200160002054925061380a6001601680549050613e1790919063ffffffff16565b915060168281548110151561381b57fe5b90600052602060002090015490508060168481548110151561383957fe5b906000526020600020900181905550600060168381548110151561385957fe5b906000526020600020900181905550601680548091906001900361387d9190614544565b50600060176000868152602001908152602001600020819055508260176000838152602001908152602001600020819055505050505050565b6000806138c2836120b5565b90508073ffffffffffffffffffffffffffffffffffffffff168473ffffffffffffffffffffffffffffffffffffffff16148061393157508373ffffffffffffffffffffffffffffffffffffffff16613919846113be565b73ffffffffffffffffffffffffffffffffffffffff16145b8061394257506139418185613464565b5b91505092915050565b8173ffffffffffffffffffffffffffffffffffffffff1661396b826120b5565b73ffffffffffffffffffffffffffffffffffffffff1614151561398d57600080fd5b600073ffffffffffffffffffffffffffffffffffffffff16600f600083815260200190815260200160002060009054906101000a900473ffffffffffffffffffffffffffffffffffffffff1673ffffffffffffffffffffffffffffffffffffffff16141515613ab0576000600f600083815260200190815260200160002060006101000a81548173ffffffffffffffffffffffffffffffffffffffff021916908373ffffffffffffffffffffffffffffffffffffffff160217905550600073ffffffffffffffffffffffffffffffffffffffff168273ffffffffffffffffffffffffffffffffffffffff167f8c5be1e5ebec7d5bd14f71427d1e84f3dd0314c0f7b2291e5b200ac8c7c3b925836040518082815260200191505060405180910390a35b5050565b6000806000613ac38585614134565b60156000858152602001908152602001600020549250613b2f6001601460008873ffffffffffffffffffffffffffffffffffffffff1673ffffffffffffffffffffffffffffffffffffffff16815260200190815260200160002080549050613e1790919063ffffffff16565b9150601460008673ffffffffffffffffffffffffffffffffffffffff1673ffffffffffffffffffffffffffffffffffffffff16815260200190815260200160002082815481101515613b7d57fe5b906000526020600020900154905080601460008773ffffffffffffffffffffffffffffffffffffffff1673ffffffffffffffffffffffffffffffffffffffff16815260200190815260200160002084815481101515613bd857fe5b9060005260206000209001819055506000601460008773ffffffffffffffffffffffffffffffffffffffff1673ffffffffffffffffffffffffffffffffffffffff16815260200190815260200160002083815481101515613c3557fe5b906000526020600020900181905550601460008673ffffffffffffffffffffffffffffffffffffffff1673ffffffffffffffffffffffffffffffffffffffff168152602001908152602001600020805480919060019003613c969190614544565b50600060156000868152602001908152602001600020819055508260156000838152602001908152602001600020819055505050505050565b6000613cdb8383614263565b601460008473ffffffffffffffffffffffffffffffffffffffff1673ffffffffffffffffffffffffffffffffffffffff168152602001908152602001600020805490509050601460008473ffffffffffffffffffffffffffffffffffffffff1673ffffffffffffffffffffffffffffffffffffffff1681526020019081526020016000208054806001018281613d7191906144d0565b916000526020600020900160008490919091505550806015600084815260200190815260200160002081905550505050565b6000808284019050838110151515613db757fe5b8091505092915050565b6000806000841415613dd65760009150613df5565b8284029050828482811515613de757fe5b04141515613df157fe5b8091505b5092915050565b6000808284811515613e0a57fe5b0490508091505092915050565b6000828211151515613e2557fe5b818303905092915050565b600080613e528573ffffffffffffffffffffffffffffffffffffffff166143bd565b1515613e615760019150613ffd565b8473ffffffffffffffffffffffffffffffffffffffff1663f0b9e5ba8786866000604051602001526040518463ffffffff167c0100000000000000000000000000000000000000000000000000000000028152600401808473ffffffffffffffffffffffffffffffffffffffff1673ffffffffffffffffffffffffffffffffffffffff16815260200183815260200180602001828103825283818151815260200191508051906020019080838360005b83811015613f2c578082015181840152602081019050613f11565b50505050905090810190601f168015613f595780820380516001836020036101000a031916815260200191505b50945050505050602060405180830381600087803b1515613f7957600080fd5b6102c65a03f11515613f8a57600080fd5b50505060405180519050905063f0b9e5ba7c0100000000000000000000000000000000000000000000000000000000027bffffffffffffffffffffffffffffffffffffffffffffffffffffffff1916817bffffffffffffffffffffffffffffffffffffffffffffffffffffffff19161491505b50949350505050565b600073ffffffffffffffffffffffffffffffffffffffff168273ffffffffffffffffffffffffffffffffffffffff161415151561404257600080fd5b61404c8282613ccf565b8173ffffffffffffffffffffffffffffffffffffffff16600073ffffffffffffffffffffffffffffffffffffffff167fddf252ad1be2c89b69c2b068fc378daa952ba7f163c4a11628f55a4df523b3ef836040518082815260200191505060405180910390a35050565b6140c0828261394b565b6140ca8282613ab4565b600073ffffffffffffffffffffffffffffffffffffffff168273ffffffffffffffffffffffffffffffffffffffff167fddf252ad1be2c89b69c2b068fc378daa952ba7f163c4a11628f55a4df523b3ef836040518082815260200191505060405180910390a35050565b8173ffffffffffffffffffffffffffffffffffffffff16614154826120b5565b73ffffffffffffffffffffffffffffffffffffffff1614151561417657600080fd5b6141c96001601060008573ffffffffffffffffffffffffffffffffffffffff1673ffffffffffffffffffffffffffffffffffffffff16815260200190815260200160002054613e1790919063ffffffff16565b601060008473ffffffffffffffffffffffffffffffffffffffff1673ffffffffffffffffffffffffffffffffffffffff168152602001908152602001600020819055506000600e600083815260200190815260200160002060006101000a81548173ffffffffffffffffffffffffffffffffffffffff021916908373ffffffffffffffffffffffffffffffffffffffff1602179055505050565b600073ffffffffffffffffffffffffffffffffffffffff16600e600083815260200190815260200160002060009054906101000a900473ffffffffffffffffffffffffffffffffffffffff1673ffffffffffffffffffffffffffffffffffffffff161415156142d157600080fd5b81600e600083815260200190815260200160002060006101000a81548173ffffffffffffffffffffffffffffffffffffffff021916908373ffffffffffffffffffffffffffffffffffffffff1602179055506143766001601060008573ffffffffffffffffffffffffffffffffffffffff1673ffffffffffffffffffffffffffffffffffffffff16815260200190815260200160002054613da390919063ffffffff16565b601060008473ffffffffffffffffffffffffffffffffffffffff1673ffffffffffffffffffffffffffffffffffffffff168152602001908152602001600020819055505050565b600080823b905060008111915050919050565b602060405190810160405280600081525090565b81548183558181151161440b5781836000526020600020918201910161440a9190614570565b5b505050565b828054600181600116156101000203166002900490600052602060002090601f016020900481019282601f1061445157803560ff191683800117855561447f565b8280016001018555821561447f579182015b8281111561447e578235825591602001919060010190614463565b5b50905061448c9190614595565b5090565b8154818355818115116144b7578183600052602060002091820191016144b69190614570565b5b505050565b602060405190810160405280600081525090565b8154818355818115116144f7578183600052602060002091820191016144f69190614595565b5b505050565b50805460018160011615610100020316600290046000825580601f106145225750614541565b601f0160209004906000526020600020908101906145409190614595565b5b50565b81548183558181151161456b5781836000526020600020918201910161456a9190614595565b5b505050565b61459291905b8082111561458e576000816000905550600101614576565b5090565b90565b6145b791905b808211156145b357600081600090555060010161459b565b5090565b90565b600073ffffffffffffffffffffffffffffffffffffffff168273ffffffffffffffffffffffffffffffffffffffff16141515156145f657600080fd5b60008111151561460557600080fd5b6000600260008473ffffffffffffffffffffffffffffffffffffffff1673ffffffffffffffffffffffffffffffffffffffff1681526020019081526020016000205414151561465357600080fd5b600480548060010182816146679190614719565b9160005260206000209001600084909190916101000a81548173ffffffffffffffffffffffffffffffffffffffff021916908373ffffffffffffffffffffffffffffffffffffffff1602179055505080600260008473ffffffffffffffffffffffffffffffffffffffff1673ffffffffffffffffffffffffffffffffffffffff1681526020019081526020016000208190555061470f81600054613da390919063ffffffff16565b6000819055505050565b8154818355818115116147405781836000526020600020918201910161473f9190614595565b5b5050505600a165627a7a723058209d39b080cabac76f8b0fa25ece7052961cae9b326cf46a1c6ba3fa0adb97be0500296060604052336000806101000a81548173ffffffffffffffffffffffffffffffffffffffff021916908373ffffffffffffffffffffffffffffffffffffffff160217905550610541806100536000396000f30060606040526004361061006d576000357c0100000000000000000000000000000000000000000000000000000000900463ffffffff16806383197ef0146100d55780638da5cb5b146100ea578063aad3ec961461013f578063f2fde38b14610181578063f5074f41146101ba575b341561007857600080fd5b6000809054906101000a900473ffffffffffffffffffffffffffffffffffffffff1673ffffffffffffffffffffffffffffffffffffffff163373ffffffffffffffffffffffffffffffffffffffff161415156100d357600080fd5b005b34156100e057600080fd5b6100e86101f3565b005b34156100f557600080fd5b6100fd610288565b604051808273ffffffffffffffffffffffffffffffffffffffff1673ffffffffffffffffffffffffffffffffffffffff16815260200191505060405180910390f35b341561014a57600080fd5b61017f600480803573ffffffffffffffffffffffffffffffffffffffff169060200190919080359060200190919050506102ad565b005b341561018c57600080fd5b6101b8600480803573ffffffffffffffffffffffffffffffffffffffff1690602001909190505061034c565b005b34156101c557600080fd5b6101f1600480803573ffffffffffffffffffffffffffffffffffffffff169060200190919050506104a1565b005b6000809054906101000a900473ffffffffffffffffffffffffffffffffffffffff1673ffffffffffffffffffffffffffffffffffffffff163373ffffffffffffffffffffffffffffffffffffffff1614151561024e57600080fd5b6000809054906101000a900473ffffffffffffffffffffffffffffffffffffffff1673ffffffffffffffffffffffffffffffffffffffff16ff5b6000809054906101000a900473ffffffffffffffffffffffffffffffffffffffff1681565b6000809054906101000a900473ffffffffffffffffffffffffffffffffffffffff1673ffffffffffffffffffffffffffffffffffffffff163373ffffffffffffffffffffffffffffffffffffffff1614151561030857600080fd5b8173ffffffffffffffffffffffffffffffffffffffff166108fc829081150290604051600060405180830381858888f19350505050151561034857600080fd5b5050565b6000809054906101000a900473ffffffffffffffffffffffffffffffffffffffff1673ffffffffffffffffffffffffffffffffffffffff163373ffffffffffffffffffffffffffffffffffffffff161415156103a757600080fd5b600073ffffffffffffffffffffffffffffffffffffffff168173ffffffffffffffffffffffffffffffffffffffff16141515156103e357600080fd5b8073ffffffffffffffffffffffffffffffffffffffff166000809054906101000a900473ffffffffffffffffffffffffffffffffffffffff1673ffffffffffffffffffffffffffffffffffffffff167f8be0079c531659141344cd1fd0a4f28419497f9722a3daafe3b4186f6b6457e060405160405180910390a3806000806101000a81548173ffffffffffffffffffffffffffffffffffffffff021916908373ffffffffffffffffffffffffffffffffffffffff16021790555050565b6000809054906101000a900473ffffffffffffffffffffffffffffffffffffffff1673ffffffffffffffffffffffffffffffffffffffff163373ffffffffffffffffffffffffffffffffffffffff161415156104fc57600080fd5b8073ffffffffffffffffffffffffffffffffffffffff16ff00a165627a7a72305820511fca0b94a0852734b2e8b9572b96e8d06eb1ae2116648341c4e9ec1620d7490029a165627a7a72305820101d1d44d8f18c1137cf049ab404338023abe24b5ec1b59bff48ee449a2f93400029",
  "source": "pragma solidity ^0.4.19;\n\nimport \"../registry/Registry.sol\";\nimport \"zeppelin-solidity/contracts/ownership/Ownable.sol\";\n\ncontract RegistryCreator is Ownable {\n\n    address internal builder_;\n\n    function RegistryCreator(address _builder)\n        public\n    {\n        builder_ = _builder;\n    }\n\n    function create(\n        address[] _benefitiaries,\n        uint256[] _shares,\n        string _name,\n        string _symbol,\n        string _linkToABIOfEntriesContract,\n        bytes _bytecodeOfEntriesContract\n    )\n        external\n        returns (Registry newRegistryContract)\n    {\n        require(msg.sender == builder_);\n\n        newRegistryContract = createRegistry(\n            _benefitiaries,\n            _shares,\n            _name,\n            _symbol,\n            _linkToABIOfEntriesContract,\n            _bytecodeOfEntriesContract\n        );\n\n        return newRegistryContract;\n    }\n\n    function createRegistry(\n        address[] _benefitiaries,\n        uint256[] _shares,\n        string _name,\n        string _symbol,\n        string _linkToABIOfEntriesContract,\n        bytes _bytecodeOfEntriesContract\n    )\n        internal\n        returns (Registry registryContract)\n    {\n        registryContract = new Registry(\n            _benefitiaries,\n            _shares,\n            _name,\n            _symbol,\n            _linkToABIOfEntriesContract,\n            _bytecodeOfEntriesContract\n        );\n        registryContract.transferOwnership(msg.sender);\n\n        return registryContract;\n    }\n\n    function setBuilder(address _builder)\n        external\n        onlyOwner\n    {\n        builder_ = _builder;\n    }\n\n    function registryBuilder()\n        public\n        view\n        returns (address)\n    {\n        return builder_;\n    }\n}\n",
  "sourcePath": "/Users/litvintech/Projects/chaingear/contracts/chaingear/RegistryCreator.sol",
  "compiler": {
    "name": "solc",
    "version": "0.4.19+commit.c4cbbb05.Emscripten.clang"
  },
  "schemaVersion": "1.0.1",
  "updatedAt": "2018-04-24T06:19:12.641Z"
}