{
  "contractName": "Registry",
  "abi": [
    {
      "constant": true,
      "inputs": [],
      "name": "name",
      "outputs": [
        {
          "name": "",
          "type": "string"
        }
      ],
      "payable": false,
      "stateMutability": "view",
      "type": "function"
    },
    {
      "constant": true,
      "inputs": [
        {
          "name": "_tokenId",
          "type": "uint256"
        }
      ],
      "name": "getApproved",
      "outputs": [
        {
          "name": "",
          "type": "address"
        }
      ],
      "payable": false,
      "stateMutability": "view",
      "type": "function"
    },
    {
      "constant": false,
      "inputs": [
        {
          "name": "_to",
          "type": "address"
        },
        {
          "name": "_tokenId",
          "type": "uint256"
        }
      ],
      "name": "approve",
      "outputs": [],
      "payable": false,
      "stateMutability": "nonpayable",
      "type": "function"
    },
    {
      "constant": false,
      "inputs": [
        {
          "name": "_linkSourceCode",
          "type": "string"
        }
      ],
      "name": "updateSourceLink",
      "outputs": [],
      "payable": false,
      "stateMutability": "nonpayable",
      "type": "function"
    },
    {
      "constant": true,
      "inputs": [],
      "name": "linkSourceCode_",
      "outputs": [
        {
          "name": "",
          "type": "string"
        }
      ],
      "payable": false,
      "stateMutability": "view",
      "type": "function"
    },
    {
      "constant": true,
      "inputs": [],
      "name": "totalSupply",
      "outputs": [
        {
          "name": "",
          "type": "uint256"
        }
      ],
      "payable": false,
      "stateMutability": "view",
      "type": "function"
    },
    {
      "constant": true,
      "inputs": [],
      "name": "CHAINGEAR_ADDRESS",
      "outputs": [
        {
          "name": "",
          "type": "address"
        }
      ],
      "payable": false,
      "stateMutability": "view",
      "type": "function"
    },
    {
      "constant": false,
      "inputs": [
        {
          "name": "_tag",
          "type": "bytes32"
        }
      ],
      "name": "addRegistryTag",
      "outputs": [],
      "payable": false,
      "stateMutability": "nonpayable",
      "type": "function"
    },
    {
      "constant": false,
      "inputs": [
        {
          "name": "_from",
          "type": "address"
        },
        {
          "name": "_to",
          "type": "address"
        },
        {
          "name": "_tokenId",
          "type": "uint256"
        }
      ],
      "name": "transferFrom",
      "outputs": [],
      "payable": false,
      "stateMutability": "nonpayable",
      "type": "function"
    },
    {
      "constant": false,
      "inputs": [
        {
          "name": "addrs",
          "type": "address[]"
        }
      ],
      "name": "removeAddressesFromWhitelist",
      "outputs": [
        {
          "name": "success",
          "type": "bool"
        }
      ],
      "payable": false,
      "stateMutability": "nonpayable",
      "type": "function"
    },
    {
      "constant": false,
      "inputs": [
        {
          "name": "_permissionTypeEntries",
          "type": "uint256"
        }
      ],
      "name": "updatePermissionTypeEntries",
      "outputs": [],
      "payable": false,
      "stateMutability": "nonpayable",
      "type": "function"
    },
    {
      "constant": false,
      "inputs": [
        {
          "name": "addr",
          "type": "address"
        }
      ],
      "name": "removeAddressFromWhitelist",
      "outputs": [
        {
          "name": "success",
          "type": "bool"
        }
      ],
      "payable": false,
      "stateMutability": "nonpayable",
      "type": "function"
    },
    {
      "constant": true,
      "inputs": [
        {
          "name": "_owner",
          "type": "address"
        },
        {
          "name": "_index",
          "type": "uint256"
        }
      ],
      "name": "tokenOfOwnerByIndex",
      "outputs": [
        {
          "name": "",
          "type": "uint256"
        }
      ],
      "payable": false,
      "stateMutability": "view",
      "type": "function"
    },
    {
      "constant": true,
      "inputs": [],
      "name": "totalShares",
      "outputs": [
        {
          "name": "",
          "type": "uint256"
        }
      ],
      "payable": false,
      "stateMutability": "view",
      "type": "function"
    },
    {
      "constant": false,
      "inputs": [],
      "name": "unpause",
      "outputs": [],
      "payable": false,
      "stateMutability": "nonpayable",
      "type": "function"
    },
    {
      "constant": false,
      "inputs": [
        {
          "name": "_from",
          "type": "address"
        },
        {
          "name": "_to",
          "type": "address"
        },
        {
          "name": "_tokenId",
          "type": "uint256"
        }
      ],
      "name": "safeTransferFrom",
      "outputs": [],
      "payable": false,
      "stateMutability": "nonpayable",
      "type": "function"
    },
    {
      "constant": false,
      "inputs": [],
      "name": "claim",
      "outputs": [],
      "payable": false,
      "stateMutability": "nonpayable",
      "type": "function"
    },
    {
      "constant": true,
      "inputs": [
        {
          "name": "_tokenId",
          "type": "uint256"
        }
      ],
      "name": "exists",
      "outputs": [
        {
          "name": "",
          "type": "bool"
        }
      ],
      "payable": false,
      "stateMutability": "view",
      "type": "function"
    },
    {
      "constant": true,
      "inputs": [
        {
          "name": "_index",
          "type": "uint256"
        }
      ],
      "name": "tokenByIndex",
      "outputs": [
        {
          "name": "",
          "type": "uint256"
        }
      ],
      "payable": false,
      "stateMutability": "view",
      "type": "function"
    },
    {
      "constant": true,
      "inputs": [],
      "name": "linkMeta_",
      "outputs": [
        {
          "name": "",
          "type": "string"
        }
      ],
      "payable": false,
      "stateMutability": "view",
      "type": "function"
    },
    {
      "constant": true,
      "inputs": [],
      "name": "entryCreationFee_",
      "outputs": [
        {
          "name": "",
          "type": "uint256"
        }
      ],
      "payable": false,
      "stateMutability": "view",
      "type": "function"
    },
    {
      "constant": true,
      "inputs": [],
      "name": "paused",
      "outputs": [
        {
          "name": "",
          "type": "bool"
        }
      ],
      "payable": false,
      "stateMutability": "view",
      "type": "function"
    },
    {
      "constant": true,
      "inputs": [
        {
          "name": "",
          "type": "uint256"
        }
      ],
      "name": "payees",
      "outputs": [
        {
          "name": "",
          "type": "address"
        }
      ],
      "payable": false,
      "stateMutability": "view",
      "type": "function"
    },
    {
      "constant": true,
      "inputs": [
        {
          "name": "_tokenId",
          "type": "uint256"
        }
      ],
      "name": "ownerOf",
      "outputs": [
        {
          "name": "",
          "type": "address"
        }
      ],
      "payable": false,
      "stateMutability": "view",
      "type": "function"
    },
    {
      "constant": true,
      "inputs": [
        {
          "name": "_owner",
          "type": "address"
        }
      ],
      "name": "balanceOf",
      "outputs": [
        {
          "name": "",
          "type": "uint256"
        }
      ],
      "payable": false,
      "stateMutability": "view",
      "type": "function"
    },
    {
      "constant": false,
      "inputs": [
        {
          "name": "_payeeIndex",
          "type": "uint256"
        },
        {
          "name": "_newAddress",
          "type": "address"
        }
      ],
      "name": "changePayeeAddress",
      "outputs": [],
      "payable": false,
      "stateMutability": "nonpayable",
      "type": "function"
    },
    {
      "constant": false,
      "inputs": [
        {
          "name": "addr",
          "type": "address"
        }
      ],
      "name": "addAddressToWhitelist",
      "outputs": [
        {
          "name": "success",
          "type": "bool"
        }
      ],
      "payable": false,
      "stateMutability": "nonpayable",
      "type": "function"
    },
    {
      "constant": false,
      "inputs": [],
      "name": "destroy",
      "outputs": [],
      "payable": false,
      "stateMutability": "nonpayable",
      "type": "function"
    },
    {
      "constant": false,
      "inputs": [],
      "name": "pause",
      "outputs": [],
      "payable": false,
      "stateMutability": "nonpayable",
      "type": "function"
    },
    {
      "constant": false,
      "inputs": [
        {
          "name": "_linkMeta",
          "type": "string"
        }
      ],
      "name": "updateMetaLink",
      "outputs": [],
      "payable": false,
      "stateMutability": "nonpayable",
      "type": "function"
    },
    {
      "constant": true,
      "inputs": [],
      "name": "owner",
      "outputs": [
        {
          "name": "",
          "type": "address"
        }
      ],
      "payable": false,
      "stateMutability": "view",
      "type": "function"
    },
    {
      "constant": true,
      "inputs": [],
      "name": "symbol",
      "outputs": [
        {
          "name": "",
          "type": "string"
        }
      ],
      "payable": false,
      "stateMutability": "view",
      "type": "function"
    },
    {
      "constant": true,
      "inputs": [
        {
          "name": "",
          "type": "address"
        }
      ],
      "name": "released",
      "outputs": [
        {
          "name": "",
          "type": "uint256"
        }
      ],
      "payable": false,
      "stateMutability": "view",
      "type": "function"
    },
    {
      "constant": true,
      "inputs": [
        {
          "name": "",
          "type": "address"
        }
      ],
      "name": "whitelist",
      "outputs": [
        {
          "name": "",
          "type": "bool"
        }
      ],
      "payable": false,
      "stateMutability": "view",
      "type": "function"
    },
    {
      "constant": false,
      "inputs": [
        {
          "name": "_registryDescription",
          "type": "string"
        }
      ],
      "name": "updateRegistryDescription",
      "outputs": [],
      "payable": false,
      "stateMutability": "nonpayable",
      "type": "function"
    },
    {
      "constant": false,
      "inputs": [
        {
          "name": "_to",
          "type": "address"
        },
        {
          "name": "_approved",
          "type": "bool"
        }
      ],
      "name": "setApprovalForAll",
      "outputs": [],
      "payable": false,
      "stateMutability": "nonpayable",
      "type": "function"
    },
    {
      "constant": false,
      "inputs": [
        {
          "name": "_linkABI",
          "type": "string"
        }
      ],
      "name": "updateABILink",
      "outputs": [],
      "payable": false,
      "stateMutability": "nonpayable",
      "type": "function"
    },
    {
      "constant": true,
      "inputs": [
        {
          "name": "",
          "type": "uint256"
        }
      ],
      "name": "entries",
      "outputs": [
        {
          "name": "price",
          "type": "uint256"
        }
      ],
      "payable": false,
      "stateMutability": "view",
      "type": "function"
    },
    {
      "constant": false,
      "inputs": [
        {
          "name": "_from",
          "type": "address"
        },
        {
          "name": "_to",
          "type": "address"
        },
        {
          "name": "_tokenId",
          "type": "uint256"
        },
        {
          "name": "_data",
          "type": "bytes"
        }
      ],
      "name": "safeTransferFrom",
      "outputs": [],
      "payable": false,
      "stateMutability": "nonpayable",
      "type": "function"
    },
    {
      "constant": false,
      "inputs": [
        {
          "name": "_index",
          "type": "uint256"
        },
        {
          "name": "_tag",
          "type": "bytes32"
        }
      ],
      "name": "removeRegistryTag",
      "outputs": [],
      "payable": false,
      "stateMutability": "nonpayable",
      "type": "function"
    },
    {
      "constant": true,
      "inputs": [],
      "name": "registryName_",
      "outputs": [
        {
          "name": "",
          "type": "string"
        }
      ],
      "payable": false,
      "stateMutability": "view",
      "type": "function"
    },
    {
      "constant": false,
      "inputs": [
        {
          "name": "_registryName",
          "type": "string"
        }
      ],
      "name": "updateRegistryName",
      "outputs": [],
      "payable": false,
      "stateMutability": "nonpayable",
      "type": "function"
    },
    {
      "constant": true,
      "inputs": [
        {
          "name": "_tokenId",
          "type": "uint256"
        }
      ],
      "name": "tokenURI",
      "outputs": [
        {
          "name": "",
          "type": "string"
        }
      ],
      "payable": false,
      "stateMutability": "view",
      "type": "function"
    },
    {
      "constant": true,
      "inputs": [
        {
          "name": "",
          "type": "uint256"
        }
      ],
      "name": "registryTags_",
      "outputs": [
        {
          "name": "",
          "type": "bytes32"
        }
      ],
      "payable": false,
      "stateMutability": "view",
      "type": "function"
    },
    {
      "constant": true,
      "inputs": [],
      "name": "registryDescription_",
      "outputs": [
        {
          "name": "",
          "type": "string"
        }
      ],
      "payable": false,
      "stateMutability": "view",
      "type": "function"
    },
    {
      "constant": true,
      "inputs": [
        {
          "name": "",
          "type": "address"
        }
      ],
      "name": "shares",
      "outputs": [
        {
          "name": "",
          "type": "uint256"
        }
      ],
      "payable": false,
      "stateMutability": "view",
      "type": "function"
    },
    {
      "constant": false,
      "inputs": [
        {
          "name": "_fee",
          "type": "uint256"
        }
      ],
      "name": "updateEntryCreationFee",
      "outputs": [],
      "payable": false,
      "stateMutability": "nonpayable",
      "type": "function"
    },
    {
      "constant": false,
      "inputs": [],
      "name": "registerInChaingear",
      "outputs": [
        {
          "name": "registryId",
          "type": "uint256"
        }
      ],
      "payable": false,
      "stateMutability": "nonpayable",
      "type": "function"
    },
    {
      "constant": true,
      "inputs": [],
      "name": "linkABI_",
      "outputs": [
        {
          "name": "",
          "type": "string"
        }
      ],
      "payable": false,
      "stateMutability": "view",
      "type": "function"
    },
    {
      "constant": false,
      "inputs": [
        {
          "name": "addrs",
          "type": "address[]"
        }
      ],
      "name": "addAddressesToWhitelist",
      "outputs": [
        {
          "name": "success",
          "type": "bool"
        }
      ],
      "payable": false,
      "stateMutability": "nonpayable",
      "type": "function"
    },
    {
      "constant": true,
      "inputs": [],
      "name": "totalReleased",
      "outputs": [
        {
          "name": "",
          "type": "uint256"
        }
      ],
      "payable": false,
      "stateMutability": "view",
      "type": "function"
    },
    {
      "constant": false,
      "inputs": [
        {
          "name": "_index",
          "type": "uint256"
        },
        {
          "name": "_tag",
          "type": "bytes32"
        }
      ],
      "name": "updateRegistryTag",
      "outputs": [],
      "payable": false,
      "stateMutability": "nonpayable",
      "type": "function"
    },
    {
      "constant": true,
      "inputs": [],
      "name": "permissionTypeEntries_",
      "outputs": [
        {
          "name": "",
          "type": "uint8"
        }
      ],
      "payable": false,
      "stateMutability": "view",
      "type": "function"
    },
    {
      "constant": true,
      "inputs": [
        {
          "name": "_owner",
          "type": "address"
        },
        {
          "name": "_operator",
          "type": "address"
        }
      ],
      "name": "isApprovedForAll",
      "outputs": [
        {
          "name": "",
          "type": "bool"
        }
      ],
      "payable": false,
      "stateMutability": "view",
      "type": "function"
    },
    {
      "constant": false,
      "inputs": [
        {
          "name": "newOwner",
          "type": "address"
        }
      ],
      "name": "transferOwnership",
      "outputs": [],
      "payable": false,
      "stateMutability": "nonpayable",
      "type": "function"
    },
    {
      "constant": false,
      "inputs": [
        {
          "name": "_recipient",
          "type": "address"
        }
      ],
      "name": "destroyAndSend",
      "outputs": [],
      "payable": false,
      "stateMutability": "nonpayable",
      "type": "function"
    },
    {
      "inputs": [
        {
          "name": "_benefitiaries",
          "type": "address[]"
        },
        {
          "name": "_shares",
          "type": "uint256[]"
        },
        {
          "name": "_permissionTypeEntries",
          "type": "uint8"
        },
        {
          "name": "_entryCreationFee",
          "type": "uint256"
        },
        {
          "name": "_linkABI",
          "type": "string"
        },
        {
          "name": "_linkMeta",
          "type": "string"
        },
        {
          "name": "_linkSourceCode",
          "type": "string"
        },
        {
          "name": "_registryName",
          "type": "string"
        },
        {
          "name": "_registryDescription",
          "type": "string"
        },
        {
          "name": "_registySymbol",
          "type": "string"
        }
      ],
      "payable": false,
      "stateMutability": "nonpayable",
      "type": "constructor"
    },
    {
      "payable": true,
      "stateMutability": "payable",
      "type": "fallback"
    },
    {
      "anonymous": false,
      "inputs": [
        {
          "indexed": false,
          "name": "entryCreator",
          "type": "address"
        },
        {
          "indexed": false,
          "name": "entryId",
          "type": "uint256"
        }
      ],
      "name": "EntryCreated",
      "type": "event"
    },
    {
      "anonymous": false,
      "inputs": [
        {
          "indexed": false,
          "name": "entryOwner",
          "type": "address"
        },
        {
          "indexed": false,
          "name": "entryId",
          "type": "uint256"
        }
      ],
      "name": "EntryUpdated",
      "type": "event"
    },
    {
      "anonymous": false,
      "inputs": [
        {
          "indexed": false,
          "name": "entryOwner",
          "type": "address"
        },
        {
          "indexed": false,
          "name": "entryId",
          "type": "uint256"
        }
      ],
      "name": "EntryDeleted",
      "type": "event"
    },
    {
      "anonymous": false,
      "inputs": [
        {
          "indexed": true,
          "name": "_from",
          "type": "address"
        },
        {
          "indexed": true,
          "name": "_to",
          "type": "address"
        },
        {
          "indexed": false,
          "name": "_tokenId",
          "type": "uint256"
        }
      ],
      "name": "Transfer",
      "type": "event"
    },
    {
      "anonymous": false,
      "inputs": [
        {
          "indexed": true,
          "name": "_owner",
          "type": "address"
        },
        {
          "indexed": true,
          "name": "_approved",
          "type": "address"
        },
        {
          "indexed": false,
          "name": "_tokenId",
          "type": "uint256"
        }
      ],
      "name": "Approval",
      "type": "event"
    },
    {
      "anonymous": false,
      "inputs": [
        {
          "indexed": true,
          "name": "_owner",
          "type": "address"
        },
        {
          "indexed": true,
          "name": "_operator",
          "type": "address"
        },
        {
          "indexed": false,
          "name": "_approved",
          "type": "bool"
        }
      ],
      "name": "ApprovalForAll",
      "type": "event"
    },
    {
      "anonymous": false,
      "inputs": [],
      "name": "Pause",
      "type": "event"
    },
    {
      "anonymous": false,
      "inputs": [],
      "name": "Unpause",
      "type": "event"
    },
    {
      "anonymous": false,
      "inputs": [
        {
          "indexed": false,
          "name": "addr",
          "type": "address"
        }
      ],
      "name": "WhitelistedAddressAdded",
      "type": "event"
    },
    {
      "anonymous": false,
      "inputs": [
        {
          "indexed": false,
          "name": "addr",
          "type": "address"
        }
      ],
      "name": "WhitelistedAddressRemoved",
      "type": "event"
    },
    {
      "anonymous": false,
      "inputs": [
        {
          "indexed": false,
          "name": "payeeIndex",
          "type": "uint256"
        },
        {
          "indexed": false,
          "name": "oldAddress",
          "type": "address"
        },
        {
          "indexed": false,
          "name": "newAddress",
          "type": "address"
        }
      ],
      "name": "PayeeAddressChanged",
      "type": "event"
    },
    {
      "anonymous": false,
      "inputs": [
        {
          "indexed": false,
          "name": "linkMeta",
          "type": "string"
        }
      ],
      "name": "MetaLinkUpdated",
      "type": "event"
    },
    {
      "anonymous": false,
      "inputs": [
        {
          "indexed": false,
          "name": "linkABI",
          "type": "string"
        }
      ],
      "name": "ABILinkUpdated",
      "type": "event"
    },
    {
      "anonymous": false,
      "inputs": [
        {
          "indexed": false,
          "name": "linkSource",
          "type": "string"
        }
      ],
      "name": "SourceLinkUpdated",
      "type": "event"
    },
    {
      "anonymous": false,
      "inputs": [
        {
          "indexed": true,
          "name": "previousOwner",
          "type": "address"
        },
        {
          "indexed": true,
          "name": "newOwner",
          "type": "address"
        }
      ],
      "name": "OwnershipTransferred",
      "type": "event"
    },
    {
      "constant": false,
      "inputs": [
        {
          "name": "_price",
          "type": "uint256"
        }
      ],
      "name": "createEntry",
      "outputs": [
        {
          "name": "tokenId",
          "type": "uint256"
        }
      ],
      "payable": true,
      "stateMutability": "payable",
      "type": "function"
    },
    {
      "constant": false,
      "inputs": [
        {
          "name": "_entryId",
          "type": "uint256"
        },
        {
          "name": "_price",
          "type": "uint256"
        }
      ],
      "name": "updateEntryPrice",
      "outputs": [],
      "payable": false,
      "stateMutability": "nonpayable",
      "type": "function"
    },
    {
      "constant": false,
      "inputs": [
        {
          "name": "_entryId",
          "type": "uint256"
        }
      ],
      "name": "deleteEntry",
      "outputs": [],
      "payable": false,
      "stateMutability": "nonpayable",
      "type": "function"
    },
    {
      "constant": true,
      "inputs": [
        {
          "name": "_entryId",
          "type": "uint256"
        }
      ],
      "name": "getEntry",
      "outputs": [
        {
          "name": "price",
          "type": "uint256"
        }
      ],
      "payable": false,
      "stateMutability": "view",
      "type": "function"
    }
  ],
  "bytecode": "0x60606040526000805560006001556000600a60006101000a81548160ff02191690831515021790555034156200003457600080fd5b604051620055cb380380620055cb8339810160405280805182019190602001805182019190602001805190602001909190805190602001909190805182019190602001805182019190602001805182019190602001805182019190602001805182019190602001805182019190505082818b8b8181600081518351141515620000bc57600080fd5b600090505b825181101562000129576200011b8382815181101515620000de57fe5b906020019060200201518383815181101515620000f757fe5b906020019060200201516200027a6401000000000262004cd1176401000000009004565b8080600101915050620000c1565b50505033600560006101000a81548173ffffffffffffffffffffffffffffffffffffffff021916908373ffffffffffffffffffffffffffffffffffffffff160217905550505081601390805190602001906200018792919062000655565b508060149080519060200190620001a092919062000655565b50505087600a60016101000a81548160ff02191690836002811115620001c257fe5b021790555086600b819055508560069080519060200190620001e692919062000655565b508460079080519060200190620001ff92919062000655565b5083600890805190602001906200021892919062000655565b5082600c90805190602001906200023192919062000655565b5081600d90805190602001906200024a92919062000655565b5062000269620003ee6401000000000262003656176401000000009004565b505050505050505050505062000733565b600073ffffffffffffffffffffffffffffffffffffffff168273ffffffffffffffffffffffffffffffffffffffff1614151515620002b757600080fd5b600081111515620002c757600080fd5b6000600260008473ffffffffffffffffffffffffffffffffffffffff1673ffffffffffffffffffffffffffffffffffffffff168152602001908152602001600020541415156200031657600080fd5b600480548060010182816200032c9190620006dc565b9160005260206000209001600084909190916101000a81548173ffffffffffffffffffffffffffffffffffffffff021916908373ffffffffffffffffffffffffffffffffffffffff1602179055505080600260008473ffffffffffffffffffffffffffffffffffffffff1673ffffffffffffffffffffffffffffffffffffffff16815260200190815260200160002081905550620003e481600054620006366401000000000262004400179091906401000000009004565b6000819055505050565b600080600560009054906101000a900473ffffffffffffffffffffffffffffffffffffffff1673ffffffffffffffffffffffffffffffffffffffff163373ffffffffffffffffffffffffffffffffffffffff161415156200044e57600080fd5b600090508073ffffffffffffffffffffffffffffffffffffffff1663b3ae56d1600c6006306000604051602001526040518463ffffffff167c01000000000000000000000000000000000000000000000000000000000281526004018080602001806020018473ffffffffffffffffffffffffffffffffffffffff1673ffffffffffffffffffffffffffffffffffffffff1681526020018381038352868181546001816001161561010002031660029004815260200191508054600181600116156101000203166002900480156200056a5780601f106200053e576101008083540402835291602001916200056a565b820191906000526020600020905b8154815290600101906020018083116200054c57829003601f168201915b5050838103825285818154600181600116156101000203166002900481526020019150805460018160011615610100020316600290048015620005f15780601f10620005c557610100808354040283529160200191620005f1565b820191906000526020600020905b815481529060010190602001808311620005d357829003601f168201915b505095505050505050602060405180830381600087803b15156200061457600080fd5b6102c65a03f115156200062657600080fd5b5050506040518051905091505090565b60008082840190508381101515156200064b57fe5b8091505092915050565b828054600181600116156101000203166002900490600052602060002090601f016020900481019282601f106200069857805160ff1916838001178555620006c9565b82800160010185558215620006c9579182015b82811115620006c8578251825591602001919060010190620006ab565b5b509050620006d891906200070b565b5090565b81548183558181151162000706578183600052602060002091820191016200070591906200070b565b5b505050565b6200073091905b808211156200072c57600081600090555060010162000712565b5090565b90565b614e8880620007436000396000f3006060604052600436106102ca576000357c0100000000000000000000000000000000000000000000000000000000900463ffffffff16806306fdde03146102cc578063081812fc1461035a578063095ea7b3146103bd5780630f6a2ad5146103ff57806311f7516c1461042d57806312a8cad41461045057806318160ddd146104de578063184ee96914610507578063189efc7c1461055c57806323b872dd1461058357806324953eaa146105e457806327f5f1b614610656578063286dd3f5146106795780632f745c59146106ca5780633a98ef39146107205780633f4ba83a1461074957806342842e0e1461075e5780634e71d92d146107bf5780634f558e79146107d45780634f6ccce71461080f578063505b13901461084657806351147350146108d45780635c975abb146108fd57806363037b0c1461092a5780636352211e1461098d57806370a08231146109f05780637b49376814610a3d5780637b9417c814610a7f57806383197ef014610ad05780638456cb5914610ae55780638aed4b6314610afa5780638da5cb5b14610b2857806395d89b4114610b7d5780639852595c14610c0b5780639b19251a14610c58578063a1f14b2714610ca9578063a22cb46514610cd7578063a652c3d714610d1b578063acab3bd514610d47578063b30906d414610d75578063b88d4fde14610dac578063bae78d7b14610e50578063bc044e1814610e87578063c659eab914610eb7578063c81225eb14610f45578063c87b56dd14610f73578063c9f8a2171461100f578063cbcac6021461104e578063ce7c2ac2146110dc578063d24f707614611129578063d91cd75b1461114c578063e16f48f214611175578063e2ec6ec314611203578063e33b7de314611275578063e59f0cc21461129e578063e8789e49146112ce578063e985e9c514611305578063f2fde38b14611375578063f5074f41146113ae578063fc420e6b146113e7575b005b34156102d757600080fd5b6102df611413565b6040518080602001828103825283818151815260200191508051906020019080838360005b8381101561031f578082015181840152602081019050610304565b50505050905090810190601f16801561034c5780820380516001836020036101000a031916815260200191505b509250505060405180910390f35b341561036557600080fd5b61037b60048080359060200190919050506114bb565b604051808273ffffffffffffffffffffffffffffffffffffffff1673ffffffffffffffffffffffffffffffffffffffff16815260200191505060405180910390f35b34156103c857600080fd5b6103fd600480803573ffffffffffffffffffffffffffffffffffffffff169060200190919080359060200190919050506114f8565b005b341561040a57600080fd5b61042b600480803590602001908201803590602001919091929050506116be565b005b341561043857600080fd5b61044e6004808035906020019091905050611781565b005b341561045b57600080fd5b61046361190f565b6040518080602001828103825283818151815260200191508051906020019080838360005b838110156104a3578082015181840152602081019050610488565b50505050905090810190601f1680156104d05780820380516001836020036101000a031916815260200191505b509250505060405180910390f35b34156104e957600080fd5b6104f16119ad565b6040518082815260200191505060405180910390f35b341561051257600080fd5b61051a6119ba565b604051808273ffffffffffffffffffffffffffffffffffffffff1673ffffffffffffffffffffffffffffffffffffffff16815260200191505060405180910390f35b341561056757600080fd5b6105816004808035600019169060200190919050506119bf565b005b341561058e57600080fd5b6105e2600480803573ffffffffffffffffffffffffffffffffffffffff1690602001909190803573ffffffffffffffffffffffffffffffffffffffff16906020019091908035906020019091905050611a61565b005b34156105ef57600080fd5b61063c600480803590602001908201803590602001908080602002602001604051908101604052809392919081815260200183836020028082843782019150505050505091905050611b78565b604051808215151515815260200191505060405180910390f35b341561066157600080fd5b6106776004808035906020019091905050611c22565b005b341561068457600080fd5b6106b0600480803573ffffffffffffffffffffffffffffffffffffffff16906020019091905050611cc9565b604051808215151515815260200191505060405180910390f35b34156106d557600080fd5b61070a600480803573ffffffffffffffffffffffffffffffffffffffff16906020019091908035906020019091905050611e3e565b6040518082815260200191505060405180910390f35b341561072b57600080fd5b610733611eb6565b6040518082815260200191505060405180910390f35b341561075457600080fd5b61075c611ebc565b005b341561076957600080fd5b6107bd600480803573ffffffffffffffffffffffffffffffffffffffff1690602001909190803573ffffffffffffffffffffffffffffffffffffffff16906020019091908035906020019091905050611f7c565b005b34156107ca57600080fd5b6107d2611fb4565b005b34156107df57600080fd5b6107f5600480803590602001909190505061221c565b604051808215151515815260200191505060405180910390f35b341561081a57600080fd5b610830600480803590602001909190505061228e565b6040518082815260200191505060405180910390f35b341561085157600080fd5b6108596122c7565b6040518080602001828103825283818151815260200191508051906020019080838360005b8381101561089957808201518184015260208101905061087e565b50505050905090810190601f1680156108c65780820380516001836020036101000a031916815260200191505b509250505060405180910390f35b34156108df57600080fd5b6108e7612365565b6040518082815260200191505060405180910390f35b341561090857600080fd5b61091061236b565b604051808215151515815260200191505060405180910390f35b341561093557600080fd5b61094b600480803590602001909190505061237e565b604051808273ffffffffffffffffffffffffffffffffffffffff1673ffffffffffffffffffffffffffffffffffffffff16815260200191505060405180910390f35b341561099857600080fd5b6109ae60048080359060200190919050506123bd565b604051808273ffffffffffffffffffffffffffffffffffffffff1673ffffffffffffffffffffffffffffffffffffffff16815260200191505060405180910390f35b34156109fb57600080fd5b610a27600480803573ffffffffffffffffffffffffffffffffffffffff1690602001909190505061243b565b6040518082815260200191505060405180910390f35b3415610a4857600080fd5b610a7d600480803590602001909190803573ffffffffffffffffffffffffffffffffffffffff169060200190919050506124bf565b005b3415610a8a57600080fd5b610ab6600480803573ffffffffffffffffffffffffffffffffffffffff169060200190919050506127e3565b604051808215151515815260200191505060405180910390f35b3415610adb57600080fd5b610ae3612959565b005b3415610af057600080fd5b610af86129f0565b005b3415610b0557600080fd5b610b2660048080359060200190820180359060200191909192905050612ab1565b005b3415610b3357600080fd5b610b3b612b74565b604051808273ffffffffffffffffffffffffffffffffffffffff1673ffffffffffffffffffffffffffffffffffffffff16815260200191505060405180910390f35b3415610b8857600080fd5b610b90612b9a565b6040518080602001828103825283818151815260200191508051906020019080838360005b83811015610bd0578082015181840152602081019050610bb5565b50505050905090810190601f168015610bfd5780820380516001836020036101000a031916815260200191505b509250505060405180910390f35b3415610c1657600080fd5b610c42600480803573ffffffffffffffffffffffffffffffffffffffff16906020019091905050612c42565b6040518082815260200191505060405180910390f35b3415610c6357600080fd5b610c8f600480803573ffffffffffffffffffffffffffffffffffffffff16906020019091905050612c5a565b604051808215151515815260200191505060405180910390f35b3415610cb457600080fd5b610cd560048080359060200190820180359060200191909192905050612c7a565b005b3415610ce257600080fd5b610d19600480803573ffffffffffffffffffffffffffffffffffffffff169060200190919080351515906020019091905050612d06565b005b610d316004808035906020019091905050612e42565b6040518082815260200191505060405180910390f35b3415610d5257600080fd5b610d73600480803590602001908201803590602001919091929050506130b1565b005b3415610d8057600080fd5b610d966004808035906020019091905050613174565b6040518082815260200191505060405180910390f35b3415610db757600080fd5b610e4e600480803573ffffffffffffffffffffffffffffffffffffffff1690602001909190803573ffffffffffffffffffffffffffffffffffffffff1690602001909190803590602001909190803590602001908201803590602001908080601f0160208091040260200160405190810160405280939291908181526020018383808284378201915050505050509190505061319e565b005b3415610e5b57600080fd5b610e7160048080359060200190919050506131dd565b6040518082815260200191505060405180910390f35b3415610e9257600080fd5b610eb5600480803590602001909190803560001916906020019091905050613204565b005b3415610ec257600080fd5b610eca613312565b6040518080602001828103825283818151815260200191508051906020019080838360005b83811015610f0a578082015181840152602081019050610eef565b50505050905090810190601f168015610f375780820380516001836020036101000a031916815260200191505b509250505060405180910390f35b3415610f5057600080fd5b610f71600480803590602001908201803590602001919091929050506133b0565b005b3415610f7e57600080fd5b610f946004808035906020019091905050613447565b6040518080602001828103825283818151815260200191508051906020019080838360005b83811015610fd4578082015181840152602081019050610fb9565b50505050905090810190601f1680156110015780820380516001836020036101000a031916815260200191505b509250505060405180910390f35b341561101a57600080fd5b6110306004808035906020019091905050613516565b60405180826000191660001916815260200191505060405180910390f35b341561105957600080fd5b61106161353a565b6040518080602001828103825283818151815260200191508051906020019080838360005b838110156110a1578082015181840152602081019050611086565b50505050905090810190601f1680156110ce5780820380516001836020036101000a031916815260200191505b509250505060405180910390f35b34156110e757600080fd5b611113600480803573ffffffffffffffffffffffffffffffffffffffff169060200190919050506135d8565b6040518082815260200191505060405180910390f35b341561113457600080fd5b61114a60048080359060200190919050506135f0565b005b341561115757600080fd5b61115f613656565b6040518082815260200191505060405180910390f35b341561118057600080fd5b611188613893565b6040518080602001828103825283818151815260200191508051906020019080838360005b838110156111c85780820151818401526020810190506111ad565b50505050905090810190601f1680156111f55780820380516001836020036101000a031916815260200191505b509250505060405180910390f35b341561120e57600080fd5b61125b600480803590602001908201803590602001908080602002602001604051908101604052809392919081815260200183836020028082843782019150505050505091905050613931565b604051808215151515815260200191505060405180910390f35b341561128057600080fd5b6112886139db565b6040518082815260200191505060405180910390f35b34156112a957600080fd5b6112cc6004808035906020019091908035600019169060200190919050506139e1565b005b34156112d957600080fd5b6112e1613a78565b604051808260028111156112f157fe5b60ff16815260200191505060405180910390f35b341561131057600080fd5b61135b600480803573ffffffffffffffffffffffffffffffffffffffff1690602001909190803573ffffffffffffffffffffffffffffffffffffffff16906020019091905050613a8b565b604051808215151515815260200191505060405180910390f35b341561138057600080fd5b6113ac600480803573ffffffffffffffffffffffffffffffffffffffff16906020019091905050613b1f565b005b34156113b957600080fd5b6113e5600480803573ffffffffffffffffffffffffffffffffffffffff16906020019091905050613c77565b005b34156113f257600080fd5b6114116004808035906020019091908035906020019091905050613cec565b005b61141b614a68565b60138054600181600116156101000203166002900480601f0160208091040260200160405190810160405280929190818152602001828054600181600116156101000203166002900480156114b15780601f10611486576101008083540402835291602001916114b1565b820191906000526020600020905b81548152906001019060200180831161149457829003601f168201915b5050505050905090565b60006010600083815260200190815260200160002060009054906101000a900473ffffffffffffffffffffffffffffffffffffffff169050919050565b6000611503826123bd565b90508073ffffffffffffffffffffffffffffffffffffffff168373ffffffffffffffffffffffffffffffffffffffff161415151561154057600080fd5b8073ffffffffffffffffffffffffffffffffffffffff163373ffffffffffffffffffffffffffffffffffffffff161480611580575061157f8133613a8b565b5b151561158b57600080fd5b600073ffffffffffffffffffffffffffffffffffffffff166115ac836114bb565b73ffffffffffffffffffffffffffffffffffffffff161415806115fc5750600073ffffffffffffffffffffffffffffffffffffffff168373ffffffffffffffffffffffffffffffffffffffff1614155b156116b957826010600084815260200190815260200160002060006101000a81548173ffffffffffffffffffffffffffffffffffffffff021916908373ffffffffffffffffffffffffffffffffffffffff1602179055508273ffffffffffffffffffffffffffffffffffffffff168173ffffffffffffffffffffffffffffffffffffffff167f8c5be1e5ebec7d5bd14f71427d1e84f3dd0314c0f7b2291e5b200ac8c7c3b925846040518082815260200191505060405180910390a35b505050565b600560009054906101000a900473ffffffffffffffffffffffffffffffffffffffff1673ffffffffffffffffffffffffffffffffffffffff163373ffffffffffffffffffffffffffffffffffffffff1614151561171a57600080fd5b81816008919061172b929190614a7c565b507fcfaf57d92b1b2684731a770c593d162587ca98e9d372be876ab14b389866f0f68282604051808060200182810382528484828181526020019250808284378201915050935050505060405180910390a15050565b6000806000600a60009054906101000a900460ff161515156117a257600080fd5b3373ffffffffffffffffffffffffffffffffffffffff166117c2856123bd565b73ffffffffffffffffffffffffffffffffffffffff161415156117e457600080fd5b601860008581526020019081526020016000205492506118136001601a80549050613dbf90919063ffffffff16565b9150601a8281548110151561182457fe5b9060005260206000209001905080601a8481548110151561184157fe5b906000526020600020900160008201548160000155905050601a8281548110151561186857fe5b90600052602060002090016000808201600090555050601a8054809190600190036118939190614afc565b5061189e3385613dd8565b7f863d345cb8a315b82cf25ba9b949c03407c0298f0b316ee400d4a2256a96a1943385604051808373ffffffffffffffffffffffffffffffffffffffff1673ffffffffffffffffffffffffffffffffffffffff1681526020018281526020019250505060405180910390a150505050565b60088054600181600116156101000203166002900480601f0160208091040260200160405190810160405280929190818152602001828054600181600116156101000203166002900480156119a55780601f1061197a576101008083540402835291602001916119a5565b820191906000526020600020905b81548152906001019060200180831161198857829003601f168201915b505050505081565b6000601780549050905090565b600081565b600560009054906101000a900473ffffffffffffffffffffffffffffffffffffffff1673ffffffffffffffffffffffffffffffffffffffff163373ffffffffffffffffffffffffffffffffffffffff16141515611a1b57600080fd5b6010602060ff1611151515611a2f57600080fd5b600e8054806001018281611a439190614b28565b91600052602060002090016000839091909150906000191690555050565b80611a6c3382613f13565b1515611a7757600080fd5b600073ffffffffffffffffffffffffffffffffffffffff168473ffffffffffffffffffffffffffffffffffffffff1614151515611ab357600080fd5b600073ffffffffffffffffffffffffffffffffffffffff168373ffffffffffffffffffffffffffffffffffffffff1614151515611aef57600080fd5b611af98483613fa8565b611b038483614111565b611b0d838361432c565b8273ffffffffffffffffffffffffffffffffffffffff168473ffffffffffffffffffffffffffffffffffffffff167fddf252ad1be2c89b69c2b068fc378daa952ba7f163c4a11628f55a4df523b3ef846040518082815260200191505060405180910390a350505050565b600080600560009054906101000a900473ffffffffffffffffffffffffffffffffffffffff1673ffffffffffffffffffffffffffffffffffffffff163373ffffffffffffffffffffffffffffffffffffffff16141515611bd757600080fd5b600090505b8251811015611c1c57611c058382815181101515611bf657fe5b90602001906020020151611cc9565b15611c0f57600191505b8080600101915050611bdc565b50919050565b600560009054906101000a900473ffffffffffffffffffffffffffffffffffffffff1673ffffffffffffffffffffffffffffffffffffffff163373ffffffffffffffffffffffffffffffffffffffff16141515611c7e57600080fd5b80600280811115611c8b57fe5b10151515611c9857600080fd5b806002811115611ca457fe5b600a60016101000a81548160ff02191690836002811115611cc157fe5b021790555050565b6000600560009054906101000a900473ffffffffffffffffffffffffffffffffffffffff1673ffffffffffffffffffffffffffffffffffffffff163373ffffffffffffffffffffffffffffffffffffffff16141515611d2757600080fd5b600960008373ffffffffffffffffffffffffffffffffffffffff1673ffffffffffffffffffffffffffffffffffffffff16815260200190815260200160002060009054906101000a900460ff1615611e39576000600960008473ffffffffffffffffffffffffffffffffffffffff1673ffffffffffffffffffffffffffffffffffffffff16815260200190815260200160002060006101000a81548160ff0219169083151502179055507ff1abf01a1043b7c244d128e8595cf0c1d10743b022b03a02dffd8ca3bf729f5a82604051808273ffffffffffffffffffffffffffffffffffffffff1673ffffffffffffffffffffffffffffffffffffffff16815260200191505060405180910390a1600190505b919050565b6000611e498361243b565b82101515611e5657600080fd5b601560008473ffffffffffffffffffffffffffffffffffffffff1673ffffffffffffffffffffffffffffffffffffffff16815260200190815260200160002082815481101515611ea257fe5b906000526020600020900154905092915050565b60005481565b600560009054906101000a900473ffffffffffffffffffffffffffffffffffffffff1673ffffffffffffffffffffffffffffffffffffffff163373ffffffffffffffffffffffffffffffffffffffff16141515611f1857600080fd5b600a60009054906101000a900460ff161515611f3357600080fd5b6000600a60006101000a81548160ff0219169083151502179055507f7805862f689e2f13df9f062ff482ad3ad112aca9e0847911ed832e158c525b3360405160405180910390a1565b80611f873382613f13565b1515611f9257600080fd5b611fae848484602060405190810160405280600081525061319e565b50505050565b60008060003392506000600260008573ffffffffffffffffffffffffffffffffffffffff1673ffffffffffffffffffffffffffffffffffffffff1681526020019081526020016000205411151561200a57600080fd5b6120366001543073ffffffffffffffffffffffffffffffffffffffff163161440090919063ffffffff16565b91506120ef600360008573ffffffffffffffffffffffffffffffffffffffff1673ffffffffffffffffffffffffffffffffffffffff168152602001908152602001600020546120e16000546120d3600260008973ffffffffffffffffffffffffffffffffffffffff1673ffffffffffffffffffffffffffffffffffffffff168152602001908152602001600020548761441e90919063ffffffff16565b61445990919063ffffffff16565b613dbf90919063ffffffff16565b90506000811415151561210157600080fd5b803073ffffffffffffffffffffffffffffffffffffffff16311015151561212757600080fd5b61217981600360008673ffffffffffffffffffffffffffffffffffffffff1673ffffffffffffffffffffffffffffffffffffffff1681526020019081526020016000205461440090919063ffffffff16565b600360008573ffffffffffffffffffffffffffffffffffffffff1673ffffffffffffffffffffffffffffffffffffffff168152602001908152602001600020819055506121d18160015461440090919063ffffffff16565b6001819055508273ffffffffffffffffffffffffffffffffffffffff166108fc829081150290604051600060405180830381858888f19350505050151561221757600080fd5b505050565b600080600f600084815260200190815260200160002060009054906101000a900473ffffffffffffffffffffffffffffffffffffffff169050600073ffffffffffffffffffffffffffffffffffffffff168173ffffffffffffffffffffffffffffffffffffffff161415915050919050565b60006122986119ad565b821015156122a557600080fd5b6017828154811015156122b457fe5b9060005260206000209001549050919050565b60078054600181600116156101000203166002900480601f01602080910402602001604051908101604052809291908181526020018280546001816001161561010002031660029004801561235d5780601f106123325761010080835404028352916020019161235d565b820191906000526020600020905b81548152906001019060200180831161234057829003601f168201915b505050505081565b600b5481565b600a60009054906101000a900460ff1681565b60048181548110151561238d57fe5b90600052602060002090016000915054906101000a900473ffffffffffffffffffffffffffffffffffffffff1681565b600080600f600084815260200190815260200160002060009054906101000a900473ffffffffffffffffffffffffffffffffffffffff169050600073ffffffffffffffffffffffffffffffffffffffff168173ffffffffffffffffffffffffffffffffffffffff161415151561243257600080fd5b80915050919050565b60008073ffffffffffffffffffffffffffffffffffffffff168273ffffffffffffffffffffffffffffffffffffffff161415151561247857600080fd5b601160008373ffffffffffffffffffffffffffffffffffffffff1673ffffffffffffffffffffffffffffffffffffffff168152602001908152602001600020549050919050565b6000600560009054906101000a900473ffffffffffffffffffffffffffffffffffffffff1673ffffffffffffffffffffffffffffffffffffffff163373ffffffffffffffffffffffffffffffffffffffff1614151561251d57600080fd5b60048381548110151561252c57fe5b906000526020600020900160009054906101000a900473ffffffffffffffffffffffffffffffffffffffff169050600260008273ffffffffffffffffffffffffffffffffffffffff1673ffffffffffffffffffffffffffffffffffffffff16815260200190815260200160002054600260008473ffffffffffffffffffffffffffffffffffffffff1673ffffffffffffffffffffffffffffffffffffffff16815260200190815260200160002081905550600360008273ffffffffffffffffffffffffffffffffffffffff1673ffffffffffffffffffffffffffffffffffffffff16815260200190815260200160002054600360008473ffffffffffffffffffffffffffffffffffffffff1673ffffffffffffffffffffffffffffffffffffffff168152602001908152602001600020819055508160048481548110151561267057fe5b906000526020600020900160006101000a81548173ffffffffffffffffffffffffffffffffffffffff021916908373ffffffffffffffffffffffffffffffffffffffff160217905550600260008273ffffffffffffffffffffffffffffffffffffffff1673ffffffffffffffffffffffffffffffffffffffff16815260200190815260200160002060009055600360008273ffffffffffffffffffffffffffffffffffffffff1673ffffffffffffffffffffffffffffffffffffffff168152602001908152602001600020600090557fa1982f3fe3fa9dba8ce5bc91687e2ab0850b0431cddacc1a249b2ae0390b912f838284604051808481526020018373ffffffffffffffffffffffffffffffffffffffff1673ffffffffffffffffffffffffffffffffffffffff1681526020018273ffffffffffffffffffffffffffffffffffffffff1673ffffffffffffffffffffffffffffffffffffffff168152602001935050505060405180910390a1505050565b6000600560009054906101000a900473ffffffffffffffffffffffffffffffffffffffff1673ffffffffffffffffffffffffffffffffffffffff163373ffffffffffffffffffffffffffffffffffffffff1614151561284157600080fd5b600960008373ffffffffffffffffffffffffffffffffffffffff1673ffffffffffffffffffffffffffffffffffffffff16815260200190815260200160002060009054906101000a900460ff161515612954576001600960008473ffffffffffffffffffffffffffffffffffffffff1673ffffffffffffffffffffffffffffffffffffffff16815260200190815260200160002060006101000a81548160ff0219169083151502179055507fd1bba68c128cc3f427e5831b3c6f99f480b6efa6b9e80c757768f6124158cc3f82604051808273ffffffffffffffffffffffffffffffffffffffff1673ffffffffffffffffffffffffffffffffffffffff16815260200191505060405180910390a1600190505b919050565b600560009054906101000a900473ffffffffffffffffffffffffffffffffffffffff1673ffffffffffffffffffffffffffffffffffffffff163373ffffffffffffffffffffffffffffffffffffffff161415156129b557600080fd5b600560009054906101000a900473ffffffffffffffffffffffffffffffffffffffff1673ffffffffffffffffffffffffffffffffffffffff16ff5b600560009054906101000a900473ffffffffffffffffffffffffffffffffffffffff1673ffffffffffffffffffffffffffffffffffffffff163373ffffffffffffffffffffffffffffffffffffffff16141515612a4c57600080fd5b600a60009054906101000a900460ff16151515612a6857600080fd5b6001600a60006101000a81548160ff0219169083151502179055507f6985a02210a168e66602d3235cb6db0e70f92b3ba4d376a33c0f3d9434bff62560405160405180910390a1565b600560009054906101000a900473ffffffffffffffffffffffffffffffffffffffff1673ffffffffffffffffffffffffffffffffffffffff163373ffffffffffffffffffffffffffffffffffffffff16141515612b0d57600080fd5b818160079190612b1e929190614a7c565b507f6362a59ae98fef1a0a45d03a1127a82c2268ca380148117a052b9f8bce8e6f1e8282604051808060200182810382528484828181526020019250808284378201915050935050505060405180910390a15050565b600560009054906101000a900473ffffffffffffffffffffffffffffffffffffffff1681565b612ba2614a68565b60148054600181600116156101000203166002900480601f016020809104026020016040519081016040528092919081815260200182805460018160011615610100020316600290048015612c385780601f10612c0d57610100808354040283529160200191612c38565b820191906000526020600020905b815481529060010190602001808311612c1b57829003601f168201915b5050505050905090565b60036020528060005260406000206000915090505481565b60096020528060005260406000206000915054906101000a900460ff1681565b6000600560009054906101000a900473ffffffffffffffffffffffffffffffffffffffff1673ffffffffffffffffffffffffffffffffffffffff163373ffffffffffffffffffffffffffffffffffffffff16141515612cd857600080fd5b8282905090506101008111151515612cef57600080fd5b8282600d9190612d00929190614a7c565b50505050565b3373ffffffffffffffffffffffffffffffffffffffff168273ffffffffffffffffffffffffffffffffffffffff1614151515612d4157600080fd5b80601260003373ffffffffffffffffffffffffffffffffffffffff1673ffffffffffffffffffffffffffffffffffffffff16815260200190815260200160002060008473ffffffffffffffffffffffffffffffffffffffff1673ffffffffffffffffffffffffffffffffffffffff16815260200190815260200160002060006101000a81548160ff0219169083151502179055508173ffffffffffffffffffffffffffffffffffffffff163373ffffffffffffffffffffffffffffffffffffffff167f17307eab39ab6107e8899845ad3d59bd9653f200f220920489ca2b5937696c3183604051808215151515815260200191505060405180910390a35050565b6000612e4c614b54565b6000806002811115612e5a57fe5b600a60019054906101000a900460ff166002811115612e7557fe5b1415612edc57600560009054906101000a900473ffffffffffffffffffffffffffffffffffffffff1673ffffffffffffffffffffffffffffffffffffffff163373ffffffffffffffffffffffffffffffffffffffff16141515612ed757600080fd5b612fbc565b60016002811115612ee957fe5b600a60019054906101000a900460ff166002811115612f0457fe5b1415612fbb57600960003373ffffffffffffffffffffffffffffffffffffffff1673ffffffffffffffffffffffffffffffffffffffff16815260200190815260200160002060009054906101000a900460ff1680612faf5750600560009054906101000a900473ffffffffffffffffffffffffffffffffffffffff1673ffffffffffffffffffffffffffffffffffffffff163373ffffffffffffffffffffffffffffffffffffffff16145b1515612fba57600080fd5b5b5b600a60009054906101000a900460ff16151515612fd857600080fd5b600b5434141515612fe857600080fd5b6020604051908101604052808581525091506001601a80548060010182816130109190614b68565b9160005260206000209001600085909190915060008201518160000155505003905061303c3382614474565b7fe9a0a2aca9c41fae94448dec8914ad73e4d00ebdc2427e61f3fc66919f4ffa2a3382604051808373ffffffffffffffffffffffffffffffffffffffff1673ffffffffffffffffffffffffffffffffffffffff1681526020018281526020019250505060405180910390a18092505050919050565b600560009054906101000a900473ffffffffffffffffffffffffffffffffffffffff1673ffffffffffffffffffffffffffffffffffffffff163373ffffffffffffffffffffffffffffffffffffffff1614151561310d57600080fd5b81816006919061311e929190614a7c565b507f97bc322e754962c4ff23eb8a9d58b147ead5be0347d9a799addc5a2d44564cbe8282604051808060200182810382528484828181526020019250808284378201915050935050505060405180910390a15050565b601a8181548110151561318357fe5b90600052602060002090016000915090508060000154905081565b816131a93382613f13565b15156131b457600080fd5b6131bf858585611a61565b6131cb858585856144c8565b15156131d657600080fd5b5050505050565b6000601a828154811015156131ee57fe5b9060005260206000209001600001549050919050565b600080600560009054906101000a900473ffffffffffffffffffffffffffffffffffffffff1673ffffffffffffffffffffffffffffffffffffffff163373ffffffffffffffffffffffffffffffffffffffff1614151561326357600080fd5b6010602060ff161115151561327757600080fd5b6132906001600e80549050613dbf90919063ffffffff16565b9150600e828154811015156132a157fe5b906000526020600020900154905080600e858154811015156132bf57fe5b906000526020600020900181600019169055506000600e838154811015156132e357fe5b90600052602060002090018160001916905550600e80548091906001900361330b9190614b94565b5050505050565b600c8054600181600116156101000203166002900480601f0160208091040260200160405190810160405280929190818152602001828054600181600116156101000203166002900480156133a85780601f1061337d576101008083540402835291602001916133a8565b820191906000526020600020905b81548152906001019060200180831161338b57829003601f168201915b505050505081565b6000600560009054906101000a900473ffffffffffffffffffffffffffffffffffffffff1673ffffffffffffffffffffffffffffffffffffffff163373ffffffffffffffffffffffffffffffffffffffff1614151561340e57600080fd5b828290509050600081118015613425575060208111155b151561343057600080fd5b8282600c9190613441929190614a7c565b50505050565b61344f614a68565b6134588261221c565b151561346357600080fd5b601960008381526020019081526020016000208054600181600116156101000203166002900480601f01602080910402602001604051908101604052809291908181526020018280546001816001161561010002031660029004801561350a5780601f106134df5761010080835404028352916020019161350a565b820191906000526020600020905b8154815290600101906020018083116134ed57829003601f168201915b50505050509050919050565b600e8181548110151561352557fe5b90600052602060002090016000915090505481565b600d8054600181600116156101000203166002900480601f0160208091040260200160405190810160405280929190818152602001828054600181600116156101000203166002900480156135d05780601f106135a5576101008083540402835291602001916135d0565b820191906000526020600020905b8154815290600101906020018083116135b357829003601f168201915b505050505081565b60026020528060005260406000206000915090505481565b600560009054906101000a900473ffffffffffffffffffffffffffffffffffffffff1673ffffffffffffffffffffffffffffffffffffffff163373ffffffffffffffffffffffffffffffffffffffff1614151561364c57600080fd5b80600b8190555050565b600080600560009054906101000a900473ffffffffffffffffffffffffffffffffffffffff1673ffffffffffffffffffffffffffffffffffffffff163373ffffffffffffffffffffffffffffffffffffffff161415156136b557600080fd5b600090508073ffffffffffffffffffffffffffffffffffffffff1663b3ae56d1600c6006306000604051602001526040518463ffffffff167c01000000000000000000000000000000000000000000000000000000000281526004018080602001806020018473ffffffffffffffffffffffffffffffffffffffff1673ffffffffffffffffffffffffffffffffffffffff1681526020018381038352868181546001816001161561010002031660029004815260200191508054600181600116156101000203166002900480156137cd5780601f106137a2576101008083540402835291602001916137cd565b820191906000526020600020905b8154815290600101906020018083116137b057829003601f168201915b50508381038252858181546001816001161561010002031660029004815260200191508054600181600116156101000203166002900480156138505780601f1061382557610100808354040283529160200191613850565b820191906000526020600020905b81548152906001019060200180831161383357829003601f168201915b505095505050505050602060405180830381600087803b151561387257600080fd5b6102c65a03f1151561388357600080fd5b5050506040518051905091505090565b60068054600181600116156101000203166002900480601f0160208091040260200160405190810160405280929190818152602001828054600181600116156101000203166002900480156139295780601f106138fe57610100808354040283529160200191613929565b820191906000526020600020905b81548152906001019060200180831161390c57829003601f168201915b505050505081565b600080600560009054906101000a900473ffffffffffffffffffffffffffffffffffffffff1673ffffffffffffffffffffffffffffffffffffffff163373ffffffffffffffffffffffffffffffffffffffff1614151561399057600080fd5b600090505b82518110156139d5576139be83828151811015156139af57fe5b906020019060200201516127e3565b156139c857600191505b8080600101915050613995565b50919050565b60015481565b600560009054906101000a900473ffffffffffffffffffffffffffffffffffffffff1673ffffffffffffffffffffffffffffffffffffffff163373ffffffffffffffffffffffffffffffffffffffff16141515613a3d57600080fd5b6010602060ff1611151515613a5157600080fd5b80600e83815481101515613a6157fe5b906000526020600020900181600019169055505050565b600a60019054906101000a900460ff1681565b6000601260008473ffffffffffffffffffffffffffffffffffffffff1673ffffffffffffffffffffffffffffffffffffffff16815260200190815260200160002060008373ffffffffffffffffffffffffffffffffffffffff1673ffffffffffffffffffffffffffffffffffffffff16815260200190815260200160002060009054906101000a900460ff16905092915050565b600560009054906101000a900473ffffffffffffffffffffffffffffffffffffffff1673ffffffffffffffffffffffffffffffffffffffff163373ffffffffffffffffffffffffffffffffffffffff16141515613b7b57600080fd5b600073ffffffffffffffffffffffffffffffffffffffff168173ffffffffffffffffffffffffffffffffffffffff1614151515613bb757600080fd5b8073ffffffffffffffffffffffffffffffffffffffff16600560009054906101000a900473ffffffffffffffffffffffffffffffffffffffff1673ffffffffffffffffffffffffffffffffffffffff167f8be0079c531659141344cd1fd0a4f28419497f9722a3daafe3b4186f6b6457e060405160405180910390a380600560006101000a81548173ffffffffffffffffffffffffffffffffffffffff021916908373ffffffffffffffffffffffffffffffffffffffff16021790555050565b600560009054906101000a900473ffffffffffffffffffffffffffffffffffffffff1673ffffffffffffffffffffffffffffffffffffffff163373ffffffffffffffffffffffffffffffffffffffff16141515613cd357600080fd5b8073ffffffffffffffffffffffffffffffffffffffff16ff5b3373ffffffffffffffffffffffffffffffffffffffff16613d0c836123bd565b73ffffffffffffffffffffffffffffffffffffffff16141515613d2e57600080fd5b80601a83815481101515613d3e57fe5b9060005260206000209001600001819055507f9d713706ff1ce337670e490ab9f779f7dc2cb5437e6cd35821f79dabbf347d3c3383604051808373ffffffffffffffffffffffffffffffffffffffff1673ffffffffffffffffffffffffffffffffffffffff1681526020018281526020019250505060405180910390a15050565b6000828211151515613dcd57fe5b818303905092915050565b6000806000613de7858561469e565b600060196000868152602001908152602001600020805460018160011615610100020316600290049050141515613e3857601960008581526020019081526020016000206000613e379190614bc0565b5b60186000858152602001908152602001600020549250613e676001601780549050613dbf90919063ffffffff16565b9150601782815481101515613e7857fe5b906000526020600020900154905080601784815481101515613e9657fe5b9060005260206000209001819055506000601783815481101515613eb657fe5b9060005260206000209001819055506017805480919060019003613eda9190614c08565b50600060186000868152602001908152602001600020819055508260186000838152602001908152602001600020819055505050505050565b600080613f1f836123bd565b90508073ffffffffffffffffffffffffffffffffffffffff168473ffffffffffffffffffffffffffffffffffffffff161480613f8e57508373ffffffffffffffffffffffffffffffffffffffff16613f76846114bb565b73ffffffffffffffffffffffffffffffffffffffff16145b80613f9f5750613f9e8185613a8b565b5b91505092915050565b8173ffffffffffffffffffffffffffffffffffffffff16613fc8826123bd565b73ffffffffffffffffffffffffffffffffffffffff16141515613fea57600080fd5b600073ffffffffffffffffffffffffffffffffffffffff166010600083815260200190815260200160002060009054906101000a900473ffffffffffffffffffffffffffffffffffffffff1673ffffffffffffffffffffffffffffffffffffffff1614151561410d5760006010600083815260200190815260200160002060006101000a81548173ffffffffffffffffffffffffffffffffffffffff021916908373ffffffffffffffffffffffffffffffffffffffff160217905550600073ffffffffffffffffffffffffffffffffffffffff168273ffffffffffffffffffffffffffffffffffffffff167f8c5be1e5ebec7d5bd14f71427d1e84f3dd0314c0f7b2291e5b200ac8c7c3b925836040518082815260200191505060405180910390a35b5050565b6000806000614120858561471c565b6016600085815260200190815260200160002054925061418c6001601560008873ffffffffffffffffffffffffffffffffffffffff1673ffffffffffffffffffffffffffffffffffffffff16815260200190815260200160002080549050613dbf90919063ffffffff16565b9150601560008673ffffffffffffffffffffffffffffffffffffffff1673ffffffffffffffffffffffffffffffffffffffff168152602001908152602001600020828154811015156141da57fe5b906000526020600020900154905080601560008773ffffffffffffffffffffffffffffffffffffffff1673ffffffffffffffffffffffffffffffffffffffff1681526020019081526020016000208481548110151561423557fe5b9060005260206000209001819055506000601560008773ffffffffffffffffffffffffffffffffffffffff1673ffffffffffffffffffffffffffffffffffffffff1681526020019081526020016000208381548110151561429257fe5b906000526020600020900181905550601560008673ffffffffffffffffffffffffffffffffffffffff1673ffffffffffffffffffffffffffffffffffffffff1681526020019081526020016000208054809190600190036142f39190614c08565b50600060166000868152602001908152602001600020819055508260166000838152602001908152602001600020819055505050505050565b6000614338838361484b565b601560008473ffffffffffffffffffffffffffffffffffffffff1673ffffffffffffffffffffffffffffffffffffffff168152602001908152602001600020805490509050601560008473ffffffffffffffffffffffffffffffffffffffff1673ffffffffffffffffffffffffffffffffffffffff16815260200190815260200160002080548060010182816143ce9190614c34565b916000526020600020900160008490919091505550806016600084815260200190815260200160002081905550505050565b600080828401905083811015151561441457fe5b8091505092915050565b60008060008414156144335760009150614452565b828402905082848281151561444457fe5b0414151561444e57fe5b8091505b5092915050565b600080828481151561446757fe5b0490508091505092915050565b61447e82826149a5565b6017805490506018600083815260200190815260200160002081905550601780548060010182816144af9190614c34565b9160005260206000209001600083909190915055505050565b6000806144ea8573ffffffffffffffffffffffffffffffffffffffff16614a55565b15156144f95760019150614695565b8473ffffffffffffffffffffffffffffffffffffffff1663f0b9e5ba8786866000604051602001526040518463ffffffff167c0100000000000000000000000000000000000000000000000000000000028152600401808473ffffffffffffffffffffffffffffffffffffffff1673ffffffffffffffffffffffffffffffffffffffff16815260200183815260200180602001828103825283818151815260200191508051906020019080838360005b838110156145c45780820151818401526020810190506145a9565b50505050905090810190601f1680156145f15780820380516001836020036101000a031916815260200191505b50945050505050602060405180830381600087803b151561461157600080fd5b6102c65a03f1151561462257600080fd5b50505060405180519050905063f0b9e5ba7c0100000000000000000000000000000000000000000000000000000000027bffffffffffffffffffffffffffffffffffffffffffffffffffffffff1916817bffffffffffffffffffffffffffffffffffffffffffffffffffffffff19161491505b50949350505050565b6146a88282613fa8565b6146b28282614111565b600073ffffffffffffffffffffffffffffffffffffffff168273ffffffffffffffffffffffffffffffffffffffff167fddf252ad1be2c89b69c2b068fc378daa952ba7f163c4a11628f55a4df523b3ef836040518082815260200191505060405180910390a35050565b8173ffffffffffffffffffffffffffffffffffffffff1661473c826123bd565b73ffffffffffffffffffffffffffffffffffffffff1614151561475e57600080fd5b6147b16001601160008573ffffffffffffffffffffffffffffffffffffffff1673ffffffffffffffffffffffffffffffffffffffff16815260200190815260200160002054613dbf90919063ffffffff16565b601160008473ffffffffffffffffffffffffffffffffffffffff1673ffffffffffffffffffffffffffffffffffffffff168152602001908152602001600020819055506000600f600083815260200190815260200160002060006101000a81548173ffffffffffffffffffffffffffffffffffffffff021916908373ffffffffffffffffffffffffffffffffffffffff1602179055505050565b600073ffffffffffffffffffffffffffffffffffffffff16600f600083815260200190815260200160002060009054906101000a900473ffffffffffffffffffffffffffffffffffffffff1673ffffffffffffffffffffffffffffffffffffffff161415156148b957600080fd5b81600f600083815260200190815260200160002060006101000a81548173ffffffffffffffffffffffffffffffffffffffff021916908373ffffffffffffffffffffffffffffffffffffffff16021790555061495e6001601160008573ffffffffffffffffffffffffffffffffffffffff1673ffffffffffffffffffffffffffffffffffffffff1681526020019081526020016000205461440090919063ffffffff16565b601160008473ffffffffffffffffffffffffffffffffffffffff1673ffffffffffffffffffffffffffffffffffffffff168152602001908152602001600020819055505050565b600073ffffffffffffffffffffffffffffffffffffffff168273ffffffffffffffffffffffffffffffffffffffff16141515156149e157600080fd5b6149eb828261432c565b8173ffffffffffffffffffffffffffffffffffffffff16600073ffffffffffffffffffffffffffffffffffffffff167fddf252ad1be2c89b69c2b068fc378daa952ba7f163c4a11628f55a4df523b3ef836040518082815260200191505060405180910390a35050565b600080823b905060008111915050919050565b602060405190810160405280600081525090565b828054600181600116156101000203166002900490600052602060002090601f016020900481019282601f10614abd57803560ff1916838001178555614aeb565b82800160010185558215614aeb579182015b82811115614aea578235825591602001919060010190614acf565b5b509050614af89190614c60565b5090565b815481835581811511614b2357818360005260206000209182019101614b229190614c85565b5b505050565b815481835581811511614b4f57818360005260206000209182019101614b4e9190614cac565b5b505050565b602060405190810160405280600081525090565b815481835581811511614b8f57818360005260206000209182019101614b8e9190614c85565b5b505050565b815481835581811511614bbb57818360005260206000209182019101614bba9190614cac565b5b505050565b50805460018160011615610100020316600290046000825580601f10614be65750614c05565b601f016020900490600052602060002090810190614c049190614c60565b5b50565b815481835581811511614c2f57818360005260206000209182019101614c2e9190614c60565b5b505050565b815481835581811511614c5b57818360005260206000209182019101614c5a9190614c60565b5b505050565b614c8291905b80821115614c7e576000816000905550600101614c66565b5090565b90565b614ca991905b80821115614ca55760008082016000905550600101614c8b565b5090565b90565b614cce91905b80821115614cca576000816000905550600101614cb2565b5090565b90565b600073ffffffffffffffffffffffffffffffffffffffff168273ffffffffffffffffffffffffffffffffffffffff1614151515614d0d57600080fd5b600081111515614d1c57600080fd5b6000600260008473ffffffffffffffffffffffffffffffffffffffff1673ffffffffffffffffffffffffffffffffffffffff16815260200190815260200160002054141515614d6a57600080fd5b60048054806001018281614d7e9190614e30565b9160005260206000209001600084909190916101000a81548173ffffffffffffffffffffffffffffffffffffffff021916908373ffffffffffffffffffffffffffffffffffffffff1602179055505080600260008473ffffffffffffffffffffffffffffffffffffffff1673ffffffffffffffffffffffffffffffffffffffff16815260200190815260200160002081905550614e268160005461440090919063ffffffff16565b6000819055505050565b815481835581811511614e5757818360005260206000209182019101614e569190614c60565b5b5050505600a165627a7a723058208ef9e9cbe512f83a31e975e753ab08f1ad86e02706281e98d2e2f1530898f00c0029",
  "source": "pragma solidity ^0.4.18;\n\nimport \"zeppelin-solidity/contracts/token/ERC721/ERC721Token.sol\";\nimport \"zeppelin-solidity/contracts/math/SafeMath.sol\";\nimport \"zeppelin-solidity/contracts/AddressUtils.sol\";\nimport \"./common/Chaingeareable.sol\";\n\n\ncontract Registry is Chaingeareable, ERC721Token {\n\n    using SafeMath for uint256;\n    using AddressUtils for address;\n\n    struct Entry {\n        uint price;\n    }\n    Entry[] public entries;\n\n    /* struct EntryMeta {\n       address creator;\n       uint createdAt;\n       uint lastUpdateTime;\n       uint currentEntryBalanceETH;\n       uint accumulatedOverallEntryEth;\n    }\n\n    EntryMeta[] entriesMeta;\n    mapping (uint256 => EntryMeta) entriesMetaIndex; */\n\n    event EntryCreated(address entryCreator, uint256 entryId);\n    event EntryUpdated(address entryOwner, uint256 entryId);\n    event EntryDeleted(address entryOwner, uint256 entryId);\n\n    function Registry(\n        address[] _benefitiaries,\n        uint256[] _shares,\n        PermissionTypeEntries _permissionTypeEntries,\n        uint _entryCreationFee,\n        string _linkABI,\n        string _linkMeta,\n        string _linkSourceCode,\n        string _registryName,\n        string _registryDescription,\n        string _registySymbol\n    ) SplitPaymentChangeable(_benefitiaries, _shares)\n      ERC721Token(_registryName, _registySymbol) public \n    {\n        permissionTypeEntries_ = _permissionTypeEntries;\n        entryCreationFee_ = _entryCreationFee;\n        linkABI_ = _linkABI;\n        linkMeta_ = _linkMeta;\n        linkSourceCode_ = _linkSourceCode;\n        registryName_ = _registryName;\n        registryDescription_ = _registryDescription;\n\n        registerInChaingear();\n    }\n\n    function createEntry(uint _price) external onlyPermissionedToEntries payable whenNotPaused returns (uint256 tokenId) {\n        require(msg.value == entryCreationFee_);\n\n        Entry memory entry = (Entry(\n        {\n            price: _price\n        }));\n        uint256 newEntryId = entries.push(entry) - 1;\n        ERC721Token._mint(msg.sender, newEntryId);\n\n        EntryCreated(msg.sender, newEntryId);\n        return newEntryId;\n    }\n\n    function updateEntryPrice(uint256 _entryId, uint _price) external {\n        require (ERC721BasicToken.ownerOf(_entryId) == msg.sender);\n\n        entries[_entryId].price = _price;\n\n        EntryUpdated(msg.sender, _entryId);\n    }\n\n    function deleteEntry(uint256 _entryId) whenNotPaused external {\n        require (ERC721BasicToken.ownerOf(_entryId) == msg.sender);\n\n        uint256 entryIndex = allTokensIndex[_entryId];\n        uint256 lastEntryIndex = entries.length.sub(1);\n        Entry storage lastEntry = entries[lastEntryIndex];\n\n        entries[entryIndex] = lastEntry;\n        delete entries[lastEntryIndex];\n        entries.length--;\n\n        ERC721Token._burn(msg.sender, _entryId);\n\n        //rethink this event\n        EntryDeleted(msg.sender, _entryId);\n    }\n\n    function getEntry(uint256 _entryId) external view returns (uint price) {\n        return (entries[_entryId].price);\n    }\n}\n",
  "sourcePath": "/Users/litvintech/Projects/chaingear/contracts/Registry.sol",
  "compiler": {
    "name": "solc",
    "version": "0.4.19+commit.c4cbbb05.Emscripten.clang"
  },
  "schemaVersion": "1.0.1",
  "updatedAt": "2018-04-06T10:18:16.486Z"
}