{
  "contractName": "Registry",
  "abi": [
    {
      "constant": true,
      "inputs": [],
      "name": "creator",
      "outputs": [
        {
          "name": "",
          "type": "address"
        }
      ],
      "payable": false,
      "stateMutability": "view",
      "type": "function"
    },
    {
      "constant": true,
      "inputs": [],
      "name": "name",
      "outputs": [
        {
          "name": "",
          "type": "string"
        }
      ],
      "payable": false,
      "stateMutability": "view",
      "type": "function"
    },
    {
      "constant": true,
      "inputs": [],
      "name": "linkSourceCode",
      "outputs": [
        {
          "name": "",
          "type": "string"
        }
      ],
      "payable": false,
      "stateMutability": "view",
      "type": "function"
    },
    {
      "constant": true,
      "inputs": [
        {
          "name": "_tokenId",
          "type": "uint256"
        }
      ],
      "name": "getApproved",
      "outputs": [
        {
          "name": "",
          "type": "address"
        }
      ],
      "payable": false,
      "stateMutability": "view",
      "type": "function"
    },
    {
      "constant": false,
      "inputs": [
        {
          "name": "_to",
          "type": "address"
        },
        {
          "name": "_tokenId",
          "type": "uint256"
        }
      ],
      "name": "approve",
      "outputs": [],
      "payable": false,
      "stateMutability": "nonpayable",
      "type": "function"
    },
    {
      "constant": true,
      "inputs": [],
      "name": "registryName",
      "outputs": [
        {
          "name": "",
          "type": "string"
        }
      ],
      "payable": false,
      "stateMutability": "view",
      "type": "function"
    },
    {
      "constant": true,
      "inputs": [],
      "name": "totalSupply",
      "outputs": [
        {
          "name": "",
          "type": "uint256"
        }
      ],
      "payable": false,
      "stateMutability": "view",
      "type": "function"
    },
    {
      "constant": false,
      "inputs": [
        {
          "name": "_tag",
          "type": "bytes32"
        }
      ],
      "name": "addRegistryTag",
      "outputs": [],
      "payable": false,
      "stateMutability": "nonpayable",
      "type": "function"
    },
    {
      "constant": false,
      "inputs": [
        {
          "name": "_from",
          "type": "address"
        },
        {
          "name": "_to",
          "type": "address"
        },
        {
          "name": "_tokenId",
          "type": "uint256"
        }
      ],
      "name": "transferFrom",
      "outputs": [],
      "payable": false,
      "stateMutability": "nonpayable",
      "type": "function"
    },
    {
      "constant": false,
      "inputs": [
        {
          "name": "_permissionTypeEntries",
          "type": "uint256"
        }
      ],
      "name": "updatePermissionTypeEntries",
      "outputs": [],
      "payable": false,
      "stateMutability": "nonpayable",
      "type": "function"
    },
    {
      "constant": true,
      "inputs": [
        {
          "name": "_owner",
          "type": "address"
        },
        {
          "name": "_index",
          "type": "uint256"
        }
      ],
      "name": "tokenOfOwnerByIndex",
      "outputs": [
        {
          "name": "",
          "type": "uint256"
        }
      ],
      "payable": false,
      "stateMutability": "view",
      "type": "function"
    },
    {
      "constant": true,
      "inputs": [],
      "name": "permissionsTypeEntries",
      "outputs": [
        {
          "name": "",
          "type": "uint8"
        }
      ],
      "payable": false,
      "stateMutability": "view",
      "type": "function"
    },
    {
      "constant": true,
      "inputs": [],
      "name": "entryCreationFee",
      "outputs": [
        {
          "name": "",
          "type": "uint256"
        }
      ],
      "payable": false,
      "stateMutability": "view",
      "type": "function"
    },
    {
      "constant": true,
      "inputs": [],
      "name": "registryDescription",
      "outputs": [
        {
          "name": "",
          "type": "string"
        }
      ],
      "payable": false,
      "stateMutability": "view",
      "type": "function"
    },
    {
      "constant": false,
      "inputs": [
        {
          "name": "_from",
          "type": "address"
        },
        {
          "name": "_to",
          "type": "address"
        },
        {
          "name": "_tokenId",
          "type": "uint256"
        }
      ],
      "name": "safeTransferFrom",
      "outputs": [],
      "payable": false,
      "stateMutability": "nonpayable",
      "type": "function"
    },
    {
      "constant": false,
      "inputs": [
        {
          "name": "_linkABI",
          "type": "string"
        }
      ],
      "name": "setABILink",
      "outputs": [],
      "payable": false,
      "stateMutability": "nonpayable",
      "type": "function"
    },
    {
      "constant": true,
      "inputs": [],
      "name": "linkMeta",
      "outputs": [
        {
          "name": "",
          "type": "string"
        }
      ],
      "payable": false,
      "stateMutability": "view",
      "type": "function"
    },
    {
      "constant": true,
      "inputs": [
        {
          "name": "_tokenId",
          "type": "uint256"
        }
      ],
      "name": "exists",
      "outputs": [
        {
          "name": "",
          "type": "bool"
        }
      ],
      "payable": false,
      "stateMutability": "view",
      "type": "function"
    },
    {
      "constant": true,
      "inputs": [
        {
          "name": "_index",
          "type": "uint256"
        }
      ],
      "name": "tokenByIndex",
      "outputs": [
        {
          "name": "",
          "type": "uint256"
        }
      ],
      "payable": false,
      "stateMutability": "view",
      "type": "function"
    },
    {
      "constant": true,
      "inputs": [
        {
          "name": "_tokenId",
          "type": "uint256"
        }
      ],
      "name": "ownerOf",
      "outputs": [
        {
          "name": "",
          "type": "address"
        }
      ],
      "payable": false,
      "stateMutability": "view",
      "type": "function"
    },
    {
      "constant": true,
      "inputs": [],
      "name": "registryBalance",
      "outputs": [
        {
          "name": "",
          "type": "uint256"
        }
      ],
      "payable": false,
      "stateMutability": "view",
      "type": "function"
    },
    {
      "constant": false,
      "inputs": [
        {
          "name": "_linkMeta",
          "type": "string"
        }
      ],
      "name": "setMetaLink",
      "outputs": [],
      "payable": false,
      "stateMutability": "nonpayable",
      "type": "function"
    },
    {
      "constant": true,
      "inputs": [
        {
          "name": "_owner",
          "type": "address"
        }
      ],
      "name": "balanceOf",
      "outputs": [
        {
          "name": "",
          "type": "uint256"
        }
      ],
      "payable": false,
      "stateMutability": "view",
      "type": "function"
    },
    {
      "constant": false,
      "inputs": [],
      "name": "destroy",
      "outputs": [],
      "payable": false,
      "stateMutability": "nonpayable",
      "type": "function"
    },
    {
      "constant": false,
      "inputs": [
        {
          "name": "_linkSourceCode",
          "type": "string"
        }
      ],
      "name": "setSourceLink",
      "outputs": [],
      "payable": false,
      "stateMutability": "nonpayable",
      "type": "function"
    },
    {
      "constant": true,
      "inputs": [],
      "name": "owner",
      "outputs": [
        {
          "name": "",
          "type": "address"
        }
      ],
      "payable": false,
      "stateMutability": "view",
      "type": "function"
    },
    {
      "constant": true,
      "inputs": [],
      "name": "symbol",
      "outputs": [
        {
          "name": "",
          "type": "string"
        }
      ],
      "payable": false,
      "stateMutability": "view",
      "type": "function"
    },
    {
      "constant": true,
      "inputs": [],
      "name": "linkABI",
      "outputs": [
        {
          "name": "",
          "type": "string"
        }
      ],
      "payable": false,
      "stateMutability": "view",
      "type": "function"
    },
    {
      "constant": false,
      "inputs": [
        {
          "name": "_registryDescription",
          "type": "string"
        }
      ],
      "name": "updateRegistryDescription",
      "outputs": [],
      "payable": false,
      "stateMutability": "nonpayable",
      "type": "function"
    },
    {
      "constant": false,
      "inputs": [
        {
          "name": "_to",
          "type": "address"
        },
        {
          "name": "_approved",
          "type": "bool"
        }
      ],
      "name": "setApprovalForAll",
      "outputs": [],
      "payable": false,
      "stateMutability": "nonpayable",
      "type": "function"
    },
    {
      "constant": false,
      "inputs": [
        {
          "name": "_from",
          "type": "address"
        },
        {
          "name": "_to",
          "type": "address"
        },
        {
          "name": "_tokenId",
          "type": "uint256"
        },
        {
          "name": "_data",
          "type": "bytes"
        }
      ],
      "name": "safeTransferFrom",
      "outputs": [],
      "payable": false,
      "stateMutability": "nonpayable",
      "type": "function"
    },
    {
      "constant": false,
      "inputs": [
        {
          "name": "_index",
          "type": "uint256"
        },
        {
          "name": "_tag",
          "type": "bytes32"
        }
      ],
      "name": "removeRegistryTag",
      "outputs": [],
      "payable": false,
      "stateMutability": "nonpayable",
      "type": "function"
    },
    {
      "constant": true,
      "inputs": [],
      "name": "entryBase",
      "outputs": [
        {
          "name": "",
          "type": "address"
        }
      ],
      "payable": false,
      "stateMutability": "view",
      "type": "function"
    },
    {
      "constant": false,
      "inputs": [
        {
          "name": "_registryName",
          "type": "string"
        }
      ],
      "name": "updateRegistryName",
      "outputs": [],
      "payable": false,
      "stateMutability": "nonpayable",
      "type": "function"
    },
    {
      "constant": true,
      "inputs": [
        {
          "name": "_tokenId",
          "type": "uint256"
        }
      ],
      "name": "tokenURI",
      "outputs": [
        {
          "name": "",
          "type": "string"
        }
      ],
      "payable": false,
      "stateMutability": "view",
      "type": "function"
    },
    {
      "constant": false,
      "inputs": [
        {
          "name": "_fee",
          "type": "uint256"
        }
      ],
      "name": "updateEntryCreationFee",
      "outputs": [],
      "payable": false,
      "stateMutability": "nonpayable",
      "type": "function"
    },
    {
      "constant": false,
      "inputs": [
        {
          "name": "_index",
          "type": "uint256"
        },
        {
          "name": "_tag",
          "type": "bytes32"
        }
      ],
      "name": "updateRegistryTag",
      "outputs": [],
      "payable": false,
      "stateMutability": "nonpayable",
      "type": "function"
    },
    {
      "constant": true,
      "inputs": [
        {
          "name": "_owner",
          "type": "address"
        },
        {
          "name": "_operator",
          "type": "address"
        }
      ],
      "name": "isApprovedForAll",
      "outputs": [
        {
          "name": "",
          "type": "bool"
        }
      ],
      "payable": false,
      "stateMutability": "view",
      "type": "function"
    },
    {
      "constant": false,
      "inputs": [
        {
          "name": "newOwner",
          "type": "address"
        }
      ],
      "name": "transferOwnership",
      "outputs": [],
      "payable": false,
      "stateMutability": "nonpayable",
      "type": "function"
    },
    {
      "constant": false,
      "inputs": [
        {
          "name": "_recipient",
          "type": "address"
        }
      ],
      "name": "destroyAndSend",
      "outputs": [],
      "payable": false,
      "stateMutability": "nonpayable",
      "type": "function"
    },
    {
      "constant": true,
      "inputs": [],
      "name": "registryTags",
      "outputs": [
        {
          "name": "",
          "type": "bytes32[]"
        }
      ],
      "payable": false,
      "stateMutability": "view",
      "type": "function"
    },
    {
      "inputs": [
        {
          "name": "_entryCreationFee",
          "type": "uint256"
        },
        {
          "name": "_name",
          "type": "string"
        },
        {
          "name": "_symbol",
          "type": "string"
        },
        {
          "name": "_bytecodeOfEntriesContract",
          "type": "bytes"
        }
      ],
      "payable": true,
      "stateMutability": "payable",
      "type": "constructor"
    },
    {
      "anonymous": false,
      "inputs": [
        {
          "indexed": true,
          "name": "_from",
          "type": "address"
        },
        {
          "indexed": true,
          "name": "_to",
          "type": "address"
        },
        {
          "indexed": false,
          "name": "_tokenId",
          "type": "uint256"
        }
      ],
      "name": "Transfer",
      "type": "event"
    },
    {
      "anonymous": false,
      "inputs": [
        {
          "indexed": true,
          "name": "_owner",
          "type": "address"
        },
        {
          "indexed": true,
          "name": "_approved",
          "type": "address"
        },
        {
          "indexed": false,
          "name": "_tokenId",
          "type": "uint256"
        }
      ],
      "name": "Approval",
      "type": "event"
    },
    {
      "anonymous": false,
      "inputs": [
        {
          "indexed": true,
          "name": "_owner",
          "type": "address"
        },
        {
          "indexed": true,
          "name": "_operator",
          "type": "address"
        },
        {
          "indexed": false,
          "name": "_approved",
          "type": "bool"
        }
      ],
      "name": "ApprovalForAll",
      "type": "event"
    },
    {
      "anonymous": false,
      "inputs": [
        {
          "indexed": false,
          "name": "creator",
          "type": "address"
        },
        {
          "indexed": false,
          "name": "entryId",
          "type": "uint256"
        }
      ],
      "name": "EntryCreated",
      "type": "event"
    },
    {
      "anonymous": false,
      "inputs": [
        {
          "indexed": false,
          "name": "owner",
          "type": "address"
        },
        {
          "indexed": false,
          "name": "entryId",
          "type": "uint256"
        }
      ],
      "name": "EntryUpdated",
      "type": "event"
    },
    {
      "anonymous": false,
      "inputs": [
        {
          "indexed": false,
          "name": "entryId",
          "type": "uint256"
        },
        {
          "indexed": false,
          "name": "newOwner",
          "type": "address"
        }
      ],
      "name": "EntryChangedOwner",
      "type": "event"
    },
    {
      "anonymous": false,
      "inputs": [
        {
          "indexed": false,
          "name": "owner",
          "type": "address"
        },
        {
          "indexed": false,
          "name": "entryId",
          "type": "uint256"
        }
      ],
      "name": "EntryDeleted",
      "type": "event"
    },
    {
      "anonymous": false,
      "inputs": [
        {
          "indexed": false,
          "name": "linkMeta",
          "type": "string"
        }
      ],
      "name": "MetaLinkUpdated",
      "type": "event"
    },
    {
      "anonymous": false,
      "inputs": [
        {
          "indexed": false,
          "name": "linkABI",
          "type": "string"
        }
      ],
      "name": "ABILinkUpdated",
      "type": "event"
    },
    {
      "anonymous": false,
      "inputs": [
        {
          "indexed": false,
          "name": "linkSource",
          "type": "string"
        }
      ],
      "name": "SourceLinkUpdated",
      "type": "event"
    },
    {
      "anonymous": false,
      "inputs": [
        {
          "indexed": true,
          "name": "previousOwner",
          "type": "address"
        },
        {
          "indexed": true,
          "name": "newOwner",
          "type": "address"
        }
      ],
      "name": "OwnershipTransferred",
      "type": "event"
    },
    {
      "constant": false,
      "inputs": [
        {
          "name": "_serializedParams",
          "type": "bytes"
        }
      ],
      "name": "createEntry",
      "outputs": [
        {
          "name": "",
          "type": "uint256"
        }
      ],
      "payable": true,
      "stateMutability": "payable",
      "type": "function"
    }
  ],
  "bytecode": "0x606060405260405162003713380380620037138339810160405280805190602001909190805182019190602001805182019190602001805182019190505060008383336000806101000a81548173ffffffffffffffffffffffffffffffffffffffff021916908373ffffffffffffffffffffffffffffffffffffffff16021790555032600460006101000a81548173ffffffffffffffffffffffffffffffffffffffff021916908373ffffffffffffffffffffffffffffffffffffffff16021790555081600e9080519060200190620000da92919062000195565b5080600f9080519060200190620000f392919062000195565b5050508460058190555083600690805190602001906200011592919062000195565b5081516020830181816000f09250505060008173ffffffffffffffffffffffffffffffffffffffff16141515156200014957fe5b80600960006101000a81548173ffffffffffffffffffffffffffffffffffffffff021916908373ffffffffffffffffffffffffffffffffffffffff160217905550505050505062000244565b828054600181600116156101000203166002900490600052602060002090601f016020900481019282601f10620001d857805160ff191683800117855562000209565b8280016001018555821562000209579182015b8281111562000208578251825591602001919060010190620001eb565b5b5090506200021891906200021c565b5090565b6200024191905b808211156200023d57600081600090555060010162000223565b5090565b90565b6134bf80620002546000396000f300606060405260043610610204576000357c0100000000000000000000000000000000000000000000000000000000900463ffffffff16806302d05d3f1461020957806306fdde031461025e57806307b1f8f7146102ec578063081812fc1461037a578063095ea7b3146103dd5780631654d1691461041f57806318160ddd146104ad578063189efc7c146104d65780631a849d6b146104fd57806323b872dd1461053457806327f5f1b6146105955780632f745c59146105b8578063351c6bbe1461060e5780633a1a3d951461064557806341c39e5c1461066e57806342842e0e146106fc5780634545d21c1461075d5780634dfaf97a1461078b5780634f558e79146108195780634f6ccce7146108545780636352211e1461088b57806368b34562146108ee5780636d2fd1381461091757806370a082311461094557806383197ef01461099257806383ca00ac146109a75780638da5cb5b146109d557806395d89b4114610a2a5780639e925a7814610ab8578063a1f14b2714610b46578063a22cb46514610b74578063b88d4fde14610bb8578063bc044e1814610c5c578063bf3fde3314610c8c578063c81225eb14610ce1578063c87b56dd14610d0f578063d24f707614610dab578063e59f0cc214610dce578063e985e9c514610dfe578063f2fde38b14610e6e578063f5074f4114610ea7578063f5ec4e5014610ee0575b600080fd5b341561021457600080fd5b61021c610f4a565b604051808273ffffffffffffffffffffffffffffffffffffffff1673ffffffffffffffffffffffffffffffffffffffff16815260200191505060405180910390f35b341561026957600080fd5b610271610f74565b6040518080602001828103825283818151815260200191508051906020019080838360005b838110156102b1578082015181840152602081019050610296565b50505050905090810190601f1680156102de5780820380516001836020036101000a031916815260200191505b509250505060405180910390f35b34156102f757600080fd5b6102ff61101c565b6040518080602001828103825283818151815260200191508051906020019080838360005b8381101561033f578082015181840152602081019050610324565b50505050905090810190601f16801561036c5780820380516001836020036101000a031916815260200191505b509250505060405180910390f35b341561038557600080fd5b61039b60048080359060200190919050506110c4565b604051808273ffffffffffffffffffffffffffffffffffffffff1673ffffffffffffffffffffffffffffffffffffffff16815260200191505060405180910390f35b34156103e857600080fd5b61041d600480803573ffffffffffffffffffffffffffffffffffffffff16906020019091908035906020019091905050611101565b005b341561042a57600080fd5b6104326112c7565b6040518080602001828103825283818151815260200191508051906020019080838360005b83811015610472578082015181840152602081019050610457565b50505050905090810190601f16801561049f5780820380516001836020036101000a031916815260200191505b509250505060405180910390f35b34156104b857600080fd5b6104c061136f565b6040518082815260200191505060405180910390f35b34156104e157600080fd5b6104fb60048080356000191690602001909190505061137c565b005b61051e6004808035906020019082018035906020019190919290505061141e565b6040518082815260200191505060405180910390f35b341561053f57600080fd5b610593600480803573ffffffffffffffffffffffffffffffffffffffff1690602001909190803573ffffffffffffffffffffffffffffffffffffffff1690602001909190803590602001909190505061160b565b005b34156105a057600080fd5b6105b66004808035906020019091905050611722565b005b34156105c357600080fd5b6105f8600480803573ffffffffffffffffffffffffffffffffffffffff169060200190919080359060200190919050506117c9565b6040518082815260200191505060405180910390f35b341561061957600080fd5b610621611841565b6040518082600281111561063157fe5b60ff16815260200191505060405180910390f35b341561065057600080fd5b610658611858565b6040518082815260200191505060405180910390f35b341561067957600080fd5b610681611862565b6040518080602001828103825283818151815260200191508051906020019080838360005b838110156106c15780820151818401526020810190506106a6565b50505050905090810190601f1680156106ee5780820380516001836020036101000a031916815260200191505b509250505060405180910390f35b341561070757600080fd5b61075b600480803573ffffffffffffffffffffffffffffffffffffffff1690602001909190803573ffffffffffffffffffffffffffffffffffffffff1690602001909190803590602001909190505061190a565b005b341561076857600080fd5b61078960048080359060200190820180359060200191909192905050611942565b005b341561079657600080fd5b61079e611a04565b6040518080602001828103825283818151815260200191508051906020019080838360005b838110156107de5780820151818401526020810190506107c3565b50505050905090810190601f16801561080b5780820380516001836020036101000a031916815260200191505b509250505060405180910390f35b341561082457600080fd5b61083a6004808035906020019091905050611aac565b604051808215151515815260200191505060405180910390f35b341561085f57600080fd5b6108756004808035906020019091905050611b1e565b6040518082815260200191505060405180910390f35b341561089657600080fd5b6108ac6004808035906020019091905050611b57565b604051808273ffffffffffffffffffffffffffffffffffffffff1673ffffffffffffffffffffffffffffffffffffffff16815260200191505060405180910390f35b34156108f957600080fd5b610901611bd5565b6040518082815260200191505060405180910390f35b341561092257600080fd5b61094360048080359060200190820180359060200191909192905050611bf4565b005b341561095057600080fd5b61097c600480803573ffffffffffffffffffffffffffffffffffffffff16906020019091905050611cb6565b6040518082815260200191505060405180910390f35b341561099d57600080fd5b6109a5611d3a565b005b34156109b257600080fd5b6109d360048080359060200190820180359060200191909192905050611dcf565b005b34156109e057600080fd5b6109e8611e91565b604051808273ffffffffffffffffffffffffffffffffffffffff1673ffffffffffffffffffffffffffffffffffffffff16815260200191505060405180910390f35b3415610a3557600080fd5b610a3d611eb6565b6040518080602001828103825283818151815260200191508051906020019080838360005b83811015610a7d578082015181840152602081019050610a62565b50505050905090810190601f168015610aaa5780820380516001836020036101000a031916815260200191505b509250505060405180910390f35b3415610ac357600080fd5b610acb611f5e565b6040518080602001828103825283818151815260200191508051906020019080838360005b83811015610b0b578082015181840152602081019050610af0565b50505050905090810190601f168015610b385780820380516001836020036101000a031916815260200191505b509250505060405180910390f35b3415610b5157600080fd5b610b7260048080359060200190820180359060200191909192905050612006565b005b3415610b7f57600080fd5b610bb6600480803573ffffffffffffffffffffffffffffffffffffffff169060200190919080351515906020019091905050612092565b005b3415610bc357600080fd5b610c5a600480803573ffffffffffffffffffffffffffffffffffffffff1690602001909190803573ffffffffffffffffffffffffffffffffffffffff1690602001909190803590602001909190803590602001908201803590602001908080601f016020809104026020016040519081016040528093929190818152602001838380828437820191505050505050919050506121ce565b005b3415610c6757600080fd5b610c8a60048080359060200190919080356000191690602001909190505061220d565b005b3415610c9757600080fd5b610c9f61230b565b604051808273ffffffffffffffffffffffffffffffffffffffff1673ffffffffffffffffffffffffffffffffffffffff16815260200191505060405180910390f35b3415610cec57600080fd5b610d0d60048080359060200190820180359060200191909192905050612335565b005b3415610d1a57600080fd5b610d3060048080359060200190919050506123cc565b6040518080602001828103825283818151815260200191508051906020019080838360005b83811015610d70578082015181840152602081019050610d55565b50505050905090810190601f168015610d9d5780820380516001836020036101000a031916815260200191505b509250505060405180910390f35b3415610db657600080fd5b610dcc600480803590602001909190505061249b565b005b3415610dd957600080fd5b610dfc600480803590602001909190803560001916906020019091905050612501565b005b3415610e0957600080fd5b610e54600480803573ffffffffffffffffffffffffffffffffffffffff1690602001909190803573ffffffffffffffffffffffffffffffffffffffff16906020019091905050612598565b604051808215151515815260200191505060405180910390f35b3415610e7957600080fd5b610ea5600480803573ffffffffffffffffffffffffffffffffffffffff1690602001909190505061262c565b005b3415610eb257600080fd5b610ede600480803573ffffffffffffffffffffffffffffffffffffffff16906020019091905050612781565b005b3415610eeb57600080fd5b610ef36127f5565b6040518080602001828103825283818151815260200191508051906020019060200280838360005b83811015610f36578082015181840152602081019050610f1b565b505050509050019250505060405180910390f35b6000600460009054906101000a900473ffffffffffffffffffffffffffffffffffffffff16905090565b610f7c6132f1565b600e8054600181600116156101000203166002900480601f0160208091040260200160405190810160405280929190818152602001828054600181600116156101000203166002900480156110125780601f10610fe757610100808354040283529160200191611012565b820191906000526020600020905b815481529060010190602001808311610ff557829003601f168201915b5050505050905090565b6110246132f1565b60038054600181600116156101000203166002900480601f0160208091040260200160405190810160405280929190818152602001828054600181600116156101000203166002900480156110ba5780601f1061108f576101008083540402835291602001916110ba565b820191906000526020600020905b81548152906001019060200180831161109d57829003601f168201915b5050505050905090565b6000600b600083815260200190815260200160002060009054906101000a900473ffffffffffffffffffffffffffffffffffffffff169050919050565b600061110c82611b57565b90508073ffffffffffffffffffffffffffffffffffffffff168373ffffffffffffffffffffffffffffffffffffffff161415151561114957600080fd5b8073ffffffffffffffffffffffffffffffffffffffff163373ffffffffffffffffffffffffffffffffffffffff16148061118957506111888133612598565b5b151561119457600080fd5b600073ffffffffffffffffffffffffffffffffffffffff166111b5836110c4565b73ffffffffffffffffffffffffffffffffffffffff161415806112055750600073ffffffffffffffffffffffffffffffffffffffff168373ffffffffffffffffffffffffffffffffffffffff1614155b156112c25782600b600084815260200190815260200160002060006101000a81548173ffffffffffffffffffffffffffffffffffffffff021916908373ffffffffffffffffffffffffffffffffffffffff1602179055508273ffffffffffffffffffffffffffffffffffffffff168173ffffffffffffffffffffffffffffffffffffffff167f8c5be1e5ebec7d5bd14f71427d1e84f3dd0314c0f7b2291e5b200ac8c7c3b925846040518082815260200191505060405180910390a35b505050565b6112cf6132f1565b60068054600181600116156101000203166002900480601f0160208091040260200160405190810160405280929190818152602001828054600181600116156101000203166002900480156113655780601f1061133a57610100808354040283529160200191611365565b820191906000526020600020905b81548152906001019060200180831161134857829003601f168201915b5050505050905090565b6000601280549050905090565b600460009054906101000a900473ffffffffffffffffffffffffffffffffffffffff1673ffffffffffffffffffffffffffffffffffffffff163373ffffffffffffffffffffffffffffffffffffffff161415156113d857600080fd5b6010602060ff16111515156113ec57600080fd5b600880548060010182816114009190613305565b91600052602060002090016000839091909150906000191690555050565b6000806000600281111561142e57fe5b600460149054906101000a900460ff16600281111561144957fe5b14156114ac57600460009054906101000a900473ffffffffffffffffffffffffffffffffffffffff1673ffffffffffffffffffffffffffffffffffffffff163373ffffffffffffffffffffffffffffffffffffffff161415156114ab57600080fd5b5b600554341415156114bc57600080fd5b600960009054906101000a900473ffffffffffffffffffffffffffffffffffffffff1673ffffffffffffffffffffffffffffffffffffffff16631a849d6b85856000604051602001526040518363ffffffff167c01000000000000000000000000000000000000000000000000000000000281526004018080602001828103825284848281815260200192508082843782019150509350505050602060405180830381600087803b151561156f57600080fd5b6102c65a03f1151561158057600080fd5b5050506040518051905090506115963382612857565b7fe9a0a2aca9c41fae94448dec8914ad73e4d00ebdc2427e61f3fc66919f4ffa2a3382604051808373ffffffffffffffffffffffffffffffffffffffff1673ffffffffffffffffffffffffffffffffffffffff1681526020018281526020019250505060405180910390a18091505092915050565b8061161633826128ab565b151561162157600080fd5b600073ffffffffffffffffffffffffffffffffffffffff168473ffffffffffffffffffffffffffffffffffffffff161415151561165d57600080fd5b600073ffffffffffffffffffffffffffffffffffffffff168373ffffffffffffffffffffffffffffffffffffffff161415151561169957600080fd5b6116a38483612940565b6116ad8483612aa9565b6116b78383612cc4565b8273ffffffffffffffffffffffffffffffffffffffff168473ffffffffffffffffffffffffffffffffffffffff167fddf252ad1be2c89b69c2b068fc378daa952ba7f163c4a11628f55a4df523b3ef846040518082815260200191505060405180910390a350505050565b600460009054906101000a900473ffffffffffffffffffffffffffffffffffffffff1673ffffffffffffffffffffffffffffffffffffffff163373ffffffffffffffffffffffffffffffffffffffff1614151561177e57600080fd5b8060028081111561178b57fe5b1015151561179857600080fd5b8060028111156117a457fe5b600460146101000a81548160ff021916908360028111156117c157fe5b021790555050565b60006117d483611cb6565b821015156117e157600080fd5b601060008473ffffffffffffffffffffffffffffffffffffffff1673ffffffffffffffffffffffffffffffffffffffff1681526020019081526020016000208281548110151561182d57fe5b906000526020600020900154905092915050565b6000600460149054906101000a900460ff16905090565b6000600554905090565b61186a6132f1565b60078054600181600116156101000203166002900480601f0160208091040260200160405190810160405280929190818152602001828054600181600116156101000203166002900480156119005780601f106118d557610100808354040283529160200191611900565b820191906000526020600020905b8154815290600101906020018083116118e357829003601f168201915b5050505050905090565b8061191533826128ab565b151561192057600080fd5b61193c84848460206040519081016040528060008152506121ce565b50505050565b6000809054906101000a900473ffffffffffffffffffffffffffffffffffffffff1673ffffffffffffffffffffffffffffffffffffffff163373ffffffffffffffffffffffffffffffffffffffff1614151561199d57600080fd5b8181600191906119ae929190613331565b507f97bc322e754962c4ff23eb8a9d58b147ead5be0347d9a799addc5a2d44564cbe8282604051808060200182810382528484828181526020019250808284378201915050935050505060405180910390a15050565b611a0c6132f1565b60028054600181600116156101000203166002900480601f016020809104026020016040519081016040528092919081815260200182805460018160011615610100020316600290048015611aa25780601f10611a7757610100808354040283529160200191611aa2565b820191906000526020600020905b815481529060010190602001808311611a8557829003601f168201915b5050505050905090565b600080600a600084815260200190815260200160002060009054906101000a900473ffffffffffffffffffffffffffffffffffffffff169050600073ffffffffffffffffffffffffffffffffffffffff168173ffffffffffffffffffffffffffffffffffffffff161415915050919050565b6000611b2861136f565b82101515611b3557600080fd5b601282815481101515611b4457fe5b9060005260206000209001549050919050565b600080600a600084815260200190815260200160002060009054906101000a900473ffffffffffffffffffffffffffffffffffffffff169050600073ffffffffffffffffffffffffffffffffffffffff168173ffffffffffffffffffffffffffffffffffffffff1614151515611bcc57600080fd5b80915050919050565b60003073ffffffffffffffffffffffffffffffffffffffff1631905090565b6000809054906101000a900473ffffffffffffffffffffffffffffffffffffffff1673ffffffffffffffffffffffffffffffffffffffff163373ffffffffffffffffffffffffffffffffffffffff16141515611c4f57600080fd5b818160029190611c60929190613331565b507f6362a59ae98fef1a0a45d03a1127a82c2268ca380148117a052b9f8bce8e6f1e8282604051808060200182810382528484828181526020019250808284378201915050935050505060405180910390a15050565b60008073ffffffffffffffffffffffffffffffffffffffff168273ffffffffffffffffffffffffffffffffffffffff1614151515611cf357600080fd5b600c60008373ffffffffffffffffffffffffffffffffffffffff1673ffffffffffffffffffffffffffffffffffffffff168152602001908152602001600020549050919050565b6000809054906101000a900473ffffffffffffffffffffffffffffffffffffffff1673ffffffffffffffffffffffffffffffffffffffff163373ffffffffffffffffffffffffffffffffffffffff16141515611d9557600080fd5b6000809054906101000a900473ffffffffffffffffffffffffffffffffffffffff1673ffffffffffffffffffffffffffffffffffffffff16ff5b6000809054906101000a900473ffffffffffffffffffffffffffffffffffffffff1673ffffffffffffffffffffffffffffffffffffffff163373ffffffffffffffffffffffffffffffffffffffff16141515611e2a57600080fd5b818160039190611e3b929190613331565b507fcfaf57d92b1b2684731a770c593d162587ca98e9d372be876ab14b389866f0f68282604051808060200182810382528484828181526020019250808284378201915050935050505060405180910390a15050565b6000809054906101000a900473ffffffffffffffffffffffffffffffffffffffff1681565b611ebe6132f1565b600f8054600181600116156101000203166002900480601f016020809104026020016040519081016040528092919081815260200182805460018160011615610100020316600290048015611f545780601f10611f2957610100808354040283529160200191611f54565b820191906000526020600020905b815481529060010190602001808311611f3757829003601f168201915b5050505050905090565b611f666132f1565b60018054600181600116156101000203166002900480601f016020809104026020016040519081016040528092919081815260200182805460018160011615610100020316600290048015611ffc5780601f10611fd157610100808354040283529160200191611ffc565b820191906000526020600020905b815481529060010190602001808311611fdf57829003601f168201915b5050505050905090565b6000600460009054906101000a900473ffffffffffffffffffffffffffffffffffffffff1673ffffffffffffffffffffffffffffffffffffffff163373ffffffffffffffffffffffffffffffffffffffff1614151561206457600080fd5b828290509050610100811115151561207b57600080fd5b82826007919061208c929190613331565b50505050565b3373ffffffffffffffffffffffffffffffffffffffff168273ffffffffffffffffffffffffffffffffffffffff16141515156120cd57600080fd5b80600d60003373ffffffffffffffffffffffffffffffffffffffff1673ffffffffffffffffffffffffffffffffffffffff16815260200190815260200160002060008473ffffffffffffffffffffffffffffffffffffffff1673ffffffffffffffffffffffffffffffffffffffff16815260200190815260200160002060006101000a81548160ff0219169083151502179055508173ffffffffffffffffffffffffffffffffffffffff163373ffffffffffffffffffffffffffffffffffffffff167f17307eab39ab6107e8899845ad3d59bd9653f200f220920489ca2b5937696c3183604051808215151515815260200191505060405180910390a35050565b816121d933826128ab565b15156121e457600080fd5b6121ef85858561160b565b6121fb85858585612d98565b151561220657600080fd5b5050505050565b600080600460009054906101000a900473ffffffffffffffffffffffffffffffffffffffff1673ffffffffffffffffffffffffffffffffffffffff163373ffffffffffffffffffffffffffffffffffffffff1614151561226c57600080fd5b6010602060ff161115151561228057600080fd5b600160088054905003915060088281548110151561229a57fe5b9060005260206000209001549050806008858154811015156122b857fe5b9060005260206000209001816000191690555060006008838154811015156122dc57fe5b90600052602060002090018160001916905550600880548091906001900361230491906133b1565b5050505050565b6000600960009054906101000a900473ffffffffffffffffffffffffffffffffffffffff16905090565b6000600460009054906101000a900473ffffffffffffffffffffffffffffffffffffffff1673ffffffffffffffffffffffffffffffffffffffff163373ffffffffffffffffffffffffffffffffffffffff1614151561239357600080fd5b8282905090506000811180156123aa575060208111155b15156123b557600080fd5b8282600691906123c6929190613331565b50505050565b6123d46132f1565b6123dd82611aac565b15156123e857600080fd5b601460008381526020019081526020016000208054600181600116156101000203166002900480601f01602080910402602001604051908101604052809291908181526020018280546001816001161561010002031660029004801561248f5780601f106124645761010080835404028352916020019161248f565b820191906000526020600020905b81548152906001019060200180831161247257829003601f168201915b50505050509050919050565b600460009054906101000a900473ffffffffffffffffffffffffffffffffffffffff1673ffffffffffffffffffffffffffffffffffffffff163373ffffffffffffffffffffffffffffffffffffffff161415156124f757600080fd5b8060058190555050565b600460009054906101000a900473ffffffffffffffffffffffffffffffffffffffff1673ffffffffffffffffffffffffffffffffffffffff163373ffffffffffffffffffffffffffffffffffffffff1614151561255d57600080fd5b6010602060ff161115151561257157600080fd5b8060088381548110151561258157fe5b906000526020600020900181600019169055505050565b6000600d60008473ffffffffffffffffffffffffffffffffffffffff1673ffffffffffffffffffffffffffffffffffffffff16815260200190815260200160002060008373ffffffffffffffffffffffffffffffffffffffff1673ffffffffffffffffffffffffffffffffffffffff16815260200190815260200160002060009054906101000a900460ff16905092915050565b6000809054906101000a900473ffffffffffffffffffffffffffffffffffffffff1673ffffffffffffffffffffffffffffffffffffffff163373ffffffffffffffffffffffffffffffffffffffff1614151561268757600080fd5b600073ffffffffffffffffffffffffffffffffffffffff168173ffffffffffffffffffffffffffffffffffffffff16141515156126c357600080fd5b8073ffffffffffffffffffffffffffffffffffffffff166000809054906101000a900473ffffffffffffffffffffffffffffffffffffffff1673ffffffffffffffffffffffffffffffffffffffff167f8be0079c531659141344cd1fd0a4f28419497f9722a3daafe3b4186f6b6457e060405160405180910390a3806000806101000a81548173ffffffffffffffffffffffffffffffffffffffff021916908373ffffffffffffffffffffffffffffffffffffffff16021790555050565b6000809054906101000a900473ffffffffffffffffffffffffffffffffffffffff1673ffffffffffffffffffffffffffffffffffffffff163373ffffffffffffffffffffffffffffffffffffffff161415156127dc57600080fd5b8073ffffffffffffffffffffffffffffffffffffffff16ff5b6127fd6133dd565b600880548060200260200160405190810160405280929190818152602001828054801561284d57602002820191906000526020600020905b81546000191681526020019060010190808311612835575b5050505050905090565b6128618282612f6e565b60128054905060136000838152602001908152602001600020819055506012805480600101828161289291906133f1565b9160005260206000209001600083909190915055505050565b6000806128b783611b57565b90508073ffffffffffffffffffffffffffffffffffffffff168473ffffffffffffffffffffffffffffffffffffffff16148061292657508373ffffffffffffffffffffffffffffffffffffffff1661290e846110c4565b73ffffffffffffffffffffffffffffffffffffffff16145b8061293757506129368185612598565b5b91505092915050565b8173ffffffffffffffffffffffffffffffffffffffff1661296082611b57565b73ffffffffffffffffffffffffffffffffffffffff1614151561298257600080fd5b600073ffffffffffffffffffffffffffffffffffffffff16600b600083815260200190815260200160002060009054906101000a900473ffffffffffffffffffffffffffffffffffffffff1673ffffffffffffffffffffffffffffffffffffffff16141515612aa5576000600b600083815260200190815260200160002060006101000a81548173ffffffffffffffffffffffffffffffffffffffff021916908373ffffffffffffffffffffffffffffffffffffffff160217905550600073ffffffffffffffffffffffffffffffffffffffff168273ffffffffffffffffffffffffffffffffffffffff167f8c5be1e5ebec7d5bd14f71427d1e84f3dd0314c0f7b2291e5b200ac8c7c3b925836040518082815260200191505060405180910390a35b5050565b6000806000612ab8858561301e565b60116000858152602001908152602001600020549250612b246001601060008873ffffffffffffffffffffffffffffffffffffffff1673ffffffffffffffffffffffffffffffffffffffff1681526020019081526020016000208054905061314d90919063ffffffff16565b9150601060008673ffffffffffffffffffffffffffffffffffffffff1673ffffffffffffffffffffffffffffffffffffffff16815260200190815260200160002082815481101515612b7257fe5b906000526020600020900154905080601060008773ffffffffffffffffffffffffffffffffffffffff1673ffffffffffffffffffffffffffffffffffffffff16815260200190815260200160002084815481101515612bcd57fe5b9060005260206000209001819055506000601060008773ffffffffffffffffffffffffffffffffffffffff1673ffffffffffffffffffffffffffffffffffffffff16815260200190815260200160002083815481101515612c2a57fe5b906000526020600020900181905550601060008673ffffffffffffffffffffffffffffffffffffffff1673ffffffffffffffffffffffffffffffffffffffff168152602001908152602001600020805480919060019003612c8b919061341d565b50600060116000868152602001908152602001600020819055508260116000838152602001908152602001600020819055505050505050565b6000612cd08383613166565b601060008473ffffffffffffffffffffffffffffffffffffffff1673ffffffffffffffffffffffffffffffffffffffff168152602001908152602001600020805490509050601060008473ffffffffffffffffffffffffffffffffffffffff1673ffffffffffffffffffffffffffffffffffffffff1681526020019081526020016000208054806001018281612d6691906133f1565b916000526020600020900160008490919091505550806011600084815260200190815260200160002081905550505050565b600080612dba8573ffffffffffffffffffffffffffffffffffffffff166132c0565b1515612dc95760019150612f65565b8473ffffffffffffffffffffffffffffffffffffffff1663f0b9e5ba8786866000604051602001526040518463ffffffff167c0100000000000000000000000000000000000000000000000000000000028152600401808473ffffffffffffffffffffffffffffffffffffffff1673ffffffffffffffffffffffffffffffffffffffff16815260200183815260200180602001828103825283818151815260200191508051906020019080838360005b83811015612e94578082015181840152602081019050612e79565b50505050905090810190601f168015612ec15780820380516001836020036101000a031916815260200191505b50945050505050602060405180830381600087803b1515612ee157600080fd5b6102c65a03f11515612ef257600080fd5b50505060405180519050905063f0b9e5ba7c0100000000000000000000000000000000000000000000000000000000027bffffffffffffffffffffffffffffffffffffffffffffffffffffffff1916817bffffffffffffffffffffffffffffffffffffffffffffffffffffffff19161491505b50949350505050565b600073ffffffffffffffffffffffffffffffffffffffff168273ffffffffffffffffffffffffffffffffffffffff1614151515612faa57600080fd5b612fb48282612cc4565b8173ffffffffffffffffffffffffffffffffffffffff16600073ffffffffffffffffffffffffffffffffffffffff167fddf252ad1be2c89b69c2b068fc378daa952ba7f163c4a11628f55a4df523b3ef836040518082815260200191505060405180910390a35050565b8173ffffffffffffffffffffffffffffffffffffffff1661303e82611b57565b73ffffffffffffffffffffffffffffffffffffffff1614151561306057600080fd5b6130b36001600c60008573ffffffffffffffffffffffffffffffffffffffff1673ffffffffffffffffffffffffffffffffffffffff1681526020019081526020016000205461314d90919063ffffffff16565b600c60008473ffffffffffffffffffffffffffffffffffffffff1673ffffffffffffffffffffffffffffffffffffffff168152602001908152602001600020819055506000600a600083815260200190815260200160002060006101000a81548173ffffffffffffffffffffffffffffffffffffffff021916908373ffffffffffffffffffffffffffffffffffffffff1602179055505050565b600082821115151561315b57fe5b818303905092915050565b600073ffffffffffffffffffffffffffffffffffffffff16600a600083815260200190815260200160002060009054906101000a900473ffffffffffffffffffffffffffffffffffffffff1673ffffffffffffffffffffffffffffffffffffffff161415156131d457600080fd5b81600a600083815260200190815260200160002060006101000a81548173ffffffffffffffffffffffffffffffffffffffff021916908373ffffffffffffffffffffffffffffffffffffffff1602179055506132796001600c60008573ffffffffffffffffffffffffffffffffffffffff1673ffffffffffffffffffffffffffffffffffffffff168152602001908152602001600020546132d390919063ffffffff16565b600c60008473ffffffffffffffffffffffffffffffffffffffff1673ffffffffffffffffffffffffffffffffffffffff168152602001908152602001600020819055505050565b600080823b905060008111915050919050565b60008082840190508381101515156132e757fe5b8091505092915050565b602060405190810160405280600081525090565b81548183558181151161332c5781836000526020600020918201910161332b9190613449565b5b505050565b828054600181600116156101000203166002900490600052602060002090601f016020900481019282601f1061337257803560ff19168380011785556133a0565b828001600101855582156133a0579182015b8281111561339f578235825591602001919060010190613384565b5b5090506133ad919061346e565b5090565b8154818355818115116133d8578183600052602060002091820191016133d79190613449565b5b505050565b602060405190810160405280600081525090565b81548183558181151161341857818360005260206000209182019101613417919061346e565b5b505050565b81548183558181151161344457818360005260206000209182019101613443919061346e565b5b505050565b61346b91905b8082111561346757600081600090555060010161344f565b5090565b90565b61349091905b8082111561348c576000816000905550600101613474565b5090565b905600a165627a7a723058200df02c1351eaac8d89e38ef3e238a416ac2516129189d510a13f9fbee610e53d0029",
  "source": "pragma solidity ^0.4.19;\n\nimport \"zeppelin-solidity/contracts/token/ERC721/ERC721Token.sol\";\nimport \"zeppelin-solidity/contracts/math/SafeMath.sol\";\nimport \"zeppelin-solidity/contracts/AddressUtils.sol\";\nimport \"../common/SplitPaymentChangeable.sol\";\nimport \"./Chaingeareable.sol\";\nimport \"./EntryBase.sol\";\n// import \"../common/RegistrySafe.sol\";\n\n/* contract Registry is Chaingeareable, ERC721Token, SplitPaymentChangeable { */\ncontract Registry is Chaingeareable, ERC721Token {\n\n    using SafeMath for uint256;\n    using AddressUtils for address;\n\n    function Registry(\n        /* address[] _benefitiaries, */\n        /* uint256[] _shares, */\n        /* PermissionTypeEntries _permissionType, */\n        uint _entryCreationFee,\n        string _name,\n        string _symbol,\n        /* string _description, */\n        // string _linkToABIOfEntriesContract,\n        bytes _bytecodeOfEntriesContract\n    )\n        /* SplitPaymentChangeable(_benefitiaries, _shares) */\n        ERC721Token(_name, _symbol)\n        public\n        payable\n    {\n        /* permissionTypeEntries_ = _permissionType; */\n        // linkABI_ = _linkABI;\n        entryCreationFee_ = _entryCreationFee;\n        registryName_ = _name;\n        /* registryDescription_ = _description; */\n        // registrySafe_ = new RegistrySafe();\n\n        address deployedAddress;\n        assembly {\n          let s := mload(_bytecodeOfEntriesContract)\n          let p := add(_bytecodeOfEntriesContract, 0x20)\n          deployedAddress := create(0, p, s)\n        }\n\n        assert(deployedAddress != 0x0);\n\n        entryBase_ = deployedAddress;\n    }\n\n    function createEntry(bytes _serializedParams)\n        external\n        payable\n        onlyPermissionedToEntries\n        returns (uint256)\n    {\n        require(msg.value == entryCreationFee_);\n        // EntryMeta memory meta = (EntryMeta(\n        // {\n        //     lastUpdateTime: block.timestamp,\n        //     createdAt: block.timestamp,\n        //     owner: msg.sender,\n        //     creator: msg.sender,\n        //     currentEntryBalanceETH: 0,\n        //     accumulatedOverallEntryETH: 0\n        // }));\n        // Entry memory entry = (Entry(\n        // {\n        //     expensiveAddress: _expensiveAddress,\n        //     expensiveUint: _expensiveUint,\n        //     expensiveInt: _expensiveInt,\n        //     expensiveString: _expensiveString,\n        //     metainformation: meta\n        // }));\n\n        // uint256 newEntryId = entries.push(entry) - 1;\n        uint256 newEntryId = EntryBase(entryBase_).createEntry(_serializedParams);\n        _mint(msg.sender, newEntryId);\n\n        EntryCreated(msg.sender, newEntryId);\n\n        return newEntryId;\n    }\n\n    // function deleteEntry(uint256 _entryId)\n    //     whenNotPaused\n    //     external\n    // {\n    //     require(ERC721BasicToken.ownerOf(_entryId) == msg.sender);\n\n    //     uint256 entryIndex = allTokensIndex[_entryId];\n    //     uint256 lastEntryIndex = entries.length.sub(1);\n    //     Entry storage lastEntry = entries[lastEntryIndex];\n\n    //     entries[entryIndex] = lastEntry;\n    //     delete entries[lastEntryIndex];\n    //     entries.length--;\n\n    //     super._burn(msg.sender, _entryId);\n\n    //     EntryDeleted(msg.sender, _entryId);\n    // }\n\n\n    // function transferEntryOwnership(uint _entryId, address _newOwner)\n    //     whenNotPaused\n    //     external\n    // {\n    //     require (ERC721BasicToken.ownerOf(_entryId) == msg.sender);\n    //     // throw if balance?\n    //     //locked balance?\n    //     entries[_entryId].metainformation.owner = _newOwner;\n    //     entries[_entryId].metainformation.lastUpdateTime = block.timestamp;\n\n    //     super.removeTokenFrom(msg.sender, _entryId);\n    //     super.addTokenTo(_newOwner, _entryId);\n\n    //     EntryChangedOwner(_entryId, _newOwner);\n    // }\n\n    // function fundEntry(uint256 _entryId)\n    //     whenNotPaused\n    //     payable\n    //     public\n    // {\n    //     entries[_entryId].metainformation.accumulatedOverallEntryETH.add(msg.value);\n    //     registrySafe_.transfer(msg.value);\n\n    //     EntryFunded(_entryId, msg.sender);\n    // }\n\n    // function claimEntryFunds(uint256 _entryId, uint _amount)\n    //     whenNotPaused\n    //     public\n    // {\n    //     require(ERC721BasicToken.ownerOf(_entryId) == msg.sender);\n    //     require(_amount <= entries[_entryId].metainformation.currentEntryBalanceETH);\n    //     entries[_entryId].metainformation.currentEntryBalanceETH.sub(_amount);\n    //     RegistrySafe(registrySafe_).claim(msg.sender, _amount);\n\n    //     EntryFundsClaimed(_entryId, msg.sender, _amount);\n    // }\n}\n",
  "sourcePath": "/Users/litvintech/Projects/chaingear/contracts/registry/Registry.sol",
  "compiler": {
    "name": "solc",
    "version": "0.4.19+commit.c4cbbb05.Emscripten.clang"
  },
  "schemaVersion": "1.0.1",
  "updatedAt": "2018-04-19T08:09:49.976Z"
}