{
  "contractName": "RegistryBase",
  "abi": [
    {
      "anonymous": false,
      "inputs": [
        {
          "indexed": false,
          "name": "name",
          "type": "string"
        },
        {
          "indexed": false,
          "name": "registryAddress",
          "type": "address"
        },
        {
          "indexed": false,
          "name": "creator",
          "type": "address"
        },
        {
          "indexed": false,
          "name": "registryID",
          "type": "uint256"
        }
      ],
      "name": "RegistryRegistered",
      "type": "event"
    },
    {
      "constant": true,
      "inputs": [
        {
          "name": "_registryID",
          "type": "uint256"
        }
      ],
      "name": "nameOf",
      "outputs": [
        {
          "name": "",
          "type": "string"
        }
      ],
      "payable": false,
      "stateMutability": "view",
      "type": "function"
    },
    {
      "constant": true,
      "inputs": [
        {
          "name": "_registryID",
          "type": "uint256"
        }
      ],
      "name": "contractAddressOf",
      "outputs": [
        {
          "name": "",
          "type": "address"
        }
      ],
      "payable": false,
      "stateMutability": "view",
      "type": "function"
    },
    {
      "constant": true,
      "inputs": [
        {
          "name": "_registryID",
          "type": "uint256"
        }
      ],
      "name": "creatorOf",
      "outputs": [
        {
          "name": "",
          "type": "address"
        }
      ],
      "payable": false,
      "stateMutability": "view",
      "type": "function"
    },
    {
      "constant": true,
      "inputs": [
        {
          "name": "_registryID",
          "type": "uint256"
        }
      ],
      "name": "registryDateOf",
      "outputs": [
        {
          "name": "",
          "type": "uint256"
        }
      ],
      "payable": false,
      "stateMutability": "view",
      "type": "function"
    },
    {
      "constant": true,
      "inputs": [
        {
          "name": "_registryID",
          "type": "uint256"
        }
      ],
      "name": "ABILinkOf",
      "outputs": [
        {
          "name": "",
          "type": "string"
        }
      ],
      "payable": false,
      "stateMutability": "view",
      "type": "function"
    },
    {
      "constant": true,
      "inputs": [
        {
          "name": "_registryID",
          "type": "uint256"
        }
      ],
      "name": "registryOwnerOf",
      "outputs": [
        {
          "name": "",
          "type": "address"
        }
      ],
      "payable": false,
      "stateMutability": "view",
      "type": "function"
    },
    {
      "constant": true,
      "inputs": [
        {
          "name": "_registryID",
          "type": "uint256"
        }
      ],
      "name": "registryInfo",
      "outputs": [
        {
          "name": "",
          "type": "string"
        },
        {
          "name": "",
          "type": "address"
        },
        {
          "name": "",
          "type": "address"
        },
        {
          "name": "",
          "type": "uint256"
        },
        {
          "name": "",
          "type": "string"
        },
        {
          "name": "",
          "type": "address"
        }
      ],
      "payable": false,
      "stateMutability": "view",
      "type": "function"
    },
    {
      "constant": true,
      "inputs": [],
      "name": "registriesAmount",
      "outputs": [
        {
          "name": "",
          "type": "uint256"
        }
      ],
      "payable": false,
      "stateMutability": "view",
      "type": "function"
    }
  ],
  "bytecode": "0x6060604052341561000f57600080fd5b61083e8061001e6000396000f30060606040526004361061008e576000357c0100000000000000000000000000000000000000000000000000000000900463ffffffff168063051a26641461009357806337f5881c1461012f578063557902ad146102d7578063589a1743146103005780638e2992a014610363578063bb8275cf1461039a578063ca6284d7146103fd578063f5e0c61014610499575b600080fd5b341561009e57600080fd5b6100b460048080359060200190919050506104fc565b6040518080602001828103825283818151815260200191508051906020019080838360005b838110156100f45780820151818401526020810190506100d9565b50505050905090810190601f1680156101215780820380516001836020036101000a031916815260200191505b509250505060405180910390f35b341561013a57600080fd5b61015060048080359060200190919050506105c4565b60405180806020018773ffffffffffffffffffffffffffffffffffffffff1673ffffffffffffffffffffffffffffffffffffffff1681526020018673ffffffffffffffffffffffffffffffffffffffff1673ffffffffffffffffffffffffffffffffffffffff168152602001858152602001806020018473ffffffffffffffffffffffffffffffffffffffff1673ffffffffffffffffffffffffffffffffffffffff168152602001838103835289818151815260200191508051906020019080838360005b83811015610230578082015181840152602081019050610215565b50505050905090810190601f16801561025d5780820380516001836020036101000a031916815260200191505b50838103825285818151815260200191508051906020019080838360005b8381101561029657808201518184015260208101905061027b565b50505050905090810190601f1680156102c35780820380516001836020036101000a031916815260200191505b509850505050505050505060405180910390f35b34156102e257600080fd5b6102ea610626565b6040518082815260200191505060405180910390f35b341561030b57600080fd5b6103216004808035906020019091905050610632565b604051808273ffffffffffffffffffffffffffffffffffffffff1673ffffffffffffffffffffffffffffffffffffffff16815260200191505060405180910390f35b341561036e57600080fd5b610384600480803590602001909190505061067b565b6040518082815260200191505060405180910390f35b34156103a557600080fd5b6103bb60048080359060200190919050506106a4565b604051808273ffffffffffffffffffffffffffffffffffffffff1673ffffffffffffffffffffffffffffffffffffffff16815260200191505060405180910390f35b341561040857600080fd5b61041e60048080359060200190919050506106ed565b6040518080602001828103825283818151815260200191508051906020019080838360005b8381101561045e578082015181840152602081019050610443565b50505050905090810190601f16801561048b5780820380516001836020036101000a031916815260200191505b509250505060405180910390f35b34156104a457600080fd5b6104ba60048080359060200190919050506107b5565b604051808273ffffffffffffffffffffffffffffffffffffffff1673ffffffffffffffffffffffffffffffffffffffff16815260200191505060405180910390f35b6105046107fe565b60008281548110151561051357fe5b90600052602060002090600602016000018054600181600116156101000203166002900480601f0160208091040260200160405190810160405280929190818152602001828054600181600116156101000203166002900480156105b85780601f1061058d576101008083540402835291602001916105b8565b820191906000526020600020905b81548152906001019060200180831161059b57829003601f168201915b50505050509050919050565b6105cc6107fe565b60008060006105d96107fe565b60006105e4876104fc565b6105ed886107b5565b6105f689610632565b6105ff8a61067b565b6106088b6106ed565b6106118c6106a4565b95509550955095509550955091939550919395565b60008080549050905090565b6000808281548110151561064257fe5b906000526020600020906006020160020160009054906101000a900473ffffffffffffffffffffffffffffffffffffffff169050919050565b6000808281548110151561068b57fe5b9060005260206000209060060201600401549050919050565b600080828154811015156106b457fe5b906000526020600020906006020160050160009054906101000a900473ffffffffffffffffffffffffffffffffffffffff169050919050565b6106f56107fe565b60008281548110151561070457fe5b90600052602060002090600602016003018054600181600116156101000203166002900480601f0160208091040260200160405190810160405280929190818152602001828054600181600116156101000203166002900480156107a95780601f1061077e576101008083540402835291602001916107a9565b820191906000526020600020905b81548152906001019060200180831161078c57829003601f168201915b50505050509050919050565b600080828154811015156107c557fe5b906000526020600020906006020160010160009054906101000a900473ffffffffffffffffffffffffffffffffffffffff169050919050565b6020604051908101604052806000815250905600a165627a7a7230582028b57de2944b9cd5bd215370639dec8db50309e75117acaf8b32dab2a6bb379f0029",
  "source": "pragma solidity ^0.4.19;\n\n\ncontract RegistryBase {\n\n    struct RegistryMeta {\n        string name;\n        address contractAddress;\n        address creator;\n        string linkABI;\n        uint registrationTimestamp;\n        address owner;\n    }\n\n    RegistryMeta[] internal registries;\n\n    event RegistryRegistered(\n        string name,\n        address registryAddress,\n        address creator,\n        uint registryID\n    );\n\n    // event RegistryUnregistered(\n    //     address owner,\n    //     string registryName\n    // );\n\n    // event RegistryTransferred(\n    //     address caller,\n    //     string registryName,\n    //     address newOwner\n    // );\n\n    function nameOf(uint256 _registryID)\n        public\n        view\n        returns (string)\n    {\n        return registries[_registryID].name;\n    }\n\n    function contractAddressOf(uint256 _registryID)\n        public\n        view\n        returns (address)\n    {\n        return registries[_registryID].contractAddress;\n    }\n\n    function creatorOf(uint256 _registryID)\n        public\n        view\n        returns (address)\n    {\n        return registries[_registryID].creator;\n    }\n\n    function registryDateOf(uint256 _registryID)\n        public\n        view\n        returns (uint)\n    {\n        return registries[_registryID].registrationTimestamp;\n    }\n\n    function ABILinkOf(uint256 _registryID)\n        public\n        view\n        returns (string)\n    {\n        return registries[_registryID].linkABI;\n    }\n\n    function registryOwnerOf(uint256 _registryID)\n        public\n        view\n        returns (address)\n    {\n        return registries[_registryID].owner;\n    }\n\n    // function versionOf(uint256 _registryID)\n    //     public\n    //     view\n    //     returns (bytes32)\n    // {\n    //     return registries[_registryID].chaingeareableVersion;\n    // }\n\n    function registryInfo(uint256 _registryID)\n        public\n        view\n        returns (string, address, address, uint, string, address)\n    {\n        return (\n            nameOf(_registryID),\n            contractAddressOf(_registryID),\n            creatorOf(_registryID),\n            registryDateOf(_registryID),\n            ABILinkOf(_registryID),\n            registryOwnerOf(_registryID)\n            // versionOf(_registryID)\n        );\n    }\n\n    // function registryBalanceInfo(uint256 _registryID)\n    //     public\n    //     view\n    //     returns (uint, uint)\n    // {\n    //     return (\n    //         currentRegistryBalanceETHOf(_registryID),\n    //         accumulatedRegistryETHOf(_registryID)\n    //     );\n    // }\n\n    function registriesAmount()\n        public\n        view\n        returns (uint256)\n    {\n        return registries.length;\n    }\n}\n",
  "sourcePath": "/Users/litvintech/Projects/chaingear/contracts/chaingear/RegistryBase.sol",
  "compiler": {
    "name": "solc",
    "version": "0.4.19+commit.c4cbbb05.Emscripten.clang"
  },
  "schemaVersion": "1.0.1",
  "updatedAt": "2018-04-18T22:56:38.925Z"
}