{
  "contractName": "Registry",
  "abi": [
    {
      "constant": true,
      "inputs": [],
      "name": "name",
      "outputs": [
        {
          "name": "",
          "type": "string"
        }
      ],
      "payable": false,
      "stateMutability": "view",
      "type": "function"
    },
    {
      "constant": true,
      "inputs": [],
      "name": "linkSourceCode",
      "outputs": [
        {
          "name": "",
          "type": "string"
        }
      ],
      "payable": false,
      "stateMutability": "view",
      "type": "function"
    },
    {
      "constant": true,
      "inputs": [
        {
          "name": "_tokenId",
          "type": "uint256"
        }
      ],
      "name": "getApproved",
      "outputs": [
        {
          "name": "",
          "type": "address"
        }
      ],
      "payable": false,
      "stateMutability": "view",
      "type": "function"
    },
    {
      "constant": false,
      "inputs": [
        {
          "name": "_to",
          "type": "address"
        },
        {
          "name": "_tokenId",
          "type": "uint256"
        }
      ],
      "name": "approve",
      "outputs": [],
      "payable": false,
      "stateMutability": "nonpayable",
      "type": "function"
    },
    {
      "constant": true,
      "inputs": [],
      "name": "registryName",
      "outputs": [
        {
          "name": "",
          "type": "string"
        }
      ],
      "payable": false,
      "stateMutability": "view",
      "type": "function"
    },
    {
      "constant": true,
      "inputs": [],
      "name": "totalSupply",
      "outputs": [
        {
          "name": "",
          "type": "uint256"
        }
      ],
      "payable": false,
      "stateMutability": "view",
      "type": "function"
    },
    {
      "constant": false,
      "inputs": [
        {
          "name": "_tag",
          "type": "bytes32"
        }
      ],
      "name": "addRegistryTag",
      "outputs": [],
      "payable": false,
      "stateMutability": "nonpayable",
      "type": "function"
    },
    {
      "constant": false,
      "inputs": [
        {
          "name": "_from",
          "type": "address"
        },
        {
          "name": "_to",
          "type": "address"
        },
        {
          "name": "_tokenId",
          "type": "uint256"
        }
      ],
      "name": "transferFrom",
      "outputs": [],
      "payable": false,
      "stateMutability": "nonpayable",
      "type": "function"
    },
    {
      "constant": false,
      "inputs": [
        {
          "name": "_permissionTypeEntries",
          "type": "uint256"
        }
      ],
      "name": "updatePermissionTypeEntries",
      "outputs": [],
      "payable": false,
      "stateMutability": "nonpayable",
      "type": "function"
    },
    {
      "constant": true,
      "inputs": [
        {
          "name": "_owner",
          "type": "address"
        },
        {
          "name": "_index",
          "type": "uint256"
        }
      ],
      "name": "tokenOfOwnerByIndex",
      "outputs": [
        {
          "name": "",
          "type": "uint256"
        }
      ],
      "payable": false,
      "stateMutability": "view",
      "type": "function"
    },
    {
      "constant": true,
      "inputs": [],
      "name": "permissionsTypeEntries",
      "outputs": [
        {
          "name": "",
          "type": "uint8"
        }
      ],
      "payable": false,
      "stateMutability": "view",
      "type": "function"
    },
    {
      "constant": true,
      "inputs": [
        {
          "name": "_entryId",
          "type": "uint256"
        }
      ],
      "name": "entryInfo",
      "outputs": [
        {
          "name": "",
          "type": "address"
        },
        {
          "name": "",
          "type": "uint256"
        },
        {
          "name": "",
          "type": "int256"
        },
        {
          "name": "",
          "type": "string"
        },
        {
          "name": "",
          "type": "uint256"
        }
      ],
      "payable": false,
      "stateMutability": "view",
      "type": "function"
    },
    {
      "constant": true,
      "inputs": [],
      "name": "entryCreationFee",
      "outputs": [
        {
          "name": "",
          "type": "uint256"
        }
      ],
      "payable": false,
      "stateMutability": "view",
      "type": "function"
    },
    {
      "constant": true,
      "inputs": [],
      "name": "totalShares",
      "outputs": [
        {
          "name": "",
          "type": "uint256"
        }
      ],
      "payable": false,
      "stateMutability": "view",
      "type": "function"
    },
    {
      "constant": false,
      "inputs": [],
      "name": "unpause",
      "outputs": [],
      "payable": false,
      "stateMutability": "nonpayable",
      "type": "function"
    },
    {
      "constant": true,
      "inputs": [],
      "name": "registryDescription",
      "outputs": [
        {
          "name": "",
          "type": "string"
        }
      ],
      "payable": false,
      "stateMutability": "view",
      "type": "function"
    },
    {
      "constant": false,
      "inputs": [
        {
          "name": "_from",
          "type": "address"
        },
        {
          "name": "_to",
          "type": "address"
        },
        {
          "name": "_tokenId",
          "type": "uint256"
        }
      ],
      "name": "safeTransferFrom",
      "outputs": [],
      "payable": false,
      "stateMutability": "nonpayable",
      "type": "function"
    },
    {
      "constant": true,
      "inputs": [],
      "name": "linkMeta",
      "outputs": [
        {
          "name": "",
          "type": "string"
        }
      ],
      "payable": false,
      "stateMutability": "view",
      "type": "function"
    },
    {
      "constant": false,
      "inputs": [],
      "name": "claim",
      "outputs": [],
      "payable": false,
      "stateMutability": "nonpayable",
      "type": "function"
    },
    {
      "constant": true,
      "inputs": [
        {
          "name": "_tokenId",
          "type": "uint256"
        }
      ],
      "name": "exists",
      "outputs": [
        {
          "name": "",
          "type": "bool"
        }
      ],
      "payable": false,
      "stateMutability": "view",
      "type": "function"
    },
    {
      "constant": true,
      "inputs": [
        {
          "name": "_index",
          "type": "uint256"
        }
      ],
      "name": "tokenByIndex",
      "outputs": [
        {
          "name": "",
          "type": "uint256"
        }
      ],
      "payable": false,
      "stateMutability": "view",
      "type": "function"
    },
    {
      "constant": true,
      "inputs": [
        {
          "name": "_entryId",
          "type": "uint256"
        }
      ],
      "name": "expensiveStringOf",
      "outputs": [
        {
          "name": "",
          "type": "string"
        }
      ],
      "payable": false,
      "stateMutability": "view",
      "type": "function"
    },
    {
      "constant": true,
      "inputs": [],
      "name": "paused",
      "outputs": [
        {
          "name": "",
          "type": "bool"
        }
      ],
      "payable": false,
      "stateMutability": "view",
      "type": "function"
    },
    {
      "constant": true,
      "inputs": [
        {
          "name": "",
          "type": "uint256"
        }
      ],
      "name": "payees",
      "outputs": [
        {
          "name": "",
          "type": "address"
        }
      ],
      "payable": false,
      "stateMutability": "view",
      "type": "function"
    },
    {
      "constant": true,
      "inputs": [
        {
          "name": "_tokenId",
          "type": "uint256"
        }
      ],
      "name": "ownerOf",
      "outputs": [
        {
          "name": "",
          "type": "address"
        }
      ],
      "payable": false,
      "stateMutability": "view",
      "type": "function"
    },
    {
      "constant": false,
      "inputs": [
        {
          "name": "_originAddress",
          "type": "address"
        },
        {
          "name": "_mode",
          "type": "bool"
        }
      ],
      "name": "setChaingearMode",
      "outputs": [
        {
          "name": "",
          "type": "bool"
        }
      ],
      "payable": false,
      "stateMutability": "nonpayable",
      "type": "function"
    },
    {
      "constant": true,
      "inputs": [],
      "name": "getChaingeareableVersion",
      "outputs": [
        {
          "name": "",
          "type": "bytes32"
        }
      ],
      "payable": false,
      "stateMutability": "view",
      "type": "function"
    },
    {
      "constant": false,
      "inputs": [
        {
          "name": "_linkMeta",
          "type": "string"
        }
      ],
      "name": "setMetaLink",
      "outputs": [],
      "payable": false,
      "stateMutability": "nonpayable",
      "type": "function"
    },
    {
      "constant": true,
      "inputs": [
        {
          "name": "_owner",
          "type": "address"
        }
      ],
      "name": "balanceOf",
      "outputs": [
        {
          "name": "",
          "type": "uint256"
        }
      ],
      "payable": false,
      "stateMutability": "view",
      "type": "function"
    },
    {
      "constant": true,
      "inputs": [],
      "name": "entriesAmount",
      "outputs": [
        {
          "name": "",
          "type": "uint256"
        }
      ],
      "payable": false,
      "stateMutability": "view",
      "type": "function"
    },
    {
      "constant": false,
      "inputs": [
        {
          "name": "_payeeIndex",
          "type": "uint256"
        },
        {
          "name": "_newAddress",
          "type": "address"
        }
      ],
      "name": "changePayeeAddress",
      "outputs": [],
      "payable": false,
      "stateMutability": "nonpayable",
      "type": "function"
    },
    {
      "constant": false,
      "inputs": [],
      "name": "destroy",
      "outputs": [],
      "payable": false,
      "stateMutability": "nonpayable",
      "type": "function"
    },
    {
      "constant": false,
      "inputs": [
        {
          "name": "_linkSourceCode",
          "type": "string"
        }
      ],
      "name": "setSourceLink",
      "outputs": [],
      "payable": false,
      "stateMutability": "nonpayable",
      "type": "function"
    },
    {
      "constant": false,
      "inputs": [],
      "name": "pause",
      "outputs": [],
      "payable": false,
      "stateMutability": "nonpayable",
      "type": "function"
    },
    {
      "constant": true,
      "inputs": [],
      "name": "owner",
      "outputs": [
        {
          "name": "",
          "type": "address"
        }
      ],
      "payable": false,
      "stateMutability": "view",
      "type": "function"
    },
    {
      "constant": true,
      "inputs": [],
      "name": "symbol",
      "outputs": [
        {
          "name": "",
          "type": "string"
        }
      ],
      "payable": false,
      "stateMutability": "view",
      "type": "function"
    },
    {
      "constant": true,
      "inputs": [
        {
          "name": "_entryId",
          "type": "uint256"
        }
      ],
      "name": "expensiveAddressOf",
      "outputs": [
        {
          "name": "",
          "type": "address"
        }
      ],
      "payable": false,
      "stateMutability": "view",
      "type": "function"
    },
    {
      "constant": true,
      "inputs": [
        {
          "name": "",
          "type": "address"
        }
      ],
      "name": "released",
      "outputs": [
        {
          "name": "",
          "type": "uint256"
        }
      ],
      "payable": false,
      "stateMutability": "view",
      "type": "function"
    },
    {
      "constant": false,
      "inputs": [
        {
          "name": "_originAddress",
          "type": "address"
        },
        {
          "name": "newOwner",
          "type": "address"
        }
      ],
      "name": "transferTokenizedOnwerhip",
      "outputs": [
        {
          "name": "",
          "type": "bool"
        }
      ],
      "payable": false,
      "stateMutability": "nonpayable",
      "type": "function"
    },
    {
      "constant": true,
      "inputs": [],
      "name": "linkABI",
      "outputs": [
        {
          "name": "",
          "type": "string"
        }
      ],
      "payable": false,
      "stateMutability": "view",
      "type": "function"
    },
    {
      "constant": false,
      "inputs": [
        {
          "name": "_registryDescription",
          "type": "string"
        }
      ],
      "name": "updateRegistryDescription",
      "outputs": [],
      "payable": false,
      "stateMutability": "nonpayable",
      "type": "function"
    },
    {
      "constant": false,
      "inputs": [
        {
          "name": "_to",
          "type": "address"
        },
        {
          "name": "_approved",
          "type": "bool"
        }
      ],
      "name": "setApprovalForAll",
      "outputs": [],
      "payable": false,
      "stateMutability": "nonpayable",
      "type": "function"
    },
    {
      "constant": true,
      "inputs": [
        {
          "name": "_entryId",
          "type": "uint256"
        }
      ],
      "name": "expensiveUintOf",
      "outputs": [
        {
          "name": "",
          "type": "uint256"
        }
      ],
      "payable": false,
      "stateMutability": "view",
      "type": "function"
    },
    {
      "constant": false,
      "inputs": [
        {
          "name": "_linkABI",
          "type": "string"
        }
      ],
      "name": "updateABILink",
      "outputs": [],
      "payable": false,
      "stateMutability": "nonpayable",
      "type": "function"
    },
    {
      "constant": true,
      "inputs": [],
      "name": "registrySafe",
      "outputs": [
        {
          "name": "",
          "type": "address"
        }
      ],
      "payable": false,
      "stateMutability": "view",
      "type": "function"
    },
    {
      "constant": false,
      "inputs": [
        {
          "name": "_from",
          "type": "address"
        },
        {
          "name": "_to",
          "type": "address"
        },
        {
          "name": "_tokenId",
          "type": "uint256"
        },
        {
          "name": "_data",
          "type": "bytes"
        }
      ],
      "name": "safeTransferFrom",
      "outputs": [],
      "payable": false,
      "stateMutability": "nonpayable",
      "type": "function"
    },
    {
      "constant": false,
      "inputs": [
        {
          "name": "_index",
          "type": "uint256"
        },
        {
          "name": "_tag",
          "type": "bytes32"
        }
      ],
      "name": "removeRegistryTag",
      "outputs": [],
      "payable": false,
      "stateMutability": "nonpayable",
      "type": "function"
    },
    {
      "constant": true,
      "inputs": [],
      "name": "chaingearModeStatus",
      "outputs": [
        {
          "name": "",
          "type": "bool"
        }
      ],
      "payable": false,
      "stateMutability": "view",
      "type": "function"
    },
    {
      "constant": true,
      "inputs": [],
      "name": "implementsChaingearedRegistry",
      "outputs": [
        {
          "name": "",
          "type": "bool"
        }
      ],
      "payable": false,
      "stateMutability": "view",
      "type": "function"
    },
    {
      "constant": false,
      "inputs": [
        {
          "name": "_registryName",
          "type": "string"
        }
      ],
      "name": "updateRegistryName",
      "outputs": [],
      "payable": false,
      "stateMutability": "nonpayable",
      "type": "function"
    },
    {
      "constant": true,
      "inputs": [
        {
          "name": "_tokenId",
          "type": "uint256"
        }
      ],
      "name": "tokenURI",
      "outputs": [
        {
          "name": "",
          "type": "string"
        }
      ],
      "payable": false,
      "stateMutability": "view",
      "type": "function"
    },
    {
      "constant": true,
      "inputs": [
        {
          "name": "_entryId",
          "type": "uint256"
        }
      ],
      "name": "lastUpdateTimeOf",
      "outputs": [
        {
          "name": "",
          "type": "uint256"
        }
      ],
      "payable": false,
      "stateMutability": "view",
      "type": "function"
    },
    {
      "constant": true,
      "inputs": [
        {
          "name": "",
          "type": "address"
        }
      ],
      "name": "shares",
      "outputs": [
        {
          "name": "",
          "type": "uint256"
        }
      ],
      "payable": false,
      "stateMutability": "view",
      "type": "function"
    },
    {
      "constant": false,
      "inputs": [
        {
          "name": "_fee",
          "type": "uint256"
        }
      ],
      "name": "updateEntryCreationFee",
      "outputs": [],
      "payable": false,
      "stateMutability": "nonpayable",
      "type": "function"
    },
    {
      "constant": true,
      "inputs": [],
      "name": "totalReleased",
      "outputs": [
        {
          "name": "",
          "type": "uint256"
        }
      ],
      "payable": false,
      "stateMutability": "view",
      "type": "function"
    },
    {
      "constant": false,
      "inputs": [
        {
          "name": "_index",
          "type": "uint256"
        },
        {
          "name": "_tag",
          "type": "bytes32"
        }
      ],
      "name": "updateRegistryTag",
      "outputs": [],
      "payable": false,
      "stateMutability": "nonpayable",
      "type": "function"
    },
    {
      "constant": true,
      "inputs": [
        {
          "name": "_owner",
          "type": "address"
        },
        {
          "name": "_operator",
          "type": "address"
        }
      ],
      "name": "isApprovedForAll",
      "outputs": [
        {
          "name": "",
          "type": "bool"
        }
      ],
      "payable": false,
      "stateMutability": "view",
      "type": "function"
    },
    {
      "constant": false,
      "inputs": [
        {
          "name": "newOwner",
          "type": "address"
        }
      ],
      "name": "transferOwnership",
      "outputs": [],
      "payable": false,
      "stateMutability": "nonpayable",
      "type": "function"
    },
    {
      "constant": false,
      "inputs": [
        {
          "name": "_recipient",
          "type": "address"
        }
      ],
      "name": "destroyAndSend",
      "outputs": [],
      "payable": false,
      "stateMutability": "nonpayable",
      "type": "function"
    },
    {
      "constant": true,
      "inputs": [],
      "name": "registryTags",
      "outputs": [
        {
          "name": "",
          "type": "bytes32[]"
        }
      ],
      "payable": false,
      "stateMutability": "view",
      "type": "function"
    },
    {
      "constant": true,
      "inputs": [
        {
          "name": "_entryId",
          "type": "uint256"
        }
      ],
      "name": "expensiveIntOf",
      "outputs": [
        {
          "name": "",
          "type": "int256"
        }
      ],
      "payable": false,
      "stateMutability": "view",
      "type": "function"
    },
    {
      "inputs": [
        {
          "name": "_benefitiaries",
          "type": "address[]"
        },
        {
          "name": "_shares",
          "type": "uint256[]"
        },
        {
          "name": "_permissionType",
          "type": "uint8"
        },
        {
          "name": "_entryCreationFee",
          "type": "uint256"
        },
        {
          "name": "_name",
          "type": "string"
        },
        {
          "name": "_symbol",
          "type": "string"
        },
        {
          "name": "_description",
          "type": "string"
        },
        {
          "name": "_linkABI",
          "type": "string"
        }
      ],
      "payable": true,
      "stateMutability": "payable",
      "type": "constructor"
    },
    {
      "payable": true,
      "stateMutability": "payable",
      "type": "fallback"
    },
    {
      "anonymous": false,
      "inputs": [
        {
          "indexed": false,
          "name": "payeeIndex",
          "type": "uint256"
        },
        {
          "indexed": false,
          "name": "oldAddress",
          "type": "address"
        },
        {
          "indexed": false,
          "name": "newAddress",
          "type": "address"
        }
      ],
      "name": "PayeeAddressChanged",
      "type": "event"
    },
    {
      "anonymous": false,
      "inputs": [
        {
          "indexed": true,
          "name": "previousOwner",
          "type": "address"
        },
        {
          "indexed": true,
          "name": "newOwner",
          "type": "address"
        }
      ],
      "name": "OwnershipTransferred",
      "type": "event"
    },
    {
      "anonymous": false,
      "inputs": [
        {
          "indexed": true,
          "name": "_from",
          "type": "address"
        },
        {
          "indexed": true,
          "name": "_to",
          "type": "address"
        },
        {
          "indexed": false,
          "name": "_tokenId",
          "type": "uint256"
        }
      ],
      "name": "Transfer",
      "type": "event"
    },
    {
      "anonymous": false,
      "inputs": [
        {
          "indexed": true,
          "name": "_owner",
          "type": "address"
        },
        {
          "indexed": true,
          "name": "_approved",
          "type": "address"
        },
        {
          "indexed": false,
          "name": "_tokenId",
          "type": "uint256"
        }
      ],
      "name": "Approval",
      "type": "event"
    },
    {
      "anonymous": false,
      "inputs": [
        {
          "indexed": true,
          "name": "_owner",
          "type": "address"
        },
        {
          "indexed": true,
          "name": "_operator",
          "type": "address"
        },
        {
          "indexed": false,
          "name": "_approved",
          "type": "bool"
        }
      ],
      "name": "ApprovalForAll",
      "type": "event"
    },
    {
      "anonymous": false,
      "inputs": [
        {
          "indexed": true,
          "name": "previousOwner",
          "type": "address"
        },
        {
          "indexed": true,
          "name": "newOwner",
          "type": "address"
        }
      ],
      "name": "TokenizedOwnershipTransferred",
      "type": "event"
    },
    {
      "anonymous": false,
      "inputs": [],
      "name": "Pause",
      "type": "event"
    },
    {
      "anonymous": false,
      "inputs": [],
      "name": "Unpause",
      "type": "event"
    },
    {
      "anonymous": false,
      "inputs": [
        {
          "indexed": false,
          "name": "linkMeta",
          "type": "string"
        }
      ],
      "name": "MetaLinkUpdated",
      "type": "event"
    },
    {
      "anonymous": false,
      "inputs": [
        {
          "indexed": false,
          "name": "linkABI",
          "type": "string"
        }
      ],
      "name": "ABILinkUpdated",
      "type": "event"
    },
    {
      "anonymous": false,
      "inputs": [
        {
          "indexed": false,
          "name": "linkSource",
          "type": "string"
        }
      ],
      "name": "SourceLinkUpdated",
      "type": "event"
    },
    {
      "anonymous": false,
      "inputs": [
        {
          "indexed": false,
          "name": "creator",
          "type": "address"
        },
        {
          "indexed": false,
          "name": "entryId",
          "type": "uint256"
        }
      ],
      "name": "EntryCreated",
      "type": "event"
    },
    {
      "anonymous": false,
      "inputs": [
        {
          "indexed": false,
          "name": "owner",
          "type": "address"
        },
        {
          "indexed": false,
          "name": "entryId",
          "type": "uint256"
        }
      ],
      "name": "EntryUpdated",
      "type": "event"
    },
    {
      "anonymous": false,
      "inputs": [
        {
          "indexed": false,
          "name": "entryId",
          "type": "uint256"
        },
        {
          "indexed": false,
          "name": "newOwner",
          "type": "address"
        }
      ],
      "name": "EntryChangedOwner",
      "type": "event"
    },
    {
      "anonymous": false,
      "inputs": [
        {
          "indexed": false,
          "name": "owner",
          "type": "address"
        },
        {
          "indexed": false,
          "name": "entryId",
          "type": "uint256"
        }
      ],
      "name": "EntryDeleted",
      "type": "event"
    },
    {
      "constant": false,
      "inputs": [
        {
          "name": "_expensiveAddress",
          "type": "address"
        },
        {
          "name": "_expensiveUint",
          "type": "uint256"
        },
        {
          "name": "_expensiveInt",
          "type": "int256"
        },
        {
          "name": "_expensiveString",
          "type": "string"
        }
      ],
      "name": "createEntry",
      "outputs": [
        {
          "name": "",
          "type": "uint256"
        }
      ],
      "payable": true,
      "stateMutability": "payable",
      "type": "function"
    },
    {
      "constant": false,
      "inputs": [
        {
          "name": "_entryId",
          "type": "uint256"
        }
      ],
      "name": "deleteEntry",
      "outputs": [],
      "payable": false,
      "stateMutability": "nonpayable",
      "type": "function"
    },
    {
      "constant": false,
      "inputs": [
        {
          "name": "_entryId",
          "type": "uint256"
        },
        {
          "name": "_newOwner",
          "type": "address"
        }
      ],
      "name": "transferEntryOwnership",
      "outputs": [],
      "payable": false,
      "stateMutability": "nonpayable",
      "type": "function"
    }
  ],
  "bytecode": "0x60606040526000600460156101000a81548160ff0219169083151502179055506000600660146101000a81548160ff0219169083151502179055507f312e300000000000000000000000000000000000000000000000000000000000600b906000191690556000601855600060195560405162005efb38038062005efb83398101604052808051820191906020018051820191906020018051906020019091908051906020019091908051820191906020018051820191906020018051820191906020018051820191905050878781816000888833600660006101000a81548173ffffffffffffffffffffffffffffffffffffffff021916908373ffffffffffffffffffffffffffffffffffffffff16021790555081601190805190602001906200012c92919062000484565b5080601290805190602001906200014592919062000484565b505050815183511415156200015957600080fd5b600090505b8251811015620001c657620001b883828151811015156200017b57fe5b9060200190602002015183838151811015156200019457fe5b90602001906020020151620002f16401000000000262005290176401000000009004565b80806001019150506200015e565b50505033601d60006101000a81548173ffffffffffffffffffffffffffffffffffffffff021916908373ffffffffffffffffffffffffffffffffffffffff160217905550505085600460146101000a81548160ff021916908360028111156200022b57fe5b021790555080600190805190602001906200024892919062000484565b508460078190555083600890805190602001906200026892919062000484565b5081600990805190602001906200028192919062000484565b506200028c6200050b565b604051809103906000f0801515620002a357600080fd5b600c60006101000a81548173ffffffffffffffffffffffffffffffffffffffff021916908373ffffffffffffffffffffffffffffffffffffffff160217905550505050505050505062000573565b600073ffffffffffffffffffffffffffffffffffffffff168273ffffffffffffffffffffffffffffffffffffffff16141515156200032e57600080fd5b6000811115156200033e57600080fd5b6000601a60008473ffffffffffffffffffffffffffffffffffffffff1673ffffffffffffffffffffffffffffffffffffffff168152602001908152602001600020541415156200038d57600080fd5b601c8054806001018281620003a391906200051c565b9160005260206000209001600084909190916101000a81548173ffffffffffffffffffffffffffffffffffffffff021916908373ffffffffffffffffffffffffffffffffffffffff1602179055505080601a60008473ffffffffffffffffffffffffffffffffffffffff1673ffffffffffffffffffffffffffffffffffffffff168152602001908152602001600020819055506200045b81601854620004656401000000000262004815179091906401000000009004565b6018819055505050565b60008082840190508381101515156200047a57fe5b8091505092915050565b828054600181600116156101000203166002900490600052602060002090601f016020900481019282601f10620004c757805160ff1916838001178555620004f8565b82800160010185558215620004f8579182015b82811115620004f7578251825591602001919060010190620004da565b5b5090506200050791906200054b565b5090565b60405161053180620059ca83390190565b81548183558181151162000546578183600052602060002091820191016200054591906200054b565b5b505050565b6200057091905b808211156200056c57600081600090555060010162000552565b5090565b90565b61544780620005836000396000f3006060604052600436106102f6576000357c0100000000000000000000000000000000000000000000000000000000900463ffffffff16806306fdde03146102f857806307b1f8f714610386578063081812fc14610414578063095ea7b31461047757806311f7516c146104b95780631654d169146104dc57806318160ddd1461056a578063189efc7c1461059357806323b872dd146105ba57806327f5f1b61461061b5780632f745c591461063e578063351c6bbe1461069457806339464884146106cb5780633a1a3d95146107af5780633a98ef39146107d85780633f4ba83a1461080157806341c39e5c1461081657806342842e0e146108a45780634d45d39e146109055780634dfaf97a1461096d5780634e71d92d146109fb5780634f558e7914610a105780634f6ccce714610a4b5780635886dc9e14610a825780635c975abb14610b1e57806363037b0c14610b4b5780636352211e14610bae578063676047ce14610c11578063683ae65b14610c6d5780636abd720314610caf5780636d2fd13814610ce057806370a0823114610d0e5780637899b9f314610d5b5780637b49376814610d8457806383197ef014610dc657806383ca00ac14610ddb5780638456cb5914610e095780638da5cb5b14610e1e57806395d89b4114610e735780639689d2d314610f015780639852595c14610f645780639af78aa114610fb15780639e925a7814611021578063a1f14b27146110af578063a22cb465146110dd578063a427825d14611121578063acab3bd514611158578063aef10f0814611186578063b88d4fde146111db578063bc044e181461127f578063be183e51146112af578063c5243add146112dc578063c81225eb14611309578063c87b56dd14611337578063cb23a981146113d3578063ce7c2ac21461140a578063d24f707614611457578063e33b7de31461147a578063e59f0cc2146114a3578063e985e9c5146114d3578063f2fde38b14611543578063f5074f411461157c578063f5ec4e50146115b5578063fc3262661461161f575b005b341561030357600080fd5b61030b611656565b6040518080602001828103825283818151815260200191508051906020019080838360005b8381101561034b578082015181840152602081019050610330565b50505050905090810190601f1680156103785780820380516001836020036101000a031916815260200191505b509250505060405180910390f35b341561039157600080fd5b6103996116fe565b6040518080602001828103825283818151815260200191508051906020019080838360005b838110156103d95780820151818401526020810190506103be565b50505050905090810190601f1680156104065780820380516001836020036101000a031916815260200191505b509250505060405180910390f35b341561041f57600080fd5b61043560048080359060200190919050506117a6565b604051808273ffffffffffffffffffffffffffffffffffffffff1673ffffffffffffffffffffffffffffffffffffffff16815260200191505060405180910390f35b341561048257600080fd5b6104b7600480803573ffffffffffffffffffffffffffffffffffffffff169060200190919080359060200190919050506117e3565b005b34156104c457600080fd5b6104da60048080359060200190919050506119a9565b005b34156104e757600080fd5b6104ef611cb8565b6040518080602001828103825283818151815260200191508051906020019080838360005b8381101561052f578082015181840152602081019050610514565b50505050905090810190601f16801561055c5780820380516001836020036101000a031916815260200191505b509250505060405180910390f35b341561057557600080fd5b61057d611d60565b6040518082815260200191505060405180910390f35b341561059e57600080fd5b6105b8600480803560001916906020019091905050611d6d565b005b34156105c557600080fd5b610619600480803573ffffffffffffffffffffffffffffffffffffffff1690602001909190803573ffffffffffffffffffffffffffffffffffffffff16906020019091908035906020019091905050611e0f565b005b341561062657600080fd5b61063c6004808035906020019091905050611f26565b005b341561064957600080fd5b61067e600480803573ffffffffffffffffffffffffffffffffffffffff16906020019091908035906020019091905050611fcd565b6040518082815260200191505060405180910390f35b341561069f57600080fd5b6106a7612045565b604051808260028111156106b757fe5b60ff16815260200191505060405180910390f35b34156106d657600080fd5b6106ec600480803590602001909190505061205c565b604051808673ffffffffffffffffffffffffffffffffffffffff1673ffffffffffffffffffffffffffffffffffffffff16815260200185815260200184815260200180602001838152602001828103825284818151815260200191508051906020019080838360005b83811015610770578082015181840152602081019050610755565b50505050905090810190601f16801561079d5780820380516001836020036101000a031916815260200191505b50965050505050505060405180910390f35b34156107ba57600080fd5b6107c26120ab565b6040518082815260200191505060405180910390f35b34156107e357600080fd5b6107eb6120b5565b6040518082815260200191505060405180910390f35b341561080c57600080fd5b6108146120bb565b005b341561082157600080fd5b61082961217b565b6040518080602001828103825283818151815260200191508051906020019080838360005b8381101561086957808201518184015260208101905061084e565b50505050905090810190601f1680156108965780820380516001836020036101000a031916815260200191505b509250505060405180910390f35b34156108af57600080fd5b610903600480803573ffffffffffffffffffffffffffffffffffffffff1690602001909190803573ffffffffffffffffffffffffffffffffffffffff16906020019091908035906020019091905050612223565b005b610957600480803573ffffffffffffffffffffffffffffffffffffffff16906020019091908035906020019091908035906020019091908035906020019082018035906020019190919290505061225b565b6040518082815260200191505060405180910390f35b341561097857600080fd5b610980612529565b6040518080602001828103825283818151815260200191508051906020019080838360005b838110156109c05780820151818401526020810190506109a5565b50505050905090810190601f1680156109ed5780820380516001836020036101000a031916815260200191505b509250505060405180910390f35b3415610a0657600080fd5b610a0e6125d1565b005b3415610a1b57600080fd5b610a316004808035906020019091905050612839565b604051808215151515815260200191505060405180910390f35b3415610a5657600080fd5b610a6c60048080359060200190919050506128ab565b6040518082815260200191505060405180910390f35b3415610a8d57600080fd5b610aa360048080359060200190919050506128e4565b6040518080602001828103825283818151815260200191508051906020019080838360005b83811015610ae3578082015181840152602081019050610ac8565b50505050905090810190601f168015610b105780820380516001836020036101000a031916815260200191505b509250505060405180910390f35b3415610b2957600080fd5b610b316129ac565b604051808215151515815260200191505060405180910390f35b3415610b5657600080fd5b610b6c60048080359060200190919050506129bf565b604051808273ffffffffffffffffffffffffffffffffffffffff1673ffffffffffffffffffffffffffffffffffffffff16815260200191505060405180910390f35b3415610bb957600080fd5b610bcf60048080359060200190919050506129fe565b604051808273ffffffffffffffffffffffffffffffffffffffff1673ffffffffffffffffffffffffffffffffffffffff16815260200191505060405180910390f35b3415610c1c57600080fd5b610c53600480803573ffffffffffffffffffffffffffffffffffffffff169060200190919080351515906020019091905050612a7c565b604051808215151515815260200191505060405180910390f35b3415610c7857600080fd5b610cad600480803590602001909190803573ffffffffffffffffffffffffffffffffffffffff16906020019091905050612bfe565b005b3415610cba57600080fd5b610cc2612cdf565b60405180826000191660001916815260200191505060405180910390f35b3415610ceb57600080fd5b610d0c60048080359060200190820180359060200191909192905050612ce9565b005b3415610d1957600080fd5b610d45600480803573ffffffffffffffffffffffffffffffffffffffff16906020019091905050612dac565b6040518082815260200191505060405180910390f35b3415610d6657600080fd5b610d6e612e30565b6040518082815260200191505060405180910390f35b3415610d8f57600080fd5b610dc4600480803590602001909190803573ffffffffffffffffffffffffffffffffffffffff16906020019091905050612e3c565b005b3415610dd157600080fd5b610dd9613160565b005b3415610de657600080fd5b610e0760048080359060200190820180359060200191909192905050613219565b005b3415610e1457600080fd5b610e1c6132dc565b005b3415610e2957600080fd5b610e3161339d565b604051808273ffffffffffffffffffffffffffffffffffffffff1673ffffffffffffffffffffffffffffffffffffffff16815260200191505060405180910390f35b3415610e7e57600080fd5b610e866133c3565b6040518080602001828103825283818151815260200191508051906020019080838360005b83811015610ec6578082015181840152602081019050610eab565b50505050905090810190601f168015610ef35780820380516001836020036101000a031916815260200191505b509250505060405180910390f35b3415610f0c57600080fd5b610f22600480803590602001909190505061346b565b604051808273ffffffffffffffffffffffffffffffffffffffff1673ffffffffffffffffffffffffffffffffffffffff16815260200191505060405180910390f35b3415610f6f57600080fd5b610f9b600480803573ffffffffffffffffffffffffffffffffffffffff169060200190919050506134b4565b6040518082815260200191505060405180910390f35b3415610fbc57600080fd5b611007600480803573ffffffffffffffffffffffffffffffffffffffff1690602001909190803573ffffffffffffffffffffffffffffffffffffffff169060200190919050506134cc565b604051808215151515815260200191505060405180910390f35b341561102c57600080fd5b6110346136e5565b6040518080602001828103825283818151815260200191508051906020019080838360005b83811015611074578082015181840152602081019050611059565b50505050905090810190601f1680156110a15780820380516001836020036101000a031916815260200191505b509250505060405180910390f35b34156110ba57600080fd5b6110db6004808035906020019082018035906020019190919290505061378d565b005b34156110e857600080fd5b61111f600480803573ffffffffffffffffffffffffffffffffffffffff169060200190919080351515906020019091905050613819565b005b341561112c57600080fd5b6111426004808035906020019091905050613955565b6040518082815260200191505060405180910390f35b341561116357600080fd5b6111846004808035906020019082018035906020019190919290505061397e565b005b341561119157600080fd5b611199613a41565b604051808273ffffffffffffffffffffffffffffffffffffffff1673ffffffffffffffffffffffffffffffffffffffff16815260200191505060405180910390f35b34156111e657600080fd5b61127d600480803573ffffffffffffffffffffffffffffffffffffffff1690602001909190803573ffffffffffffffffffffffffffffffffffffffff1690602001909190803590602001909190803590602001908201803590602001908080601f01602080910402602001604051908101604052809392919081815260200183838082843782019150505050505091905050613a6b565b005b341561128a57600080fd5b6112ad600480803590602001909190803560001916906020019091905050613aaa565b005b34156112ba57600080fd5b6112c2613ba8565b604051808215151515815260200191505060405180910390f35b34156112e757600080fd5b6112ef613bbf565b604051808215151515815260200191505060405180910390f35b341561131457600080fd5b61133560048080359060200190820180359060200191909192905050613bc8565b005b341561134257600080fd5b6113586004808035906020019091905050613c5f565b6040518080602001828103825283818151815260200191508051906020019080838360005b8381101561139857808201518184015260208101905061137d565b50505050905090810190601f1680156113c55780820380516001836020036101000a031916815260200191505b509250505060405180910390f35b34156113de57600080fd5b6113f46004808035906020019091905050613d2e565b6040518082815260200191505060405180910390f35b341561141557600080fd5b611441600480803573ffffffffffffffffffffffffffffffffffffffff16906020019091905050613d57565b6040518082815260200191505060405180910390f35b341561146257600080fd5b6114786004808035906020019091905050613d6f565b005b341561148557600080fd5b61148d613dd5565b6040518082815260200191505060405180910390f35b34156114ae57600080fd5b6114d1600480803590602001909190803560001916906020019091905050613ddb565b005b34156114de57600080fd5b611529600480803573ffffffffffffffffffffffffffffffffffffffff1690602001909190803573ffffffffffffffffffffffffffffffffffffffff16906020019091905050613e72565b604051808215151515815260200191505060405180910390f35b341561154e57600080fd5b61157a600480803573ffffffffffffffffffffffffffffffffffffffff16906020019091905050613f06565b005b341561158757600080fd5b6115b3600480803573ffffffffffffffffffffffffffffffffffffffff1690602001909190505061405e565b005b34156115c057600080fd5b6115c86140f5565b6040518080602001828103825283818151815260200191508051906020019060200280838360005b8381101561160b5780820151818401526020810190506115f0565b505050509050019250505060405180910390f35b341561162a57600080fd5b6116406004808035906020019091905050614157565b6040518082815260200191505060405180910390f35b61165e614e29565b60118054600181600116156101000203166002900480601f0160208091040260200160405190810160405280929190818152602001828054600181600116156101000203166002900480156116f45780601f106116c9576101008083540402835291602001916116f4565b820191906000526020600020905b8154815290600101906020018083116116d757829003601f168201915b5050505050905090565b611706614e29565b60038054600181600116156101000203166002900480601f01602080910402602001604051908101604052809291908181526020018280546001816001161561010002031660029004801561179c5780601f106117715761010080835404028352916020019161179c565b820191906000526020600020905b81548152906001019060200180831161177f57829003601f168201915b5050505050905090565b6000600e600083815260200190815260200160002060009054906101000a900473ffffffffffffffffffffffffffffffffffffffff169050919050565b60006117ee826129fe565b90508073ffffffffffffffffffffffffffffffffffffffff168373ffffffffffffffffffffffffffffffffffffffff161415151561182b57600080fd5b8073ffffffffffffffffffffffffffffffffffffffff163373ffffffffffffffffffffffffffffffffffffffff16148061186b575061186a8133613e72565b5b151561187657600080fd5b600073ffffffffffffffffffffffffffffffffffffffff16611897836117a6565b73ffffffffffffffffffffffffffffffffffffffff161415806118e75750600073ffffffffffffffffffffffffffffffffffffffff168373ffffffffffffffffffffffffffffffffffffffff1614155b156119a45782600e600084815260200190815260200160002060006101000a81548173ffffffffffffffffffffffffffffffffffffffff021916908373ffffffffffffffffffffffffffffffffffffffff1602179055508273ffffffffffffffffffffffffffffffffffffffff168173ffffffffffffffffffffffffffffffffffffffff167f8c5be1e5ebec7d5bd14f71427d1e84f3dd0314c0f7b2291e5b200ac8c7c3b925846040518082815260200191505060405180910390a35b505050565b6000806000600660149054906101000a900460ff161515156119ca57600080fd5b3373ffffffffffffffffffffffffffffffffffffffff166119ea856129fe565b73ffffffffffffffffffffffffffffffffffffffff16141515611a0c57600080fd5b60166000858152602001908152602001600020549250611a3b600160008054905061418090919063ffffffff16565b9150600082815481101515611a4c57fe5b9060005260206000209060060201905080600084815481101515611a6c57fe5b90600052602060002090600602016000820160009054906101000a900473ffffffffffffffffffffffffffffffffffffffff168160000160006101000a81548173ffffffffffffffffffffffffffffffffffffffff021916908373ffffffffffffffffffffffffffffffffffffffff160217905550600182015481600101556002820154816002015560038201816003019080546001816001161561010002031660029004611b1c929190614e3d565b506004820160009054906101000a900473ffffffffffffffffffffffffffffffffffffffff168160040160006101000a81548173ffffffffffffffffffffffffffffffffffffffff021916908373ffffffffffffffffffffffffffffffffffffffff16021790555060058201548160050155905050600082815481101515611ba057fe5b9060005260206000209060060201600080820160006101000a81549073ffffffffffffffffffffffffffffffffffffffff021916905560018201600090556002820160009055600382016000611bf69190614ec4565b6004820160006101000a81549073ffffffffffffffffffffffffffffffffffffffff0219169055600582016000905550506000805480919060019003611c3c9190614f0c565b50611c473385614199565b7f863d345cb8a315b82cf25ba9b949c03407c0298f0b316ee400d4a2256a96a1943385604051808373ffffffffffffffffffffffffffffffffffffffff1673ffffffffffffffffffffffffffffffffffffffff1681526020018281526020019250505060405180910390a150505050565b611cc0614e29565b60088054600181600116156101000203166002900480601f016020809104026020016040519081016040528092919081815260200182805460018160011615610100020316600290048015611d565780601f10611d2b57610100808354040283529160200191611d56565b820191906000526020600020905b815481529060010190602001808311611d3957829003601f168201915b5050505050905090565b6000601580549050905090565b601d60009054906101000a900473ffffffffffffffffffffffffffffffffffffffff1673ffffffffffffffffffffffffffffffffffffffff163373ffffffffffffffffffffffffffffffffffffffff16141515611dc957600080fd5b6010602060ff1611151515611ddd57600080fd5b600a8054806001018281611df19190614f3e565b91600052602060002090016000839091909150906000191690555050565b80611e1a33826142d4565b1515611e2557600080fd5b600073ffffffffffffffffffffffffffffffffffffffff168473ffffffffffffffffffffffffffffffffffffffff1614151515611e6157600080fd5b600073ffffffffffffffffffffffffffffffffffffffff168373ffffffffffffffffffffffffffffffffffffffff1614151515611e9d57600080fd5b611ea78483614369565b611eb184836144d2565b611ebb83836146ed565b8273ffffffffffffffffffffffffffffffffffffffff168473ffffffffffffffffffffffffffffffffffffffff167fddf252ad1be2c89b69c2b068fc378daa952ba7f163c4a11628f55a4df523b3ef846040518082815260200191505060405180910390a350505050565b601d60009054906101000a900473ffffffffffffffffffffffffffffffffffffffff1673ffffffffffffffffffffffffffffffffffffffff163373ffffffffffffffffffffffffffffffffffffffff16141515611f8257600080fd5b80600280811115611f8f57fe5b10151515611f9c57600080fd5b806002811115611fa857fe5b600460146101000a81548160ff02191690836002811115611fc557fe5b021790555050565b6000611fd883612dac565b82101515611fe557600080fd5b601360008473ffffffffffffffffffffffffffffffffffffffff1673ffffffffffffffffffffffffffffffffffffffff1681526020019081526020016000208281548110151561203157fe5b906000526020600020900154905092915050565b6000600460149054906101000a900460ff16905090565b6000806000612069614e29565b60006120748661346b565b61207d87613955565b61208688614157565b61208f896128e4565b6120988a613d2e565b9450945094509450945091939590929450565b6000600754905090565b60185481565b601d60009054906101000a900473ffffffffffffffffffffffffffffffffffffffff1673ffffffffffffffffffffffffffffffffffffffff163373ffffffffffffffffffffffffffffffffffffffff1614151561211757600080fd5b600660149054906101000a900460ff16151561213257600080fd5b6000600660146101000a81548160ff0219169083151502179055507f7805862f689e2f13df9f062ff482ad3ad112aca9e0847911ed832e158c525b3360405160405180910390a1565b612183614e29565b60098054600181600116156101000203166002900480601f0160208091040260200160405190810160405280929190818152602001828054600181600116156101000203166002900480156122195780601f106121ee57610100808354040283529160200191612219565b820191906000526020600020905b8154815290600101906020018083116121fc57829003601f168201915b5050505050905090565b8061222e33826142d4565b151561223957600080fd5b6122558484846020604051908101604052806000815250613a6b565b50505050565b6000612265614f6a565b6000600660149054906101000a900460ff1615151561228357600080fd5b6000600281111561229057fe5b600460149054906101000a900460ff1660028111156122ab57fe5b141561230e57600660009054906101000a900473ffffffffffffffffffffffffffffffffffffffff1673ffffffffffffffffffffffffffffffffffffffff163373ffffffffffffffffffffffffffffffffffffffff1614151561230d57600080fd5b5b6007543414151561231e57600080fd5b60c0604051908101604052808973ffffffffffffffffffffffffffffffffffffffff16815260200188815260200187815260200186868080601f01602080910402602001604051908101604052809392919081815260200183838082843782019150505050505081526020013373ffffffffffffffffffffffffffffffffffffffff1681526020014281525091506001600080548060010182816123c29190614fd3565b9160005260206000209060060201600085909190915060008201518160000160006101000a81548173ffffffffffffffffffffffffffffffffffffffff021916908373ffffffffffffffffffffffffffffffffffffffff1602179055506020820151816001015560408201518160020155606082015181600301908051906020019061244f929190615005565b5060808201518160040160006101000a81548173ffffffffffffffffffffffffffffffffffffffff021916908373ffffffffffffffffffffffffffffffffffffffff16021790555060a0820151816005015550500390506124b033826147c1565b7fe9a0a2aca9c41fae94448dec8914ad73e4d00ebdc2427e61f3fc66919f4ffa2a3382604051808373ffffffffffffffffffffffffffffffffffffffff1673ffffffffffffffffffffffffffffffffffffffff1681526020018281526020019250505060405180910390a1809250505095945050505050565b612531614e29565b60028054600181600116156101000203166002900480601f0160208091040260200160405190810160405280929190818152602001828054600181600116156101000203166002900480156125c75780601f1061259c576101008083540402835291602001916125c7565b820191906000526020600020905b8154815290600101906020018083116125aa57829003601f168201915b5050505050905090565b60008060003392506000601a60008573ffffffffffffffffffffffffffffffffffffffff1673ffffffffffffffffffffffffffffffffffffffff1681526020019081526020016000205411151561262757600080fd5b6126536019543073ffffffffffffffffffffffffffffffffffffffff163161481590919063ffffffff16565b915061270c601b60008573ffffffffffffffffffffffffffffffffffffffff1673ffffffffffffffffffffffffffffffffffffffff168152602001908152602001600020546126fe6018546126f0601a60008973ffffffffffffffffffffffffffffffffffffffff1673ffffffffffffffffffffffffffffffffffffffff168152602001908152602001600020548761483390919063ffffffff16565b61486e90919063ffffffff16565b61418090919063ffffffff16565b90506000811415151561271e57600080fd5b803073ffffffffffffffffffffffffffffffffffffffff16311015151561274457600080fd5b61279681601b60008673ffffffffffffffffffffffffffffffffffffffff1673ffffffffffffffffffffffffffffffffffffffff1681526020019081526020016000205461481590919063ffffffff16565b601b60008573ffffffffffffffffffffffffffffffffffffffff1673ffffffffffffffffffffffffffffffffffffffff168152602001908152602001600020819055506127ee8160195461481590919063ffffffff16565b6019819055508273ffffffffffffffffffffffffffffffffffffffff166108fc829081150290604051600060405180830381858888f19350505050151561283457600080fd5b505050565b600080600d600084815260200190815260200160002060009054906101000a900473ffffffffffffffffffffffffffffffffffffffff169050600073ffffffffffffffffffffffffffffffffffffffff168173ffffffffffffffffffffffffffffffffffffffff161415915050919050565b60006128b5611d60565b821015156128c257600080fd5b6015828154811015156128d157fe5b9060005260206000209001549050919050565b6128ec614e29565b6000828154811015156128fb57fe5b90600052602060002090600602016003018054600181600116156101000203166002900480601f0160208091040260200160405190810160405280929190818152602001828054600181600116156101000203166002900480156129a05780601f10612975576101008083540402835291602001916129a0565b820191906000526020600020905b81548152906001019060200180831161298357829003601f168201915b50505050509050919050565b600660149054906101000a900460ff1681565b601c818154811015156129ce57fe5b90600052602060002090016000915054906101000a900473ffffffffffffffffffffffffffffffffffffffff1681565b600080600d600084815260200190815260200160002060009054906101000a900473ffffffffffffffffffffffffffffffffffffffff169050600073ffffffffffffffffffffffffffffffffffffffff168173ffffffffffffffffffffffffffffffffffffffff1614151515612a7357600080fd5b80915050919050565b6000600660009054906101000a900473ffffffffffffffffffffffffffffffffffffffff1673ffffffffffffffffffffffffffffffffffffffff163273ffffffffffffffffffffffffffffffffffffffff16141515612ada57600080fd5b600660009054906101000a900473ffffffffffffffffffffffffffffffffffffffff1673ffffffffffffffffffffffffffffffffffffffff168373ffffffffffffffffffffffffffffffffffffffff16141515612b3657600080fd5b81600460156101000a81548160ff021916908315150217905550600115158215151415612ba35733600560006101000a81548173ffffffffffffffffffffffffffffffffffffffff021916908373ffffffffffffffffffffffffffffffffffffffff160217905550612be6565b6000600560006101000a81548173ffffffffffffffffffffffffffffffffffffffff021916908373ffffffffffffffffffffffffffffffffffffffff1602179055505b600460159054906101000a900460ff16905092915050565b600660149054906101000a900460ff16151515612c1a57600080fd5b3373ffffffffffffffffffffffffffffffffffffffff16612c3a836129fe565b73ffffffffffffffffffffffffffffffffffffffff16141515612c5c57600080fd5b612c6633836144d2565b612c7081836146ed565b7fe93f305b235917d8ff8103ff4bb045df5935484b45bfd248c7fec5f04fecf92d8282604051808381526020018273ffffffffffffffffffffffffffffffffffffffff1673ffffffffffffffffffffffffffffffffffffffff1681526020019250505060405180910390a15050565b6000600b54905090565b601d60009054906101000a900473ffffffffffffffffffffffffffffffffffffffff1673ffffffffffffffffffffffffffffffffffffffff163373ffffffffffffffffffffffffffffffffffffffff16141515612d4557600080fd5b818160029190612d56929190615085565b507f6362a59ae98fef1a0a45d03a1127a82c2268ca380148117a052b9f8bce8e6f1e8282604051808060200182810382528484828181526020019250808284378201915050935050505060405180910390a15050565b60008073ffffffffffffffffffffffffffffffffffffffff168273ffffffffffffffffffffffffffffffffffffffff1614151515612de957600080fd5b600f60008373ffffffffffffffffffffffffffffffffffffffff1673ffffffffffffffffffffffffffffffffffffffff168152602001908152602001600020549050919050565b60008080549050905090565b6000601d60009054906101000a900473ffffffffffffffffffffffffffffffffffffffff1673ffffffffffffffffffffffffffffffffffffffff163373ffffffffffffffffffffffffffffffffffffffff16141515612e9a57600080fd5b601c83815481101515612ea957fe5b906000526020600020900160009054906101000a900473ffffffffffffffffffffffffffffffffffffffff169050601a60008273ffffffffffffffffffffffffffffffffffffffff1673ffffffffffffffffffffffffffffffffffffffff16815260200190815260200160002054601a60008473ffffffffffffffffffffffffffffffffffffffff1673ffffffffffffffffffffffffffffffffffffffff16815260200190815260200160002081905550601b60008273ffffffffffffffffffffffffffffffffffffffff1673ffffffffffffffffffffffffffffffffffffffff16815260200190815260200160002054601b60008473ffffffffffffffffffffffffffffffffffffffff1673ffffffffffffffffffffffffffffffffffffffff1681526020019081526020016000208190555081601c84815481101515612fed57fe5b906000526020600020900160006101000a81548173ffffffffffffffffffffffffffffffffffffffff021916908373ffffffffffffffffffffffffffffffffffffffff160217905550601a60008273ffffffffffffffffffffffffffffffffffffffff1673ffffffffffffffffffffffffffffffffffffffff16815260200190815260200160002060009055601b60008273ffffffffffffffffffffffffffffffffffffffff1673ffffffffffffffffffffffffffffffffffffffff168152602001908152602001600020600090557fa1982f3fe3fa9dba8ce5bc91687e2ab0850b0431cddacc1a249b2ae0390b912f838284604051808481526020018373ffffffffffffffffffffffffffffffffffffffff1673ffffffffffffffffffffffffffffffffffffffff1681526020018273ffffffffffffffffffffffffffffffffffffffff1673ffffffffffffffffffffffffffffffffffffffff168152602001935050505060405180910390a1505050565b601d60009054906101000a900473ffffffffffffffffffffffffffffffffffffffff1673ffffffffffffffffffffffffffffffffffffffff163373ffffffffffffffffffffffffffffffffffffffff161415156131bc57600080fd5b60001515600460159054906101000a900460ff1615151415156131de57600080fd5b600660009054906101000a900473ffffffffffffffffffffffffffffffffffffffff1673ffffffffffffffffffffffffffffffffffffffff16ff5b601d60009054906101000a900473ffffffffffffffffffffffffffffffffffffffff1673ffffffffffffffffffffffffffffffffffffffff163373ffffffffffffffffffffffffffffffffffffffff1614151561327557600080fd5b818160039190613286929190615085565b507fcfaf57d92b1b2684731a770c593d162587ca98e9d372be876ab14b389866f0f68282604051808060200182810382528484828181526020019250808284378201915050935050505060405180910390a15050565b601d60009054906101000a900473ffffffffffffffffffffffffffffffffffffffff1673ffffffffffffffffffffffffffffffffffffffff163373ffffffffffffffffffffffffffffffffffffffff1614151561333857600080fd5b600660149054906101000a900460ff1615151561335457600080fd5b6001600660146101000a81548160ff0219169083151502179055507f6985a02210a168e66602d3235cb6db0e70f92b3ba4d376a33c0f3d9434bff62560405160405180910390a1565b601d60009054906101000a900473ffffffffffffffffffffffffffffffffffffffff1681565b6133cb614e29565b60128054600181600116156101000203166002900480601f0160208091040260200160405190810160405280929190818152602001828054600181600116156101000203166002900480156134615780601f1061343657610100808354040283529160200191613461565b820191906000526020600020905b81548152906001019060200180831161344457829003601f168201915b5050505050905090565b6000808281548110151561347b57fe5b906000526020600020906006020160000160009054906101000a900473ffffffffffffffffffffffffffffffffffffffff169050919050565b601b6020528060005260406000206000915090505481565b6000600560009054906101000a900473ffffffffffffffffffffffffffffffffffffffff1673ffffffffffffffffffffffffffffffffffffffff163373ffffffffffffffffffffffffffffffffffffffff1614151561352a57600080fd5b60011515600460159054906101000a900460ff16151514151561354c57600080fd5b600660009054906101000a900473ffffffffffffffffffffffffffffffffffffffff1673ffffffffffffffffffffffffffffffffffffffff163273ffffffffffffffffffffffffffffffffffffffff161415156135a857600080fd5b600660009054906101000a900473ffffffffffffffffffffffffffffffffffffffff1673ffffffffffffffffffffffffffffffffffffffff168373ffffffffffffffffffffffffffffffffffffffff1614151561360457600080fd5b600073ffffffffffffffffffffffffffffffffffffffff168273ffffffffffffffffffffffffffffffffffffffff161415151561364057600080fd5b8173ffffffffffffffffffffffffffffffffffffffff168373ffffffffffffffffffffffffffffffffffffffff167f84bde0f24a9f2ab2bee792a5368c45c8600cc3d0b2fc0d7deff0e73c94519ae860405160405180910390a381600660006101000a81548173ffffffffffffffffffffffffffffffffffffffff021916908373ffffffffffffffffffffffffffffffffffffffff1602179055506001905092915050565b6136ed614e29565b60018054600181600116156101000203166002900480601f0160208091040260200160405190810160405280929190818152602001828054600181600116156101000203166002900480156137835780601f1061375857610100808354040283529160200191613783565b820191906000526020600020905b81548152906001019060200180831161376657829003601f168201915b5050505050905090565b6000601d60009054906101000a900473ffffffffffffffffffffffffffffffffffffffff1673ffffffffffffffffffffffffffffffffffffffff163373ffffffffffffffffffffffffffffffffffffffff161415156137eb57600080fd5b828290509050610100811115151561380257600080fd5b828260099190613813929190615085565b50505050565b3373ffffffffffffffffffffffffffffffffffffffff168273ffffffffffffffffffffffffffffffffffffffff161415151561385457600080fd5b80601060003373ffffffffffffffffffffffffffffffffffffffff1673ffffffffffffffffffffffffffffffffffffffff16815260200190815260200160002060008473ffffffffffffffffffffffffffffffffffffffff1673ffffffffffffffffffffffffffffffffffffffff16815260200190815260200160002060006101000a81548160ff0219169083151502179055508173ffffffffffffffffffffffffffffffffffffffff163373ffffffffffffffffffffffffffffffffffffffff167f17307eab39ab6107e8899845ad3d59bd9653f200f220920489ca2b5937696c3183604051808215151515815260200191505060405180910390a35050565b6000808281548110151561396557fe5b9060005260206000209060060201600101549050919050565b601d60009054906101000a900473ffffffffffffffffffffffffffffffffffffffff1673ffffffffffffffffffffffffffffffffffffffff163373ffffffffffffffffffffffffffffffffffffffff161415156139da57600080fd5b8181600191906139eb929190615085565b507f97bc322e754962c4ff23eb8a9d58b147ead5be0347d9a799addc5a2d44564cbe8282604051808060200182810382528484828181526020019250808284378201915050935050505060405180910390a15050565b6000600c60009054906101000a900473ffffffffffffffffffffffffffffffffffffffff16905090565b81613a7633826142d4565b1515613a8157600080fd5b613a8c858585611e0f565b613a9885858585614889565b1515613aa357600080fd5b5050505050565b600080601d60009054906101000a900473ffffffffffffffffffffffffffffffffffffffff1673ffffffffffffffffffffffffffffffffffffffff163373ffffffffffffffffffffffffffffffffffffffff16141515613b0957600080fd5b6010602060ff1611151515613b1d57600080fd5b6001600a80549050039150600a82815481101515613b3757fe5b906000526020600020900154905080600a85815481101515613b5557fe5b906000526020600020900181600019169055506000600a83815481101515613b7957fe5b90600052602060002090018160001916905550600a805480919060019003613ba19190615105565b5050505050565b6000600460159054906101000a900460ff16905090565b60006001905090565b6000601d60009054906101000a900473ffffffffffffffffffffffffffffffffffffffff1673ffffffffffffffffffffffffffffffffffffffff163373ffffffffffffffffffffffffffffffffffffffff16141515613c2657600080fd5b828290509050600081118015613c3d575060208111155b1515613c4857600080fd5b828260089190613c59929190615085565b50505050565b613c67614e29565b613c7082612839565b1515613c7b57600080fd5b601760008381526020019081526020016000208054600181600116156101000203166002900480601f016020809104026020016040519081016040528092919081815260200182805460018160011615610100020316600290048015613d225780601f10613cf757610100808354040283529160200191613d22565b820191906000526020600020905b815481529060010190602001808311613d0557829003601f168201915b50505050509050919050565b60008082815481101515613d3e57fe5b9060005260206000209060060201600501549050919050565b601a6020528060005260406000206000915090505481565b601d60009054906101000a900473ffffffffffffffffffffffffffffffffffffffff1673ffffffffffffffffffffffffffffffffffffffff163373ffffffffffffffffffffffffffffffffffffffff16141515613dcb57600080fd5b8060078190555050565b60195481565b601d60009054906101000a900473ffffffffffffffffffffffffffffffffffffffff1673ffffffffffffffffffffffffffffffffffffffff163373ffffffffffffffffffffffffffffffffffffffff16141515613e3757600080fd5b6010602060ff1611151515613e4b57600080fd5b80600a83815481101515613e5b57fe5b906000526020600020900181600019169055505050565b6000601060008473ffffffffffffffffffffffffffffffffffffffff1673ffffffffffffffffffffffffffffffffffffffff16815260200190815260200160002060008373ffffffffffffffffffffffffffffffffffffffff1673ffffffffffffffffffffffffffffffffffffffff16815260200190815260200160002060009054906101000a900460ff16905092915050565b601d60009054906101000a900473ffffffffffffffffffffffffffffffffffffffff1673ffffffffffffffffffffffffffffffffffffffff163373ffffffffffffffffffffffffffffffffffffffff16141515613f6257600080fd5b600073ffffffffffffffffffffffffffffffffffffffff168173ffffffffffffffffffffffffffffffffffffffff1614151515613f9e57600080fd5b8073ffffffffffffffffffffffffffffffffffffffff16601d60009054906101000a900473ffffffffffffffffffffffffffffffffffffffff1673ffffffffffffffffffffffffffffffffffffffff167f8be0079c531659141344cd1fd0a4f28419497f9722a3daafe3b4186f6b6457e060405160405180910390a380601d60006101000a81548173ffffffffffffffffffffffffffffffffffffffff021916908373ffffffffffffffffffffffffffffffffffffffff16021790555050565b601d60009054906101000a900473ffffffffffffffffffffffffffffffffffffffff1673ffffffffffffffffffffffffffffffffffffffff163373ffffffffffffffffffffffffffffffffffffffff161415156140ba57600080fd5b60001515600460159054906101000a900460ff1615151415156140dc57600080fd5b8073ffffffffffffffffffffffffffffffffffffffff16ff5b6140fd615131565b600a80548060200260200160405190810160405280929190818152602001828054801561414d57602002820191906000526020600020905b81546000191681526020019060010190808311614135575b5050505050905090565b6000808281548110151561416757fe5b9060005260206000209060060201600201549050919050565b600082821115151561418e57fe5b818303905092915050565b60008060006141a88585614a5f565b6000601760008681526020019081526020016000208054600181600116156101000203166002900490501415156141f9576017600085815260200190815260200160002060006141f89190614ec4565b5b60166000858152602001908152602001600020549250614228600160158054905061418090919063ffffffff16565b915060158281548110151561423957fe5b90600052602060002090015490508060158481548110151561425757fe5b906000526020600020900181905550600060158381548110151561427757fe5b906000526020600020900181905550601580548091906001900361429b9190615145565b50600060166000868152602001908152602001600020819055508260166000838152602001908152602001600020819055505050505050565b6000806142e0836129fe565b90508073ffffffffffffffffffffffffffffffffffffffff168473ffffffffffffffffffffffffffffffffffffffff16148061434f57508373ffffffffffffffffffffffffffffffffffffffff16614337846117a6565b73ffffffffffffffffffffffffffffffffffffffff16145b80614360575061435f8185613e72565b5b91505092915050565b8173ffffffffffffffffffffffffffffffffffffffff16614389826129fe565b73ffffffffffffffffffffffffffffffffffffffff161415156143ab57600080fd5b600073ffffffffffffffffffffffffffffffffffffffff16600e600083815260200190815260200160002060009054906101000a900473ffffffffffffffffffffffffffffffffffffffff1673ffffffffffffffffffffffffffffffffffffffff161415156144ce576000600e600083815260200190815260200160002060006101000a81548173ffffffffffffffffffffffffffffffffffffffff021916908373ffffffffffffffffffffffffffffffffffffffff160217905550600073ffffffffffffffffffffffffffffffffffffffff168273ffffffffffffffffffffffffffffffffffffffff167f8c5be1e5ebec7d5bd14f71427d1e84f3dd0314c0f7b2291e5b200ac8c7c3b925836040518082815260200191505060405180910390a35b5050565b60008060006144e18585614add565b6014600085815260200190815260200160002054925061454d6001601360008873ffffffffffffffffffffffffffffffffffffffff1673ffffffffffffffffffffffffffffffffffffffff1681526020019081526020016000208054905061418090919063ffffffff16565b9150601360008673ffffffffffffffffffffffffffffffffffffffff1673ffffffffffffffffffffffffffffffffffffffff1681526020019081526020016000208281548110151561459b57fe5b906000526020600020900154905080601360008773ffffffffffffffffffffffffffffffffffffffff1673ffffffffffffffffffffffffffffffffffffffff168152602001908152602001600020848154811015156145f657fe5b9060005260206000209001819055506000601360008773ffffffffffffffffffffffffffffffffffffffff1673ffffffffffffffffffffffffffffffffffffffff1681526020019081526020016000208381548110151561465357fe5b906000526020600020900181905550601360008673ffffffffffffffffffffffffffffffffffffffff1673ffffffffffffffffffffffffffffffffffffffff1681526020019081526020016000208054809190600190036146b49190615145565b50600060146000868152602001908152602001600020819055508260146000838152602001908152602001600020819055505050505050565b60006146f98383614c0c565b601360008473ffffffffffffffffffffffffffffffffffffffff1673ffffffffffffffffffffffffffffffffffffffff168152602001908152602001600020805490509050601360008473ffffffffffffffffffffffffffffffffffffffff1673ffffffffffffffffffffffffffffffffffffffff168152602001908152602001600020805480600101828161478f9190615171565b916000526020600020900160008490919091505550806014600084815260200190815260200160002081905550505050565b6147cb8282614d66565b6015805490506016600083815260200190815260200160002081905550601580548060010182816147fc9190615171565b9160005260206000209001600083909190915055505050565b600080828401905083811015151561482957fe5b8091505092915050565b60008060008414156148485760009150614867565b828402905082848281151561485957fe5b0414151561486357fe5b8091505b5092915050565b600080828481151561487c57fe5b0490508091505092915050565b6000806148ab8573ffffffffffffffffffffffffffffffffffffffff16614e16565b15156148ba5760019150614a56565b8473ffffffffffffffffffffffffffffffffffffffff1663f0b9e5ba8786866000604051602001526040518463ffffffff167c0100000000000000000000000000000000000000000000000000000000028152600401808473ffffffffffffffffffffffffffffffffffffffff1673ffffffffffffffffffffffffffffffffffffffff16815260200183815260200180602001828103825283818151815260200191508051906020019080838360005b8381101561498557808201518184015260208101905061496a565b50505050905090810190601f1680156149b25780820380516001836020036101000a031916815260200191505b50945050505050602060405180830381600087803b15156149d257600080fd5b6102c65a03f115156149e357600080fd5b50505060405180519050905063f0b9e5ba7c0100000000000000000000000000000000000000000000000000000000027bffffffffffffffffffffffffffffffffffffffffffffffffffffffff1916817bffffffffffffffffffffffffffffffffffffffffffffffffffffffff19161491505b50949350505050565b614a698282614369565b614a7382826144d2565b600073ffffffffffffffffffffffffffffffffffffffff168273ffffffffffffffffffffffffffffffffffffffff167fddf252ad1be2c89b69c2b068fc378daa952ba7f163c4a11628f55a4df523b3ef836040518082815260200191505060405180910390a35050565b8173ffffffffffffffffffffffffffffffffffffffff16614afd826129fe565b73ffffffffffffffffffffffffffffffffffffffff16141515614b1f57600080fd5b614b726001600f60008573ffffffffffffffffffffffffffffffffffffffff1673ffffffffffffffffffffffffffffffffffffffff1681526020019081526020016000205461418090919063ffffffff16565b600f60008473ffffffffffffffffffffffffffffffffffffffff1673ffffffffffffffffffffffffffffffffffffffff168152602001908152602001600020819055506000600d600083815260200190815260200160002060006101000a81548173ffffffffffffffffffffffffffffffffffffffff021916908373ffffffffffffffffffffffffffffffffffffffff1602179055505050565b600073ffffffffffffffffffffffffffffffffffffffff16600d600083815260200190815260200160002060009054906101000a900473ffffffffffffffffffffffffffffffffffffffff1673ffffffffffffffffffffffffffffffffffffffff16141515614c7a57600080fd5b81600d600083815260200190815260200160002060006101000a81548173ffffffffffffffffffffffffffffffffffffffff021916908373ffffffffffffffffffffffffffffffffffffffff160217905550614d1f6001600f60008573ffffffffffffffffffffffffffffffffffffffff1673ffffffffffffffffffffffffffffffffffffffff1681526020019081526020016000205461481590919063ffffffff16565b600f60008473ffffffffffffffffffffffffffffffffffffffff1673ffffffffffffffffffffffffffffffffffffffff168152602001908152602001600020819055505050565b600073ffffffffffffffffffffffffffffffffffffffff168273ffffffffffffffffffffffffffffffffffffffff1614151515614da257600080fd5b614dac82826146ed565b8173ffffffffffffffffffffffffffffffffffffffff16600073ffffffffffffffffffffffffffffffffffffffff167fddf252ad1be2c89b69c2b068fc378daa952ba7f163c4a11628f55a4df523b3ef836040518082815260200191505060405180910390a35050565b600080823b905060008111915050919050565b602060405190810160405280600081525090565b828054600181600116156101000203166002900490600052602060002090601f016020900481019282601f10614e765780548555614eb3565b82800160010185558215614eb357600052602060002091601f016020900482015b82811115614eb2578254825591600101919060010190614e97565b5b509050614ec0919061519d565b5090565b50805460018160011615610100020316600290046000825580601f10614eea5750614f09565b601f016020900490600052602060002090810190614f08919061519d565b5b50565b815481835581811511614f3957600602816006028360005260206000209182019101614f3891906151c2565b5b505050565b815481835581811511614f6557818360005260206000209182019101614f649190615257565b5b505050565b60c060405190810160405280600073ffffffffffffffffffffffffffffffffffffffff1681526020016000815260200160008152602001614fa961527c565b8152602001600073ffffffffffffffffffffffffffffffffffffffff168152602001600081525090565b81548183558181151161500057600602816006028360005260206000209182019101614fff91906151c2565b5b505050565b828054600181600116156101000203166002900490600052602060002090601f016020900481019282601f1061504657805160ff1916838001178555615074565b82800160010185558215615074579182015b82811115615073578251825591602001919060010190615058565b5b509050615081919061519d565b5090565b828054600181600116156101000203166002900490600052602060002090601f016020900481019282601f106150c657803560ff19168380011785556150f4565b828001600101855582156150f4579182015b828111156150f35782358255916020019190600101906150d8565b5b509050615101919061519d565b5090565b81548183558181151161512c5781836000526020600020918201910161512b9190615257565b5b505050565b602060405190810160405280600081525090565b81548183558181151161516c5781836000526020600020918201910161516b919061519d565b5b505050565b81548183558181151161519857818360005260206000209182019101615197919061519d565b5b505050565b6151bf91905b808211156151bb5760008160009055506001016151a3565b5090565b90565b61525491905b8082111561525057600080820160006101000a81549073ffffffffffffffffffffffffffffffffffffffff0219169055600182016000905560028201600090556003820160006152189190614ec4565b6004820160006101000a81549073ffffffffffffffffffffffffffffffffffffffff02191690556005820160009055506006016151c8565b5090565b90565b61527991905b8082111561527557600081600090555060010161525d565b5090565b90565b602060405190810160405280600081525090565b600073ffffffffffffffffffffffffffffffffffffffff168273ffffffffffffffffffffffffffffffffffffffff16141515156152cc57600080fd5b6000811115156152db57600080fd5b6000601a60008473ffffffffffffffffffffffffffffffffffffffff1673ffffffffffffffffffffffffffffffffffffffff1681526020019081526020016000205414151561532957600080fd5b601c805480600101828161533d91906153ef565b9160005260206000209001600084909190916101000a81548173ffffffffffffffffffffffffffffffffffffffff021916908373ffffffffffffffffffffffffffffffffffffffff1602179055505080601a60008473ffffffffffffffffffffffffffffffffffffffff1673ffffffffffffffffffffffffffffffffffffffff168152602001908152602001600020819055506153e58160185461481590919063ffffffff16565b6018819055505050565b81548183558181151161541657818360005260206000209182019101615415919061519d565b5b5050505600a165627a7a7230582067ea2a304390213d5f35ae7aa5d7d5ae87418cefc903853d5828263cf664122f00296060604052336000806101000a81548173ffffffffffffffffffffffffffffffffffffffff021916908373ffffffffffffffffffffffffffffffffffffffff1602179055506104de806100536000396000f30060606040526004361061006d576000357c0100000000000000000000000000000000000000000000000000000000900463ffffffff16806383197ef0146100725780638da5cb5b14610087578063aad3ec96146100dc578063f2fde38b1461011e578063f5074f4114610157575b600080fd5b341561007d57600080fd5b610085610190565b005b341561009257600080fd5b61009a610225565b604051808273ffffffffffffffffffffffffffffffffffffffff1673ffffffffffffffffffffffffffffffffffffffff16815260200191505060405180910390f35b34156100e757600080fd5b61011c600480803573ffffffffffffffffffffffffffffffffffffffff1690602001909190803590602001909190505061024a565b005b341561012957600080fd5b610155600480803573ffffffffffffffffffffffffffffffffffffffff169060200190919050506102e9565b005b341561016257600080fd5b61018e600480803573ffffffffffffffffffffffffffffffffffffffff1690602001909190505061043e565b005b6000809054906101000a900473ffffffffffffffffffffffffffffffffffffffff1673ffffffffffffffffffffffffffffffffffffffff163373ffffffffffffffffffffffffffffffffffffffff161415156101eb57600080fd5b6000809054906101000a900473ffffffffffffffffffffffffffffffffffffffff1673ffffffffffffffffffffffffffffffffffffffff16ff5b6000809054906101000a900473ffffffffffffffffffffffffffffffffffffffff1681565b6000809054906101000a900473ffffffffffffffffffffffffffffffffffffffff1673ffffffffffffffffffffffffffffffffffffffff163373ffffffffffffffffffffffffffffffffffffffff161415156102a557600080fd5b8173ffffffffffffffffffffffffffffffffffffffff166108fc829081150290604051600060405180830381858888f1935050505015156102e557600080fd5b5050565b6000809054906101000a900473ffffffffffffffffffffffffffffffffffffffff1673ffffffffffffffffffffffffffffffffffffffff163373ffffffffffffffffffffffffffffffffffffffff1614151561034457600080fd5b600073ffffffffffffffffffffffffffffffffffffffff168173ffffffffffffffffffffffffffffffffffffffff161415151561038057600080fd5b8073ffffffffffffffffffffffffffffffffffffffff166000809054906101000a900473ffffffffffffffffffffffffffffffffffffffff1673ffffffffffffffffffffffffffffffffffffffff167f8be0079c531659141344cd1fd0a4f28419497f9722a3daafe3b4186f6b6457e060405160405180910390a3806000806101000a81548173ffffffffffffffffffffffffffffffffffffffff021916908373ffffffffffffffffffffffffffffffffffffffff16021790555050565b6000809054906101000a900473ffffffffffffffffffffffffffffffffffffffff1673ffffffffffffffffffffffffffffffffffffffff163373ffffffffffffffffffffffffffffffffffffffff1614151561049957600080fd5b8073ffffffffffffffffffffffffffffffffffffffff16ff00a165627a7a72305820f7fb00c7ef8eb2c356a5867e8c32562caa8cf83c6b2cf9636b46ae0efa08aa580029",
  "source": "pragma solidity ^0.4.18;\n\nimport \"./Chaingeareable.sol\";\nimport \"./EntryBase.sol\";\nimport \"../common/SplitPaymentChangeable.sol\";\nimport \"zeppelin-solidity/contracts/token/ERC721/ERC721Token.sol\";\nimport \"zeppelin-solidity/contracts/math/SafeMath.sol\";\nimport \"zeppelin-solidity/contracts/AddressUtils.sol\";\nimport \"../common/RegistrySafe.sol\";\n\ncontract Registry is EntryBase, Chaingeareable, ERC721Token, SplitPaymentChangeable {\n\n    using SafeMath for uint256;\n    using AddressUtils for address;\n\n    function Registry(\n        address[] _benefitiaries,\n        uint256[] _shares,\n        PermissionTypeEntries _permissionType,\n        uint _entryCreationFee,\n        string _name,\n        string _symbol,\n        string _description,\n        string _linkABI\n    )\n        SplitPaymentChangeable(_benefitiaries, _shares)\n        ERC721Token(_name, _symbol)\n        public\n        payable\n    {\n        permissionTypeEntries_ = _permissionType;\n        linkABI_ = _linkABI;\n        entryCreationFee_ = _entryCreationFee;\n        registryName_ = _name;\n        registryDescription_ = _description;\n        registrySafe_ = new RegistrySafe();\n    }\n\n    function createEntry(address _expensiveAddress, uint _expensiveUint, int _expensiveInt, string _expensiveString)\n        external\n        payable\n        whenNotPaused\n        onlyPermissionedToEntries\n        returns (uint256)\n    {\n        require(msg.value == entryCreationFee_);\n\n        Entry memory entry = (Entry(\n        {\n            owner: msg.sender,\n            expensiveAddress: _expensiveAddress,\n            expensiveUint: _expensiveUint,\n            expensiveInt: _expensiveInt,\n            expensiveString: _expensiveString,\n            lastUpdateTime: now\n        }));\n\n        uint256 newEntryId = entries.push(entry) - 1;\n        super._mint(msg.sender, newEntryId);\n\n        EntryCreated(msg.sender, newEntryId);\n\n        return newEntryId;\n    }\n\n    function deleteEntry(uint256 _entryId)\n        whenNotPaused\n        external\n    {\n        require (ERC721BasicToken.ownerOf(_entryId) == msg.sender);\n\n        uint256 entryIndex = allTokensIndex[_entryId];\n        uint256 lastEntryIndex = entries.length.sub(1);\n        Entry storage lastEntry = entries[lastEntryIndex];\n\n        entries[entryIndex] = lastEntry;\n        delete entries[lastEntryIndex];\n        entries.length--;\n\n        super._burn(msg.sender, _entryId);\n\n        EntryDeleted(msg.sender, _entryId);\n    }\n\n\n    function transferEntryOwnership(uint _entryId, address _newOwner)\n        whenNotPaused\n        external\n    {\n        require (ERC721BasicToken.ownerOf(_entryId) == msg.sender);\n\n        super.removeTokenFrom(msg.sender, _entryId);\n        super.addTokenTo(_newOwner, _entryId);\n\n        EntryChangedOwner(_entryId, _newOwner);\n    }\n\n}\n",
  "sourcePath": "/Users/litvintech/Projects/chaingear/contracts/registry/Registry.sol",
  "compiler": {
    "name": "solc",
    "version": "0.4.19+commit.c4cbbb05.Emscripten.clang"
  },
  "schemaVersion": "1.0.1",
  "updatedAt": "2018-04-13T16:07:30.405Z"
}