{
  "contractName": "RegistryExample",
  "abi": [
    {
      "constant": true,
      "inputs": [],
      "name": "name",
      "outputs": [
        {
          "name": "",
          "type": "string"
        }
      ],
      "payable": false,
      "stateMutability": "view",
      "type": "function"
    },
    {
      "constant": true,
      "inputs": [],
      "name": "entryCreationFee",
      "outputs": [
        {
          "name": "",
          "type": "uint256"
        }
      ],
      "payable": false,
      "stateMutability": "view",
      "type": "function"
    },
    {
      "constant": true,
      "inputs": [],
      "name": "totalShares",
      "outputs": [
        {
          "name": "",
          "type": "uint256"
        }
      ],
      "payable": false,
      "stateMutability": "view",
      "type": "function"
    },
    {
      "constant": false,
      "inputs": [],
      "name": "unpause",
      "outputs": [],
      "payable": false,
      "stateMutability": "nonpayable",
      "type": "function"
    },
    {
      "constant": false,
      "inputs": [],
      "name": "claim",
      "outputs": [],
      "payable": false,
      "stateMutability": "nonpayable",
      "type": "function"
    },
    {
      "constant": false,
      "inputs": [
        {
          "name": "_tags",
          "type": "string"
        }
      ],
      "name": "updateTags",
      "outputs": [],
      "payable": false,
      "stateMutability": "nonpayable",
      "type": "function"
    },
    {
      "constant": true,
      "inputs": [],
      "name": "paused",
      "outputs": [
        {
          "name": "",
          "type": "bool"
        }
      ],
      "payable": false,
      "stateMutability": "view",
      "type": "function"
    },
    {
      "constant": true,
      "inputs": [
        {
          "name": "",
          "type": "uint256"
        }
      ],
      "name": "payees",
      "outputs": [
        {
          "name": "",
          "type": "address"
        }
      ],
      "payable": false,
      "stateMutability": "view",
      "type": "function"
    },
    {
      "constant": true,
      "inputs": [],
      "name": "description",
      "outputs": [
        {
          "name": "",
          "type": "string"
        }
      ],
      "payable": false,
      "stateMutability": "view",
      "type": "function"
    },
    {
      "constant": false,
      "inputs": [
        {
          "name": "_payeeIndex",
          "type": "uint256"
        },
        {
          "name": "_newAddress",
          "type": "address"
        }
      ],
      "name": "changePayeeAddress",
      "outputs": [],
      "payable": false,
      "stateMutability": "nonpayable",
      "type": "function"
    },
    {
      "constant": false,
      "inputs": [],
      "name": "destroy",
      "outputs": [],
      "payable": false,
      "stateMutability": "nonpayable",
      "type": "function"
    },
    {
      "constant": false,
      "inputs": [],
      "name": "pause",
      "outputs": [],
      "payable": false,
      "stateMutability": "nonpayable",
      "type": "function"
    },
    {
      "constant": false,
      "inputs": [
        {
          "name": "_name",
          "type": "string"
        }
      ],
      "name": "updateName",
      "outputs": [],
      "payable": false,
      "stateMutability": "nonpayable",
      "type": "function"
    },
    {
      "constant": false,
      "inputs": [
        {
          "name": "_linkMeta",
          "type": "string"
        }
      ],
      "name": "updateMetaLink",
      "outputs": [],
      "payable": false,
      "stateMutability": "nonpayable",
      "type": "function"
    },
    {
      "constant": true,
      "inputs": [],
      "name": "owner",
      "outputs": [
        {
          "name": "",
          "type": "address"
        }
      ],
      "payable": false,
      "stateMutability": "view",
      "type": "function"
    },
    {
      "constant": true,
      "inputs": [
        {
          "name": "",
          "type": "address"
        }
      ],
      "name": "released",
      "outputs": [
        {
          "name": "",
          "type": "uint256"
        }
      ],
      "payable": false,
      "stateMutability": "view",
      "type": "function"
    },
    {
      "constant": true,
      "inputs": [
        {
          "name": "",
          "type": "uint256"
        }
      ],
      "name": "entries",
      "outputs": [
        {
          "name": "expensiveAddress",
          "type": "address"
        },
        {
          "name": "expensiveUint",
          "type": "uint256"
        },
        {
          "name": "expensiveInt",
          "type": "int256"
        },
        {
          "name": "expensiveString",
          "type": "string"
        },
        {
          "name": "owner",
          "type": "address"
        },
        {
          "name": "lastUpdateTime",
          "type": "uint256"
        }
      ],
      "payable": false,
      "stateMutability": "view",
      "type": "function"
    },
    {
      "constant": false,
      "inputs": [
        {
          "name": "_name",
          "type": "string"
        },
        {
          "name": "_chaingearAddress",
          "type": "address"
        }
      ],
      "name": "registerInChaingear",
      "outputs": [],
      "payable": false,
      "stateMutability": "nonpayable",
      "type": "function"
    },
    {
      "constant": true,
      "inputs": [
        {
          "name": "",
          "type": "address"
        }
      ],
      "name": "shares",
      "outputs": [
        {
          "name": "",
          "type": "uint256"
        }
      ],
      "payable": false,
      "stateMutability": "view",
      "type": "function"
    },
    {
      "constant": false,
      "inputs": [
        {
          "name": "_fee",
          "type": "uint256"
        }
      ],
      "name": "updateEntryCreationFee",
      "outputs": [],
      "payable": false,
      "stateMutability": "nonpayable",
      "type": "function"
    },
    {
      "constant": true,
      "inputs": [],
      "name": "tags",
      "outputs": [
        {
          "name": "",
          "type": "string"
        }
      ],
      "payable": false,
      "stateMutability": "view",
      "type": "function"
    },
    {
      "constant": true,
      "inputs": [],
      "name": "totalReleased",
      "outputs": [
        {
          "name": "",
          "type": "uint256"
        }
      ],
      "payable": false,
      "stateMutability": "view",
      "type": "function"
    },
    {
      "constant": false,
      "inputs": [
        {
          "name": "_permissionType",
          "type": "uint8"
        }
      ],
      "name": "updatePermissionType",
      "outputs": [],
      "payable": false,
      "stateMutability": "nonpayable",
      "type": "function"
    },
    {
      "constant": false,
      "inputs": [
        {
          "name": "_description",
          "type": "string"
        }
      ],
      "name": "updateDescription",
      "outputs": [],
      "payable": false,
      "stateMutability": "nonpayable",
      "type": "function"
    },
    {
      "constant": true,
      "inputs": [],
      "name": "permissionType",
      "outputs": [
        {
          "name": "",
          "type": "uint8"
        }
      ],
      "payable": false,
      "stateMutability": "view",
      "type": "function"
    },
    {
      "constant": false,
      "inputs": [
        {
          "name": "newOwner",
          "type": "address"
        }
      ],
      "name": "transferOwnership",
      "outputs": [],
      "payable": false,
      "stateMutability": "nonpayable",
      "type": "function"
    },
    {
      "constant": false,
      "inputs": [
        {
          "name": "_recipient",
          "type": "address"
        }
      ],
      "name": "destroyAndSend",
      "outputs": [],
      "payable": false,
      "stateMutability": "nonpayable",
      "type": "function"
    },
    {
      "inputs": [
        {
          "name": "_benefitiaries",
          "type": "address[]"
        },
        {
          "name": "_shares",
          "type": "uint256[]"
        },
        {
          "name": "_permissionType",
          "type": "uint8"
        },
        {
          "name": "_entryCreationFee",
          "type": "uint256"
        },
        {
          "name": "_linkABI",
          "type": "string"
        },
        {
          "name": "_linkMeta",
          "type": "string"
        },
        {
          "name": "_name",
          "type": "string"
        },
        {
          "name": "_description",
          "type": "string"
        },
        {
          "name": "_tags",
          "type": "string"
        }
      ],
      "payable": false,
      "stateMutability": "nonpayable",
      "type": "constructor"
    },
    {
      "anonymous": false,
      "inputs": [
        {
          "indexed": false,
          "name": "owner",
          "type": "address"
        },
        {
          "indexed": false,
          "name": "entryId",
          "type": "uint256"
        }
      ],
      "name": "EntryCreated",
      "type": "event"
    },
    {
      "anonymous": false,
      "inputs": [
        {
          "indexed": false,
          "name": "entryId",
          "type": "uint256"
        }
      ],
      "name": "EntryDeleted",
      "type": "event"
    },
    {
      "anonymous": false,
      "inputs": [
        {
          "indexed": false,
          "name": "entryId",
          "type": "uint256"
        },
        {
          "indexed": false,
          "name": "owner",
          "type": "address"
        }
      ],
      "name": "EntryUpdated",
      "type": "event"
    },
    {
      "anonymous": false,
      "inputs": [
        {
          "indexed": false,
          "name": "entryId",
          "type": "uint256"
        },
        {
          "indexed": false,
          "name": "newOwner",
          "type": "address"
        }
      ],
      "name": "EntryChangedOwner",
      "type": "event"
    },
    {
      "anonymous": false,
      "inputs": [
        {
          "indexed": false,
          "name": "payeeIndex",
          "type": "uint256"
        },
        {
          "indexed": false,
          "name": "oldAddress",
          "type": "address"
        },
        {
          "indexed": false,
          "name": "newAddress",
          "type": "address"
        }
      ],
      "name": "PayeeAddressChanged",
      "type": "event"
    },
    {
      "anonymous": false,
      "inputs": [],
      "name": "Pause",
      "type": "event"
    },
    {
      "anonymous": false,
      "inputs": [],
      "name": "Unpause",
      "type": "event"
    },
    {
      "anonymous": false,
      "inputs": [
        {
          "indexed": false,
          "name": "linkMeta",
          "type": "string"
        }
      ],
      "name": "MetaLinkUpdated",
      "type": "event"
    },
    {
      "anonymous": false,
      "inputs": [
        {
          "indexed": true,
          "name": "previousOwner",
          "type": "address"
        },
        {
          "indexed": true,
          "name": "newOwner",
          "type": "address"
        }
      ],
      "name": "OwnershipTransferred",
      "type": "event"
    },
    {
      "constant": false,
      "inputs": [
        {
          "name": "_expensiveAddress",
          "type": "address"
        },
        {
          "name": "_expensiveUint",
          "type": "uint256"
        },
        {
          "name": "_expensiveInt",
          "type": "int256"
        },
        {
          "name": "_expensiveString",
          "type": "string"
        }
      ],
      "name": "createEntry",
      "outputs": [],
      "payable": true,
      "stateMutability": "payable",
      "type": "function"
    },
    {
      "constant": false,
      "inputs": [
        {
          "name": "_entryId",
          "type": "uint256"
        },
        {
          "name": "_expensiveAddress",
          "type": "address"
        }
      ],
      "name": "updateEntryExpensiveAddress",
      "outputs": [],
      "payable": false,
      "stateMutability": "nonpayable",
      "type": "function"
    },
    {
      "constant": false,
      "inputs": [
        {
          "name": "_entryId",
          "type": "uint256"
        }
      ],
      "name": "deleteEntry",
      "outputs": [],
      "payable": false,
      "stateMutability": "nonpayable",
      "type": "function"
    },
    {
      "constant": true,
      "inputs": [
        {
          "name": "_entryId",
          "type": "uint256"
        }
      ],
      "name": "isDeletedEntry",
      "outputs": [
        {
          "name": "",
          "type": "bool"
        }
      ],
      "payable": false,
      "stateMutability": "view",
      "type": "function"
    },
    {
      "constant": true,
      "inputs": [],
      "name": "entriesCount",
      "outputs": [
        {
          "name": "",
          "type": "uint256"
        }
      ],
      "payable": false,
      "stateMutability": "view",
      "type": "function"
    },
    {
      "constant": false,
      "inputs": [
        {
          "name": "_entryId",
          "type": "uint256"
        },
        {
          "name": "_newOnwer",
          "type": "address"
        }
      ],
      "name": "transferEntryOwnership",
      "outputs": [],
      "payable": false,
      "stateMutability": "nonpayable",
      "type": "function"
    }
  ],
  "bytecode": "0x60606040526000805560006001556000600860006101000a81548160ff02191690831515021790555034156200003457600080fd5b60405162002d0038038062002d0083398101604052808051820191906020018051820191906020018051906020019091908051906020019091908051820191906020018051820191906020018051820191906020018051820191906020018051820191905050888888888888888888888886868383600081518351141515620000bc57600080fd5b600090505b825181101562000129576200011b8382815181101515620000de57fe5b906020019060200201518383815181101515620000f757fe5b906020019060200201516200028e640100000000026200263a176401000000009004565b8080600101915050620000c1565b50505033600560006101000a81548173ffffffffffffffffffffffffffffffffffffffff021916908373ffffffffffffffffffffffffffffffffffffffff160217905550600560009054906101000a900473ffffffffffffffffffffffffffffffffffffffff1673ffffffffffffffffffffffffffffffffffffffff163373ffffffffffffffffffffffffffffffffffffffff16141515620001ca57600080fd5b8160069080519060200190620001e292919062000421565b508060079080519060200190620001fb92919062000421565b505050505086600c60006101000a81548160ff021916908360028111156200021f57fe5b021790555085600d8190555082600990805190602001906200024392919062000421565b5081600a90805190602001906200025c92919062000421565b5080600b90805190602001906200027592919062000421565b50505050505050505050505050505050505050620004ff565b600073ffffffffffffffffffffffffffffffffffffffff168273ffffffffffffffffffffffffffffffffffffffff1614151515620002cb57600080fd5b600081111515620002db57600080fd5b6000600260008473ffffffffffffffffffffffffffffffffffffffff1673ffffffffffffffffffffffffffffffffffffffff168152602001908152602001600020541415156200032a57600080fd5b60048054806001018281620003409190620004a8565b9160005260206000209001600084909190916101000a81548173ffffffffffffffffffffffffffffffffffffffff021916908373ffffffffffffffffffffffffffffffffffffffff1602179055505080600260008473ffffffffffffffffffffffffffffffffffffffff1673ffffffffffffffffffffffffffffffffffffffff16815260200190815260200160002081905550620003f881600054620004026401000000000262002379179091906401000000009004565b6000819055505050565b60008082840190508381101515156200041757fe5b8091505092915050565b828054600181600116156101000203166002900490600052602060002090601f016020900481019282601f106200046457805160ff191683800117855562000495565b8280016001018555821562000495579182015b828111156200049457825182559160200191906001019062000477565b5b509050620004a49190620004d7565b5090565b815481835581811511620004d257818360005260206000209182019101620004d19190620004d7565b5b505050565b620004fc91905b80821115620004f8576000816000905550600101620004de565b5090565b90565b6127f1806200050f6000396000f3006060604052600436106101a1576000357c0100000000000000000000000000000000000000000000000000000000900463ffffffff16806306fdde03146101a657806311f7516c146102345780633a1a3d95146102575780633a98ef39146102805780633f4ba83a146102a95780634d45d39e146102be5780634e71d92d146103125780635b2c904f146103275780635c975abb1461035557806363037b0c14610382578063683ae65b146103e55780637284e416146104275780637b493768146104b557806383197ef0146104f75780638456cb591461050c57806384da92a7146105215780638aed4b631461054f5780638da5cb5b1461057d5780639852595c146105d2578063ab4ccf011461061f578063b30906d414610648578063bacf420d1461077c578063c209586b146107be578063c82a55791461080b578063ce7c2ac214610846578063d24f707614610893578063de6b7e09146108b6578063e33b7de314610944578063e4df8b341461096d578063e735b48a14610993578063e7b78392146109c1578063f2fde38b146109f8578063f5074f4114610a31575b600080fd5b34156101b157600080fd5b6101b9610a6a565b6040518080602001828103825283818151815260200191508051906020019080838360005b838110156101f95780820151818401526020810190506101de565b50505050905090810190601f1680156102265780820380516001836020036101000a031916815260200191505b509250505060405180910390f35b341561023f57600080fd5b6102556004808035906020019091905050610b08565b005b341561026257600080fd5b61026a610c52565b6040518082815260200191505060405180910390f35b341561028b57600080fd5b610293610c58565b6040518082815260200191505060405180910390f35b34156102b457600080fd5b6102bc610c5e565b005b610310600480803573ffffffffffffffffffffffffffffffffffffffff169060200190919080359060200190919080359060200190919080359060200190820180359060200191909192905050610d1e565b005b341561031d57600080fd5b61032561100d565b005b341561033257600080fd5b61035360048080359060200190820180359060200191909192905050611275565b005b341561036057600080fd5b610368611300565b604051808215151515815260200191505060405180910390f35b341561038d57600080fd5b6103a36004808035906020019091905050611313565b604051808273ffffffffffffffffffffffffffffffffffffffff1673ffffffffffffffffffffffffffffffffffffffff16815260200191505060405180910390f35b34156103f057600080fd5b610425600480803590602001909190803573ffffffffffffffffffffffffffffffffffffffff16906020019091905050611352565b005b341561043257600080fd5b61043a6114da565b6040518080602001828103825283818151815260200191508051906020019080838360005b8381101561047a57808201518184015260208101905061045f565b50505050905090810190601f1680156104a75780820380516001836020036101000a031916815260200191505b509250505060405180910390f35b34156104c057600080fd5b6104f5600480803590602001909190803573ffffffffffffffffffffffffffffffffffffffff16906020019091905050611578565b005b341561050257600080fd5b61050a61189c565b005b341561051757600080fd5b61051f611933565b005b341561052c57600080fd5b61054d600480803590602001908201803590602001919091929050506119f4565b005b341561055a57600080fd5b61057b60048080359060200190820180359060200191909192905050611a8b565b005b341561058857600080fd5b610590611b4e565b604051808273ffffffffffffffffffffffffffffffffffffffff1673ffffffffffffffffffffffffffffffffffffffff16815260200191505060405180910390f35b34156105dd57600080fd5b610609600480803573ffffffffffffffffffffffffffffffffffffffff16906020019091905050611b74565b6040518082815260200191505060405180910390f35b341561062a57600080fd5b610632611b8c565b6040518082815260200191505060405180910390f35b341561065357600080fd5b6106696004808035906020019091905050611b99565b604051808773ffffffffffffffffffffffffffffffffffffffff1673ffffffffffffffffffffffffffffffffffffffff168152602001868152602001858152602001806020018473ffffffffffffffffffffffffffffffffffffffff1673ffffffffffffffffffffffffffffffffffffffff1681526020018381526020018281038252858181546001816001161561010002031660029004815260200191508054600181600116156101000203166002900480156107685780601f1061073d57610100808354040283529160200191610768565b820191906000526020600020905b81548152906001019060200180831161074b57829003601f168201915b505097505050505050505060405180910390f35b341561078757600080fd5b6107bc600480803590602001909190803573ffffffffffffffffffffffffffffffffffffffff16906020019091905050611c23565b005b34156107c957600080fd5b6108096004808035906020019082018035906020019190919290803573ffffffffffffffffffffffffffffffffffffffff16906020019091905050611dd0565b005b341561081657600080fd5b61082c6004808035906020019091905050611f07565b604051808215151515815260200191505060405180910390f35b341561085157600080fd5b61087d600480803573ffffffffffffffffffffffffffffffffffffffff16906020019091905050611f69565b6040518082815260200191505060405180910390f35b341561089e57600080fd5b6108b46004808035906020019091905050611f81565b005b34156108c157600080fd5b6108c9611fe7565b6040518080602001828103825283818151815260200191508051906020019080838360005b838110156109095780820151818401526020810190506108ee565b50505050905090810190601f1680156109365780820380516001836020036101000a031916815260200191505b509250505060405180910390f35b341561094f57600080fd5b610957612085565b6040518082815260200191505060405180910390f35b341561097857600080fd5b610991600480803560ff1690602001909190505061208b565b005b341561099e57600080fd5b6109bf6004808035906020019082018035906020019190919290505061210d565b005b34156109cc57600080fd5b6109d4612199565b604051808260028111156109e457fe5b60ff16815260200191505060405180910390f35b3415610a0357600080fd5b610a2f600480803573ffffffffffffffffffffffffffffffffffffffff169060200190919050506121ac565b005b3415610a3c57600080fd5b610a68600480803573ffffffffffffffffffffffffffffffffffffffff16906020019091905050612304565b005b60098054600181600116156101000203166002900480601f016020809104026020016040519081016040528092919081815260200182805460018160011615610100020316600290048015610b005780601f10610ad557610100808354040283529160200191610b00565b820191906000526020600020905b815481529060010190602001808311610ae357829003601f168201915b505050505081565b3373ffffffffffffffffffffffffffffffffffffffff16600e82815481101515610b2e57fe5b906000526020600020906006020160040160009054906101000a900473ffffffffffffffffffffffffffffffffffffffff1673ffffffffffffffffffffffffffffffffffffffff16141515610b8257600080fd5b600e81815481101515610b9157fe5b9060005260206000209060060201600080820160006101000a81549073ffffffffffffffffffffffffffffffffffffffff021916905560018201600090556002820160009055600382016000610be79190612406565b6004820160006101000a81549073ffffffffffffffffffffffffffffffffffffffff0219169055600582016000905550507f9ad2ca3ec51dc768a93a3a6f7b5778dd0e5f4d4ba47a19df55a0a9a325bcdecb816040518082815260200191505060405180910390a150565b600d5481565b60005481565b600560009054906101000a900473ffffffffffffffffffffffffffffffffffffffff1673ffffffffffffffffffffffffffffffffffffffff163373ffffffffffffffffffffffffffffffffffffffff16141515610cba57600080fd5b600860009054906101000a900460ff161515610cd557600080fd5b6000600860006101000a81548160ff0219169083151502179055507f7805862f689e2f13df9f062ff482ad3ad112aca9e0847911ed832e158c525b3360405160405180910390a1565b600560009054906101000a900473ffffffffffffffffffffffffffffffffffffffff1673ffffffffffffffffffffffffffffffffffffffff163373ffffffffffffffffffffffffffffffffffffffff161480610d7b5750600d5434145b1515610d8657600080fd5b600560009054906101000a900473ffffffffffffffffffffffffffffffffffffffff1673ffffffffffffffffffffffffffffffffffffffff163373ffffffffffffffffffffffffffffffffffffffff161480610e07575060016002811115610dea57fe5b600c60009054906101000a900460ff166002811115610e0557fe5b145b1515610e1257600080fd5b600e8054806001018281610e26919061244e565b9160005260206000209060060201600060c0604051908101604052808973ffffffffffffffffffffffffffffffffffffffff16815260200188815260200187815260200186868080601f01602080910402602001604051908101604052809392919081815260200183838082843782019150505050505081526020013373ffffffffffffffffffffffffffffffffffffffff16815260200142815250909190915060008201518160000160006101000a81548173ffffffffffffffffffffffffffffffffffffffff021916908373ffffffffffffffffffffffffffffffffffffffff16021790555060208201518160010155604082015181600201556060820151816003019080519060200190610f3e929190612480565b5060808201518160040160006101000a81548173ffffffffffffffffffffffffffffffffffffffff021916908373ffffffffffffffffffffffffffffffffffffffff16021790555060a082015181600501555050507fe9a0a2aca9c41fae94448dec8914ad73e4d00ebdc2427e61f3fc66919f4ffa2a336001600e8054905003604051808373ffffffffffffffffffffffffffffffffffffffff1673ffffffffffffffffffffffffffffffffffffffff1681526020018281526020019250505060405180910390a15050505050565b60008060003392506000600260008573ffffffffffffffffffffffffffffffffffffffff1673ffffffffffffffffffffffffffffffffffffffff1681526020019081526020016000205411151561106357600080fd5b61108f6001543073ffffffffffffffffffffffffffffffffffffffff163161237990919063ffffffff16565b9150611148600360008573ffffffffffffffffffffffffffffffffffffffff1673ffffffffffffffffffffffffffffffffffffffff1681526020019081526020016000205461113a60005461112c600260008973ffffffffffffffffffffffffffffffffffffffff1673ffffffffffffffffffffffffffffffffffffffff168152602001908152602001600020548761239790919063ffffffff16565b6123d290919063ffffffff16565b6123ed90919063ffffffff16565b90506000811415151561115a57600080fd5b803073ffffffffffffffffffffffffffffffffffffffff16311015151561118057600080fd5b6111d281600360008673ffffffffffffffffffffffffffffffffffffffff1673ffffffffffffffffffffffffffffffffffffffff1681526020019081526020016000205461237990919063ffffffff16565b600360008573ffffffffffffffffffffffffffffffffffffffff1673ffffffffffffffffffffffffffffffffffffffff1681526020019081526020016000208190555061122a8160015461237990919063ffffffff16565b6001819055508273ffffffffffffffffffffffffffffffffffffffff166108fc829081150290604051600060405180830381858888f19350505050151561127057600080fd5b505050565b6000600560009054906101000a900473ffffffffffffffffffffffffffffffffffffffff1673ffffffffffffffffffffffffffffffffffffffff163373ffffffffffffffffffffffffffffffffffffffff161415156112d357600080fd5b828290509050604081111515156112e957600080fd5b8282600b91906112fa929190612500565b50505050565b600860009054906101000a900460ff1681565b60048181548110151561132257fe5b90600052602060002090016000915054906101000a900473ffffffffffffffffffffffffffffffffffffffff1681565b3373ffffffffffffffffffffffffffffffffffffffff16600e8381548110151561137857fe5b906000526020600020906006020160040160009054906101000a900473ffffffffffffffffffffffffffffffffffffffff1673ffffffffffffffffffffffffffffffffffffffff161415156113cc57600080fd5b80600e838154811015156113dc57fe5b906000526020600020906006020160040160006101000a81548173ffffffffffffffffffffffffffffffffffffffff021916908373ffffffffffffffffffffffffffffffffffffffff1602179055507fe93f305b235917d8ff8103ff4bb045df5935484b45bfd248c7fec5f04fecf92d82600e8481548110151561145c57fe5b906000526020600020906006020160040160009054906101000a900473ffffffffffffffffffffffffffffffffffffffff16604051808381526020018273ffffffffffffffffffffffffffffffffffffffff1673ffffffffffffffffffffffffffffffffffffffff1681526020019250505060405180910390a15050565b600a8054600181600116156101000203166002900480601f0160208091040260200160405190810160405280929190818152602001828054600181600116156101000203166002900480156115705780601f1061154557610100808354040283529160200191611570565b820191906000526020600020905b81548152906001019060200180831161155357829003601f168201915b505050505081565b6000600560009054906101000a900473ffffffffffffffffffffffffffffffffffffffff1673ffffffffffffffffffffffffffffffffffffffff163373ffffffffffffffffffffffffffffffffffffffff161415156115d657600080fd5b6004838154811015156115e557fe5b906000526020600020900160009054906101000a900473ffffffffffffffffffffffffffffffffffffffff169050600260008273ffffffffffffffffffffffffffffffffffffffff1673ffffffffffffffffffffffffffffffffffffffff16815260200190815260200160002054600260008473ffffffffffffffffffffffffffffffffffffffff1673ffffffffffffffffffffffffffffffffffffffff16815260200190815260200160002081905550600360008273ffffffffffffffffffffffffffffffffffffffff1673ffffffffffffffffffffffffffffffffffffffff16815260200190815260200160002054600360008473ffffffffffffffffffffffffffffffffffffffff1673ffffffffffffffffffffffffffffffffffffffff168152602001908152602001600020819055508160048481548110151561172957fe5b906000526020600020900160006101000a81548173ffffffffffffffffffffffffffffffffffffffff021916908373ffffffffffffffffffffffffffffffffffffffff160217905550600260008273ffffffffffffffffffffffffffffffffffffffff1673ffffffffffffffffffffffffffffffffffffffff16815260200190815260200160002060009055600360008273ffffffffffffffffffffffffffffffffffffffff1673ffffffffffffffffffffffffffffffffffffffff168152602001908152602001600020600090557fa1982f3fe3fa9dba8ce5bc91687e2ab0850b0431cddacc1a249b2ae0390b912f838284604051808481526020018373ffffffffffffffffffffffffffffffffffffffff1673ffffffffffffffffffffffffffffffffffffffff1681526020018273ffffffffffffffffffffffffffffffffffffffff1673ffffffffffffffffffffffffffffffffffffffff168152602001935050505060405180910390a1505050565b600560009054906101000a900473ffffffffffffffffffffffffffffffffffffffff1673ffffffffffffffffffffffffffffffffffffffff163373ffffffffffffffffffffffffffffffffffffffff161415156118f857600080fd5b600560009054906101000a900473ffffffffffffffffffffffffffffffffffffffff1673ffffffffffffffffffffffffffffffffffffffff16ff5b600560009054906101000a900473ffffffffffffffffffffffffffffffffffffffff1673ffffffffffffffffffffffffffffffffffffffff163373ffffffffffffffffffffffffffffffffffffffff1614151561198f57600080fd5b600860009054906101000a900460ff161515156119ab57600080fd5b6001600860006101000a81548160ff0219169083151502179055507f6985a02210a168e66602d3235cb6db0e70f92b3ba4d376a33c0f3d9434bff62560405160405180910390a1565b6000600560009054906101000a900473ffffffffffffffffffffffffffffffffffffffff1673ffffffffffffffffffffffffffffffffffffffff163373ffffffffffffffffffffffffffffffffffffffff16141515611a5257600080fd5b828290509050600081118015611a69575060208111155b1515611a7457600080fd5b828260099190611a85929190612500565b50505050565b600560009054906101000a900473ffffffffffffffffffffffffffffffffffffffff1673ffffffffffffffffffffffffffffffffffffffff163373ffffffffffffffffffffffffffffffffffffffff16141515611ae757600080fd5b818160079190611af8929190612500565b507f6362a59ae98fef1a0a45d03a1127a82c2268ca380148117a052b9f8bce8e6f1e8282604051808060200182810382528484828181526020019250808284378201915050935050505060405180910390a15050565b600560009054906101000a900473ffffffffffffffffffffffffffffffffffffffff1681565b60036020528060005260406000206000915090505481565b6000600e80549050905090565b600e81815481101515611ba857fe5b90600052602060002090600602016000915090508060000160009054906101000a900473ffffffffffffffffffffffffffffffffffffffff169080600101549080600201549080600301908060040160009054906101000a900473ffffffffffffffffffffffffffffffffffffffff16908060050154905086565b3373ffffffffffffffffffffffffffffffffffffffff16600e83815481101515611c4957fe5b906000526020600020906006020160040160009054906101000a900473ffffffffffffffffffffffffffffffffffffffff1673ffffffffffffffffffffffffffffffffffffffff16141515611c9d57600080fd5b42600e83815481101515611cad57fe5b90600052602060002090600602016005018190555080600e83815481101515611cd257fe5b906000526020600020906006020160000160006101000a81548173ffffffffffffffffffffffffffffffffffffffff021916908373ffffffffffffffffffffffffffffffffffffffff1602179055507f2800de8eb77066c56083f1ae9b072e1af9c894a73b2980f72aa5af9ea403b5f682600e84815481101515611d5257fe5b906000526020600020906006020160040160009054906101000a900473ffffffffffffffffffffffffffffffffffffffff16604051808381526020018273ffffffffffffffffffffffffffffffffffffffff1673ffffffffffffffffffffffffffffffffffffffff1681526020019250505060405180910390a15050565b6000600560009054906101000a900473ffffffffffffffffffffffffffffffffffffffff1673ffffffffffffffffffffffffffffffffffffffff163373ffffffffffffffffffffffffffffffffffffffff16141515611e2e57600080fd5b8190508073ffffffffffffffffffffffffffffffffffffffff16631e59c5298585306040518463ffffffff167c010000000000000000000000000000000000000000000000000000000002815260040180806020018373ffffffffffffffffffffffffffffffffffffffff1673ffffffffffffffffffffffffffffffffffffffff16815260200182810382528585828181526020019250808284378201915050945050505050600060405180830381600087803b1515611eed57600080fd5b6102c65a03f11515611efe57600080fd5b50505050505050565b600080600e83815481101515611f1957fe5b906000526020600020906006020160040160009054906101000a900473ffffffffffffffffffffffffffffffffffffffff1673ffffffffffffffffffffffffffffffffffffffff16149050919050565b60026020528060005260406000206000915090505481565b600560009054906101000a900473ffffffffffffffffffffffffffffffffffffffff1673ffffffffffffffffffffffffffffffffffffffff163373ffffffffffffffffffffffffffffffffffffffff16141515611fdd57600080fd5b80600d8190555050565b600b8054600181600116156101000203166002900480601f01602080910402602001604051908101604052809291908181526020018280546001816001161561010002031660029004801561207d5780601f106120525761010080835404028352916020019161207d565b820191906000526020600020905b81548152906001019060200180831161206057829003601f168201915b505050505081565b60015481565b600560009054906101000a900473ffffffffffffffffffffffffffffffffffffffff1673ffffffffffffffffffffffffffffffffffffffff163373ffffffffffffffffffffffffffffffffffffffff161415156120e757600080fd5b80600c60006101000a81548160ff0219169083600281111561210557fe5b021790555050565b6000600560009054906101000a900473ffffffffffffffffffffffffffffffffffffffff1673ffffffffffffffffffffffffffffffffffffffff163373ffffffffffffffffffffffffffffffffffffffff1614151561216b57600080fd5b828290509050610100811115151561218257600080fd5b8282600a9190612193929190612500565b50505050565b600c60009054906101000a900460ff1681565b600560009054906101000a900473ffffffffffffffffffffffffffffffffffffffff1673ffffffffffffffffffffffffffffffffffffffff163373ffffffffffffffffffffffffffffffffffffffff1614151561220857600080fd5b600073ffffffffffffffffffffffffffffffffffffffff168173ffffffffffffffffffffffffffffffffffffffff161415151561224457600080fd5b8073ffffffffffffffffffffffffffffffffffffffff16600560009054906101000a900473ffffffffffffffffffffffffffffffffffffffff1673ffffffffffffffffffffffffffffffffffffffff167f8be0079c531659141344cd1fd0a4f28419497f9722a3daafe3b4186f6b6457e060405160405180910390a380600560006101000a81548173ffffffffffffffffffffffffffffffffffffffff021916908373ffffffffffffffffffffffffffffffffffffffff16021790555050565b600560009054906101000a900473ffffffffffffffffffffffffffffffffffffffff1673ffffffffffffffffffffffffffffffffffffffff163373ffffffffffffffffffffffffffffffffffffffff1614151561236057600080fd5b8073ffffffffffffffffffffffffffffffffffffffff16ff5b600080828401905083811015151561238d57fe5b8091505092915050565b60008060008414156123ac57600091506123cb565b82840290508284828115156123bd57fe5b041415156123c757fe5b8091505b5092915050565b60008082848115156123e057fe5b0490508091505092915050565b60008282111515156123fb57fe5b818303905092915050565b50805460018160011615610100020316600290046000825580601f1061242c575061244b565b601f01602090049060005260206000209081019061244a9190612580565b5b50565b81548183558181151161247b5760060281600602836000526020600020918201910161247a91906125a5565b5b505050565b828054600181600116156101000203166002900490600052602060002090601f016020900481019282601f106124c157805160ff19168380011785556124ef565b828001600101855582156124ef579182015b828111156124ee5782518255916020019190600101906124d3565b5b5090506124fc9190612580565b5090565b828054600181600116156101000203166002900490600052602060002090601f016020900481019282601f1061254157803560ff191683800117855561256f565b8280016001018555821561256f579182015b8281111561256e578235825591602001919060010190612553565b5b50905061257c9190612580565b5090565b6125a291905b8082111561259e576000816000905550600101612586565b5090565b90565b61263791905b8082111561263357600080820160006101000a81549073ffffffffffffffffffffffffffffffffffffffff0219169055600182016000905560028201600090556003820160006125fb9190612406565b6004820160006101000a81549073ffffffffffffffffffffffffffffffffffffffff02191690556005820160009055506006016125ab565b5090565b90565b600073ffffffffffffffffffffffffffffffffffffffff168273ffffffffffffffffffffffffffffffffffffffff161415151561267657600080fd5b60008111151561268557600080fd5b6000600260008473ffffffffffffffffffffffffffffffffffffffff1673ffffffffffffffffffffffffffffffffffffffff168152602001908152602001600020541415156126d357600080fd5b600480548060010182816126e79190612799565b9160005260206000209001600084909190916101000a81548173ffffffffffffffffffffffffffffffffffffffff021916908373ffffffffffffffffffffffffffffffffffffffff1602179055505080600260008473ffffffffffffffffffffffffffffffffffffffff1673ffffffffffffffffffffffffffffffffffffffff1681526020019081526020016000208190555061278f8160005461237990919063ffffffff16565b6000819055505050565b8154818355818115116127c0578183600052602060002091820191016127bf9190612580565b5b5050505600a165627a7a7230582067e339dfaf95113fb37510ef21001503f14ecd1639afe1371900dac78bfed3840029",
  "source": "pragma solidity ^0.4.17;\n\nimport \"./common/chaingeareable.sol\";\n\n\ncontract RegistryExample is Chaingeareable {\n\n    //codegeneration\n    struct EntryExample {\n        address expensiveAddress;\n        uint expensiveUint;\n        int expensiveInt;\n        string expensiveString;\n\n        //inbox fields\n        address owner;\n        uint lastUpdateTime;\n    }\n\n    EntryExample[] public entries;\n\n    event EntryCreated(address owner, uint entryId);\n    event EntryDeleted(uint entryId);\n    event EntryUpdated(uint entryId, address owner);\n    event EntryChangedOwner(uint entryId, address newOwner);\n\n    function RegistryExample(\n        address[] _benefitiaries,\n        uint256[] _shares,\n        PermissionType _permissionType,\n        uint _entryCreationFee,\n        string _linkABI,\n        string _linkMeta,\n        string _name,\n        string _description,\n        string _tags\n    ) Chaingeareable(_benefitiaries, _shares, _permissionType, _entryCreationFee, _linkABI, _linkMeta, _name, _description, _tags) public\n    {\n\n    }\n\n    //codegeneration\n    function createEntry(address _expensiveAddress, uint _expensiveUint, int _expensiveInt, string _expensiveString) external payable {\n        //permission logic TODO\n        require(msg.sender == owner || msg.value == entryCreationFee);\n        require(msg.sender == owner || permissionType == PermissionType.AllUsers);\n\n        entries.push(EntryExample(\n        {\n            owner: msg.sender,\n            expensiveAddress: _expensiveAddress,\n            expensiveUint: _expensiveUint,\n            expensiveInt: _expensiveInt,\n            expensiveString: _expensiveString,\n            lastUpdateTime: now\n        }));\n\n        EntryCreated(msg.sender, entries.length - 1);\n    }\n\n    //codegeneration\n    //external vs public..\n    function updateEntryExpensiveAddress(uint _entryId, address _expensiveAddress) external {\n        require(entries[_entryId].owner == msg.sender);\n        /* require(_expensiveAddress <= 256); */\n\n        entries[_entryId].lastUpdateTime = now;\n        entries[_entryId].expensiveAddress = _expensiveAddress;\n\n        // specified for updates events TODO\n        EntryUpdated(_entryId, entries[_entryId].owner);\n    }\n\n    function deleteEntry(uint _entryId) external {\n        //permission logic TODO\n        require(entries[_entryId].owner == msg.sender);\n\n        delete entries[_entryId];\n\n        EntryDeleted(_entryId);\n    }\n\n    function isDeletedEntry(uint _entryId) external constant returns (bool) {\n        return entries[_entryId].owner == 0x0;\n    }\n\n    function entriesCount() external constant returns (uint) {\n        return entries.length;\n    }\n\n    function transferEntryOwnership(uint _entryId, address _newOnwer) external {\n        require(entries[_entryId].owner == msg.sender);\n\n        entries[_entryId].owner = _newOnwer;\n        EntryChangedOwner(_entryId, entries[_entryId].owner);\n    }\n}\n",
  "sourcePath": "/Users/andrey/projects/cyberFund/chaingear/contracts/RegistryExample.sol",
  "compiler": {
    "name": "solc",
    "version": "0.4.19+commit.c4cbbb05.Emscripten.clang"
  },
  "schemaVersion": "2.0.0",
  "updatedAt": "2018-03-29T10:06:27.676Z"
}