{
  "contractName": "RegistryExample",
  "abi": [
    {
      "constant": true,
      "inputs": [],
      "name": "name",
      "outputs": [
        {
          "name": "",
          "type": "string"
        }
      ],
      "payable": false,
      "stateMutability": "view",
      "type": "function"
    },
    {
      "constant": true,
      "inputs": [],
      "name": "entryCreationFee",
      "outputs": [
        {
          "name": "",
          "type": "uint256"
        }
      ],
      "payable": false,
      "stateMutability": "view",
      "type": "function"
    },
    {
      "constant": true,
      "inputs": [],
      "name": "totalShares",
      "outputs": [
        {
          "name": "",
          "type": "uint256"
        }
      ],
      "payable": false,
      "stateMutability": "view",
      "type": "function"
    },
    {
      "constant": false,
      "inputs": [],
      "name": "unpause",
      "outputs": [],
      "payable": false,
      "stateMutability": "nonpayable",
      "type": "function"
    },
    {
      "constant": false,
      "inputs": [],
      "name": "claim",
      "outputs": [],
      "payable": false,
      "stateMutability": "nonpayable",
      "type": "function"
    },
    {
      "constant": false,
      "inputs": [
        {
          "name": "_tags",
          "type": "string"
        }
      ],
      "name": "updateTags",
      "outputs": [],
      "payable": false,
      "stateMutability": "nonpayable",
      "type": "function"
    },
    {
      "constant": true,
      "inputs": [],
      "name": "paused",
      "outputs": [
        {
          "name": "",
          "type": "bool"
        }
      ],
      "payable": false,
      "stateMutability": "view",
      "type": "function"
    },
    {
      "constant": true,
      "inputs": [
        {
          "name": "",
          "type": "uint256"
        }
      ],
      "name": "payees",
      "outputs": [
        {
          "name": "",
          "type": "address"
        }
      ],
      "payable": false,
      "stateMutability": "view",
      "type": "function"
    },
    {
      "constant": true,
      "inputs": [],
      "name": "description",
      "outputs": [
        {
          "name": "",
          "type": "string"
        }
      ],
      "payable": false,
      "stateMutability": "view",
      "type": "function"
    },
    {
      "constant": false,
      "inputs": [
        {
          "name": "_payeeIndex",
          "type": "uint256"
        },
        {
          "name": "_newAddress",
          "type": "address"
        }
      ],
      "name": "changePayeeAddress",
      "outputs": [],
      "payable": false,
      "stateMutability": "nonpayable",
      "type": "function"
    },
    {
      "constant": false,
      "inputs": [],
      "name": "destroy",
      "outputs": [],
      "payable": false,
      "stateMutability": "nonpayable",
      "type": "function"
    },
    {
      "constant": false,
      "inputs": [],
      "name": "pause",
      "outputs": [],
      "payable": false,
      "stateMutability": "nonpayable",
      "type": "function"
    },
    {
      "constant": false,
      "inputs": [
        {
          "name": "_name",
          "type": "string"
        }
      ],
      "name": "updateName",
      "outputs": [],
      "payable": false,
      "stateMutability": "nonpayable",
      "type": "function"
    },
    {
      "constant": true,
      "inputs": [],
      "name": "owner",
      "outputs": [
        {
          "name": "",
          "type": "address"
        }
      ],
      "payable": false,
      "stateMutability": "view",
      "type": "function"
    },
    {
      "constant": true,
      "inputs": [
        {
          "name": "",
          "type": "address"
        }
      ],
      "name": "released",
      "outputs": [
        {
          "name": "",
          "type": "uint256"
        }
      ],
      "payable": false,
      "stateMutability": "view",
      "type": "function"
    },
    {
      "constant": true,
      "inputs": [
        {
          "name": "",
          "type": "uint256"
        }
      ],
      "name": "entries",
      "outputs": [
        {
          "name": "expensiveAddress",
          "type": "address"
        },
        {
          "name": "expensiveUint",
          "type": "uint256"
        },
        {
          "name": "expensiveInt",
          "type": "int256"
        },
        {
          "name": "expensiveString",
          "type": "string"
        },
        {
          "name": "owner",
          "type": "address"
        },
        {
          "name": "lastUpdateTime",
          "type": "uint256"
        }
      ],
      "payable": false,
      "stateMutability": "view",
      "type": "function"
    },
    {
      "constant": false,
      "inputs": [
        {
          "name": "_name",
          "type": "string"
        },
        {
          "name": "_chaingearAddress",
          "type": "address"
        }
      ],
      "name": "registerInChaingear",
      "outputs": [],
      "payable": false,
      "stateMutability": "nonpayable",
      "type": "function"
    },
    {
      "constant": true,
      "inputs": [
        {
          "name": "",
          "type": "address"
        }
      ],
      "name": "shares",
      "outputs": [
        {
          "name": "",
          "type": "uint256"
        }
      ],
      "payable": false,
      "stateMutability": "view",
      "type": "function"
    },
    {
      "constant": false,
      "inputs": [
        {
          "name": "_fee",
          "type": "uint256"
        }
      ],
      "name": "updateEntryCreationFee",
      "outputs": [],
      "payable": false,
      "stateMutability": "nonpayable",
      "type": "function"
    },
    {
      "constant": true,
      "inputs": [],
      "name": "tags",
      "outputs": [
        {
          "name": "",
          "type": "string"
        }
      ],
      "payable": false,
      "stateMutability": "view",
      "type": "function"
    },
    {
      "constant": true,
      "inputs": [],
      "name": "totalReleased",
      "outputs": [
        {
          "name": "",
          "type": "uint256"
        }
      ],
      "payable": false,
      "stateMutability": "view",
      "type": "function"
    },
    {
      "constant": false,
      "inputs": [
        {
          "name": "_permissionType",
          "type": "uint8"
        }
      ],
      "name": "updatePermissionType",
      "outputs": [],
      "payable": false,
      "stateMutability": "nonpayable",
      "type": "function"
    },
    {
      "constant": false,
      "inputs": [
        {
          "name": "_description",
          "type": "string"
        }
      ],
      "name": "updateDescription",
      "outputs": [],
      "payable": false,
      "stateMutability": "nonpayable",
      "type": "function"
    },
    {
      "constant": true,
      "inputs": [],
      "name": "permissionType",
      "outputs": [
        {
          "name": "",
          "type": "uint8"
        }
      ],
      "payable": false,
      "stateMutability": "view",
      "type": "function"
    },
    {
      "constant": false,
      "inputs": [
        {
          "name": "newOwner",
          "type": "address"
        }
      ],
      "name": "transferOwnership",
      "outputs": [],
      "payable": false,
      "stateMutability": "nonpayable",
      "type": "function"
    },
    {
      "constant": false,
      "inputs": [
        {
          "name": "_recipient",
          "type": "address"
        }
      ],
      "name": "destroyAndSend",
      "outputs": [],
      "payable": false,
      "stateMutability": "nonpayable",
      "type": "function"
    },
    {
      "inputs": [
        {
          "name": "_benefitiaries",
          "type": "address[]"
        },
        {
          "name": "_shares",
          "type": "uint256[]"
        },
        {
          "name": "_permissionType",
          "type": "uint8"
        },
        {
          "name": "_entryCreationFee",
          "type": "uint256"
        },
        {
          "name": "_name",
          "type": "string"
        },
        {
          "name": "_description",
          "type": "string"
        },
        {
          "name": "_tags",
          "type": "string"
        }
      ],
      "payable": false,
      "stateMutability": "nonpayable",
      "type": "constructor"
    },
    {
      "anonymous": false,
      "inputs": [
        {
          "indexed": false,
          "name": "owner",
          "type": "address"
        },
        {
          "indexed": false,
          "name": "entryId",
          "type": "uint256"
        }
      ],
      "name": "EntryCreated",
      "type": "event"
    },
    {
      "anonymous": false,
      "inputs": [
        {
          "indexed": false,
          "name": "entryId",
          "type": "uint256"
        }
      ],
      "name": "EntryDeleted",
      "type": "event"
    },
    {
      "anonymous": false,
      "inputs": [
        {
          "indexed": false,
          "name": "entryId",
          "type": "uint256"
        },
        {
          "indexed": false,
          "name": "owner",
          "type": "address"
        }
      ],
      "name": "EntryUpdated",
      "type": "event"
    },
    {
      "anonymous": false,
      "inputs": [
        {
          "indexed": false,
          "name": "entryId",
          "type": "uint256"
        },
        {
          "indexed": false,
          "name": "newOwner",
          "type": "address"
        }
      ],
      "name": "EntryChangedOwner",
      "type": "event"
    },
    {
      "anonymous": false,
      "inputs": [
        {
          "indexed": false,
          "name": "payeeIndex",
          "type": "uint256"
        },
        {
          "indexed": false,
          "name": "oldAddress",
          "type": "address"
        },
        {
          "indexed": false,
          "name": "newAddress",
          "type": "address"
        }
      ],
      "name": "PayeeAddressChanged",
      "type": "event"
    },
    {
      "anonymous": false,
      "inputs": [],
      "name": "Pause",
      "type": "event"
    },
    {
      "anonymous": false,
      "inputs": [],
      "name": "Unpause",
      "type": "event"
    },
    {
      "anonymous": false,
      "inputs": [
        {
          "indexed": true,
          "name": "previousOwner",
          "type": "address"
        },
        {
          "indexed": true,
          "name": "newOwner",
          "type": "address"
        }
      ],
      "name": "OwnershipTransferred",
      "type": "event"
    },
    {
      "constant": false,
      "inputs": [
        {
          "name": "_expensiveAddress",
          "type": "address"
        },
        {
          "name": "_expensiveUint",
          "type": "uint256"
        },
        {
          "name": "_expensiveInt",
          "type": "int256"
        },
        {
          "name": "_expensiveString",
          "type": "string"
        }
      ],
      "name": "createEntry",
      "outputs": [],
      "payable": true,
      "stateMutability": "payable",
      "type": "function"
    },
    {
      "constant": false,
      "inputs": [
        {
          "name": "_entryId",
          "type": "uint256"
        },
        {
          "name": "_expensiveAddress",
          "type": "address"
        }
      ],
      "name": "updateEntryExpensiveAddress",
      "outputs": [],
      "payable": false,
      "stateMutability": "nonpayable",
      "type": "function"
    },
    {
      "constant": false,
      "inputs": [
        {
          "name": "_entryId",
          "type": "uint256"
        }
      ],
      "name": "deleteEntry",
      "outputs": [],
      "payable": false,
      "stateMutability": "nonpayable",
      "type": "function"
    },
    {
      "constant": true,
      "inputs": [
        {
          "name": "_entryId",
          "type": "uint256"
        }
      ],
      "name": "isDeletedEntry",
      "outputs": [
        {
          "name": "",
          "type": "bool"
        }
      ],
      "payable": false,
      "stateMutability": "view",
      "type": "function"
    },
    {
      "constant": true,
      "inputs": [],
      "name": "entriesCount",
      "outputs": [
        {
          "name": "",
          "type": "uint256"
        }
      ],
      "payable": false,
      "stateMutability": "view",
      "type": "function"
    },
    {
      "constant": false,
      "inputs": [
        {
          "name": "_entryId",
          "type": "uint256"
        },
        {
          "name": "_newOnwer",
          "type": "address"
        }
      ],
      "name": "transferEntryOwnership",
      "outputs": [],
      "payable": false,
      "stateMutability": "nonpayable",
      "type": "function"
    }
  ],
  "bytecode": "0x60606040526000805560006001556000600560146101000a81548160ff02191690831515021790555034156200003457600080fd5b60405162002b5938038062002b59833981016040528080518201919060200180518201919060200180519060200190919080519060200190919080518201919060200180518201919060200180518201919050508686868686868686868181600081518351141515620000a657600080fd5b600090505b82518110156200011357620001058382815181101515620000c857fe5b906020019060200201518383815181101515620000e157fe5b90602001906020020151620001e3640100000000026200253e176401000000009004565b8080600101915050620000ab565b50505033600560006101000a81548173ffffffffffffffffffffffffffffffffffffffff021916908373ffffffffffffffffffffffffffffffffffffffff160217905550505084600960006101000a81548160ff021916908360028111156200017857fe5b021790555083600a8190555082600690805190602001906200019c92919062000376565b508160079080519060200190620001b592919062000376565b508060089080519060200190620001ce92919062000376565b50505050505050505050505050505062000454565b600073ffffffffffffffffffffffffffffffffffffffff168273ffffffffffffffffffffffffffffffffffffffff16141515156200022057600080fd5b6000811115156200023057600080fd5b6000600260008473ffffffffffffffffffffffffffffffffffffffff1673ffffffffffffffffffffffffffffffffffffffff168152602001908152602001600020541415156200027f57600080fd5b60048054806001018281620002959190620003fd565b9160005260206000209001600084909190916101000a81548173ffffffffffffffffffffffffffffffffffffffff021916908373ffffffffffffffffffffffffffffffffffffffff1602179055505080600260008473ffffffffffffffffffffffffffffffffffffffff1673ffffffffffffffffffffffffffffffffffffffff168152602001908152602001600020819055506200034d8160005462000357640100000000026200227d179091906401000000009004565b6000819055505050565b60008082840190508381101515156200036c57fe5b8091505092915050565b828054600181600116156101000203166002900490600052602060002090601f016020900481019282601f10620003b957805160ff1916838001178555620003ea565b82800160010185558215620003ea579182015b82811115620003e9578251825591602001919060010190620003cc565b5b509050620003f991906200042c565b5090565b81548183558181151162000427578183600052602060002091820191016200042691906200042c565b5b505050565b6200045191905b808211156200044d57600081600090555060010162000433565b5090565b90565b6126f580620004646000396000f300606060405260043610610196576000357c0100000000000000000000000000000000000000000000000000000000900463ffffffff16806306fdde031461019b57806311f7516c146102295780633a1a3d951461024c5780633a98ef39146102755780633f4ba83a1461029e5780634d45d39e146102b35780634e71d92d146103075780635b2c904f1461031c5780635c975abb1461034a57806363037b0c14610377578063683ae65b146103da5780637284e4161461041c5780637b493768146104aa57806383197ef0146104ec5780638456cb591461050157806384da92a7146105165780638da5cb5b146105445780639852595c14610599578063ab4ccf01146105e6578063b30906d41461060f578063bacf420d14610743578063c209586b14610785578063c82a5579146107d2578063ce7c2ac21461080d578063d24f70761461085a578063de6b7e091461087d578063e33b7de31461090b578063e4df8b3414610934578063e735b48a1461095a578063e7b7839214610988578063f2fde38b146109bf578063f5074f41146109f8575b600080fd5b34156101a657600080fd5b6101ae610a31565b6040518080602001828103825283818151815260200191508051906020019080838360005b838110156101ee5780820151818401526020810190506101d3565b50505050905090810190601f16801561021b5780820380516001836020036101000a031916815260200191505b509250505060405180910390f35b341561023457600080fd5b61024a6004808035906020019091905050610acf565b005b341561025757600080fd5b61025f610c19565b6040518082815260200191505060405180910390f35b341561028057600080fd5b610288610c1f565b6040518082815260200191505060405180910390f35b34156102a957600080fd5b6102b1610c25565b005b610305600480803573ffffffffffffffffffffffffffffffffffffffff169060200190919080359060200190919080359060200190919080359060200190820180359060200191909192905050610ce5565b005b341561031257600080fd5b61031a610fd4565b005b341561032757600080fd5b6103486004808035906020019082018035906020019190919290505061123c565b005b341561035557600080fd5b61035d6112c7565b604051808215151515815260200191505060405180910390f35b341561038257600080fd5b61039860048080359060200190919050506112da565b604051808273ffffffffffffffffffffffffffffffffffffffff1673ffffffffffffffffffffffffffffffffffffffff16815260200191505060405180910390f35b34156103e557600080fd5b61041a600480803590602001909190803573ffffffffffffffffffffffffffffffffffffffff16906020019091905050611319565b005b341561042757600080fd5b61042f6114a1565b6040518080602001828103825283818151815260200191508051906020019080838360005b8381101561046f578082015181840152602081019050610454565b50505050905090810190601f16801561049c5780820380516001836020036101000a031916815260200191505b509250505060405180910390f35b34156104b557600080fd5b6104ea600480803590602001909190803573ffffffffffffffffffffffffffffffffffffffff1690602001909190505061153f565b005b34156104f757600080fd5b6104ff611863565b005b341561050c57600080fd5b6105146118fa565b005b341561052157600080fd5b610542600480803590602001908201803590602001919091929050506119bb565b005b341561054f57600080fd5b610557611a52565b604051808273ffffffffffffffffffffffffffffffffffffffff1673ffffffffffffffffffffffffffffffffffffffff16815260200191505060405180910390f35b34156105a457600080fd5b6105d0600480803573ffffffffffffffffffffffffffffffffffffffff16906020019091905050611a78565b6040518082815260200191505060405180910390f35b34156105f157600080fd5b6105f9611a90565b6040518082815260200191505060405180910390f35b341561061a57600080fd5b6106306004808035906020019091905050611a9d565b604051808773ffffffffffffffffffffffffffffffffffffffff1673ffffffffffffffffffffffffffffffffffffffff168152602001868152602001858152602001806020018473ffffffffffffffffffffffffffffffffffffffff1673ffffffffffffffffffffffffffffffffffffffff16815260200183815260200182810382528581815460018160011615610100020316600290048152602001915080546001816001161561010002031660029004801561072f5780601f106107045761010080835404028352916020019161072f565b820191906000526020600020905b81548152906001019060200180831161071257829003601f168201915b505097505050505050505060405180910390f35b341561074e57600080fd5b610783600480803590602001909190803573ffffffffffffffffffffffffffffffffffffffff16906020019091905050611b27565b005b341561079057600080fd5b6107d06004808035906020019082018035906020019190919290803573ffffffffffffffffffffffffffffffffffffffff16906020019091905050611cd4565b005b34156107dd57600080fd5b6107f36004808035906020019091905050611e0b565b604051808215151515815260200191505060405180910390f35b341561081857600080fd5b610844600480803573ffffffffffffffffffffffffffffffffffffffff16906020019091905050611e6d565b6040518082815260200191505060405180910390f35b341561086557600080fd5b61087b6004808035906020019091905050611e85565b005b341561088857600080fd5b610890611eeb565b6040518080602001828103825283818151815260200191508051906020019080838360005b838110156108d05780820151818401526020810190506108b5565b50505050905090810190601f1680156108fd5780820380516001836020036101000a031916815260200191505b509250505060405180910390f35b341561091657600080fd5b61091e611f89565b6040518082815260200191505060405180910390f35b341561093f57600080fd5b610958600480803560ff16906020019091905050611f8f565b005b341561096557600080fd5b61098660048080359060200190820180359060200191909192905050612011565b005b341561099357600080fd5b61099b61209d565b604051808260028111156109ab57fe5b60ff16815260200191505060405180910390f35b34156109ca57600080fd5b6109f6600480803573ffffffffffffffffffffffffffffffffffffffff169060200190919050506120b0565b005b3415610a0357600080fd5b610a2f600480803573ffffffffffffffffffffffffffffffffffffffff16906020019091905050612208565b005b60068054600181600116156101000203166002900480601f016020809104026020016040519081016040528092919081815260200182805460018160011615610100020316600290048015610ac75780601f10610a9c57610100808354040283529160200191610ac7565b820191906000526020600020905b815481529060010190602001808311610aaa57829003601f168201915b505050505081565b3373ffffffffffffffffffffffffffffffffffffffff16600b82815481101515610af557fe5b906000526020600020906006020160040160009054906101000a900473ffffffffffffffffffffffffffffffffffffffff1673ffffffffffffffffffffffffffffffffffffffff16141515610b4957600080fd5b600b81815481101515610b5857fe5b9060005260206000209060060201600080820160006101000a81549073ffffffffffffffffffffffffffffffffffffffff021916905560018201600090556002820160009055600382016000610bae919061230a565b6004820160006101000a81549073ffffffffffffffffffffffffffffffffffffffff0219169055600582016000905550507f9ad2ca3ec51dc768a93a3a6f7b5778dd0e5f4d4ba47a19df55a0a9a325bcdecb816040518082815260200191505060405180910390a150565b600a5481565b60005481565b600560009054906101000a900473ffffffffffffffffffffffffffffffffffffffff1673ffffffffffffffffffffffffffffffffffffffff163373ffffffffffffffffffffffffffffffffffffffff16141515610c8157600080fd5b600560149054906101000a900460ff161515610c9c57600080fd5b6000600560146101000a81548160ff0219169083151502179055507f7805862f689e2f13df9f062ff482ad3ad112aca9e0847911ed832e158c525b3360405160405180910390a1565b600560009054906101000a900473ffffffffffffffffffffffffffffffffffffffff1673ffffffffffffffffffffffffffffffffffffffff163373ffffffffffffffffffffffffffffffffffffffff161480610d425750600a5434145b1515610d4d57600080fd5b600560009054906101000a900473ffffffffffffffffffffffffffffffffffffffff1673ffffffffffffffffffffffffffffffffffffffff163373ffffffffffffffffffffffffffffffffffffffff161480610dce575060016002811115610db157fe5b600960009054906101000a900460ff166002811115610dcc57fe5b145b1515610dd957600080fd5b600b8054806001018281610ded9190612352565b9160005260206000209060060201600060c0604051908101604052808973ffffffffffffffffffffffffffffffffffffffff16815260200188815260200187815260200186868080601f01602080910402602001604051908101604052809392919081815260200183838082843782019150505050505081526020013373ffffffffffffffffffffffffffffffffffffffff16815260200142815250909190915060008201518160000160006101000a81548173ffffffffffffffffffffffffffffffffffffffff021916908373ffffffffffffffffffffffffffffffffffffffff16021790555060208201518160010155604082015181600201556060820151816003019080519060200190610f05929190612384565b5060808201518160040160006101000a81548173ffffffffffffffffffffffffffffffffffffffff021916908373ffffffffffffffffffffffffffffffffffffffff16021790555060a082015181600501555050507fe9a0a2aca9c41fae94448dec8914ad73e4d00ebdc2427e61f3fc66919f4ffa2a336001600b8054905003604051808373ffffffffffffffffffffffffffffffffffffffff1673ffffffffffffffffffffffffffffffffffffffff1681526020018281526020019250505060405180910390a15050505050565b60008060003392506000600260008573ffffffffffffffffffffffffffffffffffffffff1673ffffffffffffffffffffffffffffffffffffffff1681526020019081526020016000205411151561102a57600080fd5b6110566001543073ffffffffffffffffffffffffffffffffffffffff163161227d90919063ffffffff16565b915061110f600360008573ffffffffffffffffffffffffffffffffffffffff1673ffffffffffffffffffffffffffffffffffffffff168152602001908152602001600020546111016000546110f3600260008973ffffffffffffffffffffffffffffffffffffffff1673ffffffffffffffffffffffffffffffffffffffff168152602001908152602001600020548761229b90919063ffffffff16565b6122d690919063ffffffff16565b6122f190919063ffffffff16565b90506000811415151561112157600080fd5b803073ffffffffffffffffffffffffffffffffffffffff16311015151561114757600080fd5b61119981600360008673ffffffffffffffffffffffffffffffffffffffff1673ffffffffffffffffffffffffffffffffffffffff1681526020019081526020016000205461227d90919063ffffffff16565b600360008573ffffffffffffffffffffffffffffffffffffffff1673ffffffffffffffffffffffffffffffffffffffff168152602001908152602001600020819055506111f18160015461227d90919063ffffffff16565b6001819055508273ffffffffffffffffffffffffffffffffffffffff166108fc829081150290604051600060405180830381858888f19350505050151561123757600080fd5b505050565b6000600560009054906101000a900473ffffffffffffffffffffffffffffffffffffffff1673ffffffffffffffffffffffffffffffffffffffff163373ffffffffffffffffffffffffffffffffffffffff1614151561129a57600080fd5b828290509050604081111515156112b057600080fd5b8282600891906112c1929190612404565b50505050565b600560149054906101000a900460ff1681565b6004818154811015156112e957fe5b90600052602060002090016000915054906101000a900473ffffffffffffffffffffffffffffffffffffffff1681565b3373ffffffffffffffffffffffffffffffffffffffff16600b8381548110151561133f57fe5b906000526020600020906006020160040160009054906101000a900473ffffffffffffffffffffffffffffffffffffffff1673ffffffffffffffffffffffffffffffffffffffff1614151561139357600080fd5b80600b838154811015156113a357fe5b906000526020600020906006020160040160006101000a81548173ffffffffffffffffffffffffffffffffffffffff021916908373ffffffffffffffffffffffffffffffffffffffff1602179055507fe93f305b235917d8ff8103ff4bb045df5935484b45bfd248c7fec5f04fecf92d82600b8481548110151561142357fe5b906000526020600020906006020160040160009054906101000a900473ffffffffffffffffffffffffffffffffffffffff16604051808381526020018273ffffffffffffffffffffffffffffffffffffffff1673ffffffffffffffffffffffffffffffffffffffff1681526020019250505060405180910390a15050565b60078054600181600116156101000203166002900480601f0160208091040260200160405190810160405280929190818152602001828054600181600116156101000203166002900480156115375780601f1061150c57610100808354040283529160200191611537565b820191906000526020600020905b81548152906001019060200180831161151a57829003601f168201915b505050505081565b6000600560009054906101000a900473ffffffffffffffffffffffffffffffffffffffff1673ffffffffffffffffffffffffffffffffffffffff163373ffffffffffffffffffffffffffffffffffffffff1614151561159d57600080fd5b6004838154811015156115ac57fe5b906000526020600020900160009054906101000a900473ffffffffffffffffffffffffffffffffffffffff169050600260008273ffffffffffffffffffffffffffffffffffffffff1673ffffffffffffffffffffffffffffffffffffffff16815260200190815260200160002054600260008473ffffffffffffffffffffffffffffffffffffffff1673ffffffffffffffffffffffffffffffffffffffff16815260200190815260200160002081905550600360008273ffffffffffffffffffffffffffffffffffffffff1673ffffffffffffffffffffffffffffffffffffffff16815260200190815260200160002054600360008473ffffffffffffffffffffffffffffffffffffffff1673ffffffffffffffffffffffffffffffffffffffff16815260200190815260200160002081905550816004848154811015156116f057fe5b906000526020600020900160006101000a81548173ffffffffffffffffffffffffffffffffffffffff021916908373ffffffffffffffffffffffffffffffffffffffff160217905550600260008273ffffffffffffffffffffffffffffffffffffffff1673ffffffffffffffffffffffffffffffffffffffff16815260200190815260200160002060009055600360008273ffffffffffffffffffffffffffffffffffffffff1673ffffffffffffffffffffffffffffffffffffffff168152602001908152602001600020600090557fa1982f3fe3fa9dba8ce5bc91687e2ab0850b0431cddacc1a249b2ae0390b912f838284604051808481526020018373ffffffffffffffffffffffffffffffffffffffff1673ffffffffffffffffffffffffffffffffffffffff1681526020018273ffffffffffffffffffffffffffffffffffffffff1673ffffffffffffffffffffffffffffffffffffffff168152602001935050505060405180910390a1505050565b600560009054906101000a900473ffffffffffffffffffffffffffffffffffffffff1673ffffffffffffffffffffffffffffffffffffffff163373ffffffffffffffffffffffffffffffffffffffff161415156118bf57600080fd5b600560009054906101000a900473ffffffffffffffffffffffffffffffffffffffff1673ffffffffffffffffffffffffffffffffffffffff16ff5b600560009054906101000a900473ffffffffffffffffffffffffffffffffffffffff1673ffffffffffffffffffffffffffffffffffffffff163373ffffffffffffffffffffffffffffffffffffffff1614151561195657600080fd5b600560149054906101000a900460ff1615151561197257600080fd5b6001600560146101000a81548160ff0219169083151502179055507f6985a02210a168e66602d3235cb6db0e70f92b3ba4d376a33c0f3d9434bff62560405160405180910390a1565b6000600560009054906101000a900473ffffffffffffffffffffffffffffffffffffffff1673ffffffffffffffffffffffffffffffffffffffff163373ffffffffffffffffffffffffffffffffffffffff16141515611a1957600080fd5b828290509050600081118015611a30575060208111155b1515611a3b57600080fd5b828260069190611a4c929190612404565b50505050565b600560009054906101000a900473ffffffffffffffffffffffffffffffffffffffff1681565b60036020528060005260406000206000915090505481565b6000600b80549050905090565b600b81815481101515611aac57fe5b90600052602060002090600602016000915090508060000160009054906101000a900473ffffffffffffffffffffffffffffffffffffffff169080600101549080600201549080600301908060040160009054906101000a900473ffffffffffffffffffffffffffffffffffffffff16908060050154905086565b3373ffffffffffffffffffffffffffffffffffffffff16600b83815481101515611b4d57fe5b906000526020600020906006020160040160009054906101000a900473ffffffffffffffffffffffffffffffffffffffff1673ffffffffffffffffffffffffffffffffffffffff16141515611ba157600080fd5b42600b83815481101515611bb157fe5b90600052602060002090600602016005018190555080600b83815481101515611bd657fe5b906000526020600020906006020160000160006101000a81548173ffffffffffffffffffffffffffffffffffffffff021916908373ffffffffffffffffffffffffffffffffffffffff1602179055507f2800de8eb77066c56083f1ae9b072e1af9c894a73b2980f72aa5af9ea403b5f682600b84815481101515611c5657fe5b906000526020600020906006020160040160009054906101000a900473ffffffffffffffffffffffffffffffffffffffff16604051808381526020018273ffffffffffffffffffffffffffffffffffffffff1673ffffffffffffffffffffffffffffffffffffffff1681526020019250505060405180910390a15050565b6000600560009054906101000a900473ffffffffffffffffffffffffffffffffffffffff1673ffffffffffffffffffffffffffffffffffffffff163373ffffffffffffffffffffffffffffffffffffffff16141515611d3257600080fd5b8190508073ffffffffffffffffffffffffffffffffffffffff16631e59c5298585306040518463ffffffff167c010000000000000000000000000000000000000000000000000000000002815260040180806020018373ffffffffffffffffffffffffffffffffffffffff1673ffffffffffffffffffffffffffffffffffffffff16815260200182810382528585828181526020019250808284378201915050945050505050600060405180830381600087803b1515611df157600080fd5b6102c65a03f11515611e0257600080fd5b50505050505050565b600080600b83815481101515611e1d57fe5b906000526020600020906006020160040160009054906101000a900473ffffffffffffffffffffffffffffffffffffffff1673ffffffffffffffffffffffffffffffffffffffff16149050919050565b60026020528060005260406000206000915090505481565b600560009054906101000a900473ffffffffffffffffffffffffffffffffffffffff1673ffffffffffffffffffffffffffffffffffffffff163373ffffffffffffffffffffffffffffffffffffffff16141515611ee157600080fd5b80600a8190555050565b60088054600181600116156101000203166002900480601f016020809104026020016040519081016040528092919081815260200182805460018160011615610100020316600290048015611f815780601f10611f5657610100808354040283529160200191611f81565b820191906000526020600020905b815481529060010190602001808311611f6457829003601f168201915b505050505081565b60015481565b600560009054906101000a900473ffffffffffffffffffffffffffffffffffffffff1673ffffffffffffffffffffffffffffffffffffffff163373ffffffffffffffffffffffffffffffffffffffff16141515611feb57600080fd5b80600960006101000a81548160ff0219169083600281111561200957fe5b021790555050565b6000600560009054906101000a900473ffffffffffffffffffffffffffffffffffffffff1673ffffffffffffffffffffffffffffffffffffffff163373ffffffffffffffffffffffffffffffffffffffff1614151561206f57600080fd5b828290509050610100811115151561208657600080fd5b828260079190612097929190612404565b50505050565b600960009054906101000a900460ff1681565b600560009054906101000a900473ffffffffffffffffffffffffffffffffffffffff1673ffffffffffffffffffffffffffffffffffffffff163373ffffffffffffffffffffffffffffffffffffffff1614151561210c57600080fd5b600073ffffffffffffffffffffffffffffffffffffffff168173ffffffffffffffffffffffffffffffffffffffff161415151561214857600080fd5b8073ffffffffffffffffffffffffffffffffffffffff16600560009054906101000a900473ffffffffffffffffffffffffffffffffffffffff1673ffffffffffffffffffffffffffffffffffffffff167f8be0079c531659141344cd1fd0a4f28419497f9722a3daafe3b4186f6b6457e060405160405180910390a380600560006101000a81548173ffffffffffffffffffffffffffffffffffffffff021916908373ffffffffffffffffffffffffffffffffffffffff16021790555050565b600560009054906101000a900473ffffffffffffffffffffffffffffffffffffffff1673ffffffffffffffffffffffffffffffffffffffff163373ffffffffffffffffffffffffffffffffffffffff1614151561226457600080fd5b8073ffffffffffffffffffffffffffffffffffffffff16ff5b600080828401905083811015151561229157fe5b8091505092915050565b60008060008414156122b057600091506122cf565b82840290508284828115156122c157fe5b041415156122cb57fe5b8091505b5092915050565b60008082848115156122e457fe5b0490508091505092915050565b60008282111515156122ff57fe5b818303905092915050565b50805460018160011615610100020316600290046000825580601f10612330575061234f565b601f01602090049060005260206000209081019061234e9190612484565b5b50565b81548183558181151161237f5760060281600602836000526020600020918201910161237e91906124a9565b5b505050565b828054600181600116156101000203166002900490600052602060002090601f016020900481019282601f106123c557805160ff19168380011785556123f3565b828001600101855582156123f3579182015b828111156123f25782518255916020019190600101906123d7565b5b5090506124009190612484565b5090565b828054600181600116156101000203166002900490600052602060002090601f016020900481019282601f1061244557803560ff1916838001178555612473565b82800160010185558215612473579182015b82811115612472578235825591602001919060010190612457565b5b5090506124809190612484565b5090565b6124a691905b808211156124a257600081600090555060010161248a565b5090565b90565b61253b91905b8082111561253757600080820160006101000a81549073ffffffffffffffffffffffffffffffffffffffff0219169055600182016000905560028201600090556003820160006124ff919061230a565b6004820160006101000a81549073ffffffffffffffffffffffffffffffffffffffff02191690556005820160009055506006016124af565b5090565b90565b600073ffffffffffffffffffffffffffffffffffffffff168273ffffffffffffffffffffffffffffffffffffffff161415151561257a57600080fd5b60008111151561258957600080fd5b6000600260008473ffffffffffffffffffffffffffffffffffffffff1673ffffffffffffffffffffffffffffffffffffffff168152602001908152602001600020541415156125d757600080fd5b600480548060010182816125eb919061269d565b9160005260206000209001600084909190916101000a81548173ffffffffffffffffffffffffffffffffffffffff021916908373ffffffffffffffffffffffffffffffffffffffff1602179055505080600260008473ffffffffffffffffffffffffffffffffffffffff1673ffffffffffffffffffffffffffffffffffffffff168152602001908152602001600020819055506126938160005461227d90919063ffffffff16565b6000819055505050565b8154818355818115116126c4578183600052602060002091820191016126c39190612484565b5b5050505600a165627a7a723058206ce9c2eab8d242d19df313acf66dd88fd46e6fe47d37c89c8fd4e4a7abebd8220029",
  "source": "pragma solidity ^0.4.17;\n\nimport \"./common/chaingeareable.sol\";\n\n\ncontract RegistryExample is Chaingeareable {\n\n    //codegeneration\n    struct EntryExample {\n        address expensiveAddress;\n        uint expensiveUint;\n        int expensiveInt;\n        string expensiveString;\n\n        //inbox fields\n        address owner;\n        uint lastUpdateTime;\n    }\n\n    EntryExample[] public entries;\n\n    event EntryCreated(address owner, uint entryId);\n    event EntryDeleted(uint entryId);\n    event EntryUpdated(uint entryId, address owner);\n    event EntryChangedOwner(uint entryId, address newOwner);\n\n    function RegistryExample(\n        address[] _benefitiaries,\n        uint256[] _shares,\n        PermissionType _permissionType,\n        uint _entryCreationFee,\n        string _name,\n        string _description,\n        string _tags\n    ) Chaingeareable(_benefitiaries, _shares, _permissionType, _entryCreationFee, _name, _description, _tags) public\n    {\n\n    }\n\n    //codegeneration\n    function createEntry(address _expensiveAddress, uint _expensiveUint, int _expensiveInt, string _expensiveString) external payable {\n        //permission logic TODO\n        require(msg.sender == owner || msg.value == entryCreationFee);\n        require(msg.sender == owner || permissionType == PermissionType.AllUsers);\n\n        entries.push(EntryExample(\n        {\n            owner: msg.sender,\n            expensiveAddress: _expensiveAddress,\n            expensiveUint: _expensiveUint,\n            expensiveInt: _expensiveInt,\n            expensiveString: _expensiveString,\n            lastUpdateTime: now\n        }));\n\n        EntryCreated(msg.sender, entries.length - 1);\n    }\n\n    //codegeneration\n    //external vs public..\n    function updateEntryExpensiveAddress(uint _entryId, address _expensiveAddress) external {\n        require(entries[_entryId].owner == msg.sender);\n        /* require(_expensiveAddress <= 256); */\n\n        entries[_entryId].lastUpdateTime = now;\n        entries[_entryId].expensiveAddress = _expensiveAddress;\n\n        // specified for updates events TODO\n        EntryUpdated(_entryId, entries[_entryId].owner);\n    }\n\n    function deleteEntry(uint _entryId) external {\n        //permission logic TODO\n        require(entries[_entryId].owner == msg.sender);\n\n        delete entries[_entryId];\n\n        EntryDeleted(_entryId);\n    }\n\n    function isDeletedEntry(uint _entryId) external constant returns (bool) {\n        return entries[_entryId].owner == 0x0;\n    }\n\n    function entriesCount() external constant returns (uint) {\n        return entries.length;\n    }\n\n    function transferEntryOwnership(uint _entryId, address _newOnwer) external {\n        require(entries[_entryId].owner == msg.sender);\n\n        entries[_entryId].owner = _newOnwer;\n        EntryChangedOwner(_entryId, entries[_entryId].owner);\n    }\n}\n",
  "sourcePath": "/Users/andrey/projects/cyberFund/chaingear/contracts/RegistryExample.sol",
  "compiler": {
    "name": "solc",
    "version": "0.4.19+commit.c4cbbb05.Emscripten.clang"
  },
  "schemaVersion": "2.0.0",
  "updatedAt": "2018-04-04T10:16:56.767Z"
}