{
  "contractName": "Registry",
  "abi": [
    {
      "constant": true,
      "inputs": [],
      "name": "name",
      "outputs": [
        {
          "name": "",
          "type": "string"
        }
      ],
      "payable": false,
      "stateMutability": "view",
      "type": "function"
    },
    {
      "constant": true,
      "inputs": [],
      "name": "linkSourceCode",
      "outputs": [
        {
          "name": "",
          "type": "string"
        }
      ],
      "payable": false,
      "stateMutability": "view",
      "type": "function"
    },
    {
      "constant": true,
      "inputs": [
        {
          "name": "_tokenId",
          "type": "uint256"
        }
      ],
      "name": "getApproved",
      "outputs": [
        {
          "name": "",
          "type": "address"
        }
      ],
      "payable": false,
      "stateMutability": "view",
      "type": "function"
    },
    {
      "constant": false,
      "inputs": [
        {
          "name": "_to",
          "type": "address"
        },
        {
          "name": "_tokenId",
          "type": "uint256"
        }
      ],
      "name": "approve",
      "outputs": [],
      "payable": false,
      "stateMutability": "nonpayable",
      "type": "function"
    },
    {
      "constant": true,
      "inputs": [],
      "name": "registryName",
      "outputs": [
        {
          "name": "",
          "type": "string"
        }
      ],
      "payable": false,
      "stateMutability": "view",
      "type": "function"
    },
    {
      "constant": true,
      "inputs": [],
      "name": "totalSupply",
      "outputs": [
        {
          "name": "",
          "type": "uint256"
        }
      ],
      "payable": false,
      "stateMutability": "view",
      "type": "function"
    },
    {
      "constant": false,
      "inputs": [
        {
          "name": "_tag",
          "type": "bytes32"
        }
      ],
      "name": "addRegistryTag",
      "outputs": [],
      "payable": false,
      "stateMutability": "nonpayable",
      "type": "function"
    },
    {
      "constant": false,
      "inputs": [
        {
          "name": "_from",
          "type": "address"
        },
        {
          "name": "_to",
          "type": "address"
        },
        {
          "name": "_tokenId",
          "type": "uint256"
        }
      ],
      "name": "transferFrom",
      "outputs": [],
      "payable": false,
      "stateMutability": "nonpayable",
      "type": "function"
    },
    {
      "constant": false,
      "inputs": [
        {
          "name": "addrs",
          "type": "address[]"
        }
      ],
      "name": "removeAddressesFromWhitelist",
      "outputs": [
        {
          "name": "success",
          "type": "bool"
        }
      ],
      "payable": false,
      "stateMutability": "nonpayable",
      "type": "function"
    },
    {
      "constant": false,
      "inputs": [
        {
          "name": "_permissionTypeEntries",
          "type": "uint256"
        }
      ],
      "name": "updatePermissionTypeEntries",
      "outputs": [],
      "payable": false,
      "stateMutability": "nonpayable",
      "type": "function"
    },
    {
      "constant": false,
      "inputs": [
        {
          "name": "addr",
          "type": "address"
        }
      ],
      "name": "removeAddressFromWhitelist",
      "outputs": [
        {
          "name": "success",
          "type": "bool"
        }
      ],
      "payable": false,
      "stateMutability": "nonpayable",
      "type": "function"
    },
    {
      "constant": true,
      "inputs": [
        {
          "name": "_owner",
          "type": "address"
        },
        {
          "name": "_index",
          "type": "uint256"
        }
      ],
      "name": "tokenOfOwnerByIndex",
      "outputs": [
        {
          "name": "",
          "type": "uint256"
        }
      ],
      "payable": false,
      "stateMutability": "view",
      "type": "function"
    },
    {
      "constant": true,
      "inputs": [],
      "name": "permissionsTypeEntries",
      "outputs": [
        {
          "name": "",
          "type": "uint8"
        }
      ],
      "payable": false,
      "stateMutability": "view",
      "type": "function"
    },
    {
      "constant": true,
      "inputs": [
        {
          "name": "_entryId",
          "type": "uint256"
        }
      ],
      "name": "entryInfo",
      "outputs": [
        {
          "name": "",
          "type": "address"
        },
        {
          "name": "",
          "type": "uint256"
        },
        {
          "name": "",
          "type": "int256"
        },
        {
          "name": "",
          "type": "string"
        },
        {
          "name": "",
          "type": "uint256"
        }
      ],
      "payable": false,
      "stateMutability": "view",
      "type": "function"
    },
    {
      "constant": true,
      "inputs": [],
      "name": "entryCreationFee",
      "outputs": [
        {
          "name": "",
          "type": "uint256"
        }
      ],
      "payable": false,
      "stateMutability": "view",
      "type": "function"
    },
    {
      "constant": true,
      "inputs": [],
      "name": "totalShares",
      "outputs": [
        {
          "name": "",
          "type": "uint256"
        }
      ],
      "payable": false,
      "stateMutability": "view",
      "type": "function"
    },
    {
      "constant": false,
      "inputs": [],
      "name": "unpause",
      "outputs": [],
      "payable": false,
      "stateMutability": "nonpayable",
      "type": "function"
    },
    {
      "constant": true,
      "inputs": [],
      "name": "registryDescription",
      "outputs": [
        {
          "name": "",
          "type": "string"
        }
      ],
      "payable": false,
      "stateMutability": "view",
      "type": "function"
    },
    {
      "constant": false,
      "inputs": [
        {
          "name": "_from",
          "type": "address"
        },
        {
          "name": "_to",
          "type": "address"
        },
        {
          "name": "_tokenId",
          "type": "uint256"
        }
      ],
      "name": "safeTransferFrom",
      "outputs": [],
      "payable": false,
      "stateMutability": "nonpayable",
      "type": "function"
    },
    {
      "constant": true,
      "inputs": [],
      "name": "linkMeta",
      "outputs": [
        {
          "name": "",
          "type": "string"
        }
      ],
      "payable": false,
      "stateMutability": "view",
      "type": "function"
    },
    {
      "constant": false,
      "inputs": [],
      "name": "claim",
      "outputs": [],
      "payable": false,
      "stateMutability": "nonpayable",
      "type": "function"
    },
    {
      "constant": true,
      "inputs": [
        {
          "name": "_tokenId",
          "type": "uint256"
        }
      ],
      "name": "exists",
      "outputs": [
        {
          "name": "",
          "type": "bool"
        }
      ],
      "payable": false,
      "stateMutability": "view",
      "type": "function"
    },
    {
      "constant": true,
      "inputs": [
        {
          "name": "_index",
          "type": "uint256"
        }
      ],
      "name": "tokenByIndex",
      "outputs": [
        {
          "name": "",
          "type": "uint256"
        }
      ],
      "payable": false,
      "stateMutability": "view",
      "type": "function"
    },
    {
      "constant": true,
      "inputs": [
        {
          "name": "_entryId",
          "type": "uint256"
        }
      ],
      "name": "expensiveStringOf",
      "outputs": [
        {
          "name": "",
          "type": "string"
        }
      ],
      "payable": false,
      "stateMutability": "view",
      "type": "function"
    },
    {
      "constant": true,
      "inputs": [],
      "name": "paused",
      "outputs": [
        {
          "name": "",
          "type": "bool"
        }
      ],
      "payable": false,
      "stateMutability": "view",
      "type": "function"
    },
    {
      "constant": true,
      "inputs": [
        {
          "name": "",
          "type": "uint256"
        }
      ],
      "name": "payees",
      "outputs": [
        {
          "name": "",
          "type": "address"
        }
      ],
      "payable": false,
      "stateMutability": "view",
      "type": "function"
    },
    {
      "constant": true,
      "inputs": [
        {
          "name": "_tokenId",
          "type": "uint256"
        }
      ],
      "name": "ownerOf",
      "outputs": [
        {
          "name": "",
          "type": "address"
        }
      ],
      "payable": false,
      "stateMutability": "view",
      "type": "function"
    },
    {
      "constant": false,
      "inputs": [
        {
          "name": "_linkMeta",
          "type": "string"
        }
      ],
      "name": "setMetaLink",
      "outputs": [],
      "payable": false,
      "stateMutability": "nonpayable",
      "type": "function"
    },
    {
      "constant": true,
      "inputs": [
        {
          "name": "_owner",
          "type": "address"
        }
      ],
      "name": "balanceOf",
      "outputs": [
        {
          "name": "",
          "type": "uint256"
        }
      ],
      "payable": false,
      "stateMutability": "view",
      "type": "function"
    },
    {
      "constant": true,
      "inputs": [],
      "name": "entriesAmount",
      "outputs": [
        {
          "name": "",
          "type": "uint256"
        }
      ],
      "payable": false,
      "stateMutability": "view",
      "type": "function"
    },
    {
      "constant": false,
      "inputs": [
        {
          "name": "_payeeIndex",
          "type": "uint256"
        },
        {
          "name": "_newAddress",
          "type": "address"
        }
      ],
      "name": "changePayeeAddress",
      "outputs": [],
      "payable": false,
      "stateMutability": "nonpayable",
      "type": "function"
    },
    {
      "constant": false,
      "inputs": [
        {
          "name": "addr",
          "type": "address"
        }
      ],
      "name": "addAddressToWhitelist",
      "outputs": [
        {
          "name": "success",
          "type": "bool"
        }
      ],
      "payable": false,
      "stateMutability": "nonpayable",
      "type": "function"
    },
    {
      "constant": false,
      "inputs": [],
      "name": "destroy",
      "outputs": [],
      "payable": false,
      "stateMutability": "nonpayable",
      "type": "function"
    },
    {
      "constant": false,
      "inputs": [
        {
          "name": "_linkSourceCode",
          "type": "string"
        }
      ],
      "name": "setSourceLink",
      "outputs": [],
      "payable": false,
      "stateMutability": "nonpayable",
      "type": "function"
    },
    {
      "constant": false,
      "inputs": [],
      "name": "pause",
      "outputs": [],
      "payable": false,
      "stateMutability": "nonpayable",
      "type": "function"
    },
    {
      "constant": true,
      "inputs": [],
      "name": "owner",
      "outputs": [
        {
          "name": "",
          "type": "address"
        }
      ],
      "payable": false,
      "stateMutability": "view",
      "type": "function"
    },
    {
      "constant": true,
      "inputs": [],
      "name": "symbol",
      "outputs": [
        {
          "name": "",
          "type": "string"
        }
      ],
      "payable": false,
      "stateMutability": "view",
      "type": "function"
    },
    {
      "constant": true,
      "inputs": [
        {
          "name": "_entryId",
          "type": "uint256"
        }
      ],
      "name": "expensiveAddressOf",
      "outputs": [
        {
          "name": "",
          "type": "address"
        }
      ],
      "payable": false,
      "stateMutability": "view",
      "type": "function"
    },
    {
      "constant": true,
      "inputs": [
        {
          "name": "",
          "type": "address"
        }
      ],
      "name": "released",
      "outputs": [
        {
          "name": "",
          "type": "uint256"
        }
      ],
      "payable": false,
      "stateMutability": "view",
      "type": "function"
    },
    {
      "constant": true,
      "inputs": [
        {
          "name": "",
          "type": "address"
        }
      ],
      "name": "whitelist",
      "outputs": [
        {
          "name": "",
          "type": "bool"
        }
      ],
      "payable": false,
      "stateMutability": "view",
      "type": "function"
    },
    {
      "constant": true,
      "inputs": [],
      "name": "linkABI",
      "outputs": [
        {
          "name": "",
          "type": "string"
        }
      ],
      "payable": false,
      "stateMutability": "view",
      "type": "function"
    },
    {
      "constant": false,
      "inputs": [
        {
          "name": "_registryDescription",
          "type": "string"
        }
      ],
      "name": "updateRegistryDescription",
      "outputs": [],
      "payable": false,
      "stateMutability": "nonpayable",
      "type": "function"
    },
    {
      "constant": false,
      "inputs": [
        {
          "name": "_to",
          "type": "address"
        },
        {
          "name": "_approved",
          "type": "bool"
        }
      ],
      "name": "setApprovalForAll",
      "outputs": [],
      "payable": false,
      "stateMutability": "nonpayable",
      "type": "function"
    },
    {
      "constant": true,
      "inputs": [
        {
          "name": "_entryId",
          "type": "uint256"
        }
      ],
      "name": "expensiveUintOf",
      "outputs": [
        {
          "name": "",
          "type": "uint256"
        }
      ],
      "payable": false,
      "stateMutability": "view",
      "type": "function"
    },
    {
      "constant": false,
      "inputs": [
        {
          "name": "_linkABI",
          "type": "string"
        }
      ],
      "name": "updateABILink",
      "outputs": [],
      "payable": false,
      "stateMutability": "nonpayable",
      "type": "function"
    },
    {
      "constant": false,
      "inputs": [
        {
          "name": "_from",
          "type": "address"
        },
        {
          "name": "_to",
          "type": "address"
        },
        {
          "name": "_tokenId",
          "type": "uint256"
        },
        {
          "name": "_data",
          "type": "bytes"
        }
      ],
      "name": "safeTransferFrom",
      "outputs": [],
      "payable": false,
      "stateMutability": "nonpayable",
      "type": "function"
    },
    {
      "constant": false,
      "inputs": [
        {
          "name": "_index",
          "type": "uint256"
        },
        {
          "name": "_tag",
          "type": "bytes32"
        }
      ],
      "name": "removeRegistryTag",
      "outputs": [],
      "payable": false,
      "stateMutability": "nonpayable",
      "type": "function"
    },
    {
      "constant": false,
      "inputs": [
        {
          "name": "_registryName",
          "type": "string"
        }
      ],
      "name": "updateRegistryName",
      "outputs": [],
      "payable": false,
      "stateMutability": "nonpayable",
      "type": "function"
    },
    {
      "constant": true,
      "inputs": [
        {
          "name": "_tokenId",
          "type": "uint256"
        }
      ],
      "name": "tokenURI",
      "outputs": [
        {
          "name": "",
          "type": "string"
        }
      ],
      "payable": false,
      "stateMutability": "view",
      "type": "function"
    },
    {
      "constant": true,
      "inputs": [
        {
          "name": "_entryId",
          "type": "uint256"
        }
      ],
      "name": "lastUpdateTimeOf",
      "outputs": [
        {
          "name": "",
          "type": "uint256"
        }
      ],
      "payable": false,
      "stateMutability": "view",
      "type": "function"
    },
    {
      "constant": true,
      "inputs": [
        {
          "name": "",
          "type": "address"
        }
      ],
      "name": "shares",
      "outputs": [
        {
          "name": "",
          "type": "uint256"
        }
      ],
      "payable": false,
      "stateMutability": "view",
      "type": "function"
    },
    {
      "constant": false,
      "inputs": [
        {
          "name": "_fee",
          "type": "uint256"
        }
      ],
      "name": "updateEntryCreationFee",
      "outputs": [],
      "payable": false,
      "stateMutability": "nonpayable",
      "type": "function"
    },
    {
      "constant": false,
      "inputs": [
        {
          "name": "addrs",
          "type": "address[]"
        }
      ],
      "name": "addAddressesToWhitelist",
      "outputs": [
        {
          "name": "success",
          "type": "bool"
        }
      ],
      "payable": false,
      "stateMutability": "nonpayable",
      "type": "function"
    },
    {
      "constant": true,
      "inputs": [],
      "name": "totalReleased",
      "outputs": [
        {
          "name": "",
          "type": "uint256"
        }
      ],
      "payable": false,
      "stateMutability": "view",
      "type": "function"
    },
    {
      "constant": false,
      "inputs": [
        {
          "name": "_index",
          "type": "uint256"
        },
        {
          "name": "_tag",
          "type": "bytes32"
        }
      ],
      "name": "updateRegistryTag",
      "outputs": [],
      "payable": false,
      "stateMutability": "nonpayable",
      "type": "function"
    },
    {
      "constant": true,
      "inputs": [
        {
          "name": "_owner",
          "type": "address"
        },
        {
          "name": "_operator",
          "type": "address"
        }
      ],
      "name": "isApprovedForAll",
      "outputs": [
        {
          "name": "",
          "type": "bool"
        }
      ],
      "payable": false,
      "stateMutability": "view",
      "type": "function"
    },
    {
      "constant": false,
      "inputs": [
        {
          "name": "newOwner",
          "type": "address"
        }
      ],
      "name": "transferOwnership",
      "outputs": [],
      "payable": false,
      "stateMutability": "nonpayable",
      "type": "function"
    },
    {
      "constant": false,
      "inputs": [
        {
          "name": "_recipient",
          "type": "address"
        }
      ],
      "name": "destroyAndSend",
      "outputs": [],
      "payable": false,
      "stateMutability": "nonpayable",
      "type": "function"
    },
    {
      "constant": true,
      "inputs": [],
      "name": "registryTags",
      "outputs": [
        {
          "name": "",
          "type": "bytes32[]"
        }
      ],
      "payable": false,
      "stateMutability": "view",
      "type": "function"
    },
    {
      "constant": true,
      "inputs": [
        {
          "name": "_entryId",
          "type": "uint256"
        }
      ],
      "name": "expensiveIntOf",
      "outputs": [
        {
          "name": "",
          "type": "int256"
        }
      ],
      "payable": false,
      "stateMutability": "view",
      "type": "function"
    },
    {
      "inputs": [
        {
          "name": "_benefitiaries",
          "type": "address[]"
        },
        {
          "name": "_shares",
          "type": "uint256[]"
        },
        {
          "name": "_permissionType",
          "type": "uint8"
        },
        {
          "name": "_entryCreationFee",
          "type": "uint256"
        },
        {
          "name": "_name",
          "type": "string"
        },
        {
          "name": "_symbol",
          "type": "string"
        },
        {
          "name": "_description",
          "type": "string"
        },
        {
          "name": "_linkABI",
          "type": "string"
        }
      ],
      "payable": true,
      "stateMutability": "payable",
      "type": "constructor"
    },
    {
      "payable": true,
      "stateMutability": "payable",
      "type": "fallback"
    },
    {
      "anonymous": false,
      "inputs": [
        {
          "indexed": false,
          "name": "payeeIndex",
          "type": "uint256"
        },
        {
          "indexed": false,
          "name": "oldAddress",
          "type": "address"
        },
        {
          "indexed": false,
          "name": "newAddress",
          "type": "address"
        }
      ],
      "name": "PayeeAddressChanged",
      "type": "event"
    },
    {
      "anonymous": false,
      "inputs": [
        {
          "indexed": true,
          "name": "_from",
          "type": "address"
        },
        {
          "indexed": true,
          "name": "_to",
          "type": "address"
        },
        {
          "indexed": false,
          "name": "_tokenId",
          "type": "uint256"
        }
      ],
      "name": "Transfer",
      "type": "event"
    },
    {
      "anonymous": false,
      "inputs": [
        {
          "indexed": true,
          "name": "_owner",
          "type": "address"
        },
        {
          "indexed": true,
          "name": "_approved",
          "type": "address"
        },
        {
          "indexed": false,
          "name": "_tokenId",
          "type": "uint256"
        }
      ],
      "name": "Approval",
      "type": "event"
    },
    {
      "anonymous": false,
      "inputs": [
        {
          "indexed": true,
          "name": "_owner",
          "type": "address"
        },
        {
          "indexed": true,
          "name": "_operator",
          "type": "address"
        },
        {
          "indexed": false,
          "name": "_approved",
          "type": "bool"
        }
      ],
      "name": "ApprovalForAll",
      "type": "event"
    },
    {
      "anonymous": false,
      "inputs": [],
      "name": "Pause",
      "type": "event"
    },
    {
      "anonymous": false,
      "inputs": [],
      "name": "Unpause",
      "type": "event"
    },
    {
      "anonymous": false,
      "inputs": [
        {
          "indexed": false,
          "name": "addr",
          "type": "address"
        }
      ],
      "name": "WhitelistedAddressAdded",
      "type": "event"
    },
    {
      "anonymous": false,
      "inputs": [
        {
          "indexed": false,
          "name": "addr",
          "type": "address"
        }
      ],
      "name": "WhitelistedAddressRemoved",
      "type": "event"
    },
    {
      "anonymous": false,
      "inputs": [
        {
          "indexed": false,
          "name": "linkMeta",
          "type": "string"
        }
      ],
      "name": "MetaLinkUpdated",
      "type": "event"
    },
    {
      "anonymous": false,
      "inputs": [
        {
          "indexed": false,
          "name": "linkABI",
          "type": "string"
        }
      ],
      "name": "ABILinkUpdated",
      "type": "event"
    },
    {
      "anonymous": false,
      "inputs": [
        {
          "indexed": false,
          "name": "linkSource",
          "type": "string"
        }
      ],
      "name": "SourceLinkUpdated",
      "type": "event"
    },
    {
      "anonymous": false,
      "inputs": [
        {
          "indexed": true,
          "name": "previousOwner",
          "type": "address"
        },
        {
          "indexed": true,
          "name": "newOwner",
          "type": "address"
        }
      ],
      "name": "OwnershipTransferred",
      "type": "event"
    },
    {
      "anonymous": false,
      "inputs": [
        {
          "indexed": false,
          "name": "creator",
          "type": "address"
        },
        {
          "indexed": false,
          "name": "entryId",
          "type": "uint256"
        }
      ],
      "name": "EntryCreated",
      "type": "event"
    },
    {
      "anonymous": false,
      "inputs": [
        {
          "indexed": false,
          "name": "owner",
          "type": "address"
        },
        {
          "indexed": false,
          "name": "entryId",
          "type": "uint256"
        }
      ],
      "name": "EntryUpdated",
      "type": "event"
    },
    {
      "anonymous": false,
      "inputs": [
        {
          "indexed": false,
          "name": "entryId",
          "type": "uint256"
        },
        {
          "indexed": false,
          "name": "newOwner",
          "type": "address"
        }
      ],
      "name": "EntryChangedOwner",
      "type": "event"
    },
    {
      "anonymous": false,
      "inputs": [
        {
          "indexed": false,
          "name": "owner",
          "type": "address"
        },
        {
          "indexed": false,
          "name": "entryId",
          "type": "uint256"
        }
      ],
      "name": "EntryDeleted",
      "type": "event"
    },
    {
      "constant": false,
      "inputs": [
        {
          "name": "_expensiveAddress",
          "type": "address"
        },
        {
          "name": "_expensiveUint",
          "type": "uint256"
        },
        {
          "name": "_expensiveInt",
          "type": "int256"
        },
        {
          "name": "_expensiveString",
          "type": "string"
        }
      ],
      "name": "createEntry",
      "outputs": [
        {
          "name": "",
          "type": "uint256"
        }
      ],
      "payable": true,
      "stateMutability": "payable",
      "type": "function"
    },
    {
      "constant": false,
      "inputs": [
        {
          "name": "_entryId",
          "type": "uint256"
        }
      ],
      "name": "deleteEntry",
      "outputs": [],
      "payable": false,
      "stateMutability": "nonpayable",
      "type": "function"
    },
    {
      "constant": false,
      "inputs": [
        {
          "name": "_entryId",
          "type": "uint256"
        },
        {
          "name": "_newOwner",
          "type": "address"
        }
      ],
      "name": "transferEntryOwnership",
      "outputs": [],
      "payable": false,
      "stateMutability": "nonpayable",
      "type": "function"
    }
  ],
  "bytecode": "0x6060604052600060015560006002556000600b60006101000a81548160ff02191690831515021790555060405162005a0238038062005a02833981016040528080518201919060200180518201919060200180519060200190919080519060200190919080518201919060200180518201919060200180518201919060200180518201919050508787858583836000815183511415156200009f57600080fd5b600090505b82518110156200010c57620000fe8382815181101515620000c157fe5b906020019060200201518383815181101515620000da57fe5b906020019060200201516200020a64010000000002620053c0176401000000009004565b8080600101915050620000a4565b50505033600660006101000a81548173ffffffffffffffffffffffffffffffffffffffff021916908373ffffffffffffffffffffffffffffffffffffffff1602179055508160149080519060200190620001689291906200039d565b508060159080519060200190620001819291906200039d565b505050505085600b60016101000a81548160ff02191690836002811115620001a557fe5b02179055508060079080519060200190620001c29291906200039d565b5084600c8190555083600d9080519060200190620001e29291906200039d565b5081600e9080519060200190620001fb9291906200039d565b5050505050505050506200047b565b600073ffffffffffffffffffffffffffffffffffffffff168273ffffffffffffffffffffffffffffffffffffffff16141515156200024757600080fd5b6000811115156200025757600080fd5b6000600360008473ffffffffffffffffffffffffffffffffffffffff1673ffffffffffffffffffffffffffffffffffffffff16815260200190815260200160002054141515620002a657600080fd5b60058054806001018281620002bc919062000424565b9160005260206000209001600084909190916101000a81548173ffffffffffffffffffffffffffffffffffffffff021916908373ffffffffffffffffffffffffffffffffffffffff1602179055505080600360008473ffffffffffffffffffffffffffffffffffffffff1673ffffffffffffffffffffffffffffffffffffffff1681526020019081526020016000208190555062000374816001546200037e6401000000000262004945179091906401000000009004565b6001819055505050565b60008082840190508381101515156200039357fe5b8091505092915050565b828054600181600116156101000203166002900490600052602060002090601f016020900481019282601f10620003e057805160ff191683800117855562000411565b8280016001018555821562000411579182015b8281111562000410578251825591602001919060010190620003f3565b5b50905062000420919062000453565b5090565b8154818355818115116200044e578183600052602060002091820191016200044d919062000453565b5b505050565b6200047891905b80821115620004745760008160009055506001016200045a565b5090565b90565b615577806200048b6000396000f3006060604052600436106102eb576000357c0100000000000000000000000000000000000000000000000000000000900463ffffffff16806306fdde03146102ed57806307b1f8f71461037b578063081812fc14610409578063095ea7b31461046c57806311f7516c146104ae5780631654d169146104d157806318160ddd1461055f578063189efc7c1461058857806323b872dd146105af57806324953eaa1461061057806327f5f1b614610682578063286dd3f5146106a55780632f745c59146106f6578063351c6bbe1461074c57806339464884146107835780633a1a3d95146108675780633a98ef39146108905780633f4ba83a146108b957806341c39e5c146108ce57806342842e0e1461095c5780634d45d39e146109bd5780634dfaf97a14610a255780634e71d92d14610ab35780634f558e7914610ac85780634f6ccce714610b035780635886dc9e14610b3a5780635c975abb14610bd657806363037b0c14610c035780636352211e14610c66578063683ae65b14610cc95780636d2fd13814610d0b57806370a0823114610d395780637899b9f314610d865780637b49376814610daf5780637b9417c814610df157806383197ef014610e4257806383ca00ac14610e575780638456cb5914610e855780638da5cb5b14610e9a57806395d89b4114610eef5780639689d2d314610f7d5780639852595c14610fe05780639b19251a1461102d5780639e925a781461107e578063a1f14b271461110c578063a22cb4651461113a578063a427825d1461117e578063acab3bd5146111b5578063b88d4fde146111e3578063bc044e1814611287578063c81225eb146112b7578063c87b56dd146112e5578063cb23a98114611381578063ce7c2ac2146113b8578063d24f707614611405578063e2ec6ec314611428578063e33b7de31461149a578063e59f0cc2146114c3578063e985e9c5146114f3578063f2fde38b14611563578063f5074f411461159c578063f5ec4e50146115d5578063fc3262661461163f575b005b34156102f857600080fd5b610300611676565b6040518080602001828103825283818151815260200191508051906020019080838360005b83811015610340578082015181840152602081019050610325565b50505050905090810190601f16801561036d5780820380516001836020036101000a031916815260200191505b509250505060405180910390f35b341561038657600080fd5b61038e61171e565b6040518080602001828103825283818151815260200191508051906020019080838360005b838110156103ce5780820151818401526020810190506103b3565b50505050905090810190601f1680156103fb5780820380516001836020036101000a031916815260200191505b509250505060405180910390f35b341561041457600080fd5b61042a60048080359060200190919050506117c6565b604051808273ffffffffffffffffffffffffffffffffffffffff1673ffffffffffffffffffffffffffffffffffffffff16815260200191505060405180910390f35b341561047757600080fd5b6104ac600480803573ffffffffffffffffffffffffffffffffffffffff16906020019091908035906020019091905050611803565b005b34156104b957600080fd5b6104cf60048080359060200190919050506119c9565b005b34156104dc57600080fd5b6104e4611cd8565b6040518080602001828103825283818151815260200191508051906020019080838360005b83811015610524578082015181840152602081019050610509565b50505050905090810190601f1680156105515780820380516001836020036101000a031916815260200191505b509250505060405180910390f35b341561056a57600080fd5b610572611d80565b6040518082815260200191505060405180910390f35b341561059357600080fd5b6105ad600480803560001916906020019091905050611d8d565b005b34156105ba57600080fd5b61060e600480803573ffffffffffffffffffffffffffffffffffffffff1690602001909190803573ffffffffffffffffffffffffffffffffffffffff16906020019091908035906020019091905050611e2f565b005b341561061b57600080fd5b610668600480803590602001908201803590602001908080602002602001604051908101604052809392919081815260200183836020028082843782019150505050505091905050611f46565b604051808215151515815260200191505060405180910390f35b341561068d57600080fd5b6106a36004808035906020019091905050611ff0565b005b34156106b057600080fd5b6106dc600480803573ffffffffffffffffffffffffffffffffffffffff16906020019091905050612097565b604051808215151515815260200191505060405180910390f35b341561070157600080fd5b610736600480803573ffffffffffffffffffffffffffffffffffffffff1690602001909190803590602001909190505061220c565b6040518082815260200191505060405180910390f35b341561075757600080fd5b61075f612284565b6040518082600281111561076f57fe5b60ff16815260200191505060405180910390f35b341561078e57600080fd5b6107a4600480803590602001909190505061229b565b604051808673ffffffffffffffffffffffffffffffffffffffff1673ffffffffffffffffffffffffffffffffffffffff16815260200185815260200184815260200180602001838152602001828103825284818151815260200191508051906020019080838360005b8381101561082857808201518184015260208101905061080d565b50505050905090810190601f1680156108555780820380516001836020036101000a031916815260200191505b50965050505050505060405180910390f35b341561087257600080fd5b61087a6122ea565b6040518082815260200191505060405180910390f35b341561089b57600080fd5b6108a36122f4565b6040518082815260200191505060405180910390f35b34156108c457600080fd5b6108cc6122fa565b005b34156108d957600080fd5b6108e16123ba565b6040518080602001828103825283818151815260200191508051906020019080838360005b83811015610921578082015181840152602081019050610906565b50505050905090810190601f16801561094e5780820380516001836020036101000a031916815260200191505b509250505060405180910390f35b341561096757600080fd5b6109bb600480803573ffffffffffffffffffffffffffffffffffffffff1690602001909190803573ffffffffffffffffffffffffffffffffffffffff16906020019091908035906020019091905050612462565b005b610a0f600480803573ffffffffffffffffffffffffffffffffffffffff16906020019091908035906020019091908035906020019091908035906020019082018035906020019190919290505061249a565b6040518082815260200191505060405180910390f35b3415610a3057600080fd5b610a3861284c565b6040518080602001828103825283818151815260200191508051906020019080838360005b83811015610a78578082015181840152602081019050610a5d565b50505050905090810190601f168015610aa55780820380516001836020036101000a031916815260200191505b509250505060405180910390f35b3415610abe57600080fd5b610ac66128f4565b005b3415610ad357600080fd5b610ae96004808035906020019091905050612b5c565b604051808215151515815260200191505060405180910390f35b3415610b0e57600080fd5b610b246004808035906020019091905050612bce565b6040518082815260200191505060405180910390f35b3415610b4557600080fd5b610b5b6004808035906020019091905050612c07565b6040518080602001828103825283818151815260200191508051906020019080838360005b83811015610b9b578082015181840152602081019050610b80565b50505050905090810190601f168015610bc85780820380516001836020036101000a031916815260200191505b509250505060405180910390f35b3415610be157600080fd5b610be9612ccf565b604051808215151515815260200191505060405180910390f35b3415610c0e57600080fd5b610c246004808035906020019091905050612ce2565b604051808273ffffffffffffffffffffffffffffffffffffffff1673ffffffffffffffffffffffffffffffffffffffff16815260200191505060405180910390f35b3415610c7157600080fd5b610c876004808035906020019091905050612d21565b604051808273ffffffffffffffffffffffffffffffffffffffff1673ffffffffffffffffffffffffffffffffffffffff16815260200191505060405180910390f35b3415610cd457600080fd5b610d09600480803590602001909190803573ffffffffffffffffffffffffffffffffffffffff16906020019091905050612d9f565b005b3415610d1657600080fd5b610d3760048080359060200190820180359060200191909192905050612e80565b005b3415610d4457600080fd5b610d70600480803573ffffffffffffffffffffffffffffffffffffffff16906020019091905050612f43565b6040518082815260200191505060405180910390f35b3415610d9157600080fd5b610d99612fc7565b6040518082815260200191505060405180910390f35b3415610dba57600080fd5b610def600480803590602001909190803573ffffffffffffffffffffffffffffffffffffffff16906020019091905050612fd3565b005b3415610dfc57600080fd5b610e28600480803573ffffffffffffffffffffffffffffffffffffffff169060200190919050506132f7565b604051808215151515815260200191505060405180910390f35b3415610e4d57600080fd5b610e5561346d565b005b3415610e6257600080fd5b610e8360048080359060200190820180359060200191909192905050613504565b005b3415610e9057600080fd5b610e986135c7565b005b3415610ea557600080fd5b610ead613688565b604051808273ffffffffffffffffffffffffffffffffffffffff1673ffffffffffffffffffffffffffffffffffffffff16815260200191505060405180910390f35b3415610efa57600080fd5b610f026136ae565b6040518080602001828103825283818151815260200191508051906020019080838360005b83811015610f42578082015181840152602081019050610f27565b50505050905090810190601f168015610f6f5780820380516001836020036101000a031916815260200191505b509250505060405180910390f35b3415610f8857600080fd5b610f9e6004808035906020019091905050613756565b604051808273ffffffffffffffffffffffffffffffffffffffff1673ffffffffffffffffffffffffffffffffffffffff16815260200191505060405180910390f35b3415610feb57600080fd5b611017600480803573ffffffffffffffffffffffffffffffffffffffff1690602001909190505061379f565b6040518082815260200191505060405180910390f35b341561103857600080fd5b611064600480803573ffffffffffffffffffffffffffffffffffffffff169060200190919050506137b7565b604051808215151515815260200191505060405180910390f35b341561108957600080fd5b6110916137d7565b6040518080602001828103825283818151815260200191508051906020019080838360005b838110156110d15780820151818401526020810190506110b6565b50505050905090810190601f1680156110fe5780820380516001836020036101000a031916815260200191505b509250505060405180910390f35b341561111757600080fd5b6111386004808035906020019082018035906020019190919290505061387f565b005b341561114557600080fd5b61117c600480803573ffffffffffffffffffffffffffffffffffffffff16906020019091908035151590602001909190505061390b565b005b341561118957600080fd5b61119f6004808035906020019091905050613a47565b6040518082815260200191505060405180910390f35b34156111c057600080fd5b6111e160048080359060200190820180359060200191909192905050613a70565b005b34156111ee57600080fd5b611285600480803573ffffffffffffffffffffffffffffffffffffffff1690602001909190803573ffffffffffffffffffffffffffffffffffffffff1690602001909190803590602001909190803590602001908201803590602001908080601f01602080910402602001604051908101604052809392919081815260200183838082843782019150505050505091905050613b33565b005b341561129257600080fd5b6112b5600480803590602001909190803560001916906020019091905050613b72565b005b34156112c257600080fd5b6112e360048080359060200190820180359060200191909192905050613c70565b005b34156112f057600080fd5b6113066004808035906020019091905050613d07565b6040518080602001828103825283818151815260200191508051906020019080838360005b8381101561134657808201518184015260208101905061132b565b50505050905090810190601f1680156113735780820380516001836020036101000a031916815260200191505b509250505060405180910390f35b341561138c57600080fd5b6113a26004808035906020019091905050613dd6565b6040518082815260200191505060405180910390f35b34156113c357600080fd5b6113ef600480803573ffffffffffffffffffffffffffffffffffffffff16906020019091905050613dff565b6040518082815260200191505060405180910390f35b341561141057600080fd5b6114266004808035906020019091905050613e17565b005b341561143357600080fd5b611480600480803590602001908201803590602001908080602002602001604051908101604052809392919081815260200183836020028082843782019150505050505091905050613e7d565b604051808215151515815260200191505060405180910390f35b34156114a557600080fd5b6114ad613f27565b6040518082815260200191505060405180910390f35b34156114ce57600080fd5b6114f1600480803590602001909190803560001916906020019091905050613f2d565b005b34156114fe57600080fd5b611549600480803573ffffffffffffffffffffffffffffffffffffffff1690602001909190803573ffffffffffffffffffffffffffffffffffffffff16906020019091905050613fc4565b604051808215151515815260200191505060405180910390f35b341561156e57600080fd5b61159a600480803573ffffffffffffffffffffffffffffffffffffffff16906020019091905050614058565b005b34156115a757600080fd5b6115d3600480803573ffffffffffffffffffffffffffffffffffffffff169060200190919050506141b0565b005b34156115e057600080fd5b6115e8614225565b6040518080602001828103825283818151815260200191508051906020019060200280838360005b8381101561162b578082015181840152602081019050611610565b505050509050019250505060405180910390f35b341561164a57600080fd5b6116606004808035906020019091905050614287565b6040518082815260200191505060405180910390f35b61167e614f59565b60148054600181600116156101000203166002900480601f0160208091040260200160405190810160405280929190818152602001828054600181600116156101000203166002900480156117145780601f106116e957610100808354040283529160200191611714565b820191906000526020600020905b8154815290600101906020018083116116f757829003601f168201915b5050505050905090565b611726614f59565b60098054600181600116156101000203166002900480601f0160208091040260200160405190810160405280929190818152602001828054600181600116156101000203166002900480156117bc5780601f10611791576101008083540402835291602001916117bc565b820191906000526020600020905b81548152906001019060200180831161179f57829003601f168201915b5050505050905090565b60006011600083815260200190815260200160002060009054906101000a900473ffffffffffffffffffffffffffffffffffffffff169050919050565b600061180e82612d21565b90508073ffffffffffffffffffffffffffffffffffffffff168373ffffffffffffffffffffffffffffffffffffffff161415151561184b57600080fd5b8073ffffffffffffffffffffffffffffffffffffffff163373ffffffffffffffffffffffffffffffffffffffff16148061188b575061188a8133613fc4565b5b151561189657600080fd5b600073ffffffffffffffffffffffffffffffffffffffff166118b7836117c6565b73ffffffffffffffffffffffffffffffffffffffff161415806119075750600073ffffffffffffffffffffffffffffffffffffffff168373ffffffffffffffffffffffffffffffffffffffff1614155b156119c457826011600084815260200190815260200160002060006101000a81548173ffffffffffffffffffffffffffffffffffffffff021916908373ffffffffffffffffffffffffffffffffffffffff1602179055508273ffffffffffffffffffffffffffffffffffffffff168173ffffffffffffffffffffffffffffffffffffffff167f8c5be1e5ebec7d5bd14f71427d1e84f3dd0314c0f7b2291e5b200ac8c7c3b925846040518082815260200191505060405180910390a35b505050565b6000806000600b60009054906101000a900460ff161515156119ea57600080fd5b3373ffffffffffffffffffffffffffffffffffffffff16611a0a85612d21565b73ffffffffffffffffffffffffffffffffffffffff16141515611a2c57600080fd5b60196000858152602001908152602001600020549250611a5b60016000805490506142b090919063ffffffff16565b9150600082815481101515611a6c57fe5b9060005260206000209060060201905080600084815481101515611a8c57fe5b90600052602060002090600602016000820160009054906101000a900473ffffffffffffffffffffffffffffffffffffffff168160000160006101000a81548173ffffffffffffffffffffffffffffffffffffffff021916908373ffffffffffffffffffffffffffffffffffffffff160217905550600182015481600101556002820154816002015560038201816003019080546001816001161561010002031660029004611b3c929190614f6d565b506004820160009054906101000a900473ffffffffffffffffffffffffffffffffffffffff168160040160006101000a81548173ffffffffffffffffffffffffffffffffffffffff021916908373ffffffffffffffffffffffffffffffffffffffff16021790555060058201548160050155905050600082815481101515611bc057fe5b9060005260206000209060060201600080820160006101000a81549073ffffffffffffffffffffffffffffffffffffffff021916905560018201600090556002820160009055600382016000611c169190614ff4565b6004820160006101000a81549073ffffffffffffffffffffffffffffffffffffffff0219169055600582016000905550506000805480919060019003611c5c919061503c565b50611c6733856142c9565b7f863d345cb8a315b82cf25ba9b949c03407c0298f0b316ee400d4a2256a96a1943385604051808373ffffffffffffffffffffffffffffffffffffffff1673ffffffffffffffffffffffffffffffffffffffff1681526020018281526020019250505060405180910390a150505050565b611ce0614f59565b600d8054600181600116156101000203166002900480601f016020809104026020016040519081016040528092919081815260200182805460018160011615610100020316600290048015611d765780601f10611d4b57610100808354040283529160200191611d76565b820191906000526020600020905b815481529060010190602001808311611d5957829003601f168201915b5050505050905090565b6000601880549050905090565b600660009054906101000a900473ffffffffffffffffffffffffffffffffffffffff1673ffffffffffffffffffffffffffffffffffffffff163373ffffffffffffffffffffffffffffffffffffffff16141515611de957600080fd5b6010602060ff1611151515611dfd57600080fd5b600f8054806001018281611e11919061506e565b91600052602060002090016000839091909150906000191690555050565b80611e3a3382614404565b1515611e4557600080fd5b600073ffffffffffffffffffffffffffffffffffffffff168473ffffffffffffffffffffffffffffffffffffffff1614151515611e8157600080fd5b600073ffffffffffffffffffffffffffffffffffffffff168373ffffffffffffffffffffffffffffffffffffffff1614151515611ebd57600080fd5b611ec78483614499565b611ed18483614602565b611edb838361481d565b8273ffffffffffffffffffffffffffffffffffffffff168473ffffffffffffffffffffffffffffffffffffffff167fddf252ad1be2c89b69c2b068fc378daa952ba7f163c4a11628f55a4df523b3ef846040518082815260200191505060405180910390a350505050565b600080600660009054906101000a900473ffffffffffffffffffffffffffffffffffffffff1673ffffffffffffffffffffffffffffffffffffffff163373ffffffffffffffffffffffffffffffffffffffff16141515611fa557600080fd5b600090505b8251811015611fea57611fd38382815181101515611fc457fe5b90602001906020020151612097565b15611fdd57600191505b8080600101915050611faa565b50919050565b600660009054906101000a900473ffffffffffffffffffffffffffffffffffffffff1673ffffffffffffffffffffffffffffffffffffffff163373ffffffffffffffffffffffffffffffffffffffff1614151561204c57600080fd5b8060028081111561205957fe5b1015151561206657600080fd5b80600281111561207257fe5b600b60016101000a81548160ff0219169083600281111561208f57fe5b021790555050565b6000600660009054906101000a900473ffffffffffffffffffffffffffffffffffffffff1673ffffffffffffffffffffffffffffffffffffffff163373ffffffffffffffffffffffffffffffffffffffff161415156120f557600080fd5b600a60008373ffffffffffffffffffffffffffffffffffffffff1673ffffffffffffffffffffffffffffffffffffffff16815260200190815260200160002060009054906101000a900460ff1615612207576000600a60008473ffffffffffffffffffffffffffffffffffffffff1673ffffffffffffffffffffffffffffffffffffffff16815260200190815260200160002060006101000a81548160ff0219169083151502179055507ff1abf01a1043b7c244d128e8595cf0c1d10743b022b03a02dffd8ca3bf729f5a82604051808273ffffffffffffffffffffffffffffffffffffffff1673ffffffffffffffffffffffffffffffffffffffff16815260200191505060405180910390a1600190505b919050565b600061221783612f43565b8210151561222457600080fd5b601660008473ffffffffffffffffffffffffffffffffffffffff1673ffffffffffffffffffffffffffffffffffffffff1681526020019081526020016000208281548110151561227057fe5b906000526020600020900154905092915050565b6000600b60019054906101000a900460ff16905090565b60008060006122a8614f59565b60006122b386613756565b6122bc87613a47565b6122c588614287565b6122ce89612c07565b6122d78a613dd6565b9450945094509450945091939590929450565b6000600c54905090565b60015481565b600660009054906101000a900473ffffffffffffffffffffffffffffffffffffffff1673ffffffffffffffffffffffffffffffffffffffff163373ffffffffffffffffffffffffffffffffffffffff1614151561235657600080fd5b600b60009054906101000a900460ff16151561237157600080fd5b6000600b60006101000a81548160ff0219169083151502179055507f7805862f689e2f13df9f062ff482ad3ad112aca9e0847911ed832e158c525b3360405160405180910390a1565b6123c2614f59565b600e8054600181600116156101000203166002900480601f0160208091040260200160405190810160405280929190818152602001828054600181600116156101000203166002900480156124585780601f1061242d57610100808354040283529160200191612458565b820191906000526020600020905b81548152906001019060200180831161243b57829003601f168201915b5050505050905090565b8061246d3382614404565b151561247857600080fd5b6124948484846020604051908101604052806000815250613b33565b50505050565b60006124a461509a565b6000600b60009054906101000a900460ff161515156124c257600080fd5b600060028111156124cf57fe5b600b60019054906101000a900460ff1660028111156124ea57fe5b141561255157600660009054906101000a900473ffffffffffffffffffffffffffffffffffffffff1673ffffffffffffffffffffffffffffffffffffffff163373ffffffffffffffffffffffffffffffffffffffff1614151561254c57600080fd5b612631565b6001600281111561255e57fe5b600b60019054906101000a900460ff16600281111561257957fe5b141561263057600a60003373ffffffffffffffffffffffffffffffffffffffff1673ffffffffffffffffffffffffffffffffffffffff16815260200190815260200160002060009054906101000a900460ff16806126245750600660009054906101000a900473ffffffffffffffffffffffffffffffffffffffff1673ffffffffffffffffffffffffffffffffffffffff163373ffffffffffffffffffffffffffffffffffffffff16145b151561262f57600080fd5b5b5b600c543414151561264157600080fd5b60c0604051908101604052808973ffffffffffffffffffffffffffffffffffffffff16815260200188815260200187815260200186868080601f01602080910402602001604051908101604052809392919081815260200183838082843782019150505050505081526020013373ffffffffffffffffffffffffffffffffffffffff1681526020014281525091506001600080548060010182816126e59190615103565b9160005260206000209060060201600085909190915060008201518160000160006101000a81548173ffffffffffffffffffffffffffffffffffffffff021916908373ffffffffffffffffffffffffffffffffffffffff16021790555060208201518160010155604082015181600201556060820151816003019080519060200190612772929190615135565b5060808201518160040160006101000a81548173ffffffffffffffffffffffffffffffffffffffff021916908373ffffffffffffffffffffffffffffffffffffffff16021790555060a0820151816005015550500390506127d333826148f1565b7fe9a0a2aca9c41fae94448dec8914ad73e4d00ebdc2427e61f3fc66919f4ffa2a3382604051808373ffffffffffffffffffffffffffffffffffffffff1673ffffffffffffffffffffffffffffffffffffffff1681526020018281526020019250505060405180910390a1809250505095945050505050565b612854614f59565b60088054600181600116156101000203166002900480601f0160208091040260200160405190810160405280929190818152602001828054600181600116156101000203166002900480156128ea5780601f106128bf576101008083540402835291602001916128ea565b820191906000526020600020905b8154815290600101906020018083116128cd57829003601f168201915b5050505050905090565b60008060003392506000600360008573ffffffffffffffffffffffffffffffffffffffff1673ffffffffffffffffffffffffffffffffffffffff1681526020019081526020016000205411151561294a57600080fd5b6129766002543073ffffffffffffffffffffffffffffffffffffffff163161494590919063ffffffff16565b9150612a2f600460008573ffffffffffffffffffffffffffffffffffffffff1673ffffffffffffffffffffffffffffffffffffffff16815260200190815260200160002054612a21600154612a13600360008973ffffffffffffffffffffffffffffffffffffffff1673ffffffffffffffffffffffffffffffffffffffff168152602001908152602001600020548761496390919063ffffffff16565b61499e90919063ffffffff16565b6142b090919063ffffffff16565b905060008114151515612a4157600080fd5b803073ffffffffffffffffffffffffffffffffffffffff163110151515612a6757600080fd5b612ab981600460008673ffffffffffffffffffffffffffffffffffffffff1673ffffffffffffffffffffffffffffffffffffffff1681526020019081526020016000205461494590919063ffffffff16565b600460008573ffffffffffffffffffffffffffffffffffffffff1673ffffffffffffffffffffffffffffffffffffffff16815260200190815260200160002081905550612b118160025461494590919063ffffffff16565b6002819055508273ffffffffffffffffffffffffffffffffffffffff166108fc829081150290604051600060405180830381858888f193505050501515612b5757600080fd5b505050565b6000806010600084815260200190815260200160002060009054906101000a900473ffffffffffffffffffffffffffffffffffffffff169050600073ffffffffffffffffffffffffffffffffffffffff168173ffffffffffffffffffffffffffffffffffffffff161415915050919050565b6000612bd8611d80565b82101515612be557600080fd5b601882815481101515612bf457fe5b9060005260206000209001549050919050565b612c0f614f59565b600082815481101515612c1e57fe5b90600052602060002090600602016003018054600181600116156101000203166002900480601f016020809104026020016040519081016040528092919081815260200182805460018160011615610100020316600290048015612cc35780601f10612c9857610100808354040283529160200191612cc3565b820191906000526020600020905b815481529060010190602001808311612ca657829003601f168201915b50505050509050919050565b600b60009054906101000a900460ff1681565b600581815481101515612cf157fe5b90600052602060002090016000915054906101000a900473ffffffffffffffffffffffffffffffffffffffff1681565b6000806010600084815260200190815260200160002060009054906101000a900473ffffffffffffffffffffffffffffffffffffffff169050600073ffffffffffffffffffffffffffffffffffffffff168173ffffffffffffffffffffffffffffffffffffffff1614151515612d9657600080fd5b80915050919050565b600b60009054906101000a900460ff16151515612dbb57600080fd5b3373ffffffffffffffffffffffffffffffffffffffff16612ddb83612d21565b73ffffffffffffffffffffffffffffffffffffffff16141515612dfd57600080fd5b612e073383614602565b612e11818361481d565b7fe93f305b235917d8ff8103ff4bb045df5935484b45bfd248c7fec5f04fecf92d8282604051808381526020018273ffffffffffffffffffffffffffffffffffffffff1673ffffffffffffffffffffffffffffffffffffffff1681526020019250505060405180910390a15050565b600660009054906101000a900473ffffffffffffffffffffffffffffffffffffffff1673ffffffffffffffffffffffffffffffffffffffff163373ffffffffffffffffffffffffffffffffffffffff16141515612edc57600080fd5b818160089190612eed9291906151b5565b507f6362a59ae98fef1a0a45d03a1127a82c2268ca380148117a052b9f8bce8e6f1e8282604051808060200182810382528484828181526020019250808284378201915050935050505060405180910390a15050565b60008073ffffffffffffffffffffffffffffffffffffffff168273ffffffffffffffffffffffffffffffffffffffff1614151515612f8057600080fd5b601260008373ffffffffffffffffffffffffffffffffffffffff1673ffffffffffffffffffffffffffffffffffffffff168152602001908152602001600020549050919050565b60008080549050905090565b6000600660009054906101000a900473ffffffffffffffffffffffffffffffffffffffff1673ffffffffffffffffffffffffffffffffffffffff163373ffffffffffffffffffffffffffffffffffffffff1614151561303157600080fd5b60058381548110151561304057fe5b906000526020600020900160009054906101000a900473ffffffffffffffffffffffffffffffffffffffff169050600360008273ffffffffffffffffffffffffffffffffffffffff1673ffffffffffffffffffffffffffffffffffffffff16815260200190815260200160002054600360008473ffffffffffffffffffffffffffffffffffffffff1673ffffffffffffffffffffffffffffffffffffffff16815260200190815260200160002081905550600460008273ffffffffffffffffffffffffffffffffffffffff1673ffffffffffffffffffffffffffffffffffffffff16815260200190815260200160002054600460008473ffffffffffffffffffffffffffffffffffffffff1673ffffffffffffffffffffffffffffffffffffffff168152602001908152602001600020819055508160058481548110151561318457fe5b906000526020600020900160006101000a81548173ffffffffffffffffffffffffffffffffffffffff021916908373ffffffffffffffffffffffffffffffffffffffff160217905550600360008273ffffffffffffffffffffffffffffffffffffffff1673ffffffffffffffffffffffffffffffffffffffff16815260200190815260200160002060009055600460008273ffffffffffffffffffffffffffffffffffffffff1673ffffffffffffffffffffffffffffffffffffffff168152602001908152602001600020600090557fa1982f3fe3fa9dba8ce5bc91687e2ab0850b0431cddacc1a249b2ae0390b912f838284604051808481526020018373ffffffffffffffffffffffffffffffffffffffff1673ffffffffffffffffffffffffffffffffffffffff1681526020018273ffffffffffffffffffffffffffffffffffffffff1673ffffffffffffffffffffffffffffffffffffffff168152602001935050505060405180910390a1505050565b6000600660009054906101000a900473ffffffffffffffffffffffffffffffffffffffff1673ffffffffffffffffffffffffffffffffffffffff163373ffffffffffffffffffffffffffffffffffffffff1614151561335557600080fd5b600a60008373ffffffffffffffffffffffffffffffffffffffff1673ffffffffffffffffffffffffffffffffffffffff16815260200190815260200160002060009054906101000a900460ff161515613468576001600a60008473ffffffffffffffffffffffffffffffffffffffff1673ffffffffffffffffffffffffffffffffffffffff16815260200190815260200160002060006101000a81548160ff0219169083151502179055507fd1bba68c128cc3f427e5831b3c6f99f480b6efa6b9e80c757768f6124158cc3f82604051808273ffffffffffffffffffffffffffffffffffffffff1673ffffffffffffffffffffffffffffffffffffffff16815260200191505060405180910390a1600190505b919050565b600660009054906101000a900473ffffffffffffffffffffffffffffffffffffffff1673ffffffffffffffffffffffffffffffffffffffff163373ffffffffffffffffffffffffffffffffffffffff161415156134c957600080fd5b600660009054906101000a900473ffffffffffffffffffffffffffffffffffffffff1673ffffffffffffffffffffffffffffffffffffffff16ff5b600660009054906101000a900473ffffffffffffffffffffffffffffffffffffffff1673ffffffffffffffffffffffffffffffffffffffff163373ffffffffffffffffffffffffffffffffffffffff1614151561356057600080fd5b8181600991906135719291906151b5565b507fcfaf57d92b1b2684731a770c593d162587ca98e9d372be876ab14b389866f0f68282604051808060200182810382528484828181526020019250808284378201915050935050505060405180910390a15050565b600660009054906101000a900473ffffffffffffffffffffffffffffffffffffffff1673ffffffffffffffffffffffffffffffffffffffff163373ffffffffffffffffffffffffffffffffffffffff1614151561362357600080fd5b600b60009054906101000a900460ff1615151561363f57600080fd5b6001600b60006101000a81548160ff0219169083151502179055507f6985a02210a168e66602d3235cb6db0e70f92b3ba4d376a33c0f3d9434bff62560405160405180910390a1565b600660009054906101000a900473ffffffffffffffffffffffffffffffffffffffff1681565b6136b6614f59565b60158054600181600116156101000203166002900480601f01602080910402602001604051908101604052809291908181526020018280546001816001161561010002031660029004801561374c5780601f106137215761010080835404028352916020019161374c565b820191906000526020600020905b81548152906001019060200180831161372f57829003601f168201915b5050505050905090565b6000808281548110151561376657fe5b906000526020600020906006020160000160009054906101000a900473ffffffffffffffffffffffffffffffffffffffff169050919050565b60046020528060005260406000206000915090505481565b600a6020528060005260406000206000915054906101000a900460ff1681565b6137df614f59565b60078054600181600116156101000203166002900480601f0160208091040260200160405190810160405280929190818152602001828054600181600116156101000203166002900480156138755780601f1061384a57610100808354040283529160200191613875565b820191906000526020600020905b81548152906001019060200180831161385857829003601f168201915b5050505050905090565b6000600660009054906101000a900473ffffffffffffffffffffffffffffffffffffffff1673ffffffffffffffffffffffffffffffffffffffff163373ffffffffffffffffffffffffffffffffffffffff161415156138dd57600080fd5b82829050905061010081111515156138f457600080fd5b8282600e91906139059291906151b5565b50505050565b3373ffffffffffffffffffffffffffffffffffffffff168273ffffffffffffffffffffffffffffffffffffffff161415151561394657600080fd5b80601360003373ffffffffffffffffffffffffffffffffffffffff1673ffffffffffffffffffffffffffffffffffffffff16815260200190815260200160002060008473ffffffffffffffffffffffffffffffffffffffff1673ffffffffffffffffffffffffffffffffffffffff16815260200190815260200160002060006101000a81548160ff0219169083151502179055508173ffffffffffffffffffffffffffffffffffffffff163373ffffffffffffffffffffffffffffffffffffffff167f17307eab39ab6107e8899845ad3d59bd9653f200f220920489ca2b5937696c3183604051808215151515815260200191505060405180910390a35050565b60008082815481101515613a5757fe5b9060005260206000209060060201600101549050919050565b600660009054906101000a900473ffffffffffffffffffffffffffffffffffffffff1673ffffffffffffffffffffffffffffffffffffffff163373ffffffffffffffffffffffffffffffffffffffff16141515613acc57600080fd5b818160079190613add9291906151b5565b507f97bc322e754962c4ff23eb8a9d58b147ead5be0347d9a799addc5a2d44564cbe8282604051808060200182810382528484828181526020019250808284378201915050935050505060405180910390a15050565b81613b3e3382614404565b1515613b4957600080fd5b613b54858585611e2f565b613b60858585856149b9565b1515613b6b57600080fd5b5050505050565b600080600660009054906101000a900473ffffffffffffffffffffffffffffffffffffffff1673ffffffffffffffffffffffffffffffffffffffff163373ffffffffffffffffffffffffffffffffffffffff16141515613bd157600080fd5b6010602060ff1611151515613be557600080fd5b6001600f80549050039150600f82815481101515613bff57fe5b906000526020600020900154905080600f85815481101515613c1d57fe5b906000526020600020900181600019169055506000600f83815481101515613c4157fe5b90600052602060002090018160001916905550600f805480919060019003613c699190615235565b5050505050565b6000600660009054906101000a900473ffffffffffffffffffffffffffffffffffffffff1673ffffffffffffffffffffffffffffffffffffffff163373ffffffffffffffffffffffffffffffffffffffff16141515613cce57600080fd5b828290509050600081118015613ce5575060208111155b1515613cf057600080fd5b8282600d9190613d019291906151b5565b50505050565b613d0f614f59565b613d1882612b5c565b1515613d2357600080fd5b601a60008381526020019081526020016000208054600181600116156101000203166002900480601f016020809104026020016040519081016040528092919081815260200182805460018160011615610100020316600290048015613dca5780601f10613d9f57610100808354040283529160200191613dca565b820191906000526020600020905b815481529060010190602001808311613dad57829003601f168201915b50505050509050919050565b60008082815481101515613de657fe5b9060005260206000209060060201600501549050919050565b60036020528060005260406000206000915090505481565b600660009054906101000a900473ffffffffffffffffffffffffffffffffffffffff1673ffffffffffffffffffffffffffffffffffffffff163373ffffffffffffffffffffffffffffffffffffffff16141515613e7357600080fd5b80600c8190555050565b600080600660009054906101000a900473ffffffffffffffffffffffffffffffffffffffff1673ffffffffffffffffffffffffffffffffffffffff163373ffffffffffffffffffffffffffffffffffffffff16141515613edc57600080fd5b600090505b8251811015613f2157613f0a8382815181101515613efb57fe5b906020019060200201516132f7565b15613f1457600191505b8080600101915050613ee1565b50919050565b60025481565b600660009054906101000a900473ffffffffffffffffffffffffffffffffffffffff1673ffffffffffffffffffffffffffffffffffffffff163373ffffffffffffffffffffffffffffffffffffffff16141515613f8957600080fd5b6010602060ff1611151515613f9d57600080fd5b80600f83815481101515613fad57fe5b906000526020600020900181600019169055505050565b6000601360008473ffffffffffffffffffffffffffffffffffffffff1673ffffffffffffffffffffffffffffffffffffffff16815260200190815260200160002060008373ffffffffffffffffffffffffffffffffffffffff1673ffffffffffffffffffffffffffffffffffffffff16815260200190815260200160002060009054906101000a900460ff16905092915050565b600660009054906101000a900473ffffffffffffffffffffffffffffffffffffffff1673ffffffffffffffffffffffffffffffffffffffff163373ffffffffffffffffffffffffffffffffffffffff161415156140b457600080fd5b600073ffffffffffffffffffffffffffffffffffffffff168173ffffffffffffffffffffffffffffffffffffffff16141515156140f057600080fd5b8073ffffffffffffffffffffffffffffffffffffffff16600660009054906101000a900473ffffffffffffffffffffffffffffffffffffffff1673ffffffffffffffffffffffffffffffffffffffff167f8be0079c531659141344cd1fd0a4f28419497f9722a3daafe3b4186f6b6457e060405160405180910390a380600660006101000a81548173ffffffffffffffffffffffffffffffffffffffff021916908373ffffffffffffffffffffffffffffffffffffffff16021790555050565b600660009054906101000a900473ffffffffffffffffffffffffffffffffffffffff1673ffffffffffffffffffffffffffffffffffffffff163373ffffffffffffffffffffffffffffffffffffffff1614151561420c57600080fd5b8073ffffffffffffffffffffffffffffffffffffffff16ff5b61422d615261565b600f80548060200260200160405190810160405280929190818152602001828054801561427d57602002820191906000526020600020905b81546000191681526020019060010190808311614265575b5050505050905090565b6000808281548110151561429757fe5b9060005260206000209060060201600201549050919050565b60008282111515156142be57fe5b818303905092915050565b60008060006142d88585614b8f565b6000601a600086815260200190815260200160002080546001816001161561010002031660029004905014151561432957601a600085815260200190815260200160002060006143289190614ff4565b5b6019600085815260200190815260200160002054925061435860016018805490506142b090919063ffffffff16565b915060188281548110151561436957fe5b90600052602060002090015490508060188481548110151561438757fe5b90600052602060002090018190555060006018838154811015156143a757fe5b90600052602060002090018190555060188054809190600190036143cb9190615275565b50600060196000868152602001908152602001600020819055508260196000838152602001908152602001600020819055505050505050565b60008061441083612d21565b90508073ffffffffffffffffffffffffffffffffffffffff168473ffffffffffffffffffffffffffffffffffffffff16148061447f57508373ffffffffffffffffffffffffffffffffffffffff16614467846117c6565b73ffffffffffffffffffffffffffffffffffffffff16145b80614490575061448f8185613fc4565b5b91505092915050565b8173ffffffffffffffffffffffffffffffffffffffff166144b982612d21565b73ffffffffffffffffffffffffffffffffffffffff161415156144db57600080fd5b600073ffffffffffffffffffffffffffffffffffffffff166011600083815260200190815260200160002060009054906101000a900473ffffffffffffffffffffffffffffffffffffffff1673ffffffffffffffffffffffffffffffffffffffff161415156145fe5760006011600083815260200190815260200160002060006101000a81548173ffffffffffffffffffffffffffffffffffffffff021916908373ffffffffffffffffffffffffffffffffffffffff160217905550600073ffffffffffffffffffffffffffffffffffffffff168273ffffffffffffffffffffffffffffffffffffffff167f8c5be1e5ebec7d5bd14f71427d1e84f3dd0314c0f7b2291e5b200ac8c7c3b925836040518082815260200191505060405180910390a35b5050565b60008060006146118585614c0d565b6017600085815260200190815260200160002054925061467d6001601660008873ffffffffffffffffffffffffffffffffffffffff1673ffffffffffffffffffffffffffffffffffffffff168152602001908152602001600020805490506142b090919063ffffffff16565b9150601660008673ffffffffffffffffffffffffffffffffffffffff1673ffffffffffffffffffffffffffffffffffffffff168152602001908152602001600020828154811015156146cb57fe5b906000526020600020900154905080601660008773ffffffffffffffffffffffffffffffffffffffff1673ffffffffffffffffffffffffffffffffffffffff1681526020019081526020016000208481548110151561472657fe5b9060005260206000209001819055506000601660008773ffffffffffffffffffffffffffffffffffffffff1673ffffffffffffffffffffffffffffffffffffffff1681526020019081526020016000208381548110151561478357fe5b906000526020600020900181905550601660008673ffffffffffffffffffffffffffffffffffffffff1673ffffffffffffffffffffffffffffffffffffffff1681526020019081526020016000208054809190600190036147e49190615275565b50600060176000868152602001908152602001600020819055508260176000838152602001908152602001600020819055505050505050565b60006148298383614d3c565b601660008473ffffffffffffffffffffffffffffffffffffffff1673ffffffffffffffffffffffffffffffffffffffff168152602001908152602001600020805490509050601660008473ffffffffffffffffffffffffffffffffffffffff1673ffffffffffffffffffffffffffffffffffffffff16815260200190815260200160002080548060010182816148bf91906152a1565b916000526020600020900160008490919091505550806017600084815260200190815260200160002081905550505050565b6148fb8282614e96565b60188054905060196000838152602001908152602001600020819055506018805480600101828161492c91906152a1565b9160005260206000209001600083909190915055505050565b600080828401905083811015151561495957fe5b8091505092915050565b60008060008414156149785760009150614997565b828402905082848281151561498957fe5b0414151561499357fe5b8091505b5092915050565b60008082848115156149ac57fe5b0490508091505092915050565b6000806149db8573ffffffffffffffffffffffffffffffffffffffff16614f46565b15156149ea5760019150614b86565b8473ffffffffffffffffffffffffffffffffffffffff1663f0b9e5ba8786866000604051602001526040518463ffffffff167c0100000000000000000000000000000000000000000000000000000000028152600401808473ffffffffffffffffffffffffffffffffffffffff1673ffffffffffffffffffffffffffffffffffffffff16815260200183815260200180602001828103825283818151815260200191508051906020019080838360005b83811015614ab5578082015181840152602081019050614a9a565b50505050905090810190601f168015614ae25780820380516001836020036101000a031916815260200191505b50945050505050602060405180830381600087803b1515614b0257600080fd5b6102c65a03f11515614b1357600080fd5b50505060405180519050905063f0b9e5ba7c0100000000000000000000000000000000000000000000000000000000027bffffffffffffffffffffffffffffffffffffffffffffffffffffffff1916817bffffffffffffffffffffffffffffffffffffffffffffffffffffffff19161491505b50949350505050565b614b998282614499565b614ba38282614602565b600073ffffffffffffffffffffffffffffffffffffffff168273ffffffffffffffffffffffffffffffffffffffff167fddf252ad1be2c89b69c2b068fc378daa952ba7f163c4a11628f55a4df523b3ef836040518082815260200191505060405180910390a35050565b8173ffffffffffffffffffffffffffffffffffffffff16614c2d82612d21565b73ffffffffffffffffffffffffffffffffffffffff16141515614c4f57600080fd5b614ca26001601260008573ffffffffffffffffffffffffffffffffffffffff1673ffffffffffffffffffffffffffffffffffffffff168152602001908152602001600020546142b090919063ffffffff16565b601260008473ffffffffffffffffffffffffffffffffffffffff1673ffffffffffffffffffffffffffffffffffffffff1681526020019081526020016000208190555060006010600083815260200190815260200160002060006101000a81548173ffffffffffffffffffffffffffffffffffffffff021916908373ffffffffffffffffffffffffffffffffffffffff1602179055505050565b600073ffffffffffffffffffffffffffffffffffffffff166010600083815260200190815260200160002060009054906101000a900473ffffffffffffffffffffffffffffffffffffffff1673ffffffffffffffffffffffffffffffffffffffff16141515614daa57600080fd5b816010600083815260200190815260200160002060006101000a81548173ffffffffffffffffffffffffffffffffffffffff021916908373ffffffffffffffffffffffffffffffffffffffff160217905550614e4f6001601260008573ffffffffffffffffffffffffffffffffffffffff1673ffffffffffffffffffffffffffffffffffffffff1681526020019081526020016000205461494590919063ffffffff16565b601260008473ffffffffffffffffffffffffffffffffffffffff1673ffffffffffffffffffffffffffffffffffffffff168152602001908152602001600020819055505050565b600073ffffffffffffffffffffffffffffffffffffffff168273ffffffffffffffffffffffffffffffffffffffff1614151515614ed257600080fd5b614edc828261481d565b8173ffffffffffffffffffffffffffffffffffffffff16600073ffffffffffffffffffffffffffffffffffffffff167fddf252ad1be2c89b69c2b068fc378daa952ba7f163c4a11628f55a4df523b3ef836040518082815260200191505060405180910390a35050565b600080823b905060008111915050919050565b602060405190810160405280600081525090565b828054600181600116156101000203166002900490600052602060002090601f016020900481019282601f10614fa65780548555614fe3565b82800160010185558215614fe357600052602060002091601f016020900482015b82811115614fe2578254825591600101919060010190614fc7565b5b509050614ff091906152cd565b5090565b50805460018160011615610100020316600290046000825580601f1061501a5750615039565b601f01602090049060005260206000209081019061503891906152cd565b5b50565b8154818355818115116150695760060281600602836000526020600020918201910161506891906152f2565b5b505050565b815481835581811511615095578183600052602060002091820191016150949190615387565b5b505050565b60c060405190810160405280600073ffffffffffffffffffffffffffffffffffffffff16815260200160008152602001600081526020016150d96153ac565b8152602001600073ffffffffffffffffffffffffffffffffffffffff168152602001600081525090565b8154818355818115116151305760060281600602836000526020600020918201910161512f91906152f2565b5b505050565b828054600181600116156101000203166002900490600052602060002090601f016020900481019282601f1061517657805160ff19168380011785556151a4565b828001600101855582156151a4579182015b828111156151a3578251825591602001919060010190615188565b5b5090506151b191906152cd565b5090565b828054600181600116156101000203166002900490600052602060002090601f016020900481019282601f106151f657803560ff1916838001178555615224565b82800160010185558215615224579182015b82811115615223578235825591602001919060010190615208565b5b50905061523191906152cd565b5090565b81548183558181151161525c5781836000526020600020918201910161525b9190615387565b5b505050565b602060405190810160405280600081525090565b81548183558181151161529c5781836000526020600020918201910161529b91906152cd565b5b505050565b8154818355818115116152c8578183600052602060002091820191016152c791906152cd565b5b505050565b6152ef91905b808211156152eb5760008160009055506001016152d3565b5090565b90565b61538491905b8082111561538057600080820160006101000a81549073ffffffffffffffffffffffffffffffffffffffff0219169055600182016000905560028201600090556003820160006153489190614ff4565b6004820160006101000a81549073ffffffffffffffffffffffffffffffffffffffff02191690556005820160009055506006016152f8565b5090565b90565b6153a991905b808211156153a557600081600090555060010161538d565b5090565b90565b602060405190810160405280600081525090565b600073ffffffffffffffffffffffffffffffffffffffff168273ffffffffffffffffffffffffffffffffffffffff16141515156153fc57600080fd5b60008111151561540b57600080fd5b6000600360008473ffffffffffffffffffffffffffffffffffffffff1673ffffffffffffffffffffffffffffffffffffffff1681526020019081526020016000205414151561545957600080fd5b6005805480600101828161546d919061551f565b9160005260206000209001600084909190916101000a81548173ffffffffffffffffffffffffffffffffffffffff021916908373ffffffffffffffffffffffffffffffffffffffff1602179055505080600360008473ffffffffffffffffffffffffffffffffffffffff1673ffffffffffffffffffffffffffffffffffffffff168152602001908152602001600020819055506155158160015461494590919063ffffffff16565b6001819055505050565b8154818355818115116155465781836000526020600020918201910161554591906152cd565b5b5050505600a165627a7a72305820bd68dcfcb93c0b3774144855b1e24e1769c4a96462d25f8a6a4a21e8fc3404d10029",
  "source": "pragma solidity ^0.4.18;\n\nimport \"./Chaingeareable.sol\";\nimport \"./EntryBase.sol\";\nimport \"../common/SplitPaymentChangeable.sol\";\nimport \"zeppelin-solidity/contracts/token/ERC721/ERC721Token.sol\";\nimport \"zeppelin-solidity/contracts/math/SafeMath.sol\";\nimport \"zeppelin-solidity/contracts/AddressUtils.sol\";\n\n\ncontract Registry is EntryBase, Chaingeareable, ERC721Token, SplitPaymentChangeable {\n\n    using SafeMath for uint256;\n    using AddressUtils for address;\n\n    function Registry(\n        address[] _benefitiaries,\n        uint256[] _shares,\n        PermissionTypeEntries _permissionType,\n        uint _entryCreationFee,\n        string _name,\n        string _symbol,\n        string _description,\n        string _linkABI\n    )\n        SplitPaymentChangeable(_benefitiaries, _shares)\n        ERC721Token(_name, _symbol)\n        public\n        payable\n    {\n        permissionTypeEntries_ = _permissionType;\n        linkABI_ = _linkABI;\n        entryCreationFee_ = _entryCreationFee;\n        registryName_ = _name;\n        registryDescription_ = _description;\n    }\n\n    function createEntry(address _expensiveAddress, uint _expensiveUint, int _expensiveInt, string _expensiveString)\n        external\n        payable\n        whenNotPaused\n        onlyPermissionedToEntries\n        returns (uint256)\n    {\n        require(msg.value == entryCreationFee_);\n\n        Entry memory entry = (Entry(\n        {\n            owner: msg.sender,\n            expensiveAddress: _expensiveAddress,\n            expensiveUint: _expensiveUint,\n            expensiveInt: _expensiveInt,\n            expensiveString: _expensiveString,\n            lastUpdateTime: now\n        }));\n\n        uint256 newEntryId = entries.push(entry) - 1;\n        super._mint(msg.sender, newEntryId);\n\n        EntryCreated(msg.sender, newEntryId);\n\n        return newEntryId;\n    }\n\n    function deleteEntry(uint256 _entryId)\n        whenNotPaused\n        external\n    {\n        require (ERC721BasicToken.ownerOf(_entryId) == msg.sender);\n\n        uint256 entryIndex = allTokensIndex[_entryId];\n        uint256 lastEntryIndex = entries.length.sub(1);\n        Entry storage lastEntry = entries[lastEntryIndex];\n\n        entries[entryIndex] = lastEntry;\n        delete entries[lastEntryIndex];\n        entries.length--;\n\n        super._burn(msg.sender, _entryId);\n\n        EntryDeleted(msg.sender, _entryId);\n    }\n\n\n    function transferEntryOwnership(uint _entryId, address _newOwner)\n        whenNotPaused\n        external\n    {\n        require (ERC721BasicToken.ownerOf(_entryId) == msg.sender);\n\n        super.removeTokenFrom(msg.sender, _entryId);\n        super.addTokenTo(_newOwner, _entryId);\n\n        EntryChangedOwner(_entryId, _newOwner);\n    }\n\n}\n",
  "sourcePath": "/Users/litvintech/Projects/chaingear/contracts/registry/Registry.sol",
  "compiler": {
    "name": "solc",
    "version": "0.4.19+commit.c4cbbb05.Emscripten.clang"
  },
  "schemaVersion": "1.0.1",
  "updatedAt": "2018-04-12T12:45:39.702Z"
}