{
  "contractName": "RegistryBase",
  "abi": [
    {
      "anonymous": false,
      "inputs": [
        {
          "indexed": false,
          "name": "name",
          "type": "string"
        },
        {
          "indexed": false,
          "name": "registryAddress",
          "type": "address"
        },
        {
          "indexed": false,
          "name": "creator",
          "type": "address"
        },
        {
          "indexed": false,
          "name": "registryID",
          "type": "uint256"
        }
      ],
      "name": "RegistryRegistered",
      "type": "event"
    },
    {
      "constant": true,
      "inputs": [
        {
          "name": "_registryID",
          "type": "uint256"
        }
      ],
      "name": "nameOf",
      "outputs": [
        {
          "name": "",
          "type": "string"
        }
      ],
      "payable": false,
      "stateMutability": "view",
      "type": "function"
    },
    {
      "constant": true,
      "inputs": [
        {
          "name": "_registryID",
          "type": "uint256"
        }
      ],
      "name": "contractAddressOf",
      "outputs": [
        {
          "name": "",
          "type": "address"
        }
      ],
      "payable": false,
      "stateMutability": "view",
      "type": "function"
    },
    {
      "constant": true,
      "inputs": [
        {
          "name": "_registryID",
          "type": "uint256"
        }
      ],
      "name": "creatorOf",
      "outputs": [
        {
          "name": "",
          "type": "address"
        }
      ],
      "payable": false,
      "stateMutability": "view",
      "type": "function"
    },
    {
      "constant": true,
      "inputs": [
        {
          "name": "_registryID",
          "type": "uint256"
        }
      ],
      "name": "registryDateOf",
      "outputs": [
        {
          "name": "",
          "type": "uint256"
        }
      ],
      "payable": false,
      "stateMutability": "view",
      "type": "function"
    },
    {
      "constant": true,
      "inputs": [
        {
          "name": "_registryID",
          "type": "uint256"
        }
      ],
      "name": "registryOwnerOf",
      "outputs": [
        {
          "name": "",
          "type": "address"
        }
      ],
      "payable": false,
      "stateMutability": "view",
      "type": "function"
    },
    {
      "constant": true,
      "inputs": [
        {
          "name": "_registryID",
          "type": "uint256"
        }
      ],
      "name": "registryInfo",
      "outputs": [
        {
          "name": "",
          "type": "string"
        },
        {
          "name": "",
          "type": "address"
        },
        {
          "name": "",
          "type": "address"
        },
        {
          "name": "",
          "type": "uint256"
        },
        {
          "name": "",
          "type": "address"
        }
      ],
      "payable": false,
      "stateMutability": "view",
      "type": "function"
    },
    {
      "constant": true,
      "inputs": [],
      "name": "registriesAmount",
      "outputs": [
        {
          "name": "",
          "type": "uint256"
        }
      ],
      "payable": false,
      "stateMutability": "view",
      "type": "function"
    }
  ],
  "bytecode": "0x6060604052341561000f57600080fd5b61064f8061001e6000396000f300606060405260043610610083576000357c0100000000000000000000000000000000000000000000000000000000900463ffffffff168063051a26641461008857806337f5881c14610124578063557902ad14610260578063589a1743146102895780638e2992a0146102ec578063bb8275cf14610323578063f5e0c61014610386575b600080fd5b341561009357600080fd5b6100a960048080359060200190919050506103e9565b6040518080602001828103825283818151815260200191508051906020019080838360005b838110156100e95780820151818401526020810190506100ce565b50505050905090810190601f1680156101165780820380516001836020036101000a031916815260200191505b509250505060405180910390f35b341561012f57600080fd5b61014560048080359060200190919050506104b1565b60405180806020018673ffffffffffffffffffffffffffffffffffffffff1673ffffffffffffffffffffffffffffffffffffffff1681526020018573ffffffffffffffffffffffffffffffffffffffff1673ffffffffffffffffffffffffffffffffffffffff1681526020018481526020018373ffffffffffffffffffffffffffffffffffffffff1673ffffffffffffffffffffffffffffffffffffffff168152602001828103825287818151815260200191508051906020019080838360005b83811015610221578082015181840152602081019050610206565b50505050905090810190601f16801561024e5780820380516001836020036101000a031916815260200191505b50965050505050505060405180910390f35b341561026b57600080fd5b6102736104ff565b6040518082815260200191505060405180910390f35b341561029457600080fd5b6102aa600480803590602001909190505061050b565b604051808273ffffffffffffffffffffffffffffffffffffffff1673ffffffffffffffffffffffffffffffffffffffff16815260200191505060405180910390f35b34156102f757600080fd5b61030d6004808035906020019091905050610554565b6040518082815260200191505060405180910390f35b341561032e57600080fd5b610344600480803590602001909190505061057d565b604051808273ffffffffffffffffffffffffffffffffffffffff1673ffffffffffffffffffffffffffffffffffffffff16815260200191505060405180910390f35b341561039157600080fd5b6103a760048080359060200190919050506105c6565b604051808273ffffffffffffffffffffffffffffffffffffffff1673ffffffffffffffffffffffffffffffffffffffff16815260200191505060405180910390f35b6103f161060f565b60008281548110151561040057fe5b90600052602060002090600502016000018054600181600116156101000203166002900480601f0160208091040260200160405190810160405280929190818152602001828054600181600116156101000203166002900480156104a55780601f1061047a576101008083540402835291602001916104a5565b820191906000526020600020905b81548152906001019060200180831161048857829003601f168201915b50505050509050919050565b6104b961060f565b6000806000806104c8866103e9565b6104d1876105c6565b6104da8861050b565b6104e389610554565b6104ec8a61057d565b9450945094509450945091939590929450565b60008080549050905090565b6000808281548110151561051b57fe5b906000526020600020906005020160020160009054906101000a900473ffffffffffffffffffffffffffffffffffffffff169050919050565b6000808281548110151561056457fe5b9060005260206000209060050201600301549050919050565b6000808281548110151561058d57fe5b906000526020600020906005020160040160009054906101000a900473ffffffffffffffffffffffffffffffffffffffff169050919050565b600080828154811015156105d657fe5b906000526020600020906005020160010160009054906101000a900473ffffffffffffffffffffffffffffffffffffffff169050919050565b6020604051908101604052806000815250905600a165627a7a72305820fbc6fbd814469119e01b22b9828a5b1b2c807badccbf5245ce095179491d8f2f0029",
  "source": "pragma solidity ^0.4.19;\n\n\ncontract RegistryBase {\n\n    struct RegistryMeta {\n        string name;\n        address contractAddress;\n        address creator;\n        /* string linkABI; */\n        uint registrationTimestamp;\n        address owner;\n    }\n\n    RegistryMeta[] internal registries;\n\n    event RegistryRegistered(\n        string name,\n        address registryAddress,\n        address creator,\n        uint registryID\n    );\n\n    // event RegistryUnregistered(\n    //     address owner,\n    //     string registryName\n    // );\n\n    // event RegistryTransferred(\n    //     address caller,\n    //     string registryName,\n    //     address newOwner\n    // );\n\n    function nameOf(uint256 _registryID)\n        public\n        view\n        returns (string)\n    {\n        return registries[_registryID].name;\n    }\n\n    function contractAddressOf(uint256 _registryID)\n        public\n        view\n        returns (address)\n    {\n        return registries[_registryID].contractAddress;\n    }\n\n    function creatorOf(uint256 _registryID)\n        public\n        view\n        returns (address)\n    {\n        return registries[_registryID].creator;\n    }\n\n    function registryDateOf(uint256 _registryID)\n        public\n        view\n        returns (uint)\n    {\n        return registries[_registryID].registrationTimestamp;\n    }\n\n    /* function ABILinkOf(uint256 _registryID)\n        public\n        view\n        returns (string)\n    {\n        return registries[_registryID].linkABI;\n    } */\n\n    function registryOwnerOf(uint256 _registryID)\n        public\n        view\n        returns (address)\n    {\n        return registries[_registryID].owner;\n    }\n\n    // function versionOf(uint256 _registryID)\n    //     public\n    //     view\n    //     returns (bytes32)\n    // {\n    //     return registries[_registryID].chaingeareableVersion;\n    // }\n\n    function registryInfo(uint256 _registryID)\n        public\n        view\n        /* returns (string, address, address, uint, string, address) */\n        returns (string, address, address, uint, address)\n    {\n        return (\n            nameOf(_registryID),\n            contractAddressOf(_registryID),\n            creatorOf(_registryID),\n            registryDateOf(_registryID),\n            /* ABILinkOf(_registryID), */\n            registryOwnerOf(_registryID)\n            // versionOf(_registryID)\n        );\n    }\n\n    // function registryBalanceInfo(uint256 _registryID)\n    //     public\n    //     view\n    //     returns (uint, uint)\n    // {\n    //     return (\n    //         currentRegistryBalanceETHOf(_registryID),\n    //         accumulatedRegistryETHOf(_registryID)\n    //     );\n    // }\n\n    function registriesAmount()\n        public\n        view\n        returns (uint256)\n    {\n        return registries.length;\n    }\n}\n",
  "sourcePath": "/Users/litvintech/Projects/chaingear/contracts/chaingear/RegistryBase.sol",
  "compiler": {
    "name": "solc",
    "version": "0.4.19+commit.c4cbbb05.Emscripten.clang"
  },
  "schemaVersion": "1.0.1",
  "updatedAt": "2018-04-19T16:07:50.102Z"
}