{
  "contractName": "RegistryCreator",
  "abi": [
    {
      "constant": true,
      "inputs": [],
      "name": "owner",
      "outputs": [
        {
          "name": "",
          "type": "address"
        }
      ],
      "payable": false,
      "stateMutability": "view",
      "type": "function"
    },
    {
      "constant": false,
      "inputs": [
        {
          "name": "newOwner",
          "type": "address"
        }
      ],
      "name": "transferOwnership",
      "outputs": [],
      "payable": false,
      "stateMutability": "nonpayable",
      "type": "function"
    },
    {
      "inputs": [
        {
          "name": "_builder",
          "type": "address"
        }
      ],
      "payable": false,
      "stateMutability": "nonpayable",
      "type": "constructor"
    },
    {
      "anonymous": false,
      "inputs": [
        {
          "indexed": true,
          "name": "previousOwner",
          "type": "address"
        },
        {
          "indexed": true,
          "name": "newOwner",
          "type": "address"
        }
      ],
      "name": "OwnershipTransferred",
      "type": "event"
    },
    {
      "constant": false,
      "inputs": [
        {
          "name": "_benefitiaries",
          "type": "address[]"
        },
        {
          "name": "_shares",
          "type": "uint256[]"
        },
        {
          "name": "_name",
          "type": "string"
        },
        {
          "name": "_symbol",
          "type": "string"
        },
        {
          "name": "_linkToABIOfEntriesContract",
          "type": "string"
        },
        {
          "name": "_bytecodeOfEntriesContract",
          "type": "bytes"
        }
      ],
      "name": "create",
      "outputs": [
        {
          "name": "newRegistryContract",
          "type": "address"
        }
      ],
      "payable": false,
      "stateMutability": "nonpayable",
      "type": "function"
    },
    {
      "constant": false,
      "inputs": [
        {
          "name": "_builder",
          "type": "address"
        }
      ],
      "name": "setBuilder",
      "outputs": [],
      "payable": false,
      "stateMutability": "nonpayable",
      "type": "function"
    },
    {
      "constant": true,
      "inputs": [],
      "name": "registryBuilder",
      "outputs": [
        {
          "name": "",
          "type": "address"
        }
      ],
      "payable": false,
      "stateMutability": "view",
      "type": "function"
    }
  ],
  "bytecode": "0x6060604052341561000f57600080fd5b604051602080615ab083398101604052808051906020019091905050336000806101000a81548173ffffffffffffffffffffffffffffffffffffffff021916908373ffffffffffffffffffffffffffffffffffffffff16021790555080600160006101000a81548173ffffffffffffffffffffffffffffffffffffffff021916908373ffffffffffffffffffffffffffffffffffffffff160217905550506159f4806100bc6000396000f30060606040526004361062000073576000357c0100000000000000000000000000000000000000000000000000000000900463ffffffff16806337130e68146200007857806347c21a3c14620000d05780636c6d6a1714620001a55780638da5cb5b14620001e1578063f2fde38b1462000239575b600080fd5b34156200008457600080fd5b6200008e62000275565b604051808273ffffffffffffffffffffffffffffffffffffffff1673ffffffffffffffffffffffffffffffffffffffff16815260200191505060405180910390f35b3415620000dc57600080fd5b6200016360048080359060200190820180359060200191909192908035906020019082018035906020019190919290803590602001908201803590602001919091929080359060200190820180359060200191909192908035906020019082018035906020019190919290803590602001908201803590602001919091929050506200029f565b604051808273ffffffffffffffffffffffffffffffffffffffff1673ffffffffffffffffffffffffffffffffffffffff16815260200191505060405180910390f35b3415620001b157600080fd5b620001df600480803573ffffffffffffffffffffffffffffffffffffffff1690602001909190505062000449565b005b3415620001ed57600080fd5b620001f7620004e9565b604051808273ffffffffffffffffffffffffffffffffffffffff1673ffffffffffffffffffffffffffffffffffffffff16815260200191505060405180910390f35b34156200024557600080fd5b62000273600480803573ffffffffffffffffffffffffffffffffffffffff169060200190919050506200050e565b005b6000600160009054906101000a900473ffffffffffffffffffffffffffffffffffffffff16905090565b6000600160009054906101000a900473ffffffffffffffffffffffffffffffffffffffff1673ffffffffffffffffffffffffffffffffffffffff163373ffffffffffffffffffffffffffffffffffffffff16141515620002fe57600080fd5b620004348d8d808060200260200160405190810160405280939291908181526020018383602002808284378201915050505050508c8c808060200260200160405190810160405280939291908181526020018383602002808284378201915050505050508b8b8080601f0160208091040260200160405190810160405280939291908181526020018383808284378201915050505050508a8a8080601f01602080910402602001604051908101604052809392919081815260200183838082843782019150505050505089898080601f01602080910402602001604051908101604052809392919081815260200183838082843782019150505050505088888080601f01602080910402602001604051908101604052809392919081815260200183838082843782019150505050505062000665565b90508090509c9b505050505050505050505050565b6000809054906101000a900473ffffffffffffffffffffffffffffffffffffffff1673ffffffffffffffffffffffffffffffffffffffff163373ffffffffffffffffffffffffffffffffffffffff16141515620004a557600080fd5b80600160006101000a81548173ffffffffffffffffffffffffffffffffffffffff021916908373ffffffffffffffffffffffffffffffffffffffff16021790555050565b6000809054906101000a900473ffffffffffffffffffffffffffffffffffffffff1681565b6000809054906101000a900473ffffffffffffffffffffffffffffffffffffffff1673ffffffffffffffffffffffffffffffffffffffff163373ffffffffffffffffffffffffffffffffffffffff161415156200056a57600080fd5b600073ffffffffffffffffffffffffffffffffffffffff168173ffffffffffffffffffffffffffffffffffffffff1614151515620005a757600080fd5b8073ffffffffffffffffffffffffffffffffffffffff166000809054906101000a900473ffffffffffffffffffffffffffffffffffffffff1673ffffffffffffffffffffffffffffffffffffffff167f8be0079c531659141344cd1fd0a4f28419497f9722a3daafe3b4186f6b6457e060405160405180910390a3806000806101000a81548173ffffffffffffffffffffffffffffffffffffffff021916908373ffffffffffffffffffffffffffffffffffffffff16021790555050565b600086868686868662000677620009a0565b8080602001806020018060200180602001806020018060200187810387528d818151815260200191508051906020019060200280838360005b83811015620006cd578082015181840152602081019050620006b0565b5050505090500187810386528c818151815260200191508051906020019060200280838360005b8381101562000711578082015181840152602081019050620006f4565b5050505090500187810385528b818151815260200191508051906020019080838360005b838110156200075257808201518184015260208101905062000735565b50505050905090810190601f168015620007805780820380516001836020036101000a031916815260200191505b5087810384528a818151815260200191508051906020019080838360005b83811015620007bb5780820151818401526020810190506200079e565b50505050905090810190601f168015620007e95780820380516001836020036101000a031916815260200191505b50878103835289818151815260200191508051906020019080838360005b838110156200082457808201518184015260208101905062000807565b50505050905090810190601f168015620008525780820380516001836020036101000a031916815260200191505b50878103825288818151815260200191508051906020019080838360005b838110156200088d57808201518184015260208101905062000870565b50505050905090810190601f168015620008bb5780820380516001836020036101000a031916815260200191505b509c50505050505050505050505050604051809103906000f0801515620008e157600080fd5b90508073ffffffffffffffffffffffffffffffffffffffff1663f2fde38b336040518263ffffffff167c0100000000000000000000000000000000000000000000000000000000028152600401808273ffffffffffffffffffffffffffffffffffffffff1673ffffffffffffffffffffffffffffffffffffffff168152602001915050600060405180830381600087803b15156200097e57600080fd5b6102c65a03f115156200099057600080fd5b5050508090509695505050505050565b60405161501780620009b2833901905600606060405260008055600060015560405162005017380380620050178339810160405280805182019190602001805182019190602001805182019190602001805182019190602001805182019190602001805182019190505060008686868683836000815183511415156200007357600080fd5b600090505b8251811015620000e057620000d283828151811015156200009557fe5b906020019060200201518383815181101515620000ae57fe5b90602001906020020151620002d46401000000000262004366176401000000009004565b808060010191505062000078565b50505033600560006101000a81548173ffffffffffffffffffffffffffffffffffffffff021916908373ffffffffffffffffffffffffffffffffffffffff16021790555032600960006101000a81548173ffffffffffffffffffffffffffffffffffffffff021916908373ffffffffffffffffffffffffffffffffffffffff16021790555081601590805190602001906200017d92919062000467565b5080601690805190602001906200019692919062000467565b50505050506000600960146101000a81548160ff02191690836002811115620001bb57fe5b021790555084600b9080519060200190620001d892919062000467565b5082600f9080519060200190620001f192919062000467565b50620001fc620004ee565b604051809103906000f08015156200021357600080fd5b601060006101000a81548173ffffffffffffffffffffffffffffffffffffffff021916908373ffffffffffffffffffffffffffffffffffffffff16021790555081516020830181816000f09250505060008173ffffffffffffffffffffffffffffffffffffffff16141515156200028657fe5b80600e60006101000a81548173ffffffffffffffffffffffffffffffffffffffff021916908373ffffffffffffffffffffffffffffffffffffffff1602179055505050505050505062000556565b600073ffffffffffffffffffffffffffffffffffffffff168273ffffffffffffffffffffffffffffffffffffffff16141515156200031157600080fd5b6000811115156200032157600080fd5b6000600260008473ffffffffffffffffffffffffffffffffffffffff1673ffffffffffffffffffffffffffffffffffffffff168152602001908152602001600020541415156200037057600080fd5b60048054806001018281620003869190620004ff565b9160005260206000209001600084909190916101000a81548173ffffffffffffffffffffffffffffffffffffffff021916908373ffffffffffffffffffffffffffffffffffffffff1602179055505080600260008473ffffffffffffffffffffffffffffffffffffffff1673ffffffffffffffffffffffffffffffffffffffff168152602001908152602001600020819055506200043e81600054620004486401000000000262003c15179091906401000000009004565b6000819055505050565b60008082840190508381101515156200045d57fe5b8091505092915050565b828054600181600116156101000203166002900490600052602060002090601f016020900481019282601f10620004aa57805160ff1916838001178555620004db565b82800160010185558215620004db579182015b82811115620004da578251825591602001919060010190620004bd565b5b509050620004ea91906200052e565b5090565b6040516105948062004a8383390190565b81548183558181151162000529578183600052602060002091820191016200052891906200052e565b5b505050565b6200055391905b808211156200054f57600081600090555060010162000535565b5090565b90565b61451d80620005666000396000f300606060405260043610610293576000357c0100000000000000000000000000000000000000000000000000000000900463ffffffff16806302d05d3f1461029557806306fdde03146102ea57806307b1f8f714610378578063081812fc14610406578063095ea7b3146104695780631654d169146104ab57806318160ddd14610539578063189efc7c146105625780631a849d6b1461058957806323b872dd146105c057806327f5f1b6146106215780632f745c5914610644578063351c6bbe1461069a5780633a1a3d95146106d15780633a98ef39146106fa57806341c39e5c1461072357806342842e0e146107b15780634545d21c14610812578063490a08eb146108405780634dfaf97a146108ce5780634e71d92d1461095c5780634f558e79146109715780634f6ccce7146109ac57806363037b0c146109e35780636352211e14610a46578063683ae65b14610aa957806368b3456214610aeb5780636d2fd13814610b1457806370a0823114610b4257806376c48c0014610b8f5780637b49376814610bc857806383197ef014610c0a57806383ca00ac14610c1f5780638da5cb5b14610c4d57806395d89b4114610ca25780639852595c14610d305780639e925a7814610d7d578063a1f14b2714610e0b578063a22cb46514610e39578063aef10f0814610e7d578063b88d4fde14610ed2578063bc044e1814610f76578063bf3fde3314610fa6578063c81225eb14610ffb578063c87b56dd14611029578063ce7c2ac2146110c5578063d24f707614611112578063d4af2ab814611135578063e33b7de314611161578063e54094401461118a578063e59f0cc2146111a2578063e985e9c5146111d2578063f2fde38b14611242578063f5074f411461127b578063f5ec4e50146112b4575b005b34156102a057600080fd5b6102a861131e565b604051808273ffffffffffffffffffffffffffffffffffffffff1673ffffffffffffffffffffffffffffffffffffffff16815260200191505060405180910390f35b34156102f557600080fd5b6102fd611348565b6040518080602001828103825283818151815260200191508051906020019080838360005b8381101561033d578082015181840152602081019050610322565b50505050905090810190601f16801561036a5780820380516001836020036101000a031916815260200191505b509250505060405180910390f35b341561038357600080fd5b61038b6113f0565b6040518080602001828103825283818151815260200191508051906020019080838360005b838110156103cb5780820151818401526020810190506103b0565b50505050905090810190601f1680156103f85780820380516001836020036101000a031916815260200191505b509250505060405180910390f35b341561041157600080fd5b6104276004808035906020019091905050611498565b604051808273ffffffffffffffffffffffffffffffffffffffff1673ffffffffffffffffffffffffffffffffffffffff16815260200191505060405180910390f35b341561047457600080fd5b6104a9600480803573ffffffffffffffffffffffffffffffffffffffff169060200190919080359060200190919050506114d5565b005b34156104b657600080fd5b6104be61169b565b6040518080602001828103825283818151815260200191508051906020019080838360005b838110156104fe5780820151818401526020810190506104e3565b50505050905090810190601f16801561052b5780820380516001836020036101000a031916815260200191505b509250505060405180910390f35b341561054457600080fd5b61054c611743565b6040518082815260200191505060405180910390f35b341561056d57600080fd5b610587600480803560001916906020019091905050611750565b005b6105aa600480803590602001908201803590602001919091929050506117f2565b6040518082815260200191505060405180910390f35b34156105cb57600080fd5b61061f600480803573ffffffffffffffffffffffffffffffffffffffff1690602001909190803573ffffffffffffffffffffffffffffffffffffffff169060200190919080359060200190919050506119df565b005b341561062c57600080fd5b6106426004808035906020019091905050611af6565b005b341561064f57600080fd5b610684600480803573ffffffffffffffffffffffffffffffffffffffff16906020019091908035906020019091905050611b9d565b6040518082815260200191505060405180910390f35b34156106a557600080fd5b6106ad611c15565b604051808260028111156106bd57fe5b60ff16815260200191505060405180910390f35b34156106dc57600080fd5b6106e4611c2c565b6040518082815260200191505060405180910390f35b341561070557600080fd5b61070d611c36565b6040518082815260200191505060405180910390f35b341561072e57600080fd5b610736611c3c565b6040518080602001828103825283818151815260200191508051906020019080838360005b8381101561077657808201518184015260208101905061075b565b50505050905090810190601f1680156107a35780820380516001836020036101000a031916815260200191505b509250505060405180910390f35b34156107bc57600080fd5b610810600480803573ffffffffffffffffffffffffffffffffffffffff1690602001909190803573ffffffffffffffffffffffffffffffffffffffff16906020019091908035906020019091905050611ce4565b005b341561081d57600080fd5b61083e60048080359060200190820180359060200191909192905050611d1c565b005b341561084b57600080fd5b610853611ddf565b6040518080602001828103825283818151815260200191508051906020019080838360005b83811015610893578082015181840152602081019050610878565b50505050905090810190601f1680156108c05780820380516001836020036101000a031916815260200191505b509250505060405180910390f35b34156108d957600080fd5b6108e1611e87565b6040518080602001828103825283818151815260200191508051906020019080838360005b83811015610921578082015181840152602081019050610906565b50505050905090810190601f16801561094e5780820380516001836020036101000a031916815260200191505b509250505060405180910390f35b341561096757600080fd5b61096f611f2f565b005b341561097c57600080fd5b6109926004808035906020019091905050612197565b604051808215151515815260200191505060405180910390f35b34156109b757600080fd5b6109cd6004808035906020019091905050612209565b6040518082815260200191505060405180910390f35b34156109ee57600080fd5b610a046004808035906020019091905050612242565b604051808273ffffffffffffffffffffffffffffffffffffffff1673ffffffffffffffffffffffffffffffffffffffff16815260200191505060405180910390f35b3415610a5157600080fd5b610a676004808035906020019091905050612281565b604051808273ffffffffffffffffffffffffffffffffffffffff1673ffffffffffffffffffffffffffffffffffffffff16815260200191505060405180910390f35b3415610ab457600080fd5b610ae9600480803590602001909190803573ffffffffffffffffffffffffffffffffffffffff169060200190919050506122ff565b005b3415610af657600080fd5b610afe6123c4565b6040518082815260200191505060405180910390f35b3415610b1f57600080fd5b610b40600480803590602001908201803590602001919091929050506123e3565b005b3415610b4d57600080fd5b610b79600480803573ffffffffffffffffffffffffffffffffffffffff169060200190919050506124a6565b6040518082815260200191505060405180910390f35b3415610b9a57600080fd5b610bc6600480803573ffffffffffffffffffffffffffffffffffffffff1690602001909190505061252a565b005b3415610bd357600080fd5b610c08600480803590602001909190803573ffffffffffffffffffffffffffffffffffffffff169060200190919050506125ca565b005b3415610c1557600080fd5b610c1d6128ee565b005b3415610c2a57600080fd5b610c4b60048080359060200190820180359060200191909192905050612985565b005b3415610c5857600080fd5b610c60612a48565b604051808273ffffffffffffffffffffffffffffffffffffffff1673ffffffffffffffffffffffffffffffffffffffff16815260200191505060405180910390f35b3415610cad57600080fd5b610cb5612a6e565b6040518080602001828103825283818151815260200191508051906020019080838360005b83811015610cf5578082015181840152602081019050610cda565b50505050905090810190601f168015610d225780820380516001836020036101000a031916815260200191505b509250505060405180910390f35b3415610d3b57600080fd5b610d67600480803573ffffffffffffffffffffffffffffffffffffffff16906020019091905050612b16565b6040518082815260200191505060405180910390f35b3415610d8857600080fd5b610d90612b2e565b6040518080602001828103825283818151815260200191508051906020019080838360005b83811015610dd0578082015181840152602081019050610db5565b50505050905090810190601f168015610dfd5780820380516001836020036101000a031916815260200191505b509250505060405180910390f35b3415610e1657600080fd5b610e3760048080359060200190820180359060200191909192905050612bd6565b005b3415610e4457600080fd5b610e7b600480803573ffffffffffffffffffffffffffffffffffffffff169060200190919080351515906020019091905050612c62565b005b3415610e8857600080fd5b610e90612d9e565b604051808273ffffffffffffffffffffffffffffffffffffffff1673ffffffffffffffffffffffffffffffffffffffff16815260200191505060405180910390f35b3415610edd57600080fd5b610f74600480803573ffffffffffffffffffffffffffffffffffffffff1690602001909190803573ffffffffffffffffffffffffffffffffffffffff1690602001909190803590602001909190803590602001908201803590602001908080601f01602080910402602001604051908101604052809392919081815260200183838082843782019150505050505091905050612dc8565b005b3415610f8157600080fd5b610fa4600480803590602001909190803560001916906020019091905050612e07565b005b3415610fb157600080fd5b610fb9612f05565b604051808273ffffffffffffffffffffffffffffffffffffffff1673ffffffffffffffffffffffffffffffffffffffff16815260200191505060405180910390f35b341561100657600080fd5b61102760048080359060200190820180359060200191909192905050612f2f565b005b341561103457600080fd5b61104a6004808035906020019091905050612fc6565b6040518080602001828103825283818151815260200191508051906020019080838360005b8381101561108a57808201518184015260208101905061106f565b50505050905090810190601f1680156110b75780820380516001836020036101000a031916815260200191505b509250505060405180910390f35b34156110d057600080fd5b6110fc600480803573ffffffffffffffffffffffffffffffffffffffff16906020019091905050613095565b6040518082815260200191505060405180910390f35b341561111d57600080fd5b61113360048080359060200190919050506130ad565b005b341561114057600080fd5b61115f6004808035906020019091908035906020019091905050613113565b005b341561116c57600080fd5b6111746132a4565b6040518082815260200191505060405180910390f35b6111a060048080359060200190919050506132aa565b005b34156111ad57600080fd5b6111d060048080359060200190919080356000191690602001909190505061337a565b005b34156111dd57600080fd5b611228600480803573ffffffffffffffffffffffffffffffffffffffff1690602001909190803573ffffffffffffffffffffffffffffffffffffffff16906020019091905050613411565b604051808215151515815260200191505060405180910390f35b341561124d57600080fd5b611279600480803573ffffffffffffffffffffffffffffffffffffffff169060200190919050506134a5565b005b341561128657600080fd5b6112b2600480803573ffffffffffffffffffffffffffffffffffffffff169060200190919050506135fd565b005b34156112bf57600080fd5b6112c7613672565b6040518080602001828103825283818151815260200191508051906020019060200280838360005b8381101561130a5780820151818401526020810190506112ef565b505050509050019250505060405180910390f35b6000600960009054906101000a900473ffffffffffffffffffffffffffffffffffffffff16905090565b6113506141c4565b60158054600181600116156101000203166002900480601f0160208091040260200160405190810160405280929190818152602001828054600181600116156101000203166002900480156113e65780601f106113bb576101008083540402835291602001916113e6565b820191906000526020600020905b8154815290600101906020018083116113c957829003601f168201915b5050505050905090565b6113f86141c4565b60088054600181600116156101000203166002900480601f01602080910402602001604051908101604052809291908181526020018280546001816001161561010002031660029004801561148e5780601f106114635761010080835404028352916020019161148e565b820191906000526020600020905b81548152906001019060200180831161147157829003601f168201915b5050505050905090565b60006012600083815260200190815260200160002060009054906101000a900473ffffffffffffffffffffffffffffffffffffffff169050919050565b60006114e082612281565b90508073ffffffffffffffffffffffffffffffffffffffff168373ffffffffffffffffffffffffffffffffffffffff161415151561151d57600080fd5b8073ffffffffffffffffffffffffffffffffffffffff163373ffffffffffffffffffffffffffffffffffffffff16148061155d575061155c8133613411565b5b151561156857600080fd5b600073ffffffffffffffffffffffffffffffffffffffff1661158983611498565b73ffffffffffffffffffffffffffffffffffffffff161415806115d95750600073ffffffffffffffffffffffffffffffffffffffff168373ffffffffffffffffffffffffffffffffffffffff1614155b1561169657826012600084815260200190815260200160002060006101000a81548173ffffffffffffffffffffffffffffffffffffffff021916908373ffffffffffffffffffffffffffffffffffffffff1602179055508273ffffffffffffffffffffffffffffffffffffffff168173ffffffffffffffffffffffffffffffffffffffff167f8c5be1e5ebec7d5bd14f71427d1e84f3dd0314c0f7b2291e5b200ac8c7c3b925846040518082815260200191505060405180910390a35b505050565b6116a36141c4565b600b8054600181600116156101000203166002900480601f0160208091040260200160405190810160405280929190818152602001828054600181600116156101000203166002900480156117395780601f1061170e57610100808354040283529160200191611739565b820191906000526020600020905b81548152906001019060200180831161171c57829003601f168201915b5050505050905090565b6000601980549050905090565b600960009054906101000a900473ffffffffffffffffffffffffffffffffffffffff1673ffffffffffffffffffffffffffffffffffffffff163373ffffffffffffffffffffffffffffffffffffffff161415156117ac57600080fd5b6010602060ff16111515156117c057600080fd5b600d80548060010182816117d491906141d8565b91600052602060002090016000839091909150906000191690555050565b6000806000600281111561180257fe5b600960149054906101000a900460ff16600281111561181d57fe5b141561188057600960009054906101000a900473ffffffffffffffffffffffffffffffffffffffff1673ffffffffffffffffffffffffffffffffffffffff163373ffffffffffffffffffffffffffffffffffffffff1614151561187f57600080fd5b5b600a543414151561189057600080fd5b600e60009054906101000a900473ffffffffffffffffffffffffffffffffffffffff1673ffffffffffffffffffffffffffffffffffffffff16631a849d6b85856000604051602001526040518363ffffffff167c01000000000000000000000000000000000000000000000000000000000281526004018080602001828103825284848281815260200192508082843782019150509350505050602060405180830381600087803b151561194357600080fd5b6102c65a03f1151561195457600080fd5b50505060405180519050905061196a33826136d4565b7fe9a0a2aca9c41fae94448dec8914ad73e4d00ebdc2427e61f3fc66919f4ffa2a3382604051808373ffffffffffffffffffffffffffffffffffffffff1673ffffffffffffffffffffffffffffffffffffffff1681526020018281526020019250505060405180910390a18091505092915050565b806119ea3382613728565b15156119f557600080fd5b600073ffffffffffffffffffffffffffffffffffffffff168473ffffffffffffffffffffffffffffffffffffffff1614151515611a3157600080fd5b600073ffffffffffffffffffffffffffffffffffffffff168373ffffffffffffffffffffffffffffffffffffffff1614151515611a6d57600080fd5b611a7784836137bd565b611a818483613926565b611a8b8383613b41565b8273ffffffffffffffffffffffffffffffffffffffff168473ffffffffffffffffffffffffffffffffffffffff167fddf252ad1be2c89b69c2b068fc378daa952ba7f163c4a11628f55a4df523b3ef846040518082815260200191505060405180910390a350505050565b600960009054906101000a900473ffffffffffffffffffffffffffffffffffffffff1673ffffffffffffffffffffffffffffffffffffffff163373ffffffffffffffffffffffffffffffffffffffff16141515611b5257600080fd5b80600280811115611b5f57fe5b10151515611b6c57600080fd5b806002811115611b7857fe5b600960146101000a81548160ff02191690836002811115611b9557fe5b021790555050565b6000611ba8836124a6565b82101515611bb557600080fd5b601760008473ffffffffffffffffffffffffffffffffffffffff1673ffffffffffffffffffffffffffffffffffffffff16815260200190815260200160002082815481101515611c0157fe5b906000526020600020900154905092915050565b6000600960149054906101000a900460ff16905090565b6000600a54905090565b60005481565b611c446141c4565b600c8054600181600116156101000203166002900480601f016020809104026020016040519081016040528092919081815260200182805460018160011615610100020316600290048015611cda5780601f10611caf57610100808354040283529160200191611cda565b820191906000526020600020905b815481529060010190602001808311611cbd57829003601f168201915b5050505050905090565b80611cef3382613728565b1515611cfa57600080fd5b611d168484846020604051908101604052806000815250612dc8565b50505050565b600560009054906101000a900473ffffffffffffffffffffffffffffffffffffffff1673ffffffffffffffffffffffffffffffffffffffff163373ffffffffffffffffffffffffffffffffffffffff16141515611d7857600080fd5b818160069190611d89929190614204565b507f97bc322e754962c4ff23eb8a9d58b147ead5be0347d9a799addc5a2d44564cbe8282604051808060200182810382528484828181526020019250808284378201915050935050505060405180910390a15050565b611de76141c4565b600f8054600181600116156101000203166002900480601f016020809104026020016040519081016040528092919081815260200182805460018160011615610100020316600290048015611e7d5780601f10611e5257610100808354040283529160200191611e7d565b820191906000526020600020905b815481529060010190602001808311611e6057829003601f168201915b5050505050905090565b611e8f6141c4565b60078054600181600116156101000203166002900480601f016020809104026020016040519081016040528092919081815260200182805460018160011615610100020316600290048015611f255780601f10611efa57610100808354040283529160200191611f25565b820191906000526020600020905b815481529060010190602001808311611f0857829003601f168201915b5050505050905090565b60008060003392506000600260008573ffffffffffffffffffffffffffffffffffffffff1673ffffffffffffffffffffffffffffffffffffffff16815260200190815260200160002054111515611f8557600080fd5b611fb16001543073ffffffffffffffffffffffffffffffffffffffff1631613c1590919063ffffffff16565b915061206a600360008573ffffffffffffffffffffffffffffffffffffffff1673ffffffffffffffffffffffffffffffffffffffff1681526020019081526020016000205461205c60005461204e600260008973ffffffffffffffffffffffffffffffffffffffff1673ffffffffffffffffffffffffffffffffffffffff1681526020019081526020016000205487613c3390919063ffffffff16565b613c6e90919063ffffffff16565b613c8990919063ffffffff16565b90506000811415151561207c57600080fd5b803073ffffffffffffffffffffffffffffffffffffffff1631101515156120a257600080fd5b6120f481600360008673ffffffffffffffffffffffffffffffffffffffff1673ffffffffffffffffffffffffffffffffffffffff16815260200190815260200160002054613c1590919063ffffffff16565b600360008573ffffffffffffffffffffffffffffffffffffffff1673ffffffffffffffffffffffffffffffffffffffff1681526020019081526020016000208190555061214c81600154613c1590919063ffffffff16565b6001819055508273ffffffffffffffffffffffffffffffffffffffff166108fc829081150290604051600060405180830381858888f19350505050151561219257600080fd5b505050565b6000806011600084815260200190815260200160002060009054906101000a900473ffffffffffffffffffffffffffffffffffffffff169050600073ffffffffffffffffffffffffffffffffffffffff168173ffffffffffffffffffffffffffffffffffffffff161415915050919050565b6000612213611743565b8210151561222057600080fd5b60198281548110151561222f57fe5b9060005260206000209001549050919050565b60048181548110151561225157fe5b90600052602060002090016000915054906101000a900473ffffffffffffffffffffffffffffffffffffffff1681565b6000806011600084815260200190815260200160002060009054906101000a900473ffffffffffffffffffffffffffffffffffffffff169050600073ffffffffffffffffffffffffffffffffffffffff168173ffffffffffffffffffffffffffffffffffffffff16141515156122f657600080fd5b80915050919050565b3373ffffffffffffffffffffffffffffffffffffffff1661231f83612281565b73ffffffffffffffffffffffffffffffffffffffff1614151561234157600080fd5b61234b3383613926565b6123558183613b41565b7fe93f305b235917d8ff8103ff4bb045df5935484b45bfd248c7fec5f04fecf92d8282604051808381526020018273ffffffffffffffffffffffffffffffffffffffff1673ffffffffffffffffffffffffffffffffffffffff1681526020019250505060405180910390a15050565b60003073ffffffffffffffffffffffffffffffffffffffff1631905090565b600560009054906101000a900473ffffffffffffffffffffffffffffffffffffffff1673ffffffffffffffffffffffffffffffffffffffff163373ffffffffffffffffffffffffffffffffffffffff1614151561243f57600080fd5b818160079190612450929190614204565b507f6362a59ae98fef1a0a45d03a1127a82c2268ca380148117a052b9f8bce8e6f1e8282604051808060200182810382528484828181526020019250808284378201915050935050505060405180910390a15050565b60008073ffffffffffffffffffffffffffffffffffffffff168273ffffffffffffffffffffffffffffffffffffffff16141515156124e357600080fd5b601360008373ffffffffffffffffffffffffffffffffffffffff1673ffffffffffffffffffffffffffffffffffffffff168152602001908152602001600020549050919050565b600560009054906101000a900473ffffffffffffffffffffffffffffffffffffffff1673ffffffffffffffffffffffffffffffffffffffff163373ffffffffffffffffffffffffffffffffffffffff1614151561258657600080fd5b80600960006101000a81548173ffffffffffffffffffffffffffffffffffffffff021916908373ffffffffffffffffffffffffffffffffffffffff16021790555050565b6000600560009054906101000a900473ffffffffffffffffffffffffffffffffffffffff1673ffffffffffffffffffffffffffffffffffffffff163373ffffffffffffffffffffffffffffffffffffffff1614151561262857600080fd5b60048381548110151561263757fe5b906000526020600020900160009054906101000a900473ffffffffffffffffffffffffffffffffffffffff169050600260008273ffffffffffffffffffffffffffffffffffffffff1673ffffffffffffffffffffffffffffffffffffffff16815260200190815260200160002054600260008473ffffffffffffffffffffffffffffffffffffffff1673ffffffffffffffffffffffffffffffffffffffff16815260200190815260200160002081905550600360008273ffffffffffffffffffffffffffffffffffffffff1673ffffffffffffffffffffffffffffffffffffffff16815260200190815260200160002054600360008473ffffffffffffffffffffffffffffffffffffffff1673ffffffffffffffffffffffffffffffffffffffff168152602001908152602001600020819055508160048481548110151561277b57fe5b906000526020600020900160006101000a81548173ffffffffffffffffffffffffffffffffffffffff021916908373ffffffffffffffffffffffffffffffffffffffff160217905550600260008273ffffffffffffffffffffffffffffffffffffffff1673ffffffffffffffffffffffffffffffffffffffff16815260200190815260200160002060009055600360008273ffffffffffffffffffffffffffffffffffffffff1673ffffffffffffffffffffffffffffffffffffffff168152602001908152602001600020600090557fa1982f3fe3fa9dba8ce5bc91687e2ab0850b0431cddacc1a249b2ae0390b912f838284604051808481526020018373ffffffffffffffffffffffffffffffffffffffff1673ffffffffffffffffffffffffffffffffffffffff1681526020018273ffffffffffffffffffffffffffffffffffffffff1673ffffffffffffffffffffffffffffffffffffffff168152602001935050505060405180910390a1505050565b600560009054906101000a900473ffffffffffffffffffffffffffffffffffffffff1673ffffffffffffffffffffffffffffffffffffffff163373ffffffffffffffffffffffffffffffffffffffff1614151561294a57600080fd5b600560009054906101000a900473ffffffffffffffffffffffffffffffffffffffff1673ffffffffffffffffffffffffffffffffffffffff16ff5b600560009054906101000a900473ffffffffffffffffffffffffffffffffffffffff1673ffffffffffffffffffffffffffffffffffffffff163373ffffffffffffffffffffffffffffffffffffffff161415156129e157600080fd5b8181600891906129f2929190614204565b507fcfaf57d92b1b2684731a770c593d162587ca98e9d372be876ab14b389866f0f68282604051808060200182810382528484828181526020019250808284378201915050935050505060405180910390a15050565b600560009054906101000a900473ffffffffffffffffffffffffffffffffffffffff1681565b612a766141c4565b60168054600181600116156101000203166002900480601f016020809104026020016040519081016040528092919081815260200182805460018160011615610100020316600290048015612b0c5780601f10612ae157610100808354040283529160200191612b0c565b820191906000526020600020905b815481529060010190602001808311612aef57829003601f168201915b5050505050905090565b60036020528060005260406000206000915090505481565b612b366141c4565b60068054600181600116156101000203166002900480601f016020809104026020016040519081016040528092919081815260200182805460018160011615610100020316600290048015612bcc5780601f10612ba157610100808354040283529160200191612bcc565b820191906000526020600020905b815481529060010190602001808311612baf57829003601f168201915b5050505050905090565b6000600960009054906101000a900473ffffffffffffffffffffffffffffffffffffffff1673ffffffffffffffffffffffffffffffffffffffff163373ffffffffffffffffffffffffffffffffffffffff16141515612c3457600080fd5b8282905090506101008111151515612c4b57600080fd5b8282600c9190612c5c929190614204565b50505050565b3373ffffffffffffffffffffffffffffffffffffffff168273ffffffffffffffffffffffffffffffffffffffff1614151515612c9d57600080fd5b80601460003373ffffffffffffffffffffffffffffffffffffffff1673ffffffffffffffffffffffffffffffffffffffff16815260200190815260200160002060008473ffffffffffffffffffffffffffffffffffffffff1673ffffffffffffffffffffffffffffffffffffffff16815260200190815260200160002060006101000a81548160ff0219169083151502179055508173ffffffffffffffffffffffffffffffffffffffff163373ffffffffffffffffffffffffffffffffffffffff167f17307eab39ab6107e8899845ad3d59bd9653f200f220920489ca2b5937696c3183604051808215151515815260200191505060405180910390a35050565b6000601060009054906101000a900473ffffffffffffffffffffffffffffffffffffffff16905090565b81612dd33382613728565b1515612dde57600080fd5b612de98585856119df565b612df585858585613ca2565b1515612e0057600080fd5b5050505050565b600080600960009054906101000a900473ffffffffffffffffffffffffffffffffffffffff1673ffffffffffffffffffffffffffffffffffffffff163373ffffffffffffffffffffffffffffffffffffffff16141515612e6657600080fd5b6010602060ff1611151515612e7a57600080fd5b6001600d80549050039150600d82815481101515612e9457fe5b906000526020600020900154905080600d85815481101515612eb257fe5b906000526020600020900181600019169055506000600d83815481101515612ed657fe5b90600052602060002090018160001916905550600d805480919060019003612efe9190614284565b5050505050565b6000600e60009054906101000a900473ffffffffffffffffffffffffffffffffffffffff16905090565b6000600960009054906101000a900473ffffffffffffffffffffffffffffffffffffffff1673ffffffffffffffffffffffffffffffffffffffff163373ffffffffffffffffffffffffffffffffffffffff16141515612f8d57600080fd5b828290509050600081118015612fa4575060208111155b1515612faf57600080fd5b8282600b9190612fc0929190614204565b50505050565b612fce6141c4565b612fd782612197565b1515612fe257600080fd5b601b60008381526020019081526020016000208054600181600116156101000203166002900480601f0160208091040260200160405190810160405280929190818152602001828054600181600116156101000203166002900480156130895780601f1061305e57610100808354040283529160200191613089565b820191906000526020600020905b81548152906001019060200180831161306c57829003601f168201915b50505050509050919050565b60026020528060005260406000206000915090505481565b600960009054906101000a900473ffffffffffffffffffffffffffffffffffffffff1673ffffffffffffffffffffffffffffffffffffffff163373ffffffffffffffffffffffffffffffffffffffff1614151561310957600080fd5b80600a8190555050565b3373ffffffffffffffffffffffffffffffffffffffff1661313383612281565b73ffffffffffffffffffffffffffffffffffffffff1614151561315557600080fd5b601060009054906101000a900473ffffffffffffffffffffffffffffffffffffffff1673ffffffffffffffffffffffffffffffffffffffff1663aad3ec9633836040518363ffffffff167c0100000000000000000000000000000000000000000000000000000000028152600401808373ffffffffffffffffffffffffffffffffffffffff1673ffffffffffffffffffffffffffffffffffffffff16815260200182815260200192505050600060405180830381600087803b151561321957600080fd5b6102c65a03f1151561322a57600080fd5b5050507f4f04130f46dd1e00a82dae1ffa48c13a8cabe468b42b9cc102a766711bd63353823383604051808481526020018373ffffffffffffffffffffffffffffffffffffffff1673ffffffffffffffffffffffffffffffffffffffff168152602001828152602001935050505060405180910390a15050565b60015481565b601060009054906101000a900473ffffffffffffffffffffffffffffffffffffffff1673ffffffffffffffffffffffffffffffffffffffff166108fc349081150290604051600060405180830381858888f19350505050151561330c57600080fd5b7f9566bda72037bf9c5595eca9767ce805f0e65570522fcef215d1a5587455ccd88133604051808381526020018273ffffffffffffffffffffffffffffffffffffffff1673ffffffffffffffffffffffffffffffffffffffff1681526020019250505060405180910390a150565b600960009054906101000a900473ffffffffffffffffffffffffffffffffffffffff1673ffffffffffffffffffffffffffffffffffffffff163373ffffffffffffffffffffffffffffffffffffffff161415156133d657600080fd5b6010602060ff16111515156133ea57600080fd5b80600d838154811015156133fa57fe5b906000526020600020900181600019169055505050565b6000601460008473ffffffffffffffffffffffffffffffffffffffff1673ffffffffffffffffffffffffffffffffffffffff16815260200190815260200160002060008373ffffffffffffffffffffffffffffffffffffffff1673ffffffffffffffffffffffffffffffffffffffff16815260200190815260200160002060009054906101000a900460ff16905092915050565b600560009054906101000a900473ffffffffffffffffffffffffffffffffffffffff1673ffffffffffffffffffffffffffffffffffffffff163373ffffffffffffffffffffffffffffffffffffffff1614151561350157600080fd5b600073ffffffffffffffffffffffffffffffffffffffff168173ffffffffffffffffffffffffffffffffffffffff161415151561353d57600080fd5b8073ffffffffffffffffffffffffffffffffffffffff16600560009054906101000a900473ffffffffffffffffffffffffffffffffffffffff1673ffffffffffffffffffffffffffffffffffffffff167f8be0079c531659141344cd1fd0a4f28419497f9722a3daafe3b4186f6b6457e060405160405180910390a380600560006101000a81548173ffffffffffffffffffffffffffffffffffffffff021916908373ffffffffffffffffffffffffffffffffffffffff16021790555050565b600560009054906101000a900473ffffffffffffffffffffffffffffffffffffffff1673ffffffffffffffffffffffffffffffffffffffff163373ffffffffffffffffffffffffffffffffffffffff1614151561365957600080fd5b8073ffffffffffffffffffffffffffffffffffffffff16ff5b61367a6142b0565b600d8054806020026020016040519081016040528092919081815260200182805480156136ca57602002820191906000526020600020905b815460001916815260200190600101908083116136b2575b5050505050905090565b6136de8282613e78565b601980549050601a6000838152602001908152602001600020819055506019805480600101828161370f91906142c4565b9160005260206000209001600083909190915055505050565b60008061373483612281565b90508073ffffffffffffffffffffffffffffffffffffffff168473ffffffffffffffffffffffffffffffffffffffff1614806137a357508373ffffffffffffffffffffffffffffffffffffffff1661378b84611498565b73ffffffffffffffffffffffffffffffffffffffff16145b806137b457506137b38185613411565b5b91505092915050565b8173ffffffffffffffffffffffffffffffffffffffff166137dd82612281565b73ffffffffffffffffffffffffffffffffffffffff161415156137ff57600080fd5b600073ffffffffffffffffffffffffffffffffffffffff166012600083815260200190815260200160002060009054906101000a900473ffffffffffffffffffffffffffffffffffffffff1673ffffffffffffffffffffffffffffffffffffffff161415156139225760006012600083815260200190815260200160002060006101000a81548173ffffffffffffffffffffffffffffffffffffffff021916908373ffffffffffffffffffffffffffffffffffffffff160217905550600073ffffffffffffffffffffffffffffffffffffffff168273ffffffffffffffffffffffffffffffffffffffff167f8c5be1e5ebec7d5bd14f71427d1e84f3dd0314c0f7b2291e5b200ac8c7c3b925836040518082815260200191505060405180910390a35b5050565b60008060006139358585613f28565b601860008581526020019081526020016000205492506139a16001601760008873ffffffffffffffffffffffffffffffffffffffff1673ffffffffffffffffffffffffffffffffffffffff16815260200190815260200160002080549050613c8990919063ffffffff16565b9150601760008673ffffffffffffffffffffffffffffffffffffffff1673ffffffffffffffffffffffffffffffffffffffff168152602001908152602001600020828154811015156139ef57fe5b906000526020600020900154905080601760008773ffffffffffffffffffffffffffffffffffffffff1673ffffffffffffffffffffffffffffffffffffffff16815260200190815260200160002084815481101515613a4a57fe5b9060005260206000209001819055506000601760008773ffffffffffffffffffffffffffffffffffffffff1673ffffffffffffffffffffffffffffffffffffffff16815260200190815260200160002083815481101515613aa757fe5b906000526020600020900181905550601760008673ffffffffffffffffffffffffffffffffffffffff1673ffffffffffffffffffffffffffffffffffffffff168152602001908152602001600020805480919060019003613b0891906142f0565b50600060186000868152602001908152602001600020819055508260186000838152602001908152602001600020819055505050505050565b6000613b4d8383614057565b601760008473ffffffffffffffffffffffffffffffffffffffff1673ffffffffffffffffffffffffffffffffffffffff168152602001908152602001600020805490509050601760008473ffffffffffffffffffffffffffffffffffffffff1673ffffffffffffffffffffffffffffffffffffffff1681526020019081526020016000208054806001018281613be391906142c4565b916000526020600020900160008490919091505550806018600084815260200190815260200160002081905550505050565b6000808284019050838110151515613c2957fe5b8091505092915050565b6000806000841415613c485760009150613c67565b8284029050828482811515613c5957fe5b04141515613c6357fe5b8091505b5092915050565b6000808284811515613c7c57fe5b0490508091505092915050565b6000828211151515613c9757fe5b818303905092915050565b600080613cc48573ffffffffffffffffffffffffffffffffffffffff166141b1565b1515613cd35760019150613e6f565b8473ffffffffffffffffffffffffffffffffffffffff1663f0b9e5ba8786866000604051602001526040518463ffffffff167c0100000000000000000000000000000000000000000000000000000000028152600401808473ffffffffffffffffffffffffffffffffffffffff1673ffffffffffffffffffffffffffffffffffffffff16815260200183815260200180602001828103825283818151815260200191508051906020019080838360005b83811015613d9e578082015181840152602081019050613d83565b50505050905090810190601f168015613dcb5780820380516001836020036101000a031916815260200191505b50945050505050602060405180830381600087803b1515613deb57600080fd5b6102c65a03f11515613dfc57600080fd5b50505060405180519050905063f0b9e5ba7c0100000000000000000000000000000000000000000000000000000000027bffffffffffffffffffffffffffffffffffffffffffffffffffffffff1916817bffffffffffffffffffffffffffffffffffffffffffffffffffffffff19161491505b50949350505050565b600073ffffffffffffffffffffffffffffffffffffffff168273ffffffffffffffffffffffffffffffffffffffff1614151515613eb457600080fd5b613ebe8282613b41565b8173ffffffffffffffffffffffffffffffffffffffff16600073ffffffffffffffffffffffffffffffffffffffff167fddf252ad1be2c89b69c2b068fc378daa952ba7f163c4a11628f55a4df523b3ef836040518082815260200191505060405180910390a35050565b8173ffffffffffffffffffffffffffffffffffffffff16613f4882612281565b73ffffffffffffffffffffffffffffffffffffffff16141515613f6a57600080fd5b613fbd6001601360008573ffffffffffffffffffffffffffffffffffffffff1673ffffffffffffffffffffffffffffffffffffffff16815260200190815260200160002054613c8990919063ffffffff16565b601360008473ffffffffffffffffffffffffffffffffffffffff1673ffffffffffffffffffffffffffffffffffffffff1681526020019081526020016000208190555060006011600083815260200190815260200160002060006101000a81548173ffffffffffffffffffffffffffffffffffffffff021916908373ffffffffffffffffffffffffffffffffffffffff1602179055505050565b600073ffffffffffffffffffffffffffffffffffffffff166011600083815260200190815260200160002060009054906101000a900473ffffffffffffffffffffffffffffffffffffffff1673ffffffffffffffffffffffffffffffffffffffff161415156140c557600080fd5b816011600083815260200190815260200160002060006101000a81548173ffffffffffffffffffffffffffffffffffffffff021916908373ffffffffffffffffffffffffffffffffffffffff16021790555061416a6001601360008573ffffffffffffffffffffffffffffffffffffffff1673ffffffffffffffffffffffffffffffffffffffff16815260200190815260200160002054613c1590919063ffffffff16565b601360008473ffffffffffffffffffffffffffffffffffffffff1673ffffffffffffffffffffffffffffffffffffffff168152602001908152602001600020819055505050565b600080823b905060008111915050919050565b602060405190810160405280600081525090565b8154818355818115116141ff578183600052602060002091820191016141fe919061431c565b5b505050565b828054600181600116156101000203166002900490600052602060002090601f016020900481019282601f1061424557803560ff1916838001178555614273565b82800160010185558215614273579182015b82811115614272578235825591602001919060010190614257565b5b5090506142809190614341565b5090565b8154818355818115116142ab578183600052602060002091820191016142aa919061431c565b5b505050565b602060405190810160405280600081525090565b8154818355818115116142eb578183600052602060002091820191016142ea9190614341565b5b505050565b815481835581811511614317578183600052602060002091820191016143169190614341565b5b505050565b61433e91905b8082111561433a576000816000905550600101614322565b5090565b90565b61436391905b8082111561435f576000816000905550600101614347565b5090565b90565b600073ffffffffffffffffffffffffffffffffffffffff168273ffffffffffffffffffffffffffffffffffffffff16141515156143a257600080fd5b6000811115156143b157600080fd5b6000600260008473ffffffffffffffffffffffffffffffffffffffff1673ffffffffffffffffffffffffffffffffffffffff168152602001908152602001600020541415156143ff57600080fd5b6004805480600101828161441391906144c5565b9160005260206000209001600084909190916101000a81548173ffffffffffffffffffffffffffffffffffffffff021916908373ffffffffffffffffffffffffffffffffffffffff1602179055505080600260008473ffffffffffffffffffffffffffffffffffffffff1673ffffffffffffffffffffffffffffffffffffffff168152602001908152602001600020819055506144bb81600054613c1590919063ffffffff16565b6000819055505050565b8154818355818115116144ec578183600052602060002091820191016144eb9190614341565b5b5050505600a165627a7a72305820a53ba32efa9fd2af45233e798784b28b278732b71340436c31da04658fad14ef00296060604052336000806101000a81548173ffffffffffffffffffffffffffffffffffffffff021916908373ffffffffffffffffffffffffffffffffffffffff160217905550610541806100536000396000f30060606040526004361061006d576000357c0100000000000000000000000000000000000000000000000000000000900463ffffffff16806383197ef0146100d55780638da5cb5b146100ea578063aad3ec961461013f578063f2fde38b14610181578063f5074f41146101ba575b341561007857600080fd5b6000809054906101000a900473ffffffffffffffffffffffffffffffffffffffff1673ffffffffffffffffffffffffffffffffffffffff163373ffffffffffffffffffffffffffffffffffffffff161415156100d357600080fd5b005b34156100e057600080fd5b6100e86101f3565b005b34156100f557600080fd5b6100fd610288565b604051808273ffffffffffffffffffffffffffffffffffffffff1673ffffffffffffffffffffffffffffffffffffffff16815260200191505060405180910390f35b341561014a57600080fd5b61017f600480803573ffffffffffffffffffffffffffffffffffffffff169060200190919080359060200190919050506102ad565b005b341561018c57600080fd5b6101b8600480803573ffffffffffffffffffffffffffffffffffffffff1690602001909190505061034c565b005b34156101c557600080fd5b6101f1600480803573ffffffffffffffffffffffffffffffffffffffff169060200190919050506104a1565b005b6000809054906101000a900473ffffffffffffffffffffffffffffffffffffffff1673ffffffffffffffffffffffffffffffffffffffff163373ffffffffffffffffffffffffffffffffffffffff1614151561024e57600080fd5b6000809054906101000a900473ffffffffffffffffffffffffffffffffffffffff1673ffffffffffffffffffffffffffffffffffffffff16ff5b6000809054906101000a900473ffffffffffffffffffffffffffffffffffffffff1681565b6000809054906101000a900473ffffffffffffffffffffffffffffffffffffffff1673ffffffffffffffffffffffffffffffffffffffff163373ffffffffffffffffffffffffffffffffffffffff1614151561030857600080fd5b8173ffffffffffffffffffffffffffffffffffffffff166108fc829081150290604051600060405180830381858888f19350505050151561034857600080fd5b5050565b6000809054906101000a900473ffffffffffffffffffffffffffffffffffffffff1673ffffffffffffffffffffffffffffffffffffffff163373ffffffffffffffffffffffffffffffffffffffff161415156103a757600080fd5b600073ffffffffffffffffffffffffffffffffffffffff168173ffffffffffffffffffffffffffffffffffffffff16141515156103e357600080fd5b8073ffffffffffffffffffffffffffffffffffffffff166000809054906101000a900473ffffffffffffffffffffffffffffffffffffffff1673ffffffffffffffffffffffffffffffffffffffff167f8be0079c531659141344cd1fd0a4f28419497f9722a3daafe3b4186f6b6457e060405160405180910390a3806000806101000a81548173ffffffffffffffffffffffffffffffffffffffff021916908373ffffffffffffffffffffffffffffffffffffffff16021790555050565b6000809054906101000a900473ffffffffffffffffffffffffffffffffffffffff1673ffffffffffffffffffffffffffffffffffffffff163373ffffffffffffffffffffffffffffffffffffffff161415156104fc57600080fd5b8073ffffffffffffffffffffffffffffffffffffffff16ff00a165627a7a72305820511fca0b94a0852734b2e8b9572b96e8d06eb1ae2116648341c4e9ec1620d7490029a165627a7a72305820da4ac3beef2ebaeb3ccfe576de99e116f7a17005ffbd5dabc8630941c7daf6140029",
  "source": "pragma solidity ^0.4.19;\n\nimport \"../registry/Registry.sol\";\nimport \"zeppelin-solidity/contracts/ownership/Ownable.sol\";\n\ncontract RegistryCreator is Ownable {\n\n    address internal builder_;\n\n    function RegistryCreator(address _builder)\n        public\n    {\n        builder_ = _builder;\n    }\n\n    function create(\n        address[] _benefitiaries,\n        uint256[] _shares,\n        string _name,\n        string _symbol,\n        string _linkToABIOfEntriesContract,\n        bytes _bytecodeOfEntriesContract\n    )\n        external\n        returns (Registry newRegistryContract)\n    {\n        require(msg.sender == builder_);\n\n        newRegistryContract = createRegistry(\n            _benefitiaries,\n            _shares,\n            _name,\n            _symbol,\n            _linkToABIOfEntriesContract,\n            _bytecodeOfEntriesContract\n        );\n\n        return newRegistryContract;\n    }\n\n    function createRegistry(\n        address[] _benefitiaries,\n        uint256[] _shares,\n        string _name,\n        string _symbol,\n        string _linkToABIOfEntriesContract,\n        bytes _bytecodeOfEntriesContract\n    )\n        internal\n        returns (Registry registryContract)\n    {\n        registryContract = new Registry(\n            _benefitiaries,\n            _shares,\n            _name,\n            _symbol,\n            _linkToABIOfEntriesContract,\n            _bytecodeOfEntriesContract\n        );\n        registryContract.transferOwnership(msg.sender);\n\n        return registryContract;\n    }\n\n    function setBuilder(address _builder)\n        external\n        onlyOwner\n    {\n        builder_ = _builder;\n    }\n\n    function registryBuilder()\n        public\n        view\n        returns (address)\n    {\n        return builder_;\n    }\n}\n",
  "sourcePath": "/Users/litvintech/Projects/chaingear/contracts/chaingear/RegistryCreator.sol",
  "compiler": {
    "name": "solc",
    "version": "0.4.19+commit.c4cbbb05.Emscripten.clang"
  },
  "schemaVersion": "1.0.1",
  "updatedAt": "2018-04-19T20:10:20.815Z"
}