{
  "contractName": "RegistryAccessControl",
  "abi": [
    {
      "constant": true,
      "inputs": [],
      "name": "paused",
      "outputs": [
        {
          "name": "",
          "type": "bool"
        }
      ],
      "payable": false,
      "stateMutability": "view",
      "type": "function"
    },
    {
      "constant": true,
      "inputs": [],
      "name": "owner",
      "outputs": [
        {
          "name": "",
          "type": "address"
        }
      ],
      "payable": false,
      "stateMutability": "view",
      "type": "function"
    },
    {
      "inputs": [],
      "payable": true,
      "stateMutability": "payable",
      "type": "constructor"
    },
    {
      "anonymous": false,
      "inputs": [
        {
          "indexed": true,
          "name": "previousOwner",
          "type": "address"
        },
        {
          "indexed": true,
          "name": "newOwner",
          "type": "address"
        }
      ],
      "name": "OwnershipTransferred",
      "type": "event"
    },
    {
      "anonymous": false,
      "inputs": [
        {
          "indexed": true,
          "name": "previousOwner",
          "type": "address"
        },
        {
          "indexed": true,
          "name": "newOwner",
          "type": "address"
        }
      ],
      "name": "TokenizedOwnershipTransferred",
      "type": "event"
    },
    {
      "anonymous": false,
      "inputs": [],
      "name": "Pause",
      "type": "event"
    },
    {
      "anonymous": false,
      "inputs": [],
      "name": "Unpause",
      "type": "event"
    },
    {
      "constant": true,
      "inputs": [],
      "name": "permissionsTypeEntries",
      "outputs": [
        {
          "name": "",
          "type": "uint8"
        }
      ],
      "payable": false,
      "stateMutability": "view",
      "type": "function"
    },
    {
      "constant": false,
      "inputs": [
        {
          "name": "_permissionTypeEntries",
          "type": "uint256"
        }
      ],
      "name": "updatePermissionTypeEntries",
      "outputs": [],
      "payable": false,
      "stateMutability": "nonpayable",
      "type": "function"
    },
    {
      "constant": false,
      "inputs": [
        {
          "name": "newOwner",
          "type": "address"
        }
      ],
      "name": "transferOwnership",
      "outputs": [],
      "payable": false,
      "stateMutability": "nonpayable",
      "type": "function"
    },
    {
      "constant": false,
      "inputs": [],
      "name": "pause",
      "outputs": [],
      "payable": false,
      "stateMutability": "nonpayable",
      "type": "function"
    },
    {
      "constant": false,
      "inputs": [],
      "name": "unpause",
      "outputs": [],
      "payable": false,
      "stateMutability": "nonpayable",
      "type": "function"
    },
    {
      "constant": false,
      "inputs": [],
      "name": "destroy",
      "outputs": [],
      "payable": false,
      "stateMutability": "nonpayable",
      "type": "function"
    },
    {
      "constant": false,
      "inputs": [
        {
          "name": "_recipient",
          "type": "address"
        }
      ],
      "name": "destroyAndSend",
      "outputs": [],
      "payable": false,
      "stateMutability": "nonpayable",
      "type": "function"
    }
  ],
  "bytecode": "0x606060405260008060016101000a81548160ff0219169083151502179055506000600160146101000a81548160ff02191690831515021790555033600160006101000a81548173ffffffffffffffffffffffffffffffffffffffff021916908373ffffffffffffffffffffffffffffffffffffffff160217905550610796806100896000396000f300606060405260043610610099576000357c0100000000000000000000000000000000000000000000000000000000900463ffffffff16806327f5f1b61461009e578063351c6bbe146100c15780633f4ba83a146100f85780635c975abb1461010d57806383197ef01461013a5780638456cb591461014f5780638da5cb5b14610164578063f2fde38b146101b9578063f5074f41146101f2575b600080fd5b34156100a957600080fd5b6100bf600480803590602001909190505061022b565b005b34156100cc57600080fd5b6100d46102d1565b604051808260028111156100e457fe5b60ff16815260200191505060405180910390f35b341561010357600080fd5b61010b6102e7565b005b341561011857600080fd5b6101206103a7565b604051808215151515815260200191505060405180910390f35b341561014557600080fd5b61014d6103ba565b005b341561015a57600080fd5b610162610473565b005b341561016f57600080fd5b610177610533565b604051808273ffffffffffffffffffffffffffffffffffffffff1673ffffffffffffffffffffffffffffffffffffffff16815260200191505060405180910390f35b34156101c457600080fd5b6101f0600480803573ffffffffffffffffffffffffffffffffffffffff16906020019091905050610559565b005b34156101fd57600080fd5b610229600480803573ffffffffffffffffffffffffffffffffffffffff169060200190919050506106d3565b005b600160009054906101000a900473ffffffffffffffffffffffffffffffffffffffff1673ffffffffffffffffffffffffffffffffffffffff163373ffffffffffffffffffffffffffffffffffffffff1614151561028757600080fd5b8060028081111561029457fe5b101515156102a157600080fd5b8060028111156102ad57fe5b6000806101000a81548160ff021916908360028111156102c957fe5b021790555050565b60008060009054906101000a900460ff16905090565b600160009054906101000a900473ffffffffffffffffffffffffffffffffffffffff1673ffffffffffffffffffffffffffffffffffffffff163373ffffffffffffffffffffffffffffffffffffffff1614151561034357600080fd5b600160149054906101000a900460ff16151561035e57600080fd5b6000600160146101000a81548160ff0219169083151502179055507f7805862f689e2f13df9f062ff482ad3ad112aca9e0847911ed832e158c525b3360405160405180910390a1565b600160149054906101000a900460ff1681565b600160009054906101000a900473ffffffffffffffffffffffffffffffffffffffff1673ffffffffffffffffffffffffffffffffffffffff163373ffffffffffffffffffffffffffffffffffffffff1614151561041657600080fd5b60001515600060019054906101000a900460ff16151514151561043857600080fd5b600160009054906101000a900473ffffffffffffffffffffffffffffffffffffffff1673ffffffffffffffffffffffffffffffffffffffff16ff5b600160009054906101000a900473ffffffffffffffffffffffffffffffffffffffff1673ffffffffffffffffffffffffffffffffffffffff163373ffffffffffffffffffffffffffffffffffffffff161415156104cf57600080fd5b600160149054906101000a900460ff161515156104eb57600080fd5b60018060146101000a81548160ff0219169083151502179055507f6985a02210a168e66602d3235cb6db0e70f92b3ba4d376a33c0f3d9434bff62560405160405180910390a1565b600160009054906101000a900473ffffffffffffffffffffffffffffffffffffffff1681565b600160009054906101000a900473ffffffffffffffffffffffffffffffffffffffff1673ffffffffffffffffffffffffffffffffffffffff163373ffffffffffffffffffffffffffffffffffffffff161415156105b557600080fd5b60001515600060019054906101000a900460ff1615151415156105d757600080fd5b600073ffffffffffffffffffffffffffffffffffffffff168173ffffffffffffffffffffffffffffffffffffffff161415151561061357600080fd5b8073ffffffffffffffffffffffffffffffffffffffff16600160009054906101000a900473ffffffffffffffffffffffffffffffffffffffff1673ffffffffffffffffffffffffffffffffffffffff167f8be0079c531659141344cd1fd0a4f28419497f9722a3daafe3b4186f6b6457e060405160405180910390a380600160006101000a81548173ffffffffffffffffffffffffffffffffffffffff021916908373ffffffffffffffffffffffffffffffffffffffff16021790555050565b600160009054906101000a900473ffffffffffffffffffffffffffffffffffffffff1673ffffffffffffffffffffffffffffffffffffffff163373ffffffffffffffffffffffffffffffffffffffff1614151561072f57600080fd5b60001515600060019054906101000a900460ff16151514151561075157600080fd5b8073ffffffffffffffffffffffffffffffffffffffff16ff00a165627a7a723058205b61881455bfcf0fc7f9bf5717b738433715d850cfedfb087fe57481135873090029",
  "source": "pragma solidity ^0.4.18;\n\ncontract RegistryAccessControl {\n\n    PermissionTypeEntries internal permissionTypeEntries_;\n\n    enum PermissionTypeEntries {OnlyOwner, Whitelist, AllUsers}\n\n    bool internal chaingearModeState = false;\n\n    address internal chaingearAddress;\n\n    modifier onlyChaingearModeOn() {\n        require(chaingearModeState == true);\n        _;\n    }\n\n    modifier onlyChaingearModeOff() {\n        require(chaingearModeState == false);\n        _;\n    }\n\n    modifier onlyPermissionedToEntries() {\n        if (permissionTypeEntries_ == PermissionTypeEntries.OnlyOwner) {\n            require(msg.sender == owner);\n        } \n        // else if (permissionTypeEntries_ == PermissionTypeEntries.Whitelist) {\n        //     require(whitelist[msg.sender] || msg.sender == owner);\n        // }\n        _;\n    }\n\n    function RegistryAccessControl()\n        public\n        payable\n    {\n        owner = msg.sender;\n    }\n\n    function permissionsTypeEntries()\n        public\n        view\n        returns (PermissionTypeEntries)\n    {\n        return permissionTypeEntries_;\n    }\n\n    function updatePermissionTypeEntries(uint _permissionTypeEntries)\n      external\n      onlyOwner\n    {\n        require(uint(PermissionTypeEntries.AllUsers) >= _permissionTypeEntries);\n        permissionTypeEntries_ = PermissionTypeEntries(_permissionTypeEntries);\n    }\n\n    //ownable\n    address public owner;\n\n    event OwnershipTransferred(address indexed previousOwner, address indexed newOwner);\n    event TokenizedOwnershipTransferred(address indexed previousOwner, address indexed newOwner);\n\n    modifier onlyOwner() {\n        require(msg.sender == owner);\n        _;\n    }\n\n    modifier onlyChaingear() {\n        require(msg.sender == chaingearAddress);\n        _;\n    }\n\n    function transferOwnership(address newOwner)\n        onlyOwner\n        onlyChaingearModeOff\n        public\n    {\n        require(newOwner != address(0));\n        OwnershipTransferred(owner, newOwner);\n        owner = newOwner;\n    }\n\n    //pausable\n    event Pause();\n    event Unpause();\n\n    bool public paused = false;\n\n    modifier whenNotPaused() {\n        require(!paused);\n        _;\n    }\n\n    modifier whenPaused() {\n        require(paused);\n        _;\n    }\n\n    function pause()\n        onlyOwner\n        whenNotPaused\n        public\n    {\n        paused = true;\n        Pause();\n    }\n\n    function unpause()\n        onlyOwner\n        whenPaused\n        public\n    {\n        paused = false;\n        Unpause();\n    }\n\n    //Destructible\n\n    function destroy()\n        onlyOwner\n        onlyChaingearModeOff\n        public\n    {\n        selfdestruct(owner);\n    }\n\n    function destroyAndSend(address _recipient)\n        onlyOwner\n        onlyChaingearModeOff\n        public\n    {\n        selfdestruct(_recipient);\n    }\n}\n",
  "sourcePath": "/Users/litvintech/Projects/chaingear/contracts/registry/RegistryAccessControl.sol",
  "compiler": {
    "name": "solc",
    "version": "0.4.19+commit.c4cbbb05.Emscripten.clang"
  },
  "schemaVersion": "1.0.1",
  "updatedAt": "2018-04-13T15:34:57.412Z"
}