{
  "contractName": "RegistryBase",
  "abi": [
    {
      "anonymous": false,
      "inputs": [
        {
          "indexed": false,
          "name": "name",
          "type": "string"
        },
        {
          "indexed": false,
          "name": "registryAddress",
          "type": "address"
        },
        {
          "indexed": false,
          "name": "creator",
          "type": "address"
        },
        {
          "indexed": false,
          "name": "registryID",
          "type": "uint256"
        }
      ],
      "name": "RegistryRegistered",
      "type": "event"
    },
    {
      "constant": true,
      "inputs": [
        {
          "name": "_registryID",
          "type": "uint256"
        }
      ],
      "name": "nameOf",
      "outputs": [
        {
          "name": "",
          "type": "string"
        }
      ],
      "payable": false,
      "stateMutability": "view",
      "type": "function"
    },
    {
      "constant": true,
      "inputs": [
        {
          "name": "_registryID",
          "type": "uint256"
        }
      ],
      "name": "contractAddressOf",
      "outputs": [
        {
          "name": "",
          "type": "address"
        }
      ],
      "payable": false,
      "stateMutability": "view",
      "type": "function"
    },
    {
      "constant": true,
      "inputs": [
        {
          "name": "_registryID",
          "type": "uint256"
        }
      ],
      "name": "creatorOf",
      "outputs": [
        {
          "name": "",
          "type": "address"
        }
      ],
      "payable": false,
      "stateMutability": "view",
      "type": "function"
    },
    {
      "constant": true,
      "inputs": [
        {
          "name": "_registryID",
          "type": "uint256"
        }
      ],
      "name": "registryDateOf",
      "outputs": [
        {
          "name": "",
          "type": "uint256"
        }
      ],
      "payable": false,
      "stateMutability": "view",
      "type": "function"
    },
    {
      "constant": true,
      "inputs": [
        {
          "name": "_registryID",
          "type": "uint256"
        }
      ],
      "name": "ABILinkOf",
      "outputs": [
        {
          "name": "",
          "type": "string"
        }
      ],
      "payable": false,
      "stateMutability": "view",
      "type": "function"
    },
    {
      "constant": true,
      "inputs": [
        {
          "name": "_registryID",
          "type": "uint256"
        }
      ],
      "name": "registryOwnerOf",
      "outputs": [
        {
          "name": "",
          "type": "address"
        }
      ],
      "payable": false,
      "stateMutability": "view",
      "type": "function"
    },
    {
      "constant": true,
      "inputs": [
        {
          "name": "_registryID",
          "type": "uint256"
        }
      ],
      "name": "registryInfo",
      "outputs": [
        {
          "name": "",
          "type": "string"
        },
        {
          "name": "",
          "type": "address"
        },
        {
          "name": "",
          "type": "address"
        },
        {
          "name": "",
          "type": "uint256"
        },
        {
          "name": "",
          "type": "string"
        },
        {
          "name": "",
          "type": "address"
        }
      ],
      "payable": false,
      "stateMutability": "view",
      "type": "function"
    },
    {
      "constant": true,
      "inputs": [
        {
          "name": "_registryID",
          "type": "uint256"
        }
      ],
      "name": "currentRegistryBalanceETHOf",
      "outputs": [
        {
          "name": "",
          "type": "uint256"
        }
      ],
      "payable": false,
      "stateMutability": "view",
      "type": "function"
    },
    {
      "constant": true,
      "inputs": [
        {
          "name": "_registryID",
          "type": "uint256"
        }
      ],
      "name": "accumulatedRegistryETHOf",
      "outputs": [
        {
          "name": "",
          "type": "uint256"
        }
      ],
      "payable": false,
      "stateMutability": "view",
      "type": "function"
    },
    {
      "constant": true,
      "inputs": [
        {
          "name": "_registryID",
          "type": "uint256"
        }
      ],
      "name": "registryBalanceInfo",
      "outputs": [
        {
          "name": "",
          "type": "uint256"
        },
        {
          "name": "",
          "type": "uint256"
        }
      ],
      "payable": false,
      "stateMutability": "view",
      "type": "function"
    },
    {
      "constant": true,
      "inputs": [],
      "name": "registriesAmount",
      "outputs": [
        {
          "name": "",
          "type": "uint256"
        }
      ],
      "payable": false,
      "stateMutability": "view",
      "type": "function"
    }
  ],
  "bytecode": "0x6060604052341561000f57600080fd5b61097b8061001e6000396000f3006060604052600436106100af576000357c0100000000000000000000000000000000000000000000000000000000900463ffffffff168063051a2664146100b457806337f5881c14610150578063557902ad146102f8578063589a1743146103215780638e2992a014610384578063acaff7d4146103bb578063bb8275cf146103f9578063be901e321461045c578063bfe9300a14610493578063ca6284d7146104ca578063f5e0c61014610566575b600080fd5b34156100bf57600080fd5b6100d560048080359060200190919050506105c9565b6040518080602001828103825283818151815260200191508051906020019080838360005b838110156101155780820151818401526020810190506100fa565b50505050905090810190601f1680156101425780820380516001836020036101000a031916815260200191505b509250505060405180910390f35b341561015b57600080fd5b6101716004808035906020019091905050610691565b60405180806020018773ffffffffffffffffffffffffffffffffffffffff1673ffffffffffffffffffffffffffffffffffffffff1681526020018673ffffffffffffffffffffffffffffffffffffffff1673ffffffffffffffffffffffffffffffffffffffff168152602001858152602001806020018473ffffffffffffffffffffffffffffffffffffffff1673ffffffffffffffffffffffffffffffffffffffff168152602001838103835289818151815260200191508051906020019080838360005b83811015610251578082015181840152602081019050610236565b50505050905090810190601f16801561027e5780820380516001836020036101000a031916815260200191505b50838103825285818151815260200191508051906020019080838360005b838110156102b757808201518184015260208101905061029c565b50505050905090810190601f1680156102e45780820380516001836020036101000a031916815260200191505b509850505050505050505060405180910390f35b341561030357600080fd5b61030b6106f3565b6040518082815260200191505060405180910390f35b341561032c57600080fd5b61034260048080359060200190919050506106ff565b604051808273ffffffffffffffffffffffffffffffffffffffff1673ffffffffffffffffffffffffffffffffffffffff16815260200191505060405180910390f35b341561038f57600080fd5b6103a56004808035906020019091905050610748565b6040518082815260200191505060405180910390f35b34156103c657600080fd5b6103dc6004808035906020019091905050610771565b604051808381526020018281526020019250505060405180910390f35b341561040457600080fd5b61041a600480803590602001909190505061078f565b604051808273ffffffffffffffffffffffffffffffffffffffff1673ffffffffffffffffffffffffffffffffffffffff16815260200191505060405180910390f35b341561046757600080fd5b61047d60048080359060200190919050506107d8565b6040518082815260200191505060405180910390f35b341561049e57600080fd5b6104b46004808035906020019091905050610801565b6040518082815260200191505060405180910390f35b34156104d557600080fd5b6104eb600480803590602001909190505061082a565b6040518080602001828103825283818151815260200191508051906020019080838360005b8381101561052b578082015181840152602081019050610510565b50505050905090810190601f1680156105585780820380516001836020036101000a031916815260200191505b509250505060405180910390f35b341561057157600080fd5b61058760048080359060200190919050506108f2565b604051808273ffffffffffffffffffffffffffffffffffffffff1673ffffffffffffffffffffffffffffffffffffffff16815260200191505060405180910390f35b6105d161093b565b6000828154811015156105e057fe5b90600052602060002090600802016000018054600181600116156101000203166002900480601f0160208091040260200160405190810160405280929190818152602001828054600181600116156101000203166002900480156106855780601f1061065a57610100808354040283529160200191610685565b820191906000526020600020905b81548152906001019060200180831161066857829003601f168201915b50505050509050919050565b61069961093b565b60008060006106a661093b565b60006106b1876105c9565b6106ba886108f2565b6106c3896106ff565b6106cc8a610748565b6106d58b61082a565b6106de8c61078f565b95509550955095509550955091939550919395565b60008080549050905090565b6000808281548110151561070f57fe5b906000526020600020906008020160020160009054906101000a900473ffffffffffffffffffffffffffffffffffffffff169050919050565b6000808281548110151561075857fe5b9060005260206000209060080201600401549050919050565b60008061077d836107d8565b61078684610801565b91509150915091565b6000808281548110151561079f57fe5b906000526020600020906008020160050160009054906101000a900473ffffffffffffffffffffffffffffffffffffffff169050919050565b600080828154811015156107e857fe5b9060005260206000209060080201600601549050919050565b6000808281548110151561081157fe5b9060005260206000209060080201600701549050919050565b61083261093b565b60008281548110151561084157fe5b90600052602060002090600802016003018054600181600116156101000203166002900480601f0160208091040260200160405190810160405280929190818152602001828054600181600116156101000203166002900480156108e65780601f106108bb576101008083540402835291602001916108e6565b820191906000526020600020905b8154815290600101906020018083116108c957829003601f168201915b50505050509050919050565b6000808281548110151561090257fe5b906000526020600020906008020160010160009054906101000a900473ffffffffffffffffffffffffffffffffffffffff169050919050565b6020604051908101604052806000815250905600a165627a7a72305820f492650dd71cfc0a8b582d87360c691da8dc3b2e35adf5e069086cbfe2a025bd0029",
  "source": "pragma solidity ^0.4.19;\n\n\ncontract RegistryBase {\n\n    struct RegistryMeta {\n        string name;\n        address contractAddress;\n        address creator;\n        string linkABI;\n        uint registrationTimestamp;\n        address owner;\n        uint currentRegistryBalanceETH;\n        uint accumulatedRegistryETH;\n    }\n\n    RegistryMeta[] internal registries;\n\n    event RegistryRegistered(\n        string name,\n        address registryAddress,\n        address creator,\n        uint registryID\n    );\n\n    // event RegistryUnregistered(\n    //     address owner,\n    //     string registryName\n    // );\n\n    // event RegistryTransferred(\n    //     address caller,\n    //     string registryName,\n    //     address newOwner\n    // );\n\n    function nameOf(uint256 _registryID)\n        public\n        view\n        returns (string)\n    {\n        return registries[_registryID].name;\n    }\n\n    function contractAddressOf(uint256 _registryID)\n        public\n        view\n        returns (address)\n    {\n        return registries[_registryID].contractAddress;\n    }\n\n    function creatorOf(uint256 _registryID)\n        public\n        view\n        returns (address)\n    {\n        return registries[_registryID].creator;\n    }\n\n    function registryDateOf(uint256 _registryID)\n        public\n        view\n        returns (uint)\n    {\n        return registries[_registryID].registrationTimestamp;\n    }\n\n    function ABILinkOf(uint256 _registryID)\n        public\n        view\n        returns (string)\n    {\n        return registries[_registryID].linkABI;\n    }\n\n    function registryOwnerOf(uint256 _registryID)\n        public\n        view\n        returns (address)\n    {\n        return registries[_registryID].owner;\n    }\n\n    function registryInfo(uint256 _registryID)\n        public\n        view\n        returns (string, address, address, uint, string, address)\n    {\n        return (\n            nameOf(_registryID),\n            contractAddressOf(_registryID),\n            creatorOf(_registryID),\n            registryDateOf(_registryID),\n            ABILinkOf(_registryID),\n            registryOwnerOf(_registryID)\n        );\n    }\n\n     function currentRegistryBalanceETHOf(uint256 _registryID)\n         public\n         view\n         returns (uint)\n     {\n         return registries[_registryID].currentRegistryBalanceETH;\n     }\n\n     function accumulatedRegistryETHOf(uint256 _registryID)\n         public\n         view\n         returns (uint)\n     {\n         return registries[_registryID].accumulatedRegistryETH;\n     }\n\n\n    function registryBalanceInfo(uint256 _registryID)\n        public\n        view\n        returns (uint, uint)\n    {\n        return (\n            currentRegistryBalanceETHOf(_registryID),\n            accumulatedRegistryETHOf(_registryID)\n        );\n    }\n\n    function registriesAmount()\n        public\n        view\n        returns (uint256)\n    {\n        return registries.length;\n    }\n}\n",
  "sourcePath": "/Users/litvintech/Projects/chaingear/contracts/chaingear/RegistryBase.sol",
  "compiler": {
    "name": "solc",
    "version": "0.4.19+commit.c4cbbb05.Emscripten.clang"
  },
  "schemaVersion": "1.0.1",
  "updatedAt": "2018-04-19T16:50:08.877Z"
}