{
  "contractName": "RegistryAccessControl",
  "abi": [
    {
      "constant": false,
      "inputs": [],
      "name": "destroy",
      "outputs": [],
      "payable": false,
      "stateMutability": "nonpayable",
      "type": "function"
    },
    {
      "constant": true,
      "inputs": [],
      "name": "owner",
      "outputs": [
        {
          "name": "",
          "type": "address"
        }
      ],
      "payable": false,
      "stateMutability": "view",
      "type": "function"
    },
    {
      "constant": false,
      "inputs": [
        {
          "name": "newOwner",
          "type": "address"
        }
      ],
      "name": "transferOwnership",
      "outputs": [],
      "payable": false,
      "stateMutability": "nonpayable",
      "type": "function"
    },
    {
      "constant": false,
      "inputs": [
        {
          "name": "_recipient",
          "type": "address"
        }
      ],
      "name": "destroyAndSend",
      "outputs": [],
      "payable": false,
      "stateMutability": "nonpayable",
      "type": "function"
    },
    {
      "inputs": [],
      "payable": false,
      "stateMutability": "nonpayable",
      "type": "constructor"
    },
    {
      "anonymous": false,
      "inputs": [
        {
          "indexed": true,
          "name": "previousOwner",
          "type": "address"
        },
        {
          "indexed": true,
          "name": "newOwner",
          "type": "address"
        }
      ],
      "name": "OwnershipTransferred",
      "type": "event"
    },
    {
      "constant": true,
      "inputs": [],
      "name": "creator",
      "outputs": [
        {
          "name": "",
          "type": "address"
        }
      ],
      "payable": false,
      "stateMutability": "view",
      "type": "function"
    },
    {
      "constant": true,
      "inputs": [],
      "name": "permissionsTypeEntries",
      "outputs": [
        {
          "name": "",
          "type": "uint8"
        }
      ],
      "payable": false,
      "stateMutability": "view",
      "type": "function"
    },
    {
      "constant": false,
      "inputs": [
        {
          "name": "_permissionTypeEntries",
          "type": "uint256"
        }
      ],
      "name": "updatePermissionTypeEntries",
      "outputs": [],
      "payable": false,
      "stateMutability": "nonpayable",
      "type": "function"
    }
  ],
  "bytecode": "0x6060604052341561000f57600080fd5b336000806101000a81548173ffffffffffffffffffffffffffffffffffffffff021916908373ffffffffffffffffffffffffffffffffffffffff16021790555032600160006101000a81548173ffffffffffffffffffffffffffffffffffffffff021916908373ffffffffffffffffffffffffffffffffffffffff1602179055506105aa8061009f6000396000f300606060405260043610610083576000357c0100000000000000000000000000000000000000000000000000000000900463ffffffff16806302d05d3f1461008857806327f5f1b6146100dd578063351c6bbe1461010057806383197ef0146101375780638da5cb5b1461014c578063f2fde38b146101a1578063f5074f41146101da575b600080fd5b341561009357600080fd5b61009b610213565b604051808273ffffffffffffffffffffffffffffffffffffffff1673ffffffffffffffffffffffffffffffffffffffff16815260200191505060405180910390f35b34156100e857600080fd5b6100fe600480803590602001909190505061023d565b005b341561010b57600080fd5b6101136102e4565b6040518082600281111561012357fe5b60ff16815260200191505060405180910390f35b341561014257600080fd5b61014a6102fb565b005b341561015757600080fd5b61015f610390565b604051808273ffffffffffffffffffffffffffffffffffffffff1673ffffffffffffffffffffffffffffffffffffffff16815260200191505060405180910390f35b34156101ac57600080fd5b6101d8600480803573ffffffffffffffffffffffffffffffffffffffff169060200190919050506103b5565b005b34156101e557600080fd5b610211600480803573ffffffffffffffffffffffffffffffffffffffff1690602001909190505061050a565b005b6000600160009054906101000a900473ffffffffffffffffffffffffffffffffffffffff16905090565b600160009054906101000a900473ffffffffffffffffffffffffffffffffffffffff1673ffffffffffffffffffffffffffffffffffffffff163373ffffffffffffffffffffffffffffffffffffffff1614151561029957600080fd5b806002808111156102a657fe5b101515156102b357600080fd5b8060028111156102bf57fe5b600160146101000a81548160ff021916908360028111156102dc57fe5b021790555050565b6000600160149054906101000a900460ff16905090565b6000809054906101000a900473ffffffffffffffffffffffffffffffffffffffff1673ffffffffffffffffffffffffffffffffffffffff163373ffffffffffffffffffffffffffffffffffffffff1614151561035657600080fd5b6000809054906101000a900473ffffffffffffffffffffffffffffffffffffffff1673ffffffffffffffffffffffffffffffffffffffff16ff5b6000809054906101000a900473ffffffffffffffffffffffffffffffffffffffff1681565b6000809054906101000a900473ffffffffffffffffffffffffffffffffffffffff1673ffffffffffffffffffffffffffffffffffffffff163373ffffffffffffffffffffffffffffffffffffffff1614151561041057600080fd5b600073ffffffffffffffffffffffffffffffffffffffff168173ffffffffffffffffffffffffffffffffffffffff161415151561044c57600080fd5b8073ffffffffffffffffffffffffffffffffffffffff166000809054906101000a900473ffffffffffffffffffffffffffffffffffffffff1673ffffffffffffffffffffffffffffffffffffffff167f8be0079c531659141344cd1fd0a4f28419497f9722a3daafe3b4186f6b6457e060405160405180910390a3806000806101000a81548173ffffffffffffffffffffffffffffffffffffffff021916908373ffffffffffffffffffffffffffffffffffffffff16021790555050565b6000809054906101000a900473ffffffffffffffffffffffffffffffffffffffff1673ffffffffffffffffffffffffffffffffffffffff163373ffffffffffffffffffffffffffffffffffffffff1614151561056557600080fd5b8073ffffffffffffffffffffffffffffffffffffffff16ff00a165627a7a7230582002fa8c92fa4c20649b84eafceb3f5a4293d395acd4b260f39b7dcdf4927137c90029",
  "source": "pragma solidity ^0.4.19;\n\nimport \"zeppelin-solidity/contracts/ownership/Ownable.sol\";\nimport \"zeppelin-solidity/contracts/lifecycle/Destructible.sol\";\n\ncontract RegistryAccessControl is Ownable, Destructible {\n\n    address internal creator_;\n\n    PermissionTypeEntries internal permissionTypeEntries_;\n\n    enum PermissionTypeEntries {OnlyCreator, Whitelist, AllUsers}\n\n    modifier onlyCreator() {\n        require(msg.sender == creator_);\n        _;\n    }\n\n    modifier onlyPermissionedToEntries() {\n        if (permissionTypeEntries_ == PermissionTypeEntries.OnlyCreator) {\n            require(msg.sender == creator_);\n        }\n        // if (permissionTypeEntries_ == PermissionTypeEntries.Whitelist) {\n        //     require(whitelist[msg.sender] || msg.sender == creator_);\n        // }\n        _;\n    }\n\n    function RegistryAccessControl()\n        public\n    {\n        creator_ = tx.origin;\n    }\n\n    function creator()\n        public\n        view\n        returns (address)\n    {\n        return creator_;\n    }\n\n    function permissionsTypeEntries()\n        public\n        view\n        returns (PermissionTypeEntries)\n    {\n        return permissionTypeEntries_;\n    }\n\n    function updatePermissionTypeEntries(uint _permissionTypeEntries)\n        external\n        onlyCreator\n    {\n        require(uint(PermissionTypeEntries.AllUsers) >= _permissionTypeEntries);\n        permissionTypeEntries_ = PermissionTypeEntries(_permissionTypeEntries);\n    }\n\n}\n",
  "sourcePath": "/Users/litvintech/Projects/chaingear/contracts/registry/RegistryAccessControl.sol",
  "compiler": {
    "name": "solc",
    "version": "0.4.19+commit.c4cbbb05.Emscripten.clang"
  },
  "schemaVersion": "1.0.1",
  "updatedAt": "2018-04-18T22:29:39.925Z"
}