{
  "contractName": "Registry",
  "abi": [
    {
      "constant": true,
      "inputs": [],
      "name": "creator",
      "outputs": [
        {
          "name": "",
          "type": "address"
        }
      ],
      "payable": false,
      "stateMutability": "view",
      "type": "function"
    },
    {
      "constant": true,
      "inputs": [],
      "name": "name",
      "outputs": [
        {
          "name": "",
          "type": "string"
        }
      ],
      "payable": false,
      "stateMutability": "view",
      "type": "function"
    },
    {
      "constant": true,
      "inputs": [],
      "name": "linkSourceCode",
      "outputs": [
        {
          "name": "",
          "type": "string"
        }
      ],
      "payable": false,
      "stateMutability": "view",
      "type": "function"
    },
    {
      "constant": true,
      "inputs": [
        {
          "name": "_tokenId",
          "type": "uint256"
        }
      ],
      "name": "getApproved",
      "outputs": [
        {
          "name": "",
          "type": "address"
        }
      ],
      "payable": false,
      "stateMutability": "view",
      "type": "function"
    },
    {
      "constant": false,
      "inputs": [
        {
          "name": "_to",
          "type": "address"
        },
        {
          "name": "_tokenId",
          "type": "uint256"
        }
      ],
      "name": "approve",
      "outputs": [],
      "payable": false,
      "stateMutability": "nonpayable",
      "type": "function"
    },
    {
      "constant": true,
      "inputs": [],
      "name": "registryName",
      "outputs": [
        {
          "name": "",
          "type": "string"
        }
      ],
      "payable": false,
      "stateMutability": "view",
      "type": "function"
    },
    {
      "constant": true,
      "inputs": [],
      "name": "totalSupply",
      "outputs": [
        {
          "name": "",
          "type": "uint256"
        }
      ],
      "payable": false,
      "stateMutability": "view",
      "type": "function"
    },
    {
      "constant": false,
      "inputs": [
        {
          "name": "_tag",
          "type": "bytes32"
        }
      ],
      "name": "addRegistryTag",
      "outputs": [],
      "payable": false,
      "stateMutability": "nonpayable",
      "type": "function"
    },
    {
      "constant": false,
      "inputs": [
        {
          "name": "_from",
          "type": "address"
        },
        {
          "name": "_to",
          "type": "address"
        },
        {
          "name": "_tokenId",
          "type": "uint256"
        }
      ],
      "name": "transferFrom",
      "outputs": [],
      "payable": false,
      "stateMutability": "nonpayable",
      "type": "function"
    },
    {
      "constant": false,
      "inputs": [
        {
          "name": "_permissionTypeEntries",
          "type": "uint256"
        }
      ],
      "name": "updatePermissionTypeEntries",
      "outputs": [],
      "payable": false,
      "stateMutability": "nonpayable",
      "type": "function"
    },
    {
      "constant": true,
      "inputs": [
        {
          "name": "_owner",
          "type": "address"
        },
        {
          "name": "_index",
          "type": "uint256"
        }
      ],
      "name": "tokenOfOwnerByIndex",
      "outputs": [
        {
          "name": "",
          "type": "uint256"
        }
      ],
      "payable": false,
      "stateMutability": "view",
      "type": "function"
    },
    {
      "constant": true,
      "inputs": [],
      "name": "permissionsTypeEntries",
      "outputs": [
        {
          "name": "",
          "type": "uint8"
        }
      ],
      "payable": false,
      "stateMutability": "view",
      "type": "function"
    },
    {
      "constant": true,
      "inputs": [],
      "name": "entryCreationFee",
      "outputs": [
        {
          "name": "",
          "type": "uint256"
        }
      ],
      "payable": false,
      "stateMutability": "view",
      "type": "function"
    },
    {
      "constant": true,
      "inputs": [],
      "name": "totalShares",
      "outputs": [
        {
          "name": "",
          "type": "uint256"
        }
      ],
      "payable": false,
      "stateMutability": "view",
      "type": "function"
    },
    {
      "constant": true,
      "inputs": [],
      "name": "registryDescription",
      "outputs": [
        {
          "name": "",
          "type": "string"
        }
      ],
      "payable": false,
      "stateMutability": "view",
      "type": "function"
    },
    {
      "constant": false,
      "inputs": [
        {
          "name": "_from",
          "type": "address"
        },
        {
          "name": "_to",
          "type": "address"
        },
        {
          "name": "_tokenId",
          "type": "uint256"
        }
      ],
      "name": "safeTransferFrom",
      "outputs": [],
      "payable": false,
      "stateMutability": "nonpayable",
      "type": "function"
    },
    {
      "constant": false,
      "inputs": [
        {
          "name": "_linkABI",
          "type": "string"
        }
      ],
      "name": "setABILink",
      "outputs": [],
      "payable": false,
      "stateMutability": "nonpayable",
      "type": "function"
    },
    {
      "constant": true,
      "inputs": [],
      "name": "ABIOfEntriesContract",
      "outputs": [
        {
          "name": "",
          "type": "string"
        }
      ],
      "payable": false,
      "stateMutability": "view",
      "type": "function"
    },
    {
      "constant": true,
      "inputs": [],
      "name": "linkMeta",
      "outputs": [
        {
          "name": "",
          "type": "string"
        }
      ],
      "payable": false,
      "stateMutability": "view",
      "type": "function"
    },
    {
      "constant": false,
      "inputs": [],
      "name": "claim",
      "outputs": [],
      "payable": false,
      "stateMutability": "nonpayable",
      "type": "function"
    },
    {
      "constant": true,
      "inputs": [
        {
          "name": "_tokenId",
          "type": "uint256"
        }
      ],
      "name": "exists",
      "outputs": [
        {
          "name": "",
          "type": "bool"
        }
      ],
      "payable": false,
      "stateMutability": "view",
      "type": "function"
    },
    {
      "constant": true,
      "inputs": [
        {
          "name": "_index",
          "type": "uint256"
        }
      ],
      "name": "tokenByIndex",
      "outputs": [
        {
          "name": "",
          "type": "uint256"
        }
      ],
      "payable": false,
      "stateMutability": "view",
      "type": "function"
    },
    {
      "constant": true,
      "inputs": [
        {
          "name": "",
          "type": "uint256"
        }
      ],
      "name": "payees",
      "outputs": [
        {
          "name": "",
          "type": "address"
        }
      ],
      "payable": false,
      "stateMutability": "view",
      "type": "function"
    },
    {
      "constant": true,
      "inputs": [
        {
          "name": "_tokenId",
          "type": "uint256"
        }
      ],
      "name": "ownerOf",
      "outputs": [
        {
          "name": "",
          "type": "address"
        }
      ],
      "payable": false,
      "stateMutability": "view",
      "type": "function"
    },
    {
      "constant": true,
      "inputs": [],
      "name": "registryBalance",
      "outputs": [
        {
          "name": "",
          "type": "uint256"
        }
      ],
      "payable": false,
      "stateMutability": "view",
      "type": "function"
    },
    {
      "constant": false,
      "inputs": [
        {
          "name": "_linkMeta",
          "type": "string"
        }
      ],
      "name": "setMetaLink",
      "outputs": [],
      "payable": false,
      "stateMutability": "nonpayable",
      "type": "function"
    },
    {
      "constant": true,
      "inputs": [
        {
          "name": "_owner",
          "type": "address"
        }
      ],
      "name": "balanceOf",
      "outputs": [
        {
          "name": "",
          "type": "uint256"
        }
      ],
      "payable": false,
      "stateMutability": "view",
      "type": "function"
    },
    {
      "constant": false,
      "inputs": [
        {
          "name": "_payeeIndex",
          "type": "uint256"
        },
        {
          "name": "_newAddress",
          "type": "address"
        }
      ],
      "name": "changePayeeAddress",
      "outputs": [],
      "payable": false,
      "stateMutability": "nonpayable",
      "type": "function"
    },
    {
      "constant": false,
      "inputs": [],
      "name": "destroy",
      "outputs": [],
      "payable": false,
      "stateMutability": "nonpayable",
      "type": "function"
    },
    {
      "constant": false,
      "inputs": [
        {
          "name": "_linkSourceCode",
          "type": "string"
        }
      ],
      "name": "setSourceLink",
      "outputs": [],
      "payable": false,
      "stateMutability": "nonpayable",
      "type": "function"
    },
    {
      "constant": true,
      "inputs": [],
      "name": "owner",
      "outputs": [
        {
          "name": "",
          "type": "address"
        }
      ],
      "payable": false,
      "stateMutability": "view",
      "type": "function"
    },
    {
      "constant": true,
      "inputs": [],
      "name": "symbol",
      "outputs": [
        {
          "name": "",
          "type": "string"
        }
      ],
      "payable": false,
      "stateMutability": "view",
      "type": "function"
    },
    {
      "constant": true,
      "inputs": [
        {
          "name": "",
          "type": "address"
        }
      ],
      "name": "released",
      "outputs": [
        {
          "name": "",
          "type": "uint256"
        }
      ],
      "payable": false,
      "stateMutability": "view",
      "type": "function"
    },
    {
      "constant": true,
      "inputs": [],
      "name": "linkABI",
      "outputs": [
        {
          "name": "",
          "type": "string"
        }
      ],
      "payable": false,
      "stateMutability": "view",
      "type": "function"
    },
    {
      "constant": false,
      "inputs": [
        {
          "name": "_registryDescription",
          "type": "string"
        }
      ],
      "name": "updateRegistryDescription",
      "outputs": [],
      "payable": false,
      "stateMutability": "nonpayable",
      "type": "function"
    },
    {
      "constant": false,
      "inputs": [
        {
          "name": "_to",
          "type": "address"
        },
        {
          "name": "_approved",
          "type": "bool"
        }
      ],
      "name": "setApprovalForAll",
      "outputs": [],
      "payable": false,
      "stateMutability": "nonpayable",
      "type": "function"
    },
    {
      "constant": true,
      "inputs": [],
      "name": "registrySafe",
      "outputs": [
        {
          "name": "",
          "type": "address"
        }
      ],
      "payable": false,
      "stateMutability": "view",
      "type": "function"
    },
    {
      "constant": false,
      "inputs": [
        {
          "name": "_from",
          "type": "address"
        },
        {
          "name": "_to",
          "type": "address"
        },
        {
          "name": "_tokenId",
          "type": "uint256"
        },
        {
          "name": "_data",
          "type": "bytes"
        }
      ],
      "name": "safeTransferFrom",
      "outputs": [],
      "payable": false,
      "stateMutability": "nonpayable",
      "type": "function"
    },
    {
      "constant": false,
      "inputs": [
        {
          "name": "_index",
          "type": "uint256"
        },
        {
          "name": "_tag",
          "type": "bytes32"
        }
      ],
      "name": "removeRegistryTag",
      "outputs": [],
      "payable": false,
      "stateMutability": "nonpayable",
      "type": "function"
    },
    {
      "constant": true,
      "inputs": [],
      "name": "entryBase",
      "outputs": [
        {
          "name": "",
          "type": "address"
        }
      ],
      "payable": false,
      "stateMutability": "view",
      "type": "function"
    },
    {
      "constant": false,
      "inputs": [
        {
          "name": "_registryName",
          "type": "string"
        }
      ],
      "name": "updateRegistryName",
      "outputs": [],
      "payable": false,
      "stateMutability": "nonpayable",
      "type": "function"
    },
    {
      "constant": true,
      "inputs": [
        {
          "name": "_tokenId",
          "type": "uint256"
        }
      ],
      "name": "tokenURI",
      "outputs": [
        {
          "name": "",
          "type": "string"
        }
      ],
      "payable": false,
      "stateMutability": "view",
      "type": "function"
    },
    {
      "constant": true,
      "inputs": [
        {
          "name": "",
          "type": "address"
        }
      ],
      "name": "shares",
      "outputs": [
        {
          "name": "",
          "type": "uint256"
        }
      ],
      "payable": false,
      "stateMutability": "view",
      "type": "function"
    },
    {
      "constant": false,
      "inputs": [
        {
          "name": "_fee",
          "type": "uint256"
        }
      ],
      "name": "updateEntryCreationFee",
      "outputs": [],
      "payable": false,
      "stateMutability": "nonpayable",
      "type": "function"
    },
    {
      "constant": true,
      "inputs": [],
      "name": "totalReleased",
      "outputs": [
        {
          "name": "",
          "type": "uint256"
        }
      ],
      "payable": false,
      "stateMutability": "view",
      "type": "function"
    },
    {
      "constant": false,
      "inputs": [
        {
          "name": "_index",
          "type": "uint256"
        },
        {
          "name": "_tag",
          "type": "bytes32"
        }
      ],
      "name": "updateRegistryTag",
      "outputs": [],
      "payable": false,
      "stateMutability": "nonpayable",
      "type": "function"
    },
    {
      "constant": true,
      "inputs": [
        {
          "name": "_owner",
          "type": "address"
        },
        {
          "name": "_operator",
          "type": "address"
        }
      ],
      "name": "isApprovedForAll",
      "outputs": [
        {
          "name": "",
          "type": "bool"
        }
      ],
      "payable": false,
      "stateMutability": "view",
      "type": "function"
    },
    {
      "constant": false,
      "inputs": [
        {
          "name": "newOwner",
          "type": "address"
        }
      ],
      "name": "transferOwnership",
      "outputs": [],
      "payable": false,
      "stateMutability": "nonpayable",
      "type": "function"
    },
    {
      "constant": false,
      "inputs": [
        {
          "name": "_recipient",
          "type": "address"
        }
      ],
      "name": "destroyAndSend",
      "outputs": [],
      "payable": false,
      "stateMutability": "nonpayable",
      "type": "function"
    },
    {
      "constant": true,
      "inputs": [],
      "name": "registryTags",
      "outputs": [
        {
          "name": "",
          "type": "bytes32[]"
        }
      ],
      "payable": false,
      "stateMutability": "view",
      "type": "function"
    },
    {
      "inputs": [
        {
          "name": "_benefitiaries",
          "type": "address[]"
        },
        {
          "name": "_shares",
          "type": "uint256[]"
        },
        {
          "name": "_name",
          "type": "string"
        },
        {
          "name": "_symbol",
          "type": "string"
        },
        {
          "name": "_linkToABIOfEntriesContract",
          "type": "string"
        },
        {
          "name": "_bytecodeOfEntriesContract",
          "type": "bytes"
        }
      ],
      "payable": true,
      "stateMutability": "payable",
      "type": "constructor"
    },
    {
      "payable": true,
      "stateMutability": "payable",
      "type": "fallback"
    },
    {
      "anonymous": false,
      "inputs": [
        {
          "indexed": false,
          "name": "payeeIndex",
          "type": "uint256"
        },
        {
          "indexed": false,
          "name": "oldAddress",
          "type": "address"
        },
        {
          "indexed": false,
          "name": "newAddress",
          "type": "address"
        }
      ],
      "name": "PayeeAddressChanged",
      "type": "event"
    },
    {
      "anonymous": false,
      "inputs": [
        {
          "indexed": true,
          "name": "_from",
          "type": "address"
        },
        {
          "indexed": true,
          "name": "_to",
          "type": "address"
        },
        {
          "indexed": false,
          "name": "_tokenId",
          "type": "uint256"
        }
      ],
      "name": "Transfer",
      "type": "event"
    },
    {
      "anonymous": false,
      "inputs": [
        {
          "indexed": true,
          "name": "_owner",
          "type": "address"
        },
        {
          "indexed": true,
          "name": "_approved",
          "type": "address"
        },
        {
          "indexed": false,
          "name": "_tokenId",
          "type": "uint256"
        }
      ],
      "name": "Approval",
      "type": "event"
    },
    {
      "anonymous": false,
      "inputs": [
        {
          "indexed": true,
          "name": "_owner",
          "type": "address"
        },
        {
          "indexed": true,
          "name": "_operator",
          "type": "address"
        },
        {
          "indexed": false,
          "name": "_approved",
          "type": "bool"
        }
      ],
      "name": "ApprovalForAll",
      "type": "event"
    },
    {
      "anonymous": false,
      "inputs": [
        {
          "indexed": false,
          "name": "creator",
          "type": "address"
        },
        {
          "indexed": false,
          "name": "entryId",
          "type": "uint256"
        }
      ],
      "name": "EntryCreated",
      "type": "event"
    },
    {
      "anonymous": false,
      "inputs": [
        {
          "indexed": false,
          "name": "owner",
          "type": "address"
        },
        {
          "indexed": false,
          "name": "entryId",
          "type": "uint256"
        }
      ],
      "name": "EntryUpdated",
      "type": "event"
    },
    {
      "anonymous": false,
      "inputs": [
        {
          "indexed": false,
          "name": "entryId",
          "type": "uint256"
        },
        {
          "indexed": false,
          "name": "newOwner",
          "type": "address"
        }
      ],
      "name": "EntryChangedOwner",
      "type": "event"
    },
    {
      "anonymous": false,
      "inputs": [
        {
          "indexed": false,
          "name": "owner",
          "type": "address"
        },
        {
          "indexed": false,
          "name": "entryId",
          "type": "uint256"
        }
      ],
      "name": "EntryDeleted",
      "type": "event"
    },
    {
      "anonymous": false,
      "inputs": [
        {
          "indexed": false,
          "name": "linkMeta",
          "type": "string"
        }
      ],
      "name": "MetaLinkUpdated",
      "type": "event"
    },
    {
      "anonymous": false,
      "inputs": [
        {
          "indexed": false,
          "name": "linkABI",
          "type": "string"
        }
      ],
      "name": "ABILinkUpdated",
      "type": "event"
    },
    {
      "anonymous": false,
      "inputs": [
        {
          "indexed": false,
          "name": "linkSource",
          "type": "string"
        }
      ],
      "name": "SourceLinkUpdated",
      "type": "event"
    },
    {
      "anonymous": false,
      "inputs": [
        {
          "indexed": true,
          "name": "previousOwner",
          "type": "address"
        },
        {
          "indexed": true,
          "name": "newOwner",
          "type": "address"
        }
      ],
      "name": "OwnershipTransferred",
      "type": "event"
    },
    {
      "constant": false,
      "inputs": [
        {
          "name": "_serializedParams",
          "type": "bytes"
        }
      ],
      "name": "createEntry",
      "outputs": [
        {
          "name": "",
          "type": "uint256"
        }
      ],
      "payable": true,
      "stateMutability": "payable",
      "type": "function"
    }
  ],
  "bytecode": "0x606060405260008055600060015560405162004b6638038062004b668339810160405280805182019190602001805182019190602001805182019190602001805182019190602001805182019190602001805182019190505060008686868683836000815183511415156200007357600080fd5b600090505b8251811015620000e057620000d283828151811015156200009557fe5b906020019060200201518383815181101515620000ae57fe5b90602001906020020151620002d46401000000000262003eb5176401000000009004565b808060010191505062000078565b50505033600560006101000a81548173ffffffffffffffffffffffffffffffffffffffff021916908373ffffffffffffffffffffffffffffffffffffffff16021790555032600960006101000a81548173ffffffffffffffffffffffffffffffffffffffff021916908373ffffffffffffffffffffffffffffffffffffffff16021790555081601590805190602001906200017d92919062000467565b5080601690805190602001906200019692919062000467565b50505050506000600960146101000a81548160ff02191690836002811115620001bb57fe5b021790555084600b9080519060200190620001d892919062000467565b5082600f9080519060200190620001f192919062000467565b50620001fc620004ee565b604051809103906000f08015156200021357600080fd5b601060006101000a81548173ffffffffffffffffffffffffffffffffffffffff021916908373ffffffffffffffffffffffffffffffffffffffff16021790555081516020830181816000f09250505060008173ffffffffffffffffffffffffffffffffffffffff16141515156200028657fe5b80600e60006101000a81548173ffffffffffffffffffffffffffffffffffffffff021916908373ffffffffffffffffffffffffffffffffffffffff1602179055505050505050505062000556565b600073ffffffffffffffffffffffffffffffffffffffff168273ffffffffffffffffffffffffffffffffffffffff16141515156200031157600080fd5b6000811115156200032157600080fd5b6000600260008473ffffffffffffffffffffffffffffffffffffffff1673ffffffffffffffffffffffffffffffffffffffff168152602001908152602001600020541415156200037057600080fd5b60048054806001018281620003869190620004ff565b9160005260206000209001600084909190916101000a81548173ffffffffffffffffffffffffffffffffffffffff021916908373ffffffffffffffffffffffffffffffffffffffff1602179055505080600260008473ffffffffffffffffffffffffffffffffffffffff1673ffffffffffffffffffffffffffffffffffffffff168152602001908152602001600020819055506200043e81600054620004486401000000000262003764179091906401000000009004565b6000819055505050565b60008082840190508381101515156200045d57fe5b8091505092915050565b828054600181600116156101000203166002900490600052602060002090601f016020900481019282601f10620004aa57805160ff1916838001178555620004db565b82800160010185558215620004db579182015b82811115620004da578251825591602001919060010190620004bd565b5b509050620004ea91906200052e565b5090565b60405161059480620045d283390190565b81548183558181151162000529578183600052602060002091820191016200052891906200052e565b5b505050565b6200055391905b808211156200054f57600081600090555060010162000535565b5090565b90565b61406c80620005666000396000f300606060405260043610610267576000357c0100000000000000000000000000000000000000000000000000000000900463ffffffff16806302d05d3f1461026957806306fdde03146102be57806307b1f8f71461034c578063081812fc146103da578063095ea7b31461043d5780631654d1691461047f57806318160ddd1461050d578063189efc7c146105365780631a849d6b1461055d57806323b872dd1461059457806327f5f1b6146105f55780632f745c5914610618578063351c6bbe1461066e5780633a1a3d95146106a55780633a98ef39146106ce57806341c39e5c146106f757806342842e0e146107855780634545d21c146107e6578063490a08eb146108145780634dfaf97a146108a25780634e71d92d146109305780634f558e79146109455780634f6ccce71461098057806363037b0c146109b75780636352211e14610a1a57806368b3456214610a7d5780636d2fd13814610aa657806370a0823114610ad45780637b49376814610b2157806383197ef014610b6357806383ca00ac14610b785780638da5cb5b14610ba657806395d89b4114610bfb5780639852595c14610c895780639e925a7814610cd6578063a1f14b2714610d64578063a22cb46514610d92578063aef10f0814610dd6578063b88d4fde14610e2b578063bc044e1814610ecf578063bf3fde3314610eff578063c81225eb14610f54578063c87b56dd14610f82578063ce7c2ac21461101e578063d24f70761461106b578063e33b7de31461108e578063e59f0cc2146110b7578063e985e9c5146110e7578063f2fde38b14611157578063f5074f4114611190578063f5ec4e50146111c9575b005b341561027457600080fd5b61027c611233565b604051808273ffffffffffffffffffffffffffffffffffffffff1673ffffffffffffffffffffffffffffffffffffffff16815260200191505060405180910390f35b34156102c957600080fd5b6102d161125d565b6040518080602001828103825283818151815260200191508051906020019080838360005b838110156103115780820151818401526020810190506102f6565b50505050905090810190601f16801561033e5780820380516001836020036101000a031916815260200191505b509250505060405180910390f35b341561035757600080fd5b61035f611305565b6040518080602001828103825283818151815260200191508051906020019080838360005b8381101561039f578082015181840152602081019050610384565b50505050905090810190601f1680156103cc5780820380516001836020036101000a031916815260200191505b509250505060405180910390f35b34156103e557600080fd5b6103fb60048080359060200190919050506113ad565b604051808273ffffffffffffffffffffffffffffffffffffffff1673ffffffffffffffffffffffffffffffffffffffff16815260200191505060405180910390f35b341561044857600080fd5b61047d600480803573ffffffffffffffffffffffffffffffffffffffff169060200190919080359060200190919050506113ea565b005b341561048a57600080fd5b6104926115b0565b6040518080602001828103825283818151815260200191508051906020019080838360005b838110156104d25780820151818401526020810190506104b7565b50505050905090810190601f1680156104ff5780820380516001836020036101000a031916815260200191505b509250505060405180910390f35b341561051857600080fd5b610520611658565b6040518082815260200191505060405180910390f35b341561054157600080fd5b61055b600480803560001916906020019091905050611665565b005b61057e60048080359060200190820180359060200191909192905050611707565b6040518082815260200191505060405180910390f35b341561059f57600080fd5b6105f3600480803573ffffffffffffffffffffffffffffffffffffffff1690602001909190803573ffffffffffffffffffffffffffffffffffffffff169060200190919080359060200190919050506118f4565b005b341561060057600080fd5b6106166004808035906020019091905050611a0b565b005b341561062357600080fd5b610658600480803573ffffffffffffffffffffffffffffffffffffffff16906020019091908035906020019091905050611ab2565b6040518082815260200191505060405180910390f35b341561067957600080fd5b610681611b2a565b6040518082600281111561069157fe5b60ff16815260200191505060405180910390f35b34156106b057600080fd5b6106b8611b41565b6040518082815260200191505060405180910390f35b34156106d957600080fd5b6106e1611b4b565b6040518082815260200191505060405180910390f35b341561070257600080fd5b61070a611b51565b6040518080602001828103825283818151815260200191508051906020019080838360005b8381101561074a57808201518184015260208101905061072f565b50505050905090810190601f1680156107775780820380516001836020036101000a031916815260200191505b509250505060405180910390f35b341561079057600080fd5b6107e4600480803573ffffffffffffffffffffffffffffffffffffffff1690602001909190803573ffffffffffffffffffffffffffffffffffffffff16906020019091908035906020019091905050611bf9565b005b34156107f157600080fd5b61081260048080359060200190820180359060200191909192905050611c31565b005b341561081f57600080fd5b610827611cf4565b6040518080602001828103825283818151815260200191508051906020019080838360005b8381101561086757808201518184015260208101905061084c565b50505050905090810190601f1680156108945780820380516001836020036101000a031916815260200191505b509250505060405180910390f35b34156108ad57600080fd5b6108b5611d9c565b6040518080602001828103825283818151815260200191508051906020019080838360005b838110156108f55780820151818401526020810190506108da565b50505050905090810190601f1680156109225780820380516001836020036101000a031916815260200191505b509250505060405180910390f35b341561093b57600080fd5b610943611e44565b005b341561095057600080fd5b61096660048080359060200190919050506120ac565b604051808215151515815260200191505060405180910390f35b341561098b57600080fd5b6109a1600480803590602001909190505061211e565b6040518082815260200191505060405180910390f35b34156109c257600080fd5b6109d86004808035906020019091905050612157565b604051808273ffffffffffffffffffffffffffffffffffffffff1673ffffffffffffffffffffffffffffffffffffffff16815260200191505060405180910390f35b3415610a2557600080fd5b610a3b6004808035906020019091905050612196565b604051808273ffffffffffffffffffffffffffffffffffffffff1673ffffffffffffffffffffffffffffffffffffffff16815260200191505060405180910390f35b3415610a8857600080fd5b610a90612214565b6040518082815260200191505060405180910390f35b3415610ab157600080fd5b610ad260048080359060200190820180359060200191909192905050612233565b005b3415610adf57600080fd5b610b0b600480803573ffffffffffffffffffffffffffffffffffffffff169060200190919050506122f6565b6040518082815260200191505060405180910390f35b3415610b2c57600080fd5b610b61600480803590602001909190803573ffffffffffffffffffffffffffffffffffffffff1690602001909190505061237a565b005b3415610b6e57600080fd5b610b7661269e565b005b3415610b8357600080fd5b610ba460048080359060200190820180359060200191909192905050612735565b005b3415610bb157600080fd5b610bb96127f8565b604051808273ffffffffffffffffffffffffffffffffffffffff1673ffffffffffffffffffffffffffffffffffffffff16815260200191505060405180910390f35b3415610c0657600080fd5b610c0e61281e565b6040518080602001828103825283818151815260200191508051906020019080838360005b83811015610c4e578082015181840152602081019050610c33565b50505050905090810190601f168015610c7b5780820380516001836020036101000a031916815260200191505b509250505060405180910390f35b3415610c9457600080fd5b610cc0600480803573ffffffffffffffffffffffffffffffffffffffff169060200190919050506128c6565b6040518082815260200191505060405180910390f35b3415610ce157600080fd5b610ce96128de565b6040518080602001828103825283818151815260200191508051906020019080838360005b83811015610d29578082015181840152602081019050610d0e565b50505050905090810190601f168015610d565780820380516001836020036101000a031916815260200191505b509250505060405180910390f35b3415610d6f57600080fd5b610d9060048080359060200190820180359060200191909192905050612986565b005b3415610d9d57600080fd5b610dd4600480803573ffffffffffffffffffffffffffffffffffffffff169060200190919080351515906020019091905050612a12565b005b3415610de157600080fd5b610de9612b4e565b604051808273ffffffffffffffffffffffffffffffffffffffff1673ffffffffffffffffffffffffffffffffffffffff16815260200191505060405180910390f35b3415610e3657600080fd5b610ecd600480803573ffffffffffffffffffffffffffffffffffffffff1690602001909190803573ffffffffffffffffffffffffffffffffffffffff1690602001909190803590602001909190803590602001908201803590602001908080601f01602080910402602001604051908101604052809392919081815260200183838082843782019150505050505091905050612b78565b005b3415610eda57600080fd5b610efd600480803590602001909190803560001916906020019091905050612bb7565b005b3415610f0a57600080fd5b610f12612cb5565b604051808273ffffffffffffffffffffffffffffffffffffffff1673ffffffffffffffffffffffffffffffffffffffff16815260200191505060405180910390f35b3415610f5f57600080fd5b610f8060048080359060200190820180359060200191909192905050612cdf565b005b3415610f8d57600080fd5b610fa36004808035906020019091905050612d76565b6040518080602001828103825283818151815260200191508051906020019080838360005b83811015610fe3578082015181840152602081019050610fc8565b50505050905090810190601f1680156110105780820380516001836020036101000a031916815260200191505b509250505060405180910390f35b341561102957600080fd5b611055600480803573ffffffffffffffffffffffffffffffffffffffff16906020019091905050612e45565b6040518082815260200191505060405180910390f35b341561107657600080fd5b61108c6004808035906020019091905050612e5d565b005b341561109957600080fd5b6110a1612ec3565b6040518082815260200191505060405180910390f35b34156110c257600080fd5b6110e5600480803590602001909190803560001916906020019091905050612ec9565b005b34156110f257600080fd5b61113d600480803573ffffffffffffffffffffffffffffffffffffffff1690602001909190803573ffffffffffffffffffffffffffffffffffffffff16906020019091905050612f60565b604051808215151515815260200191505060405180910390f35b341561116257600080fd5b61118e600480803573ffffffffffffffffffffffffffffffffffffffff16906020019091905050612ff4565b005b341561119b57600080fd5b6111c7600480803573ffffffffffffffffffffffffffffffffffffffff1690602001909190505061314c565b005b34156111d457600080fd5b6111dc6131c1565b6040518080602001828103825283818151815260200191508051906020019060200280838360005b8381101561121f578082015181840152602081019050611204565b505050509050019250505060405180910390f35b6000600960009054906101000a900473ffffffffffffffffffffffffffffffffffffffff16905090565b611265613d13565b60158054600181600116156101000203166002900480601f0160208091040260200160405190810160405280929190818152602001828054600181600116156101000203166002900480156112fb5780601f106112d0576101008083540402835291602001916112fb565b820191906000526020600020905b8154815290600101906020018083116112de57829003601f168201915b5050505050905090565b61130d613d13565b60088054600181600116156101000203166002900480601f0160208091040260200160405190810160405280929190818152602001828054600181600116156101000203166002900480156113a35780601f10611378576101008083540402835291602001916113a3565b820191906000526020600020905b81548152906001019060200180831161138657829003601f168201915b5050505050905090565b60006012600083815260200190815260200160002060009054906101000a900473ffffffffffffffffffffffffffffffffffffffff169050919050565b60006113f582612196565b90508073ffffffffffffffffffffffffffffffffffffffff168373ffffffffffffffffffffffffffffffffffffffff161415151561143257600080fd5b8073ffffffffffffffffffffffffffffffffffffffff163373ffffffffffffffffffffffffffffffffffffffff16148061147257506114718133612f60565b5b151561147d57600080fd5b600073ffffffffffffffffffffffffffffffffffffffff1661149e836113ad565b73ffffffffffffffffffffffffffffffffffffffff161415806114ee5750600073ffffffffffffffffffffffffffffffffffffffff168373ffffffffffffffffffffffffffffffffffffffff1614155b156115ab57826012600084815260200190815260200160002060006101000a81548173ffffffffffffffffffffffffffffffffffffffff021916908373ffffffffffffffffffffffffffffffffffffffff1602179055508273ffffffffffffffffffffffffffffffffffffffff168173ffffffffffffffffffffffffffffffffffffffff167f8c5be1e5ebec7d5bd14f71427d1e84f3dd0314c0f7b2291e5b200ac8c7c3b925846040518082815260200191505060405180910390a35b505050565b6115b8613d13565b600b8054600181600116156101000203166002900480601f01602080910402602001604051908101604052809291908181526020018280546001816001161561010002031660029004801561164e5780601f106116235761010080835404028352916020019161164e565b820191906000526020600020905b81548152906001019060200180831161163157829003601f168201915b5050505050905090565b6000601980549050905090565b600960009054906101000a900473ffffffffffffffffffffffffffffffffffffffff1673ffffffffffffffffffffffffffffffffffffffff163373ffffffffffffffffffffffffffffffffffffffff161415156116c157600080fd5b6010602060ff16111515156116d557600080fd5b600d80548060010182816116e99190613d27565b91600052602060002090016000839091909150906000191690555050565b6000806000600281111561171757fe5b600960149054906101000a900460ff16600281111561173257fe5b141561179557600960009054906101000a900473ffffffffffffffffffffffffffffffffffffffff1673ffffffffffffffffffffffffffffffffffffffff163373ffffffffffffffffffffffffffffffffffffffff1614151561179457600080fd5b5b600a54341415156117a557600080fd5b600e60009054906101000a900473ffffffffffffffffffffffffffffffffffffffff1673ffffffffffffffffffffffffffffffffffffffff16631a849d6b85856000604051602001526040518363ffffffff167c01000000000000000000000000000000000000000000000000000000000281526004018080602001828103825284848281815260200192508082843782019150509350505050602060405180830381600087803b151561185857600080fd5b6102c65a03f1151561186957600080fd5b50505060405180519050905061187f3382613223565b7fe9a0a2aca9c41fae94448dec8914ad73e4d00ebdc2427e61f3fc66919f4ffa2a3382604051808373ffffffffffffffffffffffffffffffffffffffff1673ffffffffffffffffffffffffffffffffffffffff1681526020018281526020019250505060405180910390a18091505092915050565b806118ff3382613277565b151561190a57600080fd5b600073ffffffffffffffffffffffffffffffffffffffff168473ffffffffffffffffffffffffffffffffffffffff161415151561194657600080fd5b600073ffffffffffffffffffffffffffffffffffffffff168373ffffffffffffffffffffffffffffffffffffffff161415151561198257600080fd5b61198c848361330c565b6119968483613475565b6119a08383613690565b8273ffffffffffffffffffffffffffffffffffffffff168473ffffffffffffffffffffffffffffffffffffffff167fddf252ad1be2c89b69c2b068fc378daa952ba7f163c4a11628f55a4df523b3ef846040518082815260200191505060405180910390a350505050565b600960009054906101000a900473ffffffffffffffffffffffffffffffffffffffff1673ffffffffffffffffffffffffffffffffffffffff163373ffffffffffffffffffffffffffffffffffffffff16141515611a6757600080fd5b80600280811115611a7457fe5b10151515611a8157600080fd5b806002811115611a8d57fe5b600960146101000a81548160ff02191690836002811115611aaa57fe5b021790555050565b6000611abd836122f6565b82101515611aca57600080fd5b601760008473ffffffffffffffffffffffffffffffffffffffff1673ffffffffffffffffffffffffffffffffffffffff16815260200190815260200160002082815481101515611b1657fe5b906000526020600020900154905092915050565b6000600960149054906101000a900460ff16905090565b6000600a54905090565b60005481565b611b59613d13565b600c8054600181600116156101000203166002900480601f016020809104026020016040519081016040528092919081815260200182805460018160011615610100020316600290048015611bef5780601f10611bc457610100808354040283529160200191611bef565b820191906000526020600020905b815481529060010190602001808311611bd257829003601f168201915b5050505050905090565b80611c043382613277565b1515611c0f57600080fd5b611c2b8484846020604051908101604052806000815250612b78565b50505050565b600560009054906101000a900473ffffffffffffffffffffffffffffffffffffffff1673ffffffffffffffffffffffffffffffffffffffff163373ffffffffffffffffffffffffffffffffffffffff16141515611c8d57600080fd5b818160069190611c9e929190613d53565b507f97bc322e754962c4ff23eb8a9d58b147ead5be0347d9a799addc5a2d44564cbe8282604051808060200182810382528484828181526020019250808284378201915050935050505060405180910390a15050565b611cfc613d13565b600f8054600181600116156101000203166002900480601f016020809104026020016040519081016040528092919081815260200182805460018160011615610100020316600290048015611d925780601f10611d6757610100808354040283529160200191611d92565b820191906000526020600020905b815481529060010190602001808311611d7557829003601f168201915b5050505050905090565b611da4613d13565b60078054600181600116156101000203166002900480601f016020809104026020016040519081016040528092919081815260200182805460018160011615610100020316600290048015611e3a5780601f10611e0f57610100808354040283529160200191611e3a565b820191906000526020600020905b815481529060010190602001808311611e1d57829003601f168201915b5050505050905090565b60008060003392506000600260008573ffffffffffffffffffffffffffffffffffffffff1673ffffffffffffffffffffffffffffffffffffffff16815260200190815260200160002054111515611e9a57600080fd5b611ec66001543073ffffffffffffffffffffffffffffffffffffffff163161376490919063ffffffff16565b9150611f7f600360008573ffffffffffffffffffffffffffffffffffffffff1673ffffffffffffffffffffffffffffffffffffffff16815260200190815260200160002054611f71600054611f63600260008973ffffffffffffffffffffffffffffffffffffffff1673ffffffffffffffffffffffffffffffffffffffff168152602001908152602001600020548761378290919063ffffffff16565b6137bd90919063ffffffff16565b6137d890919063ffffffff16565b905060008114151515611f9157600080fd5b803073ffffffffffffffffffffffffffffffffffffffff163110151515611fb757600080fd5b61200981600360008673ffffffffffffffffffffffffffffffffffffffff1673ffffffffffffffffffffffffffffffffffffffff1681526020019081526020016000205461376490919063ffffffff16565b600360008573ffffffffffffffffffffffffffffffffffffffff1673ffffffffffffffffffffffffffffffffffffffff168152602001908152602001600020819055506120618160015461376490919063ffffffff16565b6001819055508273ffffffffffffffffffffffffffffffffffffffff166108fc829081150290604051600060405180830381858888f1935050505015156120a757600080fd5b505050565b6000806011600084815260200190815260200160002060009054906101000a900473ffffffffffffffffffffffffffffffffffffffff169050600073ffffffffffffffffffffffffffffffffffffffff168173ffffffffffffffffffffffffffffffffffffffff161415915050919050565b6000612128611658565b8210151561213557600080fd5b60198281548110151561214457fe5b9060005260206000209001549050919050565b60048181548110151561216657fe5b90600052602060002090016000915054906101000a900473ffffffffffffffffffffffffffffffffffffffff1681565b6000806011600084815260200190815260200160002060009054906101000a900473ffffffffffffffffffffffffffffffffffffffff169050600073ffffffffffffffffffffffffffffffffffffffff168173ffffffffffffffffffffffffffffffffffffffff161415151561220b57600080fd5b80915050919050565b60003073ffffffffffffffffffffffffffffffffffffffff1631905090565b600560009054906101000a900473ffffffffffffffffffffffffffffffffffffffff1673ffffffffffffffffffffffffffffffffffffffff163373ffffffffffffffffffffffffffffffffffffffff1614151561228f57600080fd5b8181600791906122a0929190613d53565b507f6362a59ae98fef1a0a45d03a1127a82c2268ca380148117a052b9f8bce8e6f1e8282604051808060200182810382528484828181526020019250808284378201915050935050505060405180910390a15050565b60008073ffffffffffffffffffffffffffffffffffffffff168273ffffffffffffffffffffffffffffffffffffffff161415151561233357600080fd5b601360008373ffffffffffffffffffffffffffffffffffffffff1673ffffffffffffffffffffffffffffffffffffffff168152602001908152602001600020549050919050565b6000600560009054906101000a900473ffffffffffffffffffffffffffffffffffffffff1673ffffffffffffffffffffffffffffffffffffffff163373ffffffffffffffffffffffffffffffffffffffff161415156123d857600080fd5b6004838154811015156123e757fe5b906000526020600020900160009054906101000a900473ffffffffffffffffffffffffffffffffffffffff169050600260008273ffffffffffffffffffffffffffffffffffffffff1673ffffffffffffffffffffffffffffffffffffffff16815260200190815260200160002054600260008473ffffffffffffffffffffffffffffffffffffffff1673ffffffffffffffffffffffffffffffffffffffff16815260200190815260200160002081905550600360008273ffffffffffffffffffffffffffffffffffffffff1673ffffffffffffffffffffffffffffffffffffffff16815260200190815260200160002054600360008473ffffffffffffffffffffffffffffffffffffffff1673ffffffffffffffffffffffffffffffffffffffff168152602001908152602001600020819055508160048481548110151561252b57fe5b906000526020600020900160006101000a81548173ffffffffffffffffffffffffffffffffffffffff021916908373ffffffffffffffffffffffffffffffffffffffff160217905550600260008273ffffffffffffffffffffffffffffffffffffffff1673ffffffffffffffffffffffffffffffffffffffff16815260200190815260200160002060009055600360008273ffffffffffffffffffffffffffffffffffffffff1673ffffffffffffffffffffffffffffffffffffffff168152602001908152602001600020600090557fa1982f3fe3fa9dba8ce5bc91687e2ab0850b0431cddacc1a249b2ae0390b912f838284604051808481526020018373ffffffffffffffffffffffffffffffffffffffff1673ffffffffffffffffffffffffffffffffffffffff1681526020018273ffffffffffffffffffffffffffffffffffffffff1673ffffffffffffffffffffffffffffffffffffffff168152602001935050505060405180910390a1505050565b600560009054906101000a900473ffffffffffffffffffffffffffffffffffffffff1673ffffffffffffffffffffffffffffffffffffffff163373ffffffffffffffffffffffffffffffffffffffff161415156126fa57600080fd5b600560009054906101000a900473ffffffffffffffffffffffffffffffffffffffff1673ffffffffffffffffffffffffffffffffffffffff16ff5b600560009054906101000a900473ffffffffffffffffffffffffffffffffffffffff1673ffffffffffffffffffffffffffffffffffffffff163373ffffffffffffffffffffffffffffffffffffffff1614151561279157600080fd5b8181600891906127a2929190613d53565b507fcfaf57d92b1b2684731a770c593d162587ca98e9d372be876ab14b389866f0f68282604051808060200182810382528484828181526020019250808284378201915050935050505060405180910390a15050565b600560009054906101000a900473ffffffffffffffffffffffffffffffffffffffff1681565b612826613d13565b60168054600181600116156101000203166002900480601f0160208091040260200160405190810160405280929190818152602001828054600181600116156101000203166002900480156128bc5780601f10612891576101008083540402835291602001916128bc565b820191906000526020600020905b81548152906001019060200180831161289f57829003601f168201915b5050505050905090565b60036020528060005260406000206000915090505481565b6128e6613d13565b60068054600181600116156101000203166002900480601f01602080910402602001604051908101604052809291908181526020018280546001816001161561010002031660029004801561297c5780601f106129515761010080835404028352916020019161297c565b820191906000526020600020905b81548152906001019060200180831161295f57829003601f168201915b5050505050905090565b6000600960009054906101000a900473ffffffffffffffffffffffffffffffffffffffff1673ffffffffffffffffffffffffffffffffffffffff163373ffffffffffffffffffffffffffffffffffffffff161415156129e457600080fd5b82829050905061010081111515156129fb57600080fd5b8282600c9190612a0c929190613d53565b50505050565b3373ffffffffffffffffffffffffffffffffffffffff168273ffffffffffffffffffffffffffffffffffffffff1614151515612a4d57600080fd5b80601460003373ffffffffffffffffffffffffffffffffffffffff1673ffffffffffffffffffffffffffffffffffffffff16815260200190815260200160002060008473ffffffffffffffffffffffffffffffffffffffff1673ffffffffffffffffffffffffffffffffffffffff16815260200190815260200160002060006101000a81548160ff0219169083151502179055508173ffffffffffffffffffffffffffffffffffffffff163373ffffffffffffffffffffffffffffffffffffffff167f17307eab39ab6107e8899845ad3d59bd9653f200f220920489ca2b5937696c3183604051808215151515815260200191505060405180910390a35050565b6000601060009054906101000a900473ffffffffffffffffffffffffffffffffffffffff16905090565b81612b833382613277565b1515612b8e57600080fd5b612b998585856118f4565b612ba5858585856137f1565b1515612bb057600080fd5b5050505050565b600080600960009054906101000a900473ffffffffffffffffffffffffffffffffffffffff1673ffffffffffffffffffffffffffffffffffffffff163373ffffffffffffffffffffffffffffffffffffffff16141515612c1657600080fd5b6010602060ff1611151515612c2a57600080fd5b6001600d80549050039150600d82815481101515612c4457fe5b906000526020600020900154905080600d85815481101515612c6257fe5b906000526020600020900181600019169055506000600d83815481101515612c8657fe5b90600052602060002090018160001916905550600d805480919060019003612cae9190613dd3565b5050505050565b6000600e60009054906101000a900473ffffffffffffffffffffffffffffffffffffffff16905090565b6000600960009054906101000a900473ffffffffffffffffffffffffffffffffffffffff1673ffffffffffffffffffffffffffffffffffffffff163373ffffffffffffffffffffffffffffffffffffffff16141515612d3d57600080fd5b828290509050600081118015612d54575060208111155b1515612d5f57600080fd5b8282600b9190612d70929190613d53565b50505050565b612d7e613d13565b612d87826120ac565b1515612d9257600080fd5b601b60008381526020019081526020016000208054600181600116156101000203166002900480601f016020809104026020016040519081016040528092919081815260200182805460018160011615610100020316600290048015612e395780601f10612e0e57610100808354040283529160200191612e39565b820191906000526020600020905b815481529060010190602001808311612e1c57829003601f168201915b50505050509050919050565b60026020528060005260406000206000915090505481565b600960009054906101000a900473ffffffffffffffffffffffffffffffffffffffff1673ffffffffffffffffffffffffffffffffffffffff163373ffffffffffffffffffffffffffffffffffffffff16141515612eb957600080fd5b80600a8190555050565b60015481565b600960009054906101000a900473ffffffffffffffffffffffffffffffffffffffff1673ffffffffffffffffffffffffffffffffffffffff163373ffffffffffffffffffffffffffffffffffffffff16141515612f2557600080fd5b6010602060ff1611151515612f3957600080fd5b80600d83815481101515612f4957fe5b906000526020600020900181600019169055505050565b6000601460008473ffffffffffffffffffffffffffffffffffffffff1673ffffffffffffffffffffffffffffffffffffffff16815260200190815260200160002060008373ffffffffffffffffffffffffffffffffffffffff1673ffffffffffffffffffffffffffffffffffffffff16815260200190815260200160002060009054906101000a900460ff16905092915050565b600560009054906101000a900473ffffffffffffffffffffffffffffffffffffffff1673ffffffffffffffffffffffffffffffffffffffff163373ffffffffffffffffffffffffffffffffffffffff1614151561305057600080fd5b600073ffffffffffffffffffffffffffffffffffffffff168173ffffffffffffffffffffffffffffffffffffffff161415151561308c57600080fd5b8073ffffffffffffffffffffffffffffffffffffffff16600560009054906101000a900473ffffffffffffffffffffffffffffffffffffffff1673ffffffffffffffffffffffffffffffffffffffff167f8be0079c531659141344cd1fd0a4f28419497f9722a3daafe3b4186f6b6457e060405160405180910390a380600560006101000a81548173ffffffffffffffffffffffffffffffffffffffff021916908373ffffffffffffffffffffffffffffffffffffffff16021790555050565b600560009054906101000a900473ffffffffffffffffffffffffffffffffffffffff1673ffffffffffffffffffffffffffffffffffffffff163373ffffffffffffffffffffffffffffffffffffffff161415156131a857600080fd5b8073ffffffffffffffffffffffffffffffffffffffff16ff5b6131c9613dff565b600d80548060200260200160405190810160405280929190818152602001828054801561321957602002820191906000526020600020905b81546000191681526020019060010190808311613201575b5050505050905090565b61322d82826139c7565b601980549050601a6000838152602001908152602001600020819055506019805480600101828161325e9190613e13565b9160005260206000209001600083909190915055505050565b60008061328383612196565b90508073ffffffffffffffffffffffffffffffffffffffff168473ffffffffffffffffffffffffffffffffffffffff1614806132f257508373ffffffffffffffffffffffffffffffffffffffff166132da846113ad565b73ffffffffffffffffffffffffffffffffffffffff16145b8061330357506133028185612f60565b5b91505092915050565b8173ffffffffffffffffffffffffffffffffffffffff1661332c82612196565b73ffffffffffffffffffffffffffffffffffffffff1614151561334e57600080fd5b600073ffffffffffffffffffffffffffffffffffffffff166012600083815260200190815260200160002060009054906101000a900473ffffffffffffffffffffffffffffffffffffffff1673ffffffffffffffffffffffffffffffffffffffff161415156134715760006012600083815260200190815260200160002060006101000a81548173ffffffffffffffffffffffffffffffffffffffff021916908373ffffffffffffffffffffffffffffffffffffffff160217905550600073ffffffffffffffffffffffffffffffffffffffff168273ffffffffffffffffffffffffffffffffffffffff167f8c5be1e5ebec7d5bd14f71427d1e84f3dd0314c0f7b2291e5b200ac8c7c3b925836040518082815260200191505060405180910390a35b5050565b60008060006134848585613a77565b601860008581526020019081526020016000205492506134f06001601760008873ffffffffffffffffffffffffffffffffffffffff1673ffffffffffffffffffffffffffffffffffffffff168152602001908152602001600020805490506137d890919063ffffffff16565b9150601760008673ffffffffffffffffffffffffffffffffffffffff1673ffffffffffffffffffffffffffffffffffffffff1681526020019081526020016000208281548110151561353e57fe5b906000526020600020900154905080601760008773ffffffffffffffffffffffffffffffffffffffff1673ffffffffffffffffffffffffffffffffffffffff1681526020019081526020016000208481548110151561359957fe5b9060005260206000209001819055506000601760008773ffffffffffffffffffffffffffffffffffffffff1673ffffffffffffffffffffffffffffffffffffffff168152602001908152602001600020838154811015156135f657fe5b906000526020600020900181905550601760008673ffffffffffffffffffffffffffffffffffffffff1673ffffffffffffffffffffffffffffffffffffffff1681526020019081526020016000208054809190600190036136579190613e3f565b50600060186000868152602001908152602001600020819055508260186000838152602001908152602001600020819055505050505050565b600061369c8383613ba6565b601760008473ffffffffffffffffffffffffffffffffffffffff1673ffffffffffffffffffffffffffffffffffffffff168152602001908152602001600020805490509050601760008473ffffffffffffffffffffffffffffffffffffffff1673ffffffffffffffffffffffffffffffffffffffff16815260200190815260200160002080548060010182816137329190613e13565b916000526020600020900160008490919091505550806018600084815260200190815260200160002081905550505050565b600080828401905083811015151561377857fe5b8091505092915050565b600080600084141561379757600091506137b6565b82840290508284828115156137a857fe5b041415156137b257fe5b8091505b5092915050565b60008082848115156137cb57fe5b0490508091505092915050565b60008282111515156137e657fe5b818303905092915050565b6000806138138573ffffffffffffffffffffffffffffffffffffffff16613d00565b151561382257600191506139be565b8473ffffffffffffffffffffffffffffffffffffffff1663f0b9e5ba8786866000604051602001526040518463ffffffff167c0100000000000000000000000000000000000000000000000000000000028152600401808473ffffffffffffffffffffffffffffffffffffffff1673ffffffffffffffffffffffffffffffffffffffff16815260200183815260200180602001828103825283818151815260200191508051906020019080838360005b838110156138ed5780820151818401526020810190506138d2565b50505050905090810190601f16801561391a5780820380516001836020036101000a031916815260200191505b50945050505050602060405180830381600087803b151561393a57600080fd5b6102c65a03f1151561394b57600080fd5b50505060405180519050905063f0b9e5ba7c0100000000000000000000000000000000000000000000000000000000027bffffffffffffffffffffffffffffffffffffffffffffffffffffffff1916817bffffffffffffffffffffffffffffffffffffffffffffffffffffffff19161491505b50949350505050565b600073ffffffffffffffffffffffffffffffffffffffff168273ffffffffffffffffffffffffffffffffffffffff1614151515613a0357600080fd5b613a0d8282613690565b8173ffffffffffffffffffffffffffffffffffffffff16600073ffffffffffffffffffffffffffffffffffffffff167fddf252ad1be2c89b69c2b068fc378daa952ba7f163c4a11628f55a4df523b3ef836040518082815260200191505060405180910390a35050565b8173ffffffffffffffffffffffffffffffffffffffff16613a9782612196565b73ffffffffffffffffffffffffffffffffffffffff16141515613ab957600080fd5b613b0c6001601360008573ffffffffffffffffffffffffffffffffffffffff1673ffffffffffffffffffffffffffffffffffffffff168152602001908152602001600020546137d890919063ffffffff16565b601360008473ffffffffffffffffffffffffffffffffffffffff1673ffffffffffffffffffffffffffffffffffffffff1681526020019081526020016000208190555060006011600083815260200190815260200160002060006101000a81548173ffffffffffffffffffffffffffffffffffffffff021916908373ffffffffffffffffffffffffffffffffffffffff1602179055505050565b600073ffffffffffffffffffffffffffffffffffffffff166011600083815260200190815260200160002060009054906101000a900473ffffffffffffffffffffffffffffffffffffffff1673ffffffffffffffffffffffffffffffffffffffff16141515613c1457600080fd5b816011600083815260200190815260200160002060006101000a81548173ffffffffffffffffffffffffffffffffffffffff021916908373ffffffffffffffffffffffffffffffffffffffff160217905550613cb96001601360008573ffffffffffffffffffffffffffffffffffffffff1673ffffffffffffffffffffffffffffffffffffffff1681526020019081526020016000205461376490919063ffffffff16565b601360008473ffffffffffffffffffffffffffffffffffffffff1673ffffffffffffffffffffffffffffffffffffffff168152602001908152602001600020819055505050565b600080823b905060008111915050919050565b602060405190810160405280600081525090565b815481835581811511613d4e57818360005260206000209182019101613d4d9190613e6b565b5b505050565b828054600181600116156101000203166002900490600052602060002090601f016020900481019282601f10613d9457803560ff1916838001178555613dc2565b82800160010185558215613dc2579182015b82811115613dc1578235825591602001919060010190613da6565b5b509050613dcf9190613e90565b5090565b815481835581811511613dfa57818360005260206000209182019101613df99190613e6b565b5b505050565b602060405190810160405280600081525090565b815481835581811511613e3a57818360005260206000209182019101613e399190613e90565b5b505050565b815481835581811511613e6657818360005260206000209182019101613e659190613e90565b5b505050565b613e8d91905b80821115613e89576000816000905550600101613e71565b5090565b90565b613eb291905b80821115613eae576000816000905550600101613e96565b5090565b90565b600073ffffffffffffffffffffffffffffffffffffffff168273ffffffffffffffffffffffffffffffffffffffff1614151515613ef157600080fd5b600081111515613f0057600080fd5b6000600260008473ffffffffffffffffffffffffffffffffffffffff1673ffffffffffffffffffffffffffffffffffffffff16815260200190815260200160002054141515613f4e57600080fd5b60048054806001018281613f629190614014565b9160005260206000209001600084909190916101000a81548173ffffffffffffffffffffffffffffffffffffffff021916908373ffffffffffffffffffffffffffffffffffffffff1602179055505080600260008473ffffffffffffffffffffffffffffffffffffffff1673ffffffffffffffffffffffffffffffffffffffff1681526020019081526020016000208190555061400a8160005461376490919063ffffffff16565b6000819055505050565b81548183558181151161403b5781836000526020600020918201910161403a9190613e90565b5b5050505600a165627a7a7230582092ee809dcc41906891e897f88f40742bc4607e3419917d3f1b970385e3c0bd7e00296060604052336000806101000a81548173ffffffffffffffffffffffffffffffffffffffff021916908373ffffffffffffffffffffffffffffffffffffffff160217905550610541806100536000396000f30060606040526004361061006d576000357c0100000000000000000000000000000000000000000000000000000000900463ffffffff16806383197ef0146100d55780638da5cb5b146100ea578063aad3ec961461013f578063f2fde38b14610181578063f5074f41146101ba575b341561007857600080fd5b6000809054906101000a900473ffffffffffffffffffffffffffffffffffffffff1673ffffffffffffffffffffffffffffffffffffffff163373ffffffffffffffffffffffffffffffffffffffff161415156100d357600080fd5b005b34156100e057600080fd5b6100e86101f3565b005b34156100f557600080fd5b6100fd610288565b604051808273ffffffffffffffffffffffffffffffffffffffff1673ffffffffffffffffffffffffffffffffffffffff16815260200191505060405180910390f35b341561014a57600080fd5b61017f600480803573ffffffffffffffffffffffffffffffffffffffff169060200190919080359060200190919050506102ad565b005b341561018c57600080fd5b6101b8600480803573ffffffffffffffffffffffffffffffffffffffff1690602001909190505061034c565b005b34156101c557600080fd5b6101f1600480803573ffffffffffffffffffffffffffffffffffffffff169060200190919050506104a1565b005b6000809054906101000a900473ffffffffffffffffffffffffffffffffffffffff1673ffffffffffffffffffffffffffffffffffffffff163373ffffffffffffffffffffffffffffffffffffffff1614151561024e57600080fd5b6000809054906101000a900473ffffffffffffffffffffffffffffffffffffffff1673ffffffffffffffffffffffffffffffffffffffff16ff5b6000809054906101000a900473ffffffffffffffffffffffffffffffffffffffff1681565b6000809054906101000a900473ffffffffffffffffffffffffffffffffffffffff1673ffffffffffffffffffffffffffffffffffffffff163373ffffffffffffffffffffffffffffffffffffffff1614151561030857600080fd5b8173ffffffffffffffffffffffffffffffffffffffff166108fc829081150290604051600060405180830381858888f19350505050151561034857600080fd5b5050565b6000809054906101000a900473ffffffffffffffffffffffffffffffffffffffff1673ffffffffffffffffffffffffffffffffffffffff163373ffffffffffffffffffffffffffffffffffffffff161415156103a757600080fd5b600073ffffffffffffffffffffffffffffffffffffffff168173ffffffffffffffffffffffffffffffffffffffff16141515156103e357600080fd5b8073ffffffffffffffffffffffffffffffffffffffff166000809054906101000a900473ffffffffffffffffffffffffffffffffffffffff1673ffffffffffffffffffffffffffffffffffffffff167f8be0079c531659141344cd1fd0a4f28419497f9722a3daafe3b4186f6b6457e060405160405180910390a3806000806101000a81548173ffffffffffffffffffffffffffffffffffffffff021916908373ffffffffffffffffffffffffffffffffffffffff16021790555050565b6000809054906101000a900473ffffffffffffffffffffffffffffffffffffffff1673ffffffffffffffffffffffffffffffffffffffff163373ffffffffffffffffffffffffffffffffffffffff161415156104fc57600080fd5b8073ffffffffffffffffffffffffffffffffffffffff16ff00a165627a7a72305820511fca0b94a0852734b2e8b9572b96e8d06eb1ae2116648341c4e9ec1620d7490029",
  "source": "pragma solidity ^0.4.19;\n\nimport \"zeppelin-solidity/contracts/token/ERC721/ERC721Token.sol\";\nimport \"zeppelin-solidity/contracts/math/SafeMath.sol\";\nimport \"zeppelin-solidity/contracts/AddressUtils.sol\";\nimport \"../common/SplitPaymentChangeable.sol\";\nimport \"./Chaingeareable.sol\";\nimport \"./EntryBase.sol\";\nimport \"../common/RegistrySafe.sol\";\n\ncontract Registry is Chaingeareable, ERC721Token, SplitPaymentChangeable {\n/* contract Registry is Chaingeareable, ERC721Token { */\n\n    using SafeMath for uint256;\n    using AddressUtils for address;\n\n    function Registry(\n        address[] _benefitiaries,\n        uint256[] _shares,\n        string _name,\n        string _symbol,\n        string _linkToABIOfEntriesContract,\n        bytes _bytecodeOfEntriesContract\n    )\n        SplitPaymentChangeable(_benefitiaries, _shares)\n        ERC721Token(_name, _symbol)\n        public\n        payable\n    {\n        permissionTypeEntries_ = PermissionTypeEntries.OnlyCreator;\n        registryName_ = _name;\n        linkToABIOfEntriesContract_ = _linkToABIOfEntriesContract;\n        registrySafe_ = new RegistrySafe();\n\n        address deployedAddress;\n        assembly {\n          let s := mload(_bytecodeOfEntriesContract)\n          let p := add(_bytecodeOfEntriesContract, 0x20)\n          deployedAddress := create(0, p, s)\n        }\n\n        assert(deployedAddress != 0x0);\n\n        entryBase_ = deployedAddress;\n    }\n\n    function createEntry(bytes _serializedParams)\n        external\n        payable\n        onlyPermissionedToEntries\n        returns (uint256)\n    {\n        require(msg.value == entryCreationFee_);\n\n        uint256 newEntryId = EntryBase(entryBase_).createEntry(_serializedParams);\n        _mint(msg.sender, newEntryId);\n\n        EntryCreated(msg.sender, newEntryId);\n\n        return newEntryId;\n    }\n\n    // function deleteEntry(uint256 _entryId)\n    //     whenNotPaused\n    //     external\n    // {\n    //     require(ERC721BasicToken.ownerOf(_entryId) == msg.sender);\n\n    //     uint256 entryIndex = allTokensIndex[_entryId];\n    //     uint256 lastEntryIndex = entries.length.sub(1);\n    //     Entry storage lastEntry = entries[lastEntryIndex];\n\n    //     entries[entryIndex] = lastEntry;\n    //     delete entries[lastEntryIndex];\n    //     entries.length--;\n\n    //     super._burn(msg.sender, _entryId);\n\n    //     EntryDeleted(msg.sender, _entryId);\n    // }\n\n\n    // function transferEntryOwnership(uint _entryId, address _newOwner)\n    //     whenNotPaused\n    //     external\n    // {\n    //     require (ERC721BasicToken.ownerOf(_entryId) == msg.sender);\n    //     // throw if balance?\n    //     //locked balance?\n    //     entries[_entryId].metainformation.owner = _newOwner;\n    //     entries[_entryId].metainformation.lastUpdateTime = block.timestamp;\n\n    //     super.removeTokenFrom(msg.sender, _entryId);\n    //     super.addTokenTo(_newOwner, _entryId);\n\n    //     EntryChangedOwner(_entryId, _newOwner);\n    // }\n\n    // function fundEntry(uint256 _entryId)\n    //     whenNotPaused\n    //     payable\n    //     public\n    // {\n    //     entries[_entryId].metainformation.accumulatedOverallEntryETH.add(msg.value);\n    //     registrySafe_.transfer(msg.value);\n\n    //     EntryFunded(_entryId, msg.sender);\n    // }\n\n    // function claimEntryFunds(uint256 _entryId, uint _amount)\n    //     whenNotPaused\n    //     public\n    // {\n    //     require(ERC721BasicToken.ownerOf(_entryId) == msg.sender);\n    //     require(_amount <= entries[_entryId].metainformation.currentEntryBalanceETH);\n    //     entries[_entryId].metainformation.currentEntryBalanceETH.sub(_amount);\n    //     RegistrySafe(registrySafe_).claim(msg.sender, _amount);\n\n    //     EntryFundsClaimed(_entryId, msg.sender, _amount);\n    // }\n}\n",
  "sourcePath": "/Users/litvintech/Projects/chaingear/contracts/registry/Registry.sol",
  "compiler": {
    "name": "solc",
    "version": "0.4.19+commit.c4cbbb05.Emscripten.clang"
  },
  "schemaVersion": "1.0.1",
  "updatedAt": "2018-04-19T16:48:45.080Z"
}