{
  "contractName": "RegistryAccessControl",
  "abi": [
    {
      "constant": false,
      "inputs": [],
      "name": "unpause",
      "outputs": [],
      "payable": false,
      "stateMutability": "nonpayable",
      "type": "function"
    },
    {
      "constant": true,
      "inputs": [],
      "name": "paused",
      "outputs": [
        {
          "name": "",
          "type": "bool"
        }
      ],
      "payable": false,
      "stateMutability": "view",
      "type": "function"
    },
    {
      "constant": false,
      "inputs": [],
      "name": "destroy",
      "outputs": [],
      "payable": false,
      "stateMutability": "nonpayable",
      "type": "function"
    },
    {
      "constant": false,
      "inputs": [],
      "name": "pause",
      "outputs": [],
      "payable": false,
      "stateMutability": "nonpayable",
      "type": "function"
    },
    {
      "constant": true,
      "inputs": [],
      "name": "owner",
      "outputs": [
        {
          "name": "",
          "type": "address"
        }
      ],
      "payable": false,
      "stateMutability": "view",
      "type": "function"
    },
    {
      "constant": false,
      "inputs": [
        {
          "name": "newOwner",
          "type": "address"
        }
      ],
      "name": "transferOwnership",
      "outputs": [],
      "payable": false,
      "stateMutability": "nonpayable",
      "type": "function"
    },
    {
      "constant": false,
      "inputs": [
        {
          "name": "_recipient",
          "type": "address"
        }
      ],
      "name": "destroyAndSend",
      "outputs": [],
      "payable": false,
      "stateMutability": "nonpayable",
      "type": "function"
    },
    {
      "inputs": [],
      "payable": false,
      "stateMutability": "nonpayable",
      "type": "constructor"
    },
    {
      "anonymous": false,
      "inputs": [],
      "name": "Pause",
      "type": "event"
    },
    {
      "anonymous": false,
      "inputs": [],
      "name": "Unpause",
      "type": "event"
    },
    {
      "anonymous": false,
      "inputs": [
        {
          "indexed": true,
          "name": "previousOwner",
          "type": "address"
        },
        {
          "indexed": true,
          "name": "newOwner",
          "type": "address"
        }
      ],
      "name": "OwnershipTransferred",
      "type": "event"
    },
    {
      "constant": true,
      "inputs": [],
      "name": "registryOwner",
      "outputs": [
        {
          "name": "",
          "type": "address"
        }
      ],
      "payable": false,
      "stateMutability": "view",
      "type": "function"
    },
    {
      "constant": true,
      "inputs": [],
      "name": "permissionsTypeEntries",
      "outputs": [
        {
          "name": "",
          "type": "uint8"
        }
      ],
      "payable": false,
      "stateMutability": "view",
      "type": "function"
    },
    {
      "constant": false,
      "inputs": [
        {
          "name": "_permissionTypeEntries",
          "type": "uint256"
        }
      ],
      "name": "updatePermissionTypeEntries",
      "outputs": [],
      "payable": false,
      "stateMutability": "nonpayable",
      "type": "function"
    }
  ],
  "bytecode": "0x606060405260008060146101000a81548160ff021916908315150217905550341561002957600080fd5b336000806101000a81548173ffffffffffffffffffffffffffffffffffffffff021916908373ffffffffffffffffffffffffffffffffffffffff16021790555032600160006101000a81548173ffffffffffffffffffffffffffffffffffffffff021916908373ffffffffffffffffffffffffffffffffffffffff1602179055506107b3806100b96000396000f3006060604052600436106100a4576000357c0100000000000000000000000000000000000000000000000000000000900463ffffffff16806327f5f1b6146100a9578063351c6bbe146100cc5780633f4ba83a146101035780635c975abb1461011857806383197ef0146101455780638456cb591461015a5780638da5cb5b1461016f578063dc5853c7146101c4578063f2fde38b14610219578063f5074f4114610252575b600080fd5b34156100b457600080fd5b6100ca600480803590602001909190505061028b565b005b34156100d757600080fd5b6100df610332565b604051808260028111156100ef57fe5b60ff16815260200191505060405180910390f35b341561010e57600080fd5b610116610349565b005b341561012357600080fd5b61012b610407565b604051808215151515815260200191505060405180910390f35b341561015057600080fd5b61015861041a565b005b341561016557600080fd5b61016d6104af565b005b341561017a57600080fd5b61018261056f565b604051808273ffffffffffffffffffffffffffffffffffffffff1673ffffffffffffffffffffffffffffffffffffffff16815260200191505060405180910390f35b34156101cf57600080fd5b6101d7610594565b604051808273ffffffffffffffffffffffffffffffffffffffff1673ffffffffffffffffffffffffffffffffffffffff16815260200191505060405180910390f35b341561022457600080fd5b610250600480803573ffffffffffffffffffffffffffffffffffffffff169060200190919050506105be565b005b341561025d57600080fd5b610289600480803573ffffffffffffffffffffffffffffffffffffffff16906020019091905050610713565b005b600160009054906101000a900473ffffffffffffffffffffffffffffffffffffffff1673ffffffffffffffffffffffffffffffffffffffff163373ffffffffffffffffffffffffffffffffffffffff161415156102e757600080fd5b806002808111156102f457fe5b1015151561030157600080fd5b80600281111561030d57fe5b600160146101000a81548160ff0219169083600281111561032a57fe5b021790555050565b6000600160149054906101000a900460ff16905090565b6000809054906101000a900473ffffffffffffffffffffffffffffffffffffffff1673ffffffffffffffffffffffffffffffffffffffff163373ffffffffffffffffffffffffffffffffffffffff161415156103a457600080fd5b600060149054906101000a900460ff1615156103bf57600080fd5b60008060146101000a81548160ff0219169083151502179055507f7805862f689e2f13df9f062ff482ad3ad112aca9e0847911ed832e158c525b3360405160405180910390a1565b600060149054906101000a900460ff1681565b6000809054906101000a900473ffffffffffffffffffffffffffffffffffffffff1673ffffffffffffffffffffffffffffffffffffffff163373ffffffffffffffffffffffffffffffffffffffff1614151561047557600080fd5b6000809054906101000a900473ffffffffffffffffffffffffffffffffffffffff1673ffffffffffffffffffffffffffffffffffffffff16ff5b6000809054906101000a900473ffffffffffffffffffffffffffffffffffffffff1673ffffffffffffffffffffffffffffffffffffffff163373ffffffffffffffffffffffffffffffffffffffff1614151561050a57600080fd5b600060149054906101000a900460ff1615151561052657600080fd5b6001600060146101000a81548160ff0219169083151502179055507f6985a02210a168e66602d3235cb6db0e70f92b3ba4d376a33c0f3d9434bff62560405160405180910390a1565b6000809054906101000a900473ffffffffffffffffffffffffffffffffffffffff1681565b6000600160009054906101000a900473ffffffffffffffffffffffffffffffffffffffff16905090565b6000809054906101000a900473ffffffffffffffffffffffffffffffffffffffff1673ffffffffffffffffffffffffffffffffffffffff163373ffffffffffffffffffffffffffffffffffffffff1614151561061957600080fd5b600073ffffffffffffffffffffffffffffffffffffffff168173ffffffffffffffffffffffffffffffffffffffff161415151561065557600080fd5b8073ffffffffffffffffffffffffffffffffffffffff166000809054906101000a900473ffffffffffffffffffffffffffffffffffffffff1673ffffffffffffffffffffffffffffffffffffffff167f8be0079c531659141344cd1fd0a4f28419497f9722a3daafe3b4186f6b6457e060405160405180910390a3806000806101000a81548173ffffffffffffffffffffffffffffffffffffffff021916908373ffffffffffffffffffffffffffffffffffffffff16021790555050565b6000809054906101000a900473ffffffffffffffffffffffffffffffffffffffff1673ffffffffffffffffffffffffffffffffffffffff163373ffffffffffffffffffffffffffffffffffffffff1614151561076e57600080fd5b8073ffffffffffffffffffffffffffffffffffffffff16ff00a165627a7a723058202f7b5dbd3fe0f0145f066d36a159f348336ae43ad0436f2018239d8a547e81b90029",
  "source": "pragma solidity ^0.4.19;\n\nimport \"zeppelin-solidity/contracts/ownership/Ownable.sol\";\nimport \"zeppelin-solidity/contracts/lifecycle/Destructible.sol\";\nimport \"zeppelin-solidity/contracts/lifecycle/Pausable.sol\";\n\ncontract RegistryAccessControl is Ownable, Pausable, Destructible {\n\n    address internal registryOwner_;\n\n    PermissionTypeEntries internal permissionTypeEntries_;\n\n    enum PermissionTypeEntries {OnlyCreator, Whitelist, AllUsers}\n\n    modifier onlyRegistryOwner() {\n        require(msg.sender == registryOwner_);\n        _;\n    }\n\n    modifier onlyPermissionedToEntries() {\n        if (permissionTypeEntries_ == PermissionTypeEntries.OnlyCreator) {\n            require(msg.sender == registryOwner_);\n        }\n        // if (permissionTypeEntries_ == PermissionTypeEntries.Whitelist) {\n        //     require(whitelist[msg.sender] || msg.sender == registryOwner_);\n        // }\n        _;\n    }\n\n    function RegistryAccessControl()\n        public\n    {\n        registryOwner_ = tx.origin;\n    }\n\n    function registryOwner()\n        public\n        view\n        returns (address)\n    {\n        return registryOwner_;\n    }\n\n    function permissionsTypeEntries()\n        public\n        view\n        returns (PermissionTypeEntries)\n    {\n        return permissionTypeEntries_;\n    }\n\n    function updatePermissionTypeEntries(uint _permissionTypeEntries)\n        external\n        onlyRegistryOwner\n    {\n        require(uint(PermissionTypeEntries.AllUsers) >= _permissionTypeEntries);\n        permissionTypeEntries_ = PermissionTypeEntries(_permissionTypeEntries);\n    }\n\n}\n",
  "sourcePath": "/Users/litvintech/Projects/chaingear/contracts/registry/RegistryAccessControl.sol",
  "compiler": {
    "name": "solc",
    "version": "0.4.19+commit.c4cbbb05.Emscripten.clang"
  },
  "schemaVersion": "1.0.1",
  "updatedAt": "2018-04-24T06:19:11.594Z"
}